{
	"data": {
		"bytecode": {
			"linkReferences": {},
			"object": "608060405234801561001057600080fd5b5061169f806100206000396000f3fe608060405234801561001057600080fd5b506004361061007d5760003560e01c8063b5929d411161005b578063b5929d41146100d6578063b739215214610106578063cda3c49914610136578063ed2e5a97146101525761007d565b80635adc0246146100825780638588b2c51461009e57806398c4c42c146100ba575b600080fd5b61009c60048036038101906100979190610c4d565b610182565b005b6100b860048036038101906100b39190610cd5565b61025b565b005b6100d460048036038101906100cf9190610cd5565b6103d9565b005b6100f060048036038101906100eb9190610d60565b61047e565b6040516100fd9190610eaa565b60405180910390f35b610120600480360381019061011b9190610ecc565b6105b9565b60405161012d9190610f4f565b60405180910390f35b610150600480360381019061014b9190610ecc565b6108a9565b005b61016c60048036038101906101679190610cd5565b6109db565b6040516101799190610eaa565b60405180910390f35b8460018054905081106101ca576040517f08c379a00000000000000000000000000000000000000000000000000000000081526004016101c190610fc7565b60405180910390fd5b8484600188815481106101e0576101df610fe7565b5b906000526020600020906004020160000191826101fe92919061125c565b50826001878154811061021457610213610fe7565b5b906000526020600020906004020160010181905550816001878154811061023e5761023d610fe7565b5b906000526020600020906004020160020181905550505050505050565b8060018054905081106102a3576040517f08c379a000000000000000000000000000000000000000000000000000000000815260040161029a90610fc7565b60405180910390fd5b60001515600183815481106102bb576102ba610fe7565b5b906000526020600020906004020160030160009054906101000a900460ff1615151461031c576040517f08c379a000000000000000000000000000000000000000000000000000000000815260040161031390611378565b60405180910390fd5b600180838154811061033157610330610fe7565b5b906000526020600020906004020160030160006101000a81548160ff021916908315150217905550816000803373ffffffffffffffffffffffffffffffffffffffff1673ffffffffffffffffffffffffffffffffffffffff168152602001908152602001600020819055507f9aef6c2097182771c472eb06441beff7252a3e6108e431904f9b3dc6865401fc82336040516103cd9291906113b6565b60405180910390a15050565b806001805490508110610421576040517f08c379a000000000000000000000000000000000000000000000000000000000815260040161041890610fc7565b60405180910390fd5b6001828154811061043557610434610fe7565b5b9060005260206000209060040201600080820160006104549190610b21565b600182016000905560028201600090556003820160006101000a81549060ff021916905550505050565b610486610b61565b60016000808473ffffffffffffffffffffffffffffffffffffffff1673ffffffffffffffffffffffffffffffffffffffff16815260200190815260200160002054815481106104d8576104d7610fe7565b5b90600052602060002090600402016040518060800160405290816000820180546105019061107f565b80601f016020809104026020016040519081016040528092919081815260200182805461052d9061107f565b801561057a5780601f1061054f5761010080835404028352916020019161057a565b820191906000526020600020905b81548152906001019060200180831161055d57829003601f168201915b5050505050815260200160018201548152602001600282015481526020016003820160009054906101000a900460ff1615151515815250509050919050565b6000806001805480602002602001604051908101604052809291908181526020016000905b828210156106d157838290600052602060002090600402016040518060800160405290816000820180546106119061107f565b80601f016020809104026020016040519081016040528092919081815260200182805461063d9061107f565b801561068a5780601f1061065f5761010080835404028352916020019161068a565b820191906000526020600020905b81548152906001019060200180831161066d57829003601f168201915b5050505050815260200160018201548152602001600282015481526020016003820160009054906101000a900460ff161515151581525050815260200190600101906105de565b50505050905060005b815181101561089a57600181815481106106f7576106f6610fe7565b5b9060005260206000209060040201600001604051602001610718919061146d565b6040516020818303038152906040528051906020012087876040516020016107419291906114b8565b604051602081830303815290604052805190602001200361088757848282815181106107705761076f610fe7565b5b6020026020010151602001511015610886578382828151811061079657610795610fe7565b5b602002602001015160400151101561088557600015158282815181106107bf576107be610fe7565b5b6020026020010151606001511515036108845760018282815181106107e7576107e6610fe7565b5b60200260200101516060019015159081151581525050806000803373ffffffffffffffffffffffffffffffffffffffff1673ffffffffffffffffffffffffffffffffffffffff168152602001908152602001600020819055507f9aef6c2097182771c472eb06441beff7252a3e6108e431904f9b3dc6865401fc81336040516108719291906113b6565b60405180910390a16001925050506108a1565b5b5b5b808061089290611500565b9150506106da565b5060009150505b949350505050565b6000604051806080016040528086868080601f016020809104026020016040519081016040528093929190818152602001838380828437600081840152601f19601f820116905080830192505050505050508152602001848152602001838152602001600015158152509050600181908060018154018082558091505060019003906000526020600020906004020160009091909190915060008201518160000190816109569190611548565b50602082015181600101556040820151816002015560608201518160030160006101000a81548160ff02191690831515021790555050507f46c2ccb7f70d71ee9ba22d41e83dd33314901aec4f17d4558c74302a4e19e8b9600180805490506109bf919061161a565b6040516109cc919061164e565b60405180910390a15050505050565b6109e3610b61565b816001805490508110610a2b576040517f08c379a0000000000000000000000000000000000000000000000000000000008152600401610a2290610fc7565b60405180910390fd5b60018381548110610a3f57610a3e610fe7565b5b9060005260206000209060040201604051806080016040529081600082018054610a689061107f565b80601f0160208091040260200160405190810160405280929190818152602001828054610a949061107f565b8015610ae15780601f10610ab657610100808354040283529160200191610ae1565b820191906000526020600020905b815481529060010190602001808311610ac457829003601f168201915b5050505050815260200160018201548152602001600282015481526020016003820160009054906101000a900460ff161515151581525050915050919050565b508054610b2d9061107f565b6000825580601f10610b3f5750610b5e565b601f016020900490600052602060002090810190610b5d9190610b8b565b5b50565b60405180608001604052806060815260200160008152602001600081526020016000151581525090565b5b80821115610ba4576000816000905550600101610b8c565b5090565b600080fd5b600080fd5b6000819050919050565b610bc581610bb2565b8114610bd057600080fd5b50565b600081359050610be281610bbc565b92915050565b600080fd5b600080fd5b600080fd5b60008083601f840112610c0d57610c0c610be8565b5b8235905067ffffffffffffffff811115610c2a57610c29610bed565b5b602083019150836001820283011115610c4657610c45610bf2565b5b9250929050565b600080600080600060808688031215610c6957610c68610ba8565b5b6000610c7788828901610bd3565b955050602086013567ffffffffffffffff811115610c9857610c97610bad565b5b610ca488828901610bf7565b94509450506040610cb788828901610bd3565b9250506060610cc888828901610bd3565b9150509295509295909350565b600060208284031215610ceb57610cea610ba8565b5b6000610cf984828501610bd3565b91505092915050565b600073ffffffffffffffffffffffffffffffffffffffff82169050919050565b6000610d2d82610d02565b9050919050565b610d3d81610d22565b8114610d4857600080fd5b50565b600081359050610d5a81610d34565b92915050565b600060208284031215610d7657610d75610ba8565b5b6000610d8484828501610d4b565b91505092915050565b600081519050919050565b600082825260208201905092915050565b60005b83811015610dc7578082015181840152602081019050610dac565b60008484015250505050565b6000601f19601f8301169050919050565b6000610def82610d8d565b610df98185610d98565b9350610e09818560208601610da9565b610e1281610dd3565b840191505092915050565b610e2681610bb2565b82525050565b60008115159050919050565b610e4181610e2c565b82525050565b60006080830160008301518482036000860152610e648282610de4565b9150506020830151610e796020860182610e1d565b506040830151610e8c6040860182610e1d565b506060830151610e9f6060860182610e38565b508091505092915050565b60006020820190508181036000830152610ec48184610e47565b905092915050565b60008060008060608587031215610ee657610ee5610ba8565b5b600085013567ffffffffffffffff811115610f0457610f03610bad565b5b610f1087828801610bf7565b94509450506020610f2387828801610bd3565b9250506040610f3487828801610bd3565b91505092959194509250565b610f4981610e2c565b82525050565b6000602082019050610f646000830184610f40565b92915050565b600082825260208201905092915050565b7f416e696d616c20646f6573206e6f742065786973740000000000000000000000600082015250565b6000610fb1601583610f6a565b9150610fbc82610f7b565b602082019050919050565b60006020820190508181036000830152610fe081610fa4565b9050919050565b7f4e487b7100000000000000000000000000000000000000000000000000000000600052603260045260246000fd5b600082905092915050565b7f4e487b7100000000000000000000000000000000000000000000000000000000600052604160045260246000fd5b7f4e487b7100000000000000000000000000000000000000000000000000000000600052602260045260246000fd5b6000600282049050600182168061109757607f821691505b6020821081036110aa576110a9611050565b5b50919050565b60008190508160005260206000209050919050565b60006020601f8301049050919050565b600082821b905092915050565b6000600883026111127fffffffffffffffffffffffffffffffffffffffffffffffffffffffffffffffff826110d5565b61111c86836110d5565b95508019841693508086168417925050509392505050565b6000819050919050565b600061115961115461114f84610bb2565b611134565b610bb2565b9050919050565b6000819050919050565b6111738361113e565b61118761117f82611160565b8484546110e2565b825550505050565b600090565b61119c61118f565b6111a781848461116a565b505050565b5b818110156111cb576111c0600082611194565b6001810190506111ad565b5050565b601f821115611210576111e1816110b0565b6111ea846110c5565b810160208510156111f9578190505b61120d611205856110c5565b8301826111ac565b50505b505050565b600082821c905092915050565b600061123360001984600802611215565b1980831691505092915050565b600061124c8383611222565b9150826002028217905092915050565b6112668383611016565b67ffffffffffffffff81111561127f5761127e611021565b5b611289825461107f565b6112948282856111cf565b6000601f8311600181146112c357600084156112b1578287013590505b6112bb8582611240565b865550611323565b601f1984166112d1866110b0565b60005b828110156112f9578489013582556001820191506020850194506020810190506112d4565b868310156113165784890135611312601f891682611222565b8355505b6001600288020188555050505b50505050505050565b7f5468697320616e696d616c20697320616c72656164792061646f707465640000600082015250565b6000611362601e83610f6a565b915061136d8261132c565b602082019050919050565b6000602082019050818103600083015261139181611355565b9050919050565b6113a181610bb2565b82525050565b6113b081610d22565b82525050565b60006040820190506113cb6000830185611398565b6113d860208301846113a7565b9392505050565b600081905092915050565b600081546113f78161107f565b61140181866113df565b9450600182166000811461141c576001811461143157611464565b60ff1983168652811515820286019350611464565b61143a856110b0565b60005b8381101561145c5781548189015260018201915060208101905061143d565b838801955050505b50505092915050565b600061147982846113ea565b915081905092915050565b82818337600083830152505050565b600061149f83856113df565b93506114ac838584611484565b82840190509392505050565b60006114c5828486611493565b91508190509392505050565b7f4e487b7100000000000000000000000000000000000000000000000000000000600052601160045260246000fd5b600061150b82610bb2565b91507fffffffffffffffffffffffffffffffffffffffffffffffffffffffffffffffff820361153d5761153c6114d1565b5b600182019050919050565b61155182610d8d565b67ffffffffffffffff81111561156a57611569611021565b5b611574825461107f565b61157f8282856111cf565b600060209050601f8311600181146115b257600084156115a0578287015190505b6115aa8582611240565b865550611612565b601f1984166115c0866110b0565b60005b828110156115e8578489015182556001820191506020850194506020810190506115c3565b868310156116055784890151611601601f891682611222565b8355505b6001600288020188555050505b505050505050565b600061162582610bb2565b915061163083610bb2565b9250828203905081811115611648576116476114d1565b5b92915050565b60006020820190506116636000830184611398565b9291505056fea2646970667358221220dc161f2addd88a80810f6be2816d3b8dcda29f3db79c3f37019409ebb63c503064736f6c63430008120033",
			"opcodes": "PUSH1 0x80 PUSH1 0x40 MSTORE CALLVALUE DUP1 ISZERO PUSH2 0x10 JUMPI PUSH1 0x0 DUP1 REVERT JUMPDEST POP PUSH2 0x169F DUP1 PUSH2 0x20 PUSH1 0x0 CODECOPY PUSH1 0x0 RETURN INVALID PUSH1 0x80 PUSH1 0x40 MSTORE CALLVALUE DUP1 ISZERO PUSH2 0x10 JUMPI PUSH1 0x0 DUP1 REVERT JUMPDEST POP PUSH1 0x4 CALLDATASIZE LT PUSH2 0x7D JUMPI PUSH1 0x0 CALLDATALOAD PUSH1 0xE0 SHR DUP1 PUSH4 0xB5929D41 GT PUSH2 0x5B JUMPI DUP1 PUSH4 0xB5929D41 EQ PUSH2 0xD6 JUMPI DUP1 PUSH4 0xB7392152 EQ PUSH2 0x106 JUMPI DUP1 PUSH4 0xCDA3C499 EQ PUSH2 0x136 JUMPI DUP1 PUSH4 0xED2E5A97 EQ PUSH2 0x152 JUMPI PUSH2 0x7D JUMP JUMPDEST DUP1 PUSH4 0x5ADC0246 EQ PUSH2 0x82 JUMPI DUP1 PUSH4 0x8588B2C5 EQ PUSH2 0x9E JUMPI DUP1 PUSH4 0x98C4C42C EQ PUSH2 0xBA JUMPI JUMPDEST PUSH1 0x0 DUP1 REVERT JUMPDEST PUSH2 0x9C PUSH1 0x4 DUP1 CALLDATASIZE SUB DUP2 ADD SWAP1 PUSH2 0x97 SWAP2 SWAP1 PUSH2 0xC4D JUMP JUMPDEST PUSH2 0x182 JUMP JUMPDEST STOP JUMPDEST PUSH2 0xB8 PUSH1 0x4 DUP1 CALLDATASIZE SUB DUP2 ADD SWAP1 PUSH2 0xB3 SWAP2 SWAP1 PUSH2 0xCD5 JUMP JUMPDEST PUSH2 0x25B JUMP JUMPDEST STOP JUMPDEST PUSH2 0xD4 PUSH1 0x4 DUP1 CALLDATASIZE SUB DUP2 ADD SWAP1 PUSH2 0xCF SWAP2 SWAP1 PUSH2 0xCD5 JUMP JUMPDEST PUSH2 0x3D9 JUMP JUMPDEST STOP JUMPDEST PUSH2 0xF0 PUSH1 0x4 DUP1 CALLDATASIZE SUB DUP2 ADD SWAP1 PUSH2 0xEB SWAP2 SWAP1 PUSH2 0xD60 JUMP JUMPDEST PUSH2 0x47E JUMP JUMPDEST PUSH1 0x40 MLOAD PUSH2 0xFD SWAP2 SWAP1 PUSH2 0xEAA JUMP JUMPDEST PUSH1 0x40 MLOAD DUP1 SWAP2 SUB SWAP1 RETURN JUMPDEST PUSH2 0x120 PUSH1 0x4 DUP1 CALLDATASIZE SUB DUP2 ADD SWAP1 PUSH2 0x11B SWAP2 SWAP1 PUSH2 0xECC JUMP JUMPDEST PUSH2 0x5B9 JUMP JUMPDEST PUSH1 0x40 MLOAD PUSH2 0x12D SWAP2 SWAP1 PUSH2 0xF4F JUMP JUMPDEST PUSH1 0x40 MLOAD DUP1 SWAP2 SUB SWAP1 RETURN JUMPDEST PUSH2 0x150 PUSH1 0x4 DUP1 CALLDATASIZE SUB DUP2 ADD SWAP1 PUSH2 0x14B SWAP2 SWAP1 PUSH2 0xECC JUMP JUMPDEST PUSH2 0x8A9 JUMP JUMPDEST STOP JUMPDEST PUSH2 0x16C PUSH1 0x4 DUP1 CALLDATASIZE SUB DUP2 ADD SWAP1 PUSH2 0x167 SWAP2 SWAP1 PUSH2 0xCD5 JUMP JUMPDEST PUSH2 0x9DB JUMP JUMPDEST PUSH1 0x40 MLOAD PUSH2 0x179 SWAP2 SWAP1 PUSH2 0xEAA JUMP JUMPDEST PUSH1 0x40 MLOAD DUP1 SWAP2 SUB SWAP1 RETURN JUMPDEST DUP5 PUSH1 0x1 DUP1 SLOAD SWAP1 POP DUP2 LT PUSH2 0x1CA JUMPI PUSH1 0x40 MLOAD PUSH32 0x8C379A000000000000000000000000000000000000000000000000000000000 DUP2 MSTORE PUSH1 0x4 ADD PUSH2 0x1C1 SWAP1 PUSH2 0xFC7 JUMP JUMPDEST PUSH1 0x40 MLOAD DUP1 SWAP2 SUB SWAP1 REVERT JUMPDEST DUP5 DUP5 PUSH1 0x1 DUP9 DUP2 SLOAD DUP2 LT PUSH2 0x1E0 JUMPI PUSH2 0x1DF PUSH2 0xFE7 JUMP JUMPDEST JUMPDEST SWAP1 PUSH1 0x0 MSTORE PUSH1 0x20 PUSH1 0x0 KECCAK256 SWAP1 PUSH1 0x4 MUL ADD PUSH1 0x0 ADD SWAP2 DUP3 PUSH2 0x1FE SWAP3 SWAP2 SWAP1 PUSH2 0x125C JUMP JUMPDEST POP DUP3 PUSH1 0x1 DUP8 DUP2 SLOAD DUP2 LT PUSH2 0x214 JUMPI PUSH2 0x213 PUSH2 0xFE7 JUMP JUMPDEST JUMPDEST SWAP1 PUSH1 0x0 MSTORE PUSH1 0x20 PUSH1 0x0 KECCAK256 SWAP1 PUSH1 0x4 MUL ADD PUSH1 0x1 ADD DUP2 SWAP1 SSTORE POP DUP2 PUSH1 0x1 DUP8 DUP2 SLOAD DUP2 LT PUSH2 0x23E JUMPI PUSH2 0x23D PUSH2 0xFE7 JUMP JUMPDEST JUMPDEST SWAP1 PUSH1 0x0 MSTORE PUSH1 0x20 PUSH1 0x0 KECCAK256 SWAP1 PUSH1 0x4 MUL ADD PUSH1 0x2 ADD DUP2 SWAP1 SSTORE POP POP POP POP POP POP POP JUMP JUMPDEST DUP1 PUSH1 0x1 DUP1 SLOAD SWAP1 POP DUP2 LT PUSH2 0x2A3 JUMPI PUSH1 0x40 MLOAD PUSH32 0x8C379A000000000000000000000000000000000000000000000000000000000 DUP2 MSTORE PUSH1 0x4 ADD PUSH2 0x29A SWAP1 PUSH2 0xFC7 JUMP JUMPDEST PUSH1 0x40 MLOAD DUP1 SWAP2 SUB SWAP1 REVERT JUMPDEST PUSH1 0x0 ISZERO ISZERO PUSH1 0x1 DUP4 DUP2 SLOAD DUP2 LT PUSH2 0x2BB JUMPI PUSH2 0x2BA PUSH2 0xFE7 JUMP JUMPDEST JUMPDEST SWAP1 PUSH1 0x0 MSTORE PUSH1 0x20 PUSH1 0x0 KECCAK256 SWAP1 PUSH1 0x4 MUL ADD PUSH1 0x3 ADD PUSH1 0x0 SWAP1 SLOAD SWAP1 PUSH2 0x100 EXP SWAP1 DIV PUSH1 0xFF AND ISZERO ISZERO EQ PUSH2 0x31C JUMPI PUSH1 0x40 MLOAD PUSH32 0x8C379A000000000000000000000000000000000000000000000000000000000 DUP2 MSTORE PUSH1 0x4 ADD PUSH2 0x313 SWAP1 PUSH2 0x1378 JUMP JUMPDEST PUSH1 0x40 MLOAD DUP1 SWAP2 SUB SWAP1 REVERT JUMPDEST PUSH1 0x1 DUP1 DUP4 DUP2 SLOAD DUP2 LT PUSH2 0x331 JUMPI PUSH2 0x330 PUSH2 0xFE7 JUMP JUMPDEST JUMPDEST SWAP1 PUSH1 0x0 MSTORE PUSH1 0x20 PUSH1 0x0 KECCAK256 SWAP1 PUSH1 0x4 MUL ADD PUSH1 0x3 ADD PUSH1 0x0 PUSH2 0x100 EXP DUP2 SLOAD DUP2 PUSH1 0xFF MUL NOT AND SWAP1 DUP4 ISZERO ISZERO MUL OR SWAP1 SSTORE POP DUP2 PUSH1 0x0 DUP1 CALLER PUSH20 0xFFFFFFFFFFFFFFFFFFFFFFFFFFFFFFFFFFFFFFFF AND PUSH20 0xFFFFFFFFFFFFFFFFFFFFFFFFFFFFFFFFFFFFFFFF AND DUP2 MSTORE PUSH1 0x20 ADD SWAP1 DUP2 MSTORE PUSH1 0x20 ADD PUSH1 0x0 KECCAK256 DUP2 SWAP1 SSTORE POP PUSH32 0x9AEF6C2097182771C472EB06441BEFF7252A3E6108E431904F9B3DC6865401FC DUP3 CALLER PUSH1 0x40 MLOAD PUSH2 0x3CD SWAP3 SWAP2 SWAP1 PUSH2 0x13B6 JUMP JUMPDEST PUSH1 0x40 MLOAD DUP1 SWAP2 SUB SWAP1 LOG1 POP POP JUMP JUMPDEST DUP1 PUSH1 0x1 DUP1 SLOAD SWAP1 POP DUP2 LT PUSH2 0x421 JUMPI PUSH1 0x40 MLOAD PUSH32 0x8C379A000000000000000000000000000000000000000000000000000000000 DUP2 MSTORE PUSH1 0x4 ADD PUSH2 0x418 SWAP1 PUSH2 0xFC7 JUMP JUMPDEST PUSH1 0x40 MLOAD DUP1 SWAP2 SUB SWAP1 REVERT JUMPDEST PUSH1 0x1 DUP3 DUP2 SLOAD DUP2 LT PUSH2 0x435 JUMPI PUSH2 0x434 PUSH2 0xFE7 JUMP JUMPDEST JUMPDEST SWAP1 PUSH1 0x0 MSTORE PUSH1 0x20 PUSH1 0x0 KECCAK256 SWAP1 PUSH1 0x4 MUL ADD PUSH1 0x0 DUP1 DUP3 ADD PUSH1 0x0 PUSH2 0x454 SWAP2 SWAP1 PUSH2 0xB21 JUMP JUMPDEST PUSH1 0x1 DUP3 ADD PUSH1 0x0 SWAP1 SSTORE PUSH1 0x2 DUP3 ADD PUSH1 0x0 SWAP1 SSTORE PUSH1 0x3 DUP3 ADD PUSH1 0x0 PUSH2 0x100 EXP DUP2 SLOAD SWAP1 PUSH1 0xFF MUL NOT AND SWAP1 SSTORE POP POP POP POP JUMP JUMPDEST PUSH2 0x486 PUSH2 0xB61 JUMP JUMPDEST PUSH1 0x1 PUSH1 0x0 DUP1 DUP5 PUSH20 0xFFFFFFFFFFFFFFFFFFFFFFFFFFFFFFFFFFFFFFFF AND PUSH20 0xFFFFFFFFFFFFFFFFFFFFFFFFFFFFFFFFFFFFFFFF AND DUP2 MSTORE PUSH1 0x20 ADD SWAP1 DUP2 MSTORE PUSH1 0x20 ADD PUSH1 0x0 KECCAK256 SLOAD DUP2 SLOAD DUP2 LT PUSH2 0x4D8 JUMPI PUSH2 0x4D7 PUSH2 0xFE7 JUMP JUMPDEST JUMPDEST SWAP1 PUSH1 0x0 MSTORE PUSH1 0x20 PUSH1 0x0 KECCAK256 SWAP1 PUSH1 0x4 MUL ADD PUSH1 0x40 MLOAD DUP1 PUSH1 0x80 ADD PUSH1 0x40 MSTORE SWAP1 DUP2 PUSH1 0x0 DUP3 ADD DUP1 SLOAD PUSH2 0x501 SWAP1 PUSH2 0x107F JUMP JUMPDEST DUP1 PUSH1 0x1F ADD PUSH1 0x20 DUP1 SWAP2 DIV MUL PUSH1 0x20 ADD PUSH1 0x40 MLOAD SWAP1 DUP2 ADD PUSH1 0x40 MSTORE DUP1 SWAP3 SWAP2 SWAP1 DUP2 DUP2 MSTORE PUSH1 0x20 ADD DUP3 DUP1 SLOAD PUSH2 0x52D SWAP1 PUSH2 0x107F JUMP JUMPDEST DUP1 ISZERO PUSH2 0x57A JUMPI DUP1 PUSH1 0x1F LT PUSH2 0x54F JUMPI PUSH2 0x100 DUP1 DUP4 SLOAD DIV MUL DUP4 MSTORE SWAP2 PUSH1 0x20 ADD SWAP2 PUSH2 0x57A JUMP JUMPDEST DUP3 ADD SWAP2 SWAP1 PUSH1 0x0 MSTORE PUSH1 0x20 PUSH1 0x0 KECCAK256 SWAP1 JUMPDEST DUP2 SLOAD DUP2 MSTORE SWAP1 PUSH1 0x1 ADD SWAP1 PUSH1 0x20 ADD DUP1 DUP4 GT PUSH2 0x55D JUMPI DUP3 SWAP1 SUB PUSH1 0x1F AND DUP3 ADD SWAP2 JUMPDEST POP POP POP POP POP DUP2 MSTORE PUSH1 0x20 ADD PUSH1 0x1 DUP3 ADD SLOAD DUP2 MSTORE PUSH1 0x20 ADD PUSH1 0x2 DUP3 ADD SLOAD DUP2 MSTORE PUSH1 0x20 ADD PUSH1 0x3 DUP3 ADD PUSH1 0x0 SWAP1 SLOAD SWAP1 PUSH2 0x100 EXP SWAP1 DIV PUSH1 0xFF AND ISZERO ISZERO ISZERO ISZERO DUP2 MSTORE POP POP SWAP1 POP SWAP2 SWAP1 POP JUMP JUMPDEST PUSH1 0x0 DUP1 PUSH1 0x1 DUP1 SLOAD DUP1 PUSH1 0x20 MUL PUSH1 0x20 ADD PUSH1 0x40 MLOAD SWAP1 DUP2 ADD PUSH1 0x40 MSTORE DUP1 SWAP3 SWAP2 SWAP1 DUP2 DUP2 MSTORE PUSH1 0x20 ADD PUSH1 0x0 SWAP1 JUMPDEST DUP3 DUP3 LT ISZERO PUSH2 0x6D1 JUMPI DUP4 DUP3 SWAP1 PUSH1 0x0 MSTORE PUSH1 0x20 PUSH1 0x0 KECCAK256 SWAP1 PUSH1 0x4 MUL ADD PUSH1 0x40 MLOAD DUP1 PUSH1 0x80 ADD PUSH1 0x40 MSTORE SWAP1 DUP2 PUSH1 0x0 DUP3 ADD DUP1 SLOAD PUSH2 0x611 SWAP1 PUSH2 0x107F JUMP JUMPDEST DUP1 PUSH1 0x1F ADD PUSH1 0x20 DUP1 SWAP2 DIV MUL PUSH1 0x20 ADD PUSH1 0x40 MLOAD SWAP1 DUP2 ADD PUSH1 0x40 MSTORE DUP1 SWAP3 SWAP2 SWAP1 DUP2 DUP2 MSTORE PUSH1 0x20 ADD DUP3 DUP1 SLOAD PUSH2 0x63D SWAP1 PUSH2 0x107F JUMP JUMPDEST DUP1 ISZERO PUSH2 0x68A JUMPI DUP1 PUSH1 0x1F LT PUSH2 0x65F JUMPI PUSH2 0x100 DUP1 DUP4 SLOAD DIV MUL DUP4 MSTORE SWAP2 PUSH1 0x20 ADD SWAP2 PUSH2 0x68A JUMP JUMPDEST DUP3 ADD SWAP2 SWAP1 PUSH1 0x0 MSTORE PUSH1 0x20 PUSH1 0x0 KECCAK256 SWAP1 JUMPDEST DUP2 SLOAD DUP2 MSTORE SWAP1 PUSH1 0x1 ADD SWAP1 PUSH1 0x20 ADD DUP1 DUP4 GT PUSH2 0x66D JUMPI DUP3 SWAP1 SUB PUSH1 0x1F AND DUP3 ADD SWAP2 JUMPDEST POP POP POP POP POP DUP2 MSTORE PUSH1 0x20 ADD PUSH1 0x1 DUP3 ADD SLOAD DUP2 MSTORE PUSH1 0x20 ADD PUSH1 0x2 DUP3 ADD SLOAD DUP2 MSTORE PUSH1 0x20 ADD PUSH1 0x3 DUP3 ADD PUSH1 0x0 SWAP1 SLOAD SWAP1 PUSH2 0x100 EXP SWAP1 DIV PUSH1 0xFF AND ISZERO ISZERO ISZERO ISZERO DUP2 MSTORE POP POP DUP2 MSTORE PUSH1 0x20 ADD SWAP1 PUSH1 0x1 ADD SWAP1 PUSH2 0x5DE JUMP JUMPDEST POP POP POP POP SWAP1 POP PUSH1 0x0 JUMPDEST DUP2 MLOAD DUP2 LT ISZERO PUSH2 0x89A JUMPI PUSH1 0x1 DUP2 DUP2 SLOAD DUP2 LT PUSH2 0x6F7 JUMPI PUSH2 0x6F6 PUSH2 0xFE7 JUMP JUMPDEST JUMPDEST SWAP1 PUSH1 0x0 MSTORE PUSH1 0x20 PUSH1 0x0 KECCAK256 SWAP1 PUSH1 0x4 MUL ADD PUSH1 0x0 ADD PUSH1 0x40 MLOAD PUSH1 0x20 ADD PUSH2 0x718 SWAP2 SWAP1 PUSH2 0x146D JUMP JUMPDEST PUSH1 0x40 MLOAD PUSH1 0x20 DUP2 DUP4 SUB SUB DUP2 MSTORE SWAP1 PUSH1 0x40 MSTORE DUP1 MLOAD SWAP1 PUSH1 0x20 ADD KECCAK256 DUP8 DUP8 PUSH1 0x40 MLOAD PUSH1 0x20 ADD PUSH2 0x741 SWAP3 SWAP2 SWAP1 PUSH2 0x14B8 JUMP JUMPDEST PUSH1 0x40 MLOAD PUSH1 0x20 DUP2 DUP4 SUB SUB DUP2 MSTORE SWAP1 PUSH1 0x40 MSTORE DUP1 MLOAD SWAP1 PUSH1 0x20 ADD KECCAK256 SUB PUSH2 0x887 JUMPI DUP5 DUP3 DUP3 DUP2 MLOAD DUP2 LT PUSH2 0x770 JUMPI PUSH2 0x76F PUSH2 0xFE7 JUMP JUMPDEST JUMPDEST PUSH1 0x20 MUL PUSH1 0x20 ADD ADD MLOAD PUSH1 0x20 ADD MLOAD LT ISZERO PUSH2 0x886 JUMPI DUP4 DUP3 DUP3 DUP2 MLOAD DUP2 LT PUSH2 0x796 JUMPI PUSH2 0x795 PUSH2 0xFE7 JUMP JUMPDEST JUMPDEST PUSH1 0x20 MUL PUSH1 0x20 ADD ADD MLOAD PUSH1 0x40 ADD MLOAD LT ISZERO PUSH2 0x885 JUMPI PUSH1 0x0 ISZERO ISZERO DUP3 DUP3 DUP2 MLOAD DUP2 LT PUSH2 0x7BF JUMPI PUSH2 0x7BE PUSH2 0xFE7 JUMP JUMPDEST JUMPDEST PUSH1 0x20 MUL PUSH1 0x20 ADD ADD MLOAD PUSH1 0x60 ADD MLOAD ISZERO ISZERO SUB PUSH2 0x884 JUMPI PUSH1 0x1 DUP3 DUP3 DUP2 MLOAD DUP2 LT PUSH2 0x7E7 JUMPI PUSH2 0x7E6 PUSH2 0xFE7 JUMP JUMPDEST JUMPDEST PUSH1 0x20 MUL PUSH1 0x20 ADD ADD MLOAD PUSH1 0x60 ADD SWAP1 ISZERO ISZERO SWAP1 DUP2 ISZERO ISZERO DUP2 MSTORE POP POP DUP1 PUSH1 0x0 DUP1 CALLER PUSH20 0xFFFFFFFFFFFFFFFFFFFFFFFFFFFFFFFFFFFFFFFF AND PUSH20 0xFFFFFFFFFFFFFFFFFFFFFFFFFFFFFFFFFFFFFFFF AND DUP2 MSTORE PUSH1 0x20 ADD SWAP1 DUP2 MSTORE PUSH1 0x20 ADD PUSH1 0x0 KECCAK256 DUP2 SWAP1 SSTORE POP PUSH32 0x9AEF6C2097182771C472EB06441BEFF7252A3E6108E431904F9B3DC6865401FC DUP2 CALLER PUSH1 0x40 MLOAD PUSH2 0x871 SWAP3 SWAP2 SWAP1 PUSH2 0x13B6 JUMP JUMPDEST PUSH1 0x40 MLOAD DUP1 SWAP2 SUB SWAP1 LOG1 PUSH1 0x1 SWAP3 POP POP POP PUSH2 0x8A1 JUMP JUMPDEST JUMPDEST JUMPDEST JUMPDEST DUP1 DUP1 PUSH2 0x892 SWAP1 PUSH2 0x1500 JUMP JUMPDEST SWAP2 POP POP PUSH2 0x6DA JUMP JUMPDEST POP PUSH1 0x0 SWAP2 POP POP JUMPDEST SWAP5 SWAP4 POP POP POP POP JUMP JUMPDEST PUSH1 0x0 PUSH1 0x40 MLOAD DUP1 PUSH1 0x80 ADD PUSH1 0x40 MSTORE DUP1 DUP7 DUP7 DUP1 DUP1 PUSH1 0x1F ADD PUSH1 0x20 DUP1 SWAP2 DIV MUL PUSH1 0x20 ADD PUSH1 0x40 MLOAD SWAP1 DUP2 ADD PUSH1 0x40 MSTORE DUP1 SWAP4 SWAP3 SWAP2 SWAP1 DUP2 DUP2 MSTORE PUSH1 0x20 ADD DUP4 DUP4 DUP1 DUP3 DUP5 CALLDATACOPY PUSH1 0x0 DUP2 DUP5 ADD MSTORE PUSH1 0x1F NOT PUSH1 0x1F DUP3 ADD AND SWAP1 POP DUP1 DUP4 ADD SWAP3 POP POP POP POP POP POP POP DUP2 MSTORE PUSH1 0x20 ADD DUP5 DUP2 MSTORE PUSH1 0x20 ADD DUP4 DUP2 MSTORE PUSH1 0x20 ADD PUSH1 0x0 ISZERO ISZERO DUP2 MSTORE POP SWAP1 POP PUSH1 0x1 DUP2 SWAP1 DUP1 PUSH1 0x1 DUP2 SLOAD ADD DUP1 DUP3 SSTORE DUP1 SWAP2 POP POP PUSH1 0x1 SWAP1 SUB SWAP1 PUSH1 0x0 MSTORE PUSH1 0x20 PUSH1 0x0 KECCAK256 SWAP1 PUSH1 0x4 MUL ADD PUSH1 0x0 SWAP1 SWAP2 SWAP1 SWAP2 SWAP1 SWAP2 POP PUSH1 0x0 DUP3 ADD MLOAD DUP2 PUSH1 0x0 ADD SWAP1 DUP2 PUSH2 0x956 SWAP2 SWAP1 PUSH2 0x1548 JUMP JUMPDEST POP PUSH1 0x20 DUP3 ADD MLOAD DUP2 PUSH1 0x1 ADD SSTORE PUSH1 0x40 DUP3 ADD MLOAD DUP2 PUSH1 0x2 ADD SSTORE PUSH1 0x60 DUP3 ADD MLOAD DUP2 PUSH1 0x3 ADD PUSH1 0x0 PUSH2 0x100 EXP DUP2 SLOAD DUP2 PUSH1 0xFF MUL NOT AND SWAP1 DUP4 ISZERO ISZERO MUL OR SWAP1 SSTORE POP POP POP PUSH32 0x46C2CCB7F70D71EE9BA22D41E83DD33314901AEC4F17D4558C74302A4E19E8B9 PUSH1 0x1 DUP1 DUP1 SLOAD SWAP1 POP PUSH2 0x9BF SWAP2 SWAP1 PUSH2 0x161A JUMP JUMPDEST PUSH1 0x40 MLOAD PUSH2 0x9CC SWAP2 SWAP1 PUSH2 0x164E JUMP JUMPDEST PUSH1 0x40 MLOAD DUP1 SWAP2 SUB SWAP1 LOG1 POP POP POP POP POP JUMP JUMPDEST PUSH2 0x9E3 PUSH2 0xB61 JUMP JUMPDEST DUP2 PUSH1 0x1 DUP1 SLOAD SWAP1 POP DUP2 LT PUSH2 0xA2B JUMPI PUSH1 0x40 MLOAD PUSH32 0x8C379A000000000000000000000000000000000000000000000000000000000 DUP2 MSTORE PUSH1 0x4 ADD PUSH2 0xA22 SWAP1 PUSH2 0xFC7 JUMP JUMPDEST PUSH1 0x40 MLOAD DUP1 SWAP2 SUB SWAP1 REVERT JUMPDEST PUSH1 0x1 DUP4 DUP2 SLOAD DUP2 LT PUSH2 0xA3F JUMPI PUSH2 0xA3E PUSH2 0xFE7 JUMP JUMPDEST JUMPDEST SWAP1 PUSH1 0x0 MSTORE PUSH1 0x20 PUSH1 0x0 KECCAK256 SWAP1 PUSH1 0x4 MUL ADD PUSH1 0x40 MLOAD DUP1 PUSH1 0x80 ADD PUSH1 0x40 MSTORE SWAP1 DUP2 PUSH1 0x0 DUP3 ADD DUP1 SLOAD PUSH2 0xA68 SWAP1 PUSH2 0x107F JUMP JUMPDEST DUP1 PUSH1 0x1F ADD PUSH1 0x20 DUP1 SWAP2 DIV MUL PUSH1 0x20 ADD PUSH1 0x40 MLOAD SWAP1 DUP2 ADD PUSH1 0x40 MSTORE DUP1 SWAP3 SWAP2 SWAP1 DUP2 DUP2 MSTORE PUSH1 0x20 ADD DUP3 DUP1 SLOAD PUSH2 0xA94 SWAP1 PUSH2 0x107F JUMP JUMPDEST DUP1 ISZERO PUSH2 0xAE1 JUMPI DUP1 PUSH1 0x1F LT PUSH2 0xAB6 JUMPI PUSH2 0x100 DUP1 DUP4 SLOAD DIV MUL DUP4 MSTORE SWAP2 PUSH1 0x20 ADD SWAP2 PUSH2 0xAE1 JUMP JUMPDEST DUP3 ADD SWAP2 SWAP1 PUSH1 0x0 MSTORE PUSH1 0x20 PUSH1 0x0 KECCAK256 SWAP1 JUMPDEST DUP2 SLOAD DUP2 MSTORE SWAP1 PUSH1 0x1 ADD SWAP1 PUSH1 0x20 ADD DUP1 DUP4 GT PUSH2 0xAC4 JUMPI DUP3 SWAP1 SUB PUSH1 0x1F AND DUP3 ADD SWAP2 JUMPDEST POP POP POP POP POP DUP2 MSTORE PUSH1 0x20 ADD PUSH1 0x1 DUP3 ADD SLOAD DUP2 MSTORE PUSH1 0x20 ADD PUSH1 0x2 DUP3 ADD SLOAD DUP2 MSTORE PUSH1 0x20 ADD PUSH1 0x3 DUP3 ADD PUSH1 0x0 SWAP1 SLOAD SWAP1 PUSH2 0x100 EXP SWAP1 DIV PUSH1 0xFF AND ISZERO ISZERO ISZERO ISZERO DUP2 MSTORE POP POP SWAP2 POP POP SWAP2 SWAP1 POP JUMP JUMPDEST POP DUP1 SLOAD PUSH2 0xB2D SWAP1 PUSH2 0x107F JUMP JUMPDEST PUSH1 0x0 DUP3 SSTORE DUP1 PUSH1 0x1F LT PUSH2 0xB3F JUMPI POP PUSH2 0xB5E JUMP JUMPDEST PUSH1 0x1F ADD PUSH1 0x20 SWAP1 DIV SWAP1 PUSH1 0x0 MSTORE PUSH1 0x20 PUSH1 0x0 KECCAK256 SWAP1 DUP2 ADD SWAP1 PUSH2 0xB5D SWAP2 SWAP1 PUSH2 0xB8B JUMP JUMPDEST JUMPDEST POP JUMP JUMPDEST PUSH1 0x40 MLOAD DUP1 PUSH1 0x80 ADD PUSH1 0x40 MSTORE DUP1 PUSH1 0x60 DUP2 MSTORE PUSH1 0x20 ADD PUSH1 0x0 DUP2 MSTORE PUSH1 0x20 ADD PUSH1 0x0 DUP2 MSTORE PUSH1 0x20 ADD PUSH1 0x0 ISZERO ISZERO DUP2 MSTORE POP SWAP1 JUMP JUMPDEST JUMPDEST DUP1 DUP3 GT ISZERO PUSH2 0xBA4 JUMPI PUSH1 0x0 DUP2 PUSH1 0x0 SWAP1 SSTORE POP PUSH1 0x1 ADD PUSH2 0xB8C JUMP JUMPDEST POP SWAP1 JUMP JUMPDEST PUSH1 0x0 DUP1 REVERT JUMPDEST PUSH1 0x0 DUP1 REVERT JUMPDEST PUSH1 0x0 DUP2 SWAP1 POP SWAP2 SWAP1 POP JUMP JUMPDEST PUSH2 0xBC5 DUP2 PUSH2 0xBB2 JUMP JUMPDEST DUP2 EQ PUSH2 0xBD0 JUMPI PUSH1 0x0 DUP1 REVERT JUMPDEST POP JUMP JUMPDEST PUSH1 0x0 DUP2 CALLDATALOAD SWAP1 POP PUSH2 0xBE2 DUP2 PUSH2 0xBBC JUMP JUMPDEST SWAP3 SWAP2 POP POP JUMP JUMPDEST PUSH1 0x0 DUP1 REVERT JUMPDEST PUSH1 0x0 DUP1 REVERT JUMPDEST PUSH1 0x0 DUP1 REVERT JUMPDEST PUSH1 0x0 DUP1 DUP4 PUSH1 0x1F DUP5 ADD SLT PUSH2 0xC0D JUMPI PUSH2 0xC0C PUSH2 0xBE8 JUMP JUMPDEST JUMPDEST DUP3 CALLDATALOAD SWAP1 POP PUSH8 0xFFFFFFFFFFFFFFFF DUP2 GT ISZERO PUSH2 0xC2A JUMPI PUSH2 0xC29 PUSH2 0xBED JUMP JUMPDEST JUMPDEST PUSH1 0x20 DUP4 ADD SWAP2 POP DUP4 PUSH1 0x1 DUP3 MUL DUP4 ADD GT ISZERO PUSH2 0xC46 JUMPI PUSH2 0xC45 PUSH2 0xBF2 JUMP JUMPDEST JUMPDEST SWAP3 POP SWAP3 SWAP1 POP JUMP JUMPDEST PUSH1 0x0 DUP1 PUSH1 0x0 DUP1 PUSH1 0x0 PUSH1 0x80 DUP7 DUP9 SUB SLT ISZERO PUSH2 0xC69 JUMPI PUSH2 0xC68 PUSH2 0xBA8 JUMP JUMPDEST JUMPDEST PUSH1 0x0 PUSH2 0xC77 DUP9 DUP3 DUP10 ADD PUSH2 0xBD3 JUMP JUMPDEST SWAP6 POP POP PUSH1 0x20 DUP7 ADD CALLDATALOAD PUSH8 0xFFFFFFFFFFFFFFFF DUP2 GT ISZERO PUSH2 0xC98 JUMPI PUSH2 0xC97 PUSH2 0xBAD JUMP JUMPDEST JUMPDEST PUSH2 0xCA4 DUP9 DUP3 DUP10 ADD PUSH2 0xBF7 JUMP JUMPDEST SWAP5 POP SWAP5 POP POP PUSH1 0x40 PUSH2 0xCB7 DUP9 DUP3 DUP10 ADD PUSH2 0xBD3 JUMP JUMPDEST SWAP3 POP POP PUSH1 0x60 PUSH2 0xCC8 DUP9 DUP3 DUP10 ADD PUSH2 0xBD3 JUMP JUMPDEST SWAP2 POP POP SWAP3 SWAP6 POP SWAP3 SWAP6 SWAP1 SWAP4 POP JUMP JUMPDEST PUSH1 0x0 PUSH1 0x20 DUP3 DUP5 SUB SLT ISZERO PUSH2 0xCEB JUMPI PUSH2 0xCEA PUSH2 0xBA8 JUMP JUMPDEST JUMPDEST PUSH1 0x0 PUSH2 0xCF9 DUP5 DUP3 DUP6 ADD PUSH2 0xBD3 JUMP JUMPDEST SWAP2 POP POP SWAP3 SWAP2 POP POP JUMP JUMPDEST PUSH1 0x0 PUSH20 0xFFFFFFFFFFFFFFFFFFFFFFFFFFFFFFFFFFFFFFFF DUP3 AND SWAP1 POP SWAP2 SWAP1 POP JUMP JUMPDEST PUSH1 0x0 PUSH2 0xD2D DUP3 PUSH2 0xD02 JUMP JUMPDEST SWAP1 POP SWAP2 SWAP1 POP JUMP JUMPDEST PUSH2 0xD3D DUP2 PUSH2 0xD22 JUMP JUMPDEST DUP2 EQ PUSH2 0xD48 JUMPI PUSH1 0x0 DUP1 REVERT JUMPDEST POP JUMP JUMPDEST PUSH1 0x0 DUP2 CALLDATALOAD SWAP1 POP PUSH2 0xD5A DUP2 PUSH2 0xD34 JUMP JUMPDEST SWAP3 SWAP2 POP POP JUMP JUMPDEST PUSH1 0x0 PUSH1 0x20 DUP3 DUP5 SUB SLT ISZERO PUSH2 0xD76 JUMPI PUSH2 0xD75 PUSH2 0xBA8 JUMP JUMPDEST JUMPDEST PUSH1 0x0 PUSH2 0xD84 DUP5 DUP3 DUP6 ADD PUSH2 0xD4B JUMP JUMPDEST SWAP2 POP POP SWAP3 SWAP2 POP POP JUMP JUMPDEST PUSH1 0x0 DUP2 MLOAD SWAP1 POP SWAP2 SWAP1 POP JUMP JUMPDEST PUSH1 0x0 DUP3 DUP3 MSTORE PUSH1 0x20 DUP3 ADD SWAP1 POP SWAP3 SWAP2 POP POP JUMP JUMPDEST PUSH1 0x0 JUMPDEST DUP4 DUP2 LT ISZERO PUSH2 0xDC7 JUMPI DUP1 DUP3 ADD MLOAD DUP2 DUP5 ADD MSTORE PUSH1 0x20 DUP2 ADD SWAP1 POP PUSH2 0xDAC JUMP JUMPDEST PUSH1 0x0 DUP5 DUP5 ADD MSTORE POP POP POP POP JUMP JUMPDEST PUSH1 0x0 PUSH1 0x1F NOT PUSH1 0x1F DUP4 ADD AND SWAP1 POP SWAP2 SWAP1 POP JUMP JUMPDEST PUSH1 0x0 PUSH2 0xDEF DUP3 PUSH2 0xD8D JUMP JUMPDEST PUSH2 0xDF9 DUP2 DUP6 PUSH2 0xD98 JUMP JUMPDEST SWAP4 POP PUSH2 0xE09 DUP2 DUP6 PUSH1 0x20 DUP7 ADD PUSH2 0xDA9 JUMP JUMPDEST PUSH2 0xE12 DUP2 PUSH2 0xDD3 JUMP JUMPDEST DUP5 ADD SWAP2 POP POP SWAP3 SWAP2 POP POP JUMP JUMPDEST PUSH2 0xE26 DUP2 PUSH2 0xBB2 JUMP JUMPDEST DUP3 MSTORE POP POP JUMP JUMPDEST PUSH1 0x0 DUP2 ISZERO ISZERO SWAP1 POP SWAP2 SWAP1 POP JUMP JUMPDEST PUSH2 0xE41 DUP2 PUSH2 0xE2C JUMP JUMPDEST DUP3 MSTORE POP POP JUMP JUMPDEST PUSH1 0x0 PUSH1 0x80 DUP4 ADD PUSH1 0x0 DUP4 ADD MLOAD DUP5 DUP3 SUB PUSH1 0x0 DUP7 ADD MSTORE PUSH2 0xE64 DUP3 DUP3 PUSH2 0xDE4 JUMP JUMPDEST SWAP2 POP POP PUSH1 0x20 DUP4 ADD MLOAD PUSH2 0xE79 PUSH1 0x20 DUP7 ADD DUP3 PUSH2 0xE1D JUMP JUMPDEST POP PUSH1 0x40 DUP4 ADD MLOAD PUSH2 0xE8C PUSH1 0x40 DUP7 ADD DUP3 PUSH2 0xE1D JUMP JUMPDEST POP PUSH1 0x60 DUP4 ADD MLOAD PUSH2 0xE9F PUSH1 0x60 DUP7 ADD DUP3 PUSH2 0xE38 JUMP JUMPDEST POP DUP1 SWAP2 POP POP SWAP3 SWAP2 POP POP JUMP JUMPDEST PUSH1 0x0 PUSH1 0x20 DUP3 ADD SWAP1 POP DUP2 DUP2 SUB PUSH1 0x0 DUP4 ADD MSTORE PUSH2 0xEC4 DUP2 DUP5 PUSH2 0xE47 JUMP JUMPDEST SWAP1 POP SWAP3 SWAP2 POP POP JUMP JUMPDEST PUSH1 0x0 DUP1 PUSH1 0x0 DUP1 PUSH1 0x60 DUP6 DUP8 SUB SLT ISZERO PUSH2 0xEE6 JUMPI PUSH2 0xEE5 PUSH2 0xBA8 JUMP JUMPDEST JUMPDEST PUSH1 0x0 DUP6 ADD CALLDATALOAD PUSH8 0xFFFFFFFFFFFFFFFF DUP2 GT ISZERO PUSH2 0xF04 JUMPI PUSH2 0xF03 PUSH2 0xBAD JUMP JUMPDEST JUMPDEST PUSH2 0xF10 DUP8 DUP3 DUP9 ADD PUSH2 0xBF7 JUMP JUMPDEST SWAP5 POP SWAP5 POP POP PUSH1 0x20 PUSH2 0xF23 DUP8 DUP3 DUP9 ADD PUSH2 0xBD3 JUMP JUMPDEST SWAP3 POP POP PUSH1 0x40 PUSH2 0xF34 DUP8 DUP3 DUP9 ADD PUSH2 0xBD3 JUMP JUMPDEST SWAP2 POP POP SWAP3 SWAP6 SWAP2 SWAP5 POP SWAP3 POP JUMP JUMPDEST PUSH2 0xF49 DUP2 PUSH2 0xE2C JUMP JUMPDEST DUP3 MSTORE POP POP JUMP JUMPDEST PUSH1 0x0 PUSH1 0x20 DUP3 ADD SWAP1 POP PUSH2 0xF64 PUSH1 0x0 DUP4 ADD DUP5 PUSH2 0xF40 JUMP JUMPDEST SWAP3 SWAP2 POP POP JUMP JUMPDEST PUSH1 0x0 DUP3 DUP3 MSTORE PUSH1 0x20 DUP3 ADD SWAP1 POP SWAP3 SWAP2 POP POP JUMP JUMPDEST PUSH32 0x416E696D616C20646F6573206E6F742065786973740000000000000000000000 PUSH1 0x0 DUP3 ADD MSTORE POP JUMP JUMPDEST PUSH1 0x0 PUSH2 0xFB1 PUSH1 0x15 DUP4 PUSH2 0xF6A JUMP JUMPDEST SWAP2 POP PUSH2 0xFBC DUP3 PUSH2 0xF7B JUMP JUMPDEST PUSH1 0x20 DUP3 ADD SWAP1 POP SWAP2 SWAP1 POP JUMP JUMPDEST PUSH1 0x0 PUSH1 0x20 DUP3 ADD SWAP1 POP DUP2 DUP2 SUB PUSH1 0x0 DUP4 ADD MSTORE PUSH2 0xFE0 DUP2 PUSH2 0xFA4 JUMP JUMPDEST SWAP1 POP SWAP2 SWAP1 POP JUMP JUMPDEST PUSH32 0x4E487B7100000000000000000000000000000000000000000000000000000000 PUSH1 0x0 MSTORE PUSH1 0x32 PUSH1 0x4 MSTORE PUSH1 0x24 PUSH1 0x0 REVERT JUMPDEST PUSH1 0x0 DUP3 SWAP1 POP SWAP3 SWAP2 POP POP JUMP JUMPDEST PUSH32 0x4E487B7100000000000000000000000000000000000000000000000000000000 PUSH1 0x0 MSTORE PUSH1 0x41 PUSH1 0x4 MSTORE PUSH1 0x24 PUSH1 0x0 REVERT JUMPDEST PUSH32 0x4E487B7100000000000000000000000000000000000000000000000000000000 PUSH1 0x0 MSTORE PUSH1 0x22 PUSH1 0x4 MSTORE PUSH1 0x24 PUSH1 0x0 REVERT JUMPDEST PUSH1 0x0 PUSH1 0x2 DUP3 DIV SWAP1 POP PUSH1 0x1 DUP3 AND DUP1 PUSH2 0x1097 JUMPI PUSH1 0x7F DUP3 AND SWAP2 POP JUMPDEST PUSH1 0x20 DUP3 LT DUP2 SUB PUSH2 0x10AA JUMPI PUSH2 0x10A9 PUSH2 0x1050 JUMP JUMPDEST JUMPDEST POP SWAP2 SWAP1 POP JUMP JUMPDEST PUSH1 0x0 DUP2 SWAP1 POP DUP2 PUSH1 0x0 MSTORE PUSH1 0x20 PUSH1 0x0 KECCAK256 SWAP1 POP SWAP2 SWAP1 POP JUMP JUMPDEST PUSH1 0x0 PUSH1 0x20 PUSH1 0x1F DUP4 ADD DIV SWAP1 POP SWAP2 SWAP1 POP JUMP JUMPDEST PUSH1 0x0 DUP3 DUP3 SHL SWAP1 POP SWAP3 SWAP2 POP POP JUMP JUMPDEST PUSH1 0x0 PUSH1 0x8 DUP4 MUL PUSH2 0x1112 PUSH32 0xFFFFFFFFFFFFFFFFFFFFFFFFFFFFFFFFFFFFFFFFFFFFFFFFFFFFFFFFFFFFFFFF DUP3 PUSH2 0x10D5 JUMP JUMPDEST PUSH2 0x111C DUP7 DUP4 PUSH2 0x10D5 JUMP JUMPDEST SWAP6 POP DUP1 NOT DUP5 AND SWAP4 POP DUP1 DUP7 AND DUP5 OR SWAP3 POP POP POP SWAP4 SWAP3 POP POP POP JUMP JUMPDEST PUSH1 0x0 DUP2 SWAP1 POP SWAP2 SWAP1 POP JUMP JUMPDEST PUSH1 0x0 PUSH2 0x1159 PUSH2 0x1154 PUSH2 0x114F DUP5 PUSH2 0xBB2 JUMP JUMPDEST PUSH2 0x1134 JUMP JUMPDEST PUSH2 0xBB2 JUMP JUMPDEST SWAP1 POP SWAP2 SWAP1 POP JUMP JUMPDEST PUSH1 0x0 DUP2 SWAP1 POP SWAP2 SWAP1 POP JUMP JUMPDEST PUSH2 0x1173 DUP4 PUSH2 0x113E JUMP JUMPDEST PUSH2 0x1187 PUSH2 0x117F DUP3 PUSH2 0x1160 JUMP JUMPDEST DUP5 DUP5 SLOAD PUSH2 0x10E2 JUMP JUMPDEST DUP3 SSTORE POP POP POP POP JUMP JUMPDEST PUSH1 0x0 SWAP1 JUMP JUMPDEST PUSH2 0x119C PUSH2 0x118F JUMP JUMPDEST PUSH2 0x11A7 DUP2 DUP5 DUP5 PUSH2 0x116A JUMP JUMPDEST POP POP POP JUMP JUMPDEST JUMPDEST DUP2 DUP2 LT ISZERO PUSH2 0x11CB JUMPI PUSH2 0x11C0 PUSH1 0x0 DUP3 PUSH2 0x1194 JUMP JUMPDEST PUSH1 0x1 DUP2 ADD SWAP1 POP PUSH2 0x11AD JUMP JUMPDEST POP POP JUMP JUMPDEST PUSH1 0x1F DUP3 GT ISZERO PUSH2 0x1210 JUMPI PUSH2 0x11E1 DUP2 PUSH2 0x10B0 JUMP JUMPDEST PUSH2 0x11EA DUP5 PUSH2 0x10C5 JUMP JUMPDEST DUP2 ADD PUSH1 0x20 DUP6 LT ISZERO PUSH2 0x11F9 JUMPI DUP2 SWAP1 POP JUMPDEST PUSH2 0x120D PUSH2 0x1205 DUP6 PUSH2 0x10C5 JUMP JUMPDEST DUP4 ADD DUP3 PUSH2 0x11AC JUMP JUMPDEST POP POP JUMPDEST POP POP POP JUMP JUMPDEST PUSH1 0x0 DUP3 DUP3 SHR SWAP1 POP SWAP3 SWAP2 POP POP JUMP JUMPDEST PUSH1 0x0 PUSH2 0x1233 PUSH1 0x0 NOT DUP5 PUSH1 0x8 MUL PUSH2 0x1215 JUMP JUMPDEST NOT DUP1 DUP4 AND SWAP2 POP POP SWAP3 SWAP2 POP POP JUMP JUMPDEST PUSH1 0x0 PUSH2 0x124C DUP4 DUP4 PUSH2 0x1222 JUMP JUMPDEST SWAP2 POP DUP3 PUSH1 0x2 MUL DUP3 OR SWAP1 POP SWAP3 SWAP2 POP POP JUMP JUMPDEST PUSH2 0x1266 DUP4 DUP4 PUSH2 0x1016 JUMP JUMPDEST PUSH8 0xFFFFFFFFFFFFFFFF DUP2 GT ISZERO PUSH2 0x127F JUMPI PUSH2 0x127E PUSH2 0x1021 JUMP JUMPDEST JUMPDEST PUSH2 0x1289 DUP3 SLOAD PUSH2 0x107F JUMP JUMPDEST PUSH2 0x1294 DUP3 DUP3 DUP6 PUSH2 0x11CF JUMP JUMPDEST PUSH1 0x0 PUSH1 0x1F DUP4 GT PUSH1 0x1 DUP2 EQ PUSH2 0x12C3 JUMPI PUSH1 0x0 DUP5 ISZERO PUSH2 0x12B1 JUMPI DUP3 DUP8 ADD CALLDATALOAD SWAP1 POP JUMPDEST PUSH2 0x12BB DUP6 DUP3 PUSH2 0x1240 JUMP JUMPDEST DUP7 SSTORE POP PUSH2 0x1323 JUMP JUMPDEST PUSH1 0x1F NOT DUP5 AND PUSH2 0x12D1 DUP7 PUSH2 0x10B0 JUMP JUMPDEST PUSH1 0x0 JUMPDEST DUP3 DUP2 LT ISZERO PUSH2 0x12F9 JUMPI DUP5 DUP10 ADD CALLDATALOAD DUP3 SSTORE PUSH1 0x1 DUP3 ADD SWAP2 POP PUSH1 0x20 DUP6 ADD SWAP5 POP PUSH1 0x20 DUP2 ADD SWAP1 POP PUSH2 0x12D4 JUMP JUMPDEST DUP7 DUP4 LT ISZERO PUSH2 0x1316 JUMPI DUP5 DUP10 ADD CALLDATALOAD PUSH2 0x1312 PUSH1 0x1F DUP10 AND DUP3 PUSH2 0x1222 JUMP JUMPDEST DUP4 SSTORE POP JUMPDEST PUSH1 0x1 PUSH1 0x2 DUP9 MUL ADD DUP9 SSTORE POP POP POP JUMPDEST POP POP POP POP POP POP POP JUMP JUMPDEST PUSH32 0x5468697320616E696D616C20697320616C72656164792061646F707465640000 PUSH1 0x0 DUP3 ADD MSTORE POP JUMP JUMPDEST PUSH1 0x0 PUSH2 0x1362 PUSH1 0x1E DUP4 PUSH2 0xF6A JUMP JUMPDEST SWAP2 POP PUSH2 0x136D DUP3 PUSH2 0x132C JUMP JUMPDEST PUSH1 0x20 DUP3 ADD SWAP1 POP SWAP2 SWAP1 POP JUMP JUMPDEST PUSH1 0x0 PUSH1 0x20 DUP3 ADD SWAP1 POP DUP2 DUP2 SUB PUSH1 0x0 DUP4 ADD MSTORE PUSH2 0x1391 DUP2 PUSH2 0x1355 JUMP JUMPDEST SWAP1 POP SWAP2 SWAP1 POP JUMP JUMPDEST PUSH2 0x13A1 DUP2 PUSH2 0xBB2 JUMP JUMPDEST DUP3 MSTORE POP POP JUMP JUMPDEST PUSH2 0x13B0 DUP2 PUSH2 0xD22 JUMP JUMPDEST DUP3 MSTORE POP POP JUMP JUMPDEST PUSH1 0x0 PUSH1 0x40 DUP3 ADD SWAP1 POP PUSH2 0x13CB PUSH1 0x0 DUP4 ADD DUP6 PUSH2 0x1398 JUMP JUMPDEST PUSH2 0x13D8 PUSH1 0x20 DUP4 ADD DUP5 PUSH2 0x13A7 JUMP JUMPDEST SWAP4 SWAP3 POP POP POP JUMP JUMPDEST PUSH1 0x0 DUP2 SWAP1 POP SWAP3 SWAP2 POP POP JUMP JUMPDEST PUSH1 0x0 DUP2 SLOAD PUSH2 0x13F7 DUP2 PUSH2 0x107F JUMP JUMPDEST PUSH2 0x1401 DUP2 DUP7 PUSH2 0x13DF JUMP JUMPDEST SWAP5 POP PUSH1 0x1 DUP3 AND PUSH1 0x0 DUP2 EQ PUSH2 0x141C JUMPI PUSH1 0x1 DUP2 EQ PUSH2 0x1431 JUMPI PUSH2 0x1464 JUMP JUMPDEST PUSH1 0xFF NOT DUP4 AND DUP7 MSTORE DUP2 ISZERO ISZERO DUP3 MUL DUP7 ADD SWAP4 POP PUSH2 0x1464 JUMP JUMPDEST PUSH2 0x143A DUP6 PUSH2 0x10B0 JUMP JUMPDEST PUSH1 0x0 JUMPDEST DUP4 DUP2 LT ISZERO PUSH2 0x145C JUMPI DUP2 SLOAD DUP2 DUP10 ADD MSTORE PUSH1 0x1 DUP3 ADD SWAP2 POP PUSH1 0x20 DUP2 ADD SWAP1 POP PUSH2 0x143D JUMP JUMPDEST DUP4 DUP9 ADD SWAP6 POP POP POP JUMPDEST POP POP POP SWAP3 SWAP2 POP POP JUMP JUMPDEST PUSH1 0x0 PUSH2 0x1479 DUP3 DUP5 PUSH2 0x13EA JUMP JUMPDEST SWAP2 POP DUP2 SWAP1 POP SWAP3 SWAP2 POP POP JUMP JUMPDEST DUP3 DUP2 DUP4 CALLDATACOPY PUSH1 0x0 DUP4 DUP4 ADD MSTORE POP POP POP JUMP JUMPDEST PUSH1 0x0 PUSH2 0x149F DUP4 DUP6 PUSH2 0x13DF JUMP JUMPDEST SWAP4 POP PUSH2 0x14AC DUP4 DUP6 DUP5 PUSH2 0x1484 JUMP JUMPDEST DUP3 DUP5 ADD SWAP1 POP SWAP4 SWAP3 POP POP POP JUMP JUMPDEST PUSH1 0x0 PUSH2 0x14C5 DUP3 DUP5 DUP7 PUSH2 0x1493 JUMP JUMPDEST SWAP2 POP DUP2 SWAP1 POP SWAP4 SWAP3 POP POP POP JUMP JUMPDEST PUSH32 0x4E487B7100000000000000000000000000000000000000000000000000000000 PUSH1 0x0 MSTORE PUSH1 0x11 PUSH1 0x4 MSTORE PUSH1 0x24 PUSH1 0x0 REVERT JUMPDEST PUSH1 0x0 PUSH2 0x150B DUP3 PUSH2 0xBB2 JUMP JUMPDEST SWAP2 POP PUSH32 0xFFFFFFFFFFFFFFFFFFFFFFFFFFFFFFFFFFFFFFFFFFFFFFFFFFFFFFFFFFFFFFFF DUP3 SUB PUSH2 0x153D JUMPI PUSH2 0x153C PUSH2 0x14D1 JUMP JUMPDEST JUMPDEST PUSH1 0x1 DUP3 ADD SWAP1 POP SWAP2 SWAP1 POP JUMP JUMPDEST PUSH2 0x1551 DUP3 PUSH2 0xD8D JUMP JUMPDEST PUSH8 0xFFFFFFFFFFFFFFFF DUP2 GT ISZERO PUSH2 0x156A JUMPI PUSH2 0x1569 PUSH2 0x1021 JUMP JUMPDEST JUMPDEST PUSH2 0x1574 DUP3 SLOAD PUSH2 0x107F JUMP JUMPDEST PUSH2 0x157F DUP3 DUP3 DUP6 PUSH2 0x11CF JUMP JUMPDEST PUSH1 0x0 PUSH1 0x20 SWAP1 POP PUSH1 0x1F DUP4 GT PUSH1 0x1 DUP2 EQ PUSH2 0x15B2 JUMPI PUSH1 0x0 DUP5 ISZERO PUSH2 0x15A0 JUMPI DUP3 DUP8 ADD MLOAD SWAP1 POP JUMPDEST PUSH2 0x15AA DUP6 DUP3 PUSH2 0x1240 JUMP JUMPDEST DUP7 SSTORE POP PUSH2 0x1612 JUMP JUMPDEST PUSH1 0x1F NOT DUP5 AND PUSH2 0x15C0 DUP7 PUSH2 0x10B0 JUMP JUMPDEST PUSH1 0x0 JUMPDEST DUP3 DUP2 LT ISZERO PUSH2 0x15E8 JUMPI DUP5 DUP10 ADD MLOAD DUP3 SSTORE PUSH1 0x1 DUP3 ADD SWAP2 POP PUSH1 0x20 DUP6 ADD SWAP5 POP PUSH1 0x20 DUP2 ADD SWAP1 POP PUSH2 0x15C3 JUMP JUMPDEST DUP7 DUP4 LT ISZERO PUSH2 0x1605 JUMPI DUP5 DUP10 ADD MLOAD PUSH2 0x1601 PUSH1 0x1F DUP10 AND DUP3 PUSH2 0x1222 JUMP JUMPDEST DUP4 SSTORE POP JUMPDEST PUSH1 0x1 PUSH1 0x2 DUP9 MUL ADD DUP9 SSTORE POP POP POP JUMPDEST POP POP POP POP POP POP JUMP JUMPDEST PUSH1 0x0 PUSH2 0x1625 DUP3 PUSH2 0xBB2 JUMP JUMPDEST SWAP2 POP PUSH2 0x1630 DUP4 PUSH2 0xBB2 JUMP JUMPDEST SWAP3 POP DUP3 DUP3 SUB SWAP1 POP DUP2 DUP2 GT ISZERO PUSH2 0x1648 JUMPI PUSH2 0x1647 PUSH2 0x14D1 JUMP JUMPDEST JUMPDEST SWAP3 SWAP2 POP POP JUMP JUMPDEST PUSH1 0x0 PUSH1 0x20 DUP3 ADD SWAP1 POP PUSH2 0x1663 PUSH1 0x0 DUP4 ADD DUP5 PUSH2 0x1398 JUMP JUMPDEST SWAP3 SWAP2 POP POP JUMP INVALID LOG2 PUSH5 0x6970667358 0x22 SLT KECCAK256 0xDC AND 0x1F 0x2A 0xDD 0xD8 DUP11 DUP1 DUP2 0xF PUSH12 0xE2816D3B8DCDA29F3DB79C3F CALLDATACOPY ADD SWAP5 MULMOD 0xEB 0xB6 EXTCODECOPY POP ADDRESS PUSH5 0x736F6C6343 STOP ADDMOD SLT STOP CALLER "
		},
		"gasEstimates": {
			"creation": {
				"codeDepositCost": "1158200",
				"executionCost": "1200",
				"totalCost": "1159400"
			},
			"external": {
				"adopt(uint256)": "infinite",
				"adoptIfMax(string,uint256,uint256)": "infinite",
				"create(string,uint256,uint256)": "infinite",
				"deleteAnimal(uint256)": "infinite",
				"getAdopted(address)": "infinite",
				"read(uint256)": "infinite",
				"update(uint256,string,uint256,uint256)": "infinite"
			}
		},
		"methodIdentifiers": {
			"adopt(uint256)": "8588b2c5",
			"adoptIfMax(string,uint256,uint256)": "b7392152",
			"create(string,uint256,uint256)": "cda3c499",
			"deleteAnimal(uint256)": "98c4c42c",
			"getAdopted(address)": "b5929d41",
			"read(uint256)": "ed2e5a97",
			"update(uint256,string,uint256,uint256)": "5adc0246"
		}
	},
	"abi": [
		{
			"anonymous": false,
			"inputs": [
				{
					"indexed": false,
					"internalType": "uint256",
					"name": "id",
					"type": "uint256"
				}
			],
			"name": "animalAdded",
			"type": "event"
		},
		{
			"anonymous": false,
			"inputs": [
				{
					"indexed": false,
					"internalType": "uint256",
					"name": "_id",
					"type": "uint256"
				},
				{
					"indexed": false,
					"internalType": "address",
					"name": "_addr",
					"type": "address"
				}
			],
			"name": "animalAdopted",
			"type": "event"
		},
		{
			"inputs": [
				{
					"internalType": "uint256",
					"name": "_id",
					"type": "uint256"
				}
			],
			"name": "adopt",
			"outputs": [],
			"stateMutability": "nonpayable",
			"type": "function"
		},
		{
			"inputs": [
				{
					"internalType": "string",
					"name": "_race",
					"type": "string"
				},
				{
					"internalType": "uint256",
					"name": "_maxHeight",
					"type": "uint256"
				},
				{
					"internalType": "uint256",
					"name": "_maxAge",
					"type": "uint256"
				}
			],
			"name": "adoptIfMax",
			"outputs": [
				{
					"internalType": "bool",
					"name": "",
					"type": "bool"
				}
			],
			"stateMutability": "nonpayable",
			"type": "function"
		},
		{
			"inputs": [
				{
					"internalType": "string",
					"name": "_race",
					"type": "string"
				},
				{
					"internalType": "uint256",
					"name": "_height",
					"type": "uint256"
				},
				{
					"internalType": "uint256",
					"name": "_age",
					"type": "uint256"
				}
			],
			"name": "create",
			"outputs": [],
			"stateMutability": "nonpayable",
			"type": "function"
		},
		{
			"inputs": [
				{
					"internalType": "uint256",
					"name": "_id",
					"type": "uint256"
				}
			],
			"name": "deleteAnimal",
			"outputs": [],
			"stateMutability": "nonpayable",
			"type": "function"
		},
		{
			"inputs": [
				{
					"internalType": "address",
					"name": "_addr",
					"type": "address"
				}
			],
			"name": "getAdopted",
			"outputs": [
				{
					"components": [
						{
							"internalType": "string",
							"name": "race",
							"type": "string"
						},
						{
							"internalType": "uint256",
							"name": "height",
							"type": "uint256"
						},
						{
							"internalType": "uint256",
							"name": "age",
							"type": "uint256"
						},
						{
							"internalType": "bool",
							"name": "isAdopted",
							"type": "bool"
						}
					],
					"internalType": "struct SPA.Animal",
					"name": "",
					"type": "tuple"
				}
			],
			"stateMutability": "view",
			"type": "function"
		},
		{
			"inputs": [
				{
					"internalType": "uint256",
					"name": "_id",
					"type": "uint256"
				}
			],
			"name": "read",
			"outputs": [
				{
					"components": [
						{
							"internalType": "string",
							"name": "race",
							"type": "string"
						},
						{
							"internalType": "uint256",
							"name": "height",
							"type": "uint256"
						},
						{
							"internalType": "uint256",
							"name": "age",
							"type": "uint256"
						},
						{
							"internalType": "bool",
							"name": "isAdopted",
							"type": "bool"
						}
					],
					"internalType": "struct SPA.Animal",
					"name": "",
					"type": "tuple"
				}
			],
			"stateMutability": "view",
			"type": "function"
		},
		{
			"inputs": [
				{
					"internalType": "uint256",
					"name": "_id",
					"type": "uint256"
				},
				{
					"internalType": "string",
					"name": "_race",
					"type": "string"
				},
				{
					"internalType": "uint256",
					"name": "_height",
					"type": "uint256"
				},
				{
					"internalType": "uint256",
					"name": "_age",
					"type": "uint256"
				}
			],
			"name": "update",
			"outputs": [],
			"stateMutability": "nonpayable",
			"type": "function"
		}
	]
}