{
	"contracts/exoCours/exoNotation/exoNotation.sol": {
		"exoNotation": {
			"abi": [
				{
					"anonymous": false,
					"inputs": [
						{
							"indexed": true,
							"internalType": "address",
							"name": "previousOwner",
							"type": "address"
						},
						{
							"indexed": true,
							"internalType": "address",
							"name": "newOwner",
							"type": "address"
						}
					],
					"name": "OwnershipTransferred",
					"type": "event"
				},
				{
					"anonymous": false,
					"inputs": [
						{
							"indexed": false,
							"internalType": "string",
							"name": "_name",
							"type": "string"
						},
						{
							"indexed": false,
							"internalType": "address",
							"name": "_addr",
							"type": "address"
						}
					],
					"name": "studentAdded",
					"type": "event"
				},
				{
					"anonymous": false,
					"inputs": [
						{
							"indexed": false,
							"internalType": "enum exoNotation.course",
							"name": "_course",
							"type": "uint8"
						},
						{
							"indexed": false,
							"internalType": "address",
							"name": "_addr",
							"type": "address"
						}
					],
					"name": "teacherAdded",
					"type": "event"
				},
				{
					"inputs": [],
					"name": "addNote",
					"outputs": [],
					"stateMutability": "nonpayable",
					"type": "function"
				},
				{
					"inputs": [
						{
							"internalType": "string",
							"name": "_name",
							"type": "string"
						},
						{
							"internalType": "address",
							"name": "_addr",
							"type": "address"
						}
					],
					"name": "addStudent",
					"outputs": [],
					"stateMutability": "nonpayable",
					"type": "function"
				},
				{
					"inputs": [
						{
							"internalType": "enum exoNotation.course",
							"name": "_course",
							"type": "uint8"
						},
						{
							"internalType": "address",
							"name": "_addr",
							"type": "address"
						}
					],
					"name": "addTeacher",
					"outputs": [],
					"stateMutability": "nonpayable",
					"type": "function"
				},
				{
					"inputs": [],
					"name": "getNote",
					"outputs": [],
					"stateMutability": "nonpayable",
					"type": "function"
				},
				{
					"inputs": [],
					"name": "owner",
					"outputs": [
						{
							"internalType": "address",
							"name": "",
							"type": "address"
						}
					],
					"stateMutability": "view",
					"type": "function"
				},
				{
					"inputs": [],
					"name": "renounceOwnership",
					"outputs": [],
					"stateMutability": "nonpayable",
					"type": "function"
				},
				{
					"inputs": [
						{
							"internalType": "enum exoNotation.course",
							"name": "_course",
							"type": "uint8"
						},
						{
							"internalType": "string",
							"name": "_nameStudent",
							"type": "string"
						},
						{
							"internalType": "uint256",
							"name": "_note",
							"type": "uint256"
						}
					],
					"name": "setNote",
					"outputs": [],
					"stateMutability": "nonpayable",
					"type": "function"
				},
				{
					"inputs": [
						{
							"internalType": "address",
							"name": "newOwner",
							"type": "address"
						}
					],
					"name": "transferOwnership",
					"outputs": [],
					"stateMutability": "nonpayable",
					"type": "function"
				}
			],
			"devdoc": {
				"kind": "dev",
				"methods": {
					"owner()": {
						"details": "Returns the address of the current owner."
					},
					"renounceOwnership()": {
						"details": "Leaves the contract without owner. It will not be possible to call `onlyOwner` functions anymore. Can only be called by the current owner. NOTE: Renouncing ownership will leave the contract without an owner, thereby removing any functionality that is only available to the owner."
					},
					"transferOwnership(address)": {
						"details": "Transfers ownership of the contract to a new account (`newOwner`). Can only be called by the current owner."
					}
				},
				"version": 1
			},
			"evm": {
				"assembly": "    /* \"contracts/exoCours/exoNotation/exoNotation.sol\":121:1977  contract exoNotation is Ownable {... */\n  mstore(0x40, 0x80)\n  callvalue\n  dup1\n  iszero\n  tag_1\n  jumpi\n  0x00\n  dup1\n  revert\ntag_1:\n  pop\n    /* \"@openzeppelin/contracts/access/Ownable.sol\":936:968  _transferOwnership(_msgSender()) */\n  tag_4\n    /* \"@openzeppelin/contracts/access/Ownable.sol\":955:967  _msgSender() */\n  tag_5\n    /* \"@openzeppelin/contracts/access/Ownable.sol\":955:965  _msgSender */\n  shl(0x20, tag_6)\n    /* \"@openzeppelin/contracts/access/Ownable.sol\":955:967  _msgSender() */\n  0x20\n  shr\n  jump\t// in\ntag_5:\n    /* \"@openzeppelin/contracts/access/Ownable.sol\":936:954  _transferOwnership */\n  shl(0x20, tag_7)\n    /* \"@openzeppelin/contracts/access/Ownable.sol\":936:968  _transferOwnership(_msgSender()) */\n  0x20\n  shr\n  jump\t// in\ntag_4:\n    /* \"contracts/exoCours/exoNotation/exoNotation.sol\":121:1977  contract exoNotation is Ownable {... */\n  jump(tag_8)\n    /* \"@openzeppelin/contracts/utils/Context.sol\":640:736  function _msgSender() internal view virtual returns (address) {... */\ntag_6:\n    /* \"@openzeppelin/contracts/utils/Context.sol\":693:700  address */\n  0x00\n    /* \"@openzeppelin/contracts/utils/Context.sol\":719:729  msg.sender */\n  caller\n    /* \"@openzeppelin/contracts/utils/Context.sol\":712:729  return msg.sender */\n  swap1\n  pop\n    /* \"@openzeppelin/contracts/utils/Context.sol\":640:736  function _msgSender() internal view virtual returns (address) {... */\n  swap1\n  jump\t// out\n    /* \"@openzeppelin/contracts/access/Ownable.sol\":2433:2620  function _transferOwnership(address newOwner) internal virtual {... */\ntag_7:\n    /* \"@openzeppelin/contracts/access/Ownable.sol\":2506:2522  address oldOwner */\n  0x00\n    /* \"@openzeppelin/contracts/access/Ownable.sol\":2525:2531  _owner */\n  dup1\n  0x00\n  swap1\n  sload\n  swap1\n  0x0100\n  exp\n  swap1\n  div\n  0xffffffffffffffffffffffffffffffffffffffff\n  and\n    /* \"@openzeppelin/contracts/access/Ownable.sol\":2506:2531  address oldOwner = _owner */\n  swap1\n  pop\n    /* \"@openzeppelin/contracts/access/Ownable.sol\":2550:2558  newOwner */\n  dup2\n    /* \"@openzeppelin/contracts/access/Ownable.sol\":2541:2547  _owner */\n  0x00\n  dup1\n    /* \"@openzeppelin/contracts/access/Ownable.sol\":2541:2558  _owner = newOwner */\n  0x0100\n  exp\n  dup2\n  sload\n  dup2\n  0xffffffffffffffffffffffffffffffffffffffff\n  mul\n  not\n  and\n  swap1\n  dup4\n  0xffffffffffffffffffffffffffffffffffffffff\n  and\n  mul\n  or\n  swap1\n  sstore\n  pop\n    /* \"@openzeppelin/contracts/access/Ownable.sol\":2604:2612  newOwner */\n  dup2\n    /* \"@openzeppelin/contracts/access/Ownable.sol\":2573:2613  OwnershipTransferred(oldOwner, newOwner) */\n  0xffffffffffffffffffffffffffffffffffffffff\n  and\n    /* \"@openzeppelin/contracts/access/Ownable.sol\":2594:2602  oldOwner */\n  dup2\n    /* \"@openzeppelin/contracts/access/Ownable.sol\":2573:2613  OwnershipTransferred(oldOwner, newOwner) */\n  0xffffffffffffffffffffffffffffffffffffffff\n  and\n  0x8be0079c531659141344cd1fd0a4f28419497f9722a3daafe3b4186f6b6457e0\n  mload(0x40)\n  mload(0x40)\n  dup1\n  swap2\n  sub\n  swap1\n  log3\n    /* \"@openzeppelin/contracts/access/Ownable.sol\":2496:2620  {... */\n  pop\n    /* \"@openzeppelin/contracts/access/Ownable.sol\":2433:2620  function _transferOwnership(address newOwner) internal virtual {... */\n  pop\n  jump\t// out\n    /* \"contracts/exoCours/exoNotation/exoNotation.sol\":121:1977  contract exoNotation is Ownable {... */\ntag_8:\n  dataSize(sub_0)\n  dup1\n  dataOffset(sub_0)\n  0x00\n  codecopy\n  0x00\n  return\nstop\n\nsub_0: assembly {\n        /* \"contracts/exoCours/exoNotation/exoNotation.sol\":121:1977  contract exoNotation is Ownable {... */\n      mstore(0x40, 0x80)\n      callvalue\n      dup1\n      iszero\n      tag_1\n      jumpi\n      0x00\n      dup1\n      revert\n    tag_1:\n      pop\n      jumpi(tag_2, lt(calldatasize, 0x04))\n      shr(0xe0, calldataload(0x00))\n      dup1\n      0x715018a6\n      gt\n      tag_11\n      jumpi\n      dup1\n      0x715018a6\n      eq\n      tag_7\n      jumpi\n      dup1\n      0x8da5cb5b\n      eq\n      tag_8\n      jumpi\n      dup1\n      0xdf3ac476\n      eq\n      tag_9\n      jumpi\n      dup1\n      0xf2fde38b\n      eq\n      tag_10\n      jumpi\n      jump(tag_2)\n    tag_11:\n      dup1\n      0x10468c2f\n      eq\n      tag_3\n      jumpi\n      dup1\n      0x241ba5c4\n      eq\n      tag_4\n      jumpi\n      dup1\n      0x35d1f30d\n      eq\n      tag_5\n      jumpi\n      dup1\n      0x5eb050cf\n      eq\n      tag_6\n      jumpi\n    tag_2:\n      0x00\n      dup1\n      revert\n        /* \"contracts/exoCours/exoNotation/exoNotation.sol\":574:745  function addStudent(string calldata _name, address _addr) public onlyOwner{... */\n    tag_3:\n      tag_12\n      0x04\n      dup1\n      calldatasize\n      sub\n      dup2\n      add\n      swap1\n      tag_13\n      swap2\n      swap1\n      tag_14\n      jump\t// in\n    tag_13:\n      tag_15\n      jump\t// in\n    tag_12:\n      stop\n        /* \"contracts/exoCours/exoNotation/exoNotation.sol\":1231:1266  function addNote() public{... */\n    tag_4:\n      tag_16\n      tag_17\n      jump\t// in\n    tag_16:\n      stop\n        /* \"contracts/exoCours/exoNotation/exoNotation.sol\":753:908  function addTeacher(course _course, address _addr) public onlyOwner{... */\n    tag_5:\n      tag_18\n      0x04\n      dup1\n      calldatasize\n      sub\n      dup2\n      add\n      swap1\n      tag_19\n      swap2\n      swap1\n      tag_20\n      jump\t// in\n    tag_19:\n      tag_21\n      jump\t// in\n    tag_18:\n      stop\n        /* \"contracts/exoCours/exoNotation/exoNotation.sol\":1325:1974  function setNote(course _course, string calldata _nameStudent, uint _note) public{... */\n    tag_6:\n      tag_22\n      0x04\n      dup1\n      calldatasize\n      sub\n      dup2\n      add\n      swap1\n      tag_23\n      swap2\n      swap1\n      tag_24\n      jump\t// in\n    tag_23:\n      tag_25\n      jump\t// in\n    tag_22:\n      stop\n        /* \"@openzeppelin/contracts/access/Ownable.sol\":1831:1932  function renounceOwnership() public virtual onlyOwner {... */\n    tag_7:\n      tag_26\n      tag_27\n      jump\t// in\n    tag_26:\n      stop\n        /* \"@openzeppelin/contracts/access/Ownable.sol\":1201:1286  function owner() public view virtual returns (address) {... */\n    tag_8:\n      tag_28\n      tag_29\n      jump\t// in\n    tag_28:\n      mload(0x40)\n      tag_30\n      swap2\n      swap1\n      tag_31\n      jump\t// in\n    tag_30:\n      mload(0x40)\n      dup1\n      swap2\n      sub\n      swap1\n      return\n        /* \"contracts/exoCours/exoNotation/exoNotation.sol\":1274:1317  function getNote() public{... */\n    tag_9:\n      tag_32\n      tag_33\n      jump\t// in\n    tag_32:\n      stop\n        /* \"@openzeppelin/contracts/access/Ownable.sol\":2081:2279  function transferOwnership(address newOwner) public virtual onlyOwner {... */\n    tag_10:\n      tag_34\n      0x04\n      dup1\n      calldatasize\n      sub\n      dup2\n      add\n      swap1\n      tag_35\n      swap2\n      swap1\n      tag_36\n      jump\t// in\n    tag_35:\n      tag_37\n      jump\t// in\n    tag_34:\n      stop\n        /* \"contracts/exoCours/exoNotation/exoNotation.sol\":574:745  function addStudent(string calldata _name, address _addr) public onlyOwner{... */\n    tag_15:\n        /* \"@openzeppelin/contracts/access/Ownable.sol\":1094:1107  _checkOwner() */\n      tag_39\n        /* \"@openzeppelin/contracts/access/Ownable.sol\":1094:1105  _checkOwner */\n      tag_40\n        /* \"@openzeppelin/contracts/access/Ownable.sol\":1094:1107  _checkOwner() */\n      jump\t// in\n    tag_39:\n        /* \"contracts/exoCours/exoNotation/exoNotation.sol\":659:667  students */\n      0x02\n        /* \"contracts/exoCours/exoNotation/exoNotation.sol\":673:694  Student(_name, 0,0,0) */\n      mload(0x40)\n      dup1\n      0x80\n      add\n      0x40\n      mstore\n      dup1\n        /* \"contracts/exoCours/exoNotation/exoNotation.sol\":681:686  _name */\n      dup6\n      dup6\n        /* \"contracts/exoCours/exoNotation/exoNotation.sol\":673:694  Student(_name, 0,0,0) */\n      dup1\n      dup1\n      0x1f\n      add\n      0x20\n      dup1\n      swap2\n      div\n      mul\n      0x20\n      add\n      mload(0x40)\n      swap1\n      dup2\n      add\n      0x40\n      mstore\n      dup1\n      swap4\n      swap3\n      swap2\n      swap1\n      dup2\n      dup2\n      mstore\n      0x20\n      add\n      dup4\n      dup4\n      dup1\n      dup3\n      dup5\n      calldatacopy\n      0x00\n      dup2\n      dup5\n      add\n      mstore\n      not(0x1f)\n      0x1f\n      dup3\n      add\n      and\n      swap1\n      pop\n      dup1\n      dup4\n      add\n      swap3\n      pop\n      pop\n      pop\n      pop\n      pop\n      pop\n      pop\n      dup2\n      mstore\n      0x20\n      add\n        /* \"contracts/exoCours/exoNotation/exoNotation.sol\":688:689  0 */\n      0x00\n        /* \"contracts/exoCours/exoNotation/exoNotation.sol\":673:694  Student(_name, 0,0,0) */\n      dup2\n      mstore\n      0x20\n      add\n        /* \"contracts/exoCours/exoNotation/exoNotation.sol\":690:691  0 */\n      0x00\n        /* \"contracts/exoCours/exoNotation/exoNotation.sol\":673:694  Student(_name, 0,0,0) */\n      dup2\n      mstore\n      0x20\n      add\n        /* \"contracts/exoCours/exoNotation/exoNotation.sol\":692:693  0 */\n      0x00\n        /* \"contracts/exoCours/exoNotation/exoNotation.sol\":673:694  Student(_name, 0,0,0) */\n      dup2\n      mstore\n      pop\n        /* \"contracts/exoCours/exoNotation/exoNotation.sol\":659:695  students.push(Student(_name, 0,0,0)) */\n      swap1\n      dup1\n      0x01\n      dup2\n      sload\n      add\n      dup1\n      dup3\n      sstore\n      dup1\n      swap2\n      pop\n      pop\n      0x01\n      swap1\n      sub\n      swap1\n      0x00\n      mstore\n      keccak256(0x00, 0x20)\n      swap1\n      0x04\n      mul\n      add\n      0x00\n      swap1\n      swap2\n      swap1\n      swap2\n      swap1\n      swap2\n      pop\n      0x00\n      dup3\n      add\n      mload\n      dup2\n      0x00\n      add\n      swap1\n      dup1\n      mload\n      swap1\n      0x20\n      add\n      swap1\n      tag_43\n      swap3\n      swap2\n      swap1\n      tag_44\n      jump\t// in\n    tag_43:\n      pop\n      0x20\n      dup3\n      add\n      mload\n      dup2\n      0x01\n      add\n      sstore\n      0x40\n      dup3\n      add\n      mload\n      dup2\n      0x02\n      add\n      sstore\n      0x60\n      dup3\n      add\n      mload\n      dup2\n      0x03\n      add\n      sstore\n      pop\n      pop\n        /* \"contracts/exoCours/exoNotation/exoNotation.sol\":711:737  studentAdded(_name, _addr) */\n      0xf37b44c60d951a102e1b401bcd083688102e58c75aae387ff9884aa0f9ff33dc\n        /* \"contracts/exoCours/exoNotation/exoNotation.sol\":724:729  _name */\n      dup4\n      dup4\n        /* \"contracts/exoCours/exoNotation/exoNotation.sol\":731:736  _addr */\n      dup4\n        /* \"contracts/exoCours/exoNotation/exoNotation.sol\":711:737  studentAdded(_name, _addr) */\n      mload(0x40)\n      tag_45\n      swap4\n      swap3\n      swap2\n      swap1\n      tag_46\n      jump\t// in\n    tag_45:\n      mload(0x40)\n      dup1\n      swap2\n      sub\n      swap1\n      log1\n        /* \"contracts/exoCours/exoNotation/exoNotation.sol\":574:745  function addStudent(string calldata _name, address _addr) public onlyOwner{... */\n      pop\n      pop\n      pop\n      jump\t// out\n        /* \"contracts/exoCours/exoNotation/exoNotation.sol\":1231:1266  function addNote() public{... */\n    tag_17:\n      jump\t// out\n        /* \"contracts/exoCours/exoNotation/exoNotation.sol\":753:908  function addTeacher(course _course, address _addr) public onlyOwner{... */\n    tag_21:\n        /* \"@openzeppelin/contracts/access/Ownable.sol\":1094:1107  _checkOwner() */\n      tag_49\n        /* \"@openzeppelin/contracts/access/Ownable.sol\":1094:1105  _checkOwner */\n      tag_40\n        /* \"@openzeppelin/contracts/access/Ownable.sol\":1094:1107  _checkOwner() */\n      jump\t// in\n    tag_49:\n        /* \"contracts/exoCours/exoNotation/exoNotation.sol\":851:856  _addr */\n      dup1\n        /* \"contracts/exoCours/exoNotation/exoNotation.sol\":831:839  teachers */\n      0x03\n        /* \"contracts/exoCours/exoNotation/exoNotation.sol\":831:848  teachers[_course] */\n      0x00\n        /* \"contracts/exoCours/exoNotation/exoNotation.sol\":840:847  _course */\n      dup5\n        /* \"contracts/exoCours/exoNotation/exoNotation.sol\":831:848  teachers[_course] */\n      0x02\n      dup2\n      gt\n      iszero\n      tag_51\n      jumpi\n      tag_52\n      tag_53\n      jump\t// in\n    tag_52:\n    tag_51:\n      0x02\n      dup2\n      gt\n      iszero\n      tag_54\n      jumpi\n      tag_55\n      tag_53\n      jump\t// in\n    tag_55:\n    tag_54:\n      dup2\n      mstore\n      0x20\n      add\n      swap1\n      dup2\n      mstore\n      0x20\n      add\n      0x00\n      keccak256\n      0x00\n        /* \"contracts/exoCours/exoNotation/exoNotation.sol\":831:856  teachers[_course] = _addr */\n      0x0100\n      exp\n      dup2\n      sload\n      dup2\n      0xffffffffffffffffffffffffffffffffffffffff\n      mul\n      not\n      and\n      swap1\n      dup4\n      0xffffffffffffffffffffffffffffffffffffffff\n      and\n      mul\n      or\n      swap1\n      sstore\n      pop\n        /* \"contracts/exoCours/exoNotation/exoNotation.sol\":872:900  teacherAdded(_course, _addr) */\n      0x4c81db63b6bab09b12e49b76a90a6ca4a9cfac4a8aabcefc1f8a249f0f4e6919\n        /* \"contracts/exoCours/exoNotation/exoNotation.sol\":885:892  _course */\n      dup3\n        /* \"contracts/exoCours/exoNotation/exoNotation.sol\":894:899  _addr */\n      dup3\n        /* \"contracts/exoCours/exoNotation/exoNotation.sol\":872:900  teacherAdded(_course, _addr) */\n      mload(0x40)\n      tag_56\n      swap3\n      swap2\n      swap1\n      tag_57\n      jump\t// in\n    tag_56:\n      mload(0x40)\n      dup1\n      swap2\n      sub\n      swap1\n      log1\n        /* \"contracts/exoCours/exoNotation/exoNotation.sol\":753:908  function addTeacher(course _course, address _addr) public onlyOwner{... */\n      pop\n      pop\n      jump\t// out\n        /* \"contracts/exoCours/exoNotation/exoNotation.sol\":1325:1974  function setNote(course _course, string calldata _nameStudent, uint _note) public{... */\n    tag_25:\n        /* \"contracts/exoCours/exoNotation/exoNotation.sol\":1427:1441  uint idStudent */\n      0x00\n        /* \"contracts/exoCours/exoNotation/exoNotation.sol\":1444:1476  getStudentFromName(_nameStudent) */\n      tag_59\n        /* \"contracts/exoCours/exoNotation/exoNotation.sol\":1463:1475  _nameStudent */\n      dup5\n      dup5\n        /* \"contracts/exoCours/exoNotation/exoNotation.sol\":1444:1476  getStudentFromName(_nameStudent) */\n      dup1\n      dup1\n      0x1f\n      add\n      0x20\n      dup1\n      swap2\n      div\n      mul\n      0x20\n      add\n      mload(0x40)\n      swap1\n      dup2\n      add\n      0x40\n      mstore\n      dup1\n      swap4\n      swap3\n      swap2\n      swap1\n      dup2\n      dup2\n      mstore\n      0x20\n      add\n      dup4\n      dup4\n      dup1\n      dup3\n      dup5\n      calldatacopy\n      0x00\n      dup2\n      dup5\n      add\n      mstore\n      not(0x1f)\n      0x1f\n      dup3\n      add\n      and\n      swap1\n      pop\n      dup1\n      dup4\n      add\n      swap3\n      pop\n      pop\n      pop\n      pop\n      pop\n      pop\n      pop\n        /* \"contracts/exoCours/exoNotation/exoNotation.sol\":1444:1462  getStudentFromName */\n      tag_60\n        /* \"contracts/exoCours/exoNotation/exoNotation.sol\":1444:1476  getStudentFromName(_nameStudent) */\n      jump\t// in\n    tag_59:\n        /* \"contracts/exoCours/exoNotation/exoNotation.sol\":1427:1476  uint idStudent = getStudentFromName(_nameStudent) */\n      swap1\n      pop\n        /* \"contracts/exoCours/exoNotation/exoNotation.sol\":1510:1518  teachers */\n      0x03\n        /* \"contracts/exoCours/exoNotation/exoNotation.sol\":1510:1527  teachers[_course] */\n      0x00\n        /* \"contracts/exoCours/exoNotation/exoNotation.sol\":1519:1526  _course */\n      dup7\n        /* \"contracts/exoCours/exoNotation/exoNotation.sol\":1510:1527  teachers[_course] */\n      0x02\n      dup2\n      gt\n      iszero\n      tag_61\n      jumpi\n      tag_62\n      tag_53\n      jump\t// in\n    tag_62:\n    tag_61:\n      0x02\n      dup2\n      gt\n      iszero\n      tag_63\n      jumpi\n      tag_64\n      tag_53\n      jump\t// in\n    tag_64:\n    tag_63:\n      dup2\n      mstore\n      0x20\n      add\n      swap1\n      dup2\n      mstore\n      0x20\n      add\n      0x00\n      keccak256\n      0x00\n      swap1\n      sload\n      swap1\n      0x0100\n      exp\n      swap1\n      div\n      0xffffffffffffffffffffffffffffffffffffffff\n      and\n        /* \"contracts/exoCours/exoNotation/exoNotation.sol\":1496:1527  msg.sender == teachers[_course] */\n      0xffffffffffffffffffffffffffffffffffffffff\n      and\n        /* \"contracts/exoCours/exoNotation/exoNotation.sol\":1496:1506  msg.sender */\n      caller\n        /* \"contracts/exoCours/exoNotation/exoNotation.sol\":1496:1527  msg.sender == teachers[_course] */\n      0xffffffffffffffffffffffffffffffffffffffff\n      and\n      eq\n        /* \"contracts/exoCours/exoNotation/exoNotation.sol\":1487:1579  require (msg.sender == teachers[_course], \"You are not the teacher of this student course.\") */\n      tag_65\n      jumpi\n      mload(0x40)\n      0x08c379a000000000000000000000000000000000000000000000000000000000\n      dup2\n      mstore\n      0x04\n      add\n      tag_66\n      swap1\n      tag_67\n      jump\t// in\n    tag_66:\n      mload(0x40)\n      dup1\n      swap2\n      sub\n      swap1\n      revert\n    tag_65:\n        /* \"contracts/exoCours/exoNotation/exoNotation.sol\":1604:1618  course.Biology */\n      0x00\n        /* \"contracts/exoCours/exoNotation/exoNotation.sol\":1593:1618  _course == course.Biology */\n      0x02\n      dup2\n      gt\n      iszero\n      tag_68\n      jumpi\n      tag_69\n      tag_53\n      jump\t// in\n    tag_69:\n    tag_68:\n        /* \"contracts/exoCours/exoNotation/exoNotation.sol\":1593:1600  _course */\n      dup6\n        /* \"contracts/exoCours/exoNotation/exoNotation.sol\":1593:1618  _course == course.Biology */\n      0x02\n      dup2\n      gt\n      iszero\n      tag_70\n      jumpi\n      tag_71\n      tag_53\n      jump\t// in\n    tag_71:\n    tag_70:\n      sub\n        /* \"contracts/exoCours/exoNotation/exoNotation.sol\":1590:1967  if(_course == course.Biology){... */\n      tag_72\n      jumpi\n        /* \"contracts/exoCours/exoNotation/exoNotation.sol\":1668:1673  _note */\n      dup2\n        /* \"contracts/exoCours/exoNotation/exoNotation.sol\":1634:1642  students */\n      0x02\n        /* \"contracts/exoCours/exoNotation/exoNotation.sol\":1643:1652  idStudent */\n      dup3\n        /* \"contracts/exoCours/exoNotation/exoNotation.sol\":1634:1653  students[idStudent] */\n      dup2\n      sload\n      dup2\n      lt\n      tag_73\n      jumpi\n      tag_74\n      tag_75\n      jump\t// in\n    tag_74:\n    tag_73:\n      swap1\n      0x00\n      mstore\n      keccak256(0x00, 0x20)\n      swap1\n      0x04\n      mul\n      add\n        /* \"contracts/exoCours/exoNotation/exoNotation.sol\":1634:1665  students[idStudent].noteBiology */\n      0x01\n      add\n        /* \"contracts/exoCours/exoNotation/exoNotation.sol\":1634:1673  students[idStudent].noteBiology = _note */\n      dup2\n      swap1\n      sstore\n      pop\n        /* \"contracts/exoCours/exoNotation/exoNotation.sol\":1590:1967  if(_course == course.Biology){... */\n      jump(tag_77)\n    tag_72:\n        /* \"contracts/exoCours/exoNotation/exoNotation.sol\":1714:1723  course.Fr */\n      0x02\n        /* \"contracts/exoCours/exoNotation/exoNotation.sol\":1703:1723  _course == course.Fr */\n      dup1\n      dup2\n      gt\n      iszero\n      tag_78\n      jumpi\n      tag_79\n      tag_53\n      jump\t// in\n    tag_79:\n    tag_78:\n        /* \"contracts/exoCours/exoNotation/exoNotation.sol\":1703:1710  _course */\n      dup6\n        /* \"contracts/exoCours/exoNotation/exoNotation.sol\":1703:1723  _course == course.Fr */\n      0x02\n      dup2\n      gt\n      iszero\n      tag_80\n      jumpi\n      tag_81\n      tag_53\n      jump\t// in\n    tag_81:\n    tag_80:\n      sub\n        /* \"contracts/exoCours/exoNotation/exoNotation.sol\":1700:1967  if(_course == course.Fr){... */\n      tag_82\n      jumpi\n        /* \"contracts/exoCours/exoNotation/exoNotation.sol\":1768:1773  _note */\n      dup2\n        /* \"contracts/exoCours/exoNotation/exoNotation.sol\":1739:1747  students */\n      0x02\n        /* \"contracts/exoCours/exoNotation/exoNotation.sol\":1748:1757  idStudent */\n      dup3\n        /* \"contracts/exoCours/exoNotation/exoNotation.sol\":1739:1758  students[idStudent] */\n      dup2\n      sload\n      dup2\n      lt\n      tag_83\n      jumpi\n      tag_84\n      tag_75\n      jump\t// in\n    tag_84:\n    tag_83:\n      swap1\n      0x00\n      mstore\n      keccak256(0x00, 0x20)\n      swap1\n      0x04\n      mul\n      add\n        /* \"contracts/exoCours/exoNotation/exoNotation.sol\":1739:1765  students[idStudent].noteFr */\n      0x03\n      add\n        /* \"contracts/exoCours/exoNotation/exoNotation.sol\":1739:1773  students[idStudent].noteFr = _note */\n      dup2\n      swap1\n      sstore\n      pop\n        /* \"contracts/exoCours/exoNotation/exoNotation.sol\":1700:1967  if(_course == course.Fr){... */\n      jump(tag_86)\n    tag_82:\n        /* \"contracts/exoCours/exoNotation/exoNotation.sol\":1814:1825  course.Math */\n      0x01\n        /* \"contracts/exoCours/exoNotation/exoNotation.sol\":1803:1825  _course == course.Math */\n      0x02\n      dup2\n      gt\n      iszero\n      tag_87\n      jumpi\n      tag_88\n      tag_53\n      jump\t// in\n    tag_88:\n    tag_87:\n        /* \"contracts/exoCours/exoNotation/exoNotation.sol\":1803:1810  _course */\n      dup6\n        /* \"contracts/exoCours/exoNotation/exoNotation.sol\":1803:1825  _course == course.Math */\n      0x02\n      dup2\n      gt\n      iszero\n      tag_89\n      jumpi\n      tag_90\n      tag_53\n      jump\t// in\n    tag_90:\n    tag_89:\n      sub\n        /* \"contracts/exoCours/exoNotation/exoNotation.sol\":1800:1967  if(_course == course.Math){... */\n      tag_91\n      jumpi\n        /* \"contracts/exoCours/exoNotation/exoNotation.sol\":1872:1877  _note */\n      dup2\n        /* \"contracts/exoCours/exoNotation/exoNotation.sol\":1841:1849  students */\n      0x02\n        /* \"contracts/exoCours/exoNotation/exoNotation.sol\":1850:1859  idStudent */\n      dup3\n        /* \"contracts/exoCours/exoNotation/exoNotation.sol\":1841:1860  students[idStudent] */\n      dup2\n      sload\n      dup2\n      lt\n      tag_92\n      jumpi\n      tag_93\n      tag_75\n      jump\t// in\n    tag_93:\n    tag_92:\n      swap1\n      0x00\n      mstore\n      keccak256(0x00, 0x20)\n      swap1\n      0x04\n      mul\n      add\n        /* \"contracts/exoCours/exoNotation/exoNotation.sol\":1841:1869  students[idStudent].noteMath */\n      0x02\n      add\n        /* \"contracts/exoCours/exoNotation/exoNotation.sol\":1841:1877  students[idStudent].noteMath = _note */\n      dup2\n      swap1\n      sstore\n      pop\n        /* \"contracts/exoCours/exoNotation/exoNotation.sol\":1800:1967  if(_course == course.Math){... */\n      jump(tag_95)\n    tag_91:\n        /* \"contracts/exoCours/exoNotation/exoNotation.sol\":1918:1955  revert(\"Course type does not exist.\") */\n      mload(0x40)\n      0x08c379a000000000000000000000000000000000000000000000000000000000\n      dup2\n      mstore\n      0x04\n      add\n      tag_96\n      swap1\n      tag_97\n      jump\t// in\n    tag_96:\n      mload(0x40)\n      dup1\n      swap2\n      sub\n      swap1\n      revert\n        /* \"contracts/exoCours/exoNotation/exoNotation.sol\":1800:1967  if(_course == course.Math){... */\n    tag_95:\n        /* \"contracts/exoCours/exoNotation/exoNotation.sol\":1700:1967  if(_course == course.Fr){... */\n    tag_86:\n        /* \"contracts/exoCours/exoNotation/exoNotation.sol\":1590:1967  if(_course == course.Biology){... */\n    tag_77:\n        /* \"contracts/exoCours/exoNotation/exoNotation.sol\":1406:1974  {... */\n      pop\n        /* \"contracts/exoCours/exoNotation/exoNotation.sol\":1325:1974  function setNote(course _course, string calldata _nameStudent, uint _note) public{... */\n      pop\n      pop\n      pop\n      pop\n      jump\t// out\n        /* \"@openzeppelin/contracts/access/Ownable.sol\":1831:1932  function renounceOwnership() public virtual onlyOwner {... */\n    tag_27:\n        /* \"@openzeppelin/contracts/access/Ownable.sol\":1094:1107  _checkOwner() */\n      tag_99\n        /* \"@openzeppelin/contracts/access/Ownable.sol\":1094:1105  _checkOwner */\n      tag_40\n        /* \"@openzeppelin/contracts/access/Ownable.sol\":1094:1107  _checkOwner() */\n      jump\t// in\n    tag_99:\n        /* \"@openzeppelin/contracts/access/Ownable.sol\":1895:1925  _transferOwnership(address(0)) */\n      tag_101\n        /* \"@openzeppelin/contracts/access/Ownable.sol\":1922:1923  0 */\n      0x00\n        /* \"@openzeppelin/contracts/access/Ownable.sol\":1895:1913  _transferOwnership */\n      tag_102\n        /* \"@openzeppelin/contracts/access/Ownable.sol\":1895:1925  _transferOwnership(address(0)) */\n      jump\t// in\n    tag_101:\n        /* \"@openzeppelin/contracts/access/Ownable.sol\":1831:1932  function renounceOwnership() public virtual onlyOwner {... */\n      jump\t// out\n        /* \"@openzeppelin/contracts/access/Ownable.sol\":1201:1286  function owner() public view virtual returns (address) {... */\n    tag_29:\n        /* \"@openzeppelin/contracts/access/Ownable.sol\":1247:1254  address */\n      0x00\n        /* \"@openzeppelin/contracts/access/Ownable.sol\":1273:1279  _owner */\n      dup1\n      0x00\n      swap1\n      sload\n      swap1\n      0x0100\n      exp\n      swap1\n      div\n      0xffffffffffffffffffffffffffffffffffffffff\n      and\n        /* \"@openzeppelin/contracts/access/Ownable.sol\":1266:1279  return _owner */\n      swap1\n      pop\n        /* \"@openzeppelin/contracts/access/Ownable.sol\":1201:1286  function owner() public view virtual returns (address) {... */\n      swap1\n      jump\t// out\n        /* \"contracts/exoCours/exoNotation/exoNotation.sol\":1274:1317  function getNote() public{... */\n    tag_33:\n      jump\t// out\n        /* \"@openzeppelin/contracts/access/Ownable.sol\":2081:2279  function transferOwnership(address newOwner) public virtual onlyOwner {... */\n    tag_37:\n        /* \"@openzeppelin/contracts/access/Ownable.sol\":1094:1107  _checkOwner() */\n      tag_106\n        /* \"@openzeppelin/contracts/access/Ownable.sol\":1094:1105  _checkOwner */\n      tag_40\n        /* \"@openzeppelin/contracts/access/Ownable.sol\":1094:1107  _checkOwner() */\n      jump\t// in\n    tag_106:\n        /* \"@openzeppelin/contracts/access/Ownable.sol\":2189:2190  0 */\n      0x00\n        /* \"@openzeppelin/contracts/access/Ownable.sol\":2169:2191  newOwner != address(0) */\n      0xffffffffffffffffffffffffffffffffffffffff\n      and\n        /* \"@openzeppelin/contracts/access/Ownable.sol\":2169:2177  newOwner */\n      dup2\n        /* \"@openzeppelin/contracts/access/Ownable.sol\":2169:2191  newOwner != address(0) */\n      0xffffffffffffffffffffffffffffffffffffffff\n      and\n      sub\n        /* \"@openzeppelin/contracts/access/Ownable.sol\":2161:2234  require(newOwner != address(0), \"Ownable: new owner is the zero address\") */\n      tag_108\n      jumpi\n      mload(0x40)\n      0x08c379a000000000000000000000000000000000000000000000000000000000\n      dup2\n      mstore\n      0x04\n      add\n      tag_109\n      swap1\n      tag_110\n      jump\t// in\n    tag_109:\n      mload(0x40)\n      dup1\n      swap2\n      sub\n      swap1\n      revert\n    tag_108:\n        /* \"@openzeppelin/contracts/access/Ownable.sol\":2244:2272  _transferOwnership(newOwner) */\n      tag_111\n        /* \"@openzeppelin/contracts/access/Ownable.sol\":2263:2271  newOwner */\n      dup2\n        /* \"@openzeppelin/contracts/access/Ownable.sol\":2244:2262  _transferOwnership */\n      tag_102\n        /* \"@openzeppelin/contracts/access/Ownable.sol\":2244:2272  _transferOwnership(newOwner) */\n      jump\t// in\n    tag_111:\n        /* \"@openzeppelin/contracts/access/Ownable.sol\":2081:2279  function transferOwnership(address newOwner) public virtual onlyOwner {... */\n      pop\n      jump\t// out\n        /* \"@openzeppelin/contracts/access/Ownable.sol\":1359:1489  function _checkOwner() internal view virtual {... */\n    tag_40:\n        /* \"@openzeppelin/contracts/access/Ownable.sol\":1433:1445  _msgSender() */\n      tag_113\n        /* \"@openzeppelin/contracts/access/Ownable.sol\":1433:1443  _msgSender */\n      tag_114\n        /* \"@openzeppelin/contracts/access/Ownable.sol\":1433:1445  _msgSender() */\n      jump\t// in\n    tag_113:\n        /* \"@openzeppelin/contracts/access/Ownable.sol\":1422:1445  owner() == _msgSender() */\n      0xffffffffffffffffffffffffffffffffffffffff\n      and\n        /* \"@openzeppelin/contracts/access/Ownable.sol\":1422:1429  owner() */\n      tag_115\n        /* \"@openzeppelin/contracts/access/Ownable.sol\":1422:1427  owner */\n      tag_29\n        /* \"@openzeppelin/contracts/access/Ownable.sol\":1422:1429  owner() */\n      jump\t// in\n    tag_115:\n        /* \"@openzeppelin/contracts/access/Ownable.sol\":1422:1445  owner() == _msgSender() */\n      0xffffffffffffffffffffffffffffffffffffffff\n      and\n      eq\n        /* \"@openzeppelin/contracts/access/Ownable.sol\":1414:1482  require(owner() == _msgSender(), \"Ownable: caller is not the owner\") */\n      tag_116\n      jumpi\n      mload(0x40)\n      0x08c379a000000000000000000000000000000000000000000000000000000000\n      dup2\n      mstore\n      0x04\n      add\n      tag_117\n      swap1\n      tag_118\n      jump\t// in\n    tag_117:\n      mload(0x40)\n      dup1\n      swap2\n      sub\n      swap1\n      revert\n    tag_116:\n        /* \"@openzeppelin/contracts/access/Ownable.sol\":1359:1489  function _checkOwner() internal view virtual {... */\n      jump\t// out\n        /* \"contracts/exoCours/exoNotation/exoNotation.sol\":916:1221  function getStudentFromName(string memory _name) private view returns(uint){... */\n    tag_60:\n        /* \"contracts/exoCours/exoNotation/exoNotation.sol\":986:990  uint */\n      0x00\n        /* \"contracts/exoCours/exoNotation/exoNotation.sol\":1006:1012  uint i */\n      dup1\n        /* \"contracts/exoCours/exoNotation/exoNotation.sol\":1013:1014  0 */\n      0x00\n        /* \"contracts/exoCours/exoNotation/exoNotation.sol\":1006:1014  uint i=0 */\n      swap1\n      pop\n        /* \"contracts/exoCours/exoNotation/exoNotation.sol\":1002:1195  for(uint i=0; i< students.length;i++){... */\n    tag_120:\n        /* \"contracts/exoCours/exoNotation/exoNotation.sol\":1019:1027  students */\n      0x02\n        /* \"contracts/exoCours/exoNotation/exoNotation.sol\":1019:1034  students.length */\n      dup1\n      sload\n      swap1\n      pop\n        /* \"contracts/exoCours/exoNotation/exoNotation.sol\":1016:1017  i */\n      dup2\n        /* \"contracts/exoCours/exoNotation/exoNotation.sol\":1016:1034  i< students.length */\n      lt\n        /* \"contracts/exoCours/exoNotation/exoNotation.sol\":1002:1195  for(uint i=0; i< students.length;i++){... */\n      iszero\n      tag_121\n      jumpi\n        /* \"contracts/exoCours/exoNotation/exoNotation.sol\":1133:1138  _name */\n      dup3\n        /* \"contracts/exoCours/exoNotation/exoNotation.sol\":1116:1139  abi.encodePacked(_name) */\n      add(0x20, mload(0x40))\n      tag_123\n      swap2\n      swap1\n      tag_124\n      jump\t// in\n    tag_123:\n      mload(0x40)\n      0x20\n      dup2\n      dup4\n      sub\n      sub\n      dup2\n      mstore\n      swap1\n      0x40\n      mstore\n        /* \"contracts/exoCours/exoNotation/exoNotation.sol\":1106:1140  keccak256(abi.encodePacked(_name)) */\n      dup1\n      mload\n      swap1\n      0x20\n      add\n      keccak256\n        /* \"contracts/exoCours/exoNotation/exoNotation.sol\":1084:1092  students */\n      0x02\n        /* \"contracts/exoCours/exoNotation/exoNotation.sol\":1093:1094  i */\n      dup3\n        /* \"contracts/exoCours/exoNotation/exoNotation.sol\":1084:1095  students[i] */\n      dup2\n      sload\n      dup2\n      lt\n      tag_125\n      jumpi\n      tag_126\n      tag_75\n      jump\t// in\n    tag_126:\n    tag_125:\n      swap1\n      0x00\n      mstore\n      keccak256(0x00, 0x20)\n      swap1\n      0x04\n      mul\n      add\n        /* \"contracts/exoCours/exoNotation/exoNotation.sol\":1084:1100  students[i].name */\n      0x00\n      add\n        /* \"contracts/exoCours/exoNotation/exoNotation.sol\":1067:1101  abi.encodePacked(students[i].name) */\n      add(0x20, mload(0x40))\n      tag_128\n      swap2\n      swap1\n      tag_129\n      jump\t// in\n    tag_128:\n      mload(0x40)\n      0x20\n      dup2\n      dup4\n      sub\n      sub\n      dup2\n      mstore\n      swap1\n      0x40\n      mstore\n        /* \"contracts/exoCours/exoNotation/exoNotation.sol\":1057:1102  keccak256(abi.encodePacked(students[i].name)) */\n      dup1\n      mload\n      swap1\n      0x20\n      add\n      keccak256\n        /* \"contracts/exoCours/exoNotation/exoNotation.sol\":1057:1140  keccak256(abi.encodePacked(students[i].name)) == keccak256(abi.encodePacked(_name)) */\n      sub\n        /* \"contracts/exoCours/exoNotation/exoNotation.sol\":1054:1184  if(keccak256(abi.encodePacked(students[i].name)) == keccak256(abi.encodePacked(_name))){... */\n      tag_130\n      jumpi\n        /* \"contracts/exoCours/exoNotation/exoNotation.sol\":1167:1168  i */\n      dup1\n        /* \"contracts/exoCours/exoNotation/exoNotation.sol\":1160:1168  return i */\n      swap2\n      pop\n      pop\n      jump(tag_119)\n        /* \"contracts/exoCours/exoNotation/exoNotation.sol\":1054:1184  if(keccak256(abi.encodePacked(students[i].name)) == keccak256(abi.encodePacked(_name))){... */\n    tag_130:\n        /* \"contracts/exoCours/exoNotation/exoNotation.sol\":1035:1038  i++ */\n      dup1\n      dup1\n      tag_131\n      swap1\n      tag_132\n      jump\t// in\n    tag_131:\n      swap2\n      pop\n      pop\n        /* \"contracts/exoCours/exoNotation/exoNotation.sol\":1002:1195  for(uint i=0; i< students.length;i++){... */\n      jump(tag_120)\n    tag_121:\n      pop\n        /* \"contracts/exoCours/exoNotation/exoNotation.sol\":1212:1213  0 */\n      0x00\n        /* \"contracts/exoCours/exoNotation/exoNotation.sol\":1205:1213  return 0 */\n      swap1\n      pop\n        /* \"contracts/exoCours/exoNotation/exoNotation.sol\":916:1221  function getStudentFromName(string memory _name) private view returns(uint){... */\n    tag_119:\n      swap2\n      swap1\n      pop\n      jump\t// out\n        /* \"@openzeppelin/contracts/access/Ownable.sol\":2433:2620  function _transferOwnership(address newOwner) internal virtual {... */\n    tag_102:\n        /* \"@openzeppelin/contracts/access/Ownable.sol\":2506:2522  address oldOwner */\n      0x00\n        /* \"@openzeppelin/contracts/access/Ownable.sol\":2525:2531  _owner */\n      dup1\n      0x00\n      swap1\n      sload\n      swap1\n      0x0100\n      exp\n      swap1\n      div\n      0xffffffffffffffffffffffffffffffffffffffff\n      and\n        /* \"@openzeppelin/contracts/access/Ownable.sol\":2506:2531  address oldOwner = _owner */\n      swap1\n      pop\n        /* \"@openzeppelin/contracts/access/Ownable.sol\":2550:2558  newOwner */\n      dup2\n        /* \"@openzeppelin/contracts/access/Ownable.sol\":2541:2547  _owner */\n      0x00\n      dup1\n        /* \"@openzeppelin/contracts/access/Ownable.sol\":2541:2558  _owner = newOwner */\n      0x0100\n      exp\n      dup2\n      sload\n      dup2\n      0xffffffffffffffffffffffffffffffffffffffff\n      mul\n      not\n      and\n      swap1\n      dup4\n      0xffffffffffffffffffffffffffffffffffffffff\n      and\n      mul\n      or\n      swap1\n      sstore\n      pop\n        /* \"@openzeppelin/contracts/access/Ownable.sol\":2604:2612  newOwner */\n      dup2\n        /* \"@openzeppelin/contracts/access/Ownable.sol\":2573:2613  OwnershipTransferred(oldOwner, newOwner) */\n      0xffffffffffffffffffffffffffffffffffffffff\n      and\n        /* \"@openzeppelin/contracts/access/Ownable.sol\":2594:2602  oldOwner */\n      dup2\n        /* \"@openzeppelin/contracts/access/Ownable.sol\":2573:2613  OwnershipTransferred(oldOwner, newOwner) */\n      0xffffffffffffffffffffffffffffffffffffffff\n      and\n      0x8be0079c531659141344cd1fd0a4f28419497f9722a3daafe3b4186f6b6457e0\n      mload(0x40)\n      mload(0x40)\n      dup1\n      swap2\n      sub\n      swap1\n      log3\n        /* \"@openzeppelin/contracts/access/Ownable.sol\":2496:2620  {... */\n      pop\n        /* \"@openzeppelin/contracts/access/Ownable.sol\":2433:2620  function _transferOwnership(address newOwner) internal virtual {... */\n      pop\n      jump\t// out\n        /* \"@openzeppelin/contracts/utils/Context.sol\":640:736  function _msgSender() internal view virtual returns (address) {... */\n    tag_114:\n        /* \"@openzeppelin/contracts/utils/Context.sol\":693:700  address */\n      0x00\n        /* \"@openzeppelin/contracts/utils/Context.sol\":719:729  msg.sender */\n      caller\n        /* \"@openzeppelin/contracts/utils/Context.sol\":712:729  return msg.sender */\n      swap1\n      pop\n        /* \"@openzeppelin/contracts/utils/Context.sol\":640:736  function _msgSender() internal view virtual returns (address) {... */\n      swap1\n      jump\t// out\n    tag_44:\n      dup3\n      dup1\n      sload\n      tag_135\n      swap1\n      tag_136\n      jump\t// in\n    tag_135:\n      swap1\n      0x00\n      mstore\n      keccak256(0x00, 0x20)\n      swap1\n      0x1f\n      add\n      0x20\n      swap1\n      div\n      dup2\n      add\n      swap3\n      dup3\n      tag_138\n      jumpi\n      0x00\n      dup6\n      sstore\n      jump(tag_137)\n    tag_138:\n      dup3\n      0x1f\n      lt\n      tag_139\n      jumpi\n      dup1\n      mload\n      not(0xff)\n      and\n      dup4\n      dup1\n      add\n      or\n      dup6\n      sstore\n      jump(tag_137)\n    tag_139:\n      dup3\n      dup1\n      add\n      0x01\n      add\n      dup6\n      sstore\n      dup3\n      iszero\n      tag_137\n      jumpi\n      swap2\n      dup3\n      add\n    tag_140:\n      dup3\n      dup2\n      gt\n      iszero\n      tag_141\n      jumpi\n      dup3\n      mload\n      dup3\n      sstore\n      swap2\n      0x20\n      add\n      swap2\n      swap1\n      0x01\n      add\n      swap1\n      jump(tag_140)\n    tag_141:\n    tag_137:\n      pop\n      swap1\n      pop\n      tag_142\n      swap2\n      swap1\n      tag_143\n      jump\t// in\n    tag_142:\n      pop\n      swap1\n      jump\t// out\n    tag_143:\n    tag_144:\n      dup1\n      dup3\n      gt\n      iszero\n      tag_145\n      jumpi\n      0x00\n      dup2\n      0x00\n      swap1\n      sstore\n      pop\n      0x01\n      add\n      jump(tag_144)\n    tag_145:\n      pop\n      swap1\n      jump\t// out\n        /* \"#utility.yul\":88:205   */\n    tag_147:\n        /* \"#utility.yul\":197:198   */\n      0x00\n        /* \"#utility.yul\":194:195   */\n      dup1\n        /* \"#utility.yul\":187:199   */\n      revert\n        /* \"#utility.yul\":211:328   */\n    tag_148:\n        /* \"#utility.yul\":320:321   */\n      0x00\n        /* \"#utility.yul\":317:318   */\n      dup1\n        /* \"#utility.yul\":310:322   */\n      revert\n        /* \"#utility.yul\":334:451   */\n    tag_149:\n        /* \"#utility.yul\":443:444   */\n      0x00\n        /* \"#utility.yul\":440:441   */\n      dup1\n        /* \"#utility.yul\":433:445   */\n      revert\n        /* \"#utility.yul\":457:574   */\n    tag_150:\n        /* \"#utility.yul\":566:567   */\n      0x00\n        /* \"#utility.yul\":563:564   */\n      dup1\n        /* \"#utility.yul\":556:568   */\n      revert\n        /* \"#utility.yul\":580:697   */\n    tag_151:\n        /* \"#utility.yul\":689:690   */\n      0x00\n        /* \"#utility.yul\":686:687   */\n      dup1\n        /* \"#utility.yul\":679:691   */\n      revert\n        /* \"#utility.yul\":717:1270   */\n    tag_152:\n        /* \"#utility.yul\":775:783   */\n      0x00\n        /* \"#utility.yul\":785:791   */\n      dup1\n        /* \"#utility.yul\":835:838   */\n      dup4\n        /* \"#utility.yul\":828:832   */\n      0x1f\n        /* \"#utility.yul\":820:826   */\n      dup5\n        /* \"#utility.yul\":816:833   */\n      add\n        /* \"#utility.yul\":812:839   */\n      slt\n        /* \"#utility.yul\":802:924   */\n      tag_195\n      jumpi\n        /* \"#utility.yul\":843:922   */\n      tag_196\n      tag_149\n      jump\t// in\n    tag_196:\n        /* \"#utility.yul\":802:924   */\n    tag_195:\n        /* \"#utility.yul\":956:962   */\n      dup3\n        /* \"#utility.yul\":943:963   */\n      calldataload\n        /* \"#utility.yul\":933:963   */\n      swap1\n      pop\n        /* \"#utility.yul\":986:1004   */\n      0xffffffffffffffff\n        /* \"#utility.yul\":978:984   */\n      dup2\n        /* \"#utility.yul\":975:1005   */\n      gt\n        /* \"#utility.yul\":972:1089   */\n      iszero\n      tag_197\n      jumpi\n        /* \"#utility.yul\":1008:1087   */\n      tag_198\n      tag_150\n      jump\t// in\n    tag_198:\n        /* \"#utility.yul\":972:1089   */\n    tag_197:\n        /* \"#utility.yul\":1122:1126   */\n      0x20\n        /* \"#utility.yul\":1114:1120   */\n      dup4\n        /* \"#utility.yul\":1110:1127   */\n      add\n        /* \"#utility.yul\":1098:1127   */\n      swap2\n      pop\n        /* \"#utility.yul\":1176:1179   */\n      dup4\n        /* \"#utility.yul\":1168:1172   */\n      0x01\n        /* \"#utility.yul\":1160:1166   */\n      dup3\n        /* \"#utility.yul\":1156:1173   */\n      mul\n        /* \"#utility.yul\":1146:1154   */\n      dup4\n        /* \"#utility.yul\":1142:1174   */\n      add\n        /* \"#utility.yul\":1139:1180   */\n      gt\n        /* \"#utility.yul\":1136:1264   */\n      iszero\n      tag_199\n      jumpi\n        /* \"#utility.yul\":1183:1262   */\n      tag_200\n      tag_151\n      jump\t// in\n    tag_200:\n        /* \"#utility.yul\":1136:1264   */\n    tag_199:\n        /* \"#utility.yul\":717:1270   */\n      swap3\n      pop\n      swap3\n      swap1\n      pop\n      jump\t// out\n        /* \"#utility.yul\":1276:1402   */\n    tag_153:\n        /* \"#utility.yul\":1313:1320   */\n      0x00\n        /* \"#utility.yul\":1353:1395   */\n      0xffffffffffffffffffffffffffffffffffffffff\n        /* \"#utility.yul\":1346:1351   */\n      dup3\n        /* \"#utility.yul\":1342:1396   */\n      and\n        /* \"#utility.yul\":1331:1396   */\n      swap1\n      pop\n        /* \"#utility.yul\":1276:1402   */\n      swap2\n      swap1\n      pop\n      jump\t// out\n        /* \"#utility.yul\":1408:1504   */\n    tag_154:\n        /* \"#utility.yul\":1445:1452   */\n      0x00\n        /* \"#utility.yul\":1474:1498   */\n      tag_203\n        /* \"#utility.yul\":1492:1497   */\n      dup3\n        /* \"#utility.yul\":1474:1498   */\n      tag_153\n      jump\t// in\n    tag_203:\n        /* \"#utility.yul\":1463:1498   */\n      swap1\n      pop\n        /* \"#utility.yul\":1408:1504   */\n      swap2\n      swap1\n      pop\n      jump\t// out\n        /* \"#utility.yul\":1510:1632   */\n    tag_155:\n        /* \"#utility.yul\":1583:1607   */\n      tag_205\n        /* \"#utility.yul\":1601:1606   */\n      dup2\n        /* \"#utility.yul\":1583:1607   */\n      tag_154\n      jump\t// in\n    tag_205:\n        /* \"#utility.yul\":1576:1581   */\n      dup2\n        /* \"#utility.yul\":1573:1608   */\n      eq\n        /* \"#utility.yul\":1563:1626   */\n      tag_206\n      jumpi\n        /* \"#utility.yul\":1622:1623   */\n      0x00\n        /* \"#utility.yul\":1619:1620   */\n      dup1\n        /* \"#utility.yul\":1612:1624   */\n      revert\n        /* \"#utility.yul\":1563:1626   */\n    tag_206:\n        /* \"#utility.yul\":1510:1632   */\n      pop\n      jump\t// out\n        /* \"#utility.yul\":1638:1777   */\n    tag_156:\n        /* \"#utility.yul\":1684:1689   */\n      0x00\n        /* \"#utility.yul\":1722:1728   */\n      dup2\n        /* \"#utility.yul\":1709:1729   */\n      calldataload\n        /* \"#utility.yul\":1700:1729   */\n      swap1\n      pop\n        /* \"#utility.yul\":1738:1771   */\n      tag_208\n        /* \"#utility.yul\":1765:1770   */\n      dup2\n        /* \"#utility.yul\":1738:1771   */\n      tag_155\n      jump\t// in\n    tag_208:\n        /* \"#utility.yul\":1638:1777   */\n      swap3\n      swap2\n      pop\n      pop\n      jump\t// out\n        /* \"#utility.yul\":1783:2457   */\n    tag_14:\n        /* \"#utility.yul\":1863:1869   */\n      0x00\n        /* \"#utility.yul\":1871:1877   */\n      dup1\n        /* \"#utility.yul\":1879:1885   */\n      0x00\n        /* \"#utility.yul\":1928:1930   */\n      0x40\n        /* \"#utility.yul\":1916:1925   */\n      dup5\n        /* \"#utility.yul\":1907:1914   */\n      dup7\n        /* \"#utility.yul\":1903:1926   */\n      sub\n        /* \"#utility.yul\":1899:1931   */\n      slt\n        /* \"#utility.yul\":1896:2015   */\n      iszero\n      tag_210\n      jumpi\n        /* \"#utility.yul\":1934:2013   */\n      tag_211\n      tag_147\n      jump\t// in\n    tag_211:\n        /* \"#utility.yul\":1896:2015   */\n    tag_210:\n        /* \"#utility.yul\":2082:2083   */\n      0x00\n        /* \"#utility.yul\":2071:2080   */\n      dup5\n        /* \"#utility.yul\":2067:2084   */\n      add\n        /* \"#utility.yul\":2054:2085   */\n      calldataload\n        /* \"#utility.yul\":2112:2130   */\n      0xffffffffffffffff\n        /* \"#utility.yul\":2104:2110   */\n      dup2\n        /* \"#utility.yul\":2101:2131   */\n      gt\n        /* \"#utility.yul\":2098:2215   */\n      iszero\n      tag_212\n      jumpi\n        /* \"#utility.yul\":2134:2213   */\n      tag_213\n      tag_148\n      jump\t// in\n    tag_213:\n        /* \"#utility.yul\":2098:2215   */\n    tag_212:\n        /* \"#utility.yul\":2247:2312   */\n      tag_214\n        /* \"#utility.yul\":2304:2311   */\n      dup7\n        /* \"#utility.yul\":2295:2301   */\n      dup3\n        /* \"#utility.yul\":2284:2293   */\n      dup8\n        /* \"#utility.yul\":2280:2302   */\n      add\n        /* \"#utility.yul\":2247:2312   */\n      tag_152\n      jump\t// in\n    tag_214:\n        /* \"#utility.yul\":2229:2312   */\n      swap4\n      pop\n      swap4\n      pop\n        /* \"#utility.yul\":2025:2322   */\n      pop\n        /* \"#utility.yul\":2361:2363   */\n      0x20\n        /* \"#utility.yul\":2387:2440   */\n      tag_215\n        /* \"#utility.yul\":2432:2439   */\n      dup7\n        /* \"#utility.yul\":2423:2429   */\n      dup3\n        /* \"#utility.yul\":2412:2421   */\n      dup8\n        /* \"#utility.yul\":2408:2430   */\n      add\n        /* \"#utility.yul\":2387:2440   */\n      tag_156\n      jump\t// in\n    tag_215:\n        /* \"#utility.yul\":2377:2440   */\n      swap2\n      pop\n        /* \"#utility.yul\":2332:2450   */\n      pop\n        /* \"#utility.yul\":1783:2457   */\n      swap3\n      pop\n      swap3\n      pop\n      swap3\n      jump\t// out\n        /* \"#utility.yul\":2463:2572   */\n    tag_157:\n        /* \"#utility.yul\":2546:2547   */\n      0x03\n        /* \"#utility.yul\":2539:2544   */\n      dup2\n        /* \"#utility.yul\":2536:2548   */\n      lt\n        /* \"#utility.yul\":2526:2566   */\n      tag_217\n      jumpi\n        /* \"#utility.yul\":2562:2563   */\n      0x00\n        /* \"#utility.yul\":2559:2560   */\n      dup1\n        /* \"#utility.yul\":2552:2564   */\n      revert\n        /* \"#utility.yul\":2526:2566   */\n    tag_217:\n        /* \"#utility.yul\":2463:2572   */\n      pop\n      jump\t// out\n        /* \"#utility.yul\":2578:2737   */\n    tag_158:\n        /* \"#utility.yul\":2634:2639   */\n      0x00\n        /* \"#utility.yul\":2672:2678   */\n      dup2\n        /* \"#utility.yul\":2659:2679   */\n      calldataload\n        /* \"#utility.yul\":2650:2679   */\n      swap1\n      pop\n        /* \"#utility.yul\":2688:2731   */\n      tag_219\n        /* \"#utility.yul\":2725:2730   */\n      dup2\n        /* \"#utility.yul\":2688:2731   */\n      tag_157\n      jump\t// in\n    tag_219:\n        /* \"#utility.yul\":2578:2737   */\n      swap3\n      swap2\n      pop\n      pop\n      jump\t// out\n        /* \"#utility.yul\":2743:3237   */\n    tag_20:\n        /* \"#utility.yul\":2821:2827   */\n      0x00\n        /* \"#utility.yul\":2829:2835   */\n      dup1\n        /* \"#utility.yul\":2878:2880   */\n      0x40\n        /* \"#utility.yul\":2866:2875   */\n      dup4\n        /* \"#utility.yul\":2857:2864   */\n      dup6\n        /* \"#utility.yul\":2853:2876   */\n      sub\n        /* \"#utility.yul\":2849:2881   */\n      slt\n        /* \"#utility.yul\":2846:2965   */\n      iszero\n      tag_221\n      jumpi\n        /* \"#utility.yul\":2884:2963   */\n      tag_222\n      tag_147\n      jump\t// in\n    tag_222:\n        /* \"#utility.yul\":2846:2965   */\n    tag_221:\n        /* \"#utility.yul\":3004:3005   */\n      0x00\n        /* \"#utility.yul\":3029:3092   */\n      tag_223\n        /* \"#utility.yul\":3084:3091   */\n      dup6\n        /* \"#utility.yul\":3075:3081   */\n      dup3\n        /* \"#utility.yul\":3064:3073   */\n      dup7\n        /* \"#utility.yul\":3060:3082   */\n      add\n        /* \"#utility.yul\":3029:3092   */\n      tag_158\n      jump\t// in\n    tag_223:\n        /* \"#utility.yul\":3019:3092   */\n      swap3\n      pop\n        /* \"#utility.yul\":2975:3102   */\n      pop\n        /* \"#utility.yul\":3141:3143   */\n      0x20\n        /* \"#utility.yul\":3167:3220   */\n      tag_224\n        /* \"#utility.yul\":3212:3219   */\n      dup6\n        /* \"#utility.yul\":3203:3209   */\n      dup3\n        /* \"#utility.yul\":3192:3201   */\n      dup7\n        /* \"#utility.yul\":3188:3210   */\n      add\n        /* \"#utility.yul\":3167:3220   */\n      tag_156\n      jump\t// in\n    tag_224:\n        /* \"#utility.yul\":3157:3220   */\n      swap2\n      pop\n        /* \"#utility.yul\":3112:3230   */\n      pop\n        /* \"#utility.yul\":2743:3237   */\n      swap3\n      pop\n      swap3\n      swap1\n      pop\n      jump\t// out\n        /* \"#utility.yul\":3243:3320   */\n    tag_159:\n        /* \"#utility.yul\":3280:3287   */\n      0x00\n        /* \"#utility.yul\":3309:3314   */\n      dup2\n        /* \"#utility.yul\":3298:3314   */\n      swap1\n      pop\n        /* \"#utility.yul\":3243:3320   */\n      swap2\n      swap1\n      pop\n      jump\t// out\n        /* \"#utility.yul\":3326:3448   */\n    tag_160:\n        /* \"#utility.yul\":3399:3423   */\n      tag_227\n        /* \"#utility.yul\":3417:3422   */\n      dup2\n        /* \"#utility.yul\":3399:3423   */\n      tag_159\n      jump\t// in\n    tag_227:\n        /* \"#utility.yul\":3392:3397   */\n      dup2\n        /* \"#utility.yul\":3389:3424   */\n      eq\n        /* \"#utility.yul\":3379:3442   */\n      tag_228\n      jumpi\n        /* \"#utility.yul\":3438:3439   */\n      0x00\n        /* \"#utility.yul\":3435:3436   */\n      dup1\n        /* \"#utility.yul\":3428:3440   */\n      revert\n        /* \"#utility.yul\":3379:3442   */\n    tag_228:\n        /* \"#utility.yul\":3326:3448   */\n      pop\n      jump\t// out\n        /* \"#utility.yul\":3454:3593   */\n    tag_161:\n        /* \"#utility.yul\":3500:3505   */\n      0x00\n        /* \"#utility.yul\":3538:3544   */\n      dup2\n        /* \"#utility.yul\":3525:3545   */\n      calldataload\n        /* \"#utility.yul\":3516:3545   */\n      swap1\n      pop\n        /* \"#utility.yul\":3554:3587   */\n      tag_230\n        /* \"#utility.yul\":3581:3586   */\n      dup2\n        /* \"#utility.yul\":3554:3587   */\n      tag_160\n      jump\t// in\n    tag_230:\n        /* \"#utility.yul\":3454:3593   */\n      swap3\n      swap2\n      pop\n      pop\n      jump\t// out\n        /* \"#utility.yul\":3599:4438   */\n    tag_24:\n        /* \"#utility.yul\":3698:3704   */\n      0x00\n        /* \"#utility.yul\":3706:3712   */\n      dup1\n        /* \"#utility.yul\":3714:3720   */\n      0x00\n        /* \"#utility.yul\":3722:3728   */\n      dup1\n        /* \"#utility.yul\":3771:3773   */\n      0x60\n        /* \"#utility.yul\":3759:3768   */\n      dup6\n        /* \"#utility.yul\":3750:3757   */\n      dup8\n        /* \"#utility.yul\":3746:3769   */\n      sub\n        /* \"#utility.yul\":3742:3774   */\n      slt\n        /* \"#utility.yul\":3739:3858   */\n      iszero\n      tag_232\n      jumpi\n        /* \"#utility.yul\":3777:3856   */\n      tag_233\n      tag_147\n      jump\t// in\n    tag_233:\n        /* \"#utility.yul\":3739:3858   */\n    tag_232:\n        /* \"#utility.yul\":3897:3898   */\n      0x00\n        /* \"#utility.yul\":3922:3985   */\n      tag_234\n        /* \"#utility.yul\":3977:3984   */\n      dup8\n        /* \"#utility.yul\":3968:3974   */\n      dup3\n        /* \"#utility.yul\":3957:3966   */\n      dup9\n        /* \"#utility.yul\":3953:3975   */\n      add\n        /* \"#utility.yul\":3922:3985   */\n      tag_158\n      jump\t// in\n    tag_234:\n        /* \"#utility.yul\":3912:3985   */\n      swap5\n      pop\n        /* \"#utility.yul\":3868:3995   */\n      pop\n        /* \"#utility.yul\":4062:4064   */\n      0x20\n        /* \"#utility.yul\":4051:4060   */\n      dup6\n        /* \"#utility.yul\":4047:4065   */\n      add\n        /* \"#utility.yul\":4034:4066   */\n      calldataload\n        /* \"#utility.yul\":4093:4111   */\n      0xffffffffffffffff\n        /* \"#utility.yul\":4085:4091   */\n      dup2\n        /* \"#utility.yul\":4082:4112   */\n      gt\n        /* \"#utility.yul\":4079:4196   */\n      iszero\n      tag_235\n      jumpi\n        /* \"#utility.yul\":4115:4194   */\n      tag_236\n      tag_148\n      jump\t// in\n    tag_236:\n        /* \"#utility.yul\":4079:4196   */\n    tag_235:\n        /* \"#utility.yul\":4228:4293   */\n      tag_237\n        /* \"#utility.yul\":4285:4292   */\n      dup8\n        /* \"#utility.yul\":4276:4282   */\n      dup3\n        /* \"#utility.yul\":4265:4274   */\n      dup9\n        /* \"#utility.yul\":4261:4283   */\n      add\n        /* \"#utility.yul\":4228:4293   */\n      tag_152\n      jump\t// in\n    tag_237:\n        /* \"#utility.yul\":4210:4293   */\n      swap4\n      pop\n      swap4\n      pop\n        /* \"#utility.yul\":4005:4303   */\n      pop\n        /* \"#utility.yul\":4342:4344   */\n      0x40\n        /* \"#utility.yul\":4368:4421   */\n      tag_238\n        /* \"#utility.yul\":4413:4420   */\n      dup8\n        /* \"#utility.yul\":4404:4410   */\n      dup3\n        /* \"#utility.yul\":4393:4402   */\n      dup9\n        /* \"#utility.yul\":4389:4411   */\n      add\n        /* \"#utility.yul\":4368:4421   */\n      tag_161\n      jump\t// in\n    tag_238:\n        /* \"#utility.yul\":4358:4421   */\n      swap2\n      pop\n        /* \"#utility.yul\":4313:4431   */\n      pop\n        /* \"#utility.yul\":3599:4438   */\n      swap3\n      swap6\n      swap2\n      swap5\n      pop\n      swap3\n      pop\n      jump\t// out\n        /* \"#utility.yul\":4444:4562   */\n    tag_162:\n        /* \"#utility.yul\":4531:4555   */\n      tag_240\n        /* \"#utility.yul\":4549:4554   */\n      dup2\n        /* \"#utility.yul\":4531:4555   */\n      tag_154\n      jump\t// in\n    tag_240:\n        /* \"#utility.yul\":4526:4529   */\n      dup3\n        /* \"#utility.yul\":4519:4556   */\n      mstore\n        /* \"#utility.yul\":4444:4562   */\n      pop\n      pop\n      jump\t// out\n        /* \"#utility.yul\":4568:4790   */\n    tag_31:\n        /* \"#utility.yul\":4661:4665   */\n      0x00\n        /* \"#utility.yul\":4699:4701   */\n      0x20\n        /* \"#utility.yul\":4688:4697   */\n      dup3\n        /* \"#utility.yul\":4684:4702   */\n      add\n        /* \"#utility.yul\":4676:4702   */\n      swap1\n      pop\n        /* \"#utility.yul\":4712:4783   */\n      tag_242\n        /* \"#utility.yul\":4780:4781   */\n      0x00\n        /* \"#utility.yul\":4769:4778   */\n      dup4\n        /* \"#utility.yul\":4765:4782   */\n      add\n        /* \"#utility.yul\":4756:4762   */\n      dup5\n        /* \"#utility.yul\":4712:4783   */\n      tag_162\n      jump\t// in\n    tag_242:\n        /* \"#utility.yul\":4568:4790   */\n      swap3\n      swap2\n      pop\n      pop\n      jump\t// out\n        /* \"#utility.yul\":4796:5125   */\n    tag_36:\n        /* \"#utility.yul\":4855:4861   */\n      0x00\n        /* \"#utility.yul\":4904:4906   */\n      0x20\n        /* \"#utility.yul\":4892:4901   */\n      dup3\n        /* \"#utility.yul\":4883:4890   */\n      dup5\n        /* \"#utility.yul\":4879:4902   */\n      sub\n        /* \"#utility.yul\":4875:4907   */\n      slt\n        /* \"#utility.yul\":4872:4991   */\n      iszero\n      tag_244\n      jumpi\n        /* \"#utility.yul\":4910:4989   */\n      tag_245\n      tag_147\n      jump\t// in\n    tag_245:\n        /* \"#utility.yul\":4872:4991   */\n    tag_244:\n        /* \"#utility.yul\":5030:5031   */\n      0x00\n        /* \"#utility.yul\":5055:5108   */\n      tag_246\n        /* \"#utility.yul\":5100:5107   */\n      dup5\n        /* \"#utility.yul\":5091:5097   */\n      dup3\n        /* \"#utility.yul\":5080:5089   */\n      dup6\n        /* \"#utility.yul\":5076:5098   */\n      add\n        /* \"#utility.yul\":5055:5108   */\n      tag_156\n      jump\t// in\n    tag_246:\n        /* \"#utility.yul\":5045:5108   */\n      swap2\n      pop\n        /* \"#utility.yul\":5001:5118   */\n      pop\n        /* \"#utility.yul\":4796:5125   */\n      swap3\n      swap2\n      pop\n      pop\n      jump\t// out\n        /* \"#utility.yul\":5131:5300   */\n    tag_163:\n        /* \"#utility.yul\":5215:5226   */\n      0x00\n        /* \"#utility.yul\":5249:5255   */\n      dup3\n        /* \"#utility.yul\":5244:5247   */\n      dup3\n        /* \"#utility.yul\":5237:5256   */\n      mstore\n        /* \"#utility.yul\":5289:5293   */\n      0x20\n        /* \"#utility.yul\":5284:5287   */\n      dup3\n        /* \"#utility.yul\":5280:5294   */\n      add\n        /* \"#utility.yul\":5265:5294   */\n      swap1\n      pop\n        /* \"#utility.yul\":5131:5300   */\n      swap3\n      swap2\n      pop\n      pop\n      jump\t// out\n        /* \"#utility.yul\":5306:5460   */\n    tag_164:\n        /* \"#utility.yul\":5390:5396   */\n      dup3\n        /* \"#utility.yul\":5385:5388   */\n      dup2\n        /* \"#utility.yul\":5380:5383   */\n      dup4\n        /* \"#utility.yul\":5367:5397   */\n      calldatacopy\n        /* \"#utility.yul\":5452:5453   */\n      0x00\n        /* \"#utility.yul\":5443:5449   */\n      dup4\n        /* \"#utility.yul\":5438:5441   */\n      dup4\n        /* \"#utility.yul\":5434:5450   */\n      add\n        /* \"#utility.yul\":5427:5454   */\n      mstore\n        /* \"#utility.yul\":5306:5460   */\n      pop\n      pop\n      pop\n      jump\t// out\n        /* \"#utility.yul\":5466:5568   */\n    tag_165:\n        /* \"#utility.yul\":5507:5513   */\n      0x00\n        /* \"#utility.yul\":5558:5560   */\n      0x1f\n        /* \"#utility.yul\":5554:5561   */\n      not\n        /* \"#utility.yul\":5549:5551   */\n      0x1f\n        /* \"#utility.yul\":5542:5547   */\n      dup4\n        /* \"#utility.yul\":5538:5552   */\n      add\n        /* \"#utility.yul\":5534:5562   */\n      and\n        /* \"#utility.yul\":5524:5562   */\n      swap1\n      pop\n        /* \"#utility.yul\":5466:5568   */\n      swap2\n      swap1\n      pop\n      jump\t// out\n        /* \"#utility.yul\":5598:5902   */\n    tag_166:\n        /* \"#utility.yul\":5696:5699   */\n      0x00\n        /* \"#utility.yul\":5717:5788   */\n      tag_251\n        /* \"#utility.yul\":5781:5787   */\n      dup4\n        /* \"#utility.yul\":5776:5779   */\n      dup6\n        /* \"#utility.yul\":5717:5788   */\n      tag_163\n      jump\t// in\n    tag_251:\n        /* \"#utility.yul\":5710:5788   */\n      swap4\n      pop\n        /* \"#utility.yul\":5798:5841   */\n      tag_252\n        /* \"#utility.yul\":5834:5840   */\n      dup4\n        /* \"#utility.yul\":5829:5832   */\n      dup6\n        /* \"#utility.yul\":5822:5827   */\n      dup5\n        /* \"#utility.yul\":5798:5841   */\n      tag_164\n      jump\t// in\n    tag_252:\n        /* \"#utility.yul\":5866:5895   */\n      tag_253\n        /* \"#utility.yul\":5888:5894   */\n      dup4\n        /* \"#utility.yul\":5866:5895   */\n      tag_165\n      jump\t// in\n    tag_253:\n        /* \"#utility.yul\":5861:5864   */\n      dup5\n        /* \"#utility.yul\":5857:5896   */\n      add\n        /* \"#utility.yul\":5850:5896   */\n      swap1\n      pop\n        /* \"#utility.yul\":5598:5902   */\n      swap4\n      swap3\n      pop\n      pop\n      pop\n      jump\t// out\n        /* \"#utility.yul\":5908:6351   */\n    tag_46:\n        /* \"#utility.yul\":6059:6063   */\n      0x00\n        /* \"#utility.yul\":6097:6099   */\n      0x40\n        /* \"#utility.yul\":6086:6095   */\n      dup3\n        /* \"#utility.yul\":6082:6100   */\n      add\n        /* \"#utility.yul\":6074:6100   */\n      swap1\n      pop\n        /* \"#utility.yul\":6146:6155   */\n      dup2\n        /* \"#utility.yul\":6140:6144   */\n      dup2\n        /* \"#utility.yul\":6136:6156   */\n      sub\n        /* \"#utility.yul\":6132:6133   */\n      0x00\n        /* \"#utility.yul\":6121:6130   */\n      dup4\n        /* \"#utility.yul\":6117:6134   */\n      add\n        /* \"#utility.yul\":6110:6157   */\n      mstore\n        /* \"#utility.yul\":6174:6262   */\n      tag_255\n        /* \"#utility.yul\":6257:6261   */\n      dup2\n        /* \"#utility.yul\":6248:6254   */\n      dup6\n        /* \"#utility.yul\":6240:6246   */\n      dup8\n        /* \"#utility.yul\":6174:6262   */\n      tag_166\n      jump\t// in\n    tag_255:\n        /* \"#utility.yul\":6166:6262   */\n      swap1\n      pop\n        /* \"#utility.yul\":6272:6344   */\n      tag_256\n        /* \"#utility.yul\":6340:6342   */\n      0x20\n        /* \"#utility.yul\":6329:6338   */\n      dup4\n        /* \"#utility.yul\":6325:6343   */\n      add\n        /* \"#utility.yul\":6316:6322   */\n      dup5\n        /* \"#utility.yul\":6272:6344   */\n      tag_162\n      jump\t// in\n    tag_256:\n        /* \"#utility.yul\":5908:6351   */\n      swap5\n      swap4\n      pop\n      pop\n      pop\n      pop\n      jump\t// out\n        /* \"#utility.yul\":6357:6537   */\n    tag_53:\n        /* \"#utility.yul\":6405:6482   */\n      0x4e487b7100000000000000000000000000000000000000000000000000000000\n        /* \"#utility.yul\":6402:6403   */\n      0x00\n        /* \"#utility.yul\":6395:6483   */\n      mstore\n        /* \"#utility.yul\":6502:6506   */\n      0x21\n        /* \"#utility.yul\":6499:6500   */\n      0x04\n        /* \"#utility.yul\":6492:6507   */\n      mstore\n        /* \"#utility.yul\":6526:6530   */\n      0x24\n        /* \"#utility.yul\":6523:6524   */\n      0x00\n        /* \"#utility.yul\":6516:6531   */\n      revert\n        /* \"#utility.yul\":6543:6658   */\n    tag_167:\n        /* \"#utility.yul\":6626:6627   */\n      0x03\n        /* \"#utility.yul\":6619:6624   */\n      dup2\n        /* \"#utility.yul\":6616:6628   */\n      lt\n        /* \"#utility.yul\":6606:6652   */\n      tag_259\n      jumpi\n        /* \"#utility.yul\":6632:6650   */\n      tag_260\n      tag_53\n      jump\t// in\n    tag_260:\n        /* \"#utility.yul\":6606:6652   */\n    tag_259:\n        /* \"#utility.yul\":6543:6658   */\n      pop\n      jump\t// out\n        /* \"#utility.yul\":6664:6795   */\n    tag_168:\n        /* \"#utility.yul\":6711:6718   */\n      0x00\n        /* \"#utility.yul\":6740:6745   */\n      dup2\n        /* \"#utility.yul\":6729:6745   */\n      swap1\n      pop\n        /* \"#utility.yul\":6746:6789   */\n      tag_262\n        /* \"#utility.yul\":6783:6788   */\n      dup3\n        /* \"#utility.yul\":6746:6789   */\n      tag_167\n      jump\t// in\n    tag_262:\n        /* \"#utility.yul\":6664:6795   */\n      swap2\n      swap1\n      pop\n      jump\t// out\n        /* \"#utility.yul\":6801:6932   */\n    tag_169:\n        /* \"#utility.yul\":6859:6868   */\n      0x00\n        /* \"#utility.yul\":6892:6926   */\n      tag_264\n        /* \"#utility.yul\":6920:6925   */\n      dup3\n        /* \"#utility.yul\":6892:6926   */\n      tag_168\n      jump\t// in\n    tag_264:\n        /* \"#utility.yul\":6879:6926   */\n      swap1\n      pop\n        /* \"#utility.yul\":6801:6932   */\n      swap2\n      swap1\n      pop\n      jump\t// out\n        /* \"#utility.yul\":6938:7085   */\n    tag_170:\n        /* \"#utility.yul\":7033:7078   */\n      tag_266\n        /* \"#utility.yul\":7072:7077   */\n      dup2\n        /* \"#utility.yul\":7033:7078   */\n      tag_169\n      jump\t// in\n    tag_266:\n        /* \"#utility.yul\":7028:7031   */\n      dup3\n        /* \"#utility.yul\":7021:7079   */\n      mstore\n        /* \"#utility.yul\":6938:7085   */\n      pop\n      pop\n      jump\t// out\n        /* \"#utility.yul\":7091:7439   */\n    tag_57:\n        /* \"#utility.yul\":7220:7224   */\n      0x00\n        /* \"#utility.yul\":7258:7260   */\n      0x40\n        /* \"#utility.yul\":7247:7256   */\n      dup3\n        /* \"#utility.yul\":7243:7261   */\n      add\n        /* \"#utility.yul\":7235:7261   */\n      swap1\n      pop\n        /* \"#utility.yul\":7271:7350   */\n      tag_268\n        /* \"#utility.yul\":7347:7348   */\n      0x00\n        /* \"#utility.yul\":7336:7345   */\n      dup4\n        /* \"#utility.yul\":7332:7349   */\n      add\n        /* \"#utility.yul\":7323:7329   */\n      dup6\n        /* \"#utility.yul\":7271:7350   */\n      tag_170\n      jump\t// in\n    tag_268:\n        /* \"#utility.yul\":7360:7432   */\n      tag_269\n        /* \"#utility.yul\":7428:7430   */\n      0x20\n        /* \"#utility.yul\":7417:7426   */\n      dup4\n        /* \"#utility.yul\":7413:7431   */\n      add\n        /* \"#utility.yul\":7404:7410   */\n      dup5\n        /* \"#utility.yul\":7360:7432   */\n      tag_162\n      jump\t// in\n    tag_269:\n        /* \"#utility.yul\":7091:7439   */\n      swap4\n      swap3\n      pop\n      pop\n      pop\n      jump\t// out\n        /* \"#utility.yul\":7445:7679   */\n    tag_171:\n        /* \"#utility.yul\":7585:7619   */\n      0x596f7520617265206e6f74207468652074656163686572206f66207468697320\n        /* \"#utility.yul\":7581:7582   */\n      0x00\n        /* \"#utility.yul\":7573:7579   */\n      dup3\n        /* \"#utility.yul\":7569:7583   */\n      add\n        /* \"#utility.yul\":7562:7620   */\n      mstore\n        /* \"#utility.yul\":7654:7671   */\n      0x73747564656e7420636f757273652e0000000000000000000000000000000000\n        /* \"#utility.yul\":7649:7651   */\n      0x20\n        /* \"#utility.yul\":7641:7647   */\n      dup3\n        /* \"#utility.yul\":7637:7652   */\n      add\n        /* \"#utility.yul\":7630:7672   */\n      mstore\n        /* \"#utility.yul\":7445:7679   */\n      pop\n      jump\t// out\n        /* \"#utility.yul\":7685:8051   */\n    tag_172:\n        /* \"#utility.yul\":7827:7830   */\n      0x00\n        /* \"#utility.yul\":7848:7915   */\n      tag_272\n        /* \"#utility.yul\":7912:7914   */\n      0x2f\n        /* \"#utility.yul\":7907:7910   */\n      dup4\n        /* \"#utility.yul\":7848:7915   */\n      tag_163\n      jump\t// in\n    tag_272:\n        /* \"#utility.yul\":7841:7915   */\n      swap2\n      pop\n        /* \"#utility.yul\":7924:8017   */\n      tag_273\n        /* \"#utility.yul\":8013:8016   */\n      dup3\n        /* \"#utility.yul\":7924:8017   */\n      tag_171\n      jump\t// in\n    tag_273:\n        /* \"#utility.yul\":8042:8044   */\n      0x40\n        /* \"#utility.yul\":8037:8040   */\n      dup3\n        /* \"#utility.yul\":8033:8045   */\n      add\n        /* \"#utility.yul\":8026:8045   */\n      swap1\n      pop\n        /* \"#utility.yul\":7685:8051   */\n      swap2\n      swap1\n      pop\n      jump\t// out\n        /* \"#utility.yul\":8057:8476   */\n    tag_67:\n        /* \"#utility.yul\":8223:8227   */\n      0x00\n        /* \"#utility.yul\":8261:8263   */\n      0x20\n        /* \"#utility.yul\":8250:8259   */\n      dup3\n        /* \"#utility.yul\":8246:8264   */\n      add\n        /* \"#utility.yul\":8238:8264   */\n      swap1\n      pop\n        /* \"#utility.yul\":8310:8319   */\n      dup2\n        /* \"#utility.yul\":8304:8308   */\n      dup2\n        /* \"#utility.yul\":8300:8320   */\n      sub\n        /* \"#utility.yul\":8296:8297   */\n      0x00\n        /* \"#utility.yul\":8285:8294   */\n      dup4\n        /* \"#utility.yul\":8281:8298   */\n      add\n        /* \"#utility.yul\":8274:8321   */\n      mstore\n        /* \"#utility.yul\":8338:8469   */\n      tag_275\n        /* \"#utility.yul\":8464:8468   */\n      dup2\n        /* \"#utility.yul\":8338:8469   */\n      tag_172\n      jump\t// in\n    tag_275:\n        /* \"#utility.yul\":8330:8469   */\n      swap1\n      pop\n        /* \"#utility.yul\":8057:8476   */\n      swap2\n      swap1\n      pop\n      jump\t// out\n        /* \"#utility.yul\":8482:8662   */\n    tag_75:\n        /* \"#utility.yul\":8530:8607   */\n      0x4e487b7100000000000000000000000000000000000000000000000000000000\n        /* \"#utility.yul\":8527:8528   */\n      0x00\n        /* \"#utility.yul\":8520:8608   */\n      mstore\n        /* \"#utility.yul\":8627:8631   */\n      0x32\n        /* \"#utility.yul\":8624:8625   */\n      0x04\n        /* \"#utility.yul\":8617:8632   */\n      mstore\n        /* \"#utility.yul\":8651:8655   */\n      0x24\n        /* \"#utility.yul\":8648:8649   */\n      0x00\n        /* \"#utility.yul\":8641:8656   */\n      revert\n        /* \"#utility.yul\":8668:8845   */\n    tag_173:\n        /* \"#utility.yul\":8808:8837   */\n      0x436f75727365207479706520646f6573206e6f742065786973742e0000000000\n        /* \"#utility.yul\":8804:8805   */\n      0x00\n        /* \"#utility.yul\":8796:8802   */\n      dup3\n        /* \"#utility.yul\":8792:8806   */\n      add\n        /* \"#utility.yul\":8785:8838   */\n      mstore\n        /* \"#utility.yul\":8668:8845   */\n      pop\n      jump\t// out\n        /* \"#utility.yul\":8851:9217   */\n    tag_174:\n        /* \"#utility.yul\":8993:8996   */\n      0x00\n        /* \"#utility.yul\":9014:9081   */\n      tag_279\n        /* \"#utility.yul\":9078:9080   */\n      0x1b\n        /* \"#utility.yul\":9073:9076   */\n      dup4\n        /* \"#utility.yul\":9014:9081   */\n      tag_163\n      jump\t// in\n    tag_279:\n        /* \"#utility.yul\":9007:9081   */\n      swap2\n      pop\n        /* \"#utility.yul\":9090:9183   */\n      tag_280\n        /* \"#utility.yul\":9179:9182   */\n      dup3\n        /* \"#utility.yul\":9090:9183   */\n      tag_173\n      jump\t// in\n    tag_280:\n        /* \"#utility.yul\":9208:9210   */\n      0x20\n        /* \"#utility.yul\":9203:9206   */\n      dup3\n        /* \"#utility.yul\":9199:9211   */\n      add\n        /* \"#utility.yul\":9192:9211   */\n      swap1\n      pop\n        /* \"#utility.yul\":8851:9217   */\n      swap2\n      swap1\n      pop\n      jump\t// out\n        /* \"#utility.yul\":9223:9642   */\n    tag_97:\n        /* \"#utility.yul\":9389:9393   */\n      0x00\n        /* \"#utility.yul\":9427:9429   */\n      0x20\n        /* \"#utility.yul\":9416:9425   */\n      dup3\n        /* \"#utility.yul\":9412:9430   */\n      add\n        /* \"#utility.yul\":9404:9430   */\n      swap1\n      pop\n        /* \"#utility.yul\":9476:9485   */\n      dup2\n        /* \"#utility.yul\":9470:9474   */\n      dup2\n        /* \"#utility.yul\":9466:9486   */\n      sub\n        /* \"#utility.yul\":9462:9463   */\n      0x00\n        /* \"#utility.yul\":9451:9460   */\n      dup4\n        /* \"#utility.yul\":9447:9464   */\n      add\n        /* \"#utility.yul\":9440:9487   */\n      mstore\n        /* \"#utility.yul\":9504:9635   */\n      tag_282\n        /* \"#utility.yul\":9630:9634   */\n      dup2\n        /* \"#utility.yul\":9504:9635   */\n      tag_174\n      jump\t// in\n    tag_282:\n        /* \"#utility.yul\":9496:9635   */\n      swap1\n      pop\n        /* \"#utility.yul\":9223:9642   */\n      swap2\n      swap1\n      pop\n      jump\t// out\n        /* \"#utility.yul\":9648:9873   */\n    tag_175:\n        /* \"#utility.yul\":9788:9822   */\n      0x4f776e61626c653a206e6577206f776e657220697320746865207a65726f2061\n        /* \"#utility.yul\":9784:9785   */\n      0x00\n        /* \"#utility.yul\":9776:9782   */\n      dup3\n        /* \"#utility.yul\":9772:9786   */\n      add\n        /* \"#utility.yul\":9765:9823   */\n      mstore\n        /* \"#utility.yul\":9857:9865   */\n      0x6464726573730000000000000000000000000000000000000000000000000000\n        /* \"#utility.yul\":9852:9854   */\n      0x20\n        /* \"#utility.yul\":9844:9850   */\n      dup3\n        /* \"#utility.yul\":9840:9855   */\n      add\n        /* \"#utility.yul\":9833:9866   */\n      mstore\n        /* \"#utility.yul\":9648:9873   */\n      pop\n      jump\t// out\n        /* \"#utility.yul\":9879:10245   */\n    tag_176:\n        /* \"#utility.yul\":10021:10024   */\n      0x00\n        /* \"#utility.yul\":10042:10109   */\n      tag_285\n        /* \"#utility.yul\":10106:10108   */\n      0x26\n        /* \"#utility.yul\":10101:10104   */\n      dup4\n        /* \"#utility.yul\":10042:10109   */\n      tag_163\n      jump\t// in\n    tag_285:\n        /* \"#utility.yul\":10035:10109   */\n      swap2\n      pop\n        /* \"#utility.yul\":10118:10211   */\n      tag_286\n        /* \"#utility.yul\":10207:10210   */\n      dup3\n        /* \"#utility.yul\":10118:10211   */\n      tag_175\n      jump\t// in\n    tag_286:\n        /* \"#utility.yul\":10236:10238   */\n      0x40\n        /* \"#utility.yul\":10231:10234   */\n      dup3\n        /* \"#utility.yul\":10227:10239   */\n      add\n        /* \"#utility.yul\":10220:10239   */\n      swap1\n      pop\n        /* \"#utility.yul\":9879:10245   */\n      swap2\n      swap1\n      pop\n      jump\t// out\n        /* \"#utility.yul\":10251:10670   */\n    tag_110:\n        /* \"#utility.yul\":10417:10421   */\n      0x00\n        /* \"#utility.yul\":10455:10457   */\n      0x20\n        /* \"#utility.yul\":10444:10453   */\n      dup3\n        /* \"#utility.yul\":10440:10458   */\n      add\n        /* \"#utility.yul\":10432:10458   */\n      swap1\n      pop\n        /* \"#utility.yul\":10504:10513   */\n      dup2\n        /* \"#utility.yul\":10498:10502   */\n      dup2\n        /* \"#utility.yul\":10494:10514   */\n      sub\n        /* \"#utility.yul\":10490:10491   */\n      0x00\n        /* \"#utility.yul\":10479:10488   */\n      dup4\n        /* \"#utility.yul\":10475:10492   */\n      add\n        /* \"#utility.yul\":10468:10515   */\n      mstore\n        /* \"#utility.yul\":10532:10663   */\n      tag_288\n        /* \"#utility.yul\":10658:10662   */\n      dup2\n        /* \"#utility.yul\":10532:10663   */\n      tag_176\n      jump\t// in\n    tag_288:\n        /* \"#utility.yul\":10524:10663   */\n      swap1\n      pop\n        /* \"#utility.yul\":10251:10670   */\n      swap2\n      swap1\n      pop\n      jump\t// out\n        /* \"#utility.yul\":10676:10858   */\n    tag_177:\n        /* \"#utility.yul\":10816:10850   */\n      0x4f776e61626c653a2063616c6c6572206973206e6f7420746865206f776e6572\n        /* \"#utility.yul\":10812:10813   */\n      0x00\n        /* \"#utility.yul\":10804:10810   */\n      dup3\n        /* \"#utility.yul\":10800:10814   */\n      add\n        /* \"#utility.yul\":10793:10851   */\n      mstore\n        /* \"#utility.yul\":10676:10858   */\n      pop\n      jump\t// out\n        /* \"#utility.yul\":10864:11230   */\n    tag_178:\n        /* \"#utility.yul\":11006:11009   */\n      0x00\n        /* \"#utility.yul\":11027:11094   */\n      tag_291\n        /* \"#utility.yul\":11091:11093   */\n      0x20\n        /* \"#utility.yul\":11086:11089   */\n      dup4\n        /* \"#utility.yul\":11027:11094   */\n      tag_163\n      jump\t// in\n    tag_291:\n        /* \"#utility.yul\":11020:11094   */\n      swap2\n      pop\n        /* \"#utility.yul\":11103:11196   */\n      tag_292\n        /* \"#utility.yul\":11192:11195   */\n      dup3\n        /* \"#utility.yul\":11103:11196   */\n      tag_177\n      jump\t// in\n    tag_292:\n        /* \"#utility.yul\":11221:11223   */\n      0x20\n        /* \"#utility.yul\":11216:11219   */\n      dup3\n        /* \"#utility.yul\":11212:11224   */\n      add\n        /* \"#utility.yul\":11205:11224   */\n      swap1\n      pop\n        /* \"#utility.yul\":10864:11230   */\n      swap2\n      swap1\n      pop\n      jump\t// out\n        /* \"#utility.yul\":11236:11655   */\n    tag_118:\n        /* \"#utility.yul\":11402:11406   */\n      0x00\n        /* \"#utility.yul\":11440:11442   */\n      0x20\n        /* \"#utility.yul\":11429:11438   */\n      dup3\n        /* \"#utility.yul\":11425:11443   */\n      add\n        /* \"#utility.yul\":11417:11443   */\n      swap1\n      pop\n        /* \"#utility.yul\":11489:11498   */\n      dup2\n        /* \"#utility.yul\":11483:11487   */\n      dup2\n        /* \"#utility.yul\":11479:11499   */\n      sub\n        /* \"#utility.yul\":11475:11476   */\n      0x00\n        /* \"#utility.yul\":11464:11473   */\n      dup4\n        /* \"#utility.yul\":11460:11477   */\n      add\n        /* \"#utility.yul\":11453:11500   */\n      mstore\n        /* \"#utility.yul\":11517:11648   */\n      tag_294\n        /* \"#utility.yul\":11643:11647   */\n      dup2\n        /* \"#utility.yul\":11517:11648   */\n      tag_178\n      jump\t// in\n    tag_294:\n        /* \"#utility.yul\":11509:11648   */\n      swap1\n      pop\n        /* \"#utility.yul\":11236:11655   */\n      swap2\n      swap1\n      pop\n      jump\t// out\n        /* \"#utility.yul\":11661:11760   */\n    tag_179:\n        /* \"#utility.yul\":11713:11719   */\n      0x00\n        /* \"#utility.yul\":11747:11752   */\n      dup2\n        /* \"#utility.yul\":11741:11753   */\n      mload\n        /* \"#utility.yul\":11731:11753   */\n      swap1\n      pop\n        /* \"#utility.yul\":11661:11760   */\n      swap2\n      swap1\n      pop\n      jump\t// out\n        /* \"#utility.yul\":11766:11914   */\n    tag_180:\n        /* \"#utility.yul\":11868:11879   */\n      0x00\n        /* \"#utility.yul\":11905:11908   */\n      dup2\n        /* \"#utility.yul\":11890:11908   */\n      swap1\n      pop\n        /* \"#utility.yul\":11766:11914   */\n      swap3\n      swap2\n      pop\n      pop\n      jump\t// out\n        /* \"#utility.yul\":11920:12227   */\n    tag_181:\n        /* \"#utility.yul\":11988:11989   */\n      0x00\n        /* \"#utility.yul\":11998:12111   */\n    tag_298:\n        /* \"#utility.yul\":12012:12018   */\n      dup4\n        /* \"#utility.yul\":12009:12010   */\n      dup2\n        /* \"#utility.yul\":12006:12019   */\n      lt\n        /* \"#utility.yul\":11998:12111   */\n      iszero\n      tag_300\n      jumpi\n        /* \"#utility.yul\":12097:12098   */\n      dup1\n        /* \"#utility.yul\":12092:12095   */\n      dup3\n        /* \"#utility.yul\":12088:12099   */\n      add\n        /* \"#utility.yul\":12082:12100   */\n      mload\n        /* \"#utility.yul\":12078:12079   */\n      dup2\n        /* \"#utility.yul\":12073:12076   */\n      dup5\n        /* \"#utility.yul\":12069:12080   */\n      add\n        /* \"#utility.yul\":12062:12101   */\n      mstore\n        /* \"#utility.yul\":12034:12036   */\n      0x20\n        /* \"#utility.yul\":12031:12032   */\n      dup2\n        /* \"#utility.yul\":12027:12037   */\n      add\n        /* \"#utility.yul\":12022:12037   */\n      swap1\n      pop\n        /* \"#utility.yul\":11998:12111   */\n      jump(tag_298)\n    tag_300:\n        /* \"#utility.yul\":12129:12135   */\n      dup4\n        /* \"#utility.yul\":12126:12127   */\n      dup2\n        /* \"#utility.yul\":12123:12136   */\n      gt\n        /* \"#utility.yul\":12120:12221   */\n      iszero\n      tag_301\n      jumpi\n        /* \"#utility.yul\":12209:12210   */\n      0x00\n        /* \"#utility.yul\":12200:12206   */\n      dup5\n        /* \"#utility.yul\":12195:12198   */\n      dup5\n        /* \"#utility.yul\":12191:12207   */\n      add\n        /* \"#utility.yul\":12184:12211   */\n      mstore\n        /* \"#utility.yul\":12120:12221   */\n    tag_301:\n        /* \"#utility.yul\":11969:12227   */\n      pop\n        /* \"#utility.yul\":11920:12227   */\n      pop\n      pop\n      pop\n      jump\t// out\n        /* \"#utility.yul\":12233:12610   */\n    tag_182:\n        /* \"#utility.yul\":12339:12342   */\n      0x00\n        /* \"#utility.yul\":12367:12406   */\n      tag_303\n        /* \"#utility.yul\":12400:12405   */\n      dup3\n        /* \"#utility.yul\":12367:12406   */\n      tag_179\n      jump\t// in\n    tag_303:\n        /* \"#utility.yul\":12422:12511   */\n      tag_304\n        /* \"#utility.yul\":12504:12510   */\n      dup2\n        /* \"#utility.yul\":12499:12502   */\n      dup6\n        /* \"#utility.yul\":12422:12511   */\n      tag_180\n      jump\t// in\n    tag_304:\n        /* \"#utility.yul\":12415:12511   */\n      swap4\n      pop\n        /* \"#utility.yul\":12520:12572   */\n      tag_305\n        /* \"#utility.yul\":12565:12571   */\n      dup2\n        /* \"#utility.yul\":12560:12563   */\n      dup6\n        /* \"#utility.yul\":12553:12557   */\n      0x20\n        /* \"#utility.yul\":12546:12551   */\n      dup7\n        /* \"#utility.yul\":12542:12558   */\n      add\n        /* \"#utility.yul\":12520:12572   */\n      tag_181\n      jump\t// in\n    tag_305:\n        /* \"#utility.yul\":12597:12603   */\n      dup1\n        /* \"#utility.yul\":12592:12595   */\n      dup5\n        /* \"#utility.yul\":12588:12604   */\n      add\n        /* \"#utility.yul\":12581:12604   */\n      swap2\n      pop\n        /* \"#utility.yul\":12343:12610   */\n      pop\n        /* \"#utility.yul\":12233:12610   */\n      swap3\n      swap2\n      pop\n      pop\n      jump\t// out\n        /* \"#utility.yul\":12616:12891   */\n    tag_124:\n        /* \"#utility.yul\":12748:12751   */\n      0x00\n        /* \"#utility.yul\":12770:12865   */\n      tag_307\n        /* \"#utility.yul\":12861:12864   */\n      dup3\n        /* \"#utility.yul\":12852:12858   */\n      dup5\n        /* \"#utility.yul\":12770:12865   */\n      tag_182\n      jump\t// in\n    tag_307:\n        /* \"#utility.yul\":12763:12865   */\n      swap2\n      pop\n        /* \"#utility.yul\":12882:12885   */\n      dup2\n        /* \"#utility.yul\":12875:12885   */\n      swap1\n      pop\n        /* \"#utility.yul\":12616:12891   */\n      swap3\n      swap2\n      pop\n      pop\n      jump\t// out\n        /* \"#utility.yul\":12897:13077   */\n    tag_183:\n        /* \"#utility.yul\":12945:13022   */\n      0x4e487b7100000000000000000000000000000000000000000000000000000000\n        /* \"#utility.yul\":12942:12943   */\n      0x00\n        /* \"#utility.yul\":12935:13023   */\n      mstore\n        /* \"#utility.yul\":13042:13046   */\n      0x22\n        /* \"#utility.yul\":13039:13040   */\n      0x04\n        /* \"#utility.yul\":13032:13047   */\n      mstore\n        /* \"#utility.yul\":13066:13070   */\n      0x24\n        /* \"#utility.yul\":13063:13064   */\n      0x00\n        /* \"#utility.yul\":13056:13071   */\n      revert\n        /* \"#utility.yul\":13083:13403   */\n    tag_136:\n        /* \"#utility.yul\":13127:13133   */\n      0x00\n        /* \"#utility.yul\":13164:13165   */\n      0x02\n        /* \"#utility.yul\":13158:13162   */\n      dup3\n        /* \"#utility.yul\":13154:13166   */\n      div\n        /* \"#utility.yul\":13144:13166   */\n      swap1\n      pop\n        /* \"#utility.yul\":13211:13212   */\n      0x01\n        /* \"#utility.yul\":13205:13209   */\n      dup3\n        /* \"#utility.yul\":13201:13213   */\n      and\n        /* \"#utility.yul\":13232:13250   */\n      dup1\n        /* \"#utility.yul\":13222:13303   */\n      tag_310\n      jumpi\n        /* \"#utility.yul\":13288:13292   */\n      0x7f\n        /* \"#utility.yul\":13280:13286   */\n      dup3\n        /* \"#utility.yul\":13276:13293   */\n      and\n        /* \"#utility.yul\":13266:13293   */\n      swap2\n      pop\n        /* \"#utility.yul\":13222:13303   */\n    tag_310:\n        /* \"#utility.yul\":13350:13352   */\n      0x20\n        /* \"#utility.yul\":13342:13348   */\n      dup3\n        /* \"#utility.yul\":13339:13353   */\n      lt\n        /* \"#utility.yul\":13319:13337   */\n      dup2\n        /* \"#utility.yul\":13316:13354   */\n      sub\n        /* \"#utility.yul\":13313:13397   */\n      tag_311\n      jumpi\n        /* \"#utility.yul\":13369:13387   */\n      tag_312\n      tag_183\n      jump\t// in\n    tag_312:\n        /* \"#utility.yul\":13313:13397   */\n    tag_311:\n        /* \"#utility.yul\":13134:13403   */\n      pop\n        /* \"#utility.yul\":13083:13403   */\n      swap2\n      swap1\n      pop\n      jump\t// out\n        /* \"#utility.yul\":13409:13550   */\n    tag_184:\n        /* \"#utility.yul\":13458:13462   */\n      0x00\n        /* \"#utility.yul\":13481:13484   */\n      dup2\n        /* \"#utility.yul\":13473:13484   */\n      swap1\n      pop\n        /* \"#utility.yul\":13504:13507   */\n      dup2\n        /* \"#utility.yul\":13501:13502   */\n      0x00\n        /* \"#utility.yul\":13494:13508   */\n      mstore\n        /* \"#utility.yul\":13538:13542   */\n      0x20\n        /* \"#utility.yul\":13535:13536   */\n      0x00\n        /* \"#utility.yul\":13525:13543   */\n      keccak256\n        /* \"#utility.yul\":13517:13543   */\n      swap1\n      pop\n        /* \"#utility.yul\":13409:13550   */\n      swap2\n      swap1\n      pop\n      jump\t// out\n        /* \"#utility.yul\":13580:14425   */\n    tag_185:\n        /* \"#utility.yul\":13683:13686   */\n      0x00\n        /* \"#utility.yul\":13720:13725   */\n      dup2\n        /* \"#utility.yul\":13714:13726   */\n      sload\n        /* \"#utility.yul\":13749:13785   */\n      tag_315\n        /* \"#utility.yul\":13775:13784   */\n      dup2\n        /* \"#utility.yul\":13749:13785   */\n      tag_136\n      jump\t// in\n    tag_315:\n        /* \"#utility.yul\":13801:13890   */\n      tag_316\n        /* \"#utility.yul\":13883:13889   */\n      dup2\n        /* \"#utility.yul\":13878:13881   */\n      dup7\n        /* \"#utility.yul\":13801:13890   */\n      tag_180\n      jump\t// in\n    tag_316:\n        /* \"#utility.yul\":13794:13890   */\n      swap5\n      pop\n        /* \"#utility.yul\":13921:13922   */\n      0x01\n        /* \"#utility.yul\":13910:13919   */\n      dup3\n        /* \"#utility.yul\":13906:13923   */\n      and\n        /* \"#utility.yul\":13937:13938   */\n      0x00\n        /* \"#utility.yul\":13932:14069   */\n      dup2\n      eq\n      tag_318\n      jumpi\n        /* \"#utility.yul\":14083:14084   */\n      0x01\n        /* \"#utility.yul\":14078:14419   */\n      dup2\n      eq\n      tag_319\n      jumpi\n        /* \"#utility.yul\":13899:14419   */\n      jump(tag_317)\n        /* \"#utility.yul\":13932:14069   */\n    tag_318:\n        /* \"#utility.yul\":14016:14020   */\n      0xff\n        /* \"#utility.yul\":14012:14021   */\n      not\n        /* \"#utility.yul\":14001:14010   */\n      dup4\n        /* \"#utility.yul\":13997:14022   */\n      and\n        /* \"#utility.yul\":13992:13995   */\n      dup7\n        /* \"#utility.yul\":13985:14023   */\n      mstore\n        /* \"#utility.yul\":14052:14058   */\n      dup2\n        /* \"#utility.yul\":14047:14050   */\n      dup7\n        /* \"#utility.yul\":14043:14059   */\n      add\n        /* \"#utility.yul\":14036:14059   */\n      swap4\n      pop\n        /* \"#utility.yul\":13932:14069   */\n      jump(tag_317)\n        /* \"#utility.yul\":14078:14419   */\n    tag_319:\n        /* \"#utility.yul\":14145:14183   */\n      tag_320\n        /* \"#utility.yul\":14177:14182   */\n      dup6\n        /* \"#utility.yul\":14145:14183   */\n      tag_184\n      jump\t// in\n    tag_320:\n        /* \"#utility.yul\":14205:14206   */\n      0x00\n        /* \"#utility.yul\":14219:14373   */\n    tag_321:\n        /* \"#utility.yul\":14233:14239   */\n      dup4\n        /* \"#utility.yul\":14230:14231   */\n      dup2\n        /* \"#utility.yul\":14227:14240   */\n      lt\n        /* \"#utility.yul\":14219:14373   */\n      iszero\n      tag_323\n      jumpi\n        /* \"#utility.yul\":14307:14314   */\n      dup2\n        /* \"#utility.yul\":14301:14315   */\n      sload\n        /* \"#utility.yul\":14297:14298   */\n      dup2\n        /* \"#utility.yul\":14292:14295   */\n      dup10\n        /* \"#utility.yul\":14288:14299   */\n      add\n        /* \"#utility.yul\":14281:14316   */\n      mstore\n        /* \"#utility.yul\":14357:14358   */\n      0x01\n        /* \"#utility.yul\":14348:14355   */\n      dup3\n        /* \"#utility.yul\":14344:14359   */\n      add\n        /* \"#utility.yul\":14333:14359   */\n      swap2\n      pop\n        /* \"#utility.yul\":14255:14259   */\n      0x20\n        /* \"#utility.yul\":14252:14253   */\n      dup2\n        /* \"#utility.yul\":14248:14260   */\n      add\n        /* \"#utility.yul\":14243:14260   */\n      swap1\n      pop\n        /* \"#utility.yul\":14219:14373   */\n      jump(tag_321)\n    tag_323:\n        /* \"#utility.yul\":14402:14408   */\n      dup4\n        /* \"#utility.yul\":14397:14400   */\n      dup9\n        /* \"#utility.yul\":14393:14409   */\n      add\n        /* \"#utility.yul\":14386:14409   */\n      swap6\n      pop\n        /* \"#utility.yul\":14085:14419   */\n      pop\n      pop\n        /* \"#utility.yul\":13899:14419   */\n    tag_317:\n      pop\n        /* \"#utility.yul\":13687:14425   */\n      pop\n      pop\n        /* \"#utility.yul\":13580:14425   */\n      swap3\n      swap2\n      pop\n      pop\n      jump\t// out\n        /* \"#utility.yul\":14431:14700   */\n    tag_129:\n        /* \"#utility.yul\":14560:14563   */\n      0x00\n        /* \"#utility.yul\":14582:14674   */\n      tag_325\n        /* \"#utility.yul\":14670:14673   */\n      dup3\n        /* \"#utility.yul\":14661:14667   */\n      dup5\n        /* \"#utility.yul\":14582:14674   */\n      tag_185\n      jump\t// in\n    tag_325:\n        /* \"#utility.yul\":14575:14674   */\n      swap2\n      pop\n        /* \"#utility.yul\":14691:14694   */\n      dup2\n        /* \"#utility.yul\":14684:14694   */\n      swap1\n      pop\n        /* \"#utility.yul\":14431:14700   */\n      swap3\n      swap2\n      pop\n      pop\n      jump\t// out\n        /* \"#utility.yul\":14706:14886   */\n    tag_186:\n        /* \"#utility.yul\":14754:14831   */\n      0x4e487b7100000000000000000000000000000000000000000000000000000000\n        /* \"#utility.yul\":14751:14752   */\n      0x00\n        /* \"#utility.yul\":14744:14832   */\n      mstore\n        /* \"#utility.yul\":14851:14855   */\n      0x11\n        /* \"#utility.yul\":14848:14849   */\n      0x04\n        /* \"#utility.yul\":14841:14856   */\n      mstore\n        /* \"#utility.yul\":14875:14879   */\n      0x24\n        /* \"#utility.yul\":14872:14873   */\n      0x00\n        /* \"#utility.yul\":14865:14880   */\n      revert\n        /* \"#utility.yul\":14892:15125   */\n    tag_132:\n        /* \"#utility.yul\":14931:14934   */\n      0x00\n        /* \"#utility.yul\":14954:14978   */\n      tag_328\n        /* \"#utility.yul\":14972:14977   */\n      dup3\n        /* \"#utility.yul\":14954:14978   */\n      tag_159\n      jump\t// in\n    tag_328:\n        /* \"#utility.yul\":14945:14978   */\n      swap2\n      pop\n        /* \"#utility.yul\":15000:15066   */\n      0xffffffffffffffffffffffffffffffffffffffffffffffffffffffffffffffff\n        /* \"#utility.yul\":14993:14998   */\n      dup3\n        /* \"#utility.yul\":14990:15067   */\n      sub\n        /* \"#utility.yul\":14987:15090   */\n      tag_329\n      jumpi\n        /* \"#utility.yul\":15070:15088   */\n      tag_330\n      tag_186\n      jump\t// in\n    tag_330:\n        /* \"#utility.yul\":14987:15090   */\n    tag_329:\n        /* \"#utility.yul\":15117:15118   */\n      0x01\n        /* \"#utility.yul\":15110:15115   */\n      dup3\n        /* \"#utility.yul\":15106:15119   */\n      add\n        /* \"#utility.yul\":15099:15119   */\n      swap1\n      pop\n        /* \"#utility.yul\":14892:15125   */\n      swap2\n      swap1\n      pop\n      jump\t// out\n\n    auxdata: 0xa26469706673582212208a29afb8f96486a73074813e1a4cc3ffca3c3e64f04b9e1b44df8536ab3662d664736f6c634300080d0033\n}\n",
				"bytecode": {
					"linkReferences": {},
					"object": "608060405234801561001057600080fd5b5061002d61002261003260201b60201c565b61003a60201b60201c565b6100fe565b600033905090565b60008060009054906101000a900473ffffffffffffffffffffffffffffffffffffffff169050816000806101000a81548173ffffffffffffffffffffffffffffffffffffffff021916908373ffffffffffffffffffffffffffffffffffffffff1602179055508173ffffffffffffffffffffffffffffffffffffffff168173ffffffffffffffffffffffffffffffffffffffff167f8be0079c531659141344cd1fd0a4f28419497f9722a3daafe3b4186f6b6457e060405160405180910390a35050565b6111118061010d6000396000f3fe608060405234801561001057600080fd5b50600436106100885760003560e01c8063715018a61161005b578063715018a6146100eb5780638da5cb5b146100f5578063df3ac47614610113578063f2fde38b1461011d57610088565b806310468c2f1461008d578063241ba5c4146100a957806335d1f30d146100b35780635eb050cf146100cf575b600080fd5b6100a760048036038101906100a291906109a7565b610139565b005b6100b1610251565b005b6100cd60048036038101906100c89190610a2c565b610253565b005b6100e960048036038101906100e49190610aa2565b61030e565b005b6100f3610578565b005b6100fd61058c565b60405161010a9190610b25565b60405180910390f35b61011b6105b5565b005b61013760048036038101906101329190610b40565b6105b7565b005b61014161063a565b6002604051806080016040528085858080601f016020809104026020016040519081016040528093929190818152602001838380828437600081840152601f19601f82011690508083019250505050505050815260200160008152602001600081526020016000815250908060018154018082558091505060019003906000526020600020906004020160009091909190915060008201518160000190805190602001906101f0929190610837565b5060208201518160010155604082015181600201556060820151816003015550507ff37b44c60d951a102e1b401bcd083688102e58c75aae387ff9884aa0f9ff33dc83838360405161024493929190610bcb565b60405180910390a1505050565b565b61025b61063a565b806003600084600281111561027357610272610bfd565b5b600281111561028557610284610bfd565b5b815260200190815260200160002060006101000a81548173ffffffffffffffffffffffffffffffffffffffff021916908373ffffffffffffffffffffffffffffffffffffffff1602179055507f4c81db63b6bab09b12e49b76a90a6ca4a9cfac4a8aabcefc1f8a249f0f4e69198282604051610302929190610c74565b60405180910390a15050565b600061035d84848080601f016020809104026020016040519081016040528093929190818152602001838380828437600081840152601f19601f820116905080830192505050505050506106b8565b90506003600086600281111561037657610375610bfd565b5b600281111561038857610387610bfd565b5b815260200190815260200160002060009054906101000a900473ffffffffffffffffffffffffffffffffffffffff1673ffffffffffffffffffffffffffffffffffffffff163373ffffffffffffffffffffffffffffffffffffffff1614610424576040517f08c379a000000000000000000000000000000000000000000000000000000000815260040161041b90610d0f565b60405180910390fd5b6000600281111561043857610437610bfd565b5b85600281111561044b5761044a610bfd565b5b0361047f57816002828154811061046557610464610d2f565b5b906000526020600020906004020160010181905550610571565b60028081111561049257610491610bfd565b5b8560028111156104a5576104a4610bfd565b5b036104d95781600282815481106104bf576104be610d2f565b5b906000526020600020906004020160030181905550610570565b600160028111156104ed576104ec610bfd565b5b856002811115610500576104ff610bfd565b5b0361053457816002828154811061051a57610519610d2f565b5b90600052602060002090600402016002018190555061056f565b6040517f08c379a000000000000000000000000000000000000000000000000000000000815260040161056690610daa565b60405180910390fd5b5b5b5050505050565b61058061063a565b61058a600061076b565b565b60008060009054906101000a900473ffffffffffffffffffffffffffffffffffffffff16905090565b565b6105bf61063a565b600073ffffffffffffffffffffffffffffffffffffffff168173ffffffffffffffffffffffffffffffffffffffff160361062e576040517f08c379a000000000000000000000000000000000000000000000000000000000815260040161062590610e3c565b60405180910390fd5b6106378161076b565b50565b61064261082f565b73ffffffffffffffffffffffffffffffffffffffff1661066061058c565b73ffffffffffffffffffffffffffffffffffffffff16146106b6576040517f08c379a00000000000000000000000000000000000000000000000000000000081526004016106ad90610ea8565b60405180910390fd5b565b600080600090505b60028054905081101561076057826040516020016106de9190610f42565b604051602081830303815290604052805190602001206002828154811061070857610707610d2f565b5b9060005260206000209060040201600001604051602001610729919061104d565b604051602081830303815290604052805190602001200361074d5780915050610766565b808061075890611093565b9150506106c0565b50600090505b919050565b60008060009054906101000a900473ffffffffffffffffffffffffffffffffffffffff169050816000806101000a81548173ffffffffffffffffffffffffffffffffffffffff021916908373ffffffffffffffffffffffffffffffffffffffff1602179055508173ffffffffffffffffffffffffffffffffffffffff168173ffffffffffffffffffffffffffffffffffffffff167f8be0079c531659141344cd1fd0a4f28419497f9722a3daafe3b4186f6b6457e060405160405180910390a35050565b600033905090565b82805461084390610f88565b90600052602060002090601f01602090048101928261086557600085556108ac565b82601f1061087e57805160ff19168380011785556108ac565b828001600101855582156108ac579182015b828111156108ab578251825591602001919060010190610890565b5b5090506108b991906108bd565b5090565b5b808211156108d65760008160009055506001016108be565b5090565b600080fd5b600080fd5b600080fd5b600080fd5b600080fd5b60008083601f840112610909576109086108e4565b5b8235905067ffffffffffffffff811115610926576109256108e9565b5b602083019150836001820283011115610942576109416108ee565b5b9250929050565b600073ffffffffffffffffffffffffffffffffffffffff82169050919050565b600061097482610949565b9050919050565b61098481610969565b811461098f57600080fd5b50565b6000813590506109a18161097b565b92915050565b6000806000604084860312156109c0576109bf6108da565b5b600084013567ffffffffffffffff8111156109de576109dd6108df565b5b6109ea868287016108f3565b935093505060206109fd86828701610992565b9150509250925092565b60038110610a1457600080fd5b50565b600081359050610a2681610a07565b92915050565b60008060408385031215610a4357610a426108da565b5b6000610a5185828601610a17565b9250506020610a6285828601610992565b9150509250929050565b6000819050919050565b610a7f81610a6c565b8114610a8a57600080fd5b50565b600081359050610a9c81610a76565b92915050565b60008060008060608587031215610abc57610abb6108da565b5b6000610aca87828801610a17565b945050602085013567ffffffffffffffff811115610aeb57610aea6108df565b5b610af7878288016108f3565b93509350506040610b0a87828801610a8d565b91505092959194509250565b610b1f81610969565b82525050565b6000602082019050610b3a6000830184610b16565b92915050565b600060208284031215610b5657610b556108da565b5b6000610b6484828501610992565b91505092915050565b600082825260208201905092915050565b82818337600083830152505050565b6000601f19601f8301169050919050565b6000610baa8385610b6d565b9350610bb7838584610b7e565b610bc083610b8d565b840190509392505050565b60006040820190508181036000830152610be6818587610b9e565b9050610bf56020830184610b16565b949350505050565b7f4e487b7100000000000000000000000000000000000000000000000000000000600052602160045260246000fd5b60038110610c3d57610c3c610bfd565b5b50565b6000819050610c4e82610c2c565b919050565b6000610c5e82610c40565b9050919050565b610c6e81610c53565b82525050565b6000604082019050610c896000830185610c65565b610c966020830184610b16565b9392505050565b7f596f7520617265206e6f74207468652074656163686572206f6620746869732060008201527f73747564656e7420636f757273652e0000000000000000000000000000000000602082015250565b6000610cf9602f83610b6d565b9150610d0482610c9d565b604082019050919050565b60006020820190508181036000830152610d2881610cec565b9050919050565b7f4e487b7100000000000000000000000000000000000000000000000000000000600052603260045260246000fd5b7f436f75727365207479706520646f6573206e6f742065786973742e0000000000600082015250565b6000610d94601b83610b6d565b9150610d9f82610d5e565b602082019050919050565b60006020820190508181036000830152610dc381610d87565b9050919050565b7f4f776e61626c653a206e6577206f776e657220697320746865207a65726f206160008201527f6464726573730000000000000000000000000000000000000000000000000000602082015250565b6000610e26602683610b6d565b9150610e3182610dca565b604082019050919050565b60006020820190508181036000830152610e5581610e19565b9050919050565b7f4f776e61626c653a2063616c6c6572206973206e6f7420746865206f776e6572600082015250565b6000610e92602083610b6d565b9150610e9d82610e5c565b602082019050919050565b60006020820190508181036000830152610ec181610e85565b9050919050565b600081519050919050565b600081905092915050565b60005b83811015610efc578082015181840152602081019050610ee1565b83811115610f0b576000848401525b50505050565b6000610f1c82610ec8565b610f268185610ed3565b9350610f36818560208601610ede565b80840191505092915050565b6000610f4e8284610f11565b915081905092915050565b7f4e487b7100000000000000000000000000000000000000000000000000000000600052602260045260246000fd5b60006002820490506001821680610fa057607f821691505b602082108103610fb357610fb2610f59565b5b50919050565b60008190508160005260206000209050919050565b60008154610fdb81610f88565b610fe58186610ed3565b94506001821660008114611000576001811461101157611044565b60ff19831686528186019350611044565b61101a85610fb9565b60005b8381101561103c5781548189015260018201915060208101905061101d565b838801955050505b50505092915050565b60006110598284610fce565b915081905092915050565b7f4e487b7100000000000000000000000000000000000000000000000000000000600052601160045260246000fd5b600061109e82610a6c565b91507fffffffffffffffffffffffffffffffffffffffffffffffffffffffffffffffff82036110d0576110cf611064565b5b60018201905091905056fea26469706673582212208a29afb8f96486a73074813e1a4cc3ffca3c3e64f04b9e1b44df8536ab3662d664736f6c634300080d0033",
					"opcodes": "PUSH1 0x80 PUSH1 0x40 MSTORE CALLVALUE DUP1 ISZERO PUSH2 0x10 JUMPI PUSH1 0x0 DUP1 REVERT JUMPDEST POP PUSH2 0x2D PUSH2 0x22 PUSH2 0x32 PUSH1 0x20 SHL PUSH1 0x20 SHR JUMP JUMPDEST PUSH2 0x3A PUSH1 0x20 SHL PUSH1 0x20 SHR JUMP JUMPDEST PUSH2 0xFE JUMP JUMPDEST PUSH1 0x0 CALLER SWAP1 POP SWAP1 JUMP JUMPDEST PUSH1 0x0 DUP1 PUSH1 0x0 SWAP1 SLOAD SWAP1 PUSH2 0x100 EXP SWAP1 DIV PUSH20 0xFFFFFFFFFFFFFFFFFFFFFFFFFFFFFFFFFFFFFFFF AND SWAP1 POP DUP2 PUSH1 0x0 DUP1 PUSH2 0x100 EXP DUP2 SLOAD DUP2 PUSH20 0xFFFFFFFFFFFFFFFFFFFFFFFFFFFFFFFFFFFFFFFF MUL NOT AND SWAP1 DUP4 PUSH20 0xFFFFFFFFFFFFFFFFFFFFFFFFFFFFFFFFFFFFFFFF AND MUL OR SWAP1 SSTORE POP DUP2 PUSH20 0xFFFFFFFFFFFFFFFFFFFFFFFFFFFFFFFFFFFFFFFF AND DUP2 PUSH20 0xFFFFFFFFFFFFFFFFFFFFFFFFFFFFFFFFFFFFFFFF AND PUSH32 0x8BE0079C531659141344CD1FD0A4F28419497F9722A3DAAFE3B4186F6B6457E0 PUSH1 0x40 MLOAD PUSH1 0x40 MLOAD DUP1 SWAP2 SUB SWAP1 LOG3 POP POP JUMP JUMPDEST PUSH2 0x1111 DUP1 PUSH2 0x10D PUSH1 0x0 CODECOPY PUSH1 0x0 RETURN INVALID PUSH1 0x80 PUSH1 0x40 MSTORE CALLVALUE DUP1 ISZERO PUSH2 0x10 JUMPI PUSH1 0x0 DUP1 REVERT JUMPDEST POP PUSH1 0x4 CALLDATASIZE LT PUSH2 0x88 JUMPI PUSH1 0x0 CALLDATALOAD PUSH1 0xE0 SHR DUP1 PUSH4 0x715018A6 GT PUSH2 0x5B JUMPI DUP1 PUSH4 0x715018A6 EQ PUSH2 0xEB JUMPI DUP1 PUSH4 0x8DA5CB5B EQ PUSH2 0xF5 JUMPI DUP1 PUSH4 0xDF3AC476 EQ PUSH2 0x113 JUMPI DUP1 PUSH4 0xF2FDE38B EQ PUSH2 0x11D JUMPI PUSH2 0x88 JUMP JUMPDEST DUP1 PUSH4 0x10468C2F EQ PUSH2 0x8D JUMPI DUP1 PUSH4 0x241BA5C4 EQ PUSH2 0xA9 JUMPI DUP1 PUSH4 0x35D1F30D EQ PUSH2 0xB3 JUMPI DUP1 PUSH4 0x5EB050CF EQ PUSH2 0xCF JUMPI JUMPDEST PUSH1 0x0 DUP1 REVERT JUMPDEST PUSH2 0xA7 PUSH1 0x4 DUP1 CALLDATASIZE SUB DUP2 ADD SWAP1 PUSH2 0xA2 SWAP2 SWAP1 PUSH2 0x9A7 JUMP JUMPDEST PUSH2 0x139 JUMP JUMPDEST STOP JUMPDEST PUSH2 0xB1 PUSH2 0x251 JUMP JUMPDEST STOP JUMPDEST PUSH2 0xCD PUSH1 0x4 DUP1 CALLDATASIZE SUB DUP2 ADD SWAP1 PUSH2 0xC8 SWAP2 SWAP1 PUSH2 0xA2C JUMP JUMPDEST PUSH2 0x253 JUMP JUMPDEST STOP JUMPDEST PUSH2 0xE9 PUSH1 0x4 DUP1 CALLDATASIZE SUB DUP2 ADD SWAP1 PUSH2 0xE4 SWAP2 SWAP1 PUSH2 0xAA2 JUMP JUMPDEST PUSH2 0x30E JUMP JUMPDEST STOP JUMPDEST PUSH2 0xF3 PUSH2 0x578 JUMP JUMPDEST STOP JUMPDEST PUSH2 0xFD PUSH2 0x58C JUMP JUMPDEST PUSH1 0x40 MLOAD PUSH2 0x10A SWAP2 SWAP1 PUSH2 0xB25 JUMP JUMPDEST PUSH1 0x40 MLOAD DUP1 SWAP2 SUB SWAP1 RETURN JUMPDEST PUSH2 0x11B PUSH2 0x5B5 JUMP JUMPDEST STOP JUMPDEST PUSH2 0x137 PUSH1 0x4 DUP1 CALLDATASIZE SUB DUP2 ADD SWAP1 PUSH2 0x132 SWAP2 SWAP1 PUSH2 0xB40 JUMP JUMPDEST PUSH2 0x5B7 JUMP JUMPDEST STOP JUMPDEST PUSH2 0x141 PUSH2 0x63A JUMP JUMPDEST PUSH1 0x2 PUSH1 0x40 MLOAD DUP1 PUSH1 0x80 ADD PUSH1 0x40 MSTORE DUP1 DUP6 DUP6 DUP1 DUP1 PUSH1 0x1F ADD PUSH1 0x20 DUP1 SWAP2 DIV MUL PUSH1 0x20 ADD PUSH1 0x40 MLOAD SWAP1 DUP2 ADD PUSH1 0x40 MSTORE DUP1 SWAP4 SWAP3 SWAP2 SWAP1 DUP2 DUP2 MSTORE PUSH1 0x20 ADD DUP4 DUP4 DUP1 DUP3 DUP5 CALLDATACOPY PUSH1 0x0 DUP2 DUP5 ADD MSTORE PUSH1 0x1F NOT PUSH1 0x1F DUP3 ADD AND SWAP1 POP DUP1 DUP4 ADD SWAP3 POP POP POP POP POP POP POP DUP2 MSTORE PUSH1 0x20 ADD PUSH1 0x0 DUP2 MSTORE PUSH1 0x20 ADD PUSH1 0x0 DUP2 MSTORE PUSH1 0x20 ADD PUSH1 0x0 DUP2 MSTORE POP SWAP1 DUP1 PUSH1 0x1 DUP2 SLOAD ADD DUP1 DUP3 SSTORE DUP1 SWAP2 POP POP PUSH1 0x1 SWAP1 SUB SWAP1 PUSH1 0x0 MSTORE PUSH1 0x20 PUSH1 0x0 KECCAK256 SWAP1 PUSH1 0x4 MUL ADD PUSH1 0x0 SWAP1 SWAP2 SWAP1 SWAP2 SWAP1 SWAP2 POP PUSH1 0x0 DUP3 ADD MLOAD DUP2 PUSH1 0x0 ADD SWAP1 DUP1 MLOAD SWAP1 PUSH1 0x20 ADD SWAP1 PUSH2 0x1F0 SWAP3 SWAP2 SWAP1 PUSH2 0x837 JUMP JUMPDEST POP PUSH1 0x20 DUP3 ADD MLOAD DUP2 PUSH1 0x1 ADD SSTORE PUSH1 0x40 DUP3 ADD MLOAD DUP2 PUSH1 0x2 ADD SSTORE PUSH1 0x60 DUP3 ADD MLOAD DUP2 PUSH1 0x3 ADD SSTORE POP POP PUSH32 0xF37B44C60D951A102E1B401BCD083688102E58C75AAE387FF9884AA0F9FF33DC DUP4 DUP4 DUP4 PUSH1 0x40 MLOAD PUSH2 0x244 SWAP4 SWAP3 SWAP2 SWAP1 PUSH2 0xBCB JUMP JUMPDEST PUSH1 0x40 MLOAD DUP1 SWAP2 SUB SWAP1 LOG1 POP POP POP JUMP JUMPDEST JUMP JUMPDEST PUSH2 0x25B PUSH2 0x63A JUMP JUMPDEST DUP1 PUSH1 0x3 PUSH1 0x0 DUP5 PUSH1 0x2 DUP2 GT ISZERO PUSH2 0x273 JUMPI PUSH2 0x272 PUSH2 0xBFD JUMP JUMPDEST JUMPDEST PUSH1 0x2 DUP2 GT ISZERO PUSH2 0x285 JUMPI PUSH2 0x284 PUSH2 0xBFD JUMP JUMPDEST JUMPDEST DUP2 MSTORE PUSH1 0x20 ADD SWAP1 DUP2 MSTORE PUSH1 0x20 ADD PUSH1 0x0 KECCAK256 PUSH1 0x0 PUSH2 0x100 EXP DUP2 SLOAD DUP2 PUSH20 0xFFFFFFFFFFFFFFFFFFFFFFFFFFFFFFFFFFFFFFFF MUL NOT AND SWAP1 DUP4 PUSH20 0xFFFFFFFFFFFFFFFFFFFFFFFFFFFFFFFFFFFFFFFF AND MUL OR SWAP1 SSTORE POP PUSH32 0x4C81DB63B6BAB09B12E49B76A90A6CA4A9CFAC4A8AABCEFC1F8A249F0F4E6919 DUP3 DUP3 PUSH1 0x40 MLOAD PUSH2 0x302 SWAP3 SWAP2 SWAP1 PUSH2 0xC74 JUMP JUMPDEST PUSH1 0x40 MLOAD DUP1 SWAP2 SUB SWAP1 LOG1 POP POP JUMP JUMPDEST PUSH1 0x0 PUSH2 0x35D DUP5 DUP5 DUP1 DUP1 PUSH1 0x1F ADD PUSH1 0x20 DUP1 SWAP2 DIV MUL PUSH1 0x20 ADD PUSH1 0x40 MLOAD SWAP1 DUP2 ADD PUSH1 0x40 MSTORE DUP1 SWAP4 SWAP3 SWAP2 SWAP1 DUP2 DUP2 MSTORE PUSH1 0x20 ADD DUP4 DUP4 DUP1 DUP3 DUP5 CALLDATACOPY PUSH1 0x0 DUP2 DUP5 ADD MSTORE PUSH1 0x1F NOT PUSH1 0x1F DUP3 ADD AND SWAP1 POP DUP1 DUP4 ADD SWAP3 POP POP POP POP POP POP POP PUSH2 0x6B8 JUMP JUMPDEST SWAP1 POP PUSH1 0x3 PUSH1 0x0 DUP7 PUSH1 0x2 DUP2 GT ISZERO PUSH2 0x376 JUMPI PUSH2 0x375 PUSH2 0xBFD JUMP JUMPDEST JUMPDEST PUSH1 0x2 DUP2 GT ISZERO PUSH2 0x388 JUMPI PUSH2 0x387 PUSH2 0xBFD JUMP JUMPDEST JUMPDEST DUP2 MSTORE PUSH1 0x20 ADD SWAP1 DUP2 MSTORE PUSH1 0x20 ADD PUSH1 0x0 KECCAK256 PUSH1 0x0 SWAP1 SLOAD SWAP1 PUSH2 0x100 EXP SWAP1 DIV PUSH20 0xFFFFFFFFFFFFFFFFFFFFFFFFFFFFFFFFFFFFFFFF AND PUSH20 0xFFFFFFFFFFFFFFFFFFFFFFFFFFFFFFFFFFFFFFFF AND CALLER PUSH20 0xFFFFFFFFFFFFFFFFFFFFFFFFFFFFFFFFFFFFFFFF AND EQ PUSH2 0x424 JUMPI PUSH1 0x40 MLOAD PUSH32 0x8C379A000000000000000000000000000000000000000000000000000000000 DUP2 MSTORE PUSH1 0x4 ADD PUSH2 0x41B SWAP1 PUSH2 0xD0F JUMP JUMPDEST PUSH1 0x40 MLOAD DUP1 SWAP2 SUB SWAP1 REVERT JUMPDEST PUSH1 0x0 PUSH1 0x2 DUP2 GT ISZERO PUSH2 0x438 JUMPI PUSH2 0x437 PUSH2 0xBFD JUMP JUMPDEST JUMPDEST DUP6 PUSH1 0x2 DUP2 GT ISZERO PUSH2 0x44B JUMPI PUSH2 0x44A PUSH2 0xBFD JUMP JUMPDEST JUMPDEST SUB PUSH2 0x47F JUMPI DUP2 PUSH1 0x2 DUP3 DUP2 SLOAD DUP2 LT PUSH2 0x465 JUMPI PUSH2 0x464 PUSH2 0xD2F JUMP JUMPDEST JUMPDEST SWAP1 PUSH1 0x0 MSTORE PUSH1 0x20 PUSH1 0x0 KECCAK256 SWAP1 PUSH1 0x4 MUL ADD PUSH1 0x1 ADD DUP2 SWAP1 SSTORE POP PUSH2 0x571 JUMP JUMPDEST PUSH1 0x2 DUP1 DUP2 GT ISZERO PUSH2 0x492 JUMPI PUSH2 0x491 PUSH2 0xBFD JUMP JUMPDEST JUMPDEST DUP6 PUSH1 0x2 DUP2 GT ISZERO PUSH2 0x4A5 JUMPI PUSH2 0x4A4 PUSH2 0xBFD JUMP JUMPDEST JUMPDEST SUB PUSH2 0x4D9 JUMPI DUP2 PUSH1 0x2 DUP3 DUP2 SLOAD DUP2 LT PUSH2 0x4BF JUMPI PUSH2 0x4BE PUSH2 0xD2F JUMP JUMPDEST JUMPDEST SWAP1 PUSH1 0x0 MSTORE PUSH1 0x20 PUSH1 0x0 KECCAK256 SWAP1 PUSH1 0x4 MUL ADD PUSH1 0x3 ADD DUP2 SWAP1 SSTORE POP PUSH2 0x570 JUMP JUMPDEST PUSH1 0x1 PUSH1 0x2 DUP2 GT ISZERO PUSH2 0x4ED JUMPI PUSH2 0x4EC PUSH2 0xBFD JUMP JUMPDEST JUMPDEST DUP6 PUSH1 0x2 DUP2 GT ISZERO PUSH2 0x500 JUMPI PUSH2 0x4FF PUSH2 0xBFD JUMP JUMPDEST JUMPDEST SUB PUSH2 0x534 JUMPI DUP2 PUSH1 0x2 DUP3 DUP2 SLOAD DUP2 LT PUSH2 0x51A JUMPI PUSH2 0x519 PUSH2 0xD2F JUMP JUMPDEST JUMPDEST SWAP1 PUSH1 0x0 MSTORE PUSH1 0x20 PUSH1 0x0 KECCAK256 SWAP1 PUSH1 0x4 MUL ADD PUSH1 0x2 ADD DUP2 SWAP1 SSTORE POP PUSH2 0x56F JUMP JUMPDEST PUSH1 0x40 MLOAD PUSH32 0x8C379A000000000000000000000000000000000000000000000000000000000 DUP2 MSTORE PUSH1 0x4 ADD PUSH2 0x566 SWAP1 PUSH2 0xDAA JUMP JUMPDEST PUSH1 0x40 MLOAD DUP1 SWAP2 SUB SWAP1 REVERT JUMPDEST JUMPDEST JUMPDEST POP POP POP POP POP JUMP JUMPDEST PUSH2 0x580 PUSH2 0x63A JUMP JUMPDEST PUSH2 0x58A PUSH1 0x0 PUSH2 0x76B JUMP JUMPDEST JUMP JUMPDEST PUSH1 0x0 DUP1 PUSH1 0x0 SWAP1 SLOAD SWAP1 PUSH2 0x100 EXP SWAP1 DIV PUSH20 0xFFFFFFFFFFFFFFFFFFFFFFFFFFFFFFFFFFFFFFFF AND SWAP1 POP SWAP1 JUMP JUMPDEST JUMP JUMPDEST PUSH2 0x5BF PUSH2 0x63A JUMP JUMPDEST PUSH1 0x0 PUSH20 0xFFFFFFFFFFFFFFFFFFFFFFFFFFFFFFFFFFFFFFFF AND DUP2 PUSH20 0xFFFFFFFFFFFFFFFFFFFFFFFFFFFFFFFFFFFFFFFF AND SUB PUSH2 0x62E JUMPI PUSH1 0x40 MLOAD PUSH32 0x8C379A000000000000000000000000000000000000000000000000000000000 DUP2 MSTORE PUSH1 0x4 ADD PUSH2 0x625 SWAP1 PUSH2 0xE3C JUMP JUMPDEST PUSH1 0x40 MLOAD DUP1 SWAP2 SUB SWAP1 REVERT JUMPDEST PUSH2 0x637 DUP2 PUSH2 0x76B JUMP JUMPDEST POP JUMP JUMPDEST PUSH2 0x642 PUSH2 0x82F JUMP JUMPDEST PUSH20 0xFFFFFFFFFFFFFFFFFFFFFFFFFFFFFFFFFFFFFFFF AND PUSH2 0x660 PUSH2 0x58C JUMP JUMPDEST PUSH20 0xFFFFFFFFFFFFFFFFFFFFFFFFFFFFFFFFFFFFFFFF AND EQ PUSH2 0x6B6 JUMPI PUSH1 0x40 MLOAD PUSH32 0x8C379A000000000000000000000000000000000000000000000000000000000 DUP2 MSTORE PUSH1 0x4 ADD PUSH2 0x6AD SWAP1 PUSH2 0xEA8 JUMP JUMPDEST PUSH1 0x40 MLOAD DUP1 SWAP2 SUB SWAP1 REVERT JUMPDEST JUMP JUMPDEST PUSH1 0x0 DUP1 PUSH1 0x0 SWAP1 POP JUMPDEST PUSH1 0x2 DUP1 SLOAD SWAP1 POP DUP2 LT ISZERO PUSH2 0x760 JUMPI DUP3 PUSH1 0x40 MLOAD PUSH1 0x20 ADD PUSH2 0x6DE SWAP2 SWAP1 PUSH2 0xF42 JUMP JUMPDEST PUSH1 0x40 MLOAD PUSH1 0x20 DUP2 DUP4 SUB SUB DUP2 MSTORE SWAP1 PUSH1 0x40 MSTORE DUP1 MLOAD SWAP1 PUSH1 0x20 ADD KECCAK256 PUSH1 0x2 DUP3 DUP2 SLOAD DUP2 LT PUSH2 0x708 JUMPI PUSH2 0x707 PUSH2 0xD2F JUMP JUMPDEST JUMPDEST SWAP1 PUSH1 0x0 MSTORE PUSH1 0x20 PUSH1 0x0 KECCAK256 SWAP1 PUSH1 0x4 MUL ADD PUSH1 0x0 ADD PUSH1 0x40 MLOAD PUSH1 0x20 ADD PUSH2 0x729 SWAP2 SWAP1 PUSH2 0x104D JUMP JUMPDEST PUSH1 0x40 MLOAD PUSH1 0x20 DUP2 DUP4 SUB SUB DUP2 MSTORE SWAP1 PUSH1 0x40 MSTORE DUP1 MLOAD SWAP1 PUSH1 0x20 ADD KECCAK256 SUB PUSH2 0x74D JUMPI DUP1 SWAP2 POP POP PUSH2 0x766 JUMP JUMPDEST DUP1 DUP1 PUSH2 0x758 SWAP1 PUSH2 0x1093 JUMP JUMPDEST SWAP2 POP POP PUSH2 0x6C0 JUMP JUMPDEST POP PUSH1 0x0 SWAP1 POP JUMPDEST SWAP2 SWAP1 POP JUMP JUMPDEST PUSH1 0x0 DUP1 PUSH1 0x0 SWAP1 SLOAD SWAP1 PUSH2 0x100 EXP SWAP1 DIV PUSH20 0xFFFFFFFFFFFFFFFFFFFFFFFFFFFFFFFFFFFFFFFF AND SWAP1 POP DUP2 PUSH1 0x0 DUP1 PUSH2 0x100 EXP DUP2 SLOAD DUP2 PUSH20 0xFFFFFFFFFFFFFFFFFFFFFFFFFFFFFFFFFFFFFFFF MUL NOT AND SWAP1 DUP4 PUSH20 0xFFFFFFFFFFFFFFFFFFFFFFFFFFFFFFFFFFFFFFFF AND MUL OR SWAP1 SSTORE POP DUP2 PUSH20 0xFFFFFFFFFFFFFFFFFFFFFFFFFFFFFFFFFFFFFFFF AND DUP2 PUSH20 0xFFFFFFFFFFFFFFFFFFFFFFFFFFFFFFFFFFFFFFFF AND PUSH32 0x8BE0079C531659141344CD1FD0A4F28419497F9722A3DAAFE3B4186F6B6457E0 PUSH1 0x40 MLOAD PUSH1 0x40 MLOAD DUP1 SWAP2 SUB SWAP1 LOG3 POP POP JUMP JUMPDEST PUSH1 0x0 CALLER SWAP1 POP SWAP1 JUMP JUMPDEST DUP3 DUP1 SLOAD PUSH2 0x843 SWAP1 PUSH2 0xF88 JUMP JUMPDEST SWAP1 PUSH1 0x0 MSTORE PUSH1 0x20 PUSH1 0x0 KECCAK256 SWAP1 PUSH1 0x1F ADD PUSH1 0x20 SWAP1 DIV DUP2 ADD SWAP3 DUP3 PUSH2 0x865 JUMPI PUSH1 0x0 DUP6 SSTORE PUSH2 0x8AC JUMP JUMPDEST DUP3 PUSH1 0x1F LT PUSH2 0x87E JUMPI DUP1 MLOAD PUSH1 0xFF NOT AND DUP4 DUP1 ADD OR DUP6 SSTORE PUSH2 0x8AC JUMP JUMPDEST DUP3 DUP1 ADD PUSH1 0x1 ADD DUP6 SSTORE DUP3 ISZERO PUSH2 0x8AC JUMPI SWAP2 DUP3 ADD JUMPDEST DUP3 DUP2 GT ISZERO PUSH2 0x8AB JUMPI DUP3 MLOAD DUP3 SSTORE SWAP2 PUSH1 0x20 ADD SWAP2 SWAP1 PUSH1 0x1 ADD SWAP1 PUSH2 0x890 JUMP JUMPDEST JUMPDEST POP SWAP1 POP PUSH2 0x8B9 SWAP2 SWAP1 PUSH2 0x8BD JUMP JUMPDEST POP SWAP1 JUMP JUMPDEST JUMPDEST DUP1 DUP3 GT ISZERO PUSH2 0x8D6 JUMPI PUSH1 0x0 DUP2 PUSH1 0x0 SWAP1 SSTORE POP PUSH1 0x1 ADD PUSH2 0x8BE JUMP JUMPDEST POP SWAP1 JUMP JUMPDEST PUSH1 0x0 DUP1 REVERT JUMPDEST PUSH1 0x0 DUP1 REVERT JUMPDEST PUSH1 0x0 DUP1 REVERT JUMPDEST PUSH1 0x0 DUP1 REVERT JUMPDEST PUSH1 0x0 DUP1 REVERT JUMPDEST PUSH1 0x0 DUP1 DUP4 PUSH1 0x1F DUP5 ADD SLT PUSH2 0x909 JUMPI PUSH2 0x908 PUSH2 0x8E4 JUMP JUMPDEST JUMPDEST DUP3 CALLDATALOAD SWAP1 POP PUSH8 0xFFFFFFFFFFFFFFFF DUP2 GT ISZERO PUSH2 0x926 JUMPI PUSH2 0x925 PUSH2 0x8E9 JUMP JUMPDEST JUMPDEST PUSH1 0x20 DUP4 ADD SWAP2 POP DUP4 PUSH1 0x1 DUP3 MUL DUP4 ADD GT ISZERO PUSH2 0x942 JUMPI PUSH2 0x941 PUSH2 0x8EE JUMP JUMPDEST JUMPDEST SWAP3 POP SWAP3 SWAP1 POP JUMP JUMPDEST PUSH1 0x0 PUSH20 0xFFFFFFFFFFFFFFFFFFFFFFFFFFFFFFFFFFFFFFFF DUP3 AND SWAP1 POP SWAP2 SWAP1 POP JUMP JUMPDEST PUSH1 0x0 PUSH2 0x974 DUP3 PUSH2 0x949 JUMP JUMPDEST SWAP1 POP SWAP2 SWAP1 POP JUMP JUMPDEST PUSH2 0x984 DUP2 PUSH2 0x969 JUMP JUMPDEST DUP2 EQ PUSH2 0x98F JUMPI PUSH1 0x0 DUP1 REVERT JUMPDEST POP JUMP JUMPDEST PUSH1 0x0 DUP2 CALLDATALOAD SWAP1 POP PUSH2 0x9A1 DUP2 PUSH2 0x97B JUMP JUMPDEST SWAP3 SWAP2 POP POP JUMP JUMPDEST PUSH1 0x0 DUP1 PUSH1 0x0 PUSH1 0x40 DUP5 DUP7 SUB SLT ISZERO PUSH2 0x9C0 JUMPI PUSH2 0x9BF PUSH2 0x8DA JUMP JUMPDEST JUMPDEST PUSH1 0x0 DUP5 ADD CALLDATALOAD PUSH8 0xFFFFFFFFFFFFFFFF DUP2 GT ISZERO PUSH2 0x9DE JUMPI PUSH2 0x9DD PUSH2 0x8DF JUMP JUMPDEST JUMPDEST PUSH2 0x9EA DUP7 DUP3 DUP8 ADD PUSH2 0x8F3 JUMP JUMPDEST SWAP4 POP SWAP4 POP POP PUSH1 0x20 PUSH2 0x9FD DUP7 DUP3 DUP8 ADD PUSH2 0x992 JUMP JUMPDEST SWAP2 POP POP SWAP3 POP SWAP3 POP SWAP3 JUMP JUMPDEST PUSH1 0x3 DUP2 LT PUSH2 0xA14 JUMPI PUSH1 0x0 DUP1 REVERT JUMPDEST POP JUMP JUMPDEST PUSH1 0x0 DUP2 CALLDATALOAD SWAP1 POP PUSH2 0xA26 DUP2 PUSH2 0xA07 JUMP JUMPDEST SWAP3 SWAP2 POP POP JUMP JUMPDEST PUSH1 0x0 DUP1 PUSH1 0x40 DUP4 DUP6 SUB SLT ISZERO PUSH2 0xA43 JUMPI PUSH2 0xA42 PUSH2 0x8DA JUMP JUMPDEST JUMPDEST PUSH1 0x0 PUSH2 0xA51 DUP6 DUP3 DUP7 ADD PUSH2 0xA17 JUMP JUMPDEST SWAP3 POP POP PUSH1 0x20 PUSH2 0xA62 DUP6 DUP3 DUP7 ADD PUSH2 0x992 JUMP JUMPDEST SWAP2 POP POP SWAP3 POP SWAP3 SWAP1 POP JUMP JUMPDEST PUSH1 0x0 DUP2 SWAP1 POP SWAP2 SWAP1 POP JUMP JUMPDEST PUSH2 0xA7F DUP2 PUSH2 0xA6C JUMP JUMPDEST DUP2 EQ PUSH2 0xA8A JUMPI PUSH1 0x0 DUP1 REVERT JUMPDEST POP JUMP JUMPDEST PUSH1 0x0 DUP2 CALLDATALOAD SWAP1 POP PUSH2 0xA9C DUP2 PUSH2 0xA76 JUMP JUMPDEST SWAP3 SWAP2 POP POP JUMP JUMPDEST PUSH1 0x0 DUP1 PUSH1 0x0 DUP1 PUSH1 0x60 DUP6 DUP8 SUB SLT ISZERO PUSH2 0xABC JUMPI PUSH2 0xABB PUSH2 0x8DA JUMP JUMPDEST JUMPDEST PUSH1 0x0 PUSH2 0xACA DUP8 DUP3 DUP9 ADD PUSH2 0xA17 JUMP JUMPDEST SWAP5 POP POP PUSH1 0x20 DUP6 ADD CALLDATALOAD PUSH8 0xFFFFFFFFFFFFFFFF DUP2 GT ISZERO PUSH2 0xAEB JUMPI PUSH2 0xAEA PUSH2 0x8DF JUMP JUMPDEST JUMPDEST PUSH2 0xAF7 DUP8 DUP3 DUP9 ADD PUSH2 0x8F3 JUMP JUMPDEST SWAP4 POP SWAP4 POP POP PUSH1 0x40 PUSH2 0xB0A DUP8 DUP3 DUP9 ADD PUSH2 0xA8D JUMP JUMPDEST SWAP2 POP POP SWAP3 SWAP6 SWAP2 SWAP5 POP SWAP3 POP JUMP JUMPDEST PUSH2 0xB1F DUP2 PUSH2 0x969 JUMP JUMPDEST DUP3 MSTORE POP POP JUMP JUMPDEST PUSH1 0x0 PUSH1 0x20 DUP3 ADD SWAP1 POP PUSH2 0xB3A PUSH1 0x0 DUP4 ADD DUP5 PUSH2 0xB16 JUMP JUMPDEST SWAP3 SWAP2 POP POP JUMP JUMPDEST PUSH1 0x0 PUSH1 0x20 DUP3 DUP5 SUB SLT ISZERO PUSH2 0xB56 JUMPI PUSH2 0xB55 PUSH2 0x8DA JUMP JUMPDEST JUMPDEST PUSH1 0x0 PUSH2 0xB64 DUP5 DUP3 DUP6 ADD PUSH2 0x992 JUMP JUMPDEST SWAP2 POP POP SWAP3 SWAP2 POP POP JUMP JUMPDEST PUSH1 0x0 DUP3 DUP3 MSTORE PUSH1 0x20 DUP3 ADD SWAP1 POP SWAP3 SWAP2 POP POP JUMP JUMPDEST DUP3 DUP2 DUP4 CALLDATACOPY PUSH1 0x0 DUP4 DUP4 ADD MSTORE POP POP POP JUMP JUMPDEST PUSH1 0x0 PUSH1 0x1F NOT PUSH1 0x1F DUP4 ADD AND SWAP1 POP SWAP2 SWAP1 POP JUMP JUMPDEST PUSH1 0x0 PUSH2 0xBAA DUP4 DUP6 PUSH2 0xB6D JUMP JUMPDEST SWAP4 POP PUSH2 0xBB7 DUP4 DUP6 DUP5 PUSH2 0xB7E JUMP JUMPDEST PUSH2 0xBC0 DUP4 PUSH2 0xB8D JUMP JUMPDEST DUP5 ADD SWAP1 POP SWAP4 SWAP3 POP POP POP JUMP JUMPDEST PUSH1 0x0 PUSH1 0x40 DUP3 ADD SWAP1 POP DUP2 DUP2 SUB PUSH1 0x0 DUP4 ADD MSTORE PUSH2 0xBE6 DUP2 DUP6 DUP8 PUSH2 0xB9E JUMP JUMPDEST SWAP1 POP PUSH2 0xBF5 PUSH1 0x20 DUP4 ADD DUP5 PUSH2 0xB16 JUMP JUMPDEST SWAP5 SWAP4 POP POP POP POP JUMP JUMPDEST PUSH32 0x4E487B7100000000000000000000000000000000000000000000000000000000 PUSH1 0x0 MSTORE PUSH1 0x21 PUSH1 0x4 MSTORE PUSH1 0x24 PUSH1 0x0 REVERT JUMPDEST PUSH1 0x3 DUP2 LT PUSH2 0xC3D JUMPI PUSH2 0xC3C PUSH2 0xBFD JUMP JUMPDEST JUMPDEST POP JUMP JUMPDEST PUSH1 0x0 DUP2 SWAP1 POP PUSH2 0xC4E DUP3 PUSH2 0xC2C JUMP JUMPDEST SWAP2 SWAP1 POP JUMP JUMPDEST PUSH1 0x0 PUSH2 0xC5E DUP3 PUSH2 0xC40 JUMP JUMPDEST SWAP1 POP SWAP2 SWAP1 POP JUMP JUMPDEST PUSH2 0xC6E DUP2 PUSH2 0xC53 JUMP JUMPDEST DUP3 MSTORE POP POP JUMP JUMPDEST PUSH1 0x0 PUSH1 0x40 DUP3 ADD SWAP1 POP PUSH2 0xC89 PUSH1 0x0 DUP4 ADD DUP6 PUSH2 0xC65 JUMP JUMPDEST PUSH2 0xC96 PUSH1 0x20 DUP4 ADD DUP5 PUSH2 0xB16 JUMP JUMPDEST SWAP4 SWAP3 POP POP POP JUMP JUMPDEST PUSH32 0x596F7520617265206E6F74207468652074656163686572206F66207468697320 PUSH1 0x0 DUP3 ADD MSTORE PUSH32 0x73747564656E7420636F757273652E0000000000000000000000000000000000 PUSH1 0x20 DUP3 ADD MSTORE POP JUMP JUMPDEST PUSH1 0x0 PUSH2 0xCF9 PUSH1 0x2F DUP4 PUSH2 0xB6D JUMP JUMPDEST SWAP2 POP PUSH2 0xD04 DUP3 PUSH2 0xC9D JUMP JUMPDEST PUSH1 0x40 DUP3 ADD SWAP1 POP SWAP2 SWAP1 POP JUMP JUMPDEST PUSH1 0x0 PUSH1 0x20 DUP3 ADD SWAP1 POP DUP2 DUP2 SUB PUSH1 0x0 DUP4 ADD MSTORE PUSH2 0xD28 DUP2 PUSH2 0xCEC JUMP JUMPDEST SWAP1 POP SWAP2 SWAP1 POP JUMP JUMPDEST PUSH32 0x4E487B7100000000000000000000000000000000000000000000000000000000 PUSH1 0x0 MSTORE PUSH1 0x32 PUSH1 0x4 MSTORE PUSH1 0x24 PUSH1 0x0 REVERT JUMPDEST PUSH32 0x436F75727365207479706520646F6573206E6F742065786973742E0000000000 PUSH1 0x0 DUP3 ADD MSTORE POP JUMP JUMPDEST PUSH1 0x0 PUSH2 0xD94 PUSH1 0x1B DUP4 PUSH2 0xB6D JUMP JUMPDEST SWAP2 POP PUSH2 0xD9F DUP3 PUSH2 0xD5E JUMP JUMPDEST PUSH1 0x20 DUP3 ADD SWAP1 POP SWAP2 SWAP1 POP JUMP JUMPDEST PUSH1 0x0 PUSH1 0x20 DUP3 ADD SWAP1 POP DUP2 DUP2 SUB PUSH1 0x0 DUP4 ADD MSTORE PUSH2 0xDC3 DUP2 PUSH2 0xD87 JUMP JUMPDEST SWAP1 POP SWAP2 SWAP1 POP JUMP JUMPDEST PUSH32 0x4F776E61626C653A206E6577206F776E657220697320746865207A65726F2061 PUSH1 0x0 DUP3 ADD MSTORE PUSH32 0x6464726573730000000000000000000000000000000000000000000000000000 PUSH1 0x20 DUP3 ADD MSTORE POP JUMP JUMPDEST PUSH1 0x0 PUSH2 0xE26 PUSH1 0x26 DUP4 PUSH2 0xB6D JUMP JUMPDEST SWAP2 POP PUSH2 0xE31 DUP3 PUSH2 0xDCA JUMP JUMPDEST PUSH1 0x40 DUP3 ADD SWAP1 POP SWAP2 SWAP1 POP JUMP JUMPDEST PUSH1 0x0 PUSH1 0x20 DUP3 ADD SWAP1 POP DUP2 DUP2 SUB PUSH1 0x0 DUP4 ADD MSTORE PUSH2 0xE55 DUP2 PUSH2 0xE19 JUMP JUMPDEST SWAP1 POP SWAP2 SWAP1 POP JUMP JUMPDEST PUSH32 0x4F776E61626C653A2063616C6C6572206973206E6F7420746865206F776E6572 PUSH1 0x0 DUP3 ADD MSTORE POP JUMP JUMPDEST PUSH1 0x0 PUSH2 0xE92 PUSH1 0x20 DUP4 PUSH2 0xB6D JUMP JUMPDEST SWAP2 POP PUSH2 0xE9D DUP3 PUSH2 0xE5C JUMP JUMPDEST PUSH1 0x20 DUP3 ADD SWAP1 POP SWAP2 SWAP1 POP JUMP JUMPDEST PUSH1 0x0 PUSH1 0x20 DUP3 ADD SWAP1 POP DUP2 DUP2 SUB PUSH1 0x0 DUP4 ADD MSTORE PUSH2 0xEC1 DUP2 PUSH2 0xE85 JUMP JUMPDEST SWAP1 POP SWAP2 SWAP1 POP JUMP JUMPDEST PUSH1 0x0 DUP2 MLOAD SWAP1 POP SWAP2 SWAP1 POP JUMP JUMPDEST PUSH1 0x0 DUP2 SWAP1 POP SWAP3 SWAP2 POP POP JUMP JUMPDEST PUSH1 0x0 JUMPDEST DUP4 DUP2 LT ISZERO PUSH2 0xEFC JUMPI DUP1 DUP3 ADD MLOAD DUP2 DUP5 ADD MSTORE PUSH1 0x20 DUP2 ADD SWAP1 POP PUSH2 0xEE1 JUMP JUMPDEST DUP4 DUP2 GT ISZERO PUSH2 0xF0B JUMPI PUSH1 0x0 DUP5 DUP5 ADD MSTORE JUMPDEST POP POP POP POP JUMP JUMPDEST PUSH1 0x0 PUSH2 0xF1C DUP3 PUSH2 0xEC8 JUMP JUMPDEST PUSH2 0xF26 DUP2 DUP6 PUSH2 0xED3 JUMP JUMPDEST SWAP4 POP PUSH2 0xF36 DUP2 DUP6 PUSH1 0x20 DUP7 ADD PUSH2 0xEDE JUMP JUMPDEST DUP1 DUP5 ADD SWAP2 POP POP SWAP3 SWAP2 POP POP JUMP JUMPDEST PUSH1 0x0 PUSH2 0xF4E DUP3 DUP5 PUSH2 0xF11 JUMP JUMPDEST SWAP2 POP DUP2 SWAP1 POP SWAP3 SWAP2 POP POP JUMP JUMPDEST PUSH32 0x4E487B7100000000000000000000000000000000000000000000000000000000 PUSH1 0x0 MSTORE PUSH1 0x22 PUSH1 0x4 MSTORE PUSH1 0x24 PUSH1 0x0 REVERT JUMPDEST PUSH1 0x0 PUSH1 0x2 DUP3 DIV SWAP1 POP PUSH1 0x1 DUP3 AND DUP1 PUSH2 0xFA0 JUMPI PUSH1 0x7F DUP3 AND SWAP2 POP JUMPDEST PUSH1 0x20 DUP3 LT DUP2 SUB PUSH2 0xFB3 JUMPI PUSH2 0xFB2 PUSH2 0xF59 JUMP JUMPDEST JUMPDEST POP SWAP2 SWAP1 POP JUMP JUMPDEST PUSH1 0x0 DUP2 SWAP1 POP DUP2 PUSH1 0x0 MSTORE PUSH1 0x20 PUSH1 0x0 KECCAK256 SWAP1 POP SWAP2 SWAP1 POP JUMP JUMPDEST PUSH1 0x0 DUP2 SLOAD PUSH2 0xFDB DUP2 PUSH2 0xF88 JUMP JUMPDEST PUSH2 0xFE5 DUP2 DUP7 PUSH2 0xED3 JUMP JUMPDEST SWAP5 POP PUSH1 0x1 DUP3 AND PUSH1 0x0 DUP2 EQ PUSH2 0x1000 JUMPI PUSH1 0x1 DUP2 EQ PUSH2 0x1011 JUMPI PUSH2 0x1044 JUMP JUMPDEST PUSH1 0xFF NOT DUP4 AND DUP7 MSTORE DUP2 DUP7 ADD SWAP4 POP PUSH2 0x1044 JUMP JUMPDEST PUSH2 0x101A DUP6 PUSH2 0xFB9 JUMP JUMPDEST PUSH1 0x0 JUMPDEST DUP4 DUP2 LT ISZERO PUSH2 0x103C JUMPI DUP2 SLOAD DUP2 DUP10 ADD MSTORE PUSH1 0x1 DUP3 ADD SWAP2 POP PUSH1 0x20 DUP2 ADD SWAP1 POP PUSH2 0x101D JUMP JUMPDEST DUP4 DUP9 ADD SWAP6 POP POP POP JUMPDEST POP POP POP SWAP3 SWAP2 POP POP JUMP JUMPDEST PUSH1 0x0 PUSH2 0x1059 DUP3 DUP5 PUSH2 0xFCE JUMP JUMPDEST SWAP2 POP DUP2 SWAP1 POP SWAP3 SWAP2 POP POP JUMP JUMPDEST PUSH32 0x4E487B7100000000000000000000000000000000000000000000000000000000 PUSH1 0x0 MSTORE PUSH1 0x11 PUSH1 0x4 MSTORE PUSH1 0x24 PUSH1 0x0 REVERT JUMPDEST PUSH1 0x0 PUSH2 0x109E DUP3 PUSH2 0xA6C JUMP JUMPDEST SWAP2 POP PUSH32 0xFFFFFFFFFFFFFFFFFFFFFFFFFFFFFFFFFFFFFFFFFFFFFFFFFFFFFFFFFFFFFFFF DUP3 SUB PUSH2 0x10D0 JUMPI PUSH2 0x10CF PUSH2 0x1064 JUMP JUMPDEST JUMPDEST PUSH1 0x1 DUP3 ADD SWAP1 POP SWAP2 SWAP1 POP JUMP INVALID LOG2 PUSH5 0x6970667358 0x22 SLT KECCAK256 DUP11 0x29 0xAF 0xB8 0xF9 PUSH5 0x86A7307481 RETURNDATACOPY BYTE 0x4C 0xC3 SELFDESTRUCT 0xCA EXTCODECOPY RETURNDATACOPY PUSH5 0xF04B9E1B44 0xDF DUP6 CALLDATASIZE 0xAB CALLDATASIZE PUSH3 0xD66473 PUSH16 0x6C634300080D00330000000000000000 "
				},
				"gasEstimates": {
					"creation": {
						"codeDepositCost": "873800",
						"executionCost": "infinite",
						"totalCost": "infinite"
					},
					"external": {
						"addNote()": "167",
						"addStudent(string,address)": "infinite",
						"addTeacher(uint8,address)": "infinite",
						"getNote()": "188",
						"owner()": "2544",
						"renounceOwnership()": "30398",
						"setNote(uint8,string,uint256)": "infinite",
						"transferOwnership(address)": "30810"
					},
					"internal": {
						"getStudentFromName(string memory)": "infinite"
					}
				},
				"methodIdentifiers": {
					"addNote()": "241ba5c4",
					"addStudent(string,address)": "10468c2f",
					"addTeacher(uint8,address)": "35d1f30d",
					"getNote()": "df3ac476",
					"owner()": "8da5cb5b",
					"renounceOwnership()": "715018a6",
					"setNote(uint8,string,uint256)": "5eb050cf",
					"transferOwnership(address)": "f2fde38b"
				}
			},
			"storageLayout": {
				"storage": [
					{
						"astId": 7,
						"contract": "contracts/exoCours/exoNotation/exoNotation.sol:exoNotation",
						"label": "_owner",
						"offset": 0,
						"slot": "0",
						"type": "t_address"
					},
					{
						"astId": 160,
						"contract": "contracts/exoCours/exoNotation/exoNotation.sol:exoNotation",
						"label": "notes",
						"offset": 0,
						"slot": "1",
						"type": "t_mapping(t_enum(course)143,t_mapping(t_string_memory_ptr,t_struct(Student)152_storage))"
					},
					{
						"astId": 164,
						"contract": "contracts/exoCours/exoNotation/exoNotation.sol:exoNotation",
						"label": "students",
						"offset": 0,
						"slot": "2",
						"type": "t_array(t_struct(Student)152_storage)dyn_storage"
					},
					{
						"astId": 169,
						"contract": "contracts/exoCours/exoNotation/exoNotation.sol:exoNotation",
						"label": "teachers",
						"offset": 0,
						"slot": "3",
						"type": "t_mapping(t_enum(course)143,t_address)"
					}
				],
				"types": {
					"t_address": {
						"encoding": "inplace",
						"label": "address",
						"numberOfBytes": "20"
					},
					"t_array(t_struct(Student)152_storage)dyn_storage": {
						"base": "t_struct(Student)152_storage",
						"encoding": "dynamic_array",
						"label": "struct exoNotation.Student[]",
						"numberOfBytes": "32"
					},
					"t_enum(course)143": {
						"encoding": "inplace",
						"label": "enum exoNotation.course",
						"numberOfBytes": "1"
					},
					"t_mapping(t_enum(course)143,t_address)": {
						"encoding": "mapping",
						"key": "t_enum(course)143",
						"label": "mapping(enum exoNotation.course => address)",
						"numberOfBytes": "32",
						"value": "t_address"
					},
					"t_mapping(t_enum(course)143,t_mapping(t_string_memory_ptr,t_struct(Student)152_storage))": {
						"encoding": "mapping",
						"key": "t_enum(course)143",
						"label": "mapping(enum exoNotation.course => mapping(string => struct exoNotation.Student))",
						"numberOfBytes": "32",
						"value": "t_mapping(t_string_memory_ptr,t_struct(Student)152_storage)"
					},
					"t_mapping(t_string_memory_ptr,t_struct(Student)152_storage)": {
						"encoding": "mapping",
						"key": "t_string_memory_ptr",
						"label": "mapping(string => struct exoNotation.Student)",
						"numberOfBytes": "32",
						"value": "t_struct(Student)152_storage"
					},
					"t_string_memory_ptr": {
						"encoding": "bytes",
						"label": "string",
						"numberOfBytes": "32"
					},
					"t_string_storage": {
						"encoding": "bytes",
						"label": "string",
						"numberOfBytes": "32"
					},
					"t_struct(Student)152_storage": {
						"encoding": "inplace",
						"label": "struct exoNotation.Student",
						"members": [
							{
								"astId": 145,
								"contract": "contracts/exoCours/exoNotation/exoNotation.sol:exoNotation",
								"label": "name",
								"offset": 0,
								"slot": "0",
								"type": "t_string_storage"
							},
							{
								"astId": 147,
								"contract": "contracts/exoCours/exoNotation/exoNotation.sol:exoNotation",
								"label": "noteBiology",
								"offset": 0,
								"slot": "1",
								"type": "t_uint256"
							},
							{
								"astId": 149,
								"contract": "contracts/exoCours/exoNotation/exoNotation.sol:exoNotation",
								"label": "noteMath",
								"offset": 0,
								"slot": "2",
								"type": "t_uint256"
							},
							{
								"astId": 151,
								"contract": "contracts/exoCours/exoNotation/exoNotation.sol:exoNotation",
								"label": "noteFr",
								"offset": 0,
								"slot": "3",
								"type": "t_uint256"
							}
						],
						"numberOfBytes": "128"
					},
					"t_uint256": {
						"encoding": "inplace",
						"label": "uint256",
						"numberOfBytes": "32"
					}
				}
			},
			"userdoc": {
				"kind": "user",
				"methods": {},
				"version": 1
			}
		}
	}
}