{
	"contracts/voting-system/voting.sol": {
		"voting": {
			"abi": [
				{
					"anonymous": false,
					"inputs": [
						{
							"indexed": true,
							"internalType": "address",
							"name": "previousOwner",
							"type": "address"
						},
						{
							"indexed": true,
							"internalType": "address",
							"name": "newOwner",
							"type": "address"
						}
					],
					"name": "OwnershipTransferred",
					"type": "event"
				},
				{
					"anonymous": false,
					"inputs": [
						{
							"indexed": false,
							"internalType": "uint256",
							"name": "proposalId",
							"type": "uint256"
						}
					],
					"name": "ProposalRegistered",
					"type": "event"
				},
				{
					"anonymous": false,
					"inputs": [
						{
							"indexed": false,
							"internalType": "address",
							"name": "voter",
							"type": "address"
						},
						{
							"indexed": false,
							"internalType": "uint256",
							"name": "proposalId",
							"type": "uint256"
						}
					],
					"name": "Voted",
					"type": "event"
				},
				{
					"anonymous": false,
					"inputs": [
						{
							"indexed": false,
							"internalType": "address",
							"name": "voterAddress",
							"type": "address"
						}
					],
					"name": "VoterRegistered",
					"type": "event"
				},
				{
					"anonymous": false,
					"inputs": [
						{
							"indexed": false,
							"internalType": "enum voting.WorkflowStatus",
							"name": "previousStatus",
							"type": "uint8"
						},
						{
							"indexed": false,
							"internalType": "enum voting.WorkflowStatus",
							"name": "newStatus",
							"type": "uint8"
						}
					],
					"name": "WorkflowStatusChange",
					"type": "event"
				},
				{
					"inputs": [
						{
							"internalType": "address",
							"name": "_addrVoter",
							"type": "address"
						}
					],
					"name": "adminAddRegistered",
					"outputs": [],
					"stateMutability": "nonpayable",
					"type": "function"
				},
				{
					"inputs": [],
					"name": "adminStartProposalsSession",
					"outputs": [],
					"stateMutability": "nonpayable",
					"type": "function"
				},
				{
					"inputs": [],
					"name": "adminStartVotingSession",
					"outputs": [],
					"stateMutability": "nonpayable",
					"type": "function"
				},
				{
					"inputs": [],
					"name": "adminStopProposalsSession",
					"outputs": [],
					"stateMutability": "nonpayable",
					"type": "function"
				},
				{
					"inputs": [],
					"name": "adminStopVotingSession",
					"outputs": [],
					"stateMutability": "nonpayable",
					"type": "function"
				},
				{
					"inputs": [],
					"name": "adminTallyVotes",
					"outputs": [],
					"stateMutability": "nonpayable",
					"type": "function"
				},
				{
					"inputs": [],
					"name": "getWinner",
					"outputs": [
						{
							"components": [
								{
									"internalType": "string",
									"name": "description",
									"type": "string"
								},
								{
									"internalType": "uint256",
									"name": "voteCount",
									"type": "uint256"
								}
							],
							"internalType": "struct voting.Proposal",
							"name": "",
							"type": "tuple"
						}
					],
					"stateMutability": "view",
					"type": "function"
				},
				{
					"inputs": [],
					"name": "owner",
					"outputs": [
						{
							"internalType": "address",
							"name": "",
							"type": "address"
						}
					],
					"stateMutability": "view",
					"type": "function"
				},
				{
					"inputs": [],
					"name": "renounceOwnership",
					"outputs": [],
					"stateMutability": "nonpayable",
					"type": "function"
				},
				{
					"inputs": [
						{
							"internalType": "address",
							"name": "newOwner",
							"type": "address"
						}
					],
					"name": "transferOwnership",
					"outputs": [],
					"stateMutability": "nonpayable",
					"type": "function"
				},
				{
					"inputs": [
						{
							"internalType": "string",
							"name": "_description",
							"type": "string"
						}
					],
					"name": "voterAddProposal",
					"outputs": [],
					"stateMutability": "nonpayable",
					"type": "function"
				},
				{
					"inputs": [
						{
							"internalType": "uint256",
							"name": "_proposalId",
							"type": "uint256"
						}
					],
					"name": "voterAddVote",
					"outputs": [],
					"stateMutability": "nonpayable",
					"type": "function"
				}
			],
			"devdoc": {
				"kind": "dev",
				"methods": {
					"owner()": {
						"details": "Returns the address of the current owner."
					},
					"renounceOwnership()": {
						"details": "Leaves the contract without owner. It will not be possible to call `onlyOwner` functions anymore. Can only be called by the current owner. NOTE: Renouncing ownership will leave the contract without an owner, thereby removing any functionality that is only available to the owner."
					},
					"transferOwnership(address)": {
						"details": "Transfers ownership of the contract to a new account (`newOwner`). Can only be called by the current owner."
					}
				},
				"version": 1
			},
			"evm": {
				"assembly": "    /* \"contracts/voting-system/voting.sol\":169:5946  contract voting is Ownable{... */\n  mstore(0x40, 0x80)\n    /* \"contracts/voting-system/voting.sol\":984:985  0 */\n  0x00\n    /* \"contracts/voting-system/voting.sol\":947:985  uint private _voterRegisteredCount = 0 */\n  0x03\n  sstore\n    /* \"contracts/voting-system/voting.sol\":169:5946  contract voting is Ownable{... */\n  callvalue\n  dup1\n  iszero\n  tag_1\n  jumpi\n  0x00\n  dup1\n  revert\ntag_1:\n  pop\n    /* \"https://github.com/OpenZeppelin/openzeppelin-contracts/blob/master/contracts/access/Ownable.sol\":936:968  _transferOwnership(_msgSender()) */\n  tag_4\n    /* \"https://github.com/OpenZeppelin/openzeppelin-contracts/blob/master/contracts/access/Ownable.sol\":955:967  _msgSender() */\n  tag_5\n    /* \"https://github.com/OpenZeppelin/openzeppelin-contracts/blob/master/contracts/access/Ownable.sol\":955:965  _msgSender */\n  shl(0x20, tag_6)\n    /* \"https://github.com/OpenZeppelin/openzeppelin-contracts/blob/master/contracts/access/Ownable.sol\":955:967  _msgSender() */\n  0x20\n  shr\n  jump\t// in\ntag_5:\n    /* \"https://github.com/OpenZeppelin/openzeppelin-contracts/blob/master/contracts/access/Ownable.sol\":936:954  _transferOwnership */\n  shl(0x20, tag_7)\n    /* \"https://github.com/OpenZeppelin/openzeppelin-contracts/blob/master/contracts/access/Ownable.sol\":936:968  _transferOwnership(_msgSender()) */\n  0x20\n  shr\n  jump\t// in\ntag_4:\n    /* \"contracts/voting-system/voting.sol\":169:5946  contract voting is Ownable{... */\n  jump(tag_8)\n    /* \"https://github.com/OpenZeppelin/openzeppelin-contracts/blob/master/contracts/utils/Context.sol\":640:736  function _msgSender() internal view virtual returns (address) {... */\ntag_6:\n    /* \"https://github.com/OpenZeppelin/openzeppelin-contracts/blob/master/contracts/utils/Context.sol\":693:700  address */\n  0x00\n    /* \"https://github.com/OpenZeppelin/openzeppelin-contracts/blob/master/contracts/utils/Context.sol\":719:729  msg.sender */\n  caller\n    /* \"https://github.com/OpenZeppelin/openzeppelin-contracts/blob/master/contracts/utils/Context.sol\":712:729  return msg.sender */\n  swap1\n  pop\n    /* \"https://github.com/OpenZeppelin/openzeppelin-contracts/blob/master/contracts/utils/Context.sol\":640:736  function _msgSender() internal view virtual returns (address) {... */\n  swap1\n  jump\t// out\n    /* \"https://github.com/OpenZeppelin/openzeppelin-contracts/blob/master/contracts/access/Ownable.sol\":2433:2620  function _transferOwnership(address newOwner) internal virtual {... */\ntag_7:\n    /* \"https://github.com/OpenZeppelin/openzeppelin-contracts/blob/master/contracts/access/Ownable.sol\":2506:2522  address oldOwner */\n  0x00\n    /* \"https://github.com/OpenZeppelin/openzeppelin-contracts/blob/master/contracts/access/Ownable.sol\":2525:2531  _owner */\n  dup1\n  0x00\n  swap1\n  sload\n  swap1\n  0x0100\n  exp\n  swap1\n  div\n  0xffffffffffffffffffffffffffffffffffffffff\n  and\n    /* \"https://github.com/OpenZeppelin/openzeppelin-contracts/blob/master/contracts/access/Ownable.sol\":2506:2531  address oldOwner = _owner */\n  swap1\n  pop\n    /* \"https://github.com/OpenZeppelin/openzeppelin-contracts/blob/master/contracts/access/Ownable.sol\":2550:2558  newOwner */\n  dup2\n    /* \"https://github.com/OpenZeppelin/openzeppelin-contracts/blob/master/contracts/access/Ownable.sol\":2541:2547  _owner */\n  0x00\n  dup1\n    /* \"https://github.com/OpenZeppelin/openzeppelin-contracts/blob/master/contracts/access/Ownable.sol\":2541:2558  _owner = newOwner */\n  0x0100\n  exp\n  dup2\n  sload\n  dup2\n  0xffffffffffffffffffffffffffffffffffffffff\n  mul\n  not\n  and\n  swap1\n  dup4\n  0xffffffffffffffffffffffffffffffffffffffff\n  and\n  mul\n  or\n  swap1\n  sstore\n  pop\n    /* \"https://github.com/OpenZeppelin/openzeppelin-contracts/blob/master/contracts/access/Ownable.sol\":2604:2612  newOwner */\n  dup2\n    /* \"https://github.com/OpenZeppelin/openzeppelin-contracts/blob/master/contracts/access/Ownable.sol\":2573:2613  OwnershipTransferred(oldOwner, newOwner) */\n  0xffffffffffffffffffffffffffffffffffffffff\n  and\n    /* \"https://github.com/OpenZeppelin/openzeppelin-contracts/blob/master/contracts/access/Ownable.sol\":2594:2602  oldOwner */\n  dup2\n    /* \"https://github.com/OpenZeppelin/openzeppelin-contracts/blob/master/contracts/access/Ownable.sol\":2573:2613  OwnershipTransferred(oldOwner, newOwner) */\n  0xffffffffffffffffffffffffffffffffffffffff\n  and\n  0x8be0079c531659141344cd1fd0a4f28419497f9722a3daafe3b4186f6b6457e0\n  mload(0x40)\n  mload(0x40)\n  dup1\n  swap2\n  sub\n  swap1\n  log3\n    /* \"https://github.com/OpenZeppelin/openzeppelin-contracts/blob/master/contracts/access/Ownable.sol\":2496:2620  {... */\n  pop\n    /* \"https://github.com/OpenZeppelin/openzeppelin-contracts/blob/master/contracts/access/Ownable.sol\":2433:2620  function _transferOwnership(address newOwner) internal virtual {... */\n  pop\n  jump\t// out\n    /* \"contracts/voting-system/voting.sol\":169:5946  contract voting is Ownable{... */\ntag_8:\n  dataSize(sub_0)\n  dup1\n  dataOffset(sub_0)\n  0x00\n  codecopy\n  0x00\n  return\nstop\n\nsub_0: assembly {\n        /* \"contracts/voting-system/voting.sol\":169:5946  contract voting is Ownable{... */\n      mstore(0x40, 0x80)\n      callvalue\n      dup1\n      iszero\n      tag_1\n      jumpi\n      0x00\n      dup1\n      revert\n    tag_1:\n      pop\n      jumpi(tag_2, lt(calldatasize, 0x04))\n      shr(0xe0, calldataload(0x00))\n      dup1\n      0x8e7ea5b2\n      gt\n      tag_15\n      jumpi\n      dup1\n      0x8e7ea5b2\n      eq\n      tag_9\n      jumpi\n      dup1\n      0xc145e3d5\n      eq\n      tag_10\n      jumpi\n      dup1\n      0xcf278c74\n      eq\n      tag_11\n      jumpi\n      dup1\n      0xd1337403\n      eq\n      tag_12\n      jumpi\n      dup1\n      0xd83f235b\n      eq\n      tag_13\n      jumpi\n      dup1\n      0xf2fde38b\n      eq\n      tag_14\n      jumpi\n      jump(tag_2)\n    tag_15:\n      dup1\n      0x04456224\n      eq\n      tag_3\n      jumpi\n      dup1\n      0x3b0ebff4\n      eq\n      tag_4\n      jumpi\n      dup1\n      0x5f39ff21\n      eq\n      tag_5\n      jumpi\n      dup1\n      0x715018a6\n      eq\n      tag_6\n      jumpi\n      dup1\n      0x7669d79e\n      eq\n      tag_7\n      jumpi\n      dup1\n      0x8da5cb5b\n      eq\n      tag_8\n      jumpi\n    tag_2:\n      0x00\n      dup1\n      revert\n        /* \"contracts/voting-system/voting.sol\":1998:2542  function adminStopProposalsSession() external onlyOwner{... */\n    tag_3:\n      tag_16\n      tag_17\n      jump\t// in\n    tag_16:\n      stop\n        /* \"contracts/voting-system/voting.sol\":5100:5708  function voterAddVote(uint _proposalId) external{... */\n    tag_4:\n      tag_18\n      0x04\n      dup1\n      calldatasize\n      sub\n      dup2\n      add\n      swap1\n      tag_19\n      swap2\n      swap1\n      tag_20\n      jump\t// in\n    tag_19:\n      tag_21\n      jump\t// in\n    tag_18:\n      stop\n        /* \"contracts/voting-system/voting.sol\":4477:5092  function voterAddProposal(string calldata _description) external {... */\n    tag_5:\n      tag_22\n      0x04\n      dup1\n      calldatasize\n      sub\n      dup2\n      add\n      swap1\n      tag_23\n      swap2\n      swap1\n      tag_24\n      jump\t// in\n    tag_23:\n      tag_25\n      jump\t// in\n    tag_22:\n      stop\n        /* \"https://github.com/OpenZeppelin/openzeppelin-contracts/blob/master/contracts/access/Ownable.sol\":1831:1932  function renounceOwnership() public virtual onlyOwner {... */\n    tag_6:\n      tag_26\n      tag_27\n      jump\t// in\n    tag_26:\n      stop\n        /* \"contracts/voting-system/voting.sol\":1569:1990  function adminStartProposalsSession() external onlyOwner{... */\n    tag_7:\n      tag_28\n      tag_29\n      jump\t// in\n    tag_28:\n      stop\n        /* \"https://github.com/OpenZeppelin/openzeppelin-contracts/blob/master/contracts/access/Ownable.sol\":1201:1286  function owner() public view virtual returns (address) {... */\n    tag_8:\n      tag_30\n      tag_31\n      jump\t// in\n    tag_30:\n      mload(0x40)\n      tag_32\n      swap2\n      swap1\n      tag_33\n      jump\t// in\n    tag_32:\n      mload(0x40)\n      dup1\n      swap2\n      sub\n      swap1\n      return\n        /* \"contracts/voting-system/voting.sol\":5716:5943  function getWinner() public view returns(Proposal memory) {... */\n    tag_9:\n      tag_34\n      tag_35\n      jump\t// in\n    tag_34:\n      mload(0x40)\n      tag_36\n      swap2\n      swap1\n      tag_37\n      jump\t// in\n    tag_36:\n      mload(0x40)\n      dup1\n      swap2\n      sub\n      swap1\n      return\n        /* \"contracts/voting-system/voting.sol\":1133:1561  function adminAddRegistered(address _addrVoter) external onlyOwner{... */\n    tag_10:\n      tag_38\n      0x04\n      dup1\n      calldatasize\n      sub\n      dup2\n      add\n      swap1\n      tag_39\n      swap2\n      swap1\n      tag_40\n      jump\t// in\n    tag_39:\n      tag_41\n      jump\t// in\n    tag_38:\n      stop\n        /* \"contracts/voting-system/voting.sol\":2550:3062  function adminStartVotingSession() external onlyOwner{... */\n    tag_11:\n      tag_42\n      tag_43\n      jump\t// in\n    tag_42:\n      stop\n        /* \"contracts/voting-system/voting.sol\":3076:3820  function adminStopVotingSession() external onlyOwner{... */\n    tag_12:\n      tag_44\n      tag_45\n      jump\t// in\n    tag_44:\n      stop\n        /* \"contracts/voting-system/voting.sol\":3828:4465  function adminTallyVotes() external onlyOwner{... */\n    tag_13:\n      tag_46\n      tag_47\n      jump\t// in\n    tag_46:\n      stop\n        /* \"https://github.com/OpenZeppelin/openzeppelin-contracts/blob/master/contracts/access/Ownable.sol\":2081:2279  function transferOwnership(address newOwner) public virtual onlyOwner {... */\n    tag_14:\n      tag_48\n      0x04\n      dup1\n      calldatasize\n      sub\n      dup2\n      add\n      swap1\n      tag_49\n      swap2\n      swap1\n      tag_40\n      jump\t// in\n    tag_49:\n      tag_50\n      jump\t// in\n    tag_48:\n      stop\n        /* \"contracts/voting-system/voting.sol\":1998:2542  function adminStopProposalsSession() external onlyOwner{... */\n    tag_17:\n        /* \"https://github.com/OpenZeppelin/openzeppelin-contracts/blob/master/contracts/access/Ownable.sol\":1094:1107  _checkOwner() */\n      tag_52\n        /* \"https://github.com/OpenZeppelin/openzeppelin-contracts/blob/master/contracts/access/Ownable.sol\":1094:1105  _checkOwner */\n      tag_53\n        /* \"https://github.com/OpenZeppelin/openzeppelin-contracts/blob/master/contracts/access/Ownable.sol\":1094:1107  _checkOwner() */\n      jump\t// in\n    tag_52:\n        /* \"contracts/voting-system/voting.sol\":2214:2257  WorkflowStatus.ProposalsRegistrationStarted */\n      0x01\n        /* \"contracts/voting-system/voting.sol\":2189:2257  _currentVotingSession == WorkflowStatus.ProposalsRegistrationStarted */\n      0x05\n      dup2\n      gt\n      iszero\n      tag_55\n      jumpi\n      tag_56\n      tag_57\n      jump\t// in\n    tag_56:\n    tag_55:\n        /* \"contracts/voting-system/voting.sol\":2189:2210  _currentVotingSession */\n      0x06\n      0x00\n      swap1\n      sload\n      swap1\n      0x0100\n      exp\n      swap1\n      div\n      0xff\n      and\n        /* \"contracts/voting-system/voting.sol\":2189:2257  _currentVotingSession == WorkflowStatus.ProposalsRegistrationStarted */\n      0x05\n      dup2\n      gt\n      iszero\n      tag_58\n      jumpi\n      tag_59\n      tag_57\n      jump\t// in\n    tag_59:\n    tag_58:\n      eq\n        /* \"contracts/voting-system/voting.sol\":2181:2307  require(_currentVotingSession == WorkflowStatus.ProposalsRegistrationStarted, \"The proposal registration is not started yet.\") */\n      tag_60\n      jumpi\n      mload(0x40)\n      0x08c379a000000000000000000000000000000000000000000000000000000000\n      dup2\n      mstore\n      0x04\n      add\n      tag_61\n      swap1\n      tag_62\n      jump\t// in\n    tag_61:\n      mload(0x40)\n      dup1\n      swap2\n      sub\n      swap1\n      revert\n    tag_60:\n        /* \"contracts/voting-system/voting.sol\":2320:2349  WorkflowStatus previousStatus */\n      0x00\n        /* \"contracts/voting-system/voting.sol\":2352:2373  _currentVotingSession */\n      0x06\n      0x00\n      swap1\n      sload\n      swap1\n      0x0100\n      exp\n      swap1\n      div\n      0xff\n      and\n        /* \"contracts/voting-system/voting.sol\":2320:2373  WorkflowStatus previousStatus = _currentVotingSession */\n      swap1\n      pop\n        /* \"contracts/voting-system/voting.sol\":2416:2457  WorkflowStatus.ProposalsRegistrationEnded */\n      0x02\n        /* \"contracts/voting-system/voting.sol\":2392:2413  _currentVotingSession */\n      0x06\n      0x00\n        /* \"contracts/voting-system/voting.sol\":2392:2457  _currentVotingSession = WorkflowStatus.ProposalsRegistrationEnded */\n      0x0100\n      exp\n      dup2\n      sload\n      dup2\n      0xff\n      mul\n      not\n      and\n      swap1\n      dup4\n      0x05\n      dup2\n      gt\n      iszero\n      tag_63\n      jumpi\n      tag_64\n      tag_57\n      jump\t// in\n    tag_64:\n    tag_63:\n      mul\n      or\n      swap1\n      sstore\n      pop\n        /* \"contracts/voting-system/voting.sol\":2475:2534  WorkflowStatusChange(previousStatus, _currentVotingSession) */\n      0x0a97a4ee45751e2abf3e4fc8946939630b11b371ea8ae39ccdc3056e98f5cc3f\n        /* \"contracts/voting-system/voting.sol\":2496:2510  previousStatus */\n      dup2\n        /* \"contracts/voting-system/voting.sol\":2512:2533  _currentVotingSession */\n      0x06\n      0x00\n      swap1\n      sload\n      swap1\n      0x0100\n      exp\n      swap1\n      div\n      0xff\n      and\n        /* \"contracts/voting-system/voting.sol\":2475:2534  WorkflowStatusChange(previousStatus, _currentVotingSession) */\n      mload(0x40)\n      tag_65\n      swap3\n      swap2\n      swap1\n      tag_66\n      jump\t// in\n    tag_65:\n      mload(0x40)\n      dup1\n      swap2\n      sub\n      swap1\n      log1\n        /* \"contracts/voting-system/voting.sol\":2053:2542  {... */\n      pop\n        /* \"contracts/voting-system/voting.sol\":1998:2542  function adminStopProposalsSession() external onlyOwner{... */\n      jump\t// out\n        /* \"contracts/voting-system/voting.sol\":5100:5708  function voterAddVote(uint _proposalId) external{... */\n    tag_21:\n        /* \"contracts/voting-system/voting.sol\":5194:5229  WorkflowStatus.VotingSessionStarted */\n      0x03\n        /* \"contracts/voting-system/voting.sol\":5169:5229  _currentVotingSession == WorkflowStatus.VotingSessionStarted */\n      0x05\n      dup2\n      gt\n      iszero\n      tag_68\n      jumpi\n      tag_69\n      tag_57\n      jump\t// in\n    tag_69:\n    tag_68:\n        /* \"contracts/voting-system/voting.sol\":5169:5190  _currentVotingSession */\n      0x06\n      0x00\n      swap1\n      sload\n      swap1\n      0x0100\n      exp\n      swap1\n      div\n      0xff\n      and\n        /* \"contracts/voting-system/voting.sol\":5169:5229  _currentVotingSession == WorkflowStatus.VotingSessionStarted */\n      0x05\n      dup2\n      gt\n      iszero\n      tag_70\n      jumpi\n      tag_71\n      tag_57\n      jump\t// in\n    tag_71:\n    tag_70:\n      eq\n        /* \"contracts/voting-system/voting.sol\":5161:5272  require(_currentVotingSession == WorkflowStatus.VotingSessionStarted, \"The voting session is not started yet.\") */\n      tag_72\n      jumpi\n      mload(0x40)\n      0x08c379a000000000000000000000000000000000000000000000000000000000\n      dup2\n      mstore\n      0x04\n      add\n      tag_73\n      swap1\n      tag_74\n      jump\t// in\n    tag_73:\n      mload(0x40)\n      dup1\n      swap2\n      sub\n      swap1\n      revert\n    tag_72:\n        /* \"contracts/voting-system/voting.sol\":5291:5297  voters */\n      0x02\n        /* \"contracts/voting-system/voting.sol\":5291:5309  voters[msg.sender] */\n      0x00\n        /* \"contracts/voting-system/voting.sol\":5298:5308  msg.sender */\n      caller\n        /* \"contracts/voting-system/voting.sol\":5291:5309  voters[msg.sender] */\n      0xffffffffffffffffffffffffffffffffffffffff\n      and\n      0xffffffffffffffffffffffffffffffffffffffff\n      and\n      dup2\n      mstore\n      0x20\n      add\n      swap1\n      dup2\n      mstore\n      0x20\n      add\n      0x00\n      keccak256\n        /* \"contracts/voting-system/voting.sol\":5291:5322  voters[msg.sender].isRegistered */\n      0x00\n      add\n      0x00\n      swap1\n      sload\n      swap1\n      0x0100\n      exp\n      swap1\n      div\n      0xff\n      and\n        /* \"contracts/voting-system/voting.sol\":5283:5358  require(voters[msg.sender].isRegistered, \"You must be registered to vote.\") */\n      tag_75\n      jumpi\n      mload(0x40)\n      0x08c379a000000000000000000000000000000000000000000000000000000000\n      dup2\n      mstore\n      0x04\n      add\n      tag_76\n      swap1\n      tag_77\n      jump\t// in\n    tag_76:\n      mload(0x40)\n      dup1\n      swap2\n      sub\n      swap1\n      revert\n    tag_75:\n        /* \"contracts/voting-system/voting.sol\":5377:5383  voters */\n      0x02\n        /* \"contracts/voting-system/voting.sol\":5377:5395  voters[msg.sender] */\n      0x00\n        /* \"contracts/voting-system/voting.sol\":5384:5394  msg.sender */\n      caller\n        /* \"contracts/voting-system/voting.sol\":5377:5395  voters[msg.sender] */\n      0xffffffffffffffffffffffffffffffffffffffff\n      and\n      0xffffffffffffffffffffffffffffffffffffffff\n      and\n      dup2\n      mstore\n      0x20\n      add\n      swap1\n      dup2\n      mstore\n      0x20\n      add\n      0x00\n      keccak256\n        /* \"contracts/voting-system/voting.sol\":5377:5404  voters[msg.sender].hasVoted */\n      0x00\n      add\n      0x01\n      swap1\n      sload\n      swap1\n      0x0100\n      exp\n      swap1\n      div\n      0xff\n      and\n        /* \"contracts/voting-system/voting.sol\":5369:5427  require(voters[msg.sender].hasVoted, \"You already voted.\") */\n      tag_78\n      jumpi\n      mload(0x40)\n      0x08c379a000000000000000000000000000000000000000000000000000000000\n      dup2\n      mstore\n      0x04\n      add\n      tag_79\n      swap1\n      tag_80\n      jump\t// in\n    tag_79:\n      mload(0x40)\n      dup1\n      swap2\n      sub\n      swap1\n      revert\n    tag_78:\n        /* \"contracts/voting-system/voting.sol\":5502:5503  0 */\n      0x00\n        /* \"contracts/voting-system/voting.sol\":5452:5466  voterProposals */\n      0x05\n        /* \"contracts/voting-system/voting.sol\":5467:5478  _proposalId */\n      dup3\n        /* \"contracts/voting-system/voting.sol\":5452:5479  voterProposals[_proposalId] */\n      dup2\n      sload\n      dup2\n      lt\n      tag_81\n      jumpi\n      tag_82\n      tag_83\n      jump\t// in\n    tag_82:\n    tag_81:\n      swap1\n      0x00\n      mstore\n      keccak256(0x00, 0x20)\n      swap1\n      0x02\n      mul\n      add\n        /* \"contracts/voting-system/voting.sol\":5452:5491  voterProposals[_proposalId].description */\n      0x00\n      add\n        /* \"contracts/voting-system/voting.sol\":5446:5499  bytes(voterProposals[_proposalId].description).length */\n      dup1\n      sload\n      tag_85\n      swap1\n      tag_86\n      jump\t// in\n    tag_85:\n      swap1\n      pop\n        /* \"contracts/voting-system/voting.sol\":5446:5503  bytes(voterProposals[_proposalId].description).length > 0 */\n      gt\n        /* \"contracts/voting-system/voting.sol\":5438:5538  require(bytes(voterProposals[_proposalId].description).length > 0, \"This proposal does not exists.\") */\n      tag_87\n      jumpi\n      mload(0x40)\n      0x08c379a000000000000000000000000000000000000000000000000000000000\n      dup2\n      mstore\n      0x04\n      add\n      tag_88\n      swap1\n      tag_89\n      jump\t// in\n    tag_88:\n      mload(0x40)\n      dup1\n      swap2\n      sub\n      swap1\n      revert\n    tag_87:\n        /* \"contracts/voting-system/voting.sol\":5596:5607  _proposalId */\n      dup1\n        /* \"contracts/voting-system/voting.sol\":5559:5565  voters */\n      0x02\n        /* \"contracts/voting-system/voting.sol\":5559:5577  voters[msg.sender] */\n      0x00\n        /* \"contracts/voting-system/voting.sol\":5566:5576  msg.sender */\n      caller\n        /* \"contracts/voting-system/voting.sol\":5559:5577  voters[msg.sender] */\n      0xffffffffffffffffffffffffffffffffffffffff\n      and\n      0xffffffffffffffffffffffffffffffffffffffff\n      and\n      dup2\n      mstore\n      0x20\n      add\n      swap1\n      dup2\n      mstore\n      0x20\n      add\n      0x00\n      keccak256\n        /* \"contracts/voting-system/voting.sol\":5559:5593  voters[msg.sender].votedProposalId */\n      0x01\n      add\n        /* \"contracts/voting-system/voting.sol\":5559:5607  voters[msg.sender].votedProposalId = _proposalId */\n      dup2\n      swap1\n      sstore\n      pop\n        /* \"contracts/voting-system/voting.sol\":5648:5652  true */\n      0x01\n        /* \"contracts/voting-system/voting.sol\":5618:5624  voters */\n      0x02\n        /* \"contracts/voting-system/voting.sol\":5618:5636  voters[msg.sender] */\n      0x00\n        /* \"contracts/voting-system/voting.sol\":5625:5635  msg.sender */\n      caller\n        /* \"contracts/voting-system/voting.sol\":5618:5636  voters[msg.sender] */\n      0xffffffffffffffffffffffffffffffffffffffff\n      and\n      0xffffffffffffffffffffffffffffffffffffffff\n      and\n      dup2\n      mstore\n      0x20\n      add\n      swap1\n      dup2\n      mstore\n      0x20\n      add\n      0x00\n      keccak256\n        /* \"contracts/voting-system/voting.sol\":5618:5645  voters[msg.sender].hasVoted */\n      0x00\n      add\n      0x01\n        /* \"contracts/voting-system/voting.sol\":5618:5652  voters[msg.sender].hasVoted = true */\n      0x0100\n      exp\n      dup2\n      sload\n      dup2\n      0xff\n      mul\n      not\n      and\n      swap1\n      dup4\n      iszero\n      iszero\n      mul\n      or\n      swap1\n      sstore\n      pop\n        /* \"contracts/voting-system/voting.sol\":5670:5700  Voted(msg.sender, _proposalId) */\n      0x4d99b957a2bc29a30ebd96a7be8e68fe50a3c701db28a91436490b7d53870ca4\n        /* \"contracts/voting-system/voting.sol\":5676:5686  msg.sender */\n      caller\n        /* \"contracts/voting-system/voting.sol\":5688:5699  _proposalId */\n      dup3\n        /* \"contracts/voting-system/voting.sol\":5670:5700  Voted(msg.sender, _proposalId) */\n      mload(0x40)\n      tag_90\n      swap3\n      swap2\n      swap1\n      tag_91\n      jump\t// in\n    tag_90:\n      mload(0x40)\n      dup1\n      swap2\n      sub\n      swap1\n      log1\n        /* \"contracts/voting-system/voting.sol\":5100:5708  function voterAddVote(uint _proposalId) external{... */\n      pop\n      jump\t// out\n        /* \"contracts/voting-system/voting.sol\":4477:5092  function voterAddProposal(string calldata _description) external {... */\n    tag_25:\n        /* \"contracts/voting-system/voting.sol\":4596:4639  WorkflowStatus.ProposalsRegistrationStarted */\n      0x01\n        /* \"contracts/voting-system/voting.sol\":4571:4639  _currentVotingSession == WorkflowStatus.ProposalsRegistrationStarted */\n      0x05\n      dup2\n      gt\n      iszero\n      tag_93\n      jumpi\n      tag_94\n      tag_57\n      jump\t// in\n    tag_94:\n    tag_93:\n        /* \"contracts/voting-system/voting.sol\":4571:4592  _currentVotingSession */\n      0x06\n      0x00\n      swap1\n      sload\n      swap1\n      0x0100\n      exp\n      swap1\n      div\n      0xff\n      and\n        /* \"contracts/voting-system/voting.sol\":4571:4639  _currentVotingSession == WorkflowStatus.ProposalsRegistrationStarted */\n      0x05\n      dup2\n      gt\n      iszero\n      tag_95\n      jumpi\n      tag_96\n      tag_57\n      jump\t// in\n    tag_96:\n    tag_95:\n      eq\n        /* \"contracts/voting-system/voting.sol\":4563:4689  require(_currentVotingSession == WorkflowStatus.ProposalsRegistrationStarted, \"The proposal registration is not started yet.\") */\n      tag_97\n      jumpi\n      mload(0x40)\n      0x08c379a000000000000000000000000000000000000000000000000000000000\n      dup2\n      mstore\n      0x04\n      add\n      tag_98\n      swap1\n      tag_62\n      jump\t// in\n    tag_98:\n      mload(0x40)\n      dup1\n      swap2\n      sub\n      swap1\n      revert\n    tag_97:\n        /* \"contracts/voting-system/voting.sol\":4708:4714  voters */\n      0x02\n        /* \"contracts/voting-system/voting.sol\":4708:4726  voters[msg.sender] */\n      0x00\n        /* \"contracts/voting-system/voting.sol\":4715:4725  msg.sender */\n      caller\n        /* \"contracts/voting-system/voting.sol\":4708:4726  voters[msg.sender] */\n      0xffffffffffffffffffffffffffffffffffffffff\n      and\n      0xffffffffffffffffffffffffffffffffffffffff\n      and\n      dup2\n      mstore\n      0x20\n      add\n      swap1\n      dup2\n      mstore\n      0x20\n      add\n      0x00\n      keccak256\n        /* \"contracts/voting-system/voting.sol\":4708:4739  voters[msg.sender].isRegistered */\n      0x00\n      add\n      0x00\n      swap1\n      sload\n      swap1\n      0x0100\n      exp\n      swap1\n      div\n      0xff\n      and\n        /* \"contracts/voting-system/voting.sol\":4700:4786  require(voters[msg.sender].isRegistered, \"You must be registered to make a proposal.\") */\n      tag_99\n      jumpi\n      mload(0x40)\n      0x08c379a000000000000000000000000000000000000000000000000000000000\n      dup2\n      mstore\n      0x04\n      add\n      tag_100\n      swap1\n      tag_101\n      jump\t// in\n    tag_100:\n      mload(0x40)\n      dup1\n      swap2\n      sub\n      swap1\n      revert\n    tag_99:\n        /* \"contracts/voting-system/voting.sol\":4834:4835  0 */\n      0x00\n        /* \"contracts/voting-system/voting.sol\":4811:4823  _description */\n      dup3\n      dup3\n        /* \"contracts/voting-system/voting.sol\":4805:4831  bytes(_description).length */\n      swap1\n      pop\n        /* \"contracts/voting-system/voting.sol\":4805:4835  bytes(_description).length > 0 */\n      gt\n        /* \"contracts/voting-system/voting.sol\":4797:4869  require(bytes(_description).length > 0, \"The proposal cannot be empty.\") */\n      tag_102\n      jumpi\n      mload(0x40)\n      0x08c379a000000000000000000000000000000000000000000000000000000000\n      dup2\n      mstore\n      0x04\n      add\n      tag_103\n      swap1\n      tag_104\n      jump\t// in\n    tag_103:\n      mload(0x40)\n      dup1\n      swap2\n      sub\n      swap1\n      revert\n    tag_102:\n        /* \"contracts/voting-system/voting.sol\":4884:4898  voterProposals */\n      0x05\n        /* \"contracts/voting-system/voting.sol\":4904:4929  Proposal(_description, 0) */\n      mload(0x40)\n      dup1\n      0x40\n      add\n      0x40\n      mstore\n      dup1\n        /* \"contracts/voting-system/voting.sol\":4913:4925  _description */\n      dup5\n      dup5\n        /* \"contracts/voting-system/voting.sol\":4904:4929  Proposal(_description, 0) */\n      dup1\n      dup1\n      0x1f\n      add\n      0x20\n      dup1\n      swap2\n      div\n      mul\n      0x20\n      add\n      mload(0x40)\n      swap1\n      dup2\n      add\n      0x40\n      mstore\n      dup1\n      swap4\n      swap3\n      swap2\n      swap1\n      dup2\n      dup2\n      mstore\n      0x20\n      add\n      dup4\n      dup4\n      dup1\n      dup3\n      dup5\n      calldatacopy\n      0x00\n      dup2\n      dup5\n      add\n      mstore\n      not(0x1f)\n      0x1f\n      dup3\n      add\n      and\n      swap1\n      pop\n      dup1\n      dup4\n      add\n      swap3\n      pop\n      pop\n      pop\n      pop\n      pop\n      pop\n      pop\n      dup2\n      mstore\n      0x20\n      add\n        /* \"contracts/voting-system/voting.sol\":4927:4928  0 */\n      0x00\n        /* \"contracts/voting-system/voting.sol\":4904:4929  Proposal(_description, 0) */\n      dup2\n      mstore\n      pop\n        /* \"contracts/voting-system/voting.sol\":4884:4930  voterProposals.push(Proposal(_description, 0)) */\n      swap1\n      dup1\n      0x01\n      dup2\n      sload\n      add\n      dup1\n      dup3\n      sstore\n      dup1\n      swap2\n      pop\n      pop\n      0x01\n      swap1\n      sub\n      swap1\n      0x00\n      mstore\n      keccak256(0x00, 0x20)\n      swap1\n      0x02\n      mul\n      add\n      0x00\n      swap1\n      swap2\n      swap1\n      swap2\n      swap1\n      swap2\n      pop\n      0x00\n      dup3\n      add\n      mload\n      dup2\n      0x00\n      add\n      swap1\n      dup1\n      mload\n      swap1\n      0x20\n      add\n      swap1\n      tag_106\n      swap3\n      swap2\n      swap1\n      tag_107\n      jump\t// in\n    tag_106:\n      pop\n      0x20\n      dup3\n      add\n      mload\n      dup2\n      0x01\n      add\n      sstore\n      pop\n      pop\n        /* \"contracts/voting-system/voting.sol\":4941:4956  uint proposalId */\n      0x00\n        /* \"contracts/voting-system/voting.sol\":4983:4984  1 */\n      0x01\n        /* \"contracts/voting-system/voting.sol\":4959:4973  voterProposals */\n      0x05\n        /* \"contracts/voting-system/voting.sol\":4959:4980  voterProposals.length */\n      dup1\n      sload\n      swap1\n      pop\n        /* \"contracts/voting-system/voting.sol\":4959:4984  voterProposals.length - 1 */\n      tag_108\n      swap2\n      swap1\n      tag_109\n      jump\t// in\n    tag_108:\n        /* \"contracts/voting-system/voting.sol\":4941:4984  uint proposalId = voterProposals.length - 1 */\n      swap1\n      pop\n        /* \"contracts/voting-system/voting.sol\":5026:5036  proposalId */\n      dup1\n        /* \"contracts/voting-system/voting.sol\":4995:5011  voterProposalIds */\n      0x04\n        /* \"contracts/voting-system/voting.sol\":4995:5023  voterProposalIds[msg.sender] */\n      0x00\n        /* \"contracts/voting-system/voting.sol\":5012:5022  msg.sender */\n      caller\n        /* \"contracts/voting-system/voting.sol\":4995:5023  voterProposalIds[msg.sender] */\n      0xffffffffffffffffffffffffffffffffffffffff\n      and\n      0xffffffffffffffffffffffffffffffffffffffff\n      and\n      dup2\n      mstore\n      0x20\n      add\n      swap1\n      dup2\n      mstore\n      0x20\n      add\n      0x00\n      keccak256\n        /* \"contracts/voting-system/voting.sol\":4995:5036  voterProposalIds[msg.sender] = proposalId */\n      dup2\n      swap1\n      sstore\n      pop\n        /* \"contracts/voting-system/voting.sol\":5054:5084  ProposalRegistered(proposalId) */\n      0x92e393e9b54e2f801d3ea4beb0c5e71a21cc34a5d34b77d0fb8a3aa1650dc18f\n        /* \"contracts/voting-system/voting.sol\":5073:5083  proposalId */\n      dup2\n        /* \"contracts/voting-system/voting.sol\":5054:5084  ProposalRegistered(proposalId) */\n      mload(0x40)\n      tag_110\n      swap2\n      swap1\n      tag_111\n      jump\t// in\n    tag_110:\n      mload(0x40)\n      dup1\n      swap2\n      sub\n      swap1\n      log1\n        /* \"contracts/voting-system/voting.sol\":4542:5092  {... */\n      pop\n        /* \"contracts/voting-system/voting.sol\":4477:5092  function voterAddProposal(string calldata _description) external {... */\n      pop\n      pop\n      jump\t// out\n        /* \"https://github.com/OpenZeppelin/openzeppelin-contracts/blob/master/contracts/access/Ownable.sol\":1831:1932  function renounceOwnership() public virtual onlyOwner {... */\n    tag_27:\n        /* \"https://github.com/OpenZeppelin/openzeppelin-contracts/blob/master/contracts/access/Ownable.sol\":1094:1107  _checkOwner() */\n      tag_113\n        /* \"https://github.com/OpenZeppelin/openzeppelin-contracts/blob/master/contracts/access/Ownable.sol\":1094:1105  _checkOwner */\n      tag_53\n        /* \"https://github.com/OpenZeppelin/openzeppelin-contracts/blob/master/contracts/access/Ownable.sol\":1094:1107  _checkOwner() */\n      jump\t// in\n    tag_113:\n        /* \"https://github.com/OpenZeppelin/openzeppelin-contracts/blob/master/contracts/access/Ownable.sol\":1895:1925  _transferOwnership(address(0)) */\n      tag_115\n        /* \"https://github.com/OpenZeppelin/openzeppelin-contracts/blob/master/contracts/access/Ownable.sol\":1922:1923  0 */\n      0x00\n        /* \"https://github.com/OpenZeppelin/openzeppelin-contracts/blob/master/contracts/access/Ownable.sol\":1895:1913  _transferOwnership */\n      tag_116\n        /* \"https://github.com/OpenZeppelin/openzeppelin-contracts/blob/master/contracts/access/Ownable.sol\":1895:1925  _transferOwnership(address(0)) */\n      jump\t// in\n    tag_115:\n        /* \"https://github.com/OpenZeppelin/openzeppelin-contracts/blob/master/contracts/access/Ownable.sol\":1831:1932  function renounceOwnership() public virtual onlyOwner {... */\n      jump\t// out\n        /* \"contracts/voting-system/voting.sol\":1569:1990  function adminStartProposalsSession() external onlyOwner{... */\n    tag_29:\n        /* \"https://github.com/OpenZeppelin/openzeppelin-contracts/blob/master/contracts/access/Ownable.sol\":1094:1107  _checkOwner() */\n      tag_118\n        /* \"https://github.com/OpenZeppelin/openzeppelin-contracts/blob/master/contracts/access/Ownable.sol\":1094:1105  _checkOwner */\n      tag_53\n        /* \"https://github.com/OpenZeppelin/openzeppelin-contracts/blob/master/contracts/access/Ownable.sol\":1094:1107  _checkOwner() */\n      jump\t// in\n    tag_118:\n        /* \"contracts/voting-system/voting.sol\":1670:1671  1 */\n      0x01\n        /* \"contracts/voting-system/voting.sol\":1646:1667  _voterRegisteredCount */\n      sload(0x03)\n        /* \"contracts/voting-system/voting.sol\":1646:1671  _voterRegisteredCount > 1 */\n      gt\n        /* \"contracts/voting-system/voting.sol\":1638:1738  require(_voterRegisteredCount > 1, \"Need at least 2 registered voters to start a proposal session.\") */\n      tag_120\n      jumpi\n      mload(0x40)\n      0x08c379a000000000000000000000000000000000000000000000000000000000\n      dup2\n      mstore\n      0x04\n      add\n      tag_121\n      swap1\n      tag_122\n      jump\t// in\n    tag_121:\n      mload(0x40)\n      dup1\n      swap2\n      sub\n      swap1\n      revert\n    tag_120:\n        /* \"contracts/voting-system/voting.sol\":1774:1803  WorkflowStatus previousStatus */\n      0x00\n        /* \"contracts/voting-system/voting.sol\":1806:1827  _currentVotingSession */\n      0x06\n      0x00\n      swap1\n      sload\n      swap1\n      0x0100\n      exp\n      swap1\n      div\n      0xff\n      and\n        /* \"contracts/voting-system/voting.sol\":1774:1827  WorkflowStatus previousStatus = _currentVotingSession */\n      swap1\n      pop\n        /* \"contracts/voting-system/voting.sol\":1862:1905  WorkflowStatus.ProposalsRegistrationStarted */\n      0x01\n        /* \"contracts/voting-system/voting.sol\":1838:1859  _currentVotingSession */\n      0x06\n      0x00\n        /* \"contracts/voting-system/voting.sol\":1838:1905  _currentVotingSession = WorkflowStatus.ProposalsRegistrationStarted */\n      0x0100\n      exp\n      dup2\n      sload\n      dup2\n      0xff\n      mul\n      not\n      and\n      swap1\n      dup4\n      0x05\n      dup2\n      gt\n      iszero\n      tag_123\n      jumpi\n      tag_124\n      tag_57\n      jump\t// in\n    tag_124:\n    tag_123:\n      mul\n      or\n      swap1\n      sstore\n      pop\n        /* \"contracts/voting-system/voting.sol\":1923:1982  WorkflowStatusChange(previousStatus, _currentVotingSession) */\n      0x0a97a4ee45751e2abf3e4fc8946939630b11b371ea8ae39ccdc3056e98f5cc3f\n        /* \"contracts/voting-system/voting.sol\":1944:1958  previousStatus */\n      dup2\n        /* \"contracts/voting-system/voting.sol\":1960:1981  _currentVotingSession */\n      0x06\n      0x00\n      swap1\n      sload\n      swap1\n      0x0100\n      exp\n      swap1\n      div\n      0xff\n      and\n        /* \"contracts/voting-system/voting.sol\":1923:1982  WorkflowStatusChange(previousStatus, _currentVotingSession) */\n      mload(0x40)\n      tag_125\n      swap3\n      swap2\n      swap1\n      tag_66\n      jump\t// in\n    tag_125:\n      mload(0x40)\n      dup1\n      swap2\n      sub\n      swap1\n      log1\n        /* \"contracts/voting-system/voting.sol\":1625:1990  {... */\n      pop\n        /* \"contracts/voting-system/voting.sol\":1569:1990  function adminStartProposalsSession() external onlyOwner{... */\n      jump\t// out\n        /* \"https://github.com/OpenZeppelin/openzeppelin-contracts/blob/master/contracts/access/Ownable.sol\":1201:1286  function owner() public view virtual returns (address) {... */\n    tag_31:\n        /* \"https://github.com/OpenZeppelin/openzeppelin-contracts/blob/master/contracts/access/Ownable.sol\":1247:1254  address */\n      0x00\n        /* \"https://github.com/OpenZeppelin/openzeppelin-contracts/blob/master/contracts/access/Ownable.sol\":1273:1279  _owner */\n      dup1\n      0x00\n      swap1\n      sload\n      swap1\n      0x0100\n      exp\n      swap1\n      div\n      0xffffffffffffffffffffffffffffffffffffffff\n      and\n        /* \"https://github.com/OpenZeppelin/openzeppelin-contracts/blob/master/contracts/access/Ownable.sol\":1266:1279  return _owner */\n      swap1\n      pop\n        /* \"https://github.com/OpenZeppelin/openzeppelin-contracts/blob/master/contracts/access/Ownable.sol\":1201:1286  function owner() public view virtual returns (address) {... */\n      swap1\n      jump\t// out\n        /* \"contracts/voting-system/voting.sol\":5716:5943  function getWinner() public view returns(Proposal memory) {... */\n    tag_35:\n        /* \"contracts/voting-system/voting.sol\":5757:5772  Proposal memory */\n      tag_127\n      tag_128\n      jump\t// in\n    tag_127:\n        /* \"contracts/voting-system/voting.sol\":5820:5847  WorkflowStatus.VotesTallied */\n      0x05\n        /* \"contracts/voting-system/voting.sol\":5795:5847  _currentVotingSession == WorkflowStatus.VotesTallied */\n      dup1\n      dup2\n      gt\n      iszero\n      tag_130\n      jumpi\n      tag_131\n      tag_57\n      jump\t// in\n    tag_131:\n    tag_130:\n        /* \"contracts/voting-system/voting.sol\":5795:5816  _currentVotingSession */\n      0x06\n      0x00\n      swap1\n      sload\n      swap1\n      0x0100\n      exp\n      swap1\n      div\n      0xff\n      and\n        /* \"contracts/voting-system/voting.sol\":5795:5847  _currentVotingSession == WorkflowStatus.VotesTallied */\n      0x05\n      dup2\n      gt\n      iszero\n      tag_132\n      jumpi\n      tag_133\n      tag_57\n      jump\t// in\n    tag_133:\n    tag_132:\n      eq\n        /* \"contracts/voting-system/voting.sol\":5787:5878  require(_currentVotingSession == WorkflowStatus.VotesTallied, \"The count is not over yet.\") */\n      tag_134\n      jumpi\n      mload(0x40)\n      0x08c379a000000000000000000000000000000000000000000000000000000000\n      dup2\n      mstore\n      0x04\n      add\n      tag_135\n      swap1\n      tag_136\n      jump\t// in\n    tag_135:\n      mload(0x40)\n      dup1\n      swap2\n      sub\n      swap1\n      revert\n    tag_134:\n        /* \"contracts/voting-system/voting.sol\":5902:5916  voterProposals */\n      0x05\n        /* \"contracts/voting-system/voting.sol\":5917:5934  winningProposalId */\n      sload(0x01)\n        /* \"contracts/voting-system/voting.sol\":5902:5935  voterProposals[winningProposalId] */\n      dup2\n      sload\n      dup2\n      lt\n      tag_137\n      jumpi\n      tag_138\n      tag_83\n      jump\t// in\n    tag_138:\n    tag_137:\n      swap1\n      0x00\n      mstore\n      keccak256(0x00, 0x20)\n      swap1\n      0x02\n      mul\n      add\n        /* \"contracts/voting-system/voting.sol\":5895:5935  return voterProposals[winningProposalId] */\n      mload(0x40)\n      dup1\n      0x40\n      add\n      0x40\n      mstore\n      swap1\n      dup2\n      0x00\n      dup3\n      add\n      dup1\n      sload\n      tag_140\n      swap1\n      tag_86\n      jump\t// in\n    tag_140:\n      dup1\n      0x1f\n      add\n      0x20\n      dup1\n      swap2\n      div\n      mul\n      0x20\n      add\n      mload(0x40)\n      swap1\n      dup2\n      add\n      0x40\n      mstore\n      dup1\n      swap3\n      swap2\n      swap1\n      dup2\n      dup2\n      mstore\n      0x20\n      add\n      dup3\n      dup1\n      sload\n      tag_141\n      swap1\n      tag_86\n      jump\t// in\n    tag_141:\n      dup1\n      iszero\n      tag_142\n      jumpi\n      dup1\n      0x1f\n      lt\n      tag_143\n      jumpi\n      0x0100\n      dup1\n      dup4\n      sload\n      div\n      mul\n      dup4\n      mstore\n      swap2\n      0x20\n      add\n      swap2\n      jump(tag_142)\n    tag_143:\n      dup3\n      add\n      swap2\n      swap1\n      0x00\n      mstore\n      keccak256(0x00, 0x20)\n      swap1\n    tag_144:\n      dup2\n      sload\n      dup2\n      mstore\n      swap1\n      0x01\n      add\n      swap1\n      0x20\n      add\n      dup1\n      dup4\n      gt\n      tag_144\n      jumpi\n      dup3\n      swap1\n      sub\n      0x1f\n      and\n      dup3\n      add\n      swap2\n    tag_142:\n      pop\n      pop\n      pop\n      pop\n      pop\n      dup2\n      mstore\n      0x20\n      add\n      0x01\n      dup3\n      add\n      sload\n      dup2\n      mstore\n      pop\n      pop\n      swap1\n      pop\n        /* \"contracts/voting-system/voting.sol\":5716:5943  function getWinner() public view returns(Proposal memory) {... */\n      swap1\n      jump\t// out\n        /* \"contracts/voting-system/voting.sol\":1133:1561  function adminAddRegistered(address _addrVoter) external onlyOwner{... */\n    tag_41:\n        /* \"https://github.com/OpenZeppelin/openzeppelin-contracts/blob/master/contracts/access/Ownable.sol\":1094:1107  _checkOwner() */\n      tag_146\n        /* \"https://github.com/OpenZeppelin/openzeppelin-contracts/blob/master/contracts/access/Ownable.sol\":1094:1105  _checkOwner */\n      tag_53\n        /* \"https://github.com/OpenZeppelin/openzeppelin-contracts/blob/master/contracts/access/Ownable.sol\":1094:1107  _checkOwner() */\n      jump\t// in\n    tag_146:\n        /* \"contracts/voting-system/voting.sol\":1245:1277  WorkflowStatus.RegisteringVoters */\n      0x00\n        /* \"contracts/voting-system/voting.sol\":1220:1277  _currentVotingSession == WorkflowStatus.RegisteringVoters */\n      0x05\n      dup2\n      gt\n      iszero\n      tag_148\n      jumpi\n      tag_149\n      tag_57\n      jump\t// in\n    tag_149:\n    tag_148:\n        /* \"contracts/voting-system/voting.sol\":1220:1241  _currentVotingSession */\n      0x06\n      0x00\n      swap1\n      sload\n      swap1\n      0x0100\n      exp\n      swap1\n      div\n      0xff\n      and\n        /* \"contracts/voting-system/voting.sol\":1220:1277  _currentVotingSession == WorkflowStatus.RegisteringVoters */\n      0x05\n      dup2\n      gt\n      iszero\n      tag_150\n      jumpi\n      tag_151\n      tag_57\n      jump\t// in\n    tag_151:\n    tag_150:\n      eq\n        /* \"contracts/voting-system/voting.sol\":1212:1323  require(_currentVotingSession == WorkflowStatus.RegisteringVoters, \"The registering voters is not opened yet.\") */\n      tag_152\n      jumpi\n      mload(0x40)\n      0x08c379a000000000000000000000000000000000000000000000000000000000\n      dup2\n      mstore\n      0x04\n      add\n      tag_153\n      swap1\n      tag_154\n      jump\t// in\n    tag_153:\n      mload(0x40)\n      dup1\n      swap2\n      sub\n      swap1\n      revert\n    tag_152:\n        /* \"contracts/voting-system/voting.sol\":1343:1349  voters */\n      0x02\n        /* \"contracts/voting-system/voting.sol\":1343:1361  voters[_addrVoter] */\n      0x00\n        /* \"contracts/voting-system/voting.sol\":1350:1360  _addrVoter */\n      dup3\n        /* \"contracts/voting-system/voting.sol\":1343:1361  voters[_addrVoter] */\n      0xffffffffffffffffffffffffffffffffffffffff\n      and\n      0xffffffffffffffffffffffffffffffffffffffff\n      and\n      dup2\n      mstore\n      0x20\n      add\n      swap1\n      dup2\n      mstore\n      0x20\n      add\n      0x00\n      keccak256\n        /* \"contracts/voting-system/voting.sol\":1343:1374  voters[_addrVoter].isRegistered */\n      0x00\n      add\n      0x00\n      swap1\n      sload\n      swap1\n      0x0100\n      exp\n      swap1\n      div\n      0xff\n      and\n        /* \"contracts/voting-system/voting.sol\":1342:1374  !voters[_addrVoter].isRegistered */\n      iszero\n        /* \"contracts/voting-system/voting.sol\":1334:1411  require(!voters[_addrVoter].isRegistered, \"The voter is already registered.\") */\n      tag_155\n      jumpi\n      mload(0x40)\n      0x08c379a000000000000000000000000000000000000000000000000000000000\n      dup2\n      mstore\n      0x04\n      add\n      tag_156\n      swap1\n      tag_157\n      jump\t// in\n    tag_156:\n      mload(0x40)\n      dup1\n      swap2\n      sub\n      swap1\n      revert\n    tag_155:\n        /* \"contracts/voting-system/voting.sol\":1453:1474  Voter(true, false, 0) */\n      mload(0x40)\n      dup1\n      0x60\n      add\n      0x40\n      mstore\n      dup1\n        /* \"contracts/voting-system/voting.sol\":1459:1463  true */\n      0x01\n        /* \"contracts/voting-system/voting.sol\":1453:1474  Voter(true, false, 0) */\n      iszero\n      iszero\n      dup2\n      mstore\n      0x20\n      add\n        /* \"contracts/voting-system/voting.sol\":1465:1470  false */\n      0x00\n        /* \"contracts/voting-system/voting.sol\":1453:1474  Voter(true, false, 0) */\n      iszero\n      iszero\n      dup2\n      mstore\n      0x20\n      add\n        /* \"contracts/voting-system/voting.sol\":1472:1473  0 */\n      0x00\n        /* \"contracts/voting-system/voting.sol\":1453:1474  Voter(true, false, 0) */\n      dup2\n      mstore\n      pop\n        /* \"contracts/voting-system/voting.sol\":1432:1438  voters */\n      0x02\n        /* \"contracts/voting-system/voting.sol\":1432:1450  voters[_addrVoter] */\n      0x00\n        /* \"contracts/voting-system/voting.sol\":1439:1449  _addrVoter */\n      dup4\n        /* \"contracts/voting-system/voting.sol\":1432:1450  voters[_addrVoter] */\n      0xffffffffffffffffffffffffffffffffffffffff\n      and\n      0xffffffffffffffffffffffffffffffffffffffff\n      and\n      dup2\n      mstore\n      0x20\n      add\n      swap1\n      dup2\n      mstore\n      0x20\n      add\n      0x00\n      keccak256\n        /* \"contracts/voting-system/voting.sol\":1432:1474  voters[_addrVoter] = Voter(true, false, 0) */\n      0x00\n      dup3\n      add\n      mload\n      dup2\n      0x00\n      add\n      exp(0x0100, 0x00)\n      dup2\n      sload\n      dup2\n      0xff\n      mul\n      not\n      and\n      swap1\n      dup4\n      iszero\n      iszero\n      mul\n      or\n      swap1\n      sstore\n      pop\n      0x20\n      dup3\n      add\n      mload\n      dup2\n      0x00\n      add\n      exp(0x0100, 0x01)\n      dup2\n      sload\n      dup2\n      0xff\n      mul\n      not\n      and\n      swap1\n      dup4\n      iszero\n      iszero\n      mul\n      or\n      swap1\n      sstore\n      pop\n      0x40\n      dup3\n      add\n      mload\n      dup2\n      0x01\n      add\n      sstore\n      swap1\n      pop\n      pop\n        /* \"contracts/voting-system/voting.sol\":1485:1506  _voterRegisteredCount */\n      0x03\n      0x00\n        /* \"contracts/voting-system/voting.sol\":1485:1508  _voterRegisteredCount++ */\n      dup2\n      sload\n      dup1\n      swap3\n      swap2\n      swap1\n      tag_158\n      swap1\n      tag_159\n      jump\t// in\n    tag_158:\n      swap2\n      swap1\n      pop\n      sstore\n      pop\n        /* \"contracts/voting-system/voting.sol\":1526:1553  VoterRegistered(_addrVoter) */\n      0xb6be2187d059cc2a55fe29e0e503b566e1e0f8c8780096e185429350acffd3dd\n        /* \"contracts/voting-system/voting.sol\":1542:1552  _addrVoter */\n      dup2\n        /* \"contracts/voting-system/voting.sol\":1526:1553  VoterRegistered(_addrVoter) */\n      mload(0x40)\n      tag_160\n      swap2\n      swap1\n      tag_33\n      jump\t// in\n    tag_160:\n      mload(0x40)\n      dup1\n      swap2\n      sub\n      swap1\n      log1\n        /* \"contracts/voting-system/voting.sol\":1133:1561  function adminAddRegistered(address _addrVoter) external onlyOwner{... */\n      pop\n      jump\t// out\n        /* \"contracts/voting-system/voting.sol\":2550:3062  function adminStartVotingSession() external onlyOwner{... */\n    tag_43:\n        /* \"https://github.com/OpenZeppelin/openzeppelin-contracts/blob/master/contracts/access/Ownable.sol\":1094:1107  _checkOwner() */\n      tag_162\n        /* \"https://github.com/OpenZeppelin/openzeppelin-contracts/blob/master/contracts/access/Ownable.sol\":1094:1105  _checkOwner */\n      tag_53\n        /* \"https://github.com/OpenZeppelin/openzeppelin-contracts/blob/master/contracts/access/Ownable.sol\":1094:1107  _checkOwner() */\n      jump\t// in\n    tag_162:\n        /* \"contracts/voting-system/voting.sol\":2649:2690  WorkflowStatus.ProposalsRegistrationEnded */\n      0x02\n        /* \"contracts/voting-system/voting.sol\":2624:2690  _currentVotingSession == WorkflowStatus.ProposalsRegistrationEnded */\n      0x05\n      dup2\n      gt\n      iszero\n      tag_164\n      jumpi\n      tag_165\n      tag_57\n      jump\t// in\n    tag_165:\n    tag_164:\n        /* \"contracts/voting-system/voting.sol\":2624:2645  _currentVotingSession */\n      0x06\n      0x00\n      swap1\n      sload\n      swap1\n      0x0100\n      exp\n      swap1\n      div\n      0xff\n      and\n        /* \"contracts/voting-system/voting.sol\":2624:2690  _currentVotingSession == WorkflowStatus.ProposalsRegistrationEnded */\n      0x05\n      dup2\n      gt\n      iszero\n      tag_166\n      jumpi\n      tag_167\n      tag_57\n      jump\t// in\n    tag_167:\n    tag_166:\n      eq\n        /* \"contracts/voting-system/voting.sol\":2616:2738  require(_currentVotingSession == WorkflowStatus.ProposalsRegistrationEnded, \"The proposal registration is not ended yet.\") */\n      tag_168\n      jumpi\n      mload(0x40)\n      0x08c379a000000000000000000000000000000000000000000000000000000000\n      dup2\n      mstore\n      0x04\n      add\n      tag_169\n      swap1\n      tag_170\n      jump\t// in\n    tag_169:\n      mload(0x40)\n      dup1\n      swap2\n      sub\n      swap1\n      revert\n    tag_168:\n        /* \"contracts/voting-system/voting.sol\":2781:2782  1 */\n      0x01\n        /* \"contracts/voting-system/voting.sol\":2757:2771  voterProposals */\n      0x05\n        /* \"contracts/voting-system/voting.sol\":2757:2778  voterProposals.length */\n      dup1\n      sload\n      swap1\n      pop\n        /* \"contracts/voting-system/voting.sol\":2757:2782  voterProposals.length > 1 */\n      gt\n        /* \"contracts/voting-system/voting.sol\":2749:2841  require(voterProposals.length > 1, \"Need at least two proposals to start a voting session.\") */\n      tag_171\n      jumpi\n      mload(0x40)\n      0x08c379a000000000000000000000000000000000000000000000000000000000\n      dup2\n      mstore\n      0x04\n      add\n      tag_172\n      swap1\n      tag_173\n      jump\t// in\n    tag_172:\n      mload(0x40)\n      dup1\n      swap2\n      sub\n      swap1\n      revert\n    tag_171:\n        /* \"contracts/voting-system/voting.sol\":2854:2883  WorkflowStatus previousStatus */\n      0x00\n        /* \"contracts/voting-system/voting.sol\":2886:2907  _currentVotingSession */\n      0x06\n      0x00\n      swap1\n      sload\n      swap1\n      0x0100\n      exp\n      swap1\n      div\n      0xff\n      and\n        /* \"contracts/voting-system/voting.sol\":2854:2907  WorkflowStatus previousStatus = _currentVotingSession */\n      swap1\n      pop\n        /* \"contracts/voting-system/voting.sol\":2942:2977  WorkflowStatus.VotingSessionStarted */\n      0x03\n        /* \"contracts/voting-system/voting.sol\":2918:2939  _currentVotingSession */\n      0x06\n      0x00\n        /* \"contracts/voting-system/voting.sol\":2918:2977  _currentVotingSession = WorkflowStatus.VotingSessionStarted */\n      0x0100\n      exp\n      dup2\n      sload\n      dup2\n      0xff\n      mul\n      not\n      and\n      swap1\n      dup4\n      0x05\n      dup2\n      gt\n      iszero\n      tag_174\n      jumpi\n      tag_175\n      tag_57\n      jump\t// in\n    tag_175:\n    tag_174:\n      mul\n      or\n      swap1\n      sstore\n      pop\n        /* \"contracts/voting-system/voting.sol\":2995:3054  WorkflowStatusChange(previousStatus, _currentVotingSession) */\n      0x0a97a4ee45751e2abf3e4fc8946939630b11b371ea8ae39ccdc3056e98f5cc3f\n        /* \"contracts/voting-system/voting.sol\":3016:3030  previousStatus */\n      dup2\n        /* \"contracts/voting-system/voting.sol\":3032:3053  _currentVotingSession */\n      0x06\n      0x00\n      swap1\n      sload\n      swap1\n      0x0100\n      exp\n      swap1\n      div\n      0xff\n      and\n        /* \"contracts/voting-system/voting.sol\":2995:3054  WorkflowStatusChange(previousStatus, _currentVotingSession) */\n      mload(0x40)\n      tag_176\n      swap3\n      swap2\n      swap1\n      tag_66\n      jump\t// in\n    tag_176:\n      mload(0x40)\n      dup1\n      swap2\n      sub\n      swap1\n      log1\n        /* \"contracts/voting-system/voting.sol\":2603:3062  {... */\n      pop\n        /* \"contracts/voting-system/voting.sol\":2550:3062  function adminStartVotingSession() external onlyOwner{... */\n      jump\t// out\n        /* \"contracts/voting-system/voting.sol\":3076:3820  function adminStopVotingSession() external onlyOwner{... */\n    tag_45:\n        /* \"https://github.com/OpenZeppelin/openzeppelin-contracts/blob/master/contracts/access/Ownable.sol\":1094:1107  _checkOwner() */\n      tag_178\n        /* \"https://github.com/OpenZeppelin/openzeppelin-contracts/blob/master/contracts/access/Ownable.sol\":1094:1105  _checkOwner */\n      tag_53\n        /* \"https://github.com/OpenZeppelin/openzeppelin-contracts/blob/master/contracts/access/Ownable.sol\":1094:1107  _checkOwner() */\n      jump\t// in\n    tag_178:\n        /* \"contracts/voting-system/voting.sol\":3174:3209  WorkflowStatus.VotingSessionStarted */\n      0x03\n        /* \"contracts/voting-system/voting.sol\":3149:3209  _currentVotingSession == WorkflowStatus.VotingSessionStarted */\n      0x05\n      dup2\n      gt\n      iszero\n      tag_180\n      jumpi\n      tag_181\n      tag_57\n      jump\t// in\n    tag_181:\n    tag_180:\n        /* \"contracts/voting-system/voting.sol\":3149:3170  _currentVotingSession */\n      0x06\n      0x00\n      swap1\n      sload\n      swap1\n      0x0100\n      exp\n      swap1\n      div\n      0xff\n      and\n        /* \"contracts/voting-system/voting.sol\":3149:3209  _currentVotingSession == WorkflowStatus.VotingSessionStarted */\n      0x05\n      dup2\n      gt\n      iszero\n      tag_182\n      jumpi\n      tag_183\n      tag_57\n      jump\t// in\n    tag_183:\n    tag_182:\n      eq\n        /* \"contracts/voting-system/voting.sol\":3141:3252  require(_currentVotingSession == WorkflowStatus.VotingSessionStarted, \"The voting session is not started yet.\") */\n      tag_184\n      jumpi\n      mload(0x40)\n      0x08c379a000000000000000000000000000000000000000000000000000000000\n      dup2\n      mstore\n      0x04\n      add\n      tag_185\n      swap1\n      tag_74\n      jump\t// in\n    tag_185:\n      mload(0x40)\n      dup1\n      swap2\n      sub\n      swap1\n      revert\n    tag_184:\n        /* \"contracts/voting-system/voting.sol\":3297:3315  uint256 votesCount */\n      0x00\n        /* \"contracts/voting-system/voting.sol\":3334:3340  uint i */\n      dup1\n        /* \"contracts/voting-system/voting.sol\":3330:3499  for(uint i=0; i < voterProposals.length; i++){... */\n    tag_186:\n        /* \"contracts/voting-system/voting.sol\":3348:3362  voterProposals */\n      0x05\n        /* \"contracts/voting-system/voting.sol\":3348:3369  voterProposals.length */\n      dup1\n      sload\n      swap1\n      pop\n        /* \"contracts/voting-system/voting.sol\":3344:3345  i */\n      dup2\n        /* \"contracts/voting-system/voting.sol\":3344:3369  i < voterProposals.length */\n      lt\n        /* \"contracts/voting-system/voting.sol\":3330:3499  for(uint i=0; i < voterProposals.length; i++){... */\n      iszero\n      tag_187\n      jumpi\n        /* \"contracts/voting-system/voting.sol\":3404:3418  voterProposals */\n      0x05\n        /* \"contracts/voting-system/voting.sol\":3419:3420  i */\n      dup2\n        /* \"contracts/voting-system/voting.sol\":3404:3421  voterProposals[i] */\n      dup2\n      sload\n      dup2\n      lt\n      tag_189\n      jumpi\n      tag_190\n      tag_83\n      jump\t// in\n    tag_190:\n    tag_189:\n      swap1\n      0x00\n      mstore\n      keccak256(0x00, 0x20)\n      swap1\n      0x02\n      mul\n      add\n        /* \"contracts/voting-system/voting.sol\":3404:3431  voterProposals[i].voteCount */\n      0x01\n      add\n      sload\n        /* \"contracts/voting-system/voting.sol\":3390:3431  votesCount += voterProposals[i].voteCount */\n      dup3\n      tag_192\n      swap2\n      swap1\n      tag_193\n      jump\t// in\n    tag_192:\n      swap2\n      pop\n        /* \"contracts/voting-system/voting.sol\":3462:3463  0 */\n      0x00\n        /* \"contracts/voting-system/voting.sol\":3449:3459  votesCount */\n      dup3\n        /* \"contracts/voting-system/voting.sol\":3449:3463  votesCount > 0 */\n      gt\n        /* \"contracts/voting-system/voting.sol\":3482:3487  break */\n      tag_187\n        /* \"contracts/voting-system/voting.sol\":3446:3487  if(votesCount > 0)... */\n      jumpi\n        /* \"contracts/voting-system/voting.sol\":3371:3374  i++ */\n      dup1\n      dup1\n      tag_195\n      swap1\n      tag_159\n      jump\t// in\n    tag_195:\n      swap2\n      pop\n      pop\n        /* \"contracts/voting-system/voting.sol\":3330:3499  for(uint i=0; i < voterProposals.length; i++){... */\n      jump(tag_186)\n    tag_187:\n      pop\n        /* \"contracts/voting-system/voting.sol\":3532:3533  0 */\n      0x00\n        /* \"contracts/voting-system/voting.sol\":3519:3529  votesCount */\n      dup2\n        /* \"contracts/voting-system/voting.sol\":3519:3533  votesCount > 0 */\n      gt\n        /* \"contracts/voting-system/voting.sol\":3511:3601  require(votesCount > 0, \"Need at least one vote in a proprosal to stop a voting session.\") */\n      tag_196\n      jumpi\n      mload(0x40)\n      0x08c379a000000000000000000000000000000000000000000000000000000000\n      dup2\n      mstore\n      0x04\n      add\n      tag_197\n      swap1\n      tag_198\n      jump\t// in\n    tag_197:\n      mload(0x40)\n      dup1\n      swap2\n      sub\n      swap1\n      revert\n    tag_196:\n        /* \"contracts/voting-system/voting.sol\":3614:3643  WorkflowStatus previousStatus */\n      0x00\n        /* \"contracts/voting-system/voting.sol\":3646:3667  _currentVotingSession */\n      0x06\n      0x00\n      swap1\n      sload\n      swap1\n      0x0100\n      exp\n      swap1\n      div\n      0xff\n      and\n        /* \"contracts/voting-system/voting.sol\":3614:3667  WorkflowStatus previousStatus = _currentVotingSession */\n      swap1\n      pop\n        /* \"contracts/voting-system/voting.sol\":3702:3735  WorkflowStatus.VotingSessionEnded */\n      0x04\n        /* \"contracts/voting-system/voting.sol\":3678:3699  _currentVotingSession */\n      0x06\n      0x00\n        /* \"contracts/voting-system/voting.sol\":3678:3735  _currentVotingSession = WorkflowStatus.VotingSessionEnded */\n      0x0100\n      exp\n      dup2\n      sload\n      dup2\n      0xff\n      mul\n      not\n      and\n      swap1\n      dup4\n      0x05\n      dup2\n      gt\n      iszero\n      tag_199\n      jumpi\n      tag_200\n      tag_57\n      jump\t// in\n    tag_200:\n    tag_199:\n      mul\n      or\n      swap1\n      sstore\n      pop\n        /* \"contracts/voting-system/voting.sol\":3753:3812  WorkflowStatusChange(previousStatus, _currentVotingSession) */\n      0x0a97a4ee45751e2abf3e4fc8946939630b11b371ea8ae39ccdc3056e98f5cc3f\n        /* \"contracts/voting-system/voting.sol\":3774:3788  previousStatus */\n      dup2\n        /* \"contracts/voting-system/voting.sol\":3790:3811  _currentVotingSession */\n      0x06\n      0x00\n      swap1\n      sload\n      swap1\n      0x0100\n      exp\n      swap1\n      div\n      0xff\n      and\n        /* \"contracts/voting-system/voting.sol\":3753:3812  WorkflowStatusChange(previousStatus, _currentVotingSession) */\n      mload(0x40)\n      tag_201\n      swap3\n      swap2\n      swap1\n      tag_66\n      jump\t// in\n    tag_201:\n      mload(0x40)\n      dup1\n      swap2\n      sub\n      swap1\n      log1\n        /* \"contracts/voting-system/voting.sol\":3128:3820  {... */\n      pop\n      pop\n        /* \"contracts/voting-system/voting.sol\":3076:3820  function adminStopVotingSession() external onlyOwner{... */\n      jump\t// out\n        /* \"contracts/voting-system/voting.sol\":3828:4465  function adminTallyVotes() external onlyOwner{... */\n    tag_47:\n        /* \"https://github.com/OpenZeppelin/openzeppelin-contracts/blob/master/contracts/access/Ownable.sol\":1094:1107  _checkOwner() */\n      tag_203\n        /* \"https://github.com/OpenZeppelin/openzeppelin-contracts/blob/master/contracts/access/Ownable.sol\":1094:1105  _checkOwner */\n      tag_53\n        /* \"https://github.com/OpenZeppelin/openzeppelin-contracts/blob/master/contracts/access/Ownable.sol\":1094:1107  _checkOwner() */\n      jump\t// in\n    tag_203:\n        /* \"contracts/voting-system/voting.sol\":3917:3950  WorkflowStatus.VotingSessionEnded */\n      0x04\n        /* \"contracts/voting-system/voting.sol\":3892:3950  _currentVotingSession == WorkflowStatus.VotingSessionEnded */\n      0x05\n      dup2\n      gt\n      iszero\n      tag_205\n      jumpi\n      tag_206\n      tag_57\n      jump\t// in\n    tag_206:\n    tag_205:\n        /* \"contracts/voting-system/voting.sol\":3892:3913  _currentVotingSession */\n      0x06\n      0x00\n      swap1\n      sload\n      swap1\n      0x0100\n      exp\n      swap1\n      div\n      0xff\n      and\n        /* \"contracts/voting-system/voting.sol\":3892:3950  _currentVotingSession == WorkflowStatus.VotingSessionEnded */\n      0x05\n      dup2\n      gt\n      iszero\n      tag_207\n      jumpi\n      tag_208\n      tag_57\n      jump\t// in\n    tag_208:\n    tag_207:\n      eq\n        /* \"contracts/voting-system/voting.sol\":3884:4000  require(_currentVotingSession == WorkflowStatus.VotingSessionEnded, \"The proposal registration is not started yet.\") */\n      tag_209\n      jumpi\n      mload(0x40)\n      0x08c379a000000000000000000000000000000000000000000000000000000000\n      dup2\n      mstore\n      0x04\n      add\n      tag_210\n      swap1\n      tag_62\n      jump\t// in\n    tag_210:\n      mload(0x40)\n      dup1\n      swap2\n      sub\n      swap1\n      revert\n    tag_209:\n        /* \"contracts/voting-system/voting.sol\":4047:4065  uint256 votesCount */\n      0x00\n        /* \"contracts/voting-system/voting.sol\":4084:4090  uint i */\n      dup1\n        /* \"contracts/voting-system/voting.sol\":4080:4253  for(uint i=0; i < voterProposals.length; i++){... */\n    tag_211:\n        /* \"contracts/voting-system/voting.sol\":4098:4112  voterProposals */\n      0x05\n        /* \"contracts/voting-system/voting.sol\":4098:4119  voterProposals.length */\n      dup1\n      sload\n      swap1\n      pop\n        /* \"contracts/voting-system/voting.sol\":4094:4095  i */\n      dup2\n        /* \"contracts/voting-system/voting.sol\":4094:4119  i < voterProposals.length */\n      lt\n        /* \"contracts/voting-system/voting.sol\":4080:4253  for(uint i=0; i < voterProposals.length; i++){... */\n      iszero\n      tag_212\n      jumpi\n        /* \"contracts/voting-system/voting.sol\":4175:4185  votesCount */\n      dup2\n        /* \"contracts/voting-system/voting.sol\":4145:4159  voterProposals */\n      0x05\n        /* \"contracts/voting-system/voting.sol\":4160:4161  i */\n      dup3\n        /* \"contracts/voting-system/voting.sol\":4145:4162  voterProposals[i] */\n      dup2\n      sload\n      dup2\n      lt\n      tag_214\n      jumpi\n      tag_215\n      tag_83\n      jump\t// in\n    tag_215:\n    tag_214:\n      swap1\n      0x00\n      mstore\n      keccak256(0x00, 0x20)\n      swap1\n      0x02\n      mul\n      add\n        /* \"contracts/voting-system/voting.sol\":4145:4172  voterProposals[i].voteCount */\n      0x01\n      add\n      sload\n        /* \"contracts/voting-system/voting.sol\":4145:4185  voterProposals[i].voteCount > votesCount */\n      gt\n        /* \"contracts/voting-system/voting.sol\":4142:4242  if(voterProposals[i].voteCount > votesCount){... */\n      iszero\n      tag_217\n      jumpi\n        /* \"contracts/voting-system/voting.sol\":4225:4226  i */\n      dup1\n        /* \"contracts/voting-system/voting.sol\":4205:4222  winningProposalId */\n      0x01\n        /* \"contracts/voting-system/voting.sol\":4205:4226  winningProposalId = i */\n      dup2\n      swap1\n      sstore\n      pop\n        /* \"contracts/voting-system/voting.sol\":4142:4242  if(voterProposals[i].voteCount > votesCount){... */\n    tag_217:\n        /* \"contracts/voting-system/voting.sol\":4121:4124  i++ */\n      dup1\n      dup1\n      tag_218\n      swap1\n      tag_159\n      jump\t// in\n    tag_218:\n      swap2\n      pop\n      pop\n        /* \"contracts/voting-system/voting.sol\":4080:4253  for(uint i=0; i < voterProposals.length; i++){... */\n      jump(tag_211)\n    tag_212:\n      pop\n        /* \"contracts/voting-system/voting.sol\":4265:4294  WorkflowStatus previousStatus */\n      0x00\n        /* \"contracts/voting-system/voting.sol\":4297:4318  _currentVotingSession */\n      0x06\n      0x00\n      swap1\n      sload\n      swap1\n      0x0100\n      exp\n      swap1\n      div\n      0xff\n      and\n        /* \"contracts/voting-system/voting.sol\":4265:4318  WorkflowStatus previousStatus = _currentVotingSession */\n      swap1\n      pop\n        /* \"contracts/voting-system/voting.sol\":4353:4380  WorkflowStatus.VotesTallied */\n      0x05\n        /* \"contracts/voting-system/voting.sol\":4329:4350  _currentVotingSession */\n      0x06\n      0x00\n        /* \"contracts/voting-system/voting.sol\":4329:4380  _currentVotingSession = WorkflowStatus.VotesTallied */\n      0x0100\n      exp\n      dup2\n      sload\n      dup2\n      0xff\n      mul\n      not\n      and\n      swap1\n      dup4\n      0x05\n      dup2\n      gt\n      iszero\n      tag_219\n      jumpi\n      tag_220\n      tag_57\n      jump\t// in\n    tag_220:\n    tag_219:\n      mul\n      or\n      swap1\n      sstore\n      pop\n        /* \"contracts/voting-system/voting.sol\":4398:4457  WorkflowStatusChange(previousStatus, _currentVotingSession) */\n      0x0a97a4ee45751e2abf3e4fc8946939630b11b371ea8ae39ccdc3056e98f5cc3f\n        /* \"contracts/voting-system/voting.sol\":4419:4433  previousStatus */\n      dup2\n        /* \"contracts/voting-system/voting.sol\":4435:4456  _currentVotingSession */\n      0x06\n      0x00\n      swap1\n      sload\n      swap1\n      0x0100\n      exp\n      swap1\n      div\n      0xff\n      and\n        /* \"contracts/voting-system/voting.sol\":4398:4457  WorkflowStatusChange(previousStatus, _currentVotingSession) */\n      mload(0x40)\n      tag_221\n      swap3\n      swap2\n      swap1\n      tag_66\n      jump\t// in\n    tag_221:\n      mload(0x40)\n      dup1\n      swap2\n      sub\n      swap1\n      log1\n        /* \"contracts/voting-system/voting.sol\":3873:4465  {... */\n      pop\n      pop\n        /* \"contracts/voting-system/voting.sol\":3828:4465  function adminTallyVotes() external onlyOwner{... */\n      jump\t// out\n        /* \"https://github.com/OpenZeppelin/openzeppelin-contracts/blob/master/contracts/access/Ownable.sol\":2081:2279  function transferOwnership(address newOwner) public virtual onlyOwner {... */\n    tag_50:\n        /* \"https://github.com/OpenZeppelin/openzeppelin-contracts/blob/master/contracts/access/Ownable.sol\":1094:1107  _checkOwner() */\n      tag_223\n        /* \"https://github.com/OpenZeppelin/openzeppelin-contracts/blob/master/contracts/access/Ownable.sol\":1094:1105  _checkOwner */\n      tag_53\n        /* \"https://github.com/OpenZeppelin/openzeppelin-contracts/blob/master/contracts/access/Ownable.sol\":1094:1107  _checkOwner() */\n      jump\t// in\n    tag_223:\n        /* \"https://github.com/OpenZeppelin/openzeppelin-contracts/blob/master/contracts/access/Ownable.sol\":2189:2190  0 */\n      0x00\n        /* \"https://github.com/OpenZeppelin/openzeppelin-contracts/blob/master/contracts/access/Ownable.sol\":2169:2191  newOwner != address(0) */\n      0xffffffffffffffffffffffffffffffffffffffff\n      and\n        /* \"https://github.com/OpenZeppelin/openzeppelin-contracts/blob/master/contracts/access/Ownable.sol\":2169:2177  newOwner */\n      dup2\n        /* \"https://github.com/OpenZeppelin/openzeppelin-contracts/blob/master/contracts/access/Ownable.sol\":2169:2191  newOwner != address(0) */\n      0xffffffffffffffffffffffffffffffffffffffff\n      and\n      sub\n        /* \"https://github.com/OpenZeppelin/openzeppelin-contracts/blob/master/contracts/access/Ownable.sol\":2161:2234  require(newOwner != address(0), \"Ownable: new owner is the zero address\") */\n      tag_225\n      jumpi\n      mload(0x40)\n      0x08c379a000000000000000000000000000000000000000000000000000000000\n      dup2\n      mstore\n      0x04\n      add\n      tag_226\n      swap1\n      tag_227\n      jump\t// in\n    tag_226:\n      mload(0x40)\n      dup1\n      swap2\n      sub\n      swap1\n      revert\n    tag_225:\n        /* \"https://github.com/OpenZeppelin/openzeppelin-contracts/blob/master/contracts/access/Ownable.sol\":2244:2272  _transferOwnership(newOwner) */\n      tag_228\n        /* \"https://github.com/OpenZeppelin/openzeppelin-contracts/blob/master/contracts/access/Ownable.sol\":2263:2271  newOwner */\n      dup2\n        /* \"https://github.com/OpenZeppelin/openzeppelin-contracts/blob/master/contracts/access/Ownable.sol\":2244:2262  _transferOwnership */\n      tag_116\n        /* \"https://github.com/OpenZeppelin/openzeppelin-contracts/blob/master/contracts/access/Ownable.sol\":2244:2272  _transferOwnership(newOwner) */\n      jump\t// in\n    tag_228:\n        /* \"https://github.com/OpenZeppelin/openzeppelin-contracts/blob/master/contracts/access/Ownable.sol\":2081:2279  function transferOwnership(address newOwner) public virtual onlyOwner {... */\n      pop\n      jump\t// out\n        /* \"https://github.com/OpenZeppelin/openzeppelin-contracts/blob/master/contracts/access/Ownable.sol\":1359:1489  function _checkOwner() internal view virtual {... */\n    tag_53:\n        /* \"https://github.com/OpenZeppelin/openzeppelin-contracts/blob/master/contracts/access/Ownable.sol\":1433:1445  _msgSender() */\n      tag_230\n        /* \"https://github.com/OpenZeppelin/openzeppelin-contracts/blob/master/contracts/access/Ownable.sol\":1433:1443  _msgSender */\n      tag_231\n        /* \"https://github.com/OpenZeppelin/openzeppelin-contracts/blob/master/contracts/access/Ownable.sol\":1433:1445  _msgSender() */\n      jump\t// in\n    tag_230:\n        /* \"https://github.com/OpenZeppelin/openzeppelin-contracts/blob/master/contracts/access/Ownable.sol\":1422:1445  owner() == _msgSender() */\n      0xffffffffffffffffffffffffffffffffffffffff\n      and\n        /* \"https://github.com/OpenZeppelin/openzeppelin-contracts/blob/master/contracts/access/Ownable.sol\":1422:1429  owner() */\n      tag_232\n        /* \"https://github.com/OpenZeppelin/openzeppelin-contracts/blob/master/contracts/access/Ownable.sol\":1422:1427  owner */\n      tag_31\n        /* \"https://github.com/OpenZeppelin/openzeppelin-contracts/blob/master/contracts/access/Ownable.sol\":1422:1429  owner() */\n      jump\t// in\n    tag_232:\n        /* \"https://github.com/OpenZeppelin/openzeppelin-contracts/blob/master/contracts/access/Ownable.sol\":1422:1445  owner() == _msgSender() */\n      0xffffffffffffffffffffffffffffffffffffffff\n      and\n      eq\n        /* \"https://github.com/OpenZeppelin/openzeppelin-contracts/blob/master/contracts/access/Ownable.sol\":1414:1482  require(owner() == _msgSender(), \"Ownable: caller is not the owner\") */\n      tag_233\n      jumpi\n      mload(0x40)\n      0x08c379a000000000000000000000000000000000000000000000000000000000\n      dup2\n      mstore\n      0x04\n      add\n      tag_234\n      swap1\n      tag_235\n      jump\t// in\n    tag_234:\n      mload(0x40)\n      dup1\n      swap2\n      sub\n      swap1\n      revert\n    tag_233:\n        /* \"https://github.com/OpenZeppelin/openzeppelin-contracts/blob/master/contracts/access/Ownable.sol\":1359:1489  function _checkOwner() internal view virtual {... */\n      jump\t// out\n        /* \"https://github.com/OpenZeppelin/openzeppelin-contracts/blob/master/contracts/access/Ownable.sol\":2433:2620  function _transferOwnership(address newOwner) internal virtual {... */\n    tag_116:\n        /* \"https://github.com/OpenZeppelin/openzeppelin-contracts/blob/master/contracts/access/Ownable.sol\":2506:2522  address oldOwner */\n      0x00\n        /* \"https://github.com/OpenZeppelin/openzeppelin-contracts/blob/master/contracts/access/Ownable.sol\":2525:2531  _owner */\n      dup1\n      0x00\n      swap1\n      sload\n      swap1\n      0x0100\n      exp\n      swap1\n      div\n      0xffffffffffffffffffffffffffffffffffffffff\n      and\n        /* \"https://github.com/OpenZeppelin/openzeppelin-contracts/blob/master/contracts/access/Ownable.sol\":2506:2531  address oldOwner = _owner */\n      swap1\n      pop\n        /* \"https://github.com/OpenZeppelin/openzeppelin-contracts/blob/master/contracts/access/Ownable.sol\":2550:2558  newOwner */\n      dup2\n        /* \"https://github.com/OpenZeppelin/openzeppelin-contracts/blob/master/contracts/access/Ownable.sol\":2541:2547  _owner */\n      0x00\n      dup1\n        /* \"https://github.com/OpenZeppelin/openzeppelin-contracts/blob/master/contracts/access/Ownable.sol\":2541:2558  _owner = newOwner */\n      0x0100\n      exp\n      dup2\n      sload\n      dup2\n      0xffffffffffffffffffffffffffffffffffffffff\n      mul\n      not\n      and\n      swap1\n      dup4\n      0xffffffffffffffffffffffffffffffffffffffff\n      and\n      mul\n      or\n      swap1\n      sstore\n      pop\n        /* \"https://github.com/OpenZeppelin/openzeppelin-contracts/blob/master/contracts/access/Ownable.sol\":2604:2612  newOwner */\n      dup2\n        /* \"https://github.com/OpenZeppelin/openzeppelin-contracts/blob/master/contracts/access/Ownable.sol\":2573:2613  OwnershipTransferred(oldOwner, newOwner) */\n      0xffffffffffffffffffffffffffffffffffffffff\n      and\n        /* \"https://github.com/OpenZeppelin/openzeppelin-contracts/blob/master/contracts/access/Ownable.sol\":2594:2602  oldOwner */\n      dup2\n        /* \"https://github.com/OpenZeppelin/openzeppelin-contracts/blob/master/contracts/access/Ownable.sol\":2573:2613  OwnershipTransferred(oldOwner, newOwner) */\n      0xffffffffffffffffffffffffffffffffffffffff\n      and\n      0x8be0079c531659141344cd1fd0a4f28419497f9722a3daafe3b4186f6b6457e0\n      mload(0x40)\n      mload(0x40)\n      dup1\n      swap2\n      sub\n      swap1\n      log3\n        /* \"https://github.com/OpenZeppelin/openzeppelin-contracts/blob/master/contracts/access/Ownable.sol\":2496:2620  {... */\n      pop\n        /* \"https://github.com/OpenZeppelin/openzeppelin-contracts/blob/master/contracts/access/Ownable.sol\":2433:2620  function _transferOwnership(address newOwner) internal virtual {... */\n      pop\n      jump\t// out\n        /* \"https://github.com/OpenZeppelin/openzeppelin-contracts/blob/master/contracts/utils/Context.sol\":640:736  function _msgSender() internal view virtual returns (address) {... */\n    tag_231:\n        /* \"https://github.com/OpenZeppelin/openzeppelin-contracts/blob/master/contracts/utils/Context.sol\":693:700  address */\n      0x00\n        /* \"https://github.com/OpenZeppelin/openzeppelin-contracts/blob/master/contracts/utils/Context.sol\":719:729  msg.sender */\n      caller\n        /* \"https://github.com/OpenZeppelin/openzeppelin-contracts/blob/master/contracts/utils/Context.sol\":712:729  return msg.sender */\n      swap1\n      pop\n        /* \"https://github.com/OpenZeppelin/openzeppelin-contracts/blob/master/contracts/utils/Context.sol\":640:736  function _msgSender() internal view virtual returns (address) {... */\n      swap1\n      jump\t// out\n    tag_107:\n      dup3\n      dup1\n      sload\n      tag_238\n      swap1\n      tag_86\n      jump\t// in\n    tag_238:\n      swap1\n      0x00\n      mstore\n      keccak256(0x00, 0x20)\n      swap1\n      0x1f\n      add\n      0x20\n      swap1\n      div\n      dup2\n      add\n      swap3\n      dup3\n      tag_240\n      jumpi\n      0x00\n      dup6\n      sstore\n      jump(tag_239)\n    tag_240:\n      dup3\n      0x1f\n      lt\n      tag_241\n      jumpi\n      dup1\n      mload\n      not(0xff)\n      and\n      dup4\n      dup1\n      add\n      or\n      dup6\n      sstore\n      jump(tag_239)\n    tag_241:\n      dup3\n      dup1\n      add\n      0x01\n      add\n      dup6\n      sstore\n      dup3\n      iszero\n      tag_239\n      jumpi\n      swap2\n      dup3\n      add\n    tag_242:\n      dup3\n      dup2\n      gt\n      iszero\n      tag_243\n      jumpi\n      dup3\n      mload\n      dup3\n      sstore\n      swap2\n      0x20\n      add\n      swap2\n      swap1\n      0x01\n      add\n      swap1\n      jump(tag_242)\n    tag_243:\n    tag_239:\n      pop\n      swap1\n      pop\n      tag_244\n      swap2\n      swap1\n      tag_245\n      jump\t// in\n    tag_244:\n      pop\n      swap1\n      jump\t// out\n    tag_128:\n      mload(0x40)\n      dup1\n      0x40\n      add\n      0x40\n      mstore\n      dup1\n      0x60\n      dup2\n      mstore\n      0x20\n      add\n      0x00\n      dup2\n      mstore\n      pop\n      swap1\n      jump\t// out\n    tag_245:\n    tag_246:\n      dup1\n      dup3\n      gt\n      iszero\n      tag_247\n      jumpi\n      0x00\n      dup2\n      0x00\n      swap1\n      sstore\n      pop\n      0x01\n      add\n      jump(tag_246)\n    tag_247:\n      pop\n      swap1\n      jump\t// out\n        /* \"#utility.yul\":88:205   */\n    tag_249:\n        /* \"#utility.yul\":197:198   */\n      0x00\n        /* \"#utility.yul\":194:195   */\n      dup1\n        /* \"#utility.yul\":187:199   */\n      revert\n        /* \"#utility.yul\":211:328   */\n    tag_250:\n        /* \"#utility.yul\":320:321   */\n      0x00\n        /* \"#utility.yul\":317:318   */\n      dup1\n        /* \"#utility.yul\":310:322   */\n      revert\n        /* \"#utility.yul\":334:411   */\n    tag_251:\n        /* \"#utility.yul\":371:378   */\n      0x00\n        /* \"#utility.yul\":400:405   */\n      dup2\n        /* \"#utility.yul\":389:405   */\n      swap1\n      pop\n        /* \"#utility.yul\":334:411   */\n      swap2\n      swap1\n      pop\n      jump\t// out\n        /* \"#utility.yul\":417:539   */\n    tag_252:\n        /* \"#utility.yul\":490:514   */\n      tag_316\n        /* \"#utility.yul\":508:513   */\n      dup2\n        /* \"#utility.yul\":490:514   */\n      tag_251\n      jump\t// in\n    tag_316:\n        /* \"#utility.yul\":483:488   */\n      dup2\n        /* \"#utility.yul\":480:515   */\n      eq\n        /* \"#utility.yul\":470:533   */\n      tag_317\n      jumpi\n        /* \"#utility.yul\":529:530   */\n      0x00\n        /* \"#utility.yul\":526:527   */\n      dup1\n        /* \"#utility.yul\":519:531   */\n      revert\n        /* \"#utility.yul\":470:533   */\n    tag_317:\n        /* \"#utility.yul\":417:539   */\n      pop\n      jump\t// out\n        /* \"#utility.yul\":545:684   */\n    tag_253:\n        /* \"#utility.yul\":591:596   */\n      0x00\n        /* \"#utility.yul\":629:635   */\n      dup2\n        /* \"#utility.yul\":616:636   */\n      calldataload\n        /* \"#utility.yul\":607:636   */\n      swap1\n      pop\n        /* \"#utility.yul\":645:678   */\n      tag_319\n        /* \"#utility.yul\":672:677   */\n      dup2\n        /* \"#utility.yul\":645:678   */\n      tag_252\n      jump\t// in\n    tag_319:\n        /* \"#utility.yul\":545:684   */\n      swap3\n      swap2\n      pop\n      pop\n      jump\t// out\n        /* \"#utility.yul\":690:1019   */\n    tag_20:\n        /* \"#utility.yul\":749:755   */\n      0x00\n        /* \"#utility.yul\":798:800   */\n      0x20\n        /* \"#utility.yul\":786:795   */\n      dup3\n        /* \"#utility.yul\":777:784   */\n      dup5\n        /* \"#utility.yul\":773:796   */\n      sub\n        /* \"#utility.yul\":769:801   */\n      slt\n        /* \"#utility.yul\":766:885   */\n      iszero\n      tag_321\n      jumpi\n        /* \"#utility.yul\":804:883   */\n      tag_322\n      tag_249\n      jump\t// in\n    tag_322:\n        /* \"#utility.yul\":766:885   */\n    tag_321:\n        /* \"#utility.yul\":924:925   */\n      0x00\n        /* \"#utility.yul\":949:1002   */\n      tag_323\n        /* \"#utility.yul\":994:1001   */\n      dup5\n        /* \"#utility.yul\":985:991   */\n      dup3\n        /* \"#utility.yul\":974:983   */\n      dup6\n        /* \"#utility.yul\":970:992   */\n      add\n        /* \"#utility.yul\":949:1002   */\n      tag_253\n      jump\t// in\n    tag_323:\n        /* \"#utility.yul\":939:1002   */\n      swap2\n      pop\n        /* \"#utility.yul\":895:1012   */\n      pop\n        /* \"#utility.yul\":690:1019   */\n      swap3\n      swap2\n      pop\n      pop\n      jump\t// out\n        /* \"#utility.yul\":1025:1142   */\n    tag_254:\n        /* \"#utility.yul\":1134:1135   */\n      0x00\n        /* \"#utility.yul\":1131:1132   */\n      dup1\n        /* \"#utility.yul\":1124:1136   */\n      revert\n        /* \"#utility.yul\":1148:1265   */\n    tag_255:\n        /* \"#utility.yul\":1257:1258   */\n      0x00\n        /* \"#utility.yul\":1254:1255   */\n      dup1\n        /* \"#utility.yul\":1247:1259   */\n      revert\n        /* \"#utility.yul\":1271:1388   */\n    tag_256:\n        /* \"#utility.yul\":1380:1381   */\n      0x00\n        /* \"#utility.yul\":1377:1378   */\n      dup1\n        /* \"#utility.yul\":1370:1382   */\n      revert\n        /* \"#utility.yul\":1408:1961   */\n    tag_257:\n        /* \"#utility.yul\":1466:1474   */\n      0x00\n        /* \"#utility.yul\":1476:1482   */\n      dup1\n        /* \"#utility.yul\":1526:1529   */\n      dup4\n        /* \"#utility.yul\":1519:1523   */\n      0x1f\n        /* \"#utility.yul\":1511:1517   */\n      dup5\n        /* \"#utility.yul\":1507:1524   */\n      add\n        /* \"#utility.yul\":1503:1530   */\n      slt\n        /* \"#utility.yul\":1493:1615   */\n      tag_328\n      jumpi\n        /* \"#utility.yul\":1534:1613   */\n      tag_329\n      tag_254\n      jump\t// in\n    tag_329:\n        /* \"#utility.yul\":1493:1615   */\n    tag_328:\n        /* \"#utility.yul\":1647:1653   */\n      dup3\n        /* \"#utility.yul\":1634:1654   */\n      calldataload\n        /* \"#utility.yul\":1624:1654   */\n      swap1\n      pop\n        /* \"#utility.yul\":1677:1695   */\n      0xffffffffffffffff\n        /* \"#utility.yul\":1669:1675   */\n      dup2\n        /* \"#utility.yul\":1666:1696   */\n      gt\n        /* \"#utility.yul\":1663:1780   */\n      iszero\n      tag_330\n      jumpi\n        /* \"#utility.yul\":1699:1778   */\n      tag_331\n      tag_255\n      jump\t// in\n    tag_331:\n        /* \"#utility.yul\":1663:1780   */\n    tag_330:\n        /* \"#utility.yul\":1813:1817   */\n      0x20\n        /* \"#utility.yul\":1805:1811   */\n      dup4\n        /* \"#utility.yul\":1801:1818   */\n      add\n        /* \"#utility.yul\":1789:1818   */\n      swap2\n      pop\n        /* \"#utility.yul\":1867:1870   */\n      dup4\n        /* \"#utility.yul\":1859:1863   */\n      0x01\n        /* \"#utility.yul\":1851:1857   */\n      dup3\n        /* \"#utility.yul\":1847:1864   */\n      mul\n        /* \"#utility.yul\":1837:1845   */\n      dup4\n        /* \"#utility.yul\":1833:1865   */\n      add\n        /* \"#utility.yul\":1830:1871   */\n      gt\n        /* \"#utility.yul\":1827:1955   */\n      iszero\n      tag_332\n      jumpi\n        /* \"#utility.yul\":1874:1953   */\n      tag_333\n      tag_256\n      jump\t// in\n    tag_333:\n        /* \"#utility.yul\":1827:1955   */\n    tag_332:\n        /* \"#utility.yul\":1408:1961   */\n      swap3\n      pop\n      swap3\n      swap1\n      pop\n      jump\t// out\n        /* \"#utility.yul\":1967:2496   */\n    tag_24:\n        /* \"#utility.yul\":2038:2044   */\n      0x00\n        /* \"#utility.yul\":2046:2052   */\n      dup1\n        /* \"#utility.yul\":2095:2097   */\n      0x20\n        /* \"#utility.yul\":2083:2092   */\n      dup4\n        /* \"#utility.yul\":2074:2081   */\n      dup6\n        /* \"#utility.yul\":2070:2093   */\n      sub\n        /* \"#utility.yul\":2066:2098   */\n      slt\n        /* \"#utility.yul\":2063:2182   */\n      iszero\n      tag_335\n      jumpi\n        /* \"#utility.yul\":2101:2180   */\n      tag_336\n      tag_249\n      jump\t// in\n    tag_336:\n        /* \"#utility.yul\":2063:2182   */\n    tag_335:\n        /* \"#utility.yul\":2249:2250   */\n      0x00\n        /* \"#utility.yul\":2238:2247   */\n      dup4\n        /* \"#utility.yul\":2234:2251   */\n      add\n        /* \"#utility.yul\":2221:2252   */\n      calldataload\n        /* \"#utility.yul\":2279:2297   */\n      0xffffffffffffffff\n        /* \"#utility.yul\":2271:2277   */\n      dup2\n        /* \"#utility.yul\":2268:2298   */\n      gt\n        /* \"#utility.yul\":2265:2382   */\n      iszero\n      tag_337\n      jumpi\n        /* \"#utility.yul\":2301:2380   */\n      tag_338\n      tag_250\n      jump\t// in\n    tag_338:\n        /* \"#utility.yul\":2265:2382   */\n    tag_337:\n        /* \"#utility.yul\":2414:2479   */\n      tag_339\n        /* \"#utility.yul\":2471:2478   */\n      dup6\n        /* \"#utility.yul\":2462:2468   */\n      dup3\n        /* \"#utility.yul\":2451:2460   */\n      dup7\n        /* \"#utility.yul\":2447:2469   */\n      add\n        /* \"#utility.yul\":2414:2479   */\n      tag_257\n      jump\t// in\n    tag_339:\n        /* \"#utility.yul\":2396:2479   */\n      swap3\n      pop\n      swap3\n      pop\n        /* \"#utility.yul\":2192:2489   */\n      pop\n        /* \"#utility.yul\":1967:2496   */\n      swap3\n      pop\n      swap3\n      swap1\n      pop\n      jump\t// out\n        /* \"#utility.yul\":2502:2628   */\n    tag_258:\n        /* \"#utility.yul\":2539:2546   */\n      0x00\n        /* \"#utility.yul\":2579:2621   */\n      0xffffffffffffffffffffffffffffffffffffffff\n        /* \"#utility.yul\":2572:2577   */\n      dup3\n        /* \"#utility.yul\":2568:2622   */\n      and\n        /* \"#utility.yul\":2557:2622   */\n      swap1\n      pop\n        /* \"#utility.yul\":2502:2628   */\n      swap2\n      swap1\n      pop\n      jump\t// out\n        /* \"#utility.yul\":2634:2730   */\n    tag_259:\n        /* \"#utility.yul\":2671:2678   */\n      0x00\n        /* \"#utility.yul\":2700:2724   */\n      tag_342\n        /* \"#utility.yul\":2718:2723   */\n      dup3\n        /* \"#utility.yul\":2700:2724   */\n      tag_258\n      jump\t// in\n    tag_342:\n        /* \"#utility.yul\":2689:2724   */\n      swap1\n      pop\n        /* \"#utility.yul\":2634:2730   */\n      swap2\n      swap1\n      pop\n      jump\t// out\n        /* \"#utility.yul\":2736:2854   */\n    tag_260:\n        /* \"#utility.yul\":2823:2847   */\n      tag_344\n        /* \"#utility.yul\":2841:2846   */\n      dup2\n        /* \"#utility.yul\":2823:2847   */\n      tag_259\n      jump\t// in\n    tag_344:\n        /* \"#utility.yul\":2818:2821   */\n      dup3\n        /* \"#utility.yul\":2811:2848   */\n      mstore\n        /* \"#utility.yul\":2736:2854   */\n      pop\n      pop\n      jump\t// out\n        /* \"#utility.yul\":2860:3082   */\n    tag_33:\n        /* \"#utility.yul\":2953:2957   */\n      0x00\n        /* \"#utility.yul\":2991:2993   */\n      0x20\n        /* \"#utility.yul\":2980:2989   */\n      dup3\n        /* \"#utility.yul\":2976:2994   */\n      add\n        /* \"#utility.yul\":2968:2994   */\n      swap1\n      pop\n        /* \"#utility.yul\":3004:3075   */\n      tag_346\n        /* \"#utility.yul\":3072:3073   */\n      0x00\n        /* \"#utility.yul\":3061:3070   */\n      dup4\n        /* \"#utility.yul\":3057:3074   */\n      add\n        /* \"#utility.yul\":3048:3054   */\n      dup5\n        /* \"#utility.yul\":3004:3075   */\n      tag_260\n      jump\t// in\n    tag_346:\n        /* \"#utility.yul\":2860:3082   */\n      swap3\n      swap2\n      pop\n      pop\n      jump\t// out\n        /* \"#utility.yul\":3088:3187   */\n    tag_261:\n        /* \"#utility.yul\":3140:3146   */\n      0x00\n        /* \"#utility.yul\":3174:3179   */\n      dup2\n        /* \"#utility.yul\":3168:3180   */\n      mload\n        /* \"#utility.yul\":3158:3180   */\n      swap1\n      pop\n        /* \"#utility.yul\":3088:3187   */\n      swap2\n      swap1\n      pop\n      jump\t// out\n        /* \"#utility.yul\":3193:3352   */\n    tag_262:\n        /* \"#utility.yul\":3267:3278   */\n      0x00\n        /* \"#utility.yul\":3301:3307   */\n      dup3\n        /* \"#utility.yul\":3296:3299   */\n      dup3\n        /* \"#utility.yul\":3289:3308   */\n      mstore\n        /* \"#utility.yul\":3341:3345   */\n      0x20\n        /* \"#utility.yul\":3336:3339   */\n      dup3\n        /* \"#utility.yul\":3332:3346   */\n      add\n        /* \"#utility.yul\":3317:3346   */\n      swap1\n      pop\n        /* \"#utility.yul\":3193:3352   */\n      swap3\n      swap2\n      pop\n      pop\n      jump\t// out\n        /* \"#utility.yul\":3358:3665   */\n    tag_263:\n        /* \"#utility.yul\":3426:3427   */\n      0x00\n        /* \"#utility.yul\":3436:3549   */\n    tag_350:\n        /* \"#utility.yul\":3450:3456   */\n      dup4\n        /* \"#utility.yul\":3447:3448   */\n      dup2\n        /* \"#utility.yul\":3444:3457   */\n      lt\n        /* \"#utility.yul\":3436:3549   */\n      iszero\n      tag_352\n      jumpi\n        /* \"#utility.yul\":3535:3536   */\n      dup1\n        /* \"#utility.yul\":3530:3533   */\n      dup3\n        /* \"#utility.yul\":3526:3537   */\n      add\n        /* \"#utility.yul\":3520:3538   */\n      mload\n        /* \"#utility.yul\":3516:3517   */\n      dup2\n        /* \"#utility.yul\":3511:3514   */\n      dup5\n        /* \"#utility.yul\":3507:3518   */\n      add\n        /* \"#utility.yul\":3500:3539   */\n      mstore\n        /* \"#utility.yul\":3472:3474   */\n      0x20\n        /* \"#utility.yul\":3469:3470   */\n      dup2\n        /* \"#utility.yul\":3465:3475   */\n      add\n        /* \"#utility.yul\":3460:3475   */\n      swap1\n      pop\n        /* \"#utility.yul\":3436:3549   */\n      jump(tag_350)\n    tag_352:\n        /* \"#utility.yul\":3567:3573   */\n      dup4\n        /* \"#utility.yul\":3564:3565   */\n      dup2\n        /* \"#utility.yul\":3561:3574   */\n      gt\n        /* \"#utility.yul\":3558:3659   */\n      iszero\n      tag_353\n      jumpi\n        /* \"#utility.yul\":3647:3648   */\n      0x00\n        /* \"#utility.yul\":3638:3644   */\n      dup5\n        /* \"#utility.yul\":3633:3636   */\n      dup5\n        /* \"#utility.yul\":3629:3645   */\n      add\n        /* \"#utility.yul\":3622:3649   */\n      mstore\n        /* \"#utility.yul\":3558:3659   */\n    tag_353:\n        /* \"#utility.yul\":3407:3665   */\n      pop\n        /* \"#utility.yul\":3358:3665   */\n      pop\n      pop\n      pop\n      jump\t// out\n        /* \"#utility.yul\":3671:3773   */\n    tag_264:\n        /* \"#utility.yul\":3712:3718   */\n      0x00\n        /* \"#utility.yul\":3763:3765   */\n      0x1f\n        /* \"#utility.yul\":3759:3766   */\n      not\n        /* \"#utility.yul\":3754:3756   */\n      0x1f\n        /* \"#utility.yul\":3747:3752   */\n      dup4\n        /* \"#utility.yul\":3743:3757   */\n      add\n        /* \"#utility.yul\":3739:3767   */\n      and\n        /* \"#utility.yul\":3729:3767   */\n      swap1\n      pop\n        /* \"#utility.yul\":3671:3773   */\n      swap2\n      swap1\n      pop\n      jump\t// out\n        /* \"#utility.yul\":3779:4123   */\n    tag_265:\n        /* \"#utility.yul\":3857:3860   */\n      0x00\n        /* \"#utility.yul\":3885:3924   */\n      tag_356\n        /* \"#utility.yul\":3918:3923   */\n      dup3\n        /* \"#utility.yul\":3885:3924   */\n      tag_261\n      jump\t// in\n    tag_356:\n        /* \"#utility.yul\":3940:4001   */\n      tag_357\n        /* \"#utility.yul\":3994:4000   */\n      dup2\n        /* \"#utility.yul\":3989:3992   */\n      dup6\n        /* \"#utility.yul\":3940:4001   */\n      tag_262\n      jump\t// in\n    tag_357:\n        /* \"#utility.yul\":3933:4001   */\n      swap4\n      pop\n        /* \"#utility.yul\":4010:4062   */\n      tag_358\n        /* \"#utility.yul\":4055:4061   */\n      dup2\n        /* \"#utility.yul\":4050:4053   */\n      dup6\n        /* \"#utility.yul\":4043:4047   */\n      0x20\n        /* \"#utility.yul\":4036:4041   */\n      dup7\n        /* \"#utility.yul\":4032:4048   */\n      add\n        /* \"#utility.yul\":4010:4062   */\n      tag_263\n      jump\t// in\n    tag_358:\n        /* \"#utility.yul\":4087:4116   */\n      tag_359\n        /* \"#utility.yul\":4109:4115   */\n      dup2\n        /* \"#utility.yul\":4087:4116   */\n      tag_264\n      jump\t// in\n    tag_359:\n        /* \"#utility.yul\":4082:4085   */\n      dup5\n        /* \"#utility.yul\":4078:4117   */\n      add\n        /* \"#utility.yul\":4071:4117   */\n      swap2\n      pop\n        /* \"#utility.yul\":3861:4123   */\n      pop\n        /* \"#utility.yul\":3779:4123   */\n      swap3\n      swap2\n      pop\n      pop\n      jump\t// out\n        /* \"#utility.yul\":4129:4237   */\n    tag_266:\n        /* \"#utility.yul\":4206:4230   */\n      tag_361\n        /* \"#utility.yul\":4224:4229   */\n      dup2\n        /* \"#utility.yul\":4206:4230   */\n      tag_251\n      jump\t// in\n    tag_361:\n        /* \"#utility.yul\":4201:4204   */\n      dup3\n        /* \"#utility.yul\":4194:4231   */\n      mstore\n        /* \"#utility.yul\":4129:4237   */\n      pop\n      pop\n      jump\t// out\n        /* \"#utility.yul\":4299:4915   */\n    tag_267:\n        /* \"#utility.yul\":4416:4419   */\n      0x00\n        /* \"#utility.yul\":4452:4456   */\n      0x40\n        /* \"#utility.yul\":4447:4450   */\n      dup4\n        /* \"#utility.yul\":4443:4457   */\n      add\n        /* \"#utility.yul\":4546:4550   */\n      0x00\n        /* \"#utility.yul\":4539:4544   */\n      dup4\n        /* \"#utility.yul\":4535:4551   */\n      add\n        /* \"#utility.yul\":4529:4552   */\n      mload\n        /* \"#utility.yul\":4599:4602   */\n      dup5\n        /* \"#utility.yul\":4593:4597   */\n      dup3\n        /* \"#utility.yul\":4589:4603   */\n      sub\n        /* \"#utility.yul\":4582:4586   */\n      0x00\n        /* \"#utility.yul\":4577:4580   */\n      dup7\n        /* \"#utility.yul\":4573:4587   */\n      add\n        /* \"#utility.yul\":4566:4604   */\n      mstore\n        /* \"#utility.yul\":4625:4698   */\n      tag_363\n        /* \"#utility.yul\":4693:4697   */\n      dup3\n        /* \"#utility.yul\":4679:4691   */\n      dup3\n        /* \"#utility.yul\":4625:4698   */\n      tag_265\n      jump\t// in\n    tag_363:\n        /* \"#utility.yul\":4617:4698   */\n      swap2\n      pop\n        /* \"#utility.yul\":4467:4709   */\n      pop\n        /* \"#utility.yul\":4796:4800   */\n      0x20\n        /* \"#utility.yul\":4789:4794   */\n      dup4\n        /* \"#utility.yul\":4785:4801   */\n      add\n        /* \"#utility.yul\":4779:4802   */\n      mload\n        /* \"#utility.yul\":4815:4878   */\n      tag_364\n        /* \"#utility.yul\":4872:4876   */\n      0x20\n        /* \"#utility.yul\":4867:4870   */\n      dup7\n        /* \"#utility.yul\":4863:4877   */\n      add\n        /* \"#utility.yul\":4849:4861   */\n      dup3\n        /* \"#utility.yul\":4815:4878   */\n      tag_266\n      jump\t// in\n    tag_364:\n        /* \"#utility.yul\":4719:4888   */\n      pop\n        /* \"#utility.yul\":4905:4909   */\n      dup1\n        /* \"#utility.yul\":4898:4909   */\n      swap2\n      pop\n        /* \"#utility.yul\":4421:4915   */\n      pop\n        /* \"#utility.yul\":4299:4915   */\n      swap3\n      swap2\n      pop\n      pop\n      jump\t// out\n        /* \"#utility.yul\":4921:5290   */\n    tag_37:\n        /* \"#utility.yul\":5062:5066   */\n      0x00\n        /* \"#utility.yul\":5100:5102   */\n      0x20\n        /* \"#utility.yul\":5089:5098   */\n      dup3\n        /* \"#utility.yul\":5085:5103   */\n      add\n        /* \"#utility.yul\":5077:5103   */\n      swap1\n      pop\n        /* \"#utility.yul\":5149:5158   */\n      dup2\n        /* \"#utility.yul\":5143:5147   */\n      dup2\n        /* \"#utility.yul\":5139:5159   */\n      sub\n        /* \"#utility.yul\":5135:5136   */\n      0x00\n        /* \"#utility.yul\":5124:5133   */\n      dup4\n        /* \"#utility.yul\":5120:5137   */\n      add\n        /* \"#utility.yul\":5113:5160   */\n      mstore\n        /* \"#utility.yul\":5177:5283   */\n      tag_366\n        /* \"#utility.yul\":5278:5282   */\n      dup2\n        /* \"#utility.yul\":5269:5275   */\n      dup5\n        /* \"#utility.yul\":5177:5283   */\n      tag_267\n      jump\t// in\n    tag_366:\n        /* \"#utility.yul\":5169:5283   */\n      swap1\n      pop\n        /* \"#utility.yul\":4921:5290   */\n      swap3\n      swap2\n      pop\n      pop\n      jump\t// out\n        /* \"#utility.yul\":5296:5418   */\n    tag_268:\n        /* \"#utility.yul\":5369:5393   */\n      tag_368\n        /* \"#utility.yul\":5387:5392   */\n      dup2\n        /* \"#utility.yul\":5369:5393   */\n      tag_259\n      jump\t// in\n    tag_368:\n        /* \"#utility.yul\":5362:5367   */\n      dup2\n        /* \"#utility.yul\":5359:5394   */\n      eq\n        /* \"#utility.yul\":5349:5412   */\n      tag_369\n      jumpi\n        /* \"#utility.yul\":5408:5409   */\n      0x00\n        /* \"#utility.yul\":5405:5406   */\n      dup1\n        /* \"#utility.yul\":5398:5410   */\n      revert\n        /* \"#utility.yul\":5349:5412   */\n    tag_369:\n        /* \"#utility.yul\":5296:5418   */\n      pop\n      jump\t// out\n        /* \"#utility.yul\":5424:5563   */\n    tag_269:\n        /* \"#utility.yul\":5470:5475   */\n      0x00\n        /* \"#utility.yul\":5508:5514   */\n      dup2\n        /* \"#utility.yul\":5495:5515   */\n      calldataload\n        /* \"#utility.yul\":5486:5515   */\n      swap1\n      pop\n        /* \"#utility.yul\":5524:5557   */\n      tag_371\n        /* \"#utility.yul\":5551:5556   */\n      dup2\n        /* \"#utility.yul\":5524:5557   */\n      tag_268\n      jump\t// in\n    tag_371:\n        /* \"#utility.yul\":5424:5563   */\n      swap3\n      swap2\n      pop\n      pop\n      jump\t// out\n        /* \"#utility.yul\":5569:5898   */\n    tag_40:\n        /* \"#utility.yul\":5628:5634   */\n      0x00\n        /* \"#utility.yul\":5677:5679   */\n      0x20\n        /* \"#utility.yul\":5665:5674   */\n      dup3\n        /* \"#utility.yul\":5656:5663   */\n      dup5\n        /* \"#utility.yul\":5652:5675   */\n      sub\n        /* \"#utility.yul\":5648:5680   */\n      slt\n        /* \"#utility.yul\":5645:5764   */\n      iszero\n      tag_373\n      jumpi\n        /* \"#utility.yul\":5683:5762   */\n      tag_374\n      tag_249\n      jump\t// in\n    tag_374:\n        /* \"#utility.yul\":5645:5764   */\n    tag_373:\n        /* \"#utility.yul\":5803:5804   */\n      0x00\n        /* \"#utility.yul\":5828:5881   */\n      tag_375\n        /* \"#utility.yul\":5873:5880   */\n      dup5\n        /* \"#utility.yul\":5864:5870   */\n      dup3\n        /* \"#utility.yul\":5853:5862   */\n      dup6\n        /* \"#utility.yul\":5849:5871   */\n      add\n        /* \"#utility.yul\":5828:5881   */\n      tag_269\n      jump\t// in\n    tag_375:\n        /* \"#utility.yul\":5818:5881   */\n      swap2\n      pop\n        /* \"#utility.yul\":5774:5891   */\n      pop\n        /* \"#utility.yul\":5569:5898   */\n      swap3\n      swap2\n      pop\n      pop\n      jump\t// out\n        /* \"#utility.yul\":5904:6084   */\n    tag_57:\n        /* \"#utility.yul\":5952:6029   */\n      0x4e487b7100000000000000000000000000000000000000000000000000000000\n        /* \"#utility.yul\":5949:5950   */\n      0x00\n        /* \"#utility.yul\":5942:6030   */\n      mstore\n        /* \"#utility.yul\":6049:6053   */\n      0x21\n        /* \"#utility.yul\":6046:6047   */\n      0x04\n        /* \"#utility.yul\":6039:6054   */\n      mstore\n        /* \"#utility.yul\":6073:6077   */\n      0x24\n        /* \"#utility.yul\":6070:6071   */\n      0x00\n        /* \"#utility.yul\":6063:6078   */\n      revert\n        /* \"#utility.yul\":6090:6259   */\n    tag_270:\n        /* \"#utility.yul\":6174:6185   */\n      0x00\n        /* \"#utility.yul\":6208:6214   */\n      dup3\n        /* \"#utility.yul\":6203:6206   */\n      dup3\n        /* \"#utility.yul\":6196:6215   */\n      mstore\n        /* \"#utility.yul\":6248:6252   */\n      0x20\n        /* \"#utility.yul\":6243:6246   */\n      dup3\n        /* \"#utility.yul\":6239:6253   */\n      add\n        /* \"#utility.yul\":6224:6253   */\n      swap1\n      pop\n        /* \"#utility.yul\":6090:6259   */\n      swap3\n      swap2\n      pop\n      pop\n      jump\t// out\n        /* \"#utility.yul\":6265:6497   */\n    tag_271:\n        /* \"#utility.yul\":6405:6439   */\n      0x5468652070726f706f73616c20726567697374726174696f6e206973206e6f74\n        /* \"#utility.yul\":6401:6402   */\n      0x00\n        /* \"#utility.yul\":6393:6399   */\n      dup3\n        /* \"#utility.yul\":6389:6403   */\n      add\n        /* \"#utility.yul\":6382:6440   */\n      mstore\n        /* \"#utility.yul\":6474:6489   */\n      0x2073746172746564207965742e00000000000000000000000000000000000000\n        /* \"#utility.yul\":6469:6471   */\n      0x20\n        /* \"#utility.yul\":6461:6467   */\n      dup3\n        /* \"#utility.yul\":6457:6472   */\n      add\n        /* \"#utility.yul\":6450:6490   */\n      mstore\n        /* \"#utility.yul\":6265:6497   */\n      pop\n      jump\t// out\n        /* \"#utility.yul\":6503:6869   */\n    tag_272:\n        /* \"#utility.yul\":6645:6648   */\n      0x00\n        /* \"#utility.yul\":6666:6733   */\n      tag_380\n        /* \"#utility.yul\":6730:6732   */\n      0x2d\n        /* \"#utility.yul\":6725:6728   */\n      dup4\n        /* \"#utility.yul\":6666:6733   */\n      tag_270\n      jump\t// in\n    tag_380:\n        /* \"#utility.yul\":6659:6733   */\n      swap2\n      pop\n        /* \"#utility.yul\":6742:6835   */\n      tag_381\n        /* \"#utility.yul\":6831:6834   */\n      dup3\n        /* \"#utility.yul\":6742:6835   */\n      tag_271\n      jump\t// in\n    tag_381:\n        /* \"#utility.yul\":6860:6862   */\n      0x40\n        /* \"#utility.yul\":6855:6858   */\n      dup3\n        /* \"#utility.yul\":6851:6863   */\n      add\n        /* \"#utility.yul\":6844:6863   */\n      swap1\n      pop\n        /* \"#utility.yul\":6503:6869   */\n      swap2\n      swap1\n      pop\n      jump\t// out\n        /* \"#utility.yul\":6875:7294   */\n    tag_62:\n        /* \"#utility.yul\":7041:7045   */\n      0x00\n        /* \"#utility.yul\":7079:7081   */\n      0x20\n        /* \"#utility.yul\":7068:7077   */\n      dup3\n        /* \"#utility.yul\":7064:7082   */\n      add\n        /* \"#utility.yul\":7056:7082   */\n      swap1\n      pop\n        /* \"#utility.yul\":7128:7137   */\n      dup2\n        /* \"#utility.yul\":7122:7126   */\n      dup2\n        /* \"#utility.yul\":7118:7138   */\n      sub\n        /* \"#utility.yul\":7114:7115   */\n      0x00\n        /* \"#utility.yul\":7103:7112   */\n      dup4\n        /* \"#utility.yul\":7099:7116   */\n      add\n        /* \"#utility.yul\":7092:7139   */\n      mstore\n        /* \"#utility.yul\":7156:7287   */\n      tag_383\n        /* \"#utility.yul\":7282:7286   */\n      dup2\n        /* \"#utility.yul\":7156:7287   */\n      tag_272\n      jump\t// in\n    tag_383:\n        /* \"#utility.yul\":7148:7287   */\n      swap1\n      pop\n        /* \"#utility.yul\":6875:7294   */\n      swap2\n      swap1\n      pop\n      jump\t// out\n        /* \"#utility.yul\":7300:7422   */\n    tag_273:\n        /* \"#utility.yul\":7390:7391   */\n      0x06\n        /* \"#utility.yul\":7383:7388   */\n      dup2\n        /* \"#utility.yul\":7380:7392   */\n      lt\n        /* \"#utility.yul\":7370:7416   */\n      tag_385\n      jumpi\n        /* \"#utility.yul\":7396:7414   */\n      tag_386\n      tag_57\n      jump\t// in\n    tag_386:\n        /* \"#utility.yul\":7370:7416   */\n    tag_385:\n        /* \"#utility.yul\":7300:7422   */\n      pop\n      jump\t// out\n        /* \"#utility.yul\":7428:7573   */\n    tag_274:\n        /* \"#utility.yul\":7482:7489   */\n      0x00\n        /* \"#utility.yul\":7511:7516   */\n      dup2\n        /* \"#utility.yul\":7500:7516   */\n      swap1\n      pop\n        /* \"#utility.yul\":7517:7567   */\n      tag_388\n        /* \"#utility.yul\":7561:7566   */\n      dup3\n        /* \"#utility.yul\":7517:7567   */\n      tag_273\n      jump\t// in\n    tag_388:\n        /* \"#utility.yul\":7428:7573   */\n      swap2\n      swap1\n      pop\n      jump\t// out\n        /* \"#utility.yul\":7579:7724   */\n    tag_275:\n        /* \"#utility.yul\":7644:7653   */\n      0x00\n        /* \"#utility.yul\":7677:7718   */\n      tag_390\n        /* \"#utility.yul\":7712:7717   */\n      dup3\n        /* \"#utility.yul\":7677:7718   */\n      tag_274\n      jump\t// in\n    tag_390:\n        /* \"#utility.yul\":7664:7718   */\n      swap1\n      pop\n        /* \"#utility.yul\":7579:7724   */\n      swap2\n      swap1\n      pop\n      jump\t// out\n        /* \"#utility.yul\":7730:7891   */\n    tag_276:\n        /* \"#utility.yul\":7832:7884   */\n      tag_392\n        /* \"#utility.yul\":7878:7883   */\n      dup2\n        /* \"#utility.yul\":7832:7884   */\n      tag_275\n      jump\t// in\n    tag_392:\n        /* \"#utility.yul\":7827:7830   */\n      dup3\n        /* \"#utility.yul\":7820:7885   */\n      mstore\n        /* \"#utility.yul\":7730:7891   */\n      pop\n      pop\n      jump\t// out\n        /* \"#utility.yul\":7897:8289   */\n    tag_66:\n        /* \"#utility.yul\":8048:8052   */\n      0x00\n        /* \"#utility.yul\":8086:8088   */\n      0x40\n        /* \"#utility.yul\":8075:8084   */\n      dup3\n        /* \"#utility.yul\":8071:8089   */\n      add\n        /* \"#utility.yul\":8063:8089   */\n      swap1\n      pop\n        /* \"#utility.yul\":8099:8185   */\n      tag_394\n        /* \"#utility.yul\":8182:8183   */\n      0x00\n        /* \"#utility.yul\":8171:8180   */\n      dup4\n        /* \"#utility.yul\":8167:8184   */\n      add\n        /* \"#utility.yul\":8158:8164   */\n      dup6\n        /* \"#utility.yul\":8099:8185   */\n      tag_276\n      jump\t// in\n    tag_394:\n        /* \"#utility.yul\":8195:8282   */\n      tag_395\n        /* \"#utility.yul\":8278:8280   */\n      0x20\n        /* \"#utility.yul\":8267:8276   */\n      dup4\n        /* \"#utility.yul\":8263:8281   */\n      add\n        /* \"#utility.yul\":8254:8260   */\n      dup5\n        /* \"#utility.yul\":8195:8282   */\n      tag_276\n      jump\t// in\n    tag_395:\n        /* \"#utility.yul\":7897:8289   */\n      swap4\n      swap3\n      pop\n      pop\n      pop\n      jump\t// out\n        /* \"#utility.yul\":8295:8520   */\n    tag_277:\n        /* \"#utility.yul\":8435:8469   */\n      0x54686520766f74696e672073657373696f6e206973206e6f7420737461727465\n        /* \"#utility.yul\":8431:8432   */\n      0x00\n        /* \"#utility.yul\":8423:8429   */\n      dup3\n        /* \"#utility.yul\":8419:8433   */\n      add\n        /* \"#utility.yul\":8412:8470   */\n      mstore\n        /* \"#utility.yul\":8504:8512   */\n      0x64207965742e0000000000000000000000000000000000000000000000000000\n        /* \"#utility.yul\":8499:8501   */\n      0x20\n        /* \"#utility.yul\":8491:8497   */\n      dup3\n        /* \"#utility.yul\":8487:8502   */\n      add\n        /* \"#utility.yul\":8480:8513   */\n      mstore\n        /* \"#utility.yul\":8295:8520   */\n      pop\n      jump\t// out\n        /* \"#utility.yul\":8526:8892   */\n    tag_278:\n        /* \"#utility.yul\":8668:8671   */\n      0x00\n        /* \"#utility.yul\":8689:8756   */\n      tag_398\n        /* \"#utility.yul\":8753:8755   */\n      0x26\n        /* \"#utility.yul\":8748:8751   */\n      dup4\n        /* \"#utility.yul\":8689:8756   */\n      tag_270\n      jump\t// in\n    tag_398:\n        /* \"#utility.yul\":8682:8756   */\n      swap2\n      pop\n        /* \"#utility.yul\":8765:8858   */\n      tag_399\n        /* \"#utility.yul\":8854:8857   */\n      dup3\n        /* \"#utility.yul\":8765:8858   */\n      tag_277\n      jump\t// in\n    tag_399:\n        /* \"#utility.yul\":8883:8885   */\n      0x40\n        /* \"#utility.yul\":8878:8881   */\n      dup3\n        /* \"#utility.yul\":8874:8886   */\n      add\n        /* \"#utility.yul\":8867:8886   */\n      swap1\n      pop\n        /* \"#utility.yul\":8526:8892   */\n      swap2\n      swap1\n      pop\n      jump\t// out\n        /* \"#utility.yul\":8898:9317   */\n    tag_74:\n        /* \"#utility.yul\":9064:9068   */\n      0x00\n        /* \"#utility.yul\":9102:9104   */\n      0x20\n        /* \"#utility.yul\":9091:9100   */\n      dup3\n        /* \"#utility.yul\":9087:9105   */\n      add\n        /* \"#utility.yul\":9079:9105   */\n      swap1\n      pop\n        /* \"#utility.yul\":9151:9160   */\n      dup2\n        /* \"#utility.yul\":9145:9149   */\n      dup2\n        /* \"#utility.yul\":9141:9161   */\n      sub\n        /* \"#utility.yul\":9137:9138   */\n      0x00\n        /* \"#utility.yul\":9126:9135   */\n      dup4\n        /* \"#utility.yul\":9122:9139   */\n      add\n        /* \"#utility.yul\":9115:9162   */\n      mstore\n        /* \"#utility.yul\":9179:9310   */\n      tag_401\n        /* \"#utility.yul\":9305:9309   */\n      dup2\n        /* \"#utility.yul\":9179:9310   */\n      tag_278\n      jump\t// in\n    tag_401:\n        /* \"#utility.yul\":9171:9310   */\n      swap1\n      pop\n        /* \"#utility.yul\":8898:9317   */\n      swap2\n      swap1\n      pop\n      jump\t// out\n        /* \"#utility.yul\":9323:9504   */\n    tag_279:\n        /* \"#utility.yul\":9463:9496   */\n      0x596f75206d757374206265207265676973746572656420746f20766f74652e00\n        /* \"#utility.yul\":9459:9460   */\n      0x00\n        /* \"#utility.yul\":9451:9457   */\n      dup3\n        /* \"#utility.yul\":9447:9461   */\n      add\n        /* \"#utility.yul\":9440:9497   */\n      mstore\n        /* \"#utility.yul\":9323:9504   */\n      pop\n      jump\t// out\n        /* \"#utility.yul\":9510:9876   */\n    tag_280:\n        /* \"#utility.yul\":9652:9655   */\n      0x00\n        /* \"#utility.yul\":9673:9740   */\n      tag_404\n        /* \"#utility.yul\":9737:9739   */\n      0x1f\n        /* \"#utility.yul\":9732:9735   */\n      dup4\n        /* \"#utility.yul\":9673:9740   */\n      tag_270\n      jump\t// in\n    tag_404:\n        /* \"#utility.yul\":9666:9740   */\n      swap2\n      pop\n        /* \"#utility.yul\":9749:9842   */\n      tag_405\n        /* \"#utility.yul\":9838:9841   */\n      dup3\n        /* \"#utility.yul\":9749:9842   */\n      tag_279\n      jump\t// in\n    tag_405:\n        /* \"#utility.yul\":9867:9869   */\n      0x20\n        /* \"#utility.yul\":9862:9865   */\n      dup3\n        /* \"#utility.yul\":9858:9870   */\n      add\n        /* \"#utility.yul\":9851:9870   */\n      swap1\n      pop\n        /* \"#utility.yul\":9510:9876   */\n      swap2\n      swap1\n      pop\n      jump\t// out\n        /* \"#utility.yul\":9882:10301   */\n    tag_77:\n        /* \"#utility.yul\":10048:10052   */\n      0x00\n        /* \"#utility.yul\":10086:10088   */\n      0x20\n        /* \"#utility.yul\":10075:10084   */\n      dup3\n        /* \"#utility.yul\":10071:10089   */\n      add\n        /* \"#utility.yul\":10063:10089   */\n      swap1\n      pop\n        /* \"#utility.yul\":10135:10144   */\n      dup2\n        /* \"#utility.yul\":10129:10133   */\n      dup2\n        /* \"#utility.yul\":10125:10145   */\n      sub\n        /* \"#utility.yul\":10121:10122   */\n      0x00\n        /* \"#utility.yul\":10110:10119   */\n      dup4\n        /* \"#utility.yul\":10106:10123   */\n      add\n        /* \"#utility.yul\":10099:10146   */\n      mstore\n        /* \"#utility.yul\":10163:10294   */\n      tag_407\n        /* \"#utility.yul\":10289:10293   */\n      dup2\n        /* \"#utility.yul\":10163:10294   */\n      tag_280\n      jump\t// in\n    tag_407:\n        /* \"#utility.yul\":10155:10294   */\n      swap1\n      pop\n        /* \"#utility.yul\":9882:10301   */\n      swap2\n      swap1\n      pop\n      jump\t// out\n        /* \"#utility.yul\":10307:10475   */\n    tag_281:\n        /* \"#utility.yul\":10447:10467   */\n      0x596f7520616c726561647920766f7465642e0000000000000000000000000000\n        /* \"#utility.yul\":10443:10444   */\n      0x00\n        /* \"#utility.yul\":10435:10441   */\n      dup3\n        /* \"#utility.yul\":10431:10445   */\n      add\n        /* \"#utility.yul\":10424:10468   */\n      mstore\n        /* \"#utility.yul\":10307:10475   */\n      pop\n      jump\t// out\n        /* \"#utility.yul\":10481:10847   */\n    tag_282:\n        /* \"#utility.yul\":10623:10626   */\n      0x00\n        /* \"#utility.yul\":10644:10711   */\n      tag_410\n        /* \"#utility.yul\":10708:10710   */\n      0x12\n        /* \"#utility.yul\":10703:10706   */\n      dup4\n        /* \"#utility.yul\":10644:10711   */\n      tag_270\n      jump\t// in\n    tag_410:\n        /* \"#utility.yul\":10637:10711   */\n      swap2\n      pop\n        /* \"#utility.yul\":10720:10813   */\n      tag_411\n        /* \"#utility.yul\":10809:10812   */\n      dup3\n        /* \"#utility.yul\":10720:10813   */\n      tag_281\n      jump\t// in\n    tag_411:\n        /* \"#utility.yul\":10838:10840   */\n      0x20\n        /* \"#utility.yul\":10833:10836   */\n      dup3\n        /* \"#utility.yul\":10829:10841   */\n      add\n        /* \"#utility.yul\":10822:10841   */\n      swap1\n      pop\n        /* \"#utility.yul\":10481:10847   */\n      swap2\n      swap1\n      pop\n      jump\t// out\n        /* \"#utility.yul\":10853:11272   */\n    tag_80:\n        /* \"#utility.yul\":11019:11023   */\n      0x00\n        /* \"#utility.yul\":11057:11059   */\n      0x20\n        /* \"#utility.yul\":11046:11055   */\n      dup3\n        /* \"#utility.yul\":11042:11060   */\n      add\n        /* \"#utility.yul\":11034:11060   */\n      swap1\n      pop\n        /* \"#utility.yul\":11106:11115   */\n      dup2\n        /* \"#utility.yul\":11100:11104   */\n      dup2\n        /* \"#utility.yul\":11096:11116   */\n      sub\n        /* \"#utility.yul\":11092:11093   */\n      0x00\n        /* \"#utility.yul\":11081:11090   */\n      dup4\n        /* \"#utility.yul\":11077:11094   */\n      add\n        /* \"#utility.yul\":11070:11117   */\n      mstore\n        /* \"#utility.yul\":11134:11265   */\n      tag_413\n        /* \"#utility.yul\":11260:11264   */\n      dup2\n        /* \"#utility.yul\":11134:11265   */\n      tag_282\n      jump\t// in\n    tag_413:\n        /* \"#utility.yul\":11126:11265   */\n      swap1\n      pop\n        /* \"#utility.yul\":10853:11272   */\n      swap2\n      swap1\n      pop\n      jump\t// out\n        /* \"#utility.yul\":11278:11458   */\n    tag_83:\n        /* \"#utility.yul\":11326:11403   */\n      0x4e487b7100000000000000000000000000000000000000000000000000000000\n        /* \"#utility.yul\":11323:11324   */\n      0x00\n        /* \"#utility.yul\":11316:11404   */\n      mstore\n        /* \"#utility.yul\":11423:11427   */\n      0x32\n        /* \"#utility.yul\":11420:11421   */\n      0x04\n        /* \"#utility.yul\":11413:11428   */\n      mstore\n        /* \"#utility.yul\":11447:11451   */\n      0x24\n        /* \"#utility.yul\":11444:11445   */\n      0x00\n        /* \"#utility.yul\":11437:11452   */\n      revert\n        /* \"#utility.yul\":11464:11644   */\n    tag_283:\n        /* \"#utility.yul\":11512:11589   */\n      0x4e487b7100000000000000000000000000000000000000000000000000000000\n        /* \"#utility.yul\":11509:11510   */\n      0x00\n        /* \"#utility.yul\":11502:11590   */\n      mstore\n        /* \"#utility.yul\":11609:11613   */\n      0x22\n        /* \"#utility.yul\":11606:11607   */\n      0x04\n        /* \"#utility.yul\":11599:11614   */\n      mstore\n        /* \"#utility.yul\":11633:11637   */\n      0x24\n        /* \"#utility.yul\":11630:11631   */\n      0x00\n        /* \"#utility.yul\":11623:11638   */\n      revert\n        /* \"#utility.yul\":11650:11970   */\n    tag_86:\n        /* \"#utility.yul\":11694:11700   */\n      0x00\n        /* \"#utility.yul\":11731:11732   */\n      0x02\n        /* \"#utility.yul\":11725:11729   */\n      dup3\n        /* \"#utility.yul\":11721:11733   */\n      div\n        /* \"#utility.yul\":11711:11733   */\n      swap1\n      pop\n        /* \"#utility.yul\":11778:11779   */\n      0x01\n        /* \"#utility.yul\":11772:11776   */\n      dup3\n        /* \"#utility.yul\":11768:11780   */\n      and\n        /* \"#utility.yul\":11799:11817   */\n      dup1\n        /* \"#utility.yul\":11789:11870   */\n      tag_417\n      jumpi\n        /* \"#utility.yul\":11855:11859   */\n      0x7f\n        /* \"#utility.yul\":11847:11853   */\n      dup3\n        /* \"#utility.yul\":11843:11860   */\n      and\n        /* \"#utility.yul\":11833:11860   */\n      swap2\n      pop\n        /* \"#utility.yul\":11789:11870   */\n    tag_417:\n        /* \"#utility.yul\":11917:11919   */\n      0x20\n        /* \"#utility.yul\":11909:11915   */\n      dup3\n        /* \"#utility.yul\":11906:11920   */\n      lt\n        /* \"#utility.yul\":11886:11904   */\n      dup2\n        /* \"#utility.yul\":11883:11921   */\n      sub\n        /* \"#utility.yul\":11880:11964   */\n      tag_418\n      jumpi\n        /* \"#utility.yul\":11936:11954   */\n      tag_419\n      tag_283\n      jump\t// in\n    tag_419:\n        /* \"#utility.yul\":11880:11964   */\n    tag_418:\n        /* \"#utility.yul\":11701:11970   */\n      pop\n        /* \"#utility.yul\":11650:11970   */\n      swap2\n      swap1\n      pop\n      jump\t// out\n        /* \"#utility.yul\":11976:12156   */\n    tag_284:\n        /* \"#utility.yul\":12116:12148   */\n      0x546869732070726f706f73616c20646f6573206e6f74206578697374732e0000\n        /* \"#utility.yul\":12112:12113   */\n      0x00\n        /* \"#utility.yul\":12104:12110   */\n      dup3\n        /* \"#utility.yul\":12100:12114   */\n      add\n        /* \"#utility.yul\":12093:12149   */\n      mstore\n        /* \"#utility.yul\":11976:12156   */\n      pop\n      jump\t// out\n        /* \"#utility.yul\":12162:12528   */\n    tag_285:\n        /* \"#utility.yul\":12304:12307   */\n      0x00\n        /* \"#utility.yul\":12325:12392   */\n      tag_422\n        /* \"#utility.yul\":12389:12391   */\n      0x1e\n        /* \"#utility.yul\":12384:12387   */\n      dup4\n        /* \"#utility.yul\":12325:12392   */\n      tag_270\n      jump\t// in\n    tag_422:\n        /* \"#utility.yul\":12318:12392   */\n      swap2\n      pop\n        /* \"#utility.yul\":12401:12494   */\n      tag_423\n        /* \"#utility.yul\":12490:12493   */\n      dup3\n        /* \"#utility.yul\":12401:12494   */\n      tag_284\n      jump\t// in\n    tag_423:\n        /* \"#utility.yul\":12519:12521   */\n      0x20\n        /* \"#utility.yul\":12514:12517   */\n      dup3\n        /* \"#utility.yul\":12510:12522   */\n      add\n        /* \"#utility.yul\":12503:12522   */\n      swap1\n      pop\n        /* \"#utility.yul\":12162:12528   */\n      swap2\n      swap1\n      pop\n      jump\t// out\n        /* \"#utility.yul\":12534:12953   */\n    tag_89:\n        /* \"#utility.yul\":12700:12704   */\n      0x00\n        /* \"#utility.yul\":12738:12740   */\n      0x20\n        /* \"#utility.yul\":12727:12736   */\n      dup3\n        /* \"#utility.yul\":12723:12741   */\n      add\n        /* \"#utility.yul\":12715:12741   */\n      swap1\n      pop\n        /* \"#utility.yul\":12787:12796   */\n      dup2\n        /* \"#utility.yul\":12781:12785   */\n      dup2\n        /* \"#utility.yul\":12777:12797   */\n      sub\n        /* \"#utility.yul\":12773:12774   */\n      0x00\n        /* \"#utility.yul\":12762:12771   */\n      dup4\n        /* \"#utility.yul\":12758:12775   */\n      add\n        /* \"#utility.yul\":12751:12798   */\n      mstore\n        /* \"#utility.yul\":12815:12946   */\n      tag_425\n        /* \"#utility.yul\":12941:12945   */\n      dup2\n        /* \"#utility.yul\":12815:12946   */\n      tag_285\n      jump\t// in\n    tag_425:\n        /* \"#utility.yul\":12807:12946   */\n      swap1\n      pop\n        /* \"#utility.yul\":12534:12953   */\n      swap2\n      swap1\n      pop\n      jump\t// out\n        /* \"#utility.yul\":12959:13077   */\n    tag_286:\n        /* \"#utility.yul\":13046:13070   */\n      tag_427\n        /* \"#utility.yul\":13064:13069   */\n      dup2\n        /* \"#utility.yul\":13046:13070   */\n      tag_251\n      jump\t// in\n    tag_427:\n        /* \"#utility.yul\":13041:13044   */\n      dup3\n        /* \"#utility.yul\":13034:13071   */\n      mstore\n        /* \"#utility.yul\":12959:13077   */\n      pop\n      pop\n      jump\t// out\n        /* \"#utility.yul\":13083:13415   */\n    tag_91:\n        /* \"#utility.yul\":13204:13208   */\n      0x00\n        /* \"#utility.yul\":13242:13244   */\n      0x40\n        /* \"#utility.yul\":13231:13240   */\n      dup3\n        /* \"#utility.yul\":13227:13245   */\n      add\n        /* \"#utility.yul\":13219:13245   */\n      swap1\n      pop\n        /* \"#utility.yul\":13255:13326   */\n      tag_429\n        /* \"#utility.yul\":13323:13324   */\n      0x00\n        /* \"#utility.yul\":13312:13321   */\n      dup4\n        /* \"#utility.yul\":13308:13325   */\n      add\n        /* \"#utility.yul\":13299:13305   */\n      dup6\n        /* \"#utility.yul\":13255:13326   */\n      tag_260\n      jump\t// in\n    tag_429:\n        /* \"#utility.yul\":13336:13408   */\n      tag_430\n        /* \"#utility.yul\":13404:13406   */\n      0x20\n        /* \"#utility.yul\":13393:13402   */\n      dup4\n        /* \"#utility.yul\":13389:13407   */\n      add\n        /* \"#utility.yul\":13380:13386   */\n      dup5\n        /* \"#utility.yul\":13336:13408   */\n      tag_286\n      jump\t// in\n    tag_430:\n        /* \"#utility.yul\":13083:13415   */\n      swap4\n      swap3\n      pop\n      pop\n      pop\n      jump\t// out\n        /* \"#utility.yul\":13421:13650   */\n    tag_287:\n        /* \"#utility.yul\":13561:13595   */\n      0x596f75206d757374206265207265676973746572656420746f206d616b652061\n        /* \"#utility.yul\":13557:13558   */\n      0x00\n        /* \"#utility.yul\":13549:13555   */\n      dup3\n        /* \"#utility.yul\":13545:13559   */\n      add\n        /* \"#utility.yul\":13538:13596   */\n      mstore\n        /* \"#utility.yul\":13630:13642   */\n      0x2070726f706f73616c2e00000000000000000000000000000000000000000000\n        /* \"#utility.yul\":13625:13627   */\n      0x20\n        /* \"#utility.yul\":13617:13623   */\n      dup3\n        /* \"#utility.yul\":13613:13628   */\n      add\n        /* \"#utility.yul\":13606:13643   */\n      mstore\n        /* \"#utility.yul\":13421:13650   */\n      pop\n      jump\t// out\n        /* \"#utility.yul\":13656:14022   */\n    tag_288:\n        /* \"#utility.yul\":13798:13801   */\n      0x00\n        /* \"#utility.yul\":13819:13886   */\n      tag_433\n        /* \"#utility.yul\":13883:13885   */\n      0x2a\n        /* \"#utility.yul\":13878:13881   */\n      dup4\n        /* \"#utility.yul\":13819:13886   */\n      tag_270\n      jump\t// in\n    tag_433:\n        /* \"#utility.yul\":13812:13886   */\n      swap2\n      pop\n        /* \"#utility.yul\":13895:13988   */\n      tag_434\n        /* \"#utility.yul\":13984:13987   */\n      dup3\n        /* \"#utility.yul\":13895:13988   */\n      tag_287\n      jump\t// in\n    tag_434:\n        /* \"#utility.yul\":14013:14015   */\n      0x40\n        /* \"#utility.yul\":14008:14011   */\n      dup3\n        /* \"#utility.yul\":14004:14016   */\n      add\n        /* \"#utility.yul\":13997:14016   */\n      swap1\n      pop\n        /* \"#utility.yul\":13656:14022   */\n      swap2\n      swap1\n      pop\n      jump\t// out\n        /* \"#utility.yul\":14028:14447   */\n    tag_101:\n        /* \"#utility.yul\":14194:14198   */\n      0x00\n        /* \"#utility.yul\":14232:14234   */\n      0x20\n        /* \"#utility.yul\":14221:14230   */\n      dup3\n        /* \"#utility.yul\":14217:14235   */\n      add\n        /* \"#utility.yul\":14209:14235   */\n      swap1\n      pop\n        /* \"#utility.yul\":14281:14290   */\n      dup2\n        /* \"#utility.yul\":14275:14279   */\n      dup2\n        /* \"#utility.yul\":14271:14291   */\n      sub\n        /* \"#utility.yul\":14267:14268   */\n      0x00\n        /* \"#utility.yul\":14256:14265   */\n      dup4\n        /* \"#utility.yul\":14252:14269   */\n      add\n        /* \"#utility.yul\":14245:14292   */\n      mstore\n        /* \"#utility.yul\":14309:14440   */\n      tag_436\n        /* \"#utility.yul\":14435:14439   */\n      dup2\n        /* \"#utility.yul\":14309:14440   */\n      tag_288\n      jump\t// in\n    tag_436:\n        /* \"#utility.yul\":14301:14440   */\n      swap1\n      pop\n        /* \"#utility.yul\":14028:14447   */\n      swap2\n      swap1\n      pop\n      jump\t// out\n        /* \"#utility.yul\":14453:14632   */\n    tag_289:\n        /* \"#utility.yul\":14593:14624   */\n      0x5468652070726f706f73616c2063616e6e6f7420626520656d7074792e000000\n        /* \"#utility.yul\":14589:14590   */\n      0x00\n        /* \"#utility.yul\":14581:14587   */\n      dup3\n        /* \"#utility.yul\":14577:14591   */\n      add\n        /* \"#utility.yul\":14570:14625   */\n      mstore\n        /* \"#utility.yul\":14453:14632   */\n      pop\n      jump\t// out\n        /* \"#utility.yul\":14638:15004   */\n    tag_290:\n        /* \"#utility.yul\":14780:14783   */\n      0x00\n        /* \"#utility.yul\":14801:14868   */\n      tag_439\n        /* \"#utility.yul\":14865:14867   */\n      0x1d\n        /* \"#utility.yul\":14860:14863   */\n      dup4\n        /* \"#utility.yul\":14801:14868   */\n      tag_270\n      jump\t// in\n    tag_439:\n        /* \"#utility.yul\":14794:14868   */\n      swap2\n      pop\n        /* \"#utility.yul\":14877:14970   */\n      tag_440\n        /* \"#utility.yul\":14966:14969   */\n      dup3\n        /* \"#utility.yul\":14877:14970   */\n      tag_289\n      jump\t// in\n    tag_440:\n        /* \"#utility.yul\":14995:14997   */\n      0x20\n        /* \"#utility.yul\":14990:14993   */\n      dup3\n        /* \"#utility.yul\":14986:14998   */\n      add\n        /* \"#utility.yul\":14979:14998   */\n      swap1\n      pop\n        /* \"#utility.yul\":14638:15004   */\n      swap2\n      swap1\n      pop\n      jump\t// out\n        /* \"#utility.yul\":15010:15429   */\n    tag_104:\n        /* \"#utility.yul\":15176:15180   */\n      0x00\n        /* \"#utility.yul\":15214:15216   */\n      0x20\n        /* \"#utility.yul\":15203:15212   */\n      dup3\n        /* \"#utility.yul\":15199:15217   */\n      add\n        /* \"#utility.yul\":15191:15217   */\n      swap1\n      pop\n        /* \"#utility.yul\":15263:15272   */\n      dup2\n        /* \"#utility.yul\":15257:15261   */\n      dup2\n        /* \"#utility.yul\":15253:15273   */\n      sub\n        /* \"#utility.yul\":15249:15250   */\n      0x00\n        /* \"#utility.yul\":15238:15247   */\n      dup4\n        /* \"#utility.yul\":15234:15251   */\n      add\n        /* \"#utility.yul\":15227:15274   */\n      mstore\n        /* \"#utility.yul\":15291:15422   */\n      tag_442\n        /* \"#utility.yul\":15417:15421   */\n      dup2\n        /* \"#utility.yul\":15291:15422   */\n      tag_290\n      jump\t// in\n    tag_442:\n        /* \"#utility.yul\":15283:15422   */\n      swap1\n      pop\n        /* \"#utility.yul\":15010:15429   */\n      swap2\n      swap1\n      pop\n      jump\t// out\n        /* \"#utility.yul\":15435:15615   */\n    tag_291:\n        /* \"#utility.yul\":15483:15560   */\n      0x4e487b7100000000000000000000000000000000000000000000000000000000\n        /* \"#utility.yul\":15480:15481   */\n      0x00\n        /* \"#utility.yul\":15473:15561   */\n      mstore\n        /* \"#utility.yul\":15580:15584   */\n      0x11\n        /* \"#utility.yul\":15577:15578   */\n      0x04\n        /* \"#utility.yul\":15570:15585   */\n      mstore\n        /* \"#utility.yul\":15604:15608   */\n      0x24\n        /* \"#utility.yul\":15601:15602   */\n      0x00\n        /* \"#utility.yul\":15594:15609   */\n      revert\n        /* \"#utility.yul\":15621:15812   */\n    tag_109:\n        /* \"#utility.yul\":15661:15665   */\n      0x00\n        /* \"#utility.yul\":15681:15701   */\n      tag_445\n        /* \"#utility.yul\":15699:15700   */\n      dup3\n        /* \"#utility.yul\":15681:15701   */\n      tag_251\n      jump\t// in\n    tag_445:\n        /* \"#utility.yul\":15676:15701   */\n      swap2\n      pop\n        /* \"#utility.yul\":15715:15735   */\n      tag_446\n        /* \"#utility.yul\":15733:15734   */\n      dup4\n        /* \"#utility.yul\":15715:15735   */\n      tag_251\n      jump\t// in\n    tag_446:\n        /* \"#utility.yul\":15710:15735   */\n      swap3\n      pop\n        /* \"#utility.yul\":15754:15755   */\n      dup3\n        /* \"#utility.yul\":15751:15752   */\n      dup3\n        /* \"#utility.yul\":15748:15756   */\n      lt\n        /* \"#utility.yul\":15745:15779   */\n      iszero\n      tag_447\n      jumpi\n        /* \"#utility.yul\":15759:15777   */\n      tag_448\n      tag_291\n      jump\t// in\n    tag_448:\n        /* \"#utility.yul\":15745:15779   */\n    tag_447:\n        /* \"#utility.yul\":15804:15805   */\n      dup3\n        /* \"#utility.yul\":15801:15802   */\n      dup3\n        /* \"#utility.yul\":15797:15806   */\n      sub\n        /* \"#utility.yul\":15789:15806   */\n      swap1\n      pop\n        /* \"#utility.yul\":15621:15812   */\n      swap3\n      swap2\n      pop\n      pop\n      jump\t// out\n        /* \"#utility.yul\":15818:16040   */\n    tag_111:\n        /* \"#utility.yul\":15911:15915   */\n      0x00\n        /* \"#utility.yul\":15949:15951   */\n      0x20\n        /* \"#utility.yul\":15938:15947   */\n      dup3\n        /* \"#utility.yul\":15934:15952   */\n      add\n        /* \"#utility.yul\":15926:15952   */\n      swap1\n      pop\n        /* \"#utility.yul\":15962:16033   */\n      tag_450\n        /* \"#utility.yul\":16030:16031   */\n      0x00\n        /* \"#utility.yul\":16019:16028   */\n      dup4\n        /* \"#utility.yul\":16015:16032   */\n      add\n        /* \"#utility.yul\":16006:16012   */\n      dup5\n        /* \"#utility.yul\":15962:16033   */\n      tag_286\n      jump\t// in\n    tag_450:\n        /* \"#utility.yul\":15818:16040   */\n      swap3\n      swap2\n      pop\n      pop\n      jump\t// out\n        /* \"#utility.yul\":16046:16295   */\n    tag_292:\n        /* \"#utility.yul\":16186:16220   */\n      0x4e656564206174206c656173742032207265676973746572656420766f746572\n        /* \"#utility.yul\":16182:16183   */\n      0x00\n        /* \"#utility.yul\":16174:16180   */\n      dup3\n        /* \"#utility.yul\":16170:16184   */\n      add\n        /* \"#utility.yul\":16163:16221   */\n      mstore\n        /* \"#utility.yul\":16255:16287   */\n      0x7320746f20737461727420612070726f706f73616c2073657373696f6e2e0000\n        /* \"#utility.yul\":16250:16252   */\n      0x20\n        /* \"#utility.yul\":16242:16248   */\n      dup3\n        /* \"#utility.yul\":16238:16253   */\n      add\n        /* \"#utility.yul\":16231:16288   */\n      mstore\n        /* \"#utility.yul\":16046:16295   */\n      pop\n      jump\t// out\n        /* \"#utility.yul\":16301:16667   */\n    tag_293:\n        /* \"#utility.yul\":16443:16446   */\n      0x00\n        /* \"#utility.yul\":16464:16531   */\n      tag_453\n        /* \"#utility.yul\":16528:16530   */\n      0x3e\n        /* \"#utility.yul\":16523:16526   */\n      dup4\n        /* \"#utility.yul\":16464:16531   */\n      tag_270\n      jump\t// in\n    tag_453:\n        /* \"#utility.yul\":16457:16531   */\n      swap2\n      pop\n        /* \"#utility.yul\":16540:16633   */\n      tag_454\n        /* \"#utility.yul\":16629:16632   */\n      dup3\n        /* \"#utility.yul\":16540:16633   */\n      tag_292\n      jump\t// in\n    tag_454:\n        /* \"#utility.yul\":16658:16660   */\n      0x40\n        /* \"#utility.yul\":16653:16656   */\n      dup3\n        /* \"#utility.yul\":16649:16661   */\n      add\n        /* \"#utility.yul\":16642:16661   */\n      swap1\n      pop\n        /* \"#utility.yul\":16301:16667   */\n      swap2\n      swap1\n      pop\n      jump\t// out\n        /* \"#utility.yul\":16673:17092   */\n    tag_122:\n        /* \"#utility.yul\":16839:16843   */\n      0x00\n        /* \"#utility.yul\":16877:16879   */\n      0x20\n        /* \"#utility.yul\":16866:16875   */\n      dup3\n        /* \"#utility.yul\":16862:16880   */\n      add\n        /* \"#utility.yul\":16854:16880   */\n      swap1\n      pop\n        /* \"#utility.yul\":16926:16935   */\n      dup2\n        /* \"#utility.yul\":16920:16924   */\n      dup2\n        /* \"#utility.yul\":16916:16936   */\n      sub\n        /* \"#utility.yul\":16912:16913   */\n      0x00\n        /* \"#utility.yul\":16901:16910   */\n      dup4\n        /* \"#utility.yul\":16897:16914   */\n      add\n        /* \"#utility.yul\":16890:16937   */\n      mstore\n        /* \"#utility.yul\":16954:17085   */\n      tag_456\n        /* \"#utility.yul\":17080:17084   */\n      dup2\n        /* \"#utility.yul\":16954:17085   */\n      tag_293\n      jump\t// in\n    tag_456:\n        /* \"#utility.yul\":16946:17085   */\n      swap1\n      pop\n        /* \"#utility.yul\":16673:17092   */\n      swap2\n      swap1\n      pop\n      jump\t// out\n        /* \"#utility.yul\":17098:17274   */\n    tag_294:\n        /* \"#utility.yul\":17238:17266   */\n      0x54686520636f756e74206973206e6f74206f766572207965742e000000000000\n        /* \"#utility.yul\":17234:17235   */\n      0x00\n        /* \"#utility.yul\":17226:17232   */\n      dup3\n        /* \"#utility.yul\":17222:17236   */\n      add\n        /* \"#utility.yul\":17215:17267   */\n      mstore\n        /* \"#utility.yul\":17098:17274   */\n      pop\n      jump\t// out\n        /* \"#utility.yul\":17280:17646   */\n    tag_295:\n        /* \"#utility.yul\":17422:17425   */\n      0x00\n        /* \"#utility.yul\":17443:17510   */\n      tag_459\n        /* \"#utility.yul\":17507:17509   */\n      0x1a\n        /* \"#utility.yul\":17502:17505   */\n      dup4\n        /* \"#utility.yul\":17443:17510   */\n      tag_270\n      jump\t// in\n    tag_459:\n        /* \"#utility.yul\":17436:17510   */\n      swap2\n      pop\n        /* \"#utility.yul\":17519:17612   */\n      tag_460\n        /* \"#utility.yul\":17608:17611   */\n      dup3\n        /* \"#utility.yul\":17519:17612   */\n      tag_294\n      jump\t// in\n    tag_460:\n        /* \"#utility.yul\":17637:17639   */\n      0x20\n        /* \"#utility.yul\":17632:17635   */\n      dup3\n        /* \"#utility.yul\":17628:17640   */\n      add\n        /* \"#utility.yul\":17621:17640   */\n      swap1\n      pop\n        /* \"#utility.yul\":17280:17646   */\n      swap2\n      swap1\n      pop\n      jump\t// out\n        /* \"#utility.yul\":17652:18071   */\n    tag_136:\n        /* \"#utility.yul\":17818:17822   */\n      0x00\n        /* \"#utility.yul\":17856:17858   */\n      0x20\n        /* \"#utility.yul\":17845:17854   */\n      dup3\n        /* \"#utility.yul\":17841:17859   */\n      add\n        /* \"#utility.yul\":17833:17859   */\n      swap1\n      pop\n        /* \"#utility.yul\":17905:17914   */\n      dup2\n        /* \"#utility.yul\":17899:17903   */\n      dup2\n        /* \"#utility.yul\":17895:17915   */\n      sub\n        /* \"#utility.yul\":17891:17892   */\n      0x00\n        /* \"#utility.yul\":17880:17889   */\n      dup4\n        /* \"#utility.yul\":17876:17893   */\n      add\n        /* \"#utility.yul\":17869:17916   */\n      mstore\n        /* \"#utility.yul\":17933:18064   */\n      tag_462\n        /* \"#utility.yul\":18059:18063   */\n      dup2\n        /* \"#utility.yul\":17933:18064   */\n      tag_295\n      jump\t// in\n    tag_462:\n        /* \"#utility.yul\":17925:18064   */\n      swap1\n      pop\n        /* \"#utility.yul\":17652:18071   */\n      swap2\n      swap1\n      pop\n      jump\t// out\n        /* \"#utility.yul\":18077:18305   */\n    tag_296:\n        /* \"#utility.yul\":18217:18251   */\n      0x546865207265676973746572696e6720766f74657273206973206e6f74206f70\n        /* \"#utility.yul\":18213:18214   */\n      0x00\n        /* \"#utility.yul\":18205:18211   */\n      dup3\n        /* \"#utility.yul\":18201:18215   */\n      add\n        /* \"#utility.yul\":18194:18252   */\n      mstore\n        /* \"#utility.yul\":18286:18297   */\n      0x656e6564207965742e0000000000000000000000000000000000000000000000\n        /* \"#utility.yul\":18281:18283   */\n      0x20\n        /* \"#utility.yul\":18273:18279   */\n      dup3\n        /* \"#utility.yul\":18269:18284   */\n      add\n        /* \"#utility.yul\":18262:18298   */\n      mstore\n        /* \"#utility.yul\":18077:18305   */\n      pop\n      jump\t// out\n        /* \"#utility.yul\":18311:18677   */\n    tag_297:\n        /* \"#utility.yul\":18453:18456   */\n      0x00\n        /* \"#utility.yul\":18474:18541   */\n      tag_465\n        /* \"#utility.yul\":18538:18540   */\n      0x29\n        /* \"#utility.yul\":18533:18536   */\n      dup4\n        /* \"#utility.yul\":18474:18541   */\n      tag_270\n      jump\t// in\n    tag_465:\n        /* \"#utility.yul\":18467:18541   */\n      swap2\n      pop\n        /* \"#utility.yul\":18550:18643   */\n      tag_466\n        /* \"#utility.yul\":18639:18642   */\n      dup3\n        /* \"#utility.yul\":18550:18643   */\n      tag_296\n      jump\t// in\n    tag_466:\n        /* \"#utility.yul\":18668:18670   */\n      0x40\n        /* \"#utility.yul\":18663:18666   */\n      dup3\n        /* \"#utility.yul\":18659:18671   */\n      add\n        /* \"#utility.yul\":18652:18671   */\n      swap1\n      pop\n        /* \"#utility.yul\":18311:18677   */\n      swap2\n      swap1\n      pop\n      jump\t// out\n        /* \"#utility.yul\":18683:19102   */\n    tag_154:\n        /* \"#utility.yul\":18849:18853   */\n      0x00\n        /* \"#utility.yul\":18887:18889   */\n      0x20\n        /* \"#utility.yul\":18876:18885   */\n      dup3\n        /* \"#utility.yul\":18872:18890   */\n      add\n        /* \"#utility.yul\":18864:18890   */\n      swap1\n      pop\n        /* \"#utility.yul\":18936:18945   */\n      dup2\n        /* \"#utility.yul\":18930:18934   */\n      dup2\n        /* \"#utility.yul\":18926:18946   */\n      sub\n        /* \"#utility.yul\":18922:18923   */\n      0x00\n        /* \"#utility.yul\":18911:18920   */\n      dup4\n        /* \"#utility.yul\":18907:18924   */\n      add\n        /* \"#utility.yul\":18900:18947   */\n      mstore\n        /* \"#utility.yul\":18964:19095   */\n      tag_468\n        /* \"#utility.yul\":19090:19094   */\n      dup2\n        /* \"#utility.yul\":18964:19095   */\n      tag_297\n      jump\t// in\n    tag_468:\n        /* \"#utility.yul\":18956:19095   */\n      swap1\n      pop\n        /* \"#utility.yul\":18683:19102   */\n      swap2\n      swap1\n      pop\n      jump\t// out\n        /* \"#utility.yul\":19108:19290   */\n    tag_298:\n        /* \"#utility.yul\":19248:19282   */\n      0x54686520766f74657220697320616c726561647920726567697374657265642e\n        /* \"#utility.yul\":19244:19245   */\n      0x00\n        /* \"#utility.yul\":19236:19242   */\n      dup3\n        /* \"#utility.yul\":19232:19246   */\n      add\n        /* \"#utility.yul\":19225:19283   */\n      mstore\n        /* \"#utility.yul\":19108:19290   */\n      pop\n      jump\t// out\n        /* \"#utility.yul\":19296:19662   */\n    tag_299:\n        /* \"#utility.yul\":19438:19441   */\n      0x00\n        /* \"#utility.yul\":19459:19526   */\n      tag_471\n        /* \"#utility.yul\":19523:19525   */\n      0x20\n        /* \"#utility.yul\":19518:19521   */\n      dup4\n        /* \"#utility.yul\":19459:19526   */\n      tag_270\n      jump\t// in\n    tag_471:\n        /* \"#utility.yul\":19452:19526   */\n      swap2\n      pop\n        /* \"#utility.yul\":19535:19628   */\n      tag_472\n        /* \"#utility.yul\":19624:19627   */\n      dup3\n        /* \"#utility.yul\":19535:19628   */\n      tag_298\n      jump\t// in\n    tag_472:\n        /* \"#utility.yul\":19653:19655   */\n      0x20\n        /* \"#utility.yul\":19648:19651   */\n      dup3\n        /* \"#utility.yul\":19644:19656   */\n      add\n        /* \"#utility.yul\":19637:19656   */\n      swap1\n      pop\n        /* \"#utility.yul\":19296:19662   */\n      swap2\n      swap1\n      pop\n      jump\t// out\n        /* \"#utility.yul\":19668:20087   */\n    tag_157:\n        /* \"#utility.yul\":19834:19838   */\n      0x00\n        /* \"#utility.yul\":19872:19874   */\n      0x20\n        /* \"#utility.yul\":19861:19870   */\n      dup3\n        /* \"#utility.yul\":19857:19875   */\n      add\n        /* \"#utility.yul\":19849:19875   */\n      swap1\n      pop\n        /* \"#utility.yul\":19921:19930   */\n      dup2\n        /* \"#utility.yul\":19915:19919   */\n      dup2\n        /* \"#utility.yul\":19911:19931   */\n      sub\n        /* \"#utility.yul\":19907:19908   */\n      0x00\n        /* \"#utility.yul\":19896:19905   */\n      dup4\n        /* \"#utility.yul\":19892:19909   */\n      add\n        /* \"#utility.yul\":19885:19932   */\n      mstore\n        /* \"#utility.yul\":19949:20080   */\n      tag_474\n        /* \"#utility.yul\":20075:20079   */\n      dup2\n        /* \"#utility.yul\":19949:20080   */\n      tag_299\n      jump\t// in\n    tag_474:\n        /* \"#utility.yul\":19941:20080   */\n      swap1\n      pop\n        /* \"#utility.yul\":19668:20087   */\n      swap2\n      swap1\n      pop\n      jump\t// out\n        /* \"#utility.yul\":20093:20326   */\n    tag_159:\n        /* \"#utility.yul\":20132:20135   */\n      0x00\n        /* \"#utility.yul\":20155:20179   */\n      tag_476\n        /* \"#utility.yul\":20173:20178   */\n      dup3\n        /* \"#utility.yul\":20155:20179   */\n      tag_251\n      jump\t// in\n    tag_476:\n        /* \"#utility.yul\":20146:20179   */\n      swap2\n      pop\n        /* \"#utility.yul\":20201:20267   */\n      0xffffffffffffffffffffffffffffffffffffffffffffffffffffffffffffffff\n        /* \"#utility.yul\":20194:20199   */\n      dup3\n        /* \"#utility.yul\":20191:20268   */\n      sub\n        /* \"#utility.yul\":20188:20291   */\n      tag_477\n      jumpi\n        /* \"#utility.yul\":20271:20289   */\n      tag_478\n      tag_291\n      jump\t// in\n    tag_478:\n        /* \"#utility.yul\":20188:20291   */\n    tag_477:\n        /* \"#utility.yul\":20318:20319   */\n      0x01\n        /* \"#utility.yul\":20311:20316   */\n      dup3\n        /* \"#utility.yul\":20307:20320   */\n      add\n        /* \"#utility.yul\":20300:20320   */\n      swap1\n      pop\n        /* \"#utility.yul\":20093:20326   */\n      swap2\n      swap1\n      pop\n      jump\t// out\n        /* \"#utility.yul\":20332:20562   */\n    tag_300:\n        /* \"#utility.yul\":20472:20506   */\n      0x5468652070726f706f73616c20726567697374726174696f6e206973206e6f74\n        /* \"#utility.yul\":20468:20469   */\n      0x00\n        /* \"#utility.yul\":20460:20466   */\n      dup3\n        /* \"#utility.yul\":20456:20470   */\n      add\n        /* \"#utility.yul\":20449:20507   */\n      mstore\n        /* \"#utility.yul\":20541:20554   */\n      0x20656e646564207965742e000000000000000000000000000000000000000000\n        /* \"#utility.yul\":20536:20538   */\n      0x20\n        /* \"#utility.yul\":20528:20534   */\n      dup3\n        /* \"#utility.yul\":20524:20539   */\n      add\n        /* \"#utility.yul\":20517:20555   */\n      mstore\n        /* \"#utility.yul\":20332:20562   */\n      pop\n      jump\t// out\n        /* \"#utility.yul\":20568:20934   */\n    tag_301:\n        /* \"#utility.yul\":20710:20713   */\n      0x00\n        /* \"#utility.yul\":20731:20798   */\n      tag_481\n        /* \"#utility.yul\":20795:20797   */\n      0x2b\n        /* \"#utility.yul\":20790:20793   */\n      dup4\n        /* \"#utility.yul\":20731:20798   */\n      tag_270\n      jump\t// in\n    tag_481:\n        /* \"#utility.yul\":20724:20798   */\n      swap2\n      pop\n        /* \"#utility.yul\":20807:20900   */\n      tag_482\n        /* \"#utility.yul\":20896:20899   */\n      dup3\n        /* \"#utility.yul\":20807:20900   */\n      tag_300\n      jump\t// in\n    tag_482:\n        /* \"#utility.yul\":20925:20927   */\n      0x40\n        /* \"#utility.yul\":20920:20923   */\n      dup3\n        /* \"#utility.yul\":20916:20928   */\n      add\n        /* \"#utility.yul\":20909:20928   */\n      swap1\n      pop\n        /* \"#utility.yul\":20568:20934   */\n      swap2\n      swap1\n      pop\n      jump\t// out\n        /* \"#utility.yul\":20940:21359   */\n    tag_170:\n        /* \"#utility.yul\":21106:21110   */\n      0x00\n        /* \"#utility.yul\":21144:21146   */\n      0x20\n        /* \"#utility.yul\":21133:21142   */\n      dup3\n        /* \"#utility.yul\":21129:21147   */\n      add\n        /* \"#utility.yul\":21121:21147   */\n      swap1\n      pop\n        /* \"#utility.yul\":21193:21202   */\n      dup2\n        /* \"#utility.yul\":21187:21191   */\n      dup2\n        /* \"#utility.yul\":21183:21203   */\n      sub\n        /* \"#utility.yul\":21179:21180   */\n      0x00\n        /* \"#utility.yul\":21168:21177   */\n      dup4\n        /* \"#utility.yul\":21164:21181   */\n      add\n        /* \"#utility.yul\":21157:21204   */\n      mstore\n        /* \"#utility.yul\":21221:21352   */\n      tag_484\n        /* \"#utility.yul\":21347:21351   */\n      dup2\n        /* \"#utility.yul\":21221:21352   */\n      tag_301\n      jump\t// in\n    tag_484:\n        /* \"#utility.yul\":21213:21352   */\n      swap1\n      pop\n        /* \"#utility.yul\":20940:21359   */\n      swap2\n      swap1\n      pop\n      jump\t// out\n        /* \"#utility.yul\":21365:21606   */\n    tag_302:\n        /* \"#utility.yul\":21505:21539   */\n      0x4e656564206174206c656173742074776f2070726f706f73616c7320746f2073\n        /* \"#utility.yul\":21501:21502   */\n      0x00\n        /* \"#utility.yul\":21493:21499   */\n      dup3\n        /* \"#utility.yul\":21489:21503   */\n      add\n        /* \"#utility.yul\":21482:21540   */\n      mstore\n        /* \"#utility.yul\":21574:21598   */\n      0x74617274206120766f74696e672073657373696f6e2e00000000000000000000\n        /* \"#utility.yul\":21569:21571   */\n      0x20\n        /* \"#utility.yul\":21561:21567   */\n      dup3\n        /* \"#utility.yul\":21557:21572   */\n      add\n        /* \"#utility.yul\":21550:21599   */\n      mstore\n        /* \"#utility.yul\":21365:21606   */\n      pop\n      jump\t// out\n        /* \"#utility.yul\":21612:21978   */\n    tag_303:\n        /* \"#utility.yul\":21754:21757   */\n      0x00\n        /* \"#utility.yul\":21775:21842   */\n      tag_487\n        /* \"#utility.yul\":21839:21841   */\n      0x36\n        /* \"#utility.yul\":21834:21837   */\n      dup4\n        /* \"#utility.yul\":21775:21842   */\n      tag_270\n      jump\t// in\n    tag_487:\n        /* \"#utility.yul\":21768:21842   */\n      swap2\n      pop\n        /* \"#utility.yul\":21851:21944   */\n      tag_488\n        /* \"#utility.yul\":21940:21943   */\n      dup3\n        /* \"#utility.yul\":21851:21944   */\n      tag_302\n      jump\t// in\n    tag_488:\n        /* \"#utility.yul\":21969:21971   */\n      0x40\n        /* \"#utility.yul\":21964:21967   */\n      dup3\n        /* \"#utility.yul\":21960:21972   */\n      add\n        /* \"#utility.yul\":21953:21972   */\n      swap1\n      pop\n        /* \"#utility.yul\":21612:21978   */\n      swap2\n      swap1\n      pop\n      jump\t// out\n        /* \"#utility.yul\":21984:22403   */\n    tag_173:\n        /* \"#utility.yul\":22150:22154   */\n      0x00\n        /* \"#utility.yul\":22188:22190   */\n      0x20\n        /* \"#utility.yul\":22177:22186   */\n      dup3\n        /* \"#utility.yul\":22173:22191   */\n      add\n        /* \"#utility.yul\":22165:22191   */\n      swap1\n      pop\n        /* \"#utility.yul\":22237:22246   */\n      dup2\n        /* \"#utility.yul\":22231:22235   */\n      dup2\n        /* \"#utility.yul\":22227:22247   */\n      sub\n        /* \"#utility.yul\":22223:22224   */\n      0x00\n        /* \"#utility.yul\":22212:22221   */\n      dup4\n        /* \"#utility.yul\":22208:22225   */\n      add\n        /* \"#utility.yul\":22201:22248   */\n      mstore\n        /* \"#utility.yul\":22265:22396   */\n      tag_490\n        /* \"#utility.yul\":22391:22395   */\n      dup2\n        /* \"#utility.yul\":22265:22396   */\n      tag_303\n      jump\t// in\n    tag_490:\n        /* \"#utility.yul\":22257:22396   */\n      swap1\n      pop\n        /* \"#utility.yul\":21984:22403   */\n      swap2\n      swap1\n      pop\n      jump\t// out\n        /* \"#utility.yul\":22409:22714   */\n    tag_193:\n        /* \"#utility.yul\":22449:22452   */\n      0x00\n        /* \"#utility.yul\":22468:22488   */\n      tag_492\n        /* \"#utility.yul\":22486:22487   */\n      dup3\n        /* \"#utility.yul\":22468:22488   */\n      tag_251\n      jump\t// in\n    tag_492:\n        /* \"#utility.yul\":22463:22488   */\n      swap2\n      pop\n        /* \"#utility.yul\":22502:22522   */\n      tag_493\n        /* \"#utility.yul\":22520:22521   */\n      dup4\n        /* \"#utility.yul\":22502:22522   */\n      tag_251\n      jump\t// in\n    tag_493:\n        /* \"#utility.yul\":22497:22522   */\n      swap3\n      pop\n        /* \"#utility.yul\":22656:22657   */\n      dup3\n        /* \"#utility.yul\":22588:22654   */\n      0xffffffffffffffffffffffffffffffffffffffffffffffffffffffffffffffff\n        /* \"#utility.yul\":22584:22658   */\n      sub\n        /* \"#utility.yul\":22581:22582   */\n      dup3\n        /* \"#utility.yul\":22578:22659   */\n      gt\n        /* \"#utility.yul\":22575:22682   */\n      iszero\n      tag_494\n      jumpi\n        /* \"#utility.yul\":22662:22680   */\n      tag_495\n      tag_291\n      jump\t// in\n    tag_495:\n        /* \"#utility.yul\":22575:22682   */\n    tag_494:\n        /* \"#utility.yul\":22706:22707   */\n      dup3\n        /* \"#utility.yul\":22703:22704   */\n      dup3\n        /* \"#utility.yul\":22699:22708   */\n      add\n        /* \"#utility.yul\":22692:22708   */\n      swap1\n      pop\n        /* \"#utility.yul\":22409:22714   */\n      swap3\n      swap2\n      pop\n      pop\n      jump\t// out\n        /* \"#utility.yul\":22720:22970   */\n    tag_304:\n        /* \"#utility.yul\":22860:22894   */\n      0x4e656564206174206c65617374206f6e6520766f746520696e20612070726f70\n        /* \"#utility.yul\":22856:22857   */\n      0x00\n        /* \"#utility.yul\":22848:22854   */\n      dup3\n        /* \"#utility.yul\":22844:22858   */\n      add\n        /* \"#utility.yul\":22837:22895   */\n      mstore\n        /* \"#utility.yul\":22929:22962   */\n      0x726f73616c20746f2073746f70206120766f74696e672073657373696f6e2e00\n        /* \"#utility.yul\":22924:22926   */\n      0x20\n        /* \"#utility.yul\":22916:22922   */\n      dup3\n        /* \"#utility.yul\":22912:22927   */\n      add\n        /* \"#utility.yul\":22905:22963   */\n      mstore\n        /* \"#utility.yul\":22720:22970   */\n      pop\n      jump\t// out\n        /* \"#utility.yul\":22976:23342   */\n    tag_305:\n        /* \"#utility.yul\":23118:23121   */\n      0x00\n        /* \"#utility.yul\":23139:23206   */\n      tag_498\n        /* \"#utility.yul\":23203:23205   */\n      0x3f\n        /* \"#utility.yul\":23198:23201   */\n      dup4\n        /* \"#utility.yul\":23139:23206   */\n      tag_270\n      jump\t// in\n    tag_498:\n        /* \"#utility.yul\":23132:23206   */\n      swap2\n      pop\n        /* \"#utility.yul\":23215:23308   */\n      tag_499\n        /* \"#utility.yul\":23304:23307   */\n      dup3\n        /* \"#utility.yul\":23215:23308   */\n      tag_304\n      jump\t// in\n    tag_499:\n        /* \"#utility.yul\":23333:23335   */\n      0x40\n        /* \"#utility.yul\":23328:23331   */\n      dup3\n        /* \"#utility.yul\":23324:23336   */\n      add\n        /* \"#utility.yul\":23317:23336   */\n      swap1\n      pop\n        /* \"#utility.yul\":22976:23342   */\n      swap2\n      swap1\n      pop\n      jump\t// out\n        /* \"#utility.yul\":23348:23767   */\n    tag_198:\n        /* \"#utility.yul\":23514:23518   */\n      0x00\n        /* \"#utility.yul\":23552:23554   */\n      0x20\n        /* \"#utility.yul\":23541:23550   */\n      dup3\n        /* \"#utility.yul\":23537:23555   */\n      add\n        /* \"#utility.yul\":23529:23555   */\n      swap1\n      pop\n        /* \"#utility.yul\":23601:23610   */\n      dup2\n        /* \"#utility.yul\":23595:23599   */\n      dup2\n        /* \"#utility.yul\":23591:23611   */\n      sub\n        /* \"#utility.yul\":23587:23588   */\n      0x00\n        /* \"#utility.yul\":23576:23585   */\n      dup4\n        /* \"#utility.yul\":23572:23589   */\n      add\n        /* \"#utility.yul\":23565:23612   */\n      mstore\n        /* \"#utility.yul\":23629:23760   */\n      tag_501\n        /* \"#utility.yul\":23755:23759   */\n      dup2\n        /* \"#utility.yul\":23629:23760   */\n      tag_305\n      jump\t// in\n    tag_501:\n        /* \"#utility.yul\":23621:23760   */\n      swap1\n      pop\n        /* \"#utility.yul\":23348:23767   */\n      swap2\n      swap1\n      pop\n      jump\t// out\n        /* \"#utility.yul\":23773:23998   */\n    tag_306:\n        /* \"#utility.yul\":23913:23947   */\n      0x4f776e61626c653a206e6577206f776e657220697320746865207a65726f2061\n        /* \"#utility.yul\":23909:23910   */\n      0x00\n        /* \"#utility.yul\":23901:23907   */\n      dup3\n        /* \"#utility.yul\":23897:23911   */\n      add\n        /* \"#utility.yul\":23890:23948   */\n      mstore\n        /* \"#utility.yul\":23982:23990   */\n      0x6464726573730000000000000000000000000000000000000000000000000000\n        /* \"#utility.yul\":23977:23979   */\n      0x20\n        /* \"#utility.yul\":23969:23975   */\n      dup3\n        /* \"#utility.yul\":23965:23980   */\n      add\n        /* \"#utility.yul\":23958:23991   */\n      mstore\n        /* \"#utility.yul\":23773:23998   */\n      pop\n      jump\t// out\n        /* \"#utility.yul\":24004:24370   */\n    tag_307:\n        /* \"#utility.yul\":24146:24149   */\n      0x00\n        /* \"#utility.yul\":24167:24234   */\n      tag_504\n        /* \"#utility.yul\":24231:24233   */\n      0x26\n        /* \"#utility.yul\":24226:24229   */\n      dup4\n        /* \"#utility.yul\":24167:24234   */\n      tag_270\n      jump\t// in\n    tag_504:\n        /* \"#utility.yul\":24160:24234   */\n      swap2\n      pop\n        /* \"#utility.yul\":24243:24336   */\n      tag_505\n        /* \"#utility.yul\":24332:24335   */\n      dup3\n        /* \"#utility.yul\":24243:24336   */\n      tag_306\n      jump\t// in\n    tag_505:\n        /* \"#utility.yul\":24361:24363   */\n      0x40\n        /* \"#utility.yul\":24356:24359   */\n      dup3\n        /* \"#utility.yul\":24352:24364   */\n      add\n        /* \"#utility.yul\":24345:24364   */\n      swap1\n      pop\n        /* \"#utility.yul\":24004:24370   */\n      swap2\n      swap1\n      pop\n      jump\t// out\n        /* \"#utility.yul\":24376:24795   */\n    tag_227:\n        /* \"#utility.yul\":24542:24546   */\n      0x00\n        /* \"#utility.yul\":24580:24582   */\n      0x20\n        /* \"#utility.yul\":24569:24578   */\n      dup3\n        /* \"#utility.yul\":24565:24583   */\n      add\n        /* \"#utility.yul\":24557:24583   */\n      swap1\n      pop\n        /* \"#utility.yul\":24629:24638   */\n      dup2\n        /* \"#utility.yul\":24623:24627   */\n      dup2\n        /* \"#utility.yul\":24619:24639   */\n      sub\n        /* \"#utility.yul\":24615:24616   */\n      0x00\n        /* \"#utility.yul\":24604:24613   */\n      dup4\n        /* \"#utility.yul\":24600:24617   */\n      add\n        /* \"#utility.yul\":24593:24640   */\n      mstore\n        /* \"#utility.yul\":24657:24788   */\n      tag_507\n        /* \"#utility.yul\":24783:24787   */\n      dup2\n        /* \"#utility.yul\":24657:24788   */\n      tag_307\n      jump\t// in\n    tag_507:\n        /* \"#utility.yul\":24649:24788   */\n      swap1\n      pop\n        /* \"#utility.yul\":24376:24795   */\n      swap2\n      swap1\n      pop\n      jump\t// out\n        /* \"#utility.yul\":24801:24983   */\n    tag_308:\n        /* \"#utility.yul\":24941:24975   */\n      0x4f776e61626c653a2063616c6c6572206973206e6f7420746865206f776e6572\n        /* \"#utility.yul\":24937:24938   */\n      0x00\n        /* \"#utility.yul\":24929:24935   */\n      dup3\n        /* \"#utility.yul\":24925:24939   */\n      add\n        /* \"#utility.yul\":24918:24976   */\n      mstore\n        /* \"#utility.yul\":24801:24983   */\n      pop\n      jump\t// out\n        /* \"#utility.yul\":24989:25355   */\n    tag_309:\n        /* \"#utility.yul\":25131:25134   */\n      0x00\n        /* \"#utility.yul\":25152:25219   */\n      tag_510\n        /* \"#utility.yul\":25216:25218   */\n      0x20\n        /* \"#utility.yul\":25211:25214   */\n      dup4\n        /* \"#utility.yul\":25152:25219   */\n      tag_270\n      jump\t// in\n    tag_510:\n        /* \"#utility.yul\":25145:25219   */\n      swap2\n      pop\n        /* \"#utility.yul\":25228:25321   */\n      tag_511\n        /* \"#utility.yul\":25317:25320   */\n      dup3\n        /* \"#utility.yul\":25228:25321   */\n      tag_308\n      jump\t// in\n    tag_511:\n        /* \"#utility.yul\":25346:25348   */\n      0x20\n        /* \"#utility.yul\":25341:25344   */\n      dup3\n        /* \"#utility.yul\":25337:25349   */\n      add\n        /* \"#utility.yul\":25330:25349   */\n      swap1\n      pop\n        /* \"#utility.yul\":24989:25355   */\n      swap2\n      swap1\n      pop\n      jump\t// out\n        /* \"#utility.yul\":25361:25780   */\n    tag_235:\n        /* \"#utility.yul\":25527:25531   */\n      0x00\n        /* \"#utility.yul\":25565:25567   */\n      0x20\n        /* \"#utility.yul\":25554:25563   */\n      dup3\n        /* \"#utility.yul\":25550:25568   */\n      add\n        /* \"#utility.yul\":25542:25568   */\n      swap1\n      pop\n        /* \"#utility.yul\":25614:25623   */\n      dup2\n        /* \"#utility.yul\":25608:25612   */\n      dup2\n        /* \"#utility.yul\":25604:25624   */\n      sub\n        /* \"#utility.yul\":25600:25601   */\n      0x00\n        /* \"#utility.yul\":25589:25598   */\n      dup4\n        /* \"#utility.yul\":25585:25602   */\n      add\n        /* \"#utility.yul\":25578:25625   */\n      mstore\n        /* \"#utility.yul\":25642:25773   */\n      tag_513\n        /* \"#utility.yul\":25768:25772   */\n      dup2\n        /* \"#utility.yul\":25642:25773   */\n      tag_309\n      jump\t// in\n    tag_513:\n        /* \"#utility.yul\":25634:25773   */\n      swap1\n      pop\n        /* \"#utility.yul\":25361:25780   */\n      swap2\n      swap1\n      pop\n      jump\t// out\n\n    auxdata: 0xa26469706673582212200ad27e0df33ccd29046983140d904de480f7de1624d2a7e1780b75ed025926ce64736f6c634300080d0033\n}\n",
				"bytecode": {
					"linkReferences": {},
					"object": "6080604052600060035534801561001557600080fd5b5061003261002761003760201b60201c565b61003f60201b60201c565b610103565b600033905090565b60008060009054906101000a900473ffffffffffffffffffffffffffffffffffffffff169050816000806101000a81548173ffffffffffffffffffffffffffffffffffffffff021916908373ffffffffffffffffffffffffffffffffffffffff1602179055508173ffffffffffffffffffffffffffffffffffffffff168173ffffffffffffffffffffffffffffffffffffffff167f8be0079c531659141344cd1fd0a4f28419497f9722a3daafe3b4186f6b6457e060405160405180910390a35050565b61213180620001136000396000f3fe608060405234801561001057600080fd5b50600436106100b45760003560e01c80638e7ea5b2116100715780638e7ea5b21461012d578063c145e3d51461014b578063cf278c7414610167578063d133740314610171578063d83f235b1461017b578063f2fde38b14610185576100b4565b806304456224146100b95780633b0ebff4146100c35780635f39ff21146100df578063715018a6146100fb5780637669d79e146101055780638da5cb5b1461010f575b600080fd5b6100c16101a1565b005b6100dd60048036038101906100d891906113b6565b6102a9565b005b6100f960048036038101906100f49190611448565b61058f565b005b61010361081e565b005b61010d610832565b005b610117610909565b60405161012491906114d6565b60405180910390f35b610135610932565b60405161014291906115d6565b60405180910390f35b61016560048036038101906101609190611624565b610a7f565b005b61016f610c8d565b005b610179610ddd565b005b610183610f89565b005b61019f600480360381019061019a9190611624565b6110ec565b005b6101a961116f565b600160058111156101bd576101bc611651565b5b600660009054906101000a900460ff1660058111156101df576101de611651565b5b1461021f576040517f08c379a000000000000000000000000000000000000000000000000000000000815260040161021690611703565b60405180910390fd5b6000600660009054906101000a900460ff1690506002600660006101000a81548160ff0219169083600581111561025957610258611651565b5b02179055507f0a97a4ee45751e2abf3e4fc8946939630b11b371ea8ae39ccdc3056e98f5cc3f81600660009054906101000a900460ff1660405161029e92919061176b565b60405180910390a150565b600360058111156102bd576102bc611651565b5b600660009054906101000a900460ff1660058111156102df576102de611651565b5b1461031f576040517f08c379a000000000000000000000000000000000000000000000000000000000815260040161031690611806565b60405180910390fd5b600260003373ffffffffffffffffffffffffffffffffffffffff1673ffffffffffffffffffffffffffffffffffffffff16815260200190815260200160002060000160009054906101000a900460ff166103ae576040517f08c379a00000000000000000000000000000000000000000000000000000000081526004016103a590611872565b60405180910390fd5b600260003373ffffffffffffffffffffffffffffffffffffffff1673ffffffffffffffffffffffffffffffffffffffff16815260200190815260200160002060000160019054906101000a900460ff1661043d576040517f08c379a0000000000000000000000000000000000000000000000000000000008152600401610434906118de565b60405180910390fd5b600060058281548110610453576104526118fe565b5b9060005260206000209060020201600001805461046f9061195c565b9050116104b1576040517f08c379a00000000000000000000000000000000000000000000000000000000081526004016104a8906119d9565b60405180910390fd5b80600260003373ffffffffffffffffffffffffffffffffffffffff1673ffffffffffffffffffffffffffffffffffffffff168152602001908152602001600020600101819055506001600260003373ffffffffffffffffffffffffffffffffffffffff1673ffffffffffffffffffffffffffffffffffffffff16815260200190815260200160002060000160016101000a81548160ff0219169083151502179055507f4d99b957a2bc29a30ebd96a7be8e68fe50a3c701db28a91436490b7d53870ca43382604051610584929190611a08565b60405180910390a150565b600160058111156105a3576105a2611651565b5b600660009054906101000a900460ff1660058111156105c5576105c4611651565b5b14610605576040517f08c379a00000000000000000000000000000000000000000000000000000000081526004016105fc90611703565b60405180910390fd5b600260003373ffffffffffffffffffffffffffffffffffffffff1673ffffffffffffffffffffffffffffffffffffffff16815260200190815260200160002060000160009054906101000a900460ff16610694576040517f08c379a000000000000000000000000000000000000000000000000000000000815260040161068b90611aa3565b60405180910390fd5b600082829050116106da576040517f08c379a00000000000000000000000000000000000000000000000000000000081526004016106d190611b0f565b60405180910390fd5b6005604051806040016040528084848080601f016020809104026020016040519081016040528093929190818152602001838380828437600081840152601f19601f82011690508083019250505050505050815260200160008152509080600181540180825580915050600190039060005260206000209060020201600090919091909150600082015181600001908051906020019061077b9291906112b9565b506020820151816001015550506000600160058054905061079c9190611b5e565b905080600460003373ffffffffffffffffffffffffffffffffffffffff1673ffffffffffffffffffffffffffffffffffffffff168152602001908152602001600020819055507f92e393e9b54e2f801d3ea4beb0c5e71a21cc34a5d34b77d0fb8a3aa1650dc18f816040516108119190611b92565b60405180910390a1505050565b61082661116f565b61083060006111ed565b565b61083a61116f565b60016003541161087f576040517f08c379a000000000000000000000000000000000000000000000000000000000815260040161087690611c1f565b60405180910390fd5b6000600660009054906101000a900460ff1690506001600660006101000a81548160ff021916908360058111156108b9576108b8611651565b5b02179055507f0a97a4ee45751e2abf3e4fc8946939630b11b371ea8ae39ccdc3056e98f5cc3f81600660009054906101000a900460ff166040516108fe92919061176b565b60405180910390a150565b60008060009054906101000a900473ffffffffffffffffffffffffffffffffffffffff16905090565b61093a61133f565b60058081111561094d5761094c611651565b5b600660009054906101000a900460ff16600581111561096f5761096e611651565b5b146109af576040517f08c379a00000000000000000000000000000000000000000000000000000000081526004016109a690611c8b565b60405180910390fd5b6005600154815481106109c5576109c46118fe565b5b90600052602060002090600202016040518060400160405290816000820180546109ee9061195c565b80601f0160208091040260200160405190810160405280929190818152602001828054610a1a9061195c565b8015610a675780601f10610a3c57610100808354040283529160200191610a67565b820191906000526020600020905b815481529060010190602001808311610a4a57829003601f168201915b50505050508152602001600182015481525050905090565b610a8761116f565b60006005811115610a9b57610a9a611651565b5b600660009054906101000a900460ff166005811115610abd57610abc611651565b5b14610afd576040517f08c379a0000000000000000000000000000000000000000000000000000000008152600401610af490611d1d565b60405180910390fd5b600260008273ffffffffffffffffffffffffffffffffffffffff1673ffffffffffffffffffffffffffffffffffffffff16815260200190815260200160002060000160009054906101000a900460ff1615610b8d576040517f08c379a0000000000000000000000000000000000000000000000000000000008152600401610b8490611d89565b60405180910390fd5b60405180606001604052806001151581526020016000151581526020016000815250600260008373ffffffffffffffffffffffffffffffffffffffff1673ffffffffffffffffffffffffffffffffffffffff16815260200190815260200160002060008201518160000160006101000a81548160ff02191690831515021790555060208201518160000160016101000a81548160ff0219169083151502179055506040820151816001015590505060036000815480929190610c4e90611da9565b91905055507fb6be2187d059cc2a55fe29e0e503b566e1e0f8c8780096e185429350acffd3dd81604051610c8291906114d6565b60405180910390a150565b610c9561116f565b60026005811115610ca957610ca8611651565b5b600660009054906101000a900460ff166005811115610ccb57610cca611651565b5b14610d0b576040517f08c379a0000000000000000000000000000000000000000000000000000000008152600401610d0290611e63565b60405180910390fd5b600160058054905011610d53576040517f08c379a0000000000000000000000000000000000000000000000000000000008152600401610d4a90611ef5565b60405180910390fd5b6000600660009054906101000a900460ff1690506003600660006101000a81548160ff02191690836005811115610d8d57610d8c611651565b5b02179055507f0a97a4ee45751e2abf3e4fc8946939630b11b371ea8ae39ccdc3056e98f5cc3f81600660009054906101000a900460ff16604051610dd292919061176b565b60405180910390a150565b610de561116f565b60036005811115610df957610df8611651565b5b600660009054906101000a900460ff166005811115610e1b57610e1a611651565b5b14610e5b576040517f08c379a0000000000000000000000000000000000000000000000000000000008152600401610e5290611806565b60405180910390fd5b6000805b600580549050811015610eba5760058181548110610e8057610e7f6118fe565b5b90600052602060002090600202016001015482610e9d9190611f15565b915060008211610eba578080610eb290611da9565b915050610e5f565b5060008111610efe576040517f08c379a0000000000000000000000000000000000000000000000000000000008152600401610ef590611fdd565b60405180910390fd5b6000600660009054906101000a900460ff1690506004600660006101000a81548160ff02191690836005811115610f3857610f37611651565b5b02179055507f0a97a4ee45751e2abf3e4fc8946939630b11b371ea8ae39ccdc3056e98f5cc3f81600660009054906101000a900460ff16604051610f7d92919061176b565b60405180910390a15050565b610f9161116f565b60046005811115610fa557610fa4611651565b5b600660009054906101000a900460ff166005811115610fc757610fc6611651565b5b14611007576040517f08c379a0000000000000000000000000000000000000000000000000000000008152600401610ffe90611703565b60405180910390fd5b6000805b60058054905081101561106057816005828154811061102d5761102c6118fe565b5b906000526020600020906002020160010154111561104d57806001819055505b808061105890611da9565b91505061100b565b506000600660009054906101000a900460ff1690506005600660006101000a81548160ff0219169083600581111561109b5761109a611651565b5b02179055507f0a97a4ee45751e2abf3e4fc8946939630b11b371ea8ae39ccdc3056e98f5cc3f81600660009054906101000a900460ff166040516110e092919061176b565b60405180910390a15050565b6110f461116f565b600073ffffffffffffffffffffffffffffffffffffffff168173ffffffffffffffffffffffffffffffffffffffff1603611163576040517f08c379a000000000000000000000000000000000000000000000000000000000815260040161115a9061206f565b60405180910390fd5b61116c816111ed565b50565b6111776112b1565b73ffffffffffffffffffffffffffffffffffffffff16611195610909565b73ffffffffffffffffffffffffffffffffffffffff16146111eb576040517f08c379a00000000000000000000000000000000000000000000000000000000081526004016111e2906120db565b60405180910390fd5b565b60008060009054906101000a900473ffffffffffffffffffffffffffffffffffffffff169050816000806101000a81548173ffffffffffffffffffffffffffffffffffffffff021916908373ffffffffffffffffffffffffffffffffffffffff1602179055508173ffffffffffffffffffffffffffffffffffffffff168173ffffffffffffffffffffffffffffffffffffffff167f8be0079c531659141344cd1fd0a4f28419497f9722a3daafe3b4186f6b6457e060405160405180910390a35050565b600033905090565b8280546112c59061195c565b90600052602060002090601f0160209004810192826112e7576000855561132e565b82601f1061130057805160ff191683800117855561132e565b8280016001018555821561132e579182015b8281111561132d578251825591602001919060010190611312565b5b50905061133b9190611359565b5090565b604051806040016040528060608152602001600081525090565b5b8082111561137257600081600090555060010161135a565b5090565b600080fd5b600080fd5b6000819050919050565b61139381611380565b811461139e57600080fd5b50565b6000813590506113b08161138a565b92915050565b6000602082840312156113cc576113cb611376565b5b60006113da848285016113a1565b91505092915050565b600080fd5b600080fd5b600080fd5b60008083601f840112611408576114076113e3565b5b8235905067ffffffffffffffff811115611425576114246113e8565b5b602083019150836001820283011115611441576114406113ed565b5b9250929050565b6000806020838503121561145f5761145e611376565b5b600083013567ffffffffffffffff81111561147d5761147c61137b565b5b611489858286016113f2565b92509250509250929050565b600073ffffffffffffffffffffffffffffffffffffffff82169050919050565b60006114c082611495565b9050919050565b6114d0816114b5565b82525050565b60006020820190506114eb60008301846114c7565b92915050565b600081519050919050565b600082825260208201905092915050565b60005b8381101561152b578082015181840152602081019050611510565b8381111561153a576000848401525b50505050565b6000601f19601f8301169050919050565b600061155c826114f1565b61156681856114fc565b935061157681856020860161150d565b61157f81611540565b840191505092915050565b61159381611380565b82525050565b600060408301600083015184820360008601526115b68282611551565b91505060208301516115cb602086018261158a565b508091505092915050565b600060208201905081810360008301526115f08184611599565b905092915050565b611601816114b5565b811461160c57600080fd5b50565b60008135905061161e816115f8565b92915050565b60006020828403121561163a57611639611376565b5b60006116488482850161160f565b91505092915050565b7f4e487b7100000000000000000000000000000000000000000000000000000000600052602160045260246000fd5b600082825260208201905092915050565b7f5468652070726f706f73616c20726567697374726174696f6e206973206e6f7460008201527f2073746172746564207965742e00000000000000000000000000000000000000602082015250565b60006116ed602d83611680565b91506116f882611691565b604082019050919050565b6000602082019050818103600083015261171c816116e0565b9050919050565b6006811061173457611733611651565b5b50565b600081905061174582611723565b919050565b600061175582611737565b9050919050565b6117658161174a565b82525050565b6000604082019050611780600083018561175c565b61178d602083018461175c565b9392505050565b7f54686520766f74696e672073657373696f6e206973206e6f742073746172746560008201527f64207965742e0000000000000000000000000000000000000000000000000000602082015250565b60006117f0602683611680565b91506117fb82611794565b604082019050919050565b6000602082019050818103600083015261181f816117e3565b9050919050565b7f596f75206d757374206265207265676973746572656420746f20766f74652e00600082015250565b600061185c601f83611680565b915061186782611826565b602082019050919050565b6000602082019050818103600083015261188b8161184f565b9050919050565b7f596f7520616c726561647920766f7465642e0000000000000000000000000000600082015250565b60006118c8601283611680565b91506118d382611892565b602082019050919050565b600060208201905081810360008301526118f7816118bb565b9050919050565b7f4e487b7100000000000000000000000000000000000000000000000000000000600052603260045260246000fd5b7f4e487b7100000000000000000000000000000000000000000000000000000000600052602260045260246000fd5b6000600282049050600182168061197457607f821691505b6020821081036119875761198661192d565b5b50919050565b7f546869732070726f706f73616c20646f6573206e6f74206578697374732e0000600082015250565b60006119c3601e83611680565b91506119ce8261198d565b602082019050919050565b600060208201905081810360008301526119f2816119b6565b9050919050565b611a0281611380565b82525050565b6000604082019050611a1d60008301856114c7565b611a2a60208301846119f9565b9392505050565b7f596f75206d757374206265207265676973746572656420746f206d616b65206160008201527f2070726f706f73616c2e00000000000000000000000000000000000000000000602082015250565b6000611a8d602a83611680565b9150611a9882611a31565b604082019050919050565b60006020820190508181036000830152611abc81611a80565b9050919050565b7f5468652070726f706f73616c2063616e6e6f7420626520656d7074792e000000600082015250565b6000611af9601d83611680565b9150611b0482611ac3565b602082019050919050565b60006020820190508181036000830152611b2881611aec565b9050919050565b7f4e487b7100000000000000000000000000000000000000000000000000000000600052601160045260246000fd5b6000611b6982611380565b9150611b7483611380565b925082821015611b8757611b86611b2f565b5b828203905092915050565b6000602082019050611ba760008301846119f9565b92915050565b7f4e656564206174206c656173742032207265676973746572656420766f74657260008201527f7320746f20737461727420612070726f706f73616c2073657373696f6e2e0000602082015250565b6000611c09603e83611680565b9150611c1482611bad565b604082019050919050565b60006020820190508181036000830152611c3881611bfc565b9050919050565b7f54686520636f756e74206973206e6f74206f766572207965742e000000000000600082015250565b6000611c75601a83611680565b9150611c8082611c3f565b602082019050919050565b60006020820190508181036000830152611ca481611c68565b9050919050565b7f546865207265676973746572696e6720766f74657273206973206e6f74206f7060008201527f656e6564207965742e0000000000000000000000000000000000000000000000602082015250565b6000611d07602983611680565b9150611d1282611cab565b604082019050919050565b60006020820190508181036000830152611d3681611cfa565b9050919050565b7f54686520766f74657220697320616c726561647920726567697374657265642e600082015250565b6000611d73602083611680565b9150611d7e82611d3d565b602082019050919050565b60006020820190508181036000830152611da281611d66565b9050919050565b6000611db482611380565b91507fffffffffffffffffffffffffffffffffffffffffffffffffffffffffffffffff8203611de657611de5611b2f565b5b600182019050919050565b7f5468652070726f706f73616c20726567697374726174696f6e206973206e6f7460008201527f20656e646564207965742e000000000000000000000000000000000000000000602082015250565b6000611e4d602b83611680565b9150611e5882611df1565b604082019050919050565b60006020820190508181036000830152611e7c81611e40565b9050919050565b7f4e656564206174206c656173742074776f2070726f706f73616c7320746f207360008201527f74617274206120766f74696e672073657373696f6e2e00000000000000000000602082015250565b6000611edf603683611680565b9150611eea82611e83565b604082019050919050565b60006020820190508181036000830152611f0e81611ed2565b9050919050565b6000611f2082611380565b9150611f2b83611380565b9250827fffffffffffffffffffffffffffffffffffffffffffffffffffffffffffffffff03821115611f6057611f5f611b2f565b5b828201905092915050565b7f4e656564206174206c65617374206f6e6520766f746520696e20612070726f7060008201527f726f73616c20746f2073746f70206120766f74696e672073657373696f6e2e00602082015250565b6000611fc7603f83611680565b9150611fd282611f6b565b604082019050919050565b60006020820190508181036000830152611ff681611fba565b9050919050565b7f4f776e61626c653a206e6577206f776e657220697320746865207a65726f206160008201527f6464726573730000000000000000000000000000000000000000000000000000602082015250565b6000612059602683611680565b915061206482611ffd565b604082019050919050565b600060208201905081810360008301526120888161204c565b9050919050565b7f4f776e61626c653a2063616c6c6572206973206e6f7420746865206f776e6572600082015250565b60006120c5602083611680565b91506120d08261208f565b602082019050919050565b600060208201905081810360008301526120f4816120b8565b905091905056fea26469706673582212200ad27e0df33ccd29046983140d904de480f7de1624d2a7e1780b75ed025926ce64736f6c634300080d0033",
					"opcodes": "PUSH1 0x80 PUSH1 0x40 MSTORE PUSH1 0x0 PUSH1 0x3 SSTORE CALLVALUE DUP1 ISZERO PUSH2 0x15 JUMPI PUSH1 0x0 DUP1 REVERT JUMPDEST POP PUSH2 0x32 PUSH2 0x27 PUSH2 0x37 PUSH1 0x20 SHL PUSH1 0x20 SHR JUMP JUMPDEST PUSH2 0x3F PUSH1 0x20 SHL PUSH1 0x20 SHR JUMP JUMPDEST PUSH2 0x103 JUMP JUMPDEST PUSH1 0x0 CALLER SWAP1 POP SWAP1 JUMP JUMPDEST PUSH1 0x0 DUP1 PUSH1 0x0 SWAP1 SLOAD SWAP1 PUSH2 0x100 EXP SWAP1 DIV PUSH20 0xFFFFFFFFFFFFFFFFFFFFFFFFFFFFFFFFFFFFFFFF AND SWAP1 POP DUP2 PUSH1 0x0 DUP1 PUSH2 0x100 EXP DUP2 SLOAD DUP2 PUSH20 0xFFFFFFFFFFFFFFFFFFFFFFFFFFFFFFFFFFFFFFFF MUL NOT AND SWAP1 DUP4 PUSH20 0xFFFFFFFFFFFFFFFFFFFFFFFFFFFFFFFFFFFFFFFF AND MUL OR SWAP1 SSTORE POP DUP2 PUSH20 0xFFFFFFFFFFFFFFFFFFFFFFFFFFFFFFFFFFFFFFFF AND DUP2 PUSH20 0xFFFFFFFFFFFFFFFFFFFFFFFFFFFFFFFFFFFFFFFF AND PUSH32 0x8BE0079C531659141344CD1FD0A4F28419497F9722A3DAAFE3B4186F6B6457E0 PUSH1 0x40 MLOAD PUSH1 0x40 MLOAD DUP1 SWAP2 SUB SWAP1 LOG3 POP POP JUMP JUMPDEST PUSH2 0x2131 DUP1 PUSH3 0x113 PUSH1 0x0 CODECOPY PUSH1 0x0 RETURN INVALID PUSH1 0x80 PUSH1 0x40 MSTORE CALLVALUE DUP1 ISZERO PUSH2 0x10 JUMPI PUSH1 0x0 DUP1 REVERT JUMPDEST POP PUSH1 0x4 CALLDATASIZE LT PUSH2 0xB4 JUMPI PUSH1 0x0 CALLDATALOAD PUSH1 0xE0 SHR DUP1 PUSH4 0x8E7EA5B2 GT PUSH2 0x71 JUMPI DUP1 PUSH4 0x8E7EA5B2 EQ PUSH2 0x12D JUMPI DUP1 PUSH4 0xC145E3D5 EQ PUSH2 0x14B JUMPI DUP1 PUSH4 0xCF278C74 EQ PUSH2 0x167 JUMPI DUP1 PUSH4 0xD1337403 EQ PUSH2 0x171 JUMPI DUP1 PUSH4 0xD83F235B EQ PUSH2 0x17B JUMPI DUP1 PUSH4 0xF2FDE38B EQ PUSH2 0x185 JUMPI PUSH2 0xB4 JUMP JUMPDEST DUP1 PUSH4 0x4456224 EQ PUSH2 0xB9 JUMPI DUP1 PUSH4 0x3B0EBFF4 EQ PUSH2 0xC3 JUMPI DUP1 PUSH4 0x5F39FF21 EQ PUSH2 0xDF JUMPI DUP1 PUSH4 0x715018A6 EQ PUSH2 0xFB JUMPI DUP1 PUSH4 0x7669D79E EQ PUSH2 0x105 JUMPI DUP1 PUSH4 0x8DA5CB5B EQ PUSH2 0x10F JUMPI JUMPDEST PUSH1 0x0 DUP1 REVERT JUMPDEST PUSH2 0xC1 PUSH2 0x1A1 JUMP JUMPDEST STOP JUMPDEST PUSH2 0xDD PUSH1 0x4 DUP1 CALLDATASIZE SUB DUP2 ADD SWAP1 PUSH2 0xD8 SWAP2 SWAP1 PUSH2 0x13B6 JUMP JUMPDEST PUSH2 0x2A9 JUMP JUMPDEST STOP JUMPDEST PUSH2 0xF9 PUSH1 0x4 DUP1 CALLDATASIZE SUB DUP2 ADD SWAP1 PUSH2 0xF4 SWAP2 SWAP1 PUSH2 0x1448 JUMP JUMPDEST PUSH2 0x58F JUMP JUMPDEST STOP JUMPDEST PUSH2 0x103 PUSH2 0x81E JUMP JUMPDEST STOP JUMPDEST PUSH2 0x10D PUSH2 0x832 JUMP JUMPDEST STOP JUMPDEST PUSH2 0x117 PUSH2 0x909 JUMP JUMPDEST PUSH1 0x40 MLOAD PUSH2 0x124 SWAP2 SWAP1 PUSH2 0x14D6 JUMP JUMPDEST PUSH1 0x40 MLOAD DUP1 SWAP2 SUB SWAP1 RETURN JUMPDEST PUSH2 0x135 PUSH2 0x932 JUMP JUMPDEST PUSH1 0x40 MLOAD PUSH2 0x142 SWAP2 SWAP1 PUSH2 0x15D6 JUMP JUMPDEST PUSH1 0x40 MLOAD DUP1 SWAP2 SUB SWAP1 RETURN JUMPDEST PUSH2 0x165 PUSH1 0x4 DUP1 CALLDATASIZE SUB DUP2 ADD SWAP1 PUSH2 0x160 SWAP2 SWAP1 PUSH2 0x1624 JUMP JUMPDEST PUSH2 0xA7F JUMP JUMPDEST STOP JUMPDEST PUSH2 0x16F PUSH2 0xC8D JUMP JUMPDEST STOP JUMPDEST PUSH2 0x179 PUSH2 0xDDD JUMP JUMPDEST STOP JUMPDEST PUSH2 0x183 PUSH2 0xF89 JUMP JUMPDEST STOP JUMPDEST PUSH2 0x19F PUSH1 0x4 DUP1 CALLDATASIZE SUB DUP2 ADD SWAP1 PUSH2 0x19A SWAP2 SWAP1 PUSH2 0x1624 JUMP JUMPDEST PUSH2 0x10EC JUMP JUMPDEST STOP JUMPDEST PUSH2 0x1A9 PUSH2 0x116F JUMP JUMPDEST PUSH1 0x1 PUSH1 0x5 DUP2 GT ISZERO PUSH2 0x1BD JUMPI PUSH2 0x1BC PUSH2 0x1651 JUMP JUMPDEST JUMPDEST PUSH1 0x6 PUSH1 0x0 SWAP1 SLOAD SWAP1 PUSH2 0x100 EXP SWAP1 DIV PUSH1 0xFF AND PUSH1 0x5 DUP2 GT ISZERO PUSH2 0x1DF JUMPI PUSH2 0x1DE PUSH2 0x1651 JUMP JUMPDEST JUMPDEST EQ PUSH2 0x21F JUMPI PUSH1 0x40 MLOAD PUSH32 0x8C379A000000000000000000000000000000000000000000000000000000000 DUP2 MSTORE PUSH1 0x4 ADD PUSH2 0x216 SWAP1 PUSH2 0x1703 JUMP JUMPDEST PUSH1 0x40 MLOAD DUP1 SWAP2 SUB SWAP1 REVERT JUMPDEST PUSH1 0x0 PUSH1 0x6 PUSH1 0x0 SWAP1 SLOAD SWAP1 PUSH2 0x100 EXP SWAP1 DIV PUSH1 0xFF AND SWAP1 POP PUSH1 0x2 PUSH1 0x6 PUSH1 0x0 PUSH2 0x100 EXP DUP2 SLOAD DUP2 PUSH1 0xFF MUL NOT AND SWAP1 DUP4 PUSH1 0x5 DUP2 GT ISZERO PUSH2 0x259 JUMPI PUSH2 0x258 PUSH2 0x1651 JUMP JUMPDEST JUMPDEST MUL OR SWAP1 SSTORE POP PUSH32 0xA97A4EE45751E2ABF3E4FC8946939630B11B371EA8AE39CCDC3056E98F5CC3F DUP2 PUSH1 0x6 PUSH1 0x0 SWAP1 SLOAD SWAP1 PUSH2 0x100 EXP SWAP1 DIV PUSH1 0xFF AND PUSH1 0x40 MLOAD PUSH2 0x29E SWAP3 SWAP2 SWAP1 PUSH2 0x176B JUMP JUMPDEST PUSH1 0x40 MLOAD DUP1 SWAP2 SUB SWAP1 LOG1 POP JUMP JUMPDEST PUSH1 0x3 PUSH1 0x5 DUP2 GT ISZERO PUSH2 0x2BD JUMPI PUSH2 0x2BC PUSH2 0x1651 JUMP JUMPDEST JUMPDEST PUSH1 0x6 PUSH1 0x0 SWAP1 SLOAD SWAP1 PUSH2 0x100 EXP SWAP1 DIV PUSH1 0xFF AND PUSH1 0x5 DUP2 GT ISZERO PUSH2 0x2DF JUMPI PUSH2 0x2DE PUSH2 0x1651 JUMP JUMPDEST JUMPDEST EQ PUSH2 0x31F JUMPI PUSH1 0x40 MLOAD PUSH32 0x8C379A000000000000000000000000000000000000000000000000000000000 DUP2 MSTORE PUSH1 0x4 ADD PUSH2 0x316 SWAP1 PUSH2 0x1806 JUMP JUMPDEST PUSH1 0x40 MLOAD DUP1 SWAP2 SUB SWAP1 REVERT JUMPDEST PUSH1 0x2 PUSH1 0x0 CALLER PUSH20 0xFFFFFFFFFFFFFFFFFFFFFFFFFFFFFFFFFFFFFFFF AND PUSH20 0xFFFFFFFFFFFFFFFFFFFFFFFFFFFFFFFFFFFFFFFF AND DUP2 MSTORE PUSH1 0x20 ADD SWAP1 DUP2 MSTORE PUSH1 0x20 ADD PUSH1 0x0 KECCAK256 PUSH1 0x0 ADD PUSH1 0x0 SWAP1 SLOAD SWAP1 PUSH2 0x100 EXP SWAP1 DIV PUSH1 0xFF AND PUSH2 0x3AE JUMPI PUSH1 0x40 MLOAD PUSH32 0x8C379A000000000000000000000000000000000000000000000000000000000 DUP2 MSTORE PUSH1 0x4 ADD PUSH2 0x3A5 SWAP1 PUSH2 0x1872 JUMP JUMPDEST PUSH1 0x40 MLOAD DUP1 SWAP2 SUB SWAP1 REVERT JUMPDEST PUSH1 0x2 PUSH1 0x0 CALLER PUSH20 0xFFFFFFFFFFFFFFFFFFFFFFFFFFFFFFFFFFFFFFFF AND PUSH20 0xFFFFFFFFFFFFFFFFFFFFFFFFFFFFFFFFFFFFFFFF AND DUP2 MSTORE PUSH1 0x20 ADD SWAP1 DUP2 MSTORE PUSH1 0x20 ADD PUSH1 0x0 KECCAK256 PUSH1 0x0 ADD PUSH1 0x1 SWAP1 SLOAD SWAP1 PUSH2 0x100 EXP SWAP1 DIV PUSH1 0xFF AND PUSH2 0x43D JUMPI PUSH1 0x40 MLOAD PUSH32 0x8C379A000000000000000000000000000000000000000000000000000000000 DUP2 MSTORE PUSH1 0x4 ADD PUSH2 0x434 SWAP1 PUSH2 0x18DE JUMP JUMPDEST PUSH1 0x40 MLOAD DUP1 SWAP2 SUB SWAP1 REVERT JUMPDEST PUSH1 0x0 PUSH1 0x5 DUP3 DUP2 SLOAD DUP2 LT PUSH2 0x453 JUMPI PUSH2 0x452 PUSH2 0x18FE JUMP JUMPDEST JUMPDEST SWAP1 PUSH1 0x0 MSTORE PUSH1 0x20 PUSH1 0x0 KECCAK256 SWAP1 PUSH1 0x2 MUL ADD PUSH1 0x0 ADD DUP1 SLOAD PUSH2 0x46F SWAP1 PUSH2 0x195C JUMP JUMPDEST SWAP1 POP GT PUSH2 0x4B1 JUMPI PUSH1 0x40 MLOAD PUSH32 0x8C379A000000000000000000000000000000000000000000000000000000000 DUP2 MSTORE PUSH1 0x4 ADD PUSH2 0x4A8 SWAP1 PUSH2 0x19D9 JUMP JUMPDEST PUSH1 0x40 MLOAD DUP1 SWAP2 SUB SWAP1 REVERT JUMPDEST DUP1 PUSH1 0x2 PUSH1 0x0 CALLER PUSH20 0xFFFFFFFFFFFFFFFFFFFFFFFFFFFFFFFFFFFFFFFF AND PUSH20 0xFFFFFFFFFFFFFFFFFFFFFFFFFFFFFFFFFFFFFFFF AND DUP2 MSTORE PUSH1 0x20 ADD SWAP1 DUP2 MSTORE PUSH1 0x20 ADD PUSH1 0x0 KECCAK256 PUSH1 0x1 ADD DUP2 SWAP1 SSTORE POP PUSH1 0x1 PUSH1 0x2 PUSH1 0x0 CALLER PUSH20 0xFFFFFFFFFFFFFFFFFFFFFFFFFFFFFFFFFFFFFFFF AND PUSH20 0xFFFFFFFFFFFFFFFFFFFFFFFFFFFFFFFFFFFFFFFF AND DUP2 MSTORE PUSH1 0x20 ADD SWAP1 DUP2 MSTORE PUSH1 0x20 ADD PUSH1 0x0 KECCAK256 PUSH1 0x0 ADD PUSH1 0x1 PUSH2 0x100 EXP DUP2 SLOAD DUP2 PUSH1 0xFF MUL NOT AND SWAP1 DUP4 ISZERO ISZERO MUL OR SWAP1 SSTORE POP PUSH32 0x4D99B957A2BC29A30EBD96A7BE8E68FE50A3C701DB28A91436490B7D53870CA4 CALLER DUP3 PUSH1 0x40 MLOAD PUSH2 0x584 SWAP3 SWAP2 SWAP1 PUSH2 0x1A08 JUMP JUMPDEST PUSH1 0x40 MLOAD DUP1 SWAP2 SUB SWAP1 LOG1 POP JUMP JUMPDEST PUSH1 0x1 PUSH1 0x5 DUP2 GT ISZERO PUSH2 0x5A3 JUMPI PUSH2 0x5A2 PUSH2 0x1651 JUMP JUMPDEST JUMPDEST PUSH1 0x6 PUSH1 0x0 SWAP1 SLOAD SWAP1 PUSH2 0x100 EXP SWAP1 DIV PUSH1 0xFF AND PUSH1 0x5 DUP2 GT ISZERO PUSH2 0x5C5 JUMPI PUSH2 0x5C4 PUSH2 0x1651 JUMP JUMPDEST JUMPDEST EQ PUSH2 0x605 JUMPI PUSH1 0x40 MLOAD PUSH32 0x8C379A000000000000000000000000000000000000000000000000000000000 DUP2 MSTORE PUSH1 0x4 ADD PUSH2 0x5FC SWAP1 PUSH2 0x1703 JUMP JUMPDEST PUSH1 0x40 MLOAD DUP1 SWAP2 SUB SWAP1 REVERT JUMPDEST PUSH1 0x2 PUSH1 0x0 CALLER PUSH20 0xFFFFFFFFFFFFFFFFFFFFFFFFFFFFFFFFFFFFFFFF AND PUSH20 0xFFFFFFFFFFFFFFFFFFFFFFFFFFFFFFFFFFFFFFFF AND DUP2 MSTORE PUSH1 0x20 ADD SWAP1 DUP2 MSTORE PUSH1 0x20 ADD PUSH1 0x0 KECCAK256 PUSH1 0x0 ADD PUSH1 0x0 SWAP1 SLOAD SWAP1 PUSH2 0x100 EXP SWAP1 DIV PUSH1 0xFF AND PUSH2 0x694 JUMPI PUSH1 0x40 MLOAD PUSH32 0x8C379A000000000000000000000000000000000000000000000000000000000 DUP2 MSTORE PUSH1 0x4 ADD PUSH2 0x68B SWAP1 PUSH2 0x1AA3 JUMP JUMPDEST PUSH1 0x40 MLOAD DUP1 SWAP2 SUB SWAP1 REVERT JUMPDEST PUSH1 0x0 DUP3 DUP3 SWAP1 POP GT PUSH2 0x6DA JUMPI PUSH1 0x40 MLOAD PUSH32 0x8C379A000000000000000000000000000000000000000000000000000000000 DUP2 MSTORE PUSH1 0x4 ADD PUSH2 0x6D1 SWAP1 PUSH2 0x1B0F JUMP JUMPDEST PUSH1 0x40 MLOAD DUP1 SWAP2 SUB SWAP1 REVERT JUMPDEST PUSH1 0x5 PUSH1 0x40 MLOAD DUP1 PUSH1 0x40 ADD PUSH1 0x40 MSTORE DUP1 DUP5 DUP5 DUP1 DUP1 PUSH1 0x1F ADD PUSH1 0x20 DUP1 SWAP2 DIV MUL PUSH1 0x20 ADD PUSH1 0x40 MLOAD SWAP1 DUP2 ADD PUSH1 0x40 MSTORE DUP1 SWAP4 SWAP3 SWAP2 SWAP1 DUP2 DUP2 MSTORE PUSH1 0x20 ADD DUP4 DUP4 DUP1 DUP3 DUP5 CALLDATACOPY PUSH1 0x0 DUP2 DUP5 ADD MSTORE PUSH1 0x1F NOT PUSH1 0x1F DUP3 ADD AND SWAP1 POP DUP1 DUP4 ADD SWAP3 POP POP POP POP POP POP POP DUP2 MSTORE PUSH1 0x20 ADD PUSH1 0x0 DUP2 MSTORE POP SWAP1 DUP1 PUSH1 0x1 DUP2 SLOAD ADD DUP1 DUP3 SSTORE DUP1 SWAP2 POP POP PUSH1 0x1 SWAP1 SUB SWAP1 PUSH1 0x0 MSTORE PUSH1 0x20 PUSH1 0x0 KECCAK256 SWAP1 PUSH1 0x2 MUL ADD PUSH1 0x0 SWAP1 SWAP2 SWAP1 SWAP2 SWAP1 SWAP2 POP PUSH1 0x0 DUP3 ADD MLOAD DUP2 PUSH1 0x0 ADD SWAP1 DUP1 MLOAD SWAP1 PUSH1 0x20 ADD SWAP1 PUSH2 0x77B SWAP3 SWAP2 SWAP1 PUSH2 0x12B9 JUMP JUMPDEST POP PUSH1 0x20 DUP3 ADD MLOAD DUP2 PUSH1 0x1 ADD SSTORE POP POP PUSH1 0x0 PUSH1 0x1 PUSH1 0x5 DUP1 SLOAD SWAP1 POP PUSH2 0x79C SWAP2 SWAP1 PUSH2 0x1B5E JUMP JUMPDEST SWAP1 POP DUP1 PUSH1 0x4 PUSH1 0x0 CALLER PUSH20 0xFFFFFFFFFFFFFFFFFFFFFFFFFFFFFFFFFFFFFFFF AND PUSH20 0xFFFFFFFFFFFFFFFFFFFFFFFFFFFFFFFFFFFFFFFF AND DUP2 MSTORE PUSH1 0x20 ADD SWAP1 DUP2 MSTORE PUSH1 0x20 ADD PUSH1 0x0 KECCAK256 DUP2 SWAP1 SSTORE POP PUSH32 0x92E393E9B54E2F801D3EA4BEB0C5E71A21CC34A5D34B77D0FB8A3AA1650DC18F DUP2 PUSH1 0x40 MLOAD PUSH2 0x811 SWAP2 SWAP1 PUSH2 0x1B92 JUMP JUMPDEST PUSH1 0x40 MLOAD DUP1 SWAP2 SUB SWAP1 LOG1 POP POP POP JUMP JUMPDEST PUSH2 0x826 PUSH2 0x116F JUMP JUMPDEST PUSH2 0x830 PUSH1 0x0 PUSH2 0x11ED JUMP JUMPDEST JUMP JUMPDEST PUSH2 0x83A PUSH2 0x116F JUMP JUMPDEST PUSH1 0x1 PUSH1 0x3 SLOAD GT PUSH2 0x87F JUMPI PUSH1 0x40 MLOAD PUSH32 0x8C379A000000000000000000000000000000000000000000000000000000000 DUP2 MSTORE PUSH1 0x4 ADD PUSH2 0x876 SWAP1 PUSH2 0x1C1F JUMP JUMPDEST PUSH1 0x40 MLOAD DUP1 SWAP2 SUB SWAP1 REVERT JUMPDEST PUSH1 0x0 PUSH1 0x6 PUSH1 0x0 SWAP1 SLOAD SWAP1 PUSH2 0x100 EXP SWAP1 DIV PUSH1 0xFF AND SWAP1 POP PUSH1 0x1 PUSH1 0x6 PUSH1 0x0 PUSH2 0x100 EXP DUP2 SLOAD DUP2 PUSH1 0xFF MUL NOT AND SWAP1 DUP4 PUSH1 0x5 DUP2 GT ISZERO PUSH2 0x8B9 JUMPI PUSH2 0x8B8 PUSH2 0x1651 JUMP JUMPDEST JUMPDEST MUL OR SWAP1 SSTORE POP PUSH32 0xA97A4EE45751E2ABF3E4FC8946939630B11B371EA8AE39CCDC3056E98F5CC3F DUP2 PUSH1 0x6 PUSH1 0x0 SWAP1 SLOAD SWAP1 PUSH2 0x100 EXP SWAP1 DIV PUSH1 0xFF AND PUSH1 0x40 MLOAD PUSH2 0x8FE SWAP3 SWAP2 SWAP1 PUSH2 0x176B JUMP JUMPDEST PUSH1 0x40 MLOAD DUP1 SWAP2 SUB SWAP1 LOG1 POP JUMP JUMPDEST PUSH1 0x0 DUP1 PUSH1 0x0 SWAP1 SLOAD SWAP1 PUSH2 0x100 EXP SWAP1 DIV PUSH20 0xFFFFFFFFFFFFFFFFFFFFFFFFFFFFFFFFFFFFFFFF AND SWAP1 POP SWAP1 JUMP JUMPDEST PUSH2 0x93A PUSH2 0x133F JUMP JUMPDEST PUSH1 0x5 DUP1 DUP2 GT ISZERO PUSH2 0x94D JUMPI PUSH2 0x94C PUSH2 0x1651 JUMP JUMPDEST JUMPDEST PUSH1 0x6 PUSH1 0x0 SWAP1 SLOAD SWAP1 PUSH2 0x100 EXP SWAP1 DIV PUSH1 0xFF AND PUSH1 0x5 DUP2 GT ISZERO PUSH2 0x96F JUMPI PUSH2 0x96E PUSH2 0x1651 JUMP JUMPDEST JUMPDEST EQ PUSH2 0x9AF JUMPI PUSH1 0x40 MLOAD PUSH32 0x8C379A000000000000000000000000000000000000000000000000000000000 DUP2 MSTORE PUSH1 0x4 ADD PUSH2 0x9A6 SWAP1 PUSH2 0x1C8B JUMP JUMPDEST PUSH1 0x40 MLOAD DUP1 SWAP2 SUB SWAP1 REVERT JUMPDEST PUSH1 0x5 PUSH1 0x1 SLOAD DUP2 SLOAD DUP2 LT PUSH2 0x9C5 JUMPI PUSH2 0x9C4 PUSH2 0x18FE JUMP JUMPDEST JUMPDEST SWAP1 PUSH1 0x0 MSTORE PUSH1 0x20 PUSH1 0x0 KECCAK256 SWAP1 PUSH1 0x2 MUL ADD PUSH1 0x40 MLOAD DUP1 PUSH1 0x40 ADD PUSH1 0x40 MSTORE SWAP1 DUP2 PUSH1 0x0 DUP3 ADD DUP1 SLOAD PUSH2 0x9EE SWAP1 PUSH2 0x195C JUMP JUMPDEST DUP1 PUSH1 0x1F ADD PUSH1 0x20 DUP1 SWAP2 DIV MUL PUSH1 0x20 ADD PUSH1 0x40 MLOAD SWAP1 DUP2 ADD PUSH1 0x40 MSTORE DUP1 SWAP3 SWAP2 SWAP1 DUP2 DUP2 MSTORE PUSH1 0x20 ADD DUP3 DUP1 SLOAD PUSH2 0xA1A SWAP1 PUSH2 0x195C JUMP JUMPDEST DUP1 ISZERO PUSH2 0xA67 JUMPI DUP1 PUSH1 0x1F LT PUSH2 0xA3C JUMPI PUSH2 0x100 DUP1 DUP4 SLOAD DIV MUL DUP4 MSTORE SWAP2 PUSH1 0x20 ADD SWAP2 PUSH2 0xA67 JUMP JUMPDEST DUP3 ADD SWAP2 SWAP1 PUSH1 0x0 MSTORE PUSH1 0x20 PUSH1 0x0 KECCAK256 SWAP1 JUMPDEST DUP2 SLOAD DUP2 MSTORE SWAP1 PUSH1 0x1 ADD SWAP1 PUSH1 0x20 ADD DUP1 DUP4 GT PUSH2 0xA4A JUMPI DUP3 SWAP1 SUB PUSH1 0x1F AND DUP3 ADD SWAP2 JUMPDEST POP POP POP POP POP DUP2 MSTORE PUSH1 0x20 ADD PUSH1 0x1 DUP3 ADD SLOAD DUP2 MSTORE POP POP SWAP1 POP SWAP1 JUMP JUMPDEST PUSH2 0xA87 PUSH2 0x116F JUMP JUMPDEST PUSH1 0x0 PUSH1 0x5 DUP2 GT ISZERO PUSH2 0xA9B JUMPI PUSH2 0xA9A PUSH2 0x1651 JUMP JUMPDEST JUMPDEST PUSH1 0x6 PUSH1 0x0 SWAP1 SLOAD SWAP1 PUSH2 0x100 EXP SWAP1 DIV PUSH1 0xFF AND PUSH1 0x5 DUP2 GT ISZERO PUSH2 0xABD JUMPI PUSH2 0xABC PUSH2 0x1651 JUMP JUMPDEST JUMPDEST EQ PUSH2 0xAFD JUMPI PUSH1 0x40 MLOAD PUSH32 0x8C379A000000000000000000000000000000000000000000000000000000000 DUP2 MSTORE PUSH1 0x4 ADD PUSH2 0xAF4 SWAP1 PUSH2 0x1D1D JUMP JUMPDEST PUSH1 0x40 MLOAD DUP1 SWAP2 SUB SWAP1 REVERT JUMPDEST PUSH1 0x2 PUSH1 0x0 DUP3 PUSH20 0xFFFFFFFFFFFFFFFFFFFFFFFFFFFFFFFFFFFFFFFF AND PUSH20 0xFFFFFFFFFFFFFFFFFFFFFFFFFFFFFFFFFFFFFFFF AND DUP2 MSTORE PUSH1 0x20 ADD SWAP1 DUP2 MSTORE PUSH1 0x20 ADD PUSH1 0x0 KECCAK256 PUSH1 0x0 ADD PUSH1 0x0 SWAP1 SLOAD SWAP1 PUSH2 0x100 EXP SWAP1 DIV PUSH1 0xFF AND ISZERO PUSH2 0xB8D JUMPI PUSH1 0x40 MLOAD PUSH32 0x8C379A000000000000000000000000000000000000000000000000000000000 DUP2 MSTORE PUSH1 0x4 ADD PUSH2 0xB84 SWAP1 PUSH2 0x1D89 JUMP JUMPDEST PUSH1 0x40 MLOAD DUP1 SWAP2 SUB SWAP1 REVERT JUMPDEST PUSH1 0x40 MLOAD DUP1 PUSH1 0x60 ADD PUSH1 0x40 MSTORE DUP1 PUSH1 0x1 ISZERO ISZERO DUP2 MSTORE PUSH1 0x20 ADD PUSH1 0x0 ISZERO ISZERO DUP2 MSTORE PUSH1 0x20 ADD PUSH1 0x0 DUP2 MSTORE POP PUSH1 0x2 PUSH1 0x0 DUP4 PUSH20 0xFFFFFFFFFFFFFFFFFFFFFFFFFFFFFFFFFFFFFFFF AND PUSH20 0xFFFFFFFFFFFFFFFFFFFFFFFFFFFFFFFFFFFFFFFF AND DUP2 MSTORE PUSH1 0x20 ADD SWAP1 DUP2 MSTORE PUSH1 0x20 ADD PUSH1 0x0 KECCAK256 PUSH1 0x0 DUP3 ADD MLOAD DUP2 PUSH1 0x0 ADD PUSH1 0x0 PUSH2 0x100 EXP DUP2 SLOAD DUP2 PUSH1 0xFF MUL NOT AND SWAP1 DUP4 ISZERO ISZERO MUL OR SWAP1 SSTORE POP PUSH1 0x20 DUP3 ADD MLOAD DUP2 PUSH1 0x0 ADD PUSH1 0x1 PUSH2 0x100 EXP DUP2 SLOAD DUP2 PUSH1 0xFF MUL NOT AND SWAP1 DUP4 ISZERO ISZERO MUL OR SWAP1 SSTORE POP PUSH1 0x40 DUP3 ADD MLOAD DUP2 PUSH1 0x1 ADD SSTORE SWAP1 POP POP PUSH1 0x3 PUSH1 0x0 DUP2 SLOAD DUP1 SWAP3 SWAP2 SWAP1 PUSH2 0xC4E SWAP1 PUSH2 0x1DA9 JUMP JUMPDEST SWAP2 SWAP1 POP SSTORE POP PUSH32 0xB6BE2187D059CC2A55FE29E0E503B566E1E0F8C8780096E185429350ACFFD3DD DUP2 PUSH1 0x40 MLOAD PUSH2 0xC82 SWAP2 SWAP1 PUSH2 0x14D6 JUMP JUMPDEST PUSH1 0x40 MLOAD DUP1 SWAP2 SUB SWAP1 LOG1 POP JUMP JUMPDEST PUSH2 0xC95 PUSH2 0x116F JUMP JUMPDEST PUSH1 0x2 PUSH1 0x5 DUP2 GT ISZERO PUSH2 0xCA9 JUMPI PUSH2 0xCA8 PUSH2 0x1651 JUMP JUMPDEST JUMPDEST PUSH1 0x6 PUSH1 0x0 SWAP1 SLOAD SWAP1 PUSH2 0x100 EXP SWAP1 DIV PUSH1 0xFF AND PUSH1 0x5 DUP2 GT ISZERO PUSH2 0xCCB JUMPI PUSH2 0xCCA PUSH2 0x1651 JUMP JUMPDEST JUMPDEST EQ PUSH2 0xD0B JUMPI PUSH1 0x40 MLOAD PUSH32 0x8C379A000000000000000000000000000000000000000000000000000000000 DUP2 MSTORE PUSH1 0x4 ADD PUSH2 0xD02 SWAP1 PUSH2 0x1E63 JUMP JUMPDEST PUSH1 0x40 MLOAD DUP1 SWAP2 SUB SWAP1 REVERT JUMPDEST PUSH1 0x1 PUSH1 0x5 DUP1 SLOAD SWAP1 POP GT PUSH2 0xD53 JUMPI PUSH1 0x40 MLOAD PUSH32 0x8C379A000000000000000000000000000000000000000000000000000000000 DUP2 MSTORE PUSH1 0x4 ADD PUSH2 0xD4A SWAP1 PUSH2 0x1EF5 JUMP JUMPDEST PUSH1 0x40 MLOAD DUP1 SWAP2 SUB SWAP1 REVERT JUMPDEST PUSH1 0x0 PUSH1 0x6 PUSH1 0x0 SWAP1 SLOAD SWAP1 PUSH2 0x100 EXP SWAP1 DIV PUSH1 0xFF AND SWAP1 POP PUSH1 0x3 PUSH1 0x6 PUSH1 0x0 PUSH2 0x100 EXP DUP2 SLOAD DUP2 PUSH1 0xFF MUL NOT AND SWAP1 DUP4 PUSH1 0x5 DUP2 GT ISZERO PUSH2 0xD8D JUMPI PUSH2 0xD8C PUSH2 0x1651 JUMP JUMPDEST JUMPDEST MUL OR SWAP1 SSTORE POP PUSH32 0xA97A4EE45751E2ABF3E4FC8946939630B11B371EA8AE39CCDC3056E98F5CC3F DUP2 PUSH1 0x6 PUSH1 0x0 SWAP1 SLOAD SWAP1 PUSH2 0x100 EXP SWAP1 DIV PUSH1 0xFF AND PUSH1 0x40 MLOAD PUSH2 0xDD2 SWAP3 SWAP2 SWAP1 PUSH2 0x176B JUMP JUMPDEST PUSH1 0x40 MLOAD DUP1 SWAP2 SUB SWAP1 LOG1 POP JUMP JUMPDEST PUSH2 0xDE5 PUSH2 0x116F JUMP JUMPDEST PUSH1 0x3 PUSH1 0x5 DUP2 GT ISZERO PUSH2 0xDF9 JUMPI PUSH2 0xDF8 PUSH2 0x1651 JUMP JUMPDEST JUMPDEST PUSH1 0x6 PUSH1 0x0 SWAP1 SLOAD SWAP1 PUSH2 0x100 EXP SWAP1 DIV PUSH1 0xFF AND PUSH1 0x5 DUP2 GT ISZERO PUSH2 0xE1B JUMPI PUSH2 0xE1A PUSH2 0x1651 JUMP JUMPDEST JUMPDEST EQ PUSH2 0xE5B JUMPI PUSH1 0x40 MLOAD PUSH32 0x8C379A000000000000000000000000000000000000000000000000000000000 DUP2 MSTORE PUSH1 0x4 ADD PUSH2 0xE52 SWAP1 PUSH2 0x1806 JUMP JUMPDEST PUSH1 0x40 MLOAD DUP1 SWAP2 SUB SWAP1 REVERT JUMPDEST PUSH1 0x0 DUP1 JUMPDEST PUSH1 0x5 DUP1 SLOAD SWAP1 POP DUP2 LT ISZERO PUSH2 0xEBA JUMPI PUSH1 0x5 DUP2 DUP2 SLOAD DUP2 LT PUSH2 0xE80 JUMPI PUSH2 0xE7F PUSH2 0x18FE JUMP JUMPDEST JUMPDEST SWAP1 PUSH1 0x0 MSTORE PUSH1 0x20 PUSH1 0x0 KECCAK256 SWAP1 PUSH1 0x2 MUL ADD PUSH1 0x1 ADD SLOAD DUP3 PUSH2 0xE9D SWAP2 SWAP1 PUSH2 0x1F15 JUMP JUMPDEST SWAP2 POP PUSH1 0x0 DUP3 GT PUSH2 0xEBA JUMPI DUP1 DUP1 PUSH2 0xEB2 SWAP1 PUSH2 0x1DA9 JUMP JUMPDEST SWAP2 POP POP PUSH2 0xE5F JUMP JUMPDEST POP PUSH1 0x0 DUP2 GT PUSH2 0xEFE JUMPI PUSH1 0x40 MLOAD PUSH32 0x8C379A000000000000000000000000000000000000000000000000000000000 DUP2 MSTORE PUSH1 0x4 ADD PUSH2 0xEF5 SWAP1 PUSH2 0x1FDD JUMP JUMPDEST PUSH1 0x40 MLOAD DUP1 SWAP2 SUB SWAP1 REVERT JUMPDEST PUSH1 0x0 PUSH1 0x6 PUSH1 0x0 SWAP1 SLOAD SWAP1 PUSH2 0x100 EXP SWAP1 DIV PUSH1 0xFF AND SWAP1 POP PUSH1 0x4 PUSH1 0x6 PUSH1 0x0 PUSH2 0x100 EXP DUP2 SLOAD DUP2 PUSH1 0xFF MUL NOT AND SWAP1 DUP4 PUSH1 0x5 DUP2 GT ISZERO PUSH2 0xF38 JUMPI PUSH2 0xF37 PUSH2 0x1651 JUMP JUMPDEST JUMPDEST MUL OR SWAP1 SSTORE POP PUSH32 0xA97A4EE45751E2ABF3E4FC8946939630B11B371EA8AE39CCDC3056E98F5CC3F DUP2 PUSH1 0x6 PUSH1 0x0 SWAP1 SLOAD SWAP1 PUSH2 0x100 EXP SWAP1 DIV PUSH1 0xFF AND PUSH1 0x40 MLOAD PUSH2 0xF7D SWAP3 SWAP2 SWAP1 PUSH2 0x176B JUMP JUMPDEST PUSH1 0x40 MLOAD DUP1 SWAP2 SUB SWAP1 LOG1 POP POP JUMP JUMPDEST PUSH2 0xF91 PUSH2 0x116F JUMP JUMPDEST PUSH1 0x4 PUSH1 0x5 DUP2 GT ISZERO PUSH2 0xFA5 JUMPI PUSH2 0xFA4 PUSH2 0x1651 JUMP JUMPDEST JUMPDEST PUSH1 0x6 PUSH1 0x0 SWAP1 SLOAD SWAP1 PUSH2 0x100 EXP SWAP1 DIV PUSH1 0xFF AND PUSH1 0x5 DUP2 GT ISZERO PUSH2 0xFC7 JUMPI PUSH2 0xFC6 PUSH2 0x1651 JUMP JUMPDEST JUMPDEST EQ PUSH2 0x1007 JUMPI PUSH1 0x40 MLOAD PUSH32 0x8C379A000000000000000000000000000000000000000000000000000000000 DUP2 MSTORE PUSH1 0x4 ADD PUSH2 0xFFE SWAP1 PUSH2 0x1703 JUMP JUMPDEST PUSH1 0x40 MLOAD DUP1 SWAP2 SUB SWAP1 REVERT JUMPDEST PUSH1 0x0 DUP1 JUMPDEST PUSH1 0x5 DUP1 SLOAD SWAP1 POP DUP2 LT ISZERO PUSH2 0x1060 JUMPI DUP2 PUSH1 0x5 DUP3 DUP2 SLOAD DUP2 LT PUSH2 0x102D JUMPI PUSH2 0x102C PUSH2 0x18FE JUMP JUMPDEST JUMPDEST SWAP1 PUSH1 0x0 MSTORE PUSH1 0x20 PUSH1 0x0 KECCAK256 SWAP1 PUSH1 0x2 MUL ADD PUSH1 0x1 ADD SLOAD GT ISZERO PUSH2 0x104D JUMPI DUP1 PUSH1 0x1 DUP2 SWAP1 SSTORE POP JUMPDEST DUP1 DUP1 PUSH2 0x1058 SWAP1 PUSH2 0x1DA9 JUMP JUMPDEST SWAP2 POP POP PUSH2 0x100B JUMP JUMPDEST POP PUSH1 0x0 PUSH1 0x6 PUSH1 0x0 SWAP1 SLOAD SWAP1 PUSH2 0x100 EXP SWAP1 DIV PUSH1 0xFF AND SWAP1 POP PUSH1 0x5 PUSH1 0x6 PUSH1 0x0 PUSH2 0x100 EXP DUP2 SLOAD DUP2 PUSH1 0xFF MUL NOT AND SWAP1 DUP4 PUSH1 0x5 DUP2 GT ISZERO PUSH2 0x109B JUMPI PUSH2 0x109A PUSH2 0x1651 JUMP JUMPDEST JUMPDEST MUL OR SWAP1 SSTORE POP PUSH32 0xA97A4EE45751E2ABF3E4FC8946939630B11B371EA8AE39CCDC3056E98F5CC3F DUP2 PUSH1 0x6 PUSH1 0x0 SWAP1 SLOAD SWAP1 PUSH2 0x100 EXP SWAP1 DIV PUSH1 0xFF AND PUSH1 0x40 MLOAD PUSH2 0x10E0 SWAP3 SWAP2 SWAP1 PUSH2 0x176B JUMP JUMPDEST PUSH1 0x40 MLOAD DUP1 SWAP2 SUB SWAP1 LOG1 POP POP JUMP JUMPDEST PUSH2 0x10F4 PUSH2 0x116F JUMP JUMPDEST PUSH1 0x0 PUSH20 0xFFFFFFFFFFFFFFFFFFFFFFFFFFFFFFFFFFFFFFFF AND DUP2 PUSH20 0xFFFFFFFFFFFFFFFFFFFFFFFFFFFFFFFFFFFFFFFF AND SUB PUSH2 0x1163 JUMPI PUSH1 0x40 MLOAD PUSH32 0x8C379A000000000000000000000000000000000000000000000000000000000 DUP2 MSTORE PUSH1 0x4 ADD PUSH2 0x115A SWAP1 PUSH2 0x206F JUMP JUMPDEST PUSH1 0x40 MLOAD DUP1 SWAP2 SUB SWAP1 REVERT JUMPDEST PUSH2 0x116C DUP2 PUSH2 0x11ED JUMP JUMPDEST POP JUMP JUMPDEST PUSH2 0x1177 PUSH2 0x12B1 JUMP JUMPDEST PUSH20 0xFFFFFFFFFFFFFFFFFFFFFFFFFFFFFFFFFFFFFFFF AND PUSH2 0x1195 PUSH2 0x909 JUMP JUMPDEST PUSH20 0xFFFFFFFFFFFFFFFFFFFFFFFFFFFFFFFFFFFFFFFF AND EQ PUSH2 0x11EB JUMPI PUSH1 0x40 MLOAD PUSH32 0x8C379A000000000000000000000000000000000000000000000000000000000 DUP2 MSTORE PUSH1 0x4 ADD PUSH2 0x11E2 SWAP1 PUSH2 0x20DB JUMP JUMPDEST PUSH1 0x40 MLOAD DUP1 SWAP2 SUB SWAP1 REVERT JUMPDEST JUMP JUMPDEST PUSH1 0x0 DUP1 PUSH1 0x0 SWAP1 SLOAD SWAP1 PUSH2 0x100 EXP SWAP1 DIV PUSH20 0xFFFFFFFFFFFFFFFFFFFFFFFFFFFFFFFFFFFFFFFF AND SWAP1 POP DUP2 PUSH1 0x0 DUP1 PUSH2 0x100 EXP DUP2 SLOAD DUP2 PUSH20 0xFFFFFFFFFFFFFFFFFFFFFFFFFFFFFFFFFFFFFFFF MUL NOT AND SWAP1 DUP4 PUSH20 0xFFFFFFFFFFFFFFFFFFFFFFFFFFFFFFFFFFFFFFFF AND MUL OR SWAP1 SSTORE POP DUP2 PUSH20 0xFFFFFFFFFFFFFFFFFFFFFFFFFFFFFFFFFFFFFFFF AND DUP2 PUSH20 0xFFFFFFFFFFFFFFFFFFFFFFFFFFFFFFFFFFFFFFFF AND PUSH32 0x8BE0079C531659141344CD1FD0A4F28419497F9722A3DAAFE3B4186F6B6457E0 PUSH1 0x40 MLOAD PUSH1 0x40 MLOAD DUP1 SWAP2 SUB SWAP1 LOG3 POP POP JUMP JUMPDEST PUSH1 0x0 CALLER SWAP1 POP SWAP1 JUMP JUMPDEST DUP3 DUP1 SLOAD PUSH2 0x12C5 SWAP1 PUSH2 0x195C JUMP JUMPDEST SWAP1 PUSH1 0x0 MSTORE PUSH1 0x20 PUSH1 0x0 KECCAK256 SWAP1 PUSH1 0x1F ADD PUSH1 0x20 SWAP1 DIV DUP2 ADD SWAP3 DUP3 PUSH2 0x12E7 JUMPI PUSH1 0x0 DUP6 SSTORE PUSH2 0x132E JUMP JUMPDEST DUP3 PUSH1 0x1F LT PUSH2 0x1300 JUMPI DUP1 MLOAD PUSH1 0xFF NOT AND DUP4 DUP1 ADD OR DUP6 SSTORE PUSH2 0x132E JUMP JUMPDEST DUP3 DUP1 ADD PUSH1 0x1 ADD DUP6 SSTORE DUP3 ISZERO PUSH2 0x132E JUMPI SWAP2 DUP3 ADD JUMPDEST DUP3 DUP2 GT ISZERO PUSH2 0x132D JUMPI DUP3 MLOAD DUP3 SSTORE SWAP2 PUSH1 0x20 ADD SWAP2 SWAP1 PUSH1 0x1 ADD SWAP1 PUSH2 0x1312 JUMP JUMPDEST JUMPDEST POP SWAP1 POP PUSH2 0x133B SWAP2 SWAP1 PUSH2 0x1359 JUMP JUMPDEST POP SWAP1 JUMP JUMPDEST PUSH1 0x40 MLOAD DUP1 PUSH1 0x40 ADD PUSH1 0x40 MSTORE DUP1 PUSH1 0x60 DUP2 MSTORE PUSH1 0x20 ADD PUSH1 0x0 DUP2 MSTORE POP SWAP1 JUMP JUMPDEST JUMPDEST DUP1 DUP3 GT ISZERO PUSH2 0x1372 JUMPI PUSH1 0x0 DUP2 PUSH1 0x0 SWAP1 SSTORE POP PUSH1 0x1 ADD PUSH2 0x135A JUMP JUMPDEST POP SWAP1 JUMP JUMPDEST PUSH1 0x0 DUP1 REVERT JUMPDEST PUSH1 0x0 DUP1 REVERT JUMPDEST PUSH1 0x0 DUP2 SWAP1 POP SWAP2 SWAP1 POP JUMP JUMPDEST PUSH2 0x1393 DUP2 PUSH2 0x1380 JUMP JUMPDEST DUP2 EQ PUSH2 0x139E JUMPI PUSH1 0x0 DUP1 REVERT JUMPDEST POP JUMP JUMPDEST PUSH1 0x0 DUP2 CALLDATALOAD SWAP1 POP PUSH2 0x13B0 DUP2 PUSH2 0x138A JUMP JUMPDEST SWAP3 SWAP2 POP POP JUMP JUMPDEST PUSH1 0x0 PUSH1 0x20 DUP3 DUP5 SUB SLT ISZERO PUSH2 0x13CC JUMPI PUSH2 0x13CB PUSH2 0x1376 JUMP JUMPDEST JUMPDEST PUSH1 0x0 PUSH2 0x13DA DUP5 DUP3 DUP6 ADD PUSH2 0x13A1 JUMP JUMPDEST SWAP2 POP POP SWAP3 SWAP2 POP POP JUMP JUMPDEST PUSH1 0x0 DUP1 REVERT JUMPDEST PUSH1 0x0 DUP1 REVERT JUMPDEST PUSH1 0x0 DUP1 REVERT JUMPDEST PUSH1 0x0 DUP1 DUP4 PUSH1 0x1F DUP5 ADD SLT PUSH2 0x1408 JUMPI PUSH2 0x1407 PUSH2 0x13E3 JUMP JUMPDEST JUMPDEST DUP3 CALLDATALOAD SWAP1 POP PUSH8 0xFFFFFFFFFFFFFFFF DUP2 GT ISZERO PUSH2 0x1425 JUMPI PUSH2 0x1424 PUSH2 0x13E8 JUMP JUMPDEST JUMPDEST PUSH1 0x20 DUP4 ADD SWAP2 POP DUP4 PUSH1 0x1 DUP3 MUL DUP4 ADD GT ISZERO PUSH2 0x1441 JUMPI PUSH2 0x1440 PUSH2 0x13ED JUMP JUMPDEST JUMPDEST SWAP3 POP SWAP3 SWAP1 POP JUMP JUMPDEST PUSH1 0x0 DUP1 PUSH1 0x20 DUP4 DUP6 SUB SLT ISZERO PUSH2 0x145F JUMPI PUSH2 0x145E PUSH2 0x1376 JUMP JUMPDEST JUMPDEST PUSH1 0x0 DUP4 ADD CALLDATALOAD PUSH8 0xFFFFFFFFFFFFFFFF DUP2 GT ISZERO PUSH2 0x147D JUMPI PUSH2 0x147C PUSH2 0x137B JUMP JUMPDEST JUMPDEST PUSH2 0x1489 DUP6 DUP3 DUP7 ADD PUSH2 0x13F2 JUMP JUMPDEST SWAP3 POP SWAP3 POP POP SWAP3 POP SWAP3 SWAP1 POP JUMP JUMPDEST PUSH1 0x0 PUSH20 0xFFFFFFFFFFFFFFFFFFFFFFFFFFFFFFFFFFFFFFFF DUP3 AND SWAP1 POP SWAP2 SWAP1 POP JUMP JUMPDEST PUSH1 0x0 PUSH2 0x14C0 DUP3 PUSH2 0x1495 JUMP JUMPDEST SWAP1 POP SWAP2 SWAP1 POP JUMP JUMPDEST PUSH2 0x14D0 DUP2 PUSH2 0x14B5 JUMP JUMPDEST DUP3 MSTORE POP POP JUMP JUMPDEST PUSH1 0x0 PUSH1 0x20 DUP3 ADD SWAP1 POP PUSH2 0x14EB PUSH1 0x0 DUP4 ADD DUP5 PUSH2 0x14C7 JUMP JUMPDEST SWAP3 SWAP2 POP POP JUMP JUMPDEST PUSH1 0x0 DUP2 MLOAD SWAP1 POP SWAP2 SWAP1 POP JUMP JUMPDEST PUSH1 0x0 DUP3 DUP3 MSTORE PUSH1 0x20 DUP3 ADD SWAP1 POP SWAP3 SWAP2 POP POP JUMP JUMPDEST PUSH1 0x0 JUMPDEST DUP4 DUP2 LT ISZERO PUSH2 0x152B JUMPI DUP1 DUP3 ADD MLOAD DUP2 DUP5 ADD MSTORE PUSH1 0x20 DUP2 ADD SWAP1 POP PUSH2 0x1510 JUMP JUMPDEST DUP4 DUP2 GT ISZERO PUSH2 0x153A JUMPI PUSH1 0x0 DUP5 DUP5 ADD MSTORE JUMPDEST POP POP POP POP JUMP JUMPDEST PUSH1 0x0 PUSH1 0x1F NOT PUSH1 0x1F DUP4 ADD AND SWAP1 POP SWAP2 SWAP1 POP JUMP JUMPDEST PUSH1 0x0 PUSH2 0x155C DUP3 PUSH2 0x14F1 JUMP JUMPDEST PUSH2 0x1566 DUP2 DUP6 PUSH2 0x14FC JUMP JUMPDEST SWAP4 POP PUSH2 0x1576 DUP2 DUP6 PUSH1 0x20 DUP7 ADD PUSH2 0x150D JUMP JUMPDEST PUSH2 0x157F DUP2 PUSH2 0x1540 JUMP JUMPDEST DUP5 ADD SWAP2 POP POP SWAP3 SWAP2 POP POP JUMP JUMPDEST PUSH2 0x1593 DUP2 PUSH2 0x1380 JUMP JUMPDEST DUP3 MSTORE POP POP JUMP JUMPDEST PUSH1 0x0 PUSH1 0x40 DUP4 ADD PUSH1 0x0 DUP4 ADD MLOAD DUP5 DUP3 SUB PUSH1 0x0 DUP7 ADD MSTORE PUSH2 0x15B6 DUP3 DUP3 PUSH2 0x1551 JUMP JUMPDEST SWAP2 POP POP PUSH1 0x20 DUP4 ADD MLOAD PUSH2 0x15CB PUSH1 0x20 DUP7 ADD DUP3 PUSH2 0x158A JUMP JUMPDEST POP DUP1 SWAP2 POP POP SWAP3 SWAP2 POP POP JUMP JUMPDEST PUSH1 0x0 PUSH1 0x20 DUP3 ADD SWAP1 POP DUP2 DUP2 SUB PUSH1 0x0 DUP4 ADD MSTORE PUSH2 0x15F0 DUP2 DUP5 PUSH2 0x1599 JUMP JUMPDEST SWAP1 POP SWAP3 SWAP2 POP POP JUMP JUMPDEST PUSH2 0x1601 DUP2 PUSH2 0x14B5 JUMP JUMPDEST DUP2 EQ PUSH2 0x160C JUMPI PUSH1 0x0 DUP1 REVERT JUMPDEST POP JUMP JUMPDEST PUSH1 0x0 DUP2 CALLDATALOAD SWAP1 POP PUSH2 0x161E DUP2 PUSH2 0x15F8 JUMP JUMPDEST SWAP3 SWAP2 POP POP JUMP JUMPDEST PUSH1 0x0 PUSH1 0x20 DUP3 DUP5 SUB SLT ISZERO PUSH2 0x163A JUMPI PUSH2 0x1639 PUSH2 0x1376 JUMP JUMPDEST JUMPDEST PUSH1 0x0 PUSH2 0x1648 DUP5 DUP3 DUP6 ADD PUSH2 0x160F JUMP JUMPDEST SWAP2 POP POP SWAP3 SWAP2 POP POP JUMP JUMPDEST PUSH32 0x4E487B7100000000000000000000000000000000000000000000000000000000 PUSH1 0x0 MSTORE PUSH1 0x21 PUSH1 0x4 MSTORE PUSH1 0x24 PUSH1 0x0 REVERT JUMPDEST PUSH1 0x0 DUP3 DUP3 MSTORE PUSH1 0x20 DUP3 ADD SWAP1 POP SWAP3 SWAP2 POP POP JUMP JUMPDEST PUSH32 0x5468652070726F706F73616C20726567697374726174696F6E206973206E6F74 PUSH1 0x0 DUP3 ADD MSTORE PUSH32 0x2073746172746564207965742E00000000000000000000000000000000000000 PUSH1 0x20 DUP3 ADD MSTORE POP JUMP JUMPDEST PUSH1 0x0 PUSH2 0x16ED PUSH1 0x2D DUP4 PUSH2 0x1680 JUMP JUMPDEST SWAP2 POP PUSH2 0x16F8 DUP3 PUSH2 0x1691 JUMP JUMPDEST PUSH1 0x40 DUP3 ADD SWAP1 POP SWAP2 SWAP1 POP JUMP JUMPDEST PUSH1 0x0 PUSH1 0x20 DUP3 ADD SWAP1 POP DUP2 DUP2 SUB PUSH1 0x0 DUP4 ADD MSTORE PUSH2 0x171C DUP2 PUSH2 0x16E0 JUMP JUMPDEST SWAP1 POP SWAP2 SWAP1 POP JUMP JUMPDEST PUSH1 0x6 DUP2 LT PUSH2 0x1734 JUMPI PUSH2 0x1733 PUSH2 0x1651 JUMP JUMPDEST JUMPDEST POP JUMP JUMPDEST PUSH1 0x0 DUP2 SWAP1 POP PUSH2 0x1745 DUP3 PUSH2 0x1723 JUMP JUMPDEST SWAP2 SWAP1 POP JUMP JUMPDEST PUSH1 0x0 PUSH2 0x1755 DUP3 PUSH2 0x1737 JUMP JUMPDEST SWAP1 POP SWAP2 SWAP1 POP JUMP JUMPDEST PUSH2 0x1765 DUP2 PUSH2 0x174A JUMP JUMPDEST DUP3 MSTORE POP POP JUMP JUMPDEST PUSH1 0x0 PUSH1 0x40 DUP3 ADD SWAP1 POP PUSH2 0x1780 PUSH1 0x0 DUP4 ADD DUP6 PUSH2 0x175C JUMP JUMPDEST PUSH2 0x178D PUSH1 0x20 DUP4 ADD DUP5 PUSH2 0x175C JUMP JUMPDEST SWAP4 SWAP3 POP POP POP JUMP JUMPDEST PUSH32 0x54686520766F74696E672073657373696F6E206973206E6F7420737461727465 PUSH1 0x0 DUP3 ADD MSTORE PUSH32 0x64207965742E0000000000000000000000000000000000000000000000000000 PUSH1 0x20 DUP3 ADD MSTORE POP JUMP JUMPDEST PUSH1 0x0 PUSH2 0x17F0 PUSH1 0x26 DUP4 PUSH2 0x1680 JUMP JUMPDEST SWAP2 POP PUSH2 0x17FB DUP3 PUSH2 0x1794 JUMP JUMPDEST PUSH1 0x40 DUP3 ADD SWAP1 POP SWAP2 SWAP1 POP JUMP JUMPDEST PUSH1 0x0 PUSH1 0x20 DUP3 ADD SWAP1 POP DUP2 DUP2 SUB PUSH1 0x0 DUP4 ADD MSTORE PUSH2 0x181F DUP2 PUSH2 0x17E3 JUMP JUMPDEST SWAP1 POP SWAP2 SWAP1 POP JUMP JUMPDEST PUSH32 0x596F75206D757374206265207265676973746572656420746F20766F74652E00 PUSH1 0x0 DUP3 ADD MSTORE POP JUMP JUMPDEST PUSH1 0x0 PUSH2 0x185C PUSH1 0x1F DUP4 PUSH2 0x1680 JUMP JUMPDEST SWAP2 POP PUSH2 0x1867 DUP3 PUSH2 0x1826 JUMP JUMPDEST PUSH1 0x20 DUP3 ADD SWAP1 POP SWAP2 SWAP1 POP JUMP JUMPDEST PUSH1 0x0 PUSH1 0x20 DUP3 ADD SWAP1 POP DUP2 DUP2 SUB PUSH1 0x0 DUP4 ADD MSTORE PUSH2 0x188B DUP2 PUSH2 0x184F JUMP JUMPDEST SWAP1 POP SWAP2 SWAP1 POP JUMP JUMPDEST PUSH32 0x596F7520616C726561647920766F7465642E0000000000000000000000000000 PUSH1 0x0 DUP3 ADD MSTORE POP JUMP JUMPDEST PUSH1 0x0 PUSH2 0x18C8 PUSH1 0x12 DUP4 PUSH2 0x1680 JUMP JUMPDEST SWAP2 POP PUSH2 0x18D3 DUP3 PUSH2 0x1892 JUMP JUMPDEST PUSH1 0x20 DUP3 ADD SWAP1 POP SWAP2 SWAP1 POP JUMP JUMPDEST PUSH1 0x0 PUSH1 0x20 DUP3 ADD SWAP1 POP DUP2 DUP2 SUB PUSH1 0x0 DUP4 ADD MSTORE PUSH2 0x18F7 DUP2 PUSH2 0x18BB JUMP JUMPDEST SWAP1 POP SWAP2 SWAP1 POP JUMP JUMPDEST PUSH32 0x4E487B7100000000000000000000000000000000000000000000000000000000 PUSH1 0x0 MSTORE PUSH1 0x32 PUSH1 0x4 MSTORE PUSH1 0x24 PUSH1 0x0 REVERT JUMPDEST PUSH32 0x4E487B7100000000000000000000000000000000000000000000000000000000 PUSH1 0x0 MSTORE PUSH1 0x22 PUSH1 0x4 MSTORE PUSH1 0x24 PUSH1 0x0 REVERT JUMPDEST PUSH1 0x0 PUSH1 0x2 DUP3 DIV SWAP1 POP PUSH1 0x1 DUP3 AND DUP1 PUSH2 0x1974 JUMPI PUSH1 0x7F DUP3 AND SWAP2 POP JUMPDEST PUSH1 0x20 DUP3 LT DUP2 SUB PUSH2 0x1987 JUMPI PUSH2 0x1986 PUSH2 0x192D JUMP JUMPDEST JUMPDEST POP SWAP2 SWAP1 POP JUMP JUMPDEST PUSH32 0x546869732070726F706F73616C20646F6573206E6F74206578697374732E0000 PUSH1 0x0 DUP3 ADD MSTORE POP JUMP JUMPDEST PUSH1 0x0 PUSH2 0x19C3 PUSH1 0x1E DUP4 PUSH2 0x1680 JUMP JUMPDEST SWAP2 POP PUSH2 0x19CE DUP3 PUSH2 0x198D JUMP JUMPDEST PUSH1 0x20 DUP3 ADD SWAP1 POP SWAP2 SWAP1 POP JUMP JUMPDEST PUSH1 0x0 PUSH1 0x20 DUP3 ADD SWAP1 POP DUP2 DUP2 SUB PUSH1 0x0 DUP4 ADD MSTORE PUSH2 0x19F2 DUP2 PUSH2 0x19B6 JUMP JUMPDEST SWAP1 POP SWAP2 SWAP1 POP JUMP JUMPDEST PUSH2 0x1A02 DUP2 PUSH2 0x1380 JUMP JUMPDEST DUP3 MSTORE POP POP JUMP JUMPDEST PUSH1 0x0 PUSH1 0x40 DUP3 ADD SWAP1 POP PUSH2 0x1A1D PUSH1 0x0 DUP4 ADD DUP6 PUSH2 0x14C7 JUMP JUMPDEST PUSH2 0x1A2A PUSH1 0x20 DUP4 ADD DUP5 PUSH2 0x19F9 JUMP JUMPDEST SWAP4 SWAP3 POP POP POP JUMP JUMPDEST PUSH32 0x596F75206D757374206265207265676973746572656420746F206D616B652061 PUSH1 0x0 DUP3 ADD MSTORE PUSH32 0x2070726F706F73616C2E00000000000000000000000000000000000000000000 PUSH1 0x20 DUP3 ADD MSTORE POP JUMP JUMPDEST PUSH1 0x0 PUSH2 0x1A8D PUSH1 0x2A DUP4 PUSH2 0x1680 JUMP JUMPDEST SWAP2 POP PUSH2 0x1A98 DUP3 PUSH2 0x1A31 JUMP JUMPDEST PUSH1 0x40 DUP3 ADD SWAP1 POP SWAP2 SWAP1 POP JUMP JUMPDEST PUSH1 0x0 PUSH1 0x20 DUP3 ADD SWAP1 POP DUP2 DUP2 SUB PUSH1 0x0 DUP4 ADD MSTORE PUSH2 0x1ABC DUP2 PUSH2 0x1A80 JUMP JUMPDEST SWAP1 POP SWAP2 SWAP1 POP JUMP JUMPDEST PUSH32 0x5468652070726F706F73616C2063616E6E6F7420626520656D7074792E000000 PUSH1 0x0 DUP3 ADD MSTORE POP JUMP JUMPDEST PUSH1 0x0 PUSH2 0x1AF9 PUSH1 0x1D DUP4 PUSH2 0x1680 JUMP JUMPDEST SWAP2 POP PUSH2 0x1B04 DUP3 PUSH2 0x1AC3 JUMP JUMPDEST PUSH1 0x20 DUP3 ADD SWAP1 POP SWAP2 SWAP1 POP JUMP JUMPDEST PUSH1 0x0 PUSH1 0x20 DUP3 ADD SWAP1 POP DUP2 DUP2 SUB PUSH1 0x0 DUP4 ADD MSTORE PUSH2 0x1B28 DUP2 PUSH2 0x1AEC JUMP JUMPDEST SWAP1 POP SWAP2 SWAP1 POP JUMP JUMPDEST PUSH32 0x4E487B7100000000000000000000000000000000000000000000000000000000 PUSH1 0x0 MSTORE PUSH1 0x11 PUSH1 0x4 MSTORE PUSH1 0x24 PUSH1 0x0 REVERT JUMPDEST PUSH1 0x0 PUSH2 0x1B69 DUP3 PUSH2 0x1380 JUMP JUMPDEST SWAP2 POP PUSH2 0x1B74 DUP4 PUSH2 0x1380 JUMP JUMPDEST SWAP3 POP DUP3 DUP3 LT ISZERO PUSH2 0x1B87 JUMPI PUSH2 0x1B86 PUSH2 0x1B2F JUMP JUMPDEST JUMPDEST DUP3 DUP3 SUB SWAP1 POP SWAP3 SWAP2 POP POP JUMP JUMPDEST PUSH1 0x0 PUSH1 0x20 DUP3 ADD SWAP1 POP PUSH2 0x1BA7 PUSH1 0x0 DUP4 ADD DUP5 PUSH2 0x19F9 JUMP JUMPDEST SWAP3 SWAP2 POP POP JUMP JUMPDEST PUSH32 0x4E656564206174206C656173742032207265676973746572656420766F746572 PUSH1 0x0 DUP3 ADD MSTORE PUSH32 0x7320746F20737461727420612070726F706F73616C2073657373696F6E2E0000 PUSH1 0x20 DUP3 ADD MSTORE POP JUMP JUMPDEST PUSH1 0x0 PUSH2 0x1C09 PUSH1 0x3E DUP4 PUSH2 0x1680 JUMP JUMPDEST SWAP2 POP PUSH2 0x1C14 DUP3 PUSH2 0x1BAD JUMP JUMPDEST PUSH1 0x40 DUP3 ADD SWAP1 POP SWAP2 SWAP1 POP JUMP JUMPDEST PUSH1 0x0 PUSH1 0x20 DUP3 ADD SWAP1 POP DUP2 DUP2 SUB PUSH1 0x0 DUP4 ADD MSTORE PUSH2 0x1C38 DUP2 PUSH2 0x1BFC JUMP JUMPDEST SWAP1 POP SWAP2 SWAP1 POP JUMP JUMPDEST PUSH32 0x54686520636F756E74206973206E6F74206F766572207965742E000000000000 PUSH1 0x0 DUP3 ADD MSTORE POP JUMP JUMPDEST PUSH1 0x0 PUSH2 0x1C75 PUSH1 0x1A DUP4 PUSH2 0x1680 JUMP JUMPDEST SWAP2 POP PUSH2 0x1C80 DUP3 PUSH2 0x1C3F JUMP JUMPDEST PUSH1 0x20 DUP3 ADD SWAP1 POP SWAP2 SWAP1 POP JUMP JUMPDEST PUSH1 0x0 PUSH1 0x20 DUP3 ADD SWAP1 POP DUP2 DUP2 SUB PUSH1 0x0 DUP4 ADD MSTORE PUSH2 0x1CA4 DUP2 PUSH2 0x1C68 JUMP JUMPDEST SWAP1 POP SWAP2 SWAP1 POP JUMP JUMPDEST PUSH32 0x546865207265676973746572696E6720766F74657273206973206E6F74206F70 PUSH1 0x0 DUP3 ADD MSTORE PUSH32 0x656E6564207965742E0000000000000000000000000000000000000000000000 PUSH1 0x20 DUP3 ADD MSTORE POP JUMP JUMPDEST PUSH1 0x0 PUSH2 0x1D07 PUSH1 0x29 DUP4 PUSH2 0x1680 JUMP JUMPDEST SWAP2 POP PUSH2 0x1D12 DUP3 PUSH2 0x1CAB JUMP JUMPDEST PUSH1 0x40 DUP3 ADD SWAP1 POP SWAP2 SWAP1 POP JUMP JUMPDEST PUSH1 0x0 PUSH1 0x20 DUP3 ADD SWAP1 POP DUP2 DUP2 SUB PUSH1 0x0 DUP4 ADD MSTORE PUSH2 0x1D36 DUP2 PUSH2 0x1CFA JUMP JUMPDEST SWAP1 POP SWAP2 SWAP1 POP JUMP JUMPDEST PUSH32 0x54686520766F74657220697320616C726561647920726567697374657265642E PUSH1 0x0 DUP3 ADD MSTORE POP JUMP JUMPDEST PUSH1 0x0 PUSH2 0x1D73 PUSH1 0x20 DUP4 PUSH2 0x1680 JUMP JUMPDEST SWAP2 POP PUSH2 0x1D7E DUP3 PUSH2 0x1D3D JUMP JUMPDEST PUSH1 0x20 DUP3 ADD SWAP1 POP SWAP2 SWAP1 POP JUMP JUMPDEST PUSH1 0x0 PUSH1 0x20 DUP3 ADD SWAP1 POP DUP2 DUP2 SUB PUSH1 0x0 DUP4 ADD MSTORE PUSH2 0x1DA2 DUP2 PUSH2 0x1D66 JUMP JUMPDEST SWAP1 POP SWAP2 SWAP1 POP JUMP JUMPDEST PUSH1 0x0 PUSH2 0x1DB4 DUP3 PUSH2 0x1380 JUMP JUMPDEST SWAP2 POP PUSH32 0xFFFFFFFFFFFFFFFFFFFFFFFFFFFFFFFFFFFFFFFFFFFFFFFFFFFFFFFFFFFFFFFF DUP3 SUB PUSH2 0x1DE6 JUMPI PUSH2 0x1DE5 PUSH2 0x1B2F JUMP JUMPDEST JUMPDEST PUSH1 0x1 DUP3 ADD SWAP1 POP SWAP2 SWAP1 POP JUMP JUMPDEST PUSH32 0x5468652070726F706F73616C20726567697374726174696F6E206973206E6F74 PUSH1 0x0 DUP3 ADD MSTORE PUSH32 0x20656E646564207965742E000000000000000000000000000000000000000000 PUSH1 0x20 DUP3 ADD MSTORE POP JUMP JUMPDEST PUSH1 0x0 PUSH2 0x1E4D PUSH1 0x2B DUP4 PUSH2 0x1680 JUMP JUMPDEST SWAP2 POP PUSH2 0x1E58 DUP3 PUSH2 0x1DF1 JUMP JUMPDEST PUSH1 0x40 DUP3 ADD SWAP1 POP SWAP2 SWAP1 POP JUMP JUMPDEST PUSH1 0x0 PUSH1 0x20 DUP3 ADD SWAP1 POP DUP2 DUP2 SUB PUSH1 0x0 DUP4 ADD MSTORE PUSH2 0x1E7C DUP2 PUSH2 0x1E40 JUMP JUMPDEST SWAP1 POP SWAP2 SWAP1 POP JUMP JUMPDEST PUSH32 0x4E656564206174206C656173742074776F2070726F706F73616C7320746F2073 PUSH1 0x0 DUP3 ADD MSTORE PUSH32 0x74617274206120766F74696E672073657373696F6E2E00000000000000000000 PUSH1 0x20 DUP3 ADD MSTORE POP JUMP JUMPDEST PUSH1 0x0 PUSH2 0x1EDF PUSH1 0x36 DUP4 PUSH2 0x1680 JUMP JUMPDEST SWAP2 POP PUSH2 0x1EEA DUP3 PUSH2 0x1E83 JUMP JUMPDEST PUSH1 0x40 DUP3 ADD SWAP1 POP SWAP2 SWAP1 POP JUMP JUMPDEST PUSH1 0x0 PUSH1 0x20 DUP3 ADD SWAP1 POP DUP2 DUP2 SUB PUSH1 0x0 DUP4 ADD MSTORE PUSH2 0x1F0E DUP2 PUSH2 0x1ED2 JUMP JUMPDEST SWAP1 POP SWAP2 SWAP1 POP JUMP JUMPDEST PUSH1 0x0 PUSH2 0x1F20 DUP3 PUSH2 0x1380 JUMP JUMPDEST SWAP2 POP PUSH2 0x1F2B DUP4 PUSH2 0x1380 JUMP JUMPDEST SWAP3 POP DUP3 PUSH32 0xFFFFFFFFFFFFFFFFFFFFFFFFFFFFFFFFFFFFFFFFFFFFFFFFFFFFFFFFFFFFFFFF SUB DUP3 GT ISZERO PUSH2 0x1F60 JUMPI PUSH2 0x1F5F PUSH2 0x1B2F JUMP JUMPDEST JUMPDEST DUP3 DUP3 ADD SWAP1 POP SWAP3 SWAP2 POP POP JUMP JUMPDEST PUSH32 0x4E656564206174206C65617374206F6E6520766F746520696E20612070726F70 PUSH1 0x0 DUP3 ADD MSTORE PUSH32 0x726F73616C20746F2073746F70206120766F74696E672073657373696F6E2E00 PUSH1 0x20 DUP3 ADD MSTORE POP JUMP JUMPDEST PUSH1 0x0 PUSH2 0x1FC7 PUSH1 0x3F DUP4 PUSH2 0x1680 JUMP JUMPDEST SWAP2 POP PUSH2 0x1FD2 DUP3 PUSH2 0x1F6B JUMP JUMPDEST PUSH1 0x40 DUP3 ADD SWAP1 POP SWAP2 SWAP1 POP JUMP JUMPDEST PUSH1 0x0 PUSH1 0x20 DUP3 ADD SWAP1 POP DUP2 DUP2 SUB PUSH1 0x0 DUP4 ADD MSTORE PUSH2 0x1FF6 DUP2 PUSH2 0x1FBA JUMP JUMPDEST SWAP1 POP SWAP2 SWAP1 POP JUMP JUMPDEST PUSH32 0x4F776E61626C653A206E6577206F776E657220697320746865207A65726F2061 PUSH1 0x0 DUP3 ADD MSTORE PUSH32 0x6464726573730000000000000000000000000000000000000000000000000000 PUSH1 0x20 DUP3 ADD MSTORE POP JUMP JUMPDEST PUSH1 0x0 PUSH2 0x2059 PUSH1 0x26 DUP4 PUSH2 0x1680 JUMP JUMPDEST SWAP2 POP PUSH2 0x2064 DUP3 PUSH2 0x1FFD JUMP JUMPDEST PUSH1 0x40 DUP3 ADD SWAP1 POP SWAP2 SWAP1 POP JUMP JUMPDEST PUSH1 0x0 PUSH1 0x20 DUP3 ADD SWAP1 POP DUP2 DUP2 SUB PUSH1 0x0 DUP4 ADD MSTORE PUSH2 0x2088 DUP2 PUSH2 0x204C JUMP JUMPDEST SWAP1 POP SWAP2 SWAP1 POP JUMP JUMPDEST PUSH32 0x4F776E61626C653A2063616C6C6572206973206E6F7420746865206F776E6572 PUSH1 0x0 DUP3 ADD MSTORE POP JUMP JUMPDEST PUSH1 0x0 PUSH2 0x20C5 PUSH1 0x20 DUP4 PUSH2 0x1680 JUMP JUMPDEST SWAP2 POP PUSH2 0x20D0 DUP3 PUSH2 0x208F JUMP JUMPDEST PUSH1 0x20 DUP3 ADD SWAP1 POP SWAP2 SWAP1 POP JUMP JUMPDEST PUSH1 0x0 PUSH1 0x20 DUP3 ADD SWAP1 POP DUP2 DUP2 SUB PUSH1 0x0 DUP4 ADD MSTORE PUSH2 0x20F4 DUP2 PUSH2 0x20B8 JUMP JUMPDEST SWAP1 POP SWAP2 SWAP1 POP JUMP INVALID LOG2 PUSH5 0x6970667358 0x22 SLT KECCAK256 EXP 0xD2 PUSH31 0xDF33CCD29046983140D904DE480F7DE1624D2A7E1780B75ED025926CE6473 PUSH16 0x6C634300080D00330000000000000000 "
				},
				"gasEstimates": {
					"creation": {
						"codeDepositCost": "1699400",
						"executionCost": "infinite",
						"totalCost": "infinite"
					},
					"external": {
						"adminAddRegistered(address)": "infinite",
						"adminStartProposalsSession()": "infinite",
						"adminStartVotingSession()": "infinite",
						"adminStopProposalsSession()": "infinite",
						"adminStopVotingSession()": "infinite",
						"adminTallyVotes()": "infinite",
						"getWinner()": "infinite",
						"owner()": "2633",
						"renounceOwnership()": "30465",
						"transferOwnership(address)": "30854",
						"voterAddProposal(string)": "infinite",
						"voterAddVote(uint256)": "infinite"
					}
				},
				"methodIdentifiers": {
					"adminAddRegistered(address)": "c145e3d5",
					"adminStartProposalsSession()": "7669d79e",
					"adminStartVotingSession()": "cf278c74",
					"adminStopProposalsSession()": "04456224",
					"adminStopVotingSession()": "d1337403",
					"adminTallyVotes()": "d83f235b",
					"getWinner()": "8e7ea5b2",
					"owner()": "8da5cb5b",
					"renounceOwnership()": "715018a6",
					"transferOwnership(address)": "f2fde38b",
					"voterAddProposal(string)": "5f39ff21",
					"voterAddVote(uint256)": "3b0ebff4"
				}
			},
			"storageLayout": {
				"storage": [
					{
						"astId": 482,
						"contract": "contracts/voting-system/voting.sol:voting",
						"label": "_owner",
						"offset": 0,
						"slot": "0",
						"type": "t_address"
					},
					{
						"astId": 6,
						"contract": "contracts/voting-system/voting.sol:voting",
						"label": "winningProposalId",
						"offset": 0,
						"slot": "1",
						"type": "t_uint256"
					},
					{
						"astId": 52,
						"contract": "contracts/voting-system/voting.sol:voting",
						"label": "voters",
						"offset": 0,
						"slot": "2",
						"type": "t_mapping(t_address,t_struct(Voter)42_storage)"
					},
					{
						"astId": 55,
						"contract": "contracts/voting-system/voting.sol:voting",
						"label": "_voterRegisteredCount",
						"offset": 0,
						"slot": "3",
						"type": "t_uint256"
					},
					{
						"astId": 59,
						"contract": "contracts/voting-system/voting.sol:voting",
						"label": "voterProposalIds",
						"offset": 0,
						"slot": "4",
						"type": "t_mapping(t_address,t_uint256)"
					},
					{
						"astId": 63,
						"contract": "contracts/voting-system/voting.sol:voting",
						"label": "voterProposals",
						"offset": 0,
						"slot": "5",
						"type": "t_array(t_struct(Proposal)47_storage)dyn_storage"
					},
					{
						"astId": 66,
						"contract": "contracts/voting-system/voting.sol:voting",
						"label": "_currentVotingSession",
						"offset": 0,
						"slot": "6",
						"type": "t_enum(WorkflowStatus)35"
					}
				],
				"types": {
					"t_address": {
						"encoding": "inplace",
						"label": "address",
						"numberOfBytes": "20"
					},
					"t_array(t_struct(Proposal)47_storage)dyn_storage": {
						"base": "t_struct(Proposal)47_storage",
						"encoding": "dynamic_array",
						"label": "struct voting.Proposal[]",
						"numberOfBytes": "32"
					},
					"t_bool": {
						"encoding": "inplace",
						"label": "bool",
						"numberOfBytes": "1"
					},
					"t_enum(WorkflowStatus)35": {
						"encoding": "inplace",
						"label": "enum voting.WorkflowStatus",
						"numberOfBytes": "1"
					},
					"t_mapping(t_address,t_struct(Voter)42_storage)": {
						"encoding": "mapping",
						"key": "t_address",
						"label": "mapping(address => struct voting.Voter)",
						"numberOfBytes": "32",
						"value": "t_struct(Voter)42_storage"
					},
					"t_mapping(t_address,t_uint256)": {
						"encoding": "mapping",
						"key": "t_address",
						"label": "mapping(address => uint256)",
						"numberOfBytes": "32",
						"value": "t_uint256"
					},
					"t_string_storage": {
						"encoding": "bytes",
						"label": "string",
						"numberOfBytes": "32"
					},
					"t_struct(Proposal)47_storage": {
						"encoding": "inplace",
						"label": "struct voting.Proposal",
						"members": [
							{
								"astId": 44,
								"contract": "contracts/voting-system/voting.sol:voting",
								"label": "description",
								"offset": 0,
								"slot": "0",
								"type": "t_string_storage"
							},
							{
								"astId": 46,
								"contract": "contracts/voting-system/voting.sol:voting",
								"label": "voteCount",
								"offset": 0,
								"slot": "1",
								"type": "t_uint256"
							}
						],
						"numberOfBytes": "64"
					},
					"t_struct(Voter)42_storage": {
						"encoding": "inplace",
						"label": "struct voting.Voter",
						"members": [
							{
								"astId": 37,
								"contract": "contracts/voting-system/voting.sol:voting",
								"label": "isRegistered",
								"offset": 0,
								"slot": "0",
								"type": "t_bool"
							},
							{
								"astId": 39,
								"contract": "contracts/voting-system/voting.sol:voting",
								"label": "hasVoted",
								"offset": 1,
								"slot": "0",
								"type": "t_bool"
							},
							{
								"astId": 41,
								"contract": "contracts/voting-system/voting.sol:voting",
								"label": "votedProposalId",
								"offset": 0,
								"slot": "1",
								"type": "t_uint256"
							}
						],
						"numberOfBytes": "64"
					},
					"t_uint256": {
						"encoding": "inplace",
						"label": "uint256",
						"numberOfBytes": "32"
					}
				}
			},
			"userdoc": {
				"kind": "user",
				"methods": {},
				"version": 1
			}
		}
	}
}