{
	"contracts/voting-system/voting.sol": {
		"voting": {
			"abi": [
				{
					"anonymous": false,
					"inputs": [
						{
							"indexed": true,
							"internalType": "address",
							"name": "previousOwner",
							"type": "address"
						},
						{
							"indexed": true,
							"internalType": "address",
							"name": "newOwner",
							"type": "address"
						}
					],
					"name": "OwnershipTransferred",
					"type": "event"
				},
				{
					"anonymous": false,
					"inputs": [
						{
							"indexed": false,
							"internalType": "uint256",
							"name": "proposalId",
							"type": "uint256"
						}
					],
					"name": "ProposalRegistered",
					"type": "event"
				},
				{
					"anonymous": false,
					"inputs": [
						{
							"indexed": false,
							"internalType": "address",
							"name": "voter",
							"type": "address"
						},
						{
							"indexed": false,
							"internalType": "uint256",
							"name": "proposalId",
							"type": "uint256"
						}
					],
					"name": "Voted",
					"type": "event"
				},
				{
					"anonymous": false,
					"inputs": [
						{
							"indexed": false,
							"internalType": "address",
							"name": "voterAddress",
							"type": "address"
						}
					],
					"name": "VoterRegistered",
					"type": "event"
				},
				{
					"anonymous": false,
					"inputs": [
						{
							"indexed": false,
							"internalType": "enum voting.WorkflowStatus",
							"name": "previousStatus",
							"type": "uint8"
						},
						{
							"indexed": false,
							"internalType": "enum voting.WorkflowStatus",
							"name": "newStatus",
							"type": "uint8"
						}
					],
					"name": "WorkflowStatusChange",
					"type": "event"
				},
				{
					"inputs": [],
					"name": "adminStartProposalsSession",
					"outputs": [],
					"stateMutability": "nonpayable",
					"type": "function"
				},
				{
					"inputs": [],
					"name": "adminStartVotingSession",
					"outputs": [],
					"stateMutability": "nonpayable",
					"type": "function"
				},
				{
					"inputs": [],
					"name": "adminStopProposalsSession",
					"outputs": [],
					"stateMutability": "nonpayable",
					"type": "function"
				},
				{
					"inputs": [
						{
							"internalType": "address",
							"name": "_addrVoter",
							"type": "address"
						}
					],
					"name": "adminWhitelist",
					"outputs": [],
					"stateMutability": "nonpayable",
					"type": "function"
				},
				{
					"inputs": [],
					"name": "getWinner",
					"outputs": [],
					"stateMutability": "nonpayable",
					"type": "function"
				},
				{
					"inputs": [],
					"name": "owner",
					"outputs": [
						{
							"internalType": "address",
							"name": "",
							"type": "address"
						}
					],
					"stateMutability": "view",
					"type": "function"
				},
				{
					"inputs": [],
					"name": "renounceOwnership",
					"outputs": [],
					"stateMutability": "nonpayable",
					"type": "function"
				},
				{
					"inputs": [
						{
							"internalType": "address",
							"name": "newOwner",
							"type": "address"
						}
					],
					"name": "transferOwnership",
					"outputs": [],
					"stateMutability": "nonpayable",
					"type": "function"
				},
				{
					"inputs": [
						{
							"internalType": "string",
							"name": "_description",
							"type": "string"
						}
					],
					"name": "voterAddProposal",
					"outputs": [],
					"stateMutability": "nonpayable",
					"type": "function"
				},
				{
					"inputs": [
						{
							"internalType": "uint256",
							"name": "_proposalId",
							"type": "uint256"
						}
					],
					"name": "voterAddVote",
					"outputs": [],
					"stateMutability": "nonpayable",
					"type": "function"
				}
			],
			"devdoc": {
				"kind": "dev",
				"methods": {
					"owner()": {
						"details": "Returns the address of the current owner."
					},
					"renounceOwnership()": {
						"details": "Leaves the contract without owner. It will not be possible to call `onlyOwner` functions anymore. Can only be called by the current owner. NOTE: Renouncing ownership will leave the contract without an owner, thereby removing any functionality that is only available to the owner."
					},
					"transferOwnership(address)": {
						"details": "Transfers ownership of the contract to a new account (`newOwner`). Can only be called by the current owner."
					}
				},
				"version": 1
			},
			"evm": {
				"assembly": "    /* \"contracts/voting-system/voting.sol\":169:4141  contract voting is Ownable{... */\n  mstore(0x40, 0x80)\n    /* \"contracts/voting-system/voting.sol\":988:989  0 */\n  0x00\n    /* \"contracts/voting-system/voting.sol\":950:989  uint private _voterWhitelistedCount = 0 */\n  0x02\n  sstore\n    /* \"contracts/voting-system/voting.sol\":169:4141  contract voting is Ownable{... */\n  callvalue\n  dup1\n  iszero\n  tag_1\n  jumpi\n  0x00\n  dup1\n  revert\ntag_1:\n  pop\n    /* \"https://github.com/OpenZeppelin/openzeppelin-contracts/blob/master/contracts/access/Ownable.sol\":936:968  _transferOwnership(_msgSender()) */\n  tag_4\n    /* \"https://github.com/OpenZeppelin/openzeppelin-contracts/blob/master/contracts/access/Ownable.sol\":955:967  _msgSender() */\n  tag_5\n    /* \"https://github.com/OpenZeppelin/openzeppelin-contracts/blob/master/contracts/access/Ownable.sol\":955:965  _msgSender */\n  shl(0x20, tag_6)\n    /* \"https://github.com/OpenZeppelin/openzeppelin-contracts/blob/master/contracts/access/Ownable.sol\":955:967  _msgSender() */\n  0x20\n  shr\n  jump\t// in\ntag_5:\n    /* \"https://github.com/OpenZeppelin/openzeppelin-contracts/blob/master/contracts/access/Ownable.sol\":936:954  _transferOwnership */\n  shl(0x20, tag_7)\n    /* \"https://github.com/OpenZeppelin/openzeppelin-contracts/blob/master/contracts/access/Ownable.sol\":936:968  _transferOwnership(_msgSender()) */\n  0x20\n  shr\n  jump\t// in\ntag_4:\n    /* \"contracts/voting-system/voting.sol\":169:4141  contract voting is Ownable{... */\n  jump(tag_8)\n    /* \"https://github.com/OpenZeppelin/openzeppelin-contracts/blob/master/contracts/utils/Context.sol\":640:736  function _msgSender() internal view virtual returns (address) {... */\ntag_6:\n    /* \"https://github.com/OpenZeppelin/openzeppelin-contracts/blob/master/contracts/utils/Context.sol\":693:700  address */\n  0x00\n    /* \"https://github.com/OpenZeppelin/openzeppelin-contracts/blob/master/contracts/utils/Context.sol\":719:729  msg.sender */\n  caller\n    /* \"https://github.com/OpenZeppelin/openzeppelin-contracts/blob/master/contracts/utils/Context.sol\":712:729  return msg.sender */\n  swap1\n  pop\n    /* \"https://github.com/OpenZeppelin/openzeppelin-contracts/blob/master/contracts/utils/Context.sol\":640:736  function _msgSender() internal view virtual returns (address) {... */\n  swap1\n  jump\t// out\n    /* \"https://github.com/OpenZeppelin/openzeppelin-contracts/blob/master/contracts/access/Ownable.sol\":2433:2620  function _transferOwnership(address newOwner) internal virtual {... */\ntag_7:\n    /* \"https://github.com/OpenZeppelin/openzeppelin-contracts/blob/master/contracts/access/Ownable.sol\":2506:2522  address oldOwner */\n  0x00\n    /* \"https://github.com/OpenZeppelin/openzeppelin-contracts/blob/master/contracts/access/Ownable.sol\":2525:2531  _owner */\n  dup1\n  0x00\n  swap1\n  sload\n  swap1\n  0x0100\n  exp\n  swap1\n  div\n  0xffffffffffffffffffffffffffffffffffffffff\n  and\n    /* \"https://github.com/OpenZeppelin/openzeppelin-contracts/blob/master/contracts/access/Ownable.sol\":2506:2531  address oldOwner = _owner */\n  swap1\n  pop\n    /* \"https://github.com/OpenZeppelin/openzeppelin-contracts/blob/master/contracts/access/Ownable.sol\":2550:2558  newOwner */\n  dup2\n    /* \"https://github.com/OpenZeppelin/openzeppelin-contracts/blob/master/contracts/access/Ownable.sol\":2541:2547  _owner */\n  0x00\n  dup1\n    /* \"https://github.com/OpenZeppelin/openzeppelin-contracts/blob/master/contracts/access/Ownable.sol\":2541:2558  _owner = newOwner */\n  0x0100\n  exp\n  dup2\n  sload\n  dup2\n  0xffffffffffffffffffffffffffffffffffffffff\n  mul\n  not\n  and\n  swap1\n  dup4\n  0xffffffffffffffffffffffffffffffffffffffff\n  and\n  mul\n  or\n  swap1\n  sstore\n  pop\n    /* \"https://github.com/OpenZeppelin/openzeppelin-contracts/blob/master/contracts/access/Ownable.sol\":2604:2612  newOwner */\n  dup2\n    /* \"https://github.com/OpenZeppelin/openzeppelin-contracts/blob/master/contracts/access/Ownable.sol\":2573:2613  OwnershipTransferred(oldOwner, newOwner) */\n  0xffffffffffffffffffffffffffffffffffffffff\n  and\n    /* \"https://github.com/OpenZeppelin/openzeppelin-contracts/blob/master/contracts/access/Ownable.sol\":2594:2602  oldOwner */\n  dup2\n    /* \"https://github.com/OpenZeppelin/openzeppelin-contracts/blob/master/contracts/access/Ownable.sol\":2573:2613  OwnershipTransferred(oldOwner, newOwner) */\n  0xffffffffffffffffffffffffffffffffffffffff\n  and\n  0x8be0079c531659141344cd1fd0a4f28419497f9722a3daafe3b4186f6b6457e0\n  mload(0x40)\n  mload(0x40)\n  dup1\n  swap2\n  sub\n  swap1\n  log3\n    /* \"https://github.com/OpenZeppelin/openzeppelin-contracts/blob/master/contracts/access/Ownable.sol\":2496:2620  {... */\n  pop\n    /* \"https://github.com/OpenZeppelin/openzeppelin-contracts/blob/master/contracts/access/Ownable.sol\":2433:2620  function _transferOwnership(address newOwner) internal virtual {... */\n  pop\n  jump\t// out\n    /* \"contracts/voting-system/voting.sol\":169:4141  contract voting is Ownable{... */\ntag_8:\n  dataSize(sub_0)\n  dup1\n  dataOffset(sub_0)\n  0x00\n  codecopy\n  0x00\n  return\nstop\n\nsub_0: assembly {\n        /* \"contracts/voting-system/voting.sol\":169:4141  contract voting is Ownable{... */\n      mstore(0x40, 0x80)\n      callvalue\n      dup1\n      iszero\n      tag_1\n      jumpi\n      0x00\n      dup1\n      revert\n    tag_1:\n      pop\n      jumpi(tag_2, lt(calldatasize, 0x04))\n      shr(0xe0, calldataload(0x00))\n      dup1\n      0x7669d79e\n      gt\n      tag_13\n      jumpi\n      dup1\n      0x7669d79e\n      eq\n      tag_8\n      jumpi\n      dup1\n      0x8da5cb5b\n      eq\n      tag_9\n      jumpi\n      dup1\n      0x8e7ea5b2\n      eq\n      tag_10\n      jumpi\n      dup1\n      0xcf278c74\n      eq\n      tag_11\n      jumpi\n      dup1\n      0xf2fde38b\n      eq\n      tag_12\n      jumpi\n      jump(tag_2)\n    tag_13:\n      dup1\n      0x04456224\n      eq\n      tag_3\n      jumpi\n      dup1\n      0x3b0ebff4\n      eq\n      tag_4\n      jumpi\n      dup1\n      0x43e20a1d\n      eq\n      tag_5\n      jumpi\n      dup1\n      0x5f39ff21\n      eq\n      tag_6\n      jumpi\n      dup1\n      0x715018a6\n      eq\n      tag_7\n      jumpi\n    tag_2:\n      0x00\n      dup1\n      revert\n        /* \"contracts/voting-system/voting.sol\":1905:2449  function adminStopProposalsSession() external onlyOwner{... */\n    tag_3:\n      tag_14\n      tag_15\n      jump\t// in\n    tag_14:\n      stop\n        /* \"contracts/voting-system/voting.sol\":3523:4084  function voterAddVote(uint _proposalId) external{... */\n    tag_4:\n      tag_16\n      0x04\n      dup1\n      calldatasize\n      sub\n      dup2\n      add\n      swap1\n      tag_17\n      swap2\n      swap1\n      tag_18\n      jump\t// in\n    tag_17:\n      tag_19\n      jump\t// in\n    tag_16:\n      stop\n        /* \"contracts/voting-system/voting.sol\":1137:1490  function adminWhitelist(address _addrVoter) external onlyOwner{... */\n    tag_5:\n      tag_20\n      0x04\n      dup1\n      calldatasize\n      sub\n      dup2\n      add\n      swap1\n      tag_21\n      swap2\n      swap1\n      tag_22\n      jump\t// in\n    tag_21:\n      tag_23\n      jump\t// in\n    tag_20:\n      stop\n        /* \"contracts/voting-system/voting.sol\":2848:3515  function voterAddProposal(string calldata _description) external {... */\n    tag_6:\n      tag_24\n      0x04\n      dup1\n      calldatasize\n      sub\n      dup2\n      add\n      swap1\n      tag_25\n      swap2\n      swap1\n      tag_26\n      jump\t// in\n    tag_25:\n      tag_27\n      jump\t// in\n    tag_24:\n      stop\n        /* \"https://github.com/OpenZeppelin/openzeppelin-contracts/blob/master/contracts/access/Ownable.sol\":1831:1932  function renounceOwnership() public virtual onlyOwner {... */\n    tag_7:\n      tag_28\n      tag_29\n      jump\t// in\n    tag_28:\n      stop\n        /* \"contracts/voting-system/voting.sol\":1498:1897  function adminStartProposalsSession() external onlyOwner{... */\n    tag_8:\n      tag_30\n      tag_31\n      jump\t// in\n    tag_30:\n      stop\n        /* \"https://github.com/OpenZeppelin/openzeppelin-contracts/blob/master/contracts/access/Ownable.sol\":1201:1286  function owner() public view virtual returns (address) {... */\n    tag_9:\n      tag_32\n      tag_33\n      jump\t// in\n    tag_32:\n      mload(0x40)\n      tag_34\n      swap2\n      swap1\n      tag_35\n      jump\t// in\n    tag_34:\n      mload(0x40)\n      dup1\n      swap2\n      sub\n      swap1\n      return\n        /* \"contracts/voting-system/voting.sol\":4100:4138  function getWinner() public {... */\n    tag_10:\n      tag_36\n      tag_37\n      jump\t// in\n    tag_36:\n      stop\n        /* \"contracts/voting-system/voting.sol\":2457:2834  function adminStartVotingSession() external onlyOwner{... */\n    tag_11:\n      tag_38\n      tag_39\n      jump\t// in\n    tag_38:\n      stop\n        /* \"https://github.com/OpenZeppelin/openzeppelin-contracts/blob/master/contracts/access/Ownable.sol\":2081:2279  function transferOwnership(address newOwner) public virtual onlyOwner {... */\n    tag_12:\n      tag_40\n      0x04\n      dup1\n      calldatasize\n      sub\n      dup2\n      add\n      swap1\n      tag_41\n      swap2\n      swap1\n      tag_22\n      jump\t// in\n    tag_41:\n      tag_42\n      jump\t// in\n    tag_40:\n      stop\n        /* \"contracts/voting-system/voting.sol\":1905:2449  function adminStopProposalsSession() external onlyOwner{... */\n    tag_15:\n        /* \"https://github.com/OpenZeppelin/openzeppelin-contracts/blob/master/contracts/access/Ownable.sol\":1094:1107  _checkOwner() */\n      tag_44\n        /* \"https://github.com/OpenZeppelin/openzeppelin-contracts/blob/master/contracts/access/Ownable.sol\":1094:1105  _checkOwner */\n      tag_45\n        /* \"https://github.com/OpenZeppelin/openzeppelin-contracts/blob/master/contracts/access/Ownable.sol\":1094:1107  _checkOwner() */\n      jump\t// in\n    tag_44:\n        /* \"contracts/voting-system/voting.sol\":2121:2164  WorkflowStatus.ProposalsRegistrationStarted */\n      0x01\n        /* \"contracts/voting-system/voting.sol\":2096:2164  _currentVotingSession == WorkflowStatus.ProposalsRegistrationStarted */\n      0x05\n      dup2\n      gt\n      iszero\n      tag_47\n      jumpi\n      tag_48\n      tag_49\n      jump\t// in\n    tag_48:\n    tag_47:\n        /* \"contracts/voting-system/voting.sol\":2096:2117  _currentVotingSession */\n      0x05\n      0x00\n      swap1\n      sload\n      swap1\n      0x0100\n      exp\n      swap1\n      div\n      0xff\n      and\n        /* \"contracts/voting-system/voting.sol\":2096:2164  _currentVotingSession == WorkflowStatus.ProposalsRegistrationStarted */\n      0x05\n      dup2\n      gt\n      iszero\n      tag_50\n      jumpi\n      tag_51\n      tag_49\n      jump\t// in\n    tag_51:\n    tag_50:\n      eq\n        /* \"contracts/voting-system/voting.sol\":2088:2214  require(_currentVotingSession == WorkflowStatus.ProposalsRegistrationStarted, \"The proposal registration is not started yet.\") */\n      tag_52\n      jumpi\n      mload(0x40)\n      0x08c379a000000000000000000000000000000000000000000000000000000000\n      dup2\n      mstore\n      0x04\n      add\n      tag_53\n      swap1\n      tag_54\n      jump\t// in\n    tag_53:\n      mload(0x40)\n      dup1\n      swap2\n      sub\n      swap1\n      revert\n    tag_52:\n        /* \"contracts/voting-system/voting.sol\":2227:2256  WorkflowStatus previousStatus */\n      0x00\n        /* \"contracts/voting-system/voting.sol\":2259:2280  _currentVotingSession */\n      0x05\n      0x00\n      swap1\n      sload\n      swap1\n      0x0100\n      exp\n      swap1\n      div\n      0xff\n      and\n        /* \"contracts/voting-system/voting.sol\":2227:2280  WorkflowStatus previousStatus = _currentVotingSession */\n      swap1\n      pop\n        /* \"contracts/voting-system/voting.sol\":2323:2364  WorkflowStatus.ProposalsRegistrationEnded */\n      0x02\n        /* \"contracts/voting-system/voting.sol\":2299:2320  _currentVotingSession */\n      0x05\n      0x00\n        /* \"contracts/voting-system/voting.sol\":2299:2364  _currentVotingSession = WorkflowStatus.ProposalsRegistrationEnded */\n      0x0100\n      exp\n      dup2\n      sload\n      dup2\n      0xff\n      mul\n      not\n      and\n      swap1\n      dup4\n      0x05\n      dup2\n      gt\n      iszero\n      tag_55\n      jumpi\n      tag_56\n      tag_49\n      jump\t// in\n    tag_56:\n    tag_55:\n      mul\n      or\n      swap1\n      sstore\n      pop\n        /* \"contracts/voting-system/voting.sol\":2382:2441  WorkflowStatusChange(previousStatus, _currentVotingSession) */\n      0x0a97a4ee45751e2abf3e4fc8946939630b11b371ea8ae39ccdc3056e98f5cc3f\n        /* \"contracts/voting-system/voting.sol\":2403:2417  previousStatus */\n      dup2\n        /* \"contracts/voting-system/voting.sol\":2419:2440  _currentVotingSession */\n      0x05\n      0x00\n      swap1\n      sload\n      swap1\n      0x0100\n      exp\n      swap1\n      div\n      0xff\n      and\n        /* \"contracts/voting-system/voting.sol\":2382:2441  WorkflowStatusChange(previousStatus, _currentVotingSession) */\n      mload(0x40)\n      tag_57\n      swap3\n      swap2\n      swap1\n      tag_58\n      jump\t// in\n    tag_57:\n      mload(0x40)\n      dup1\n      swap2\n      sub\n      swap1\n      log1\n        /* \"contracts/voting-system/voting.sol\":1960:2449  {... */\n      pop\n        /* \"contracts/voting-system/voting.sol\":1905:2449  function adminStopProposalsSession() external onlyOwner{... */\n      jump\t// out\n        /* \"contracts/voting-system/voting.sol\":3523:4084  function voterAddVote(uint _proposalId) external{... */\n    tag_19:\n        /* \"contracts/voting-system/voting.sol\":3617:3652  WorkflowStatus.VotingSessionStarted */\n      0x03\n        /* \"contracts/voting-system/voting.sol\":3592:3652  _currentVotingSession == WorkflowStatus.VotingSessionStarted */\n      0x05\n      dup2\n      gt\n      iszero\n      tag_60\n      jumpi\n      tag_61\n      tag_49\n      jump\t// in\n    tag_61:\n    tag_60:\n        /* \"contracts/voting-system/voting.sol\":3592:3613  _currentVotingSession */\n      0x05\n      0x00\n      swap1\n      sload\n      swap1\n      0x0100\n      exp\n      swap1\n      div\n      0xff\n      and\n        /* \"contracts/voting-system/voting.sol\":3592:3652  _currentVotingSession == WorkflowStatus.VotingSessionStarted */\n      0x05\n      dup2\n      gt\n      iszero\n      tag_62\n      jumpi\n      tag_63\n      tag_49\n      jump\t// in\n    tag_63:\n    tag_62:\n      eq\n        /* \"contracts/voting-system/voting.sol\":3584:3695  require(_currentVotingSession == WorkflowStatus.VotingSessionStarted, \"The voting session is not started yet.\") */\n      tag_64\n      jumpi\n      mload(0x40)\n      0x08c379a000000000000000000000000000000000000000000000000000000000\n      dup2\n      mstore\n      0x04\n      add\n      tag_65\n      swap1\n      tag_66\n      jump\t// in\n    tag_65:\n      mload(0x40)\n      dup1\n      swap2\n      sub\n      swap1\n      revert\n    tag_64:\n        /* \"contracts/voting-system/voting.sol\":3714:3720  voters */\n      0x01\n        /* \"contracts/voting-system/voting.sol\":3714:3732  voters[msg.sender] */\n      0x00\n        /* \"contracts/voting-system/voting.sol\":3721:3731  msg.sender */\n      caller\n        /* \"contracts/voting-system/voting.sol\":3714:3732  voters[msg.sender] */\n      0xffffffffffffffffffffffffffffffffffffffff\n      and\n      0xffffffffffffffffffffffffffffffffffffffff\n      and\n      dup2\n      mstore\n      0x20\n      add\n      swap1\n      dup2\n      mstore\n      0x20\n      add\n      0x00\n      keccak256\n        /* \"contracts/voting-system/voting.sol\":3714:3745  voters[msg.sender].isRegistered */\n      0x00\n      add\n      0x00\n      swap1\n      sload\n      swap1\n      0x0100\n      exp\n      swap1\n      div\n      0xff\n      and\n        /* \"contracts/voting-system/voting.sol\":3706:3782  require(voters[msg.sender].isRegistered, \"You must be whitelisted to vote.\") */\n      tag_67\n      jumpi\n      mload(0x40)\n      0x08c379a000000000000000000000000000000000000000000000000000000000\n      dup2\n      mstore\n      0x04\n      add\n      tag_68\n      swap1\n      tag_69\n      jump\t// in\n    tag_68:\n      mload(0x40)\n      dup1\n      swap2\n      sub\n      swap1\n      revert\n    tag_67:\n        /* \"contracts/voting-system/voting.sol\":3801:3807  voters */\n      0x01\n        /* \"contracts/voting-system/voting.sol\":3801:3819  voters[msg.sender] */\n      0x00\n        /* \"contracts/voting-system/voting.sol\":3808:3818  msg.sender */\n      caller\n        /* \"contracts/voting-system/voting.sol\":3801:3819  voters[msg.sender] */\n      0xffffffffffffffffffffffffffffffffffffffff\n      and\n      0xffffffffffffffffffffffffffffffffffffffff\n      and\n      dup2\n      mstore\n      0x20\n      add\n      swap1\n      dup2\n      mstore\n      0x20\n      add\n      0x00\n      keccak256\n        /* \"contracts/voting-system/voting.sol\":3801:3828  voters[msg.sender].hasVoted */\n      0x00\n      add\n      0x01\n      swap1\n      sload\n      swap1\n      0x0100\n      exp\n      swap1\n      div\n      0xff\n      and\n        /* \"contracts/voting-system/voting.sol\":3793:3851  require(voters[msg.sender].hasVoted, \"You already voted.\") */\n      tag_70\n      jumpi\n      mload(0x40)\n      0x08c379a000000000000000000000000000000000000000000000000000000000\n      dup2\n      mstore\n      0x04\n      add\n      tag_71\n      swap1\n      tag_72\n      jump\t// in\n    tag_71:\n      mload(0x40)\n      dup1\n      swap2\n      sub\n      swap1\n      revert\n    tag_70:\n        /* \"contracts/voting-system/voting.sol\":3926:3927  0 */\n      0x00\n        /* \"contracts/voting-system/voting.sol\":3876:3890  voterProposals */\n      0x04\n        /* \"contracts/voting-system/voting.sol\":3891:3902  _proposalId */\n      dup3\n        /* \"contracts/voting-system/voting.sol\":3876:3903  voterProposals[_proposalId] */\n      dup2\n      sload\n      dup2\n      lt\n      tag_73\n      jumpi\n      tag_74\n      tag_75\n      jump\t// in\n    tag_74:\n    tag_73:\n      swap1\n      0x00\n      mstore\n      keccak256(0x00, 0x20)\n      swap1\n      0x02\n      mul\n      add\n        /* \"contracts/voting-system/voting.sol\":3876:3915  voterProposals[_proposalId].description */\n      0x00\n      add\n        /* \"contracts/voting-system/voting.sol\":3870:3923  bytes(voterProposals[_proposalId].description).length */\n      dup1\n      sload\n      tag_77\n      swap1\n      tag_78\n      jump\t// in\n    tag_77:\n      swap1\n      pop\n        /* \"contracts/voting-system/voting.sol\":3870:3927  bytes(voterProposals[_proposalId].description).length > 0 */\n      gt\n        /* \"contracts/voting-system/voting.sol\":3862:3962  require(bytes(voterProposals[_proposalId].description).length > 0, \"This proposal does not exists.\") */\n      tag_79\n      jumpi\n      mload(0x40)\n      0x08c379a000000000000000000000000000000000000000000000000000000000\n      dup2\n      mstore\n      0x04\n      add\n      tag_80\n      swap1\n      tag_81\n      jump\t// in\n    tag_80:\n      mload(0x40)\n      dup1\n      swap2\n      sub\n      swap1\n      revert\n    tag_79:\n        /* \"contracts/voting-system/voting.sol\":4020:4031  _proposalId */\n      dup1\n        /* \"contracts/voting-system/voting.sol\":3983:3989  voters */\n      0x01\n        /* \"contracts/voting-system/voting.sol\":3983:4001  voters[msg.sender] */\n      0x00\n        /* \"contracts/voting-system/voting.sol\":3990:4000  msg.sender */\n      caller\n        /* \"contracts/voting-system/voting.sol\":3983:4001  voters[msg.sender] */\n      0xffffffffffffffffffffffffffffffffffffffff\n      and\n      0xffffffffffffffffffffffffffffffffffffffff\n      and\n      dup2\n      mstore\n      0x20\n      add\n      swap1\n      dup2\n      mstore\n      0x20\n      add\n      0x00\n      keccak256\n        /* \"contracts/voting-system/voting.sol\":3983:4017  voters[msg.sender].votedProposalId */\n      0x01\n      add\n        /* \"contracts/voting-system/voting.sol\":3983:4031  voters[msg.sender].votedProposalId = _proposalId */\n      dup2\n      swap1\n      sstore\n      pop\n        /* \"contracts/voting-system/voting.sol\":4072:4076  true */\n      0x01\n        /* \"contracts/voting-system/voting.sol\":4042:4048  voters */\n      dup1\n        /* \"contracts/voting-system/voting.sol\":4042:4060  voters[msg.sender] */\n      0x00\n        /* \"contracts/voting-system/voting.sol\":4049:4059  msg.sender */\n      caller\n        /* \"contracts/voting-system/voting.sol\":4042:4060  voters[msg.sender] */\n      0xffffffffffffffffffffffffffffffffffffffff\n      and\n      0xffffffffffffffffffffffffffffffffffffffff\n      and\n      dup2\n      mstore\n      0x20\n      add\n      swap1\n      dup2\n      mstore\n      0x20\n      add\n      0x00\n      keccak256\n        /* \"contracts/voting-system/voting.sol\":4042:4069  voters[msg.sender].hasVoted */\n      0x00\n      add\n      0x01\n        /* \"contracts/voting-system/voting.sol\":4042:4076  voters[msg.sender].hasVoted = true */\n      0x0100\n      exp\n      dup2\n      sload\n      dup2\n      0xff\n      mul\n      not\n      and\n      swap1\n      dup4\n      iszero\n      iszero\n      mul\n      or\n      swap1\n      sstore\n      pop\n        /* \"contracts/voting-system/voting.sol\":3523:4084  function voterAddVote(uint _proposalId) external{... */\n      pop\n      jump\t// out\n        /* \"contracts/voting-system/voting.sol\":1137:1490  function adminWhitelist(address _addrVoter) external onlyOwner{... */\n    tag_23:\n        /* \"https://github.com/OpenZeppelin/openzeppelin-contracts/blob/master/contracts/access/Ownable.sol\":1094:1107  _checkOwner() */\n      tag_83\n        /* \"https://github.com/OpenZeppelin/openzeppelin-contracts/blob/master/contracts/access/Ownable.sol\":1094:1105  _checkOwner */\n      tag_45\n        /* \"https://github.com/OpenZeppelin/openzeppelin-contracts/blob/master/contracts/access/Ownable.sol\":1094:1107  _checkOwner() */\n      jump\t// in\n    tag_83:\n        /* \"contracts/voting-system/voting.sol\":1270:1276  voters */\n      0x01\n        /* \"contracts/voting-system/voting.sol\":1270:1288  voters[_addrVoter] */\n      0x00\n        /* \"contracts/voting-system/voting.sol\":1277:1287  _addrVoter */\n      dup3\n        /* \"contracts/voting-system/voting.sol\":1270:1288  voters[_addrVoter] */\n      0xffffffffffffffffffffffffffffffffffffffff\n      and\n      0xffffffffffffffffffffffffffffffffffffffff\n      and\n      dup2\n      mstore\n      0x20\n      add\n      swap1\n      dup2\n      mstore\n      0x20\n      add\n      0x00\n      keccak256\n        /* \"contracts/voting-system/voting.sol\":1270:1301  voters[_addrVoter].isRegistered */\n      0x00\n      add\n      0x00\n      swap1\n      sload\n      swap1\n      0x0100\n      exp\n      swap1\n      div\n      0xff\n      and\n        /* \"contracts/voting-system/voting.sol\":1269:1301  !voters[_addrVoter].isRegistered */\n      iszero\n        /* \"contracts/voting-system/voting.sol\":1261:1339  require(!voters[_addrVoter].isRegistered, \"The voter is already whitelisted.\") */\n      tag_85\n      jumpi\n      mload(0x40)\n      0x08c379a000000000000000000000000000000000000000000000000000000000\n      dup2\n      mstore\n      0x04\n      add\n      tag_86\n      swap1\n      tag_87\n      jump\t// in\n    tag_86:\n      mload(0x40)\n      dup1\n      swap2\n      sub\n      swap1\n      revert\n    tag_85:\n        /* \"contracts/voting-system/voting.sol\":1381:1402  Voter(true, false, 0) */\n      mload(0x40)\n      dup1\n      0x60\n      add\n      0x40\n      mstore\n      dup1\n        /* \"contracts/voting-system/voting.sol\":1387:1391  true */\n      0x01\n        /* \"contracts/voting-system/voting.sol\":1381:1402  Voter(true, false, 0) */\n      iszero\n      iszero\n      dup2\n      mstore\n      0x20\n      add\n        /* \"contracts/voting-system/voting.sol\":1393:1398  false */\n      0x00\n        /* \"contracts/voting-system/voting.sol\":1381:1402  Voter(true, false, 0) */\n      iszero\n      iszero\n      dup2\n      mstore\n      0x20\n      add\n        /* \"contracts/voting-system/voting.sol\":1400:1401  0 */\n      0x00\n        /* \"contracts/voting-system/voting.sol\":1381:1402  Voter(true, false, 0) */\n      dup2\n      mstore\n      pop\n        /* \"contracts/voting-system/voting.sol\":1360:1366  voters */\n      0x01\n        /* \"contracts/voting-system/voting.sol\":1360:1378  voters[_addrVoter] */\n      0x00\n        /* \"contracts/voting-system/voting.sol\":1367:1377  _addrVoter */\n      dup4\n        /* \"contracts/voting-system/voting.sol\":1360:1378  voters[_addrVoter] */\n      0xffffffffffffffffffffffffffffffffffffffff\n      and\n      0xffffffffffffffffffffffffffffffffffffffff\n      and\n      dup2\n      mstore\n      0x20\n      add\n      swap1\n      dup2\n      mstore\n      0x20\n      add\n      0x00\n      keccak256\n        /* \"contracts/voting-system/voting.sol\":1360:1402  voters[_addrVoter] = Voter(true, false, 0) */\n      0x00\n      dup3\n      add\n      mload\n      dup2\n      0x00\n      add\n      exp(0x0100, 0x00)\n      dup2\n      sload\n      dup2\n      0xff\n      mul\n      not\n      and\n      swap1\n      dup4\n      iszero\n      iszero\n      mul\n      or\n      swap1\n      sstore\n      pop\n      0x20\n      dup3\n      add\n      mload\n      dup2\n      0x00\n      add\n      exp(0x0100, 0x01)\n      dup2\n      sload\n      dup2\n      0xff\n      mul\n      not\n      and\n      swap1\n      dup4\n      iszero\n      iszero\n      mul\n      or\n      swap1\n      sstore\n      pop\n      0x40\n      dup3\n      add\n      mload\n      dup2\n      0x01\n      add\n      sstore\n      swap1\n      pop\n      pop\n        /* \"contracts/voting-system/voting.sol\":1413:1435  _voterWhitelistedCount */\n      0x02\n      0x00\n        /* \"contracts/voting-system/voting.sol\":1413:1437  _voterWhitelistedCount++ */\n      dup2\n      sload\n      dup1\n      swap3\n      swap2\n      swap1\n      tag_88\n      swap1\n      tag_89\n      jump\t// in\n    tag_88:\n      swap2\n      swap1\n      pop\n      sstore\n      pop\n        /* \"contracts/voting-system/voting.sol\":1455:1482  VoterRegistered(_addrVoter) */\n      0xb6be2187d059cc2a55fe29e0e503b566e1e0f8c8780096e185429350acffd3dd\n        /* \"contracts/voting-system/voting.sol\":1471:1481  _addrVoter */\n      dup2\n        /* \"contracts/voting-system/voting.sol\":1455:1482  VoterRegistered(_addrVoter) */\n      mload(0x40)\n      tag_90\n      swap2\n      swap1\n      tag_35\n      jump\t// in\n    tag_90:\n      mload(0x40)\n      dup1\n      swap2\n      sub\n      swap1\n      log1\n        /* \"contracts/voting-system/voting.sol\":1137:1490  function adminWhitelist(address _addrVoter) external onlyOwner{... */\n      pop\n      jump\t// out\n        /* \"contracts/voting-system/voting.sol\":2848:3515  function voterAddProposal(string calldata _description) external {... */\n    tag_27:\n        /* \"contracts/voting-system/voting.sol\":2967:3010  WorkflowStatus.ProposalsRegistrationStarted */\n      0x01\n        /* \"contracts/voting-system/voting.sol\":2942:3010  _currentVotingSession == WorkflowStatus.ProposalsRegistrationStarted */\n      0x05\n      dup2\n      gt\n      iszero\n      tag_92\n      jumpi\n      tag_93\n      tag_49\n      jump\t// in\n    tag_93:\n    tag_92:\n        /* \"contracts/voting-system/voting.sol\":2942:2963  _currentVotingSession */\n      0x05\n      0x00\n      swap1\n      sload\n      swap1\n      0x0100\n      exp\n      swap1\n      div\n      0xff\n      and\n        /* \"contracts/voting-system/voting.sol\":2942:3010  _currentVotingSession == WorkflowStatus.ProposalsRegistrationStarted */\n      0x05\n      dup2\n      gt\n      iszero\n      tag_94\n      jumpi\n      tag_95\n      tag_49\n      jump\t// in\n    tag_95:\n    tag_94:\n      eq\n        /* \"contracts/voting-system/voting.sol\":2934:3060  require(_currentVotingSession == WorkflowStatus.ProposalsRegistrationStarted, \"The proposal registration is not started yet.\") */\n      tag_96\n      jumpi\n      mload(0x40)\n      0x08c379a000000000000000000000000000000000000000000000000000000000\n      dup2\n      mstore\n      0x04\n      add\n      tag_97\n      swap1\n      tag_54\n      jump\t// in\n    tag_97:\n      mload(0x40)\n      dup1\n      swap2\n      sub\n      swap1\n      revert\n    tag_96:\n        /* \"contracts/voting-system/voting.sol\":3079:3085  voters */\n      0x01\n        /* \"contracts/voting-system/voting.sol\":3079:3097  voters[msg.sender] */\n      0x00\n        /* \"contracts/voting-system/voting.sol\":3086:3096  msg.sender */\n      caller\n        /* \"contracts/voting-system/voting.sol\":3079:3097  voters[msg.sender] */\n      0xffffffffffffffffffffffffffffffffffffffff\n      and\n      0xffffffffffffffffffffffffffffffffffffffff\n      and\n      dup2\n      mstore\n      0x20\n      add\n      swap1\n      dup2\n      mstore\n      0x20\n      add\n      0x00\n      keccak256\n        /* \"contracts/voting-system/voting.sol\":3079:3110  voters[msg.sender].isRegistered */\n      0x00\n      add\n      0x00\n      swap1\n      sload\n      swap1\n      0x0100\n      exp\n      swap1\n      div\n      0xff\n      and\n        /* \"contracts/voting-system/voting.sol\":3071:3158  require(voters[msg.sender].isRegistered, \"You must be whitelisted to make a proposal.\") */\n      tag_98\n      jumpi\n      mload(0x40)\n      0x08c379a000000000000000000000000000000000000000000000000000000000\n      dup2\n      mstore\n      0x04\n      add\n      tag_99\n      swap1\n      tag_100\n      jump\t// in\n    tag_99:\n      mload(0x40)\n      dup1\n      swap2\n      sub\n      swap1\n      revert\n    tag_98:\n        /* \"contracts/voting-system/voting.sol\":3206:3207  0 */\n      0x00\n        /* \"contracts/voting-system/voting.sol\":3183:3195  _description */\n      dup3\n      dup3\n        /* \"contracts/voting-system/voting.sol\":3177:3203  bytes(_description).length */\n      swap1\n      pop\n        /* \"contracts/voting-system/voting.sol\":3177:3207  bytes(_description).length > 0 */\n      gt\n        /* \"contracts/voting-system/voting.sol\":3169:3241  require(bytes(_description).length > 0, \"The proposal cannot be empty.\") */\n      tag_101\n      jumpi\n      mload(0x40)\n      0x08c379a000000000000000000000000000000000000000000000000000000000\n      dup2\n      mstore\n      0x04\n      add\n      tag_102\n      swap1\n      tag_103\n      jump\t// in\n    tag_102:\n      mload(0x40)\n      dup1\n      swap2\n      sub\n      swap1\n      revert\n    tag_101:\n        /* \"contracts/voting-system/voting.sol\":3307:3321  voterProposals */\n      0x04\n        /* \"contracts/voting-system/voting.sol\":3327:3352  Proposal(_description, 0) */\n      mload(0x40)\n      dup1\n      0x40\n      add\n      0x40\n      mstore\n      dup1\n        /* \"contracts/voting-system/voting.sol\":3336:3348  _description */\n      dup5\n      dup5\n        /* \"contracts/voting-system/voting.sol\":3327:3352  Proposal(_description, 0) */\n      dup1\n      dup1\n      0x1f\n      add\n      0x20\n      dup1\n      swap2\n      div\n      mul\n      0x20\n      add\n      mload(0x40)\n      swap1\n      dup2\n      add\n      0x40\n      mstore\n      dup1\n      swap4\n      swap3\n      swap2\n      swap1\n      dup2\n      dup2\n      mstore\n      0x20\n      add\n      dup4\n      dup4\n      dup1\n      dup3\n      dup5\n      calldatacopy\n      0x00\n      dup2\n      dup5\n      add\n      mstore\n      not(0x1f)\n      0x1f\n      dup3\n      add\n      and\n      swap1\n      pop\n      dup1\n      dup4\n      add\n      swap3\n      pop\n      pop\n      pop\n      pop\n      pop\n      pop\n      pop\n      dup2\n      mstore\n      0x20\n      add\n        /* \"contracts/voting-system/voting.sol\":3350:3351  0 */\n      0x00\n        /* \"contracts/voting-system/voting.sol\":3327:3352  Proposal(_description, 0) */\n      dup2\n      mstore\n      pop\n        /* \"contracts/voting-system/voting.sol\":3307:3353  voterProposals.push(Proposal(_description, 0)) */\n      swap1\n      dup1\n      0x01\n      dup2\n      sload\n      add\n      dup1\n      dup3\n      sstore\n      dup1\n      swap2\n      pop\n      pop\n      0x01\n      swap1\n      sub\n      swap1\n      0x00\n      mstore\n      keccak256(0x00, 0x20)\n      swap1\n      0x02\n      mul\n      add\n      0x00\n      swap1\n      swap2\n      swap1\n      swap2\n      swap1\n      swap2\n      pop\n      0x00\n      dup3\n      add\n      mload\n      dup2\n      0x00\n      add\n      swap1\n      dup1\n      mload\n      swap1\n      0x20\n      add\n      swap1\n      tag_105\n      swap3\n      swap2\n      swap1\n      tag_106\n      jump\t// in\n    tag_105:\n      pop\n      0x20\n      dup3\n      add\n      mload\n      dup2\n      0x01\n      add\n      sstore\n      pop\n      pop\n        /* \"contracts/voting-system/voting.sol\":3364:3379  uint proposalId */\n      0x00\n        /* \"contracts/voting-system/voting.sol\":3406:3407  1 */\n      0x01\n        /* \"contracts/voting-system/voting.sol\":3382:3396  voterProposals */\n      0x04\n        /* \"contracts/voting-system/voting.sol\":3382:3403  voterProposals.length */\n      dup1\n      sload\n      swap1\n      pop\n        /* \"contracts/voting-system/voting.sol\":3382:3407  voterProposals.length - 1 */\n      tag_107\n      swap2\n      swap1\n      tag_108\n      jump\t// in\n    tag_107:\n        /* \"contracts/voting-system/voting.sol\":3364:3407  uint proposalId = voterProposals.length - 1 */\n      swap1\n      pop\n        /* \"contracts/voting-system/voting.sol\":3449:3459  proposalId */\n      dup1\n        /* \"contracts/voting-system/voting.sol\":3418:3434  voterProposalIds */\n      0x03\n        /* \"contracts/voting-system/voting.sol\":3418:3446  voterProposalIds[msg.sender] */\n      0x00\n        /* \"contracts/voting-system/voting.sol\":3435:3445  msg.sender */\n      caller\n        /* \"contracts/voting-system/voting.sol\":3418:3446  voterProposalIds[msg.sender] */\n      0xffffffffffffffffffffffffffffffffffffffff\n      and\n      0xffffffffffffffffffffffffffffffffffffffff\n      and\n      dup2\n      mstore\n      0x20\n      add\n      swap1\n      dup2\n      mstore\n      0x20\n      add\n      0x00\n      keccak256\n        /* \"contracts/voting-system/voting.sol\":3418:3459  voterProposalIds[msg.sender] = proposalId */\n      dup2\n      swap1\n      sstore\n      pop\n        /* \"contracts/voting-system/voting.sol\":3477:3507  ProposalRegistered(proposalId) */\n      0x92e393e9b54e2f801d3ea4beb0c5e71a21cc34a5d34b77d0fb8a3aa1650dc18f\n        /* \"contracts/voting-system/voting.sol\":3496:3506  proposalId */\n      dup2\n        /* \"contracts/voting-system/voting.sol\":3477:3507  ProposalRegistered(proposalId) */\n      mload(0x40)\n      tag_109\n      swap2\n      swap1\n      tag_110\n      jump\t// in\n    tag_109:\n      mload(0x40)\n      dup1\n      swap2\n      sub\n      swap1\n      log1\n        /* \"contracts/voting-system/voting.sol\":2913:3515  {... */\n      pop\n        /* \"contracts/voting-system/voting.sol\":2848:3515  function voterAddProposal(string calldata _description) external {... */\n      pop\n      pop\n      jump\t// out\n        /* \"https://github.com/OpenZeppelin/openzeppelin-contracts/blob/master/contracts/access/Ownable.sol\":1831:1932  function renounceOwnership() public virtual onlyOwner {... */\n    tag_29:\n        /* \"https://github.com/OpenZeppelin/openzeppelin-contracts/blob/master/contracts/access/Ownable.sol\":1094:1107  _checkOwner() */\n      tag_112\n        /* \"https://github.com/OpenZeppelin/openzeppelin-contracts/blob/master/contracts/access/Ownable.sol\":1094:1105  _checkOwner */\n      tag_45\n        /* \"https://github.com/OpenZeppelin/openzeppelin-contracts/blob/master/contracts/access/Ownable.sol\":1094:1107  _checkOwner() */\n      jump\t// in\n    tag_112:\n        /* \"https://github.com/OpenZeppelin/openzeppelin-contracts/blob/master/contracts/access/Ownable.sol\":1895:1925  _transferOwnership(address(0)) */\n      tag_114\n        /* \"https://github.com/OpenZeppelin/openzeppelin-contracts/blob/master/contracts/access/Ownable.sol\":1922:1923  0 */\n      0x00\n        /* \"https://github.com/OpenZeppelin/openzeppelin-contracts/blob/master/contracts/access/Ownable.sol\":1895:1913  _transferOwnership */\n      tag_115\n        /* \"https://github.com/OpenZeppelin/openzeppelin-contracts/blob/master/contracts/access/Ownable.sol\":1895:1925  _transferOwnership(address(0)) */\n      jump\t// in\n    tag_114:\n        /* \"https://github.com/OpenZeppelin/openzeppelin-contracts/blob/master/contracts/access/Ownable.sol\":1831:1932  function renounceOwnership() public virtual onlyOwner {... */\n      jump\t// out\n        /* \"contracts/voting-system/voting.sol\":1498:1897  function adminStartProposalsSession() external onlyOwner{... */\n    tag_31:\n        /* \"https://github.com/OpenZeppelin/openzeppelin-contracts/blob/master/contracts/access/Ownable.sol\":1094:1107  _checkOwner() */\n      tag_117\n        /* \"https://github.com/OpenZeppelin/openzeppelin-contracts/blob/master/contracts/access/Ownable.sol\":1094:1105  _checkOwner */\n      tag_45\n        /* \"https://github.com/OpenZeppelin/openzeppelin-contracts/blob/master/contracts/access/Ownable.sol\":1094:1107  _checkOwner() */\n      jump\t// in\n    tag_117:\n        /* \"contracts/voting-system/voting.sol\":1600:1601  1 */\n      0x01\n        /* \"contracts/voting-system/voting.sol\":1575:1597  _voterWhitelistedCount */\n      sload(0x02)\n        /* \"contracts/voting-system/voting.sol\":1575:1601  _voterWhitelistedCount > 1 */\n      gt\n        /* \"contracts/voting-system/voting.sol\":1567:1668  require(_voterWhitelistedCount > 1, \"Need at least 2 whitelisted voter to start a proposal session.\") */\n      tag_119\n      jumpi\n      mload(0x40)\n      0x08c379a000000000000000000000000000000000000000000000000000000000\n      dup2\n      mstore\n      0x04\n      add\n      tag_120\n      swap1\n      tag_121\n      jump\t// in\n    tag_120:\n      mload(0x40)\n      dup1\n      swap2\n      sub\n      swap1\n      revert\n    tag_119:\n        /* \"contracts/voting-system/voting.sol\":1681:1710  WorkflowStatus previousStatus */\n      0x00\n        /* \"contracts/voting-system/voting.sol\":1713:1734  _currentVotingSession */\n      0x05\n      0x00\n      swap1\n      sload\n      swap1\n      0x0100\n      exp\n      swap1\n      div\n      0xff\n      and\n        /* \"contracts/voting-system/voting.sol\":1681:1734  WorkflowStatus previousStatus = _currentVotingSession */\n      swap1\n      pop\n        /* \"contracts/voting-system/voting.sol\":1769:1812  WorkflowStatus.ProposalsRegistrationStarted */\n      0x01\n        /* \"contracts/voting-system/voting.sol\":1745:1766  _currentVotingSession */\n      0x05\n      0x00\n        /* \"contracts/voting-system/voting.sol\":1745:1812  _currentVotingSession = WorkflowStatus.ProposalsRegistrationStarted */\n      0x0100\n      exp\n      dup2\n      sload\n      dup2\n      0xff\n      mul\n      not\n      and\n      swap1\n      dup4\n      0x05\n      dup2\n      gt\n      iszero\n      tag_122\n      jumpi\n      tag_123\n      tag_49\n      jump\t// in\n    tag_123:\n    tag_122:\n      mul\n      or\n      swap1\n      sstore\n      pop\n        /* \"contracts/voting-system/voting.sol\":1830:1889  WorkflowStatusChange(previousStatus, _currentVotingSession) */\n      0x0a97a4ee45751e2abf3e4fc8946939630b11b371ea8ae39ccdc3056e98f5cc3f\n        /* \"contracts/voting-system/voting.sol\":1851:1865  previousStatus */\n      dup2\n        /* \"contracts/voting-system/voting.sol\":1867:1888  _currentVotingSession */\n      0x05\n      0x00\n      swap1\n      sload\n      swap1\n      0x0100\n      exp\n      swap1\n      div\n      0xff\n      and\n        /* \"contracts/voting-system/voting.sol\":1830:1889  WorkflowStatusChange(previousStatus, _currentVotingSession) */\n      mload(0x40)\n      tag_124\n      swap3\n      swap2\n      swap1\n      tag_58\n      jump\t// in\n    tag_124:\n      mload(0x40)\n      dup1\n      swap2\n      sub\n      swap1\n      log1\n        /* \"contracts/voting-system/voting.sol\":1554:1897  {... */\n      pop\n        /* \"contracts/voting-system/voting.sol\":1498:1897  function adminStartProposalsSession() external onlyOwner{... */\n      jump\t// out\n        /* \"https://github.com/OpenZeppelin/openzeppelin-contracts/blob/master/contracts/access/Ownable.sol\":1201:1286  function owner() public view virtual returns (address) {... */\n    tag_33:\n        /* \"https://github.com/OpenZeppelin/openzeppelin-contracts/blob/master/contracts/access/Ownable.sol\":1247:1254  address */\n      0x00\n        /* \"https://github.com/OpenZeppelin/openzeppelin-contracts/blob/master/contracts/access/Ownable.sol\":1273:1279  _owner */\n      dup1\n      0x00\n      swap1\n      sload\n      swap1\n      0x0100\n      exp\n      swap1\n      div\n      0xffffffffffffffffffffffffffffffffffffffff\n      and\n        /* \"https://github.com/OpenZeppelin/openzeppelin-contracts/blob/master/contracts/access/Ownable.sol\":1266:1279  return _owner */\n      swap1\n      pop\n        /* \"https://github.com/OpenZeppelin/openzeppelin-contracts/blob/master/contracts/access/Ownable.sol\":1201:1286  function owner() public view virtual returns (address) {... */\n      swap1\n      jump\t// out\n        /* \"contracts/voting-system/voting.sol\":4100:4138  function getWinner() public {... */\n    tag_37:\n      jump\t// out\n        /* \"contracts/voting-system/voting.sol\":2457:2834  function adminStartVotingSession() external onlyOwner{... */\n    tag_39:\n        /* \"https://github.com/OpenZeppelin/openzeppelin-contracts/blob/master/contracts/access/Ownable.sol\":1094:1107  _checkOwner() */\n      tag_128\n        /* \"https://github.com/OpenZeppelin/openzeppelin-contracts/blob/master/contracts/access/Ownable.sol\":1094:1105  _checkOwner */\n      tag_45\n        /* \"https://github.com/OpenZeppelin/openzeppelin-contracts/blob/master/contracts/access/Ownable.sol\":1094:1107  _checkOwner() */\n      jump\t// in\n    tag_128:\n        /* \"contracts/voting-system/voting.sol\":2555:2556  1 */\n      0x01\n        /* \"contracts/voting-system/voting.sol\":2531:2545  voterProposals */\n      0x04\n        /* \"contracts/voting-system/voting.sol\":2531:2552  voterProposals.length */\n      dup1\n      sload\n      swap1\n      pop\n        /* \"contracts/voting-system/voting.sol\":2531:2556  voterProposals.length > 1 */\n      gt\n        /* \"contracts/voting-system/voting.sol\":2523:2613  require(voterProposals.length > 1, \"Need at least 2 proposals to start a voting session.\") */\n      tag_130\n      jumpi\n      mload(0x40)\n      0x08c379a000000000000000000000000000000000000000000000000000000000\n      dup2\n      mstore\n      0x04\n      add\n      tag_131\n      swap1\n      tag_132\n      jump\t// in\n    tag_131:\n      mload(0x40)\n      dup1\n      swap2\n      sub\n      swap1\n      revert\n    tag_130:\n        /* \"contracts/voting-system/voting.sol\":2626:2655  WorkflowStatus previousStatus */\n      0x00\n        /* \"contracts/voting-system/voting.sol\":2658:2679  _currentVotingSession */\n      0x05\n      0x00\n      swap1\n      sload\n      swap1\n      0x0100\n      exp\n      swap1\n      div\n      0xff\n      and\n        /* \"contracts/voting-system/voting.sol\":2626:2679  WorkflowStatus previousStatus = _currentVotingSession */\n      swap1\n      pop\n        /* \"contracts/voting-system/voting.sol\":2714:2749  WorkflowStatus.VotingSessionStarted */\n      0x03\n        /* \"contracts/voting-system/voting.sol\":2690:2711  _currentVotingSession */\n      0x05\n      0x00\n        /* \"contracts/voting-system/voting.sol\":2690:2749  _currentVotingSession = WorkflowStatus.VotingSessionStarted */\n      0x0100\n      exp\n      dup2\n      sload\n      dup2\n      0xff\n      mul\n      not\n      and\n      swap1\n      dup4\n      0x05\n      dup2\n      gt\n      iszero\n      tag_133\n      jumpi\n      tag_134\n      tag_49\n      jump\t// in\n    tag_134:\n    tag_133:\n      mul\n      or\n      swap1\n      sstore\n      pop\n        /* \"contracts/voting-system/voting.sol\":2767:2826  WorkflowStatusChange(previousStatus, _currentVotingSession) */\n      0x0a97a4ee45751e2abf3e4fc8946939630b11b371ea8ae39ccdc3056e98f5cc3f\n        /* \"contracts/voting-system/voting.sol\":2788:2802  previousStatus */\n      dup2\n        /* \"contracts/voting-system/voting.sol\":2804:2825  _currentVotingSession */\n      0x05\n      0x00\n      swap1\n      sload\n      swap1\n      0x0100\n      exp\n      swap1\n      div\n      0xff\n      and\n        /* \"contracts/voting-system/voting.sol\":2767:2826  WorkflowStatusChange(previousStatus, _currentVotingSession) */\n      mload(0x40)\n      tag_135\n      swap3\n      swap2\n      swap1\n      tag_58\n      jump\t// in\n    tag_135:\n      mload(0x40)\n      dup1\n      swap2\n      sub\n      swap1\n      log1\n        /* \"contracts/voting-system/voting.sol\":2510:2834  {... */\n      pop\n        /* \"contracts/voting-system/voting.sol\":2457:2834  function adminStartVotingSession() external onlyOwner{... */\n      jump\t// out\n        /* \"https://github.com/OpenZeppelin/openzeppelin-contracts/blob/master/contracts/access/Ownable.sol\":2081:2279  function transferOwnership(address newOwner) public virtual onlyOwner {... */\n    tag_42:\n        /* \"https://github.com/OpenZeppelin/openzeppelin-contracts/blob/master/contracts/access/Ownable.sol\":1094:1107  _checkOwner() */\n      tag_137\n        /* \"https://github.com/OpenZeppelin/openzeppelin-contracts/blob/master/contracts/access/Ownable.sol\":1094:1105  _checkOwner */\n      tag_45\n        /* \"https://github.com/OpenZeppelin/openzeppelin-contracts/blob/master/contracts/access/Ownable.sol\":1094:1107  _checkOwner() */\n      jump\t// in\n    tag_137:\n        /* \"https://github.com/OpenZeppelin/openzeppelin-contracts/blob/master/contracts/access/Ownable.sol\":2189:2190  0 */\n      0x00\n        /* \"https://github.com/OpenZeppelin/openzeppelin-contracts/blob/master/contracts/access/Ownable.sol\":2169:2191  newOwner != address(0) */\n      0xffffffffffffffffffffffffffffffffffffffff\n      and\n        /* \"https://github.com/OpenZeppelin/openzeppelin-contracts/blob/master/contracts/access/Ownable.sol\":2169:2177  newOwner */\n      dup2\n        /* \"https://github.com/OpenZeppelin/openzeppelin-contracts/blob/master/contracts/access/Ownable.sol\":2169:2191  newOwner != address(0) */\n      0xffffffffffffffffffffffffffffffffffffffff\n      and\n      sub\n        /* \"https://github.com/OpenZeppelin/openzeppelin-contracts/blob/master/contracts/access/Ownable.sol\":2161:2234  require(newOwner != address(0), \"Ownable: new owner is the zero address\") */\n      tag_139\n      jumpi\n      mload(0x40)\n      0x08c379a000000000000000000000000000000000000000000000000000000000\n      dup2\n      mstore\n      0x04\n      add\n      tag_140\n      swap1\n      tag_141\n      jump\t// in\n    tag_140:\n      mload(0x40)\n      dup1\n      swap2\n      sub\n      swap1\n      revert\n    tag_139:\n        /* \"https://github.com/OpenZeppelin/openzeppelin-contracts/blob/master/contracts/access/Ownable.sol\":2244:2272  _transferOwnership(newOwner) */\n      tag_142\n        /* \"https://github.com/OpenZeppelin/openzeppelin-contracts/blob/master/contracts/access/Ownable.sol\":2263:2271  newOwner */\n      dup2\n        /* \"https://github.com/OpenZeppelin/openzeppelin-contracts/blob/master/contracts/access/Ownable.sol\":2244:2262  _transferOwnership */\n      tag_115\n        /* \"https://github.com/OpenZeppelin/openzeppelin-contracts/blob/master/contracts/access/Ownable.sol\":2244:2272  _transferOwnership(newOwner) */\n      jump\t// in\n    tag_142:\n        /* \"https://github.com/OpenZeppelin/openzeppelin-contracts/blob/master/contracts/access/Ownable.sol\":2081:2279  function transferOwnership(address newOwner) public virtual onlyOwner {... */\n      pop\n      jump\t// out\n        /* \"https://github.com/OpenZeppelin/openzeppelin-contracts/blob/master/contracts/access/Ownable.sol\":1359:1489  function _checkOwner() internal view virtual {... */\n    tag_45:\n        /* \"https://github.com/OpenZeppelin/openzeppelin-contracts/blob/master/contracts/access/Ownable.sol\":1433:1445  _msgSender() */\n      tag_144\n        /* \"https://github.com/OpenZeppelin/openzeppelin-contracts/blob/master/contracts/access/Ownable.sol\":1433:1443  _msgSender */\n      tag_145\n        /* \"https://github.com/OpenZeppelin/openzeppelin-contracts/blob/master/contracts/access/Ownable.sol\":1433:1445  _msgSender() */\n      jump\t// in\n    tag_144:\n        /* \"https://github.com/OpenZeppelin/openzeppelin-contracts/blob/master/contracts/access/Ownable.sol\":1422:1445  owner() == _msgSender() */\n      0xffffffffffffffffffffffffffffffffffffffff\n      and\n        /* \"https://github.com/OpenZeppelin/openzeppelin-contracts/blob/master/contracts/access/Ownable.sol\":1422:1429  owner() */\n      tag_146\n        /* \"https://github.com/OpenZeppelin/openzeppelin-contracts/blob/master/contracts/access/Ownable.sol\":1422:1427  owner */\n      tag_33\n        /* \"https://github.com/OpenZeppelin/openzeppelin-contracts/blob/master/contracts/access/Ownable.sol\":1422:1429  owner() */\n      jump\t// in\n    tag_146:\n        /* \"https://github.com/OpenZeppelin/openzeppelin-contracts/blob/master/contracts/access/Ownable.sol\":1422:1445  owner() == _msgSender() */\n      0xffffffffffffffffffffffffffffffffffffffff\n      and\n      eq\n        /* \"https://github.com/OpenZeppelin/openzeppelin-contracts/blob/master/contracts/access/Ownable.sol\":1414:1482  require(owner() == _msgSender(), \"Ownable: caller is not the owner\") */\n      tag_147\n      jumpi\n      mload(0x40)\n      0x08c379a000000000000000000000000000000000000000000000000000000000\n      dup2\n      mstore\n      0x04\n      add\n      tag_148\n      swap1\n      tag_149\n      jump\t// in\n    tag_148:\n      mload(0x40)\n      dup1\n      swap2\n      sub\n      swap1\n      revert\n    tag_147:\n        /* \"https://github.com/OpenZeppelin/openzeppelin-contracts/blob/master/contracts/access/Ownable.sol\":1359:1489  function _checkOwner() internal view virtual {... */\n      jump\t// out\n        /* \"https://github.com/OpenZeppelin/openzeppelin-contracts/blob/master/contracts/access/Ownable.sol\":2433:2620  function _transferOwnership(address newOwner) internal virtual {... */\n    tag_115:\n        /* \"https://github.com/OpenZeppelin/openzeppelin-contracts/blob/master/contracts/access/Ownable.sol\":2506:2522  address oldOwner */\n      0x00\n        /* \"https://github.com/OpenZeppelin/openzeppelin-contracts/blob/master/contracts/access/Ownable.sol\":2525:2531  _owner */\n      dup1\n      0x00\n      swap1\n      sload\n      swap1\n      0x0100\n      exp\n      swap1\n      div\n      0xffffffffffffffffffffffffffffffffffffffff\n      and\n        /* \"https://github.com/OpenZeppelin/openzeppelin-contracts/blob/master/contracts/access/Ownable.sol\":2506:2531  address oldOwner = _owner */\n      swap1\n      pop\n        /* \"https://github.com/OpenZeppelin/openzeppelin-contracts/blob/master/contracts/access/Ownable.sol\":2550:2558  newOwner */\n      dup2\n        /* \"https://github.com/OpenZeppelin/openzeppelin-contracts/blob/master/contracts/access/Ownable.sol\":2541:2547  _owner */\n      0x00\n      dup1\n        /* \"https://github.com/OpenZeppelin/openzeppelin-contracts/blob/master/contracts/access/Ownable.sol\":2541:2558  _owner = newOwner */\n      0x0100\n      exp\n      dup2\n      sload\n      dup2\n      0xffffffffffffffffffffffffffffffffffffffff\n      mul\n      not\n      and\n      swap1\n      dup4\n      0xffffffffffffffffffffffffffffffffffffffff\n      and\n      mul\n      or\n      swap1\n      sstore\n      pop\n        /* \"https://github.com/OpenZeppelin/openzeppelin-contracts/blob/master/contracts/access/Ownable.sol\":2604:2612  newOwner */\n      dup2\n        /* \"https://github.com/OpenZeppelin/openzeppelin-contracts/blob/master/contracts/access/Ownable.sol\":2573:2613  OwnershipTransferred(oldOwner, newOwner) */\n      0xffffffffffffffffffffffffffffffffffffffff\n      and\n        /* \"https://github.com/OpenZeppelin/openzeppelin-contracts/blob/master/contracts/access/Ownable.sol\":2594:2602  oldOwner */\n      dup2\n        /* \"https://github.com/OpenZeppelin/openzeppelin-contracts/blob/master/contracts/access/Ownable.sol\":2573:2613  OwnershipTransferred(oldOwner, newOwner) */\n      0xffffffffffffffffffffffffffffffffffffffff\n      and\n      0x8be0079c531659141344cd1fd0a4f28419497f9722a3daafe3b4186f6b6457e0\n      mload(0x40)\n      mload(0x40)\n      dup1\n      swap2\n      sub\n      swap1\n      log3\n        /* \"https://github.com/OpenZeppelin/openzeppelin-contracts/blob/master/contracts/access/Ownable.sol\":2496:2620  {... */\n      pop\n        /* \"https://github.com/OpenZeppelin/openzeppelin-contracts/blob/master/contracts/access/Ownable.sol\":2433:2620  function _transferOwnership(address newOwner) internal virtual {... */\n      pop\n      jump\t// out\n        /* \"https://github.com/OpenZeppelin/openzeppelin-contracts/blob/master/contracts/utils/Context.sol\":640:736  function _msgSender() internal view virtual returns (address) {... */\n    tag_145:\n        /* \"https://github.com/OpenZeppelin/openzeppelin-contracts/blob/master/contracts/utils/Context.sol\":693:700  address */\n      0x00\n        /* \"https://github.com/OpenZeppelin/openzeppelin-contracts/blob/master/contracts/utils/Context.sol\":719:729  msg.sender */\n      caller\n        /* \"https://github.com/OpenZeppelin/openzeppelin-contracts/blob/master/contracts/utils/Context.sol\":712:729  return msg.sender */\n      swap1\n      pop\n        /* \"https://github.com/OpenZeppelin/openzeppelin-contracts/blob/master/contracts/utils/Context.sol\":640:736  function _msgSender() internal view virtual returns (address) {... */\n      swap1\n      jump\t// out\n    tag_106:\n      dup3\n      dup1\n      sload\n      tag_152\n      swap1\n      tag_78\n      jump\t// in\n    tag_152:\n      swap1\n      0x00\n      mstore\n      keccak256(0x00, 0x20)\n      swap1\n      0x1f\n      add\n      0x20\n      swap1\n      div\n      dup2\n      add\n      swap3\n      dup3\n      tag_154\n      jumpi\n      0x00\n      dup6\n      sstore\n      jump(tag_153)\n    tag_154:\n      dup3\n      0x1f\n      lt\n      tag_155\n      jumpi\n      dup1\n      mload\n      not(0xff)\n      and\n      dup4\n      dup1\n      add\n      or\n      dup6\n      sstore\n      jump(tag_153)\n    tag_155:\n      dup3\n      dup1\n      add\n      0x01\n      add\n      dup6\n      sstore\n      dup3\n      iszero\n      tag_153\n      jumpi\n      swap2\n      dup3\n      add\n    tag_156:\n      dup3\n      dup2\n      gt\n      iszero\n      tag_157\n      jumpi\n      dup3\n      mload\n      dup3\n      sstore\n      swap2\n      0x20\n      add\n      swap2\n      swap1\n      0x01\n      add\n      swap1\n      jump(tag_156)\n    tag_157:\n    tag_153:\n      pop\n      swap1\n      pop\n      tag_158\n      swap2\n      swap1\n      tag_159\n      jump\t// in\n    tag_158:\n      pop\n      swap1\n      jump\t// out\n    tag_159:\n    tag_160:\n      dup1\n      dup3\n      gt\n      iszero\n      tag_161\n      jumpi\n      0x00\n      dup2\n      0x00\n      swap1\n      sstore\n      pop\n      0x01\n      add\n      jump(tag_160)\n    tag_161:\n      pop\n      swap1\n      jump\t// out\n        /* \"#utility.yul\":88:205   */\n    tag_163:\n        /* \"#utility.yul\":197:198   */\n      0x00\n        /* \"#utility.yul\":194:195   */\n      dup1\n        /* \"#utility.yul\":187:199   */\n      revert\n        /* \"#utility.yul\":211:328   */\n    tag_164:\n        /* \"#utility.yul\":320:321   */\n      0x00\n        /* \"#utility.yul\":317:318   */\n      dup1\n        /* \"#utility.yul\":310:322   */\n      revert\n        /* \"#utility.yul\":334:411   */\n    tag_165:\n        /* \"#utility.yul\":371:378   */\n      0x00\n        /* \"#utility.yul\":400:405   */\n      dup2\n        /* \"#utility.yul\":389:405   */\n      swap1\n      pop\n        /* \"#utility.yul\":334:411   */\n      swap2\n      swap1\n      pop\n      jump\t// out\n        /* \"#utility.yul\":417:539   */\n    tag_166:\n        /* \"#utility.yul\":490:514   */\n      tag_215\n        /* \"#utility.yul\":508:513   */\n      dup2\n        /* \"#utility.yul\":490:514   */\n      tag_165\n      jump\t// in\n    tag_215:\n        /* \"#utility.yul\":483:488   */\n      dup2\n        /* \"#utility.yul\":480:515   */\n      eq\n        /* \"#utility.yul\":470:533   */\n      tag_216\n      jumpi\n        /* \"#utility.yul\":529:530   */\n      0x00\n        /* \"#utility.yul\":526:527   */\n      dup1\n        /* \"#utility.yul\":519:531   */\n      revert\n        /* \"#utility.yul\":470:533   */\n    tag_216:\n        /* \"#utility.yul\":417:539   */\n      pop\n      jump\t// out\n        /* \"#utility.yul\":545:684   */\n    tag_167:\n        /* \"#utility.yul\":591:596   */\n      0x00\n        /* \"#utility.yul\":629:635   */\n      dup2\n        /* \"#utility.yul\":616:636   */\n      calldataload\n        /* \"#utility.yul\":607:636   */\n      swap1\n      pop\n        /* \"#utility.yul\":645:678   */\n      tag_218\n        /* \"#utility.yul\":672:677   */\n      dup2\n        /* \"#utility.yul\":645:678   */\n      tag_166\n      jump\t// in\n    tag_218:\n        /* \"#utility.yul\":545:684   */\n      swap3\n      swap2\n      pop\n      pop\n      jump\t// out\n        /* \"#utility.yul\":690:1019   */\n    tag_18:\n        /* \"#utility.yul\":749:755   */\n      0x00\n        /* \"#utility.yul\":798:800   */\n      0x20\n        /* \"#utility.yul\":786:795   */\n      dup3\n        /* \"#utility.yul\":777:784   */\n      dup5\n        /* \"#utility.yul\":773:796   */\n      sub\n        /* \"#utility.yul\":769:801   */\n      slt\n        /* \"#utility.yul\":766:885   */\n      iszero\n      tag_220\n      jumpi\n        /* \"#utility.yul\":804:883   */\n      tag_221\n      tag_163\n      jump\t// in\n    tag_221:\n        /* \"#utility.yul\":766:885   */\n    tag_220:\n        /* \"#utility.yul\":924:925   */\n      0x00\n        /* \"#utility.yul\":949:1002   */\n      tag_222\n        /* \"#utility.yul\":994:1001   */\n      dup5\n        /* \"#utility.yul\":985:991   */\n      dup3\n        /* \"#utility.yul\":974:983   */\n      dup6\n        /* \"#utility.yul\":970:992   */\n      add\n        /* \"#utility.yul\":949:1002   */\n      tag_167\n      jump\t// in\n    tag_222:\n        /* \"#utility.yul\":939:1002   */\n      swap2\n      pop\n        /* \"#utility.yul\":895:1012   */\n      pop\n        /* \"#utility.yul\":690:1019   */\n      swap3\n      swap2\n      pop\n      pop\n      jump\t// out\n        /* \"#utility.yul\":1025:1151   */\n    tag_168:\n        /* \"#utility.yul\":1062:1069   */\n      0x00\n        /* \"#utility.yul\":1102:1144   */\n      0xffffffffffffffffffffffffffffffffffffffff\n        /* \"#utility.yul\":1095:1100   */\n      dup3\n        /* \"#utility.yul\":1091:1145   */\n      and\n        /* \"#utility.yul\":1080:1145   */\n      swap1\n      pop\n        /* \"#utility.yul\":1025:1151   */\n      swap2\n      swap1\n      pop\n      jump\t// out\n        /* \"#utility.yul\":1157:1253   */\n    tag_169:\n        /* \"#utility.yul\":1194:1201   */\n      0x00\n        /* \"#utility.yul\":1223:1247   */\n      tag_225\n        /* \"#utility.yul\":1241:1246   */\n      dup3\n        /* \"#utility.yul\":1223:1247   */\n      tag_168\n      jump\t// in\n    tag_225:\n        /* \"#utility.yul\":1212:1247   */\n      swap1\n      pop\n        /* \"#utility.yul\":1157:1253   */\n      swap2\n      swap1\n      pop\n      jump\t// out\n        /* \"#utility.yul\":1259:1381   */\n    tag_170:\n        /* \"#utility.yul\":1332:1356   */\n      tag_227\n        /* \"#utility.yul\":1350:1355   */\n      dup2\n        /* \"#utility.yul\":1332:1356   */\n      tag_169\n      jump\t// in\n    tag_227:\n        /* \"#utility.yul\":1325:1330   */\n      dup2\n        /* \"#utility.yul\":1322:1357   */\n      eq\n        /* \"#utility.yul\":1312:1375   */\n      tag_228\n      jumpi\n        /* \"#utility.yul\":1371:1372   */\n      0x00\n        /* \"#utility.yul\":1368:1369   */\n      dup1\n        /* \"#utility.yul\":1361:1373   */\n      revert\n        /* \"#utility.yul\":1312:1375   */\n    tag_228:\n        /* \"#utility.yul\":1259:1381   */\n      pop\n      jump\t// out\n        /* \"#utility.yul\":1387:1526   */\n    tag_171:\n        /* \"#utility.yul\":1433:1438   */\n      0x00\n        /* \"#utility.yul\":1471:1477   */\n      dup2\n        /* \"#utility.yul\":1458:1478   */\n      calldataload\n        /* \"#utility.yul\":1449:1478   */\n      swap1\n      pop\n        /* \"#utility.yul\":1487:1520   */\n      tag_230\n        /* \"#utility.yul\":1514:1519   */\n      dup2\n        /* \"#utility.yul\":1487:1520   */\n      tag_170\n      jump\t// in\n    tag_230:\n        /* \"#utility.yul\":1387:1526   */\n      swap3\n      swap2\n      pop\n      pop\n      jump\t// out\n        /* \"#utility.yul\":1532:1861   */\n    tag_22:\n        /* \"#utility.yul\":1591:1597   */\n      0x00\n        /* \"#utility.yul\":1640:1642   */\n      0x20\n        /* \"#utility.yul\":1628:1637   */\n      dup3\n        /* \"#utility.yul\":1619:1626   */\n      dup5\n        /* \"#utility.yul\":1615:1638   */\n      sub\n        /* \"#utility.yul\":1611:1643   */\n      slt\n        /* \"#utility.yul\":1608:1727   */\n      iszero\n      tag_232\n      jumpi\n        /* \"#utility.yul\":1646:1725   */\n      tag_233\n      tag_163\n      jump\t// in\n    tag_233:\n        /* \"#utility.yul\":1608:1727   */\n    tag_232:\n        /* \"#utility.yul\":1766:1767   */\n      0x00\n        /* \"#utility.yul\":1791:1844   */\n      tag_234\n        /* \"#utility.yul\":1836:1843   */\n      dup5\n        /* \"#utility.yul\":1827:1833   */\n      dup3\n        /* \"#utility.yul\":1816:1825   */\n      dup6\n        /* \"#utility.yul\":1812:1834   */\n      add\n        /* \"#utility.yul\":1791:1844   */\n      tag_171\n      jump\t// in\n    tag_234:\n        /* \"#utility.yul\":1781:1844   */\n      swap2\n      pop\n        /* \"#utility.yul\":1737:1854   */\n      pop\n        /* \"#utility.yul\":1532:1861   */\n      swap3\n      swap2\n      pop\n      pop\n      jump\t// out\n        /* \"#utility.yul\":1867:1984   */\n    tag_172:\n        /* \"#utility.yul\":1976:1977   */\n      0x00\n        /* \"#utility.yul\":1973:1974   */\n      dup1\n        /* \"#utility.yul\":1966:1978   */\n      revert\n        /* \"#utility.yul\":1990:2107   */\n    tag_173:\n        /* \"#utility.yul\":2099:2100   */\n      0x00\n        /* \"#utility.yul\":2096:2097   */\n      dup1\n        /* \"#utility.yul\":2089:2101   */\n      revert\n        /* \"#utility.yul\":2113:2230   */\n    tag_174:\n        /* \"#utility.yul\":2222:2223   */\n      0x00\n        /* \"#utility.yul\":2219:2220   */\n      dup1\n        /* \"#utility.yul\":2212:2224   */\n      revert\n        /* \"#utility.yul\":2250:2803   */\n    tag_175:\n        /* \"#utility.yul\":2308:2316   */\n      0x00\n        /* \"#utility.yul\":2318:2324   */\n      dup1\n        /* \"#utility.yul\":2368:2371   */\n      dup4\n        /* \"#utility.yul\":2361:2365   */\n      0x1f\n        /* \"#utility.yul\":2353:2359   */\n      dup5\n        /* \"#utility.yul\":2349:2366   */\n      add\n        /* \"#utility.yul\":2345:2372   */\n      slt\n        /* \"#utility.yul\":2335:2457   */\n      tag_239\n      jumpi\n        /* \"#utility.yul\":2376:2455   */\n      tag_240\n      tag_172\n      jump\t// in\n    tag_240:\n        /* \"#utility.yul\":2335:2457   */\n    tag_239:\n        /* \"#utility.yul\":2489:2495   */\n      dup3\n        /* \"#utility.yul\":2476:2496   */\n      calldataload\n        /* \"#utility.yul\":2466:2496   */\n      swap1\n      pop\n        /* \"#utility.yul\":2519:2537   */\n      0xffffffffffffffff\n        /* \"#utility.yul\":2511:2517   */\n      dup2\n        /* \"#utility.yul\":2508:2538   */\n      gt\n        /* \"#utility.yul\":2505:2622   */\n      iszero\n      tag_241\n      jumpi\n        /* \"#utility.yul\":2541:2620   */\n      tag_242\n      tag_173\n      jump\t// in\n    tag_242:\n        /* \"#utility.yul\":2505:2622   */\n    tag_241:\n        /* \"#utility.yul\":2655:2659   */\n      0x20\n        /* \"#utility.yul\":2647:2653   */\n      dup4\n        /* \"#utility.yul\":2643:2660   */\n      add\n        /* \"#utility.yul\":2631:2660   */\n      swap2\n      pop\n        /* \"#utility.yul\":2709:2712   */\n      dup4\n        /* \"#utility.yul\":2701:2705   */\n      0x01\n        /* \"#utility.yul\":2693:2699   */\n      dup3\n        /* \"#utility.yul\":2689:2706   */\n      mul\n        /* \"#utility.yul\":2679:2687   */\n      dup4\n        /* \"#utility.yul\":2675:2707   */\n      add\n        /* \"#utility.yul\":2672:2713   */\n      gt\n        /* \"#utility.yul\":2669:2797   */\n      iszero\n      tag_243\n      jumpi\n        /* \"#utility.yul\":2716:2795   */\n      tag_244\n      tag_174\n      jump\t// in\n    tag_244:\n        /* \"#utility.yul\":2669:2797   */\n    tag_243:\n        /* \"#utility.yul\":2250:2803   */\n      swap3\n      pop\n      swap3\n      swap1\n      pop\n      jump\t// out\n        /* \"#utility.yul\":2809:3338   */\n    tag_26:\n        /* \"#utility.yul\":2880:2886   */\n      0x00\n        /* \"#utility.yul\":2888:2894   */\n      dup1\n        /* \"#utility.yul\":2937:2939   */\n      0x20\n        /* \"#utility.yul\":2925:2934   */\n      dup4\n        /* \"#utility.yul\":2916:2923   */\n      dup6\n        /* \"#utility.yul\":2912:2935   */\n      sub\n        /* \"#utility.yul\":2908:2940   */\n      slt\n        /* \"#utility.yul\":2905:3024   */\n      iszero\n      tag_246\n      jumpi\n        /* \"#utility.yul\":2943:3022   */\n      tag_247\n      tag_163\n      jump\t// in\n    tag_247:\n        /* \"#utility.yul\":2905:3024   */\n    tag_246:\n        /* \"#utility.yul\":3091:3092   */\n      0x00\n        /* \"#utility.yul\":3080:3089   */\n      dup4\n        /* \"#utility.yul\":3076:3093   */\n      add\n        /* \"#utility.yul\":3063:3094   */\n      calldataload\n        /* \"#utility.yul\":3121:3139   */\n      0xffffffffffffffff\n        /* \"#utility.yul\":3113:3119   */\n      dup2\n        /* \"#utility.yul\":3110:3140   */\n      gt\n        /* \"#utility.yul\":3107:3224   */\n      iszero\n      tag_248\n      jumpi\n        /* \"#utility.yul\":3143:3222   */\n      tag_249\n      tag_164\n      jump\t// in\n    tag_249:\n        /* \"#utility.yul\":3107:3224   */\n    tag_248:\n        /* \"#utility.yul\":3256:3321   */\n      tag_250\n        /* \"#utility.yul\":3313:3320   */\n      dup6\n        /* \"#utility.yul\":3304:3310   */\n      dup3\n        /* \"#utility.yul\":3293:3302   */\n      dup7\n        /* \"#utility.yul\":3289:3311   */\n      add\n        /* \"#utility.yul\":3256:3321   */\n      tag_175\n      jump\t// in\n    tag_250:\n        /* \"#utility.yul\":3238:3321   */\n      swap3\n      pop\n      swap3\n      pop\n        /* \"#utility.yul\":3034:3331   */\n      pop\n        /* \"#utility.yul\":2809:3338   */\n      swap3\n      pop\n      swap3\n      swap1\n      pop\n      jump\t// out\n        /* \"#utility.yul\":3344:3462   */\n    tag_176:\n        /* \"#utility.yul\":3431:3455   */\n      tag_252\n        /* \"#utility.yul\":3449:3454   */\n      dup2\n        /* \"#utility.yul\":3431:3455   */\n      tag_169\n      jump\t// in\n    tag_252:\n        /* \"#utility.yul\":3426:3429   */\n      dup3\n        /* \"#utility.yul\":3419:3456   */\n      mstore\n        /* \"#utility.yul\":3344:3462   */\n      pop\n      pop\n      jump\t// out\n        /* \"#utility.yul\":3468:3690   */\n    tag_35:\n        /* \"#utility.yul\":3561:3565   */\n      0x00\n        /* \"#utility.yul\":3599:3601   */\n      0x20\n        /* \"#utility.yul\":3588:3597   */\n      dup3\n        /* \"#utility.yul\":3584:3602   */\n      add\n        /* \"#utility.yul\":3576:3602   */\n      swap1\n      pop\n        /* \"#utility.yul\":3612:3683   */\n      tag_254\n        /* \"#utility.yul\":3680:3681   */\n      0x00\n        /* \"#utility.yul\":3669:3678   */\n      dup4\n        /* \"#utility.yul\":3665:3682   */\n      add\n        /* \"#utility.yul\":3656:3662   */\n      dup5\n        /* \"#utility.yul\":3612:3683   */\n      tag_176\n      jump\t// in\n    tag_254:\n        /* \"#utility.yul\":3468:3690   */\n      swap3\n      swap2\n      pop\n      pop\n      jump\t// out\n        /* \"#utility.yul\":3696:3876   */\n    tag_49:\n        /* \"#utility.yul\":3744:3821   */\n      0x4e487b7100000000000000000000000000000000000000000000000000000000\n        /* \"#utility.yul\":3741:3742   */\n      0x00\n        /* \"#utility.yul\":3734:3822   */\n      mstore\n        /* \"#utility.yul\":3841:3845   */\n      0x21\n        /* \"#utility.yul\":3838:3839   */\n      0x04\n        /* \"#utility.yul\":3831:3846   */\n      mstore\n        /* \"#utility.yul\":3865:3869   */\n      0x24\n        /* \"#utility.yul\":3862:3863   */\n      0x00\n        /* \"#utility.yul\":3855:3870   */\n      revert\n        /* \"#utility.yul\":3882:4051   */\n    tag_177:\n        /* \"#utility.yul\":3966:3977   */\n      0x00\n        /* \"#utility.yul\":4000:4006   */\n      dup3\n        /* \"#utility.yul\":3995:3998   */\n      dup3\n        /* \"#utility.yul\":3988:4007   */\n      mstore\n        /* \"#utility.yul\":4040:4044   */\n      0x20\n        /* \"#utility.yul\":4035:4038   */\n      dup3\n        /* \"#utility.yul\":4031:4045   */\n      add\n        /* \"#utility.yul\":4016:4045   */\n      swap1\n      pop\n        /* \"#utility.yul\":3882:4051   */\n      swap3\n      swap2\n      pop\n      pop\n      jump\t// out\n        /* \"#utility.yul\":4057:4289   */\n    tag_178:\n        /* \"#utility.yul\":4197:4231   */\n      0x5468652070726f706f73616c20726567697374726174696f6e206973206e6f74\n        /* \"#utility.yul\":4193:4194   */\n      0x00\n        /* \"#utility.yul\":4185:4191   */\n      dup3\n        /* \"#utility.yul\":4181:4195   */\n      add\n        /* \"#utility.yul\":4174:4232   */\n      mstore\n        /* \"#utility.yul\":4266:4281   */\n      0x2073746172746564207965742e00000000000000000000000000000000000000\n        /* \"#utility.yul\":4261:4263   */\n      0x20\n        /* \"#utility.yul\":4253:4259   */\n      dup3\n        /* \"#utility.yul\":4249:4264   */\n      add\n        /* \"#utility.yul\":4242:4282   */\n      mstore\n        /* \"#utility.yul\":4057:4289   */\n      pop\n      jump\t// out\n        /* \"#utility.yul\":4295:4661   */\n    tag_179:\n        /* \"#utility.yul\":4437:4440   */\n      0x00\n        /* \"#utility.yul\":4458:4525   */\n      tag_259\n        /* \"#utility.yul\":4522:4524   */\n      0x2d\n        /* \"#utility.yul\":4517:4520   */\n      dup4\n        /* \"#utility.yul\":4458:4525   */\n      tag_177\n      jump\t// in\n    tag_259:\n        /* \"#utility.yul\":4451:4525   */\n      swap2\n      pop\n        /* \"#utility.yul\":4534:4627   */\n      tag_260\n        /* \"#utility.yul\":4623:4626   */\n      dup3\n        /* \"#utility.yul\":4534:4627   */\n      tag_178\n      jump\t// in\n    tag_260:\n        /* \"#utility.yul\":4652:4654   */\n      0x40\n        /* \"#utility.yul\":4647:4650   */\n      dup3\n        /* \"#utility.yul\":4643:4655   */\n      add\n        /* \"#utility.yul\":4636:4655   */\n      swap1\n      pop\n        /* \"#utility.yul\":4295:4661   */\n      swap2\n      swap1\n      pop\n      jump\t// out\n        /* \"#utility.yul\":4667:5086   */\n    tag_54:\n        /* \"#utility.yul\":4833:4837   */\n      0x00\n        /* \"#utility.yul\":4871:4873   */\n      0x20\n        /* \"#utility.yul\":4860:4869   */\n      dup3\n        /* \"#utility.yul\":4856:4874   */\n      add\n        /* \"#utility.yul\":4848:4874   */\n      swap1\n      pop\n        /* \"#utility.yul\":4920:4929   */\n      dup2\n        /* \"#utility.yul\":4914:4918   */\n      dup2\n        /* \"#utility.yul\":4910:4930   */\n      sub\n        /* \"#utility.yul\":4906:4907   */\n      0x00\n        /* \"#utility.yul\":4895:4904   */\n      dup4\n        /* \"#utility.yul\":4891:4908   */\n      add\n        /* \"#utility.yul\":4884:4931   */\n      mstore\n        /* \"#utility.yul\":4948:5079   */\n      tag_262\n        /* \"#utility.yul\":5074:5078   */\n      dup2\n        /* \"#utility.yul\":4948:5079   */\n      tag_179\n      jump\t// in\n    tag_262:\n        /* \"#utility.yul\":4940:5079   */\n      swap1\n      pop\n        /* \"#utility.yul\":4667:5086   */\n      swap2\n      swap1\n      pop\n      jump\t// out\n        /* \"#utility.yul\":5092:5214   */\n    tag_180:\n        /* \"#utility.yul\":5182:5183   */\n      0x06\n        /* \"#utility.yul\":5175:5180   */\n      dup2\n        /* \"#utility.yul\":5172:5184   */\n      lt\n        /* \"#utility.yul\":5162:5208   */\n      tag_264\n      jumpi\n        /* \"#utility.yul\":5188:5206   */\n      tag_265\n      tag_49\n      jump\t// in\n    tag_265:\n        /* \"#utility.yul\":5162:5208   */\n    tag_264:\n        /* \"#utility.yul\":5092:5214   */\n      pop\n      jump\t// out\n        /* \"#utility.yul\":5220:5365   */\n    tag_181:\n        /* \"#utility.yul\":5274:5281   */\n      0x00\n        /* \"#utility.yul\":5303:5308   */\n      dup2\n        /* \"#utility.yul\":5292:5308   */\n      swap1\n      pop\n        /* \"#utility.yul\":5309:5359   */\n      tag_267\n        /* \"#utility.yul\":5353:5358   */\n      dup3\n        /* \"#utility.yul\":5309:5359   */\n      tag_180\n      jump\t// in\n    tag_267:\n        /* \"#utility.yul\":5220:5365   */\n      swap2\n      swap1\n      pop\n      jump\t// out\n        /* \"#utility.yul\":5371:5516   */\n    tag_182:\n        /* \"#utility.yul\":5436:5445   */\n      0x00\n        /* \"#utility.yul\":5469:5510   */\n      tag_269\n        /* \"#utility.yul\":5504:5509   */\n      dup3\n        /* \"#utility.yul\":5469:5510   */\n      tag_181\n      jump\t// in\n    tag_269:\n        /* \"#utility.yul\":5456:5510   */\n      swap1\n      pop\n        /* \"#utility.yul\":5371:5516   */\n      swap2\n      swap1\n      pop\n      jump\t// out\n        /* \"#utility.yul\":5522:5683   */\n    tag_183:\n        /* \"#utility.yul\":5624:5676   */\n      tag_271\n        /* \"#utility.yul\":5670:5675   */\n      dup2\n        /* \"#utility.yul\":5624:5676   */\n      tag_182\n      jump\t// in\n    tag_271:\n        /* \"#utility.yul\":5619:5622   */\n      dup3\n        /* \"#utility.yul\":5612:5677   */\n      mstore\n        /* \"#utility.yul\":5522:5683   */\n      pop\n      pop\n      jump\t// out\n        /* \"#utility.yul\":5689:6081   */\n    tag_58:\n        /* \"#utility.yul\":5840:5844   */\n      0x00\n        /* \"#utility.yul\":5878:5880   */\n      0x40\n        /* \"#utility.yul\":5867:5876   */\n      dup3\n        /* \"#utility.yul\":5863:5881   */\n      add\n        /* \"#utility.yul\":5855:5881   */\n      swap1\n      pop\n        /* \"#utility.yul\":5891:5977   */\n      tag_273\n        /* \"#utility.yul\":5974:5975   */\n      0x00\n        /* \"#utility.yul\":5963:5972   */\n      dup4\n        /* \"#utility.yul\":5959:5976   */\n      add\n        /* \"#utility.yul\":5950:5956   */\n      dup6\n        /* \"#utility.yul\":5891:5977   */\n      tag_183\n      jump\t// in\n    tag_273:\n        /* \"#utility.yul\":5987:6074   */\n      tag_274\n        /* \"#utility.yul\":6070:6072   */\n      0x20\n        /* \"#utility.yul\":6059:6068   */\n      dup4\n        /* \"#utility.yul\":6055:6073   */\n      add\n        /* \"#utility.yul\":6046:6052   */\n      dup5\n        /* \"#utility.yul\":5987:6074   */\n      tag_183\n      jump\t// in\n    tag_274:\n        /* \"#utility.yul\":5689:6081   */\n      swap4\n      swap3\n      pop\n      pop\n      pop\n      jump\t// out\n        /* \"#utility.yul\":6087:6312   */\n    tag_184:\n        /* \"#utility.yul\":6227:6261   */\n      0x54686520766f74696e672073657373696f6e206973206e6f7420737461727465\n        /* \"#utility.yul\":6223:6224   */\n      0x00\n        /* \"#utility.yul\":6215:6221   */\n      dup3\n        /* \"#utility.yul\":6211:6225   */\n      add\n        /* \"#utility.yul\":6204:6262   */\n      mstore\n        /* \"#utility.yul\":6296:6304   */\n      0x64207965742e0000000000000000000000000000000000000000000000000000\n        /* \"#utility.yul\":6291:6293   */\n      0x20\n        /* \"#utility.yul\":6283:6289   */\n      dup3\n        /* \"#utility.yul\":6279:6294   */\n      add\n        /* \"#utility.yul\":6272:6305   */\n      mstore\n        /* \"#utility.yul\":6087:6312   */\n      pop\n      jump\t// out\n        /* \"#utility.yul\":6318:6684   */\n    tag_185:\n        /* \"#utility.yul\":6460:6463   */\n      0x00\n        /* \"#utility.yul\":6481:6548   */\n      tag_277\n        /* \"#utility.yul\":6545:6547   */\n      0x26\n        /* \"#utility.yul\":6540:6543   */\n      dup4\n        /* \"#utility.yul\":6481:6548   */\n      tag_177\n      jump\t// in\n    tag_277:\n        /* \"#utility.yul\":6474:6548   */\n      swap2\n      pop\n        /* \"#utility.yul\":6557:6650   */\n      tag_278\n        /* \"#utility.yul\":6646:6649   */\n      dup3\n        /* \"#utility.yul\":6557:6650   */\n      tag_184\n      jump\t// in\n    tag_278:\n        /* \"#utility.yul\":6675:6677   */\n      0x40\n        /* \"#utility.yul\":6670:6673   */\n      dup3\n        /* \"#utility.yul\":6666:6678   */\n      add\n        /* \"#utility.yul\":6659:6678   */\n      swap1\n      pop\n        /* \"#utility.yul\":6318:6684   */\n      swap2\n      swap1\n      pop\n      jump\t// out\n        /* \"#utility.yul\":6690:7109   */\n    tag_66:\n        /* \"#utility.yul\":6856:6860   */\n      0x00\n        /* \"#utility.yul\":6894:6896   */\n      0x20\n        /* \"#utility.yul\":6883:6892   */\n      dup3\n        /* \"#utility.yul\":6879:6897   */\n      add\n        /* \"#utility.yul\":6871:6897   */\n      swap1\n      pop\n        /* \"#utility.yul\":6943:6952   */\n      dup2\n        /* \"#utility.yul\":6937:6941   */\n      dup2\n        /* \"#utility.yul\":6933:6953   */\n      sub\n        /* \"#utility.yul\":6929:6930   */\n      0x00\n        /* \"#utility.yul\":6918:6927   */\n      dup4\n        /* \"#utility.yul\":6914:6931   */\n      add\n        /* \"#utility.yul\":6907:6954   */\n      mstore\n        /* \"#utility.yul\":6971:7102   */\n      tag_280\n        /* \"#utility.yul\":7097:7101   */\n      dup2\n        /* \"#utility.yul\":6971:7102   */\n      tag_185\n      jump\t// in\n    tag_280:\n        /* \"#utility.yul\":6963:7102   */\n      swap1\n      pop\n        /* \"#utility.yul\":6690:7109   */\n      swap2\n      swap1\n      pop\n      jump\t// out\n        /* \"#utility.yul\":7115:7297   */\n    tag_186:\n        /* \"#utility.yul\":7255:7289   */\n      0x596f75206d7573742062652077686974656c697374656420746f20766f74652e\n        /* \"#utility.yul\":7251:7252   */\n      0x00\n        /* \"#utility.yul\":7243:7249   */\n      dup3\n        /* \"#utility.yul\":7239:7253   */\n      add\n        /* \"#utility.yul\":7232:7290   */\n      mstore\n        /* \"#utility.yul\":7115:7297   */\n      pop\n      jump\t// out\n        /* \"#utility.yul\":7303:7669   */\n    tag_187:\n        /* \"#utility.yul\":7445:7448   */\n      0x00\n        /* \"#utility.yul\":7466:7533   */\n      tag_283\n        /* \"#utility.yul\":7530:7532   */\n      0x20\n        /* \"#utility.yul\":7525:7528   */\n      dup4\n        /* \"#utility.yul\":7466:7533   */\n      tag_177\n      jump\t// in\n    tag_283:\n        /* \"#utility.yul\":7459:7533   */\n      swap2\n      pop\n        /* \"#utility.yul\":7542:7635   */\n      tag_284\n        /* \"#utility.yul\":7631:7634   */\n      dup3\n        /* \"#utility.yul\":7542:7635   */\n      tag_186\n      jump\t// in\n    tag_284:\n        /* \"#utility.yul\":7660:7662   */\n      0x20\n        /* \"#utility.yul\":7655:7658   */\n      dup3\n        /* \"#utility.yul\":7651:7663   */\n      add\n        /* \"#utility.yul\":7644:7663   */\n      swap1\n      pop\n        /* \"#utility.yul\":7303:7669   */\n      swap2\n      swap1\n      pop\n      jump\t// out\n        /* \"#utility.yul\":7675:8094   */\n    tag_69:\n        /* \"#utility.yul\":7841:7845   */\n      0x00\n        /* \"#utility.yul\":7879:7881   */\n      0x20\n        /* \"#utility.yul\":7868:7877   */\n      dup3\n        /* \"#utility.yul\":7864:7882   */\n      add\n        /* \"#utility.yul\":7856:7882   */\n      swap1\n      pop\n        /* \"#utility.yul\":7928:7937   */\n      dup2\n        /* \"#utility.yul\":7922:7926   */\n      dup2\n        /* \"#utility.yul\":7918:7938   */\n      sub\n        /* \"#utility.yul\":7914:7915   */\n      0x00\n        /* \"#utility.yul\":7903:7912   */\n      dup4\n        /* \"#utility.yul\":7899:7916   */\n      add\n        /* \"#utility.yul\":7892:7939   */\n      mstore\n        /* \"#utility.yul\":7956:8087   */\n      tag_286\n        /* \"#utility.yul\":8082:8086   */\n      dup2\n        /* \"#utility.yul\":7956:8087   */\n      tag_187\n      jump\t// in\n    tag_286:\n        /* \"#utility.yul\":7948:8087   */\n      swap1\n      pop\n        /* \"#utility.yul\":7675:8094   */\n      swap2\n      swap1\n      pop\n      jump\t// out\n        /* \"#utility.yul\":8100:8268   */\n    tag_188:\n        /* \"#utility.yul\":8240:8260   */\n      0x596f7520616c726561647920766f7465642e0000000000000000000000000000\n        /* \"#utility.yul\":8236:8237   */\n      0x00\n        /* \"#utility.yul\":8228:8234   */\n      dup3\n        /* \"#utility.yul\":8224:8238   */\n      add\n        /* \"#utility.yul\":8217:8261   */\n      mstore\n        /* \"#utility.yul\":8100:8268   */\n      pop\n      jump\t// out\n        /* \"#utility.yul\":8274:8640   */\n    tag_189:\n        /* \"#utility.yul\":8416:8419   */\n      0x00\n        /* \"#utility.yul\":8437:8504   */\n      tag_289\n        /* \"#utility.yul\":8501:8503   */\n      0x12\n        /* \"#utility.yul\":8496:8499   */\n      dup4\n        /* \"#utility.yul\":8437:8504   */\n      tag_177\n      jump\t// in\n    tag_289:\n        /* \"#utility.yul\":8430:8504   */\n      swap2\n      pop\n        /* \"#utility.yul\":8513:8606   */\n      tag_290\n        /* \"#utility.yul\":8602:8605   */\n      dup3\n        /* \"#utility.yul\":8513:8606   */\n      tag_188\n      jump\t// in\n    tag_290:\n        /* \"#utility.yul\":8631:8633   */\n      0x20\n        /* \"#utility.yul\":8626:8629   */\n      dup3\n        /* \"#utility.yul\":8622:8634   */\n      add\n        /* \"#utility.yul\":8615:8634   */\n      swap1\n      pop\n        /* \"#utility.yul\":8274:8640   */\n      swap2\n      swap1\n      pop\n      jump\t// out\n        /* \"#utility.yul\":8646:9065   */\n    tag_72:\n        /* \"#utility.yul\":8812:8816   */\n      0x00\n        /* \"#utility.yul\":8850:8852   */\n      0x20\n        /* \"#utility.yul\":8839:8848   */\n      dup3\n        /* \"#utility.yul\":8835:8853   */\n      add\n        /* \"#utility.yul\":8827:8853   */\n      swap1\n      pop\n        /* \"#utility.yul\":8899:8908   */\n      dup2\n        /* \"#utility.yul\":8893:8897   */\n      dup2\n        /* \"#utility.yul\":8889:8909   */\n      sub\n        /* \"#utility.yul\":8885:8886   */\n      0x00\n        /* \"#utility.yul\":8874:8883   */\n      dup4\n        /* \"#utility.yul\":8870:8887   */\n      add\n        /* \"#utility.yul\":8863:8910   */\n      mstore\n        /* \"#utility.yul\":8927:9058   */\n      tag_292\n        /* \"#utility.yul\":9053:9057   */\n      dup2\n        /* \"#utility.yul\":8927:9058   */\n      tag_189\n      jump\t// in\n    tag_292:\n        /* \"#utility.yul\":8919:9058   */\n      swap1\n      pop\n        /* \"#utility.yul\":8646:9065   */\n      swap2\n      swap1\n      pop\n      jump\t// out\n        /* \"#utility.yul\":9071:9251   */\n    tag_75:\n        /* \"#utility.yul\":9119:9196   */\n      0x4e487b7100000000000000000000000000000000000000000000000000000000\n        /* \"#utility.yul\":9116:9117   */\n      0x00\n        /* \"#utility.yul\":9109:9197   */\n      mstore\n        /* \"#utility.yul\":9216:9220   */\n      0x32\n        /* \"#utility.yul\":9213:9214   */\n      0x04\n        /* \"#utility.yul\":9206:9221   */\n      mstore\n        /* \"#utility.yul\":9240:9244   */\n      0x24\n        /* \"#utility.yul\":9237:9238   */\n      0x00\n        /* \"#utility.yul\":9230:9245   */\n      revert\n        /* \"#utility.yul\":9257:9437   */\n    tag_190:\n        /* \"#utility.yul\":9305:9382   */\n      0x4e487b7100000000000000000000000000000000000000000000000000000000\n        /* \"#utility.yul\":9302:9303   */\n      0x00\n        /* \"#utility.yul\":9295:9383   */\n      mstore\n        /* \"#utility.yul\":9402:9406   */\n      0x22\n        /* \"#utility.yul\":9399:9400   */\n      0x04\n        /* \"#utility.yul\":9392:9407   */\n      mstore\n        /* \"#utility.yul\":9426:9430   */\n      0x24\n        /* \"#utility.yul\":9423:9424   */\n      0x00\n        /* \"#utility.yul\":9416:9431   */\n      revert\n        /* \"#utility.yul\":9443:9763   */\n    tag_78:\n        /* \"#utility.yul\":9487:9493   */\n      0x00\n        /* \"#utility.yul\":9524:9525   */\n      0x02\n        /* \"#utility.yul\":9518:9522   */\n      dup3\n        /* \"#utility.yul\":9514:9526   */\n      div\n        /* \"#utility.yul\":9504:9526   */\n      swap1\n      pop\n        /* \"#utility.yul\":9571:9572   */\n      0x01\n        /* \"#utility.yul\":9565:9569   */\n      dup3\n        /* \"#utility.yul\":9561:9573   */\n      and\n        /* \"#utility.yul\":9592:9610   */\n      dup1\n        /* \"#utility.yul\":9582:9663   */\n      tag_296\n      jumpi\n        /* \"#utility.yul\":9648:9652   */\n      0x7f\n        /* \"#utility.yul\":9640:9646   */\n      dup3\n        /* \"#utility.yul\":9636:9653   */\n      and\n        /* \"#utility.yul\":9626:9653   */\n      swap2\n      pop\n        /* \"#utility.yul\":9582:9663   */\n    tag_296:\n        /* \"#utility.yul\":9710:9712   */\n      0x20\n        /* \"#utility.yul\":9702:9708   */\n      dup3\n        /* \"#utility.yul\":9699:9713   */\n      lt\n        /* \"#utility.yul\":9679:9697   */\n      dup2\n        /* \"#utility.yul\":9676:9714   */\n      sub\n        /* \"#utility.yul\":9673:9757   */\n      tag_297\n      jumpi\n        /* \"#utility.yul\":9729:9747   */\n      tag_298\n      tag_190\n      jump\t// in\n    tag_298:\n        /* \"#utility.yul\":9673:9757   */\n    tag_297:\n        /* \"#utility.yul\":9494:9763   */\n      pop\n        /* \"#utility.yul\":9443:9763   */\n      swap2\n      swap1\n      pop\n      jump\t// out\n        /* \"#utility.yul\":9769:9949   */\n    tag_191:\n        /* \"#utility.yul\":9909:9941   */\n      0x546869732070726f706f73616c20646f6573206e6f74206578697374732e0000\n        /* \"#utility.yul\":9905:9906   */\n      0x00\n        /* \"#utility.yul\":9897:9903   */\n      dup3\n        /* \"#utility.yul\":9893:9907   */\n      add\n        /* \"#utility.yul\":9886:9942   */\n      mstore\n        /* \"#utility.yul\":9769:9949   */\n      pop\n      jump\t// out\n        /* \"#utility.yul\":9955:10321   */\n    tag_192:\n        /* \"#utility.yul\":10097:10100   */\n      0x00\n        /* \"#utility.yul\":10118:10185   */\n      tag_301\n        /* \"#utility.yul\":10182:10184   */\n      0x1e\n        /* \"#utility.yul\":10177:10180   */\n      dup4\n        /* \"#utility.yul\":10118:10185   */\n      tag_177\n      jump\t// in\n    tag_301:\n        /* \"#utility.yul\":10111:10185   */\n      swap2\n      pop\n        /* \"#utility.yul\":10194:10287   */\n      tag_302\n        /* \"#utility.yul\":10283:10286   */\n      dup3\n        /* \"#utility.yul\":10194:10287   */\n      tag_191\n      jump\t// in\n    tag_302:\n        /* \"#utility.yul\":10312:10314   */\n      0x20\n        /* \"#utility.yul\":10307:10310   */\n      dup3\n        /* \"#utility.yul\":10303:10315   */\n      add\n        /* \"#utility.yul\":10296:10315   */\n      swap1\n      pop\n        /* \"#utility.yul\":9955:10321   */\n      swap2\n      swap1\n      pop\n      jump\t// out\n        /* \"#utility.yul\":10327:10746   */\n    tag_81:\n        /* \"#utility.yul\":10493:10497   */\n      0x00\n        /* \"#utility.yul\":10531:10533   */\n      0x20\n        /* \"#utility.yul\":10520:10529   */\n      dup3\n        /* \"#utility.yul\":10516:10534   */\n      add\n        /* \"#utility.yul\":10508:10534   */\n      swap1\n      pop\n        /* \"#utility.yul\":10580:10589   */\n      dup2\n        /* \"#utility.yul\":10574:10578   */\n      dup2\n        /* \"#utility.yul\":10570:10590   */\n      sub\n        /* \"#utility.yul\":10566:10567   */\n      0x00\n        /* \"#utility.yul\":10555:10564   */\n      dup4\n        /* \"#utility.yul\":10551:10568   */\n      add\n        /* \"#utility.yul\":10544:10591   */\n      mstore\n        /* \"#utility.yul\":10608:10739   */\n      tag_304\n        /* \"#utility.yul\":10734:10738   */\n      dup2\n        /* \"#utility.yul\":10608:10739   */\n      tag_192\n      jump\t// in\n    tag_304:\n        /* \"#utility.yul\":10600:10739   */\n      swap1\n      pop\n        /* \"#utility.yul\":10327:10746   */\n      swap2\n      swap1\n      pop\n      jump\t// out\n        /* \"#utility.yul\":10752:10972   */\n    tag_193:\n        /* \"#utility.yul\":10892:10926   */\n      0x54686520766f74657220697320616c72656164792077686974656c6973746564\n        /* \"#utility.yul\":10888:10889   */\n      0x00\n        /* \"#utility.yul\":10880:10886   */\n      dup3\n        /* \"#utility.yul\":10876:10890   */\n      add\n        /* \"#utility.yul\":10869:10927   */\n      mstore\n        /* \"#utility.yul\":10961:10964   */\n      0x2e00000000000000000000000000000000000000000000000000000000000000\n        /* \"#utility.yul\":10956:10958   */\n      0x20\n        /* \"#utility.yul\":10948:10954   */\n      dup3\n        /* \"#utility.yul\":10944:10959   */\n      add\n        /* \"#utility.yul\":10937:10965   */\n      mstore\n        /* \"#utility.yul\":10752:10972   */\n      pop\n      jump\t// out\n        /* \"#utility.yul\":10978:11344   */\n    tag_194:\n        /* \"#utility.yul\":11120:11123   */\n      0x00\n        /* \"#utility.yul\":11141:11208   */\n      tag_307\n        /* \"#utility.yul\":11205:11207   */\n      0x21\n        /* \"#utility.yul\":11200:11203   */\n      dup4\n        /* \"#utility.yul\":11141:11208   */\n      tag_177\n      jump\t// in\n    tag_307:\n        /* \"#utility.yul\":11134:11208   */\n      swap2\n      pop\n        /* \"#utility.yul\":11217:11310   */\n      tag_308\n        /* \"#utility.yul\":11306:11309   */\n      dup3\n        /* \"#utility.yul\":11217:11310   */\n      tag_193\n      jump\t// in\n    tag_308:\n        /* \"#utility.yul\":11335:11337   */\n      0x40\n        /* \"#utility.yul\":11330:11333   */\n      dup3\n        /* \"#utility.yul\":11326:11338   */\n      add\n        /* \"#utility.yul\":11319:11338   */\n      swap1\n      pop\n        /* \"#utility.yul\":10978:11344   */\n      swap2\n      swap1\n      pop\n      jump\t// out\n        /* \"#utility.yul\":11350:11769   */\n    tag_87:\n        /* \"#utility.yul\":11516:11520   */\n      0x00\n        /* \"#utility.yul\":11554:11556   */\n      0x20\n        /* \"#utility.yul\":11543:11552   */\n      dup3\n        /* \"#utility.yul\":11539:11557   */\n      add\n        /* \"#utility.yul\":11531:11557   */\n      swap1\n      pop\n        /* \"#utility.yul\":11603:11612   */\n      dup2\n        /* \"#utility.yul\":11597:11601   */\n      dup2\n        /* \"#utility.yul\":11593:11613   */\n      sub\n        /* \"#utility.yul\":11589:11590   */\n      0x00\n        /* \"#utility.yul\":11578:11587   */\n      dup4\n        /* \"#utility.yul\":11574:11591   */\n      add\n        /* \"#utility.yul\":11567:11614   */\n      mstore\n        /* \"#utility.yul\":11631:11762   */\n      tag_310\n        /* \"#utility.yul\":11757:11761   */\n      dup2\n        /* \"#utility.yul\":11631:11762   */\n      tag_194\n      jump\t// in\n    tag_310:\n        /* \"#utility.yul\":11623:11762   */\n      swap1\n      pop\n        /* \"#utility.yul\":11350:11769   */\n      swap2\n      swap1\n      pop\n      jump\t// out\n        /* \"#utility.yul\":11775:11955   */\n    tag_195:\n        /* \"#utility.yul\":11823:11900   */\n      0x4e487b7100000000000000000000000000000000000000000000000000000000\n        /* \"#utility.yul\":11820:11821   */\n      0x00\n        /* \"#utility.yul\":11813:11901   */\n      mstore\n        /* \"#utility.yul\":11920:11924   */\n      0x11\n        /* \"#utility.yul\":11917:11918   */\n      0x04\n        /* \"#utility.yul\":11910:11925   */\n      mstore\n        /* \"#utility.yul\":11944:11948   */\n      0x24\n        /* \"#utility.yul\":11941:11942   */\n      0x00\n        /* \"#utility.yul\":11934:11949   */\n      revert\n        /* \"#utility.yul\":11961:12194   */\n    tag_89:\n        /* \"#utility.yul\":12000:12003   */\n      0x00\n        /* \"#utility.yul\":12023:12047   */\n      tag_313\n        /* \"#utility.yul\":12041:12046   */\n      dup3\n        /* \"#utility.yul\":12023:12047   */\n      tag_165\n      jump\t// in\n    tag_313:\n        /* \"#utility.yul\":12014:12047   */\n      swap2\n      pop\n        /* \"#utility.yul\":12069:12135   */\n      0xffffffffffffffffffffffffffffffffffffffffffffffffffffffffffffffff\n        /* \"#utility.yul\":12062:12067   */\n      dup3\n        /* \"#utility.yul\":12059:12136   */\n      sub\n        /* \"#utility.yul\":12056:12159   */\n      tag_314\n      jumpi\n        /* \"#utility.yul\":12139:12157   */\n      tag_315\n      tag_195\n      jump\t// in\n    tag_315:\n        /* \"#utility.yul\":12056:12159   */\n    tag_314:\n        /* \"#utility.yul\":12186:12187   */\n      0x01\n        /* \"#utility.yul\":12179:12184   */\n      dup3\n        /* \"#utility.yul\":12175:12188   */\n      add\n        /* \"#utility.yul\":12168:12188   */\n      swap1\n      pop\n        /* \"#utility.yul\":11961:12194   */\n      swap2\n      swap1\n      pop\n      jump\t// out\n        /* \"#utility.yul\":12200:12430   */\n    tag_196:\n        /* \"#utility.yul\":12340:12374   */\n      0x596f75206d7573742062652077686974656c697374656420746f206d616b6520\n        /* \"#utility.yul\":12336:12337   */\n      0x00\n        /* \"#utility.yul\":12328:12334   */\n      dup3\n        /* \"#utility.yul\":12324:12338   */\n      add\n        /* \"#utility.yul\":12317:12375   */\n      mstore\n        /* \"#utility.yul\":12409:12422   */\n      0x612070726f706f73616c2e000000000000000000000000000000000000000000\n        /* \"#utility.yul\":12404:12406   */\n      0x20\n        /* \"#utility.yul\":12396:12402   */\n      dup3\n        /* \"#utility.yul\":12392:12407   */\n      add\n        /* \"#utility.yul\":12385:12423   */\n      mstore\n        /* \"#utility.yul\":12200:12430   */\n      pop\n      jump\t// out\n        /* \"#utility.yul\":12436:12802   */\n    tag_197:\n        /* \"#utility.yul\":12578:12581   */\n      0x00\n        /* \"#utility.yul\":12599:12666   */\n      tag_318\n        /* \"#utility.yul\":12663:12665   */\n      0x2b\n        /* \"#utility.yul\":12658:12661   */\n      dup4\n        /* \"#utility.yul\":12599:12666   */\n      tag_177\n      jump\t// in\n    tag_318:\n        /* \"#utility.yul\":12592:12666   */\n      swap2\n      pop\n        /* \"#utility.yul\":12675:12768   */\n      tag_319\n        /* \"#utility.yul\":12764:12767   */\n      dup3\n        /* \"#utility.yul\":12675:12768   */\n      tag_196\n      jump\t// in\n    tag_319:\n        /* \"#utility.yul\":12793:12795   */\n      0x40\n        /* \"#utility.yul\":12788:12791   */\n      dup3\n        /* \"#utility.yul\":12784:12796   */\n      add\n        /* \"#utility.yul\":12777:12796   */\n      swap1\n      pop\n        /* \"#utility.yul\":12436:12802   */\n      swap2\n      swap1\n      pop\n      jump\t// out\n        /* \"#utility.yul\":12808:13227   */\n    tag_100:\n        /* \"#utility.yul\":12974:12978   */\n      0x00\n        /* \"#utility.yul\":13012:13014   */\n      0x20\n        /* \"#utility.yul\":13001:13010   */\n      dup3\n        /* \"#utility.yul\":12997:13015   */\n      add\n        /* \"#utility.yul\":12989:13015   */\n      swap1\n      pop\n        /* \"#utility.yul\":13061:13070   */\n      dup2\n        /* \"#utility.yul\":13055:13059   */\n      dup2\n        /* \"#utility.yul\":13051:13071   */\n      sub\n        /* \"#utility.yul\":13047:13048   */\n      0x00\n        /* \"#utility.yul\":13036:13045   */\n      dup4\n        /* \"#utility.yul\":13032:13049   */\n      add\n        /* \"#utility.yul\":13025:13072   */\n      mstore\n        /* \"#utility.yul\":13089:13220   */\n      tag_321\n        /* \"#utility.yul\":13215:13219   */\n      dup2\n        /* \"#utility.yul\":13089:13220   */\n      tag_197\n      jump\t// in\n    tag_321:\n        /* \"#utility.yul\":13081:13220   */\n      swap1\n      pop\n        /* \"#utility.yul\":12808:13227   */\n      swap2\n      swap1\n      pop\n      jump\t// out\n        /* \"#utility.yul\":13233:13412   */\n    tag_198:\n        /* \"#utility.yul\":13373:13404   */\n      0x5468652070726f706f73616c2063616e6e6f7420626520656d7074792e000000\n        /* \"#utility.yul\":13369:13370   */\n      0x00\n        /* \"#utility.yul\":13361:13367   */\n      dup3\n        /* \"#utility.yul\":13357:13371   */\n      add\n        /* \"#utility.yul\":13350:13405   */\n      mstore\n        /* \"#utility.yul\":13233:13412   */\n      pop\n      jump\t// out\n        /* \"#utility.yul\":13418:13784   */\n    tag_199:\n        /* \"#utility.yul\":13560:13563   */\n      0x00\n        /* \"#utility.yul\":13581:13648   */\n      tag_324\n        /* \"#utility.yul\":13645:13647   */\n      0x1d\n        /* \"#utility.yul\":13640:13643   */\n      dup4\n        /* \"#utility.yul\":13581:13648   */\n      tag_177\n      jump\t// in\n    tag_324:\n        /* \"#utility.yul\":13574:13648   */\n      swap2\n      pop\n        /* \"#utility.yul\":13657:13750   */\n      tag_325\n        /* \"#utility.yul\":13746:13749   */\n      dup3\n        /* \"#utility.yul\":13657:13750   */\n      tag_198\n      jump\t// in\n    tag_325:\n        /* \"#utility.yul\":13775:13777   */\n      0x20\n        /* \"#utility.yul\":13770:13773   */\n      dup3\n        /* \"#utility.yul\":13766:13778   */\n      add\n        /* \"#utility.yul\":13759:13778   */\n      swap1\n      pop\n        /* \"#utility.yul\":13418:13784   */\n      swap2\n      swap1\n      pop\n      jump\t// out\n        /* \"#utility.yul\":13790:14209   */\n    tag_103:\n        /* \"#utility.yul\":13956:13960   */\n      0x00\n        /* \"#utility.yul\":13994:13996   */\n      0x20\n        /* \"#utility.yul\":13983:13992   */\n      dup3\n        /* \"#utility.yul\":13979:13997   */\n      add\n        /* \"#utility.yul\":13971:13997   */\n      swap1\n      pop\n        /* \"#utility.yul\":14043:14052   */\n      dup2\n        /* \"#utility.yul\":14037:14041   */\n      dup2\n        /* \"#utility.yul\":14033:14053   */\n      sub\n        /* \"#utility.yul\":14029:14030   */\n      0x00\n        /* \"#utility.yul\":14018:14027   */\n      dup4\n        /* \"#utility.yul\":14014:14031   */\n      add\n        /* \"#utility.yul\":14007:14054   */\n      mstore\n        /* \"#utility.yul\":14071:14202   */\n      tag_327\n        /* \"#utility.yul\":14197:14201   */\n      dup2\n        /* \"#utility.yul\":14071:14202   */\n      tag_199\n      jump\t// in\n    tag_327:\n        /* \"#utility.yul\":14063:14202   */\n      swap1\n      pop\n        /* \"#utility.yul\":13790:14209   */\n      swap2\n      swap1\n      pop\n      jump\t// out\n        /* \"#utility.yul\":14215:14406   */\n    tag_108:\n        /* \"#utility.yul\":14255:14259   */\n      0x00\n        /* \"#utility.yul\":14275:14295   */\n      tag_329\n        /* \"#utility.yul\":14293:14294   */\n      dup3\n        /* \"#utility.yul\":14275:14295   */\n      tag_165\n      jump\t// in\n    tag_329:\n        /* \"#utility.yul\":14270:14295   */\n      swap2\n      pop\n        /* \"#utility.yul\":14309:14329   */\n      tag_330\n        /* \"#utility.yul\":14327:14328   */\n      dup4\n        /* \"#utility.yul\":14309:14329   */\n      tag_165\n      jump\t// in\n    tag_330:\n        /* \"#utility.yul\":14304:14329   */\n      swap3\n      pop\n        /* \"#utility.yul\":14348:14349   */\n      dup3\n        /* \"#utility.yul\":14345:14346   */\n      dup3\n        /* \"#utility.yul\":14342:14350   */\n      lt\n        /* \"#utility.yul\":14339:14373   */\n      iszero\n      tag_331\n      jumpi\n        /* \"#utility.yul\":14353:14371   */\n      tag_332\n      tag_195\n      jump\t// in\n    tag_332:\n        /* \"#utility.yul\":14339:14373   */\n    tag_331:\n        /* \"#utility.yul\":14398:14399   */\n      dup3\n        /* \"#utility.yul\":14395:14396   */\n      dup3\n        /* \"#utility.yul\":14391:14400   */\n      sub\n        /* \"#utility.yul\":14383:14400   */\n      swap1\n      pop\n        /* \"#utility.yul\":14215:14406   */\n      swap3\n      swap2\n      pop\n      pop\n      jump\t// out\n        /* \"#utility.yul\":14412:14530   */\n    tag_200:\n        /* \"#utility.yul\":14499:14523   */\n      tag_334\n        /* \"#utility.yul\":14517:14522   */\n      dup2\n        /* \"#utility.yul\":14499:14523   */\n      tag_165\n      jump\t// in\n    tag_334:\n        /* \"#utility.yul\":14494:14497   */\n      dup3\n        /* \"#utility.yul\":14487:14524   */\n      mstore\n        /* \"#utility.yul\":14412:14530   */\n      pop\n      pop\n      jump\t// out\n        /* \"#utility.yul\":14536:14758   */\n    tag_110:\n        /* \"#utility.yul\":14629:14633   */\n      0x00\n        /* \"#utility.yul\":14667:14669   */\n      0x20\n        /* \"#utility.yul\":14656:14665   */\n      dup3\n        /* \"#utility.yul\":14652:14670   */\n      add\n        /* \"#utility.yul\":14644:14670   */\n      swap1\n      pop\n        /* \"#utility.yul\":14680:14751   */\n      tag_336\n        /* \"#utility.yul\":14748:14749   */\n      0x00\n        /* \"#utility.yul\":14737:14746   */\n      dup4\n        /* \"#utility.yul\":14733:14750   */\n      add\n        /* \"#utility.yul\":14724:14730   */\n      dup5\n        /* \"#utility.yul\":14680:14751   */\n      tag_200\n      jump\t// in\n    tag_336:\n        /* \"#utility.yul\":14536:14758   */\n      swap3\n      swap2\n      pop\n      pop\n      jump\t// out\n        /* \"#utility.yul\":14764:15013   */\n    tag_201:\n        /* \"#utility.yul\":14904:14938   */\n      0x4e656564206174206c6561737420322077686974656c697374656420766f7465\n        /* \"#utility.yul\":14900:14901   */\n      0x00\n        /* \"#utility.yul\":14892:14898   */\n      dup3\n        /* \"#utility.yul\":14888:14902   */\n      add\n        /* \"#utility.yul\":14881:14939   */\n      mstore\n        /* \"#utility.yul\":14973:15005   */\n      0x7220746f20737461727420612070726f706f73616c2073657373696f6e2e0000\n        /* \"#utility.yul\":14968:14970   */\n      0x20\n        /* \"#utility.yul\":14960:14966   */\n      dup3\n        /* \"#utility.yul\":14956:14971   */\n      add\n        /* \"#utility.yul\":14949:15006   */\n      mstore\n        /* \"#utility.yul\":14764:15013   */\n      pop\n      jump\t// out\n        /* \"#utility.yul\":15019:15385   */\n    tag_202:\n        /* \"#utility.yul\":15161:15164   */\n      0x00\n        /* \"#utility.yul\":15182:15249   */\n      tag_339\n        /* \"#utility.yul\":15246:15248   */\n      0x3e\n        /* \"#utility.yul\":15241:15244   */\n      dup4\n        /* \"#utility.yul\":15182:15249   */\n      tag_177\n      jump\t// in\n    tag_339:\n        /* \"#utility.yul\":15175:15249   */\n      swap2\n      pop\n        /* \"#utility.yul\":15258:15351   */\n      tag_340\n        /* \"#utility.yul\":15347:15350   */\n      dup3\n        /* \"#utility.yul\":15258:15351   */\n      tag_201\n      jump\t// in\n    tag_340:\n        /* \"#utility.yul\":15376:15378   */\n      0x40\n        /* \"#utility.yul\":15371:15374   */\n      dup3\n        /* \"#utility.yul\":15367:15379   */\n      add\n        /* \"#utility.yul\":15360:15379   */\n      swap1\n      pop\n        /* \"#utility.yul\":15019:15385   */\n      swap2\n      swap1\n      pop\n      jump\t// out\n        /* \"#utility.yul\":15391:15810   */\n    tag_121:\n        /* \"#utility.yul\":15557:15561   */\n      0x00\n        /* \"#utility.yul\":15595:15597   */\n      0x20\n        /* \"#utility.yul\":15584:15593   */\n      dup3\n        /* \"#utility.yul\":15580:15598   */\n      add\n        /* \"#utility.yul\":15572:15598   */\n      swap1\n      pop\n        /* \"#utility.yul\":15644:15653   */\n      dup2\n        /* \"#utility.yul\":15638:15642   */\n      dup2\n        /* \"#utility.yul\":15634:15654   */\n      sub\n        /* \"#utility.yul\":15630:15631   */\n      0x00\n        /* \"#utility.yul\":15619:15628   */\n      dup4\n        /* \"#utility.yul\":15615:15632   */\n      add\n        /* \"#utility.yul\":15608:15655   */\n      mstore\n        /* \"#utility.yul\":15672:15803   */\n      tag_342\n        /* \"#utility.yul\":15798:15802   */\n      dup2\n        /* \"#utility.yul\":15672:15803   */\n      tag_202\n      jump\t// in\n    tag_342:\n        /* \"#utility.yul\":15664:15803   */\n      swap1\n      pop\n        /* \"#utility.yul\":15391:15810   */\n      swap2\n      swap1\n      pop\n      jump\t// out\n        /* \"#utility.yul\":15816:16055   */\n    tag_203:\n        /* \"#utility.yul\":15956:15990   */\n      0x4e656564206174206c6561737420322070726f706f73616c7320746f20737461\n        /* \"#utility.yul\":15952:15953   */\n      0x00\n        /* \"#utility.yul\":15944:15950   */\n      dup3\n        /* \"#utility.yul\":15940:15954   */\n      add\n        /* \"#utility.yul\":15933:15991   */\n      mstore\n        /* \"#utility.yul\":16025:16047   */\n      0x7274206120766f74696e672073657373696f6e2e000000000000000000000000\n        /* \"#utility.yul\":16020:16022   */\n      0x20\n        /* \"#utility.yul\":16012:16018   */\n      dup3\n        /* \"#utility.yul\":16008:16023   */\n      add\n        /* \"#utility.yul\":16001:16048   */\n      mstore\n        /* \"#utility.yul\":15816:16055   */\n      pop\n      jump\t// out\n        /* \"#utility.yul\":16061:16427   */\n    tag_204:\n        /* \"#utility.yul\":16203:16206   */\n      0x00\n        /* \"#utility.yul\":16224:16291   */\n      tag_345\n        /* \"#utility.yul\":16288:16290   */\n      0x34\n        /* \"#utility.yul\":16283:16286   */\n      dup4\n        /* \"#utility.yul\":16224:16291   */\n      tag_177\n      jump\t// in\n    tag_345:\n        /* \"#utility.yul\":16217:16291   */\n      swap2\n      pop\n        /* \"#utility.yul\":16300:16393   */\n      tag_346\n        /* \"#utility.yul\":16389:16392   */\n      dup3\n        /* \"#utility.yul\":16300:16393   */\n      tag_203\n      jump\t// in\n    tag_346:\n        /* \"#utility.yul\":16418:16420   */\n      0x40\n        /* \"#utility.yul\":16413:16416   */\n      dup3\n        /* \"#utility.yul\":16409:16421   */\n      add\n        /* \"#utility.yul\":16402:16421   */\n      swap1\n      pop\n        /* \"#utility.yul\":16061:16427   */\n      swap2\n      swap1\n      pop\n      jump\t// out\n        /* \"#utility.yul\":16433:16852   */\n    tag_132:\n        /* \"#utility.yul\":16599:16603   */\n      0x00\n        /* \"#utility.yul\":16637:16639   */\n      0x20\n        /* \"#utility.yul\":16626:16635   */\n      dup3\n        /* \"#utility.yul\":16622:16640   */\n      add\n        /* \"#utility.yul\":16614:16640   */\n      swap1\n      pop\n        /* \"#utility.yul\":16686:16695   */\n      dup2\n        /* \"#utility.yul\":16680:16684   */\n      dup2\n        /* \"#utility.yul\":16676:16696   */\n      sub\n        /* \"#utility.yul\":16672:16673   */\n      0x00\n        /* \"#utility.yul\":16661:16670   */\n      dup4\n        /* \"#utility.yul\":16657:16674   */\n      add\n        /* \"#utility.yul\":16650:16697   */\n      mstore\n        /* \"#utility.yul\":16714:16845   */\n      tag_348\n        /* \"#utility.yul\":16840:16844   */\n      dup2\n        /* \"#utility.yul\":16714:16845   */\n      tag_204\n      jump\t// in\n    tag_348:\n        /* \"#utility.yul\":16706:16845   */\n      swap1\n      pop\n        /* \"#utility.yul\":16433:16852   */\n      swap2\n      swap1\n      pop\n      jump\t// out\n        /* \"#utility.yul\":16858:17083   */\n    tag_205:\n        /* \"#utility.yul\":16998:17032   */\n      0x4f776e61626c653a206e6577206f776e657220697320746865207a65726f2061\n        /* \"#utility.yul\":16994:16995   */\n      0x00\n        /* \"#utility.yul\":16986:16992   */\n      dup3\n        /* \"#utility.yul\":16982:16996   */\n      add\n        /* \"#utility.yul\":16975:17033   */\n      mstore\n        /* \"#utility.yul\":17067:17075   */\n      0x6464726573730000000000000000000000000000000000000000000000000000\n        /* \"#utility.yul\":17062:17064   */\n      0x20\n        /* \"#utility.yul\":17054:17060   */\n      dup3\n        /* \"#utility.yul\":17050:17065   */\n      add\n        /* \"#utility.yul\":17043:17076   */\n      mstore\n        /* \"#utility.yul\":16858:17083   */\n      pop\n      jump\t// out\n        /* \"#utility.yul\":17089:17455   */\n    tag_206:\n        /* \"#utility.yul\":17231:17234   */\n      0x00\n        /* \"#utility.yul\":17252:17319   */\n      tag_351\n        /* \"#utility.yul\":17316:17318   */\n      0x26\n        /* \"#utility.yul\":17311:17314   */\n      dup4\n        /* \"#utility.yul\":17252:17319   */\n      tag_177\n      jump\t// in\n    tag_351:\n        /* \"#utility.yul\":17245:17319   */\n      swap2\n      pop\n        /* \"#utility.yul\":17328:17421   */\n      tag_352\n        /* \"#utility.yul\":17417:17420   */\n      dup3\n        /* \"#utility.yul\":17328:17421   */\n      tag_205\n      jump\t// in\n    tag_352:\n        /* \"#utility.yul\":17446:17448   */\n      0x40\n        /* \"#utility.yul\":17441:17444   */\n      dup3\n        /* \"#utility.yul\":17437:17449   */\n      add\n        /* \"#utility.yul\":17430:17449   */\n      swap1\n      pop\n        /* \"#utility.yul\":17089:17455   */\n      swap2\n      swap1\n      pop\n      jump\t// out\n        /* \"#utility.yul\":17461:17880   */\n    tag_141:\n        /* \"#utility.yul\":17627:17631   */\n      0x00\n        /* \"#utility.yul\":17665:17667   */\n      0x20\n        /* \"#utility.yul\":17654:17663   */\n      dup3\n        /* \"#utility.yul\":17650:17668   */\n      add\n        /* \"#utility.yul\":17642:17668   */\n      swap1\n      pop\n        /* \"#utility.yul\":17714:17723   */\n      dup2\n        /* \"#utility.yul\":17708:17712   */\n      dup2\n        /* \"#utility.yul\":17704:17724   */\n      sub\n        /* \"#utility.yul\":17700:17701   */\n      0x00\n        /* \"#utility.yul\":17689:17698   */\n      dup4\n        /* \"#utility.yul\":17685:17702   */\n      add\n        /* \"#utility.yul\":17678:17725   */\n      mstore\n        /* \"#utility.yul\":17742:17873   */\n      tag_354\n        /* \"#utility.yul\":17868:17872   */\n      dup2\n        /* \"#utility.yul\":17742:17873   */\n      tag_206\n      jump\t// in\n    tag_354:\n        /* \"#utility.yul\":17734:17873   */\n      swap1\n      pop\n        /* \"#utility.yul\":17461:17880   */\n      swap2\n      swap1\n      pop\n      jump\t// out\n        /* \"#utility.yul\":17886:18068   */\n    tag_207:\n        /* \"#utility.yul\":18026:18060   */\n      0x4f776e61626c653a2063616c6c6572206973206e6f7420746865206f776e6572\n        /* \"#utility.yul\":18022:18023   */\n      0x00\n        /* \"#utility.yul\":18014:18020   */\n      dup3\n        /* \"#utility.yul\":18010:18024   */\n      add\n        /* \"#utility.yul\":18003:18061   */\n      mstore\n        /* \"#utility.yul\":17886:18068   */\n      pop\n      jump\t// out\n        /* \"#utility.yul\":18074:18440   */\n    tag_208:\n        /* \"#utility.yul\":18216:18219   */\n      0x00\n        /* \"#utility.yul\":18237:18304   */\n      tag_357\n        /* \"#utility.yul\":18301:18303   */\n      0x20\n        /* \"#utility.yul\":18296:18299   */\n      dup4\n        /* \"#utility.yul\":18237:18304   */\n      tag_177\n      jump\t// in\n    tag_357:\n        /* \"#utility.yul\":18230:18304   */\n      swap2\n      pop\n        /* \"#utility.yul\":18313:18406   */\n      tag_358\n        /* \"#utility.yul\":18402:18405   */\n      dup3\n        /* \"#utility.yul\":18313:18406   */\n      tag_207\n      jump\t// in\n    tag_358:\n        /* \"#utility.yul\":18431:18433   */\n      0x20\n        /* \"#utility.yul\":18426:18429   */\n      dup3\n        /* \"#utility.yul\":18422:18434   */\n      add\n        /* \"#utility.yul\":18415:18434   */\n      swap1\n      pop\n        /* \"#utility.yul\":18074:18440   */\n      swap2\n      swap1\n      pop\n      jump\t// out\n        /* \"#utility.yul\":18446:18865   */\n    tag_149:\n        /* \"#utility.yul\":18612:18616   */\n      0x00\n        /* \"#utility.yul\":18650:18652   */\n      0x20\n        /* \"#utility.yul\":18639:18648   */\n      dup3\n        /* \"#utility.yul\":18635:18653   */\n      add\n        /* \"#utility.yul\":18627:18653   */\n      swap1\n      pop\n        /* \"#utility.yul\":18699:18708   */\n      dup2\n        /* \"#utility.yul\":18693:18697   */\n      dup2\n        /* \"#utility.yul\":18689:18709   */\n      sub\n        /* \"#utility.yul\":18685:18686   */\n      0x00\n        /* \"#utility.yul\":18674:18683   */\n      dup4\n        /* \"#utility.yul\":18670:18687   */\n      add\n        /* \"#utility.yul\":18663:18710   */\n      mstore\n        /* \"#utility.yul\":18727:18858   */\n      tag_360\n        /* \"#utility.yul\":18853:18857   */\n      dup2\n        /* \"#utility.yul\":18727:18858   */\n      tag_208\n      jump\t// in\n    tag_360:\n        /* \"#utility.yul\":18719:18858   */\n      swap1\n      pop\n        /* \"#utility.yul\":18446:18865   */\n      swap2\n      swap1\n      pop\n      jump\t// out\n\n    auxdata: 0xa264697066735822122023643f5c9d1f0cdd5836bdfaba6201acffb7b0c283aff6b868ee2982f1b6222b64736f6c634300080d0033\n}\n",
				"bytecode": {
					"linkReferences": {},
					"object": "6080604052600060025534801561001557600080fd5b5061003261002761003760201b60201c565b61003f60201b60201c565b610103565b600033905090565b60008060009054906101000a900473ffffffffffffffffffffffffffffffffffffffff169050816000806101000a81548173ffffffffffffffffffffffffffffffffffffffff021916908373ffffffffffffffffffffffffffffffffffffffff1602179055508173ffffffffffffffffffffffffffffffffffffffff168173ffffffffffffffffffffffffffffffffffffffff167f8be0079c531659141344cd1fd0a4f28419497f9722a3daafe3b4186f6b6457e060405160405180910390a35050565b6117d7806101126000396000f3fe608060405234801561001057600080fd5b506004361061009e5760003560e01c80637669d79e116100665780637669d79e1461010b5780638da5cb5b146101155780638e7ea5b214610133578063cf278c741461013d578063f2fde38b146101475761009e565b806304456224146100a35780633b0ebff4146100ad57806343e20a1d146100c95780635f39ff21146100e5578063715018a614610101575b600080fd5b6100ab610163565b005b6100c760048036038101906100c29190610dde565b61026b565b005b6100e360048036038101906100de9190610e69565b610517565b005b6100ff60048036038101906100fa9190610efb565b6106af565b005b61010961093e565b005b610113610952565b005b61011d610a29565b60405161012a9190610f57565b60405180910390f35b61013b610a52565b005b610145610a54565b005b610161600480360381019061015c9190610e69565b610b2e565b005b61016b610bb1565b6001600581111561017f5761017e610f72565b5b600560009054906101000a900460ff1660058111156101a1576101a0610f72565b5b146101e1576040517f08c379a00000000000000000000000000000000000000000000000000000000081526004016101d890611024565b60405180910390fd5b6000600560009054906101000a900460ff1690506002600560006101000a81548160ff0219169083600581111561021b5761021a610f72565b5b02179055507f0a97a4ee45751e2abf3e4fc8946939630b11b371ea8ae39ccdc3056e98f5cc3f81600560009054906101000a900460ff1660405161026092919061108c565b60405180910390a150565b6003600581111561027f5761027e610f72565b5b600560009054906101000a900460ff1660058111156102a1576102a0610f72565b5b146102e1576040517f08c379a00000000000000000000000000000000000000000000000000000000081526004016102d890611127565b60405180910390fd5b600160003373ffffffffffffffffffffffffffffffffffffffff1673ffffffffffffffffffffffffffffffffffffffff16815260200190815260200160002060000160009054906101000a900460ff16610370576040517f08c379a000000000000000000000000000000000000000000000000000000000815260040161036790611193565b60405180910390fd5b600160003373ffffffffffffffffffffffffffffffffffffffff1673ffffffffffffffffffffffffffffffffffffffff16815260200190815260200160002060000160019054906101000a900460ff166103ff576040517f08c379a00000000000000000000000000000000000000000000000000000000081526004016103f6906111ff565b60405180910390fd5b6000600482815481106104155761041461121f565b5b906000526020600020906002020160000180546104319061127d565b905011610473576040517f08c379a000000000000000000000000000000000000000000000000000000000815260040161046a906112fa565b60405180910390fd5b80600160003373ffffffffffffffffffffffffffffffffffffffff1673ffffffffffffffffffffffffffffffffffffffff1681526020019081526020016000206001018190555060018060003373ffffffffffffffffffffffffffffffffffffffff1673ffffffffffffffffffffffffffffffffffffffff16815260200190815260200160002060000160016101000a81548160ff02191690831515021790555050565b61051f610bb1565b600160008273ffffffffffffffffffffffffffffffffffffffff1673ffffffffffffffffffffffffffffffffffffffff16815260200190815260200160002060000160009054906101000a900460ff16156105af576040517f08c379a00000000000000000000000000000000000000000000000000000000081526004016105a69061138c565b60405180910390fd5b60405180606001604052806001151581526020016000151581526020016000815250600160008373ffffffffffffffffffffffffffffffffffffffff1673ffffffffffffffffffffffffffffffffffffffff16815260200190815260200160002060008201518160000160006101000a81548160ff02191690831515021790555060208201518160000160016101000a81548160ff0219169083151502179055506040820151816001015590505060026000815480929190610670906113db565b91905055507fb6be2187d059cc2a55fe29e0e503b566e1e0f8c8780096e185429350acffd3dd816040516106a49190610f57565b60405180910390a150565b600160058111156106c3576106c2610f72565b5b600560009054906101000a900460ff1660058111156106e5576106e4610f72565b5b14610725576040517f08c379a000000000000000000000000000000000000000000000000000000000815260040161071c90611024565b60405180910390fd5b600160003373ffffffffffffffffffffffffffffffffffffffff1673ffffffffffffffffffffffffffffffffffffffff16815260200190815260200160002060000160009054906101000a900460ff166107b4576040517f08c379a00000000000000000000000000000000000000000000000000000000081526004016107ab90611495565b60405180910390fd5b600082829050116107fa576040517f08c379a00000000000000000000000000000000000000000000000000000000081526004016107f190611501565b60405180910390fd5b6004604051806040016040528084848080601f016020809104026020016040519081016040528093929190818152602001838380828437600081840152601f19601f82011690508083019250505050505050815260200160008152509080600181540180825580915050600190039060005260206000209060020201600090919091909150600082015181600001908051906020019061089b929190610cfb565b50602082015181600101555050600060016004805490506108bc9190611521565b905080600360003373ffffffffffffffffffffffffffffffffffffffff1673ffffffffffffffffffffffffffffffffffffffff168152602001908152602001600020819055507f92e393e9b54e2f801d3ea4beb0c5e71a21cc34a5d34b77d0fb8a3aa1650dc18f816040516109319190611564565b60405180910390a1505050565b610946610bb1565b6109506000610c2f565b565b61095a610bb1565b60016002541161099f576040517f08c379a0000000000000000000000000000000000000000000000000000000008152600401610996906115f1565b60405180910390fd5b6000600560009054906101000a900460ff1690506001600560006101000a81548160ff021916908360058111156109d9576109d8610f72565b5b02179055507f0a97a4ee45751e2abf3e4fc8946939630b11b371ea8ae39ccdc3056e98f5cc3f81600560009054906101000a900460ff16604051610a1e92919061108c565b60405180910390a150565b60008060009054906101000a900473ffffffffffffffffffffffffffffffffffffffff16905090565b565b610a5c610bb1565b600160048054905011610aa4576040517f08c379a0000000000000000000000000000000000000000000000000000000008152600401610a9b90611683565b60405180910390fd5b6000600560009054906101000a900460ff1690506003600560006101000a81548160ff02191690836005811115610ade57610add610f72565b5b02179055507f0a97a4ee45751e2abf3e4fc8946939630b11b371ea8ae39ccdc3056e98f5cc3f81600560009054906101000a900460ff16604051610b2392919061108c565b60405180910390a150565b610b36610bb1565b600073ffffffffffffffffffffffffffffffffffffffff168173ffffffffffffffffffffffffffffffffffffffff1603610ba5576040517f08c379a0000000000000000000000000000000000000000000000000000000008152600401610b9c90611715565b60405180910390fd5b610bae81610c2f565b50565b610bb9610cf3565b73ffffffffffffffffffffffffffffffffffffffff16610bd7610a29565b73ffffffffffffffffffffffffffffffffffffffff1614610c2d576040517f08c379a0000000000000000000000000000000000000000000000000000000008152600401610c2490611781565b60405180910390fd5b565b60008060009054906101000a900473ffffffffffffffffffffffffffffffffffffffff169050816000806101000a81548173ffffffffffffffffffffffffffffffffffffffff021916908373ffffffffffffffffffffffffffffffffffffffff1602179055508173ffffffffffffffffffffffffffffffffffffffff168173ffffffffffffffffffffffffffffffffffffffff167f8be0079c531659141344cd1fd0a4f28419497f9722a3daafe3b4186f6b6457e060405160405180910390a35050565b600033905090565b828054610d079061127d565b90600052602060002090601f016020900481019282610d295760008555610d70565b82601f10610d4257805160ff1916838001178555610d70565b82800160010185558215610d70579182015b82811115610d6f578251825591602001919060010190610d54565b5b509050610d7d9190610d81565b5090565b5b80821115610d9a576000816000905550600101610d82565b5090565b600080fd5b600080fd5b6000819050919050565b610dbb81610da8565b8114610dc657600080fd5b50565b600081359050610dd881610db2565b92915050565b600060208284031215610df457610df3610d9e565b5b6000610e0284828501610dc9565b91505092915050565b600073ffffffffffffffffffffffffffffffffffffffff82169050919050565b6000610e3682610e0b565b9050919050565b610e4681610e2b565b8114610e5157600080fd5b50565b600081359050610e6381610e3d565b92915050565b600060208284031215610e7f57610e7e610d9e565b5b6000610e8d84828501610e54565b91505092915050565b600080fd5b600080fd5b600080fd5b60008083601f840112610ebb57610eba610e96565b5b8235905067ffffffffffffffff811115610ed857610ed7610e9b565b5b602083019150836001820283011115610ef457610ef3610ea0565b5b9250929050565b60008060208385031215610f1257610f11610d9e565b5b600083013567ffffffffffffffff811115610f3057610f2f610da3565b5b610f3c85828601610ea5565b92509250509250929050565b610f5181610e2b565b82525050565b6000602082019050610f6c6000830184610f48565b92915050565b7f4e487b7100000000000000000000000000000000000000000000000000000000600052602160045260246000fd5b600082825260208201905092915050565b7f5468652070726f706f73616c20726567697374726174696f6e206973206e6f7460008201527f2073746172746564207965742e00000000000000000000000000000000000000602082015250565b600061100e602d83610fa1565b915061101982610fb2565b604082019050919050565b6000602082019050818103600083015261103d81611001565b9050919050565b6006811061105557611054610f72565b5b50565b600081905061106682611044565b919050565b600061107682611058565b9050919050565b6110868161106b565b82525050565b60006040820190506110a1600083018561107d565b6110ae602083018461107d565b9392505050565b7f54686520766f74696e672073657373696f6e206973206e6f742073746172746560008201527f64207965742e0000000000000000000000000000000000000000000000000000602082015250565b6000611111602683610fa1565b915061111c826110b5565b604082019050919050565b6000602082019050818103600083015261114081611104565b9050919050565b7f596f75206d7573742062652077686974656c697374656420746f20766f74652e600082015250565b600061117d602083610fa1565b915061118882611147565b602082019050919050565b600060208201905081810360008301526111ac81611170565b9050919050565b7f596f7520616c726561647920766f7465642e0000000000000000000000000000600082015250565b60006111e9601283610fa1565b91506111f4826111b3565b602082019050919050565b60006020820190508181036000830152611218816111dc565b9050919050565b7f4e487b7100000000000000000000000000000000000000000000000000000000600052603260045260246000fd5b7f4e487b7100000000000000000000000000000000000000000000000000000000600052602260045260246000fd5b6000600282049050600182168061129557607f821691505b6020821081036112a8576112a761124e565b5b50919050565b7f546869732070726f706f73616c20646f6573206e6f74206578697374732e0000600082015250565b60006112e4601e83610fa1565b91506112ef826112ae565b602082019050919050565b60006020820190508181036000830152611313816112d7565b9050919050565b7f54686520766f74657220697320616c72656164792077686974656c697374656460008201527f2e00000000000000000000000000000000000000000000000000000000000000602082015250565b6000611376602183610fa1565b91506113818261131a565b604082019050919050565b600060208201905081810360008301526113a581611369565b9050919050565b7f4e487b7100000000000000000000000000000000000000000000000000000000600052601160045260246000fd5b60006113e682610da8565b91507fffffffffffffffffffffffffffffffffffffffffffffffffffffffffffffffff8203611418576114176113ac565b5b600182019050919050565b7f596f75206d7573742062652077686974656c697374656420746f206d616b652060008201527f612070726f706f73616c2e000000000000000000000000000000000000000000602082015250565b600061147f602b83610fa1565b915061148a82611423565b604082019050919050565b600060208201905081810360008301526114ae81611472565b9050919050565b7f5468652070726f706f73616c2063616e6e6f7420626520656d7074792e000000600082015250565b60006114eb601d83610fa1565b91506114f6826114b5565b602082019050919050565b6000602082019050818103600083015261151a816114de565b9050919050565b600061152c82610da8565b915061153783610da8565b92508282101561154a576115496113ac565b5b828203905092915050565b61155e81610da8565b82525050565b60006020820190506115796000830184611555565b92915050565b7f4e656564206174206c6561737420322077686974656c697374656420766f746560008201527f7220746f20737461727420612070726f706f73616c2073657373696f6e2e0000602082015250565b60006115db603e83610fa1565b91506115e68261157f565b604082019050919050565b6000602082019050818103600083015261160a816115ce565b9050919050565b7f4e656564206174206c6561737420322070726f706f73616c7320746f2073746160008201527f7274206120766f74696e672073657373696f6e2e000000000000000000000000602082015250565b600061166d603483610fa1565b915061167882611611565b604082019050919050565b6000602082019050818103600083015261169c81611660565b9050919050565b7f4f776e61626c653a206e6577206f776e657220697320746865207a65726f206160008201527f6464726573730000000000000000000000000000000000000000000000000000602082015250565b60006116ff602683610fa1565b915061170a826116a3565b604082019050919050565b6000602082019050818103600083015261172e816116f2565b9050919050565b7f4f776e61626c653a2063616c6c6572206973206e6f7420746865206f776e6572600082015250565b600061176b602083610fa1565b915061177682611735565b602082019050919050565b6000602082019050818103600083015261179a8161175e565b905091905056fea264697066735822122023643f5c9d1f0cdd5836bdfaba6201acffb7b0c283aff6b868ee2982f1b6222b64736f6c634300080d0033",
					"opcodes": "PUSH1 0x80 PUSH1 0x40 MSTORE PUSH1 0x0 PUSH1 0x2 SSTORE CALLVALUE DUP1 ISZERO PUSH2 0x15 JUMPI PUSH1 0x0 DUP1 REVERT JUMPDEST POP PUSH2 0x32 PUSH2 0x27 PUSH2 0x37 PUSH1 0x20 SHL PUSH1 0x20 SHR JUMP JUMPDEST PUSH2 0x3F PUSH1 0x20 SHL PUSH1 0x20 SHR JUMP JUMPDEST PUSH2 0x103 JUMP JUMPDEST PUSH1 0x0 CALLER SWAP1 POP SWAP1 JUMP JUMPDEST PUSH1 0x0 DUP1 PUSH1 0x0 SWAP1 SLOAD SWAP1 PUSH2 0x100 EXP SWAP1 DIV PUSH20 0xFFFFFFFFFFFFFFFFFFFFFFFFFFFFFFFFFFFFFFFF AND SWAP1 POP DUP2 PUSH1 0x0 DUP1 PUSH2 0x100 EXP DUP2 SLOAD DUP2 PUSH20 0xFFFFFFFFFFFFFFFFFFFFFFFFFFFFFFFFFFFFFFFF MUL NOT AND SWAP1 DUP4 PUSH20 0xFFFFFFFFFFFFFFFFFFFFFFFFFFFFFFFFFFFFFFFF AND MUL OR SWAP1 SSTORE POP DUP2 PUSH20 0xFFFFFFFFFFFFFFFFFFFFFFFFFFFFFFFFFFFFFFFF AND DUP2 PUSH20 0xFFFFFFFFFFFFFFFFFFFFFFFFFFFFFFFFFFFFFFFF AND PUSH32 0x8BE0079C531659141344CD1FD0A4F28419497F9722A3DAAFE3B4186F6B6457E0 PUSH1 0x40 MLOAD PUSH1 0x40 MLOAD DUP1 SWAP2 SUB SWAP1 LOG3 POP POP JUMP JUMPDEST PUSH2 0x17D7 DUP1 PUSH2 0x112 PUSH1 0x0 CODECOPY PUSH1 0x0 RETURN INVALID PUSH1 0x80 PUSH1 0x40 MSTORE CALLVALUE DUP1 ISZERO PUSH2 0x10 JUMPI PUSH1 0x0 DUP1 REVERT JUMPDEST POP PUSH1 0x4 CALLDATASIZE LT PUSH2 0x9E JUMPI PUSH1 0x0 CALLDATALOAD PUSH1 0xE0 SHR DUP1 PUSH4 0x7669D79E GT PUSH2 0x66 JUMPI DUP1 PUSH4 0x7669D79E EQ PUSH2 0x10B JUMPI DUP1 PUSH4 0x8DA5CB5B EQ PUSH2 0x115 JUMPI DUP1 PUSH4 0x8E7EA5B2 EQ PUSH2 0x133 JUMPI DUP1 PUSH4 0xCF278C74 EQ PUSH2 0x13D JUMPI DUP1 PUSH4 0xF2FDE38B EQ PUSH2 0x147 JUMPI PUSH2 0x9E JUMP JUMPDEST DUP1 PUSH4 0x4456224 EQ PUSH2 0xA3 JUMPI DUP1 PUSH4 0x3B0EBFF4 EQ PUSH2 0xAD JUMPI DUP1 PUSH4 0x43E20A1D EQ PUSH2 0xC9 JUMPI DUP1 PUSH4 0x5F39FF21 EQ PUSH2 0xE5 JUMPI DUP1 PUSH4 0x715018A6 EQ PUSH2 0x101 JUMPI JUMPDEST PUSH1 0x0 DUP1 REVERT JUMPDEST PUSH2 0xAB PUSH2 0x163 JUMP JUMPDEST STOP JUMPDEST PUSH2 0xC7 PUSH1 0x4 DUP1 CALLDATASIZE SUB DUP2 ADD SWAP1 PUSH2 0xC2 SWAP2 SWAP1 PUSH2 0xDDE JUMP JUMPDEST PUSH2 0x26B JUMP JUMPDEST STOP JUMPDEST PUSH2 0xE3 PUSH1 0x4 DUP1 CALLDATASIZE SUB DUP2 ADD SWAP1 PUSH2 0xDE SWAP2 SWAP1 PUSH2 0xE69 JUMP JUMPDEST PUSH2 0x517 JUMP JUMPDEST STOP JUMPDEST PUSH2 0xFF PUSH1 0x4 DUP1 CALLDATASIZE SUB DUP2 ADD SWAP1 PUSH2 0xFA SWAP2 SWAP1 PUSH2 0xEFB JUMP JUMPDEST PUSH2 0x6AF JUMP JUMPDEST STOP JUMPDEST PUSH2 0x109 PUSH2 0x93E JUMP JUMPDEST STOP JUMPDEST PUSH2 0x113 PUSH2 0x952 JUMP JUMPDEST STOP JUMPDEST PUSH2 0x11D PUSH2 0xA29 JUMP JUMPDEST PUSH1 0x40 MLOAD PUSH2 0x12A SWAP2 SWAP1 PUSH2 0xF57 JUMP JUMPDEST PUSH1 0x40 MLOAD DUP1 SWAP2 SUB SWAP1 RETURN JUMPDEST PUSH2 0x13B PUSH2 0xA52 JUMP JUMPDEST STOP JUMPDEST PUSH2 0x145 PUSH2 0xA54 JUMP JUMPDEST STOP JUMPDEST PUSH2 0x161 PUSH1 0x4 DUP1 CALLDATASIZE SUB DUP2 ADD SWAP1 PUSH2 0x15C SWAP2 SWAP1 PUSH2 0xE69 JUMP JUMPDEST PUSH2 0xB2E JUMP JUMPDEST STOP JUMPDEST PUSH2 0x16B PUSH2 0xBB1 JUMP JUMPDEST PUSH1 0x1 PUSH1 0x5 DUP2 GT ISZERO PUSH2 0x17F JUMPI PUSH2 0x17E PUSH2 0xF72 JUMP JUMPDEST JUMPDEST PUSH1 0x5 PUSH1 0x0 SWAP1 SLOAD SWAP1 PUSH2 0x100 EXP SWAP1 DIV PUSH1 0xFF AND PUSH1 0x5 DUP2 GT ISZERO PUSH2 0x1A1 JUMPI PUSH2 0x1A0 PUSH2 0xF72 JUMP JUMPDEST JUMPDEST EQ PUSH2 0x1E1 JUMPI PUSH1 0x40 MLOAD PUSH32 0x8C379A000000000000000000000000000000000000000000000000000000000 DUP2 MSTORE PUSH1 0x4 ADD PUSH2 0x1D8 SWAP1 PUSH2 0x1024 JUMP JUMPDEST PUSH1 0x40 MLOAD DUP1 SWAP2 SUB SWAP1 REVERT JUMPDEST PUSH1 0x0 PUSH1 0x5 PUSH1 0x0 SWAP1 SLOAD SWAP1 PUSH2 0x100 EXP SWAP1 DIV PUSH1 0xFF AND SWAP1 POP PUSH1 0x2 PUSH1 0x5 PUSH1 0x0 PUSH2 0x100 EXP DUP2 SLOAD DUP2 PUSH1 0xFF MUL NOT AND SWAP1 DUP4 PUSH1 0x5 DUP2 GT ISZERO PUSH2 0x21B JUMPI PUSH2 0x21A PUSH2 0xF72 JUMP JUMPDEST JUMPDEST MUL OR SWAP1 SSTORE POP PUSH32 0xA97A4EE45751E2ABF3E4FC8946939630B11B371EA8AE39CCDC3056E98F5CC3F DUP2 PUSH1 0x5 PUSH1 0x0 SWAP1 SLOAD SWAP1 PUSH2 0x100 EXP SWAP1 DIV PUSH1 0xFF AND PUSH1 0x40 MLOAD PUSH2 0x260 SWAP3 SWAP2 SWAP1 PUSH2 0x108C JUMP JUMPDEST PUSH1 0x40 MLOAD DUP1 SWAP2 SUB SWAP1 LOG1 POP JUMP JUMPDEST PUSH1 0x3 PUSH1 0x5 DUP2 GT ISZERO PUSH2 0x27F JUMPI PUSH2 0x27E PUSH2 0xF72 JUMP JUMPDEST JUMPDEST PUSH1 0x5 PUSH1 0x0 SWAP1 SLOAD SWAP1 PUSH2 0x100 EXP SWAP1 DIV PUSH1 0xFF AND PUSH1 0x5 DUP2 GT ISZERO PUSH2 0x2A1 JUMPI PUSH2 0x2A0 PUSH2 0xF72 JUMP JUMPDEST JUMPDEST EQ PUSH2 0x2E1 JUMPI PUSH1 0x40 MLOAD PUSH32 0x8C379A000000000000000000000000000000000000000000000000000000000 DUP2 MSTORE PUSH1 0x4 ADD PUSH2 0x2D8 SWAP1 PUSH2 0x1127 JUMP JUMPDEST PUSH1 0x40 MLOAD DUP1 SWAP2 SUB SWAP1 REVERT JUMPDEST PUSH1 0x1 PUSH1 0x0 CALLER PUSH20 0xFFFFFFFFFFFFFFFFFFFFFFFFFFFFFFFFFFFFFFFF AND PUSH20 0xFFFFFFFFFFFFFFFFFFFFFFFFFFFFFFFFFFFFFFFF AND DUP2 MSTORE PUSH1 0x20 ADD SWAP1 DUP2 MSTORE PUSH1 0x20 ADD PUSH1 0x0 KECCAK256 PUSH1 0x0 ADD PUSH1 0x0 SWAP1 SLOAD SWAP1 PUSH2 0x100 EXP SWAP1 DIV PUSH1 0xFF AND PUSH2 0x370 JUMPI PUSH1 0x40 MLOAD PUSH32 0x8C379A000000000000000000000000000000000000000000000000000000000 DUP2 MSTORE PUSH1 0x4 ADD PUSH2 0x367 SWAP1 PUSH2 0x1193 JUMP JUMPDEST PUSH1 0x40 MLOAD DUP1 SWAP2 SUB SWAP1 REVERT JUMPDEST PUSH1 0x1 PUSH1 0x0 CALLER PUSH20 0xFFFFFFFFFFFFFFFFFFFFFFFFFFFFFFFFFFFFFFFF AND PUSH20 0xFFFFFFFFFFFFFFFFFFFFFFFFFFFFFFFFFFFFFFFF AND DUP2 MSTORE PUSH1 0x20 ADD SWAP1 DUP2 MSTORE PUSH1 0x20 ADD PUSH1 0x0 KECCAK256 PUSH1 0x0 ADD PUSH1 0x1 SWAP1 SLOAD SWAP1 PUSH2 0x100 EXP SWAP1 DIV PUSH1 0xFF AND PUSH2 0x3FF JUMPI PUSH1 0x40 MLOAD PUSH32 0x8C379A000000000000000000000000000000000000000000000000000000000 DUP2 MSTORE PUSH1 0x4 ADD PUSH2 0x3F6 SWAP1 PUSH2 0x11FF JUMP JUMPDEST PUSH1 0x40 MLOAD DUP1 SWAP2 SUB SWAP1 REVERT JUMPDEST PUSH1 0x0 PUSH1 0x4 DUP3 DUP2 SLOAD DUP2 LT PUSH2 0x415 JUMPI PUSH2 0x414 PUSH2 0x121F JUMP JUMPDEST JUMPDEST SWAP1 PUSH1 0x0 MSTORE PUSH1 0x20 PUSH1 0x0 KECCAK256 SWAP1 PUSH1 0x2 MUL ADD PUSH1 0x0 ADD DUP1 SLOAD PUSH2 0x431 SWAP1 PUSH2 0x127D JUMP JUMPDEST SWAP1 POP GT PUSH2 0x473 JUMPI PUSH1 0x40 MLOAD PUSH32 0x8C379A000000000000000000000000000000000000000000000000000000000 DUP2 MSTORE PUSH1 0x4 ADD PUSH2 0x46A SWAP1 PUSH2 0x12FA JUMP JUMPDEST PUSH1 0x40 MLOAD DUP1 SWAP2 SUB SWAP1 REVERT JUMPDEST DUP1 PUSH1 0x1 PUSH1 0x0 CALLER PUSH20 0xFFFFFFFFFFFFFFFFFFFFFFFFFFFFFFFFFFFFFFFF AND PUSH20 0xFFFFFFFFFFFFFFFFFFFFFFFFFFFFFFFFFFFFFFFF AND DUP2 MSTORE PUSH1 0x20 ADD SWAP1 DUP2 MSTORE PUSH1 0x20 ADD PUSH1 0x0 KECCAK256 PUSH1 0x1 ADD DUP2 SWAP1 SSTORE POP PUSH1 0x1 DUP1 PUSH1 0x0 CALLER PUSH20 0xFFFFFFFFFFFFFFFFFFFFFFFFFFFFFFFFFFFFFFFF AND PUSH20 0xFFFFFFFFFFFFFFFFFFFFFFFFFFFFFFFFFFFFFFFF AND DUP2 MSTORE PUSH1 0x20 ADD SWAP1 DUP2 MSTORE PUSH1 0x20 ADD PUSH1 0x0 KECCAK256 PUSH1 0x0 ADD PUSH1 0x1 PUSH2 0x100 EXP DUP2 SLOAD DUP2 PUSH1 0xFF MUL NOT AND SWAP1 DUP4 ISZERO ISZERO MUL OR SWAP1 SSTORE POP POP JUMP JUMPDEST PUSH2 0x51F PUSH2 0xBB1 JUMP JUMPDEST PUSH1 0x1 PUSH1 0x0 DUP3 PUSH20 0xFFFFFFFFFFFFFFFFFFFFFFFFFFFFFFFFFFFFFFFF AND PUSH20 0xFFFFFFFFFFFFFFFFFFFFFFFFFFFFFFFFFFFFFFFF AND DUP2 MSTORE PUSH1 0x20 ADD SWAP1 DUP2 MSTORE PUSH1 0x20 ADD PUSH1 0x0 KECCAK256 PUSH1 0x0 ADD PUSH1 0x0 SWAP1 SLOAD SWAP1 PUSH2 0x100 EXP SWAP1 DIV PUSH1 0xFF AND ISZERO PUSH2 0x5AF JUMPI PUSH1 0x40 MLOAD PUSH32 0x8C379A000000000000000000000000000000000000000000000000000000000 DUP2 MSTORE PUSH1 0x4 ADD PUSH2 0x5A6 SWAP1 PUSH2 0x138C JUMP JUMPDEST PUSH1 0x40 MLOAD DUP1 SWAP2 SUB SWAP1 REVERT JUMPDEST PUSH1 0x40 MLOAD DUP1 PUSH1 0x60 ADD PUSH1 0x40 MSTORE DUP1 PUSH1 0x1 ISZERO ISZERO DUP2 MSTORE PUSH1 0x20 ADD PUSH1 0x0 ISZERO ISZERO DUP2 MSTORE PUSH1 0x20 ADD PUSH1 0x0 DUP2 MSTORE POP PUSH1 0x1 PUSH1 0x0 DUP4 PUSH20 0xFFFFFFFFFFFFFFFFFFFFFFFFFFFFFFFFFFFFFFFF AND PUSH20 0xFFFFFFFFFFFFFFFFFFFFFFFFFFFFFFFFFFFFFFFF AND DUP2 MSTORE PUSH1 0x20 ADD SWAP1 DUP2 MSTORE PUSH1 0x20 ADD PUSH1 0x0 KECCAK256 PUSH1 0x0 DUP3 ADD MLOAD DUP2 PUSH1 0x0 ADD PUSH1 0x0 PUSH2 0x100 EXP DUP2 SLOAD DUP2 PUSH1 0xFF MUL NOT AND SWAP1 DUP4 ISZERO ISZERO MUL OR SWAP1 SSTORE POP PUSH1 0x20 DUP3 ADD MLOAD DUP2 PUSH1 0x0 ADD PUSH1 0x1 PUSH2 0x100 EXP DUP2 SLOAD DUP2 PUSH1 0xFF MUL NOT AND SWAP1 DUP4 ISZERO ISZERO MUL OR SWAP1 SSTORE POP PUSH1 0x40 DUP3 ADD MLOAD DUP2 PUSH1 0x1 ADD SSTORE SWAP1 POP POP PUSH1 0x2 PUSH1 0x0 DUP2 SLOAD DUP1 SWAP3 SWAP2 SWAP1 PUSH2 0x670 SWAP1 PUSH2 0x13DB JUMP JUMPDEST SWAP2 SWAP1 POP SSTORE POP PUSH32 0xB6BE2187D059CC2A55FE29E0E503B566E1E0F8C8780096E185429350ACFFD3DD DUP2 PUSH1 0x40 MLOAD PUSH2 0x6A4 SWAP2 SWAP1 PUSH2 0xF57 JUMP JUMPDEST PUSH1 0x40 MLOAD DUP1 SWAP2 SUB SWAP1 LOG1 POP JUMP JUMPDEST PUSH1 0x1 PUSH1 0x5 DUP2 GT ISZERO PUSH2 0x6C3 JUMPI PUSH2 0x6C2 PUSH2 0xF72 JUMP JUMPDEST JUMPDEST PUSH1 0x5 PUSH1 0x0 SWAP1 SLOAD SWAP1 PUSH2 0x100 EXP SWAP1 DIV PUSH1 0xFF AND PUSH1 0x5 DUP2 GT ISZERO PUSH2 0x6E5 JUMPI PUSH2 0x6E4 PUSH2 0xF72 JUMP JUMPDEST JUMPDEST EQ PUSH2 0x725 JUMPI PUSH1 0x40 MLOAD PUSH32 0x8C379A000000000000000000000000000000000000000000000000000000000 DUP2 MSTORE PUSH1 0x4 ADD PUSH2 0x71C SWAP1 PUSH2 0x1024 JUMP JUMPDEST PUSH1 0x40 MLOAD DUP1 SWAP2 SUB SWAP1 REVERT JUMPDEST PUSH1 0x1 PUSH1 0x0 CALLER PUSH20 0xFFFFFFFFFFFFFFFFFFFFFFFFFFFFFFFFFFFFFFFF AND PUSH20 0xFFFFFFFFFFFFFFFFFFFFFFFFFFFFFFFFFFFFFFFF AND DUP2 MSTORE PUSH1 0x20 ADD SWAP1 DUP2 MSTORE PUSH1 0x20 ADD PUSH1 0x0 KECCAK256 PUSH1 0x0 ADD PUSH1 0x0 SWAP1 SLOAD SWAP1 PUSH2 0x100 EXP SWAP1 DIV PUSH1 0xFF AND PUSH2 0x7B4 JUMPI PUSH1 0x40 MLOAD PUSH32 0x8C379A000000000000000000000000000000000000000000000000000000000 DUP2 MSTORE PUSH1 0x4 ADD PUSH2 0x7AB SWAP1 PUSH2 0x1495 JUMP JUMPDEST PUSH1 0x40 MLOAD DUP1 SWAP2 SUB SWAP1 REVERT JUMPDEST PUSH1 0x0 DUP3 DUP3 SWAP1 POP GT PUSH2 0x7FA JUMPI PUSH1 0x40 MLOAD PUSH32 0x8C379A000000000000000000000000000000000000000000000000000000000 DUP2 MSTORE PUSH1 0x4 ADD PUSH2 0x7F1 SWAP1 PUSH2 0x1501 JUMP JUMPDEST PUSH1 0x40 MLOAD DUP1 SWAP2 SUB SWAP1 REVERT JUMPDEST PUSH1 0x4 PUSH1 0x40 MLOAD DUP1 PUSH1 0x40 ADD PUSH1 0x40 MSTORE DUP1 DUP5 DUP5 DUP1 DUP1 PUSH1 0x1F ADD PUSH1 0x20 DUP1 SWAP2 DIV MUL PUSH1 0x20 ADD PUSH1 0x40 MLOAD SWAP1 DUP2 ADD PUSH1 0x40 MSTORE DUP1 SWAP4 SWAP3 SWAP2 SWAP1 DUP2 DUP2 MSTORE PUSH1 0x20 ADD DUP4 DUP4 DUP1 DUP3 DUP5 CALLDATACOPY PUSH1 0x0 DUP2 DUP5 ADD MSTORE PUSH1 0x1F NOT PUSH1 0x1F DUP3 ADD AND SWAP1 POP DUP1 DUP4 ADD SWAP3 POP POP POP POP POP POP POP DUP2 MSTORE PUSH1 0x20 ADD PUSH1 0x0 DUP2 MSTORE POP SWAP1 DUP1 PUSH1 0x1 DUP2 SLOAD ADD DUP1 DUP3 SSTORE DUP1 SWAP2 POP POP PUSH1 0x1 SWAP1 SUB SWAP1 PUSH1 0x0 MSTORE PUSH1 0x20 PUSH1 0x0 KECCAK256 SWAP1 PUSH1 0x2 MUL ADD PUSH1 0x0 SWAP1 SWAP2 SWAP1 SWAP2 SWAP1 SWAP2 POP PUSH1 0x0 DUP3 ADD MLOAD DUP2 PUSH1 0x0 ADD SWAP1 DUP1 MLOAD SWAP1 PUSH1 0x20 ADD SWAP1 PUSH2 0x89B SWAP3 SWAP2 SWAP1 PUSH2 0xCFB JUMP JUMPDEST POP PUSH1 0x20 DUP3 ADD MLOAD DUP2 PUSH1 0x1 ADD SSTORE POP POP PUSH1 0x0 PUSH1 0x1 PUSH1 0x4 DUP1 SLOAD SWAP1 POP PUSH2 0x8BC SWAP2 SWAP1 PUSH2 0x1521 JUMP JUMPDEST SWAP1 POP DUP1 PUSH1 0x3 PUSH1 0x0 CALLER PUSH20 0xFFFFFFFFFFFFFFFFFFFFFFFFFFFFFFFFFFFFFFFF AND PUSH20 0xFFFFFFFFFFFFFFFFFFFFFFFFFFFFFFFFFFFFFFFF AND DUP2 MSTORE PUSH1 0x20 ADD SWAP1 DUP2 MSTORE PUSH1 0x20 ADD PUSH1 0x0 KECCAK256 DUP2 SWAP1 SSTORE POP PUSH32 0x92E393E9B54E2F801D3EA4BEB0C5E71A21CC34A5D34B77D0FB8A3AA1650DC18F DUP2 PUSH1 0x40 MLOAD PUSH2 0x931 SWAP2 SWAP1 PUSH2 0x1564 JUMP JUMPDEST PUSH1 0x40 MLOAD DUP1 SWAP2 SUB SWAP1 LOG1 POP POP POP JUMP JUMPDEST PUSH2 0x946 PUSH2 0xBB1 JUMP JUMPDEST PUSH2 0x950 PUSH1 0x0 PUSH2 0xC2F JUMP JUMPDEST JUMP JUMPDEST PUSH2 0x95A PUSH2 0xBB1 JUMP JUMPDEST PUSH1 0x1 PUSH1 0x2 SLOAD GT PUSH2 0x99F JUMPI PUSH1 0x40 MLOAD PUSH32 0x8C379A000000000000000000000000000000000000000000000000000000000 DUP2 MSTORE PUSH1 0x4 ADD PUSH2 0x996 SWAP1 PUSH2 0x15F1 JUMP JUMPDEST PUSH1 0x40 MLOAD DUP1 SWAP2 SUB SWAP1 REVERT JUMPDEST PUSH1 0x0 PUSH1 0x5 PUSH1 0x0 SWAP1 SLOAD SWAP1 PUSH2 0x100 EXP SWAP1 DIV PUSH1 0xFF AND SWAP1 POP PUSH1 0x1 PUSH1 0x5 PUSH1 0x0 PUSH2 0x100 EXP DUP2 SLOAD DUP2 PUSH1 0xFF MUL NOT AND SWAP1 DUP4 PUSH1 0x5 DUP2 GT ISZERO PUSH2 0x9D9 JUMPI PUSH2 0x9D8 PUSH2 0xF72 JUMP JUMPDEST JUMPDEST MUL OR SWAP1 SSTORE POP PUSH32 0xA97A4EE45751E2ABF3E4FC8946939630B11B371EA8AE39CCDC3056E98F5CC3F DUP2 PUSH1 0x5 PUSH1 0x0 SWAP1 SLOAD SWAP1 PUSH2 0x100 EXP SWAP1 DIV PUSH1 0xFF AND PUSH1 0x40 MLOAD PUSH2 0xA1E SWAP3 SWAP2 SWAP1 PUSH2 0x108C JUMP JUMPDEST PUSH1 0x40 MLOAD DUP1 SWAP2 SUB SWAP1 LOG1 POP JUMP JUMPDEST PUSH1 0x0 DUP1 PUSH1 0x0 SWAP1 SLOAD SWAP1 PUSH2 0x100 EXP SWAP1 DIV PUSH20 0xFFFFFFFFFFFFFFFFFFFFFFFFFFFFFFFFFFFFFFFF AND SWAP1 POP SWAP1 JUMP JUMPDEST JUMP JUMPDEST PUSH2 0xA5C PUSH2 0xBB1 JUMP JUMPDEST PUSH1 0x1 PUSH1 0x4 DUP1 SLOAD SWAP1 POP GT PUSH2 0xAA4 JUMPI PUSH1 0x40 MLOAD PUSH32 0x8C379A000000000000000000000000000000000000000000000000000000000 DUP2 MSTORE PUSH1 0x4 ADD PUSH2 0xA9B SWAP1 PUSH2 0x1683 JUMP JUMPDEST PUSH1 0x40 MLOAD DUP1 SWAP2 SUB SWAP1 REVERT JUMPDEST PUSH1 0x0 PUSH1 0x5 PUSH1 0x0 SWAP1 SLOAD SWAP1 PUSH2 0x100 EXP SWAP1 DIV PUSH1 0xFF AND SWAP1 POP PUSH1 0x3 PUSH1 0x5 PUSH1 0x0 PUSH2 0x100 EXP DUP2 SLOAD DUP2 PUSH1 0xFF MUL NOT AND SWAP1 DUP4 PUSH1 0x5 DUP2 GT ISZERO PUSH2 0xADE JUMPI PUSH2 0xADD PUSH2 0xF72 JUMP JUMPDEST JUMPDEST MUL OR SWAP1 SSTORE POP PUSH32 0xA97A4EE45751E2ABF3E4FC8946939630B11B371EA8AE39CCDC3056E98F5CC3F DUP2 PUSH1 0x5 PUSH1 0x0 SWAP1 SLOAD SWAP1 PUSH2 0x100 EXP SWAP1 DIV PUSH1 0xFF AND PUSH1 0x40 MLOAD PUSH2 0xB23 SWAP3 SWAP2 SWAP1 PUSH2 0x108C JUMP JUMPDEST PUSH1 0x40 MLOAD DUP1 SWAP2 SUB SWAP1 LOG1 POP JUMP JUMPDEST PUSH2 0xB36 PUSH2 0xBB1 JUMP JUMPDEST PUSH1 0x0 PUSH20 0xFFFFFFFFFFFFFFFFFFFFFFFFFFFFFFFFFFFFFFFF AND DUP2 PUSH20 0xFFFFFFFFFFFFFFFFFFFFFFFFFFFFFFFFFFFFFFFF AND SUB PUSH2 0xBA5 JUMPI PUSH1 0x40 MLOAD PUSH32 0x8C379A000000000000000000000000000000000000000000000000000000000 DUP2 MSTORE PUSH1 0x4 ADD PUSH2 0xB9C SWAP1 PUSH2 0x1715 JUMP JUMPDEST PUSH1 0x40 MLOAD DUP1 SWAP2 SUB SWAP1 REVERT JUMPDEST PUSH2 0xBAE DUP2 PUSH2 0xC2F JUMP JUMPDEST POP JUMP JUMPDEST PUSH2 0xBB9 PUSH2 0xCF3 JUMP JUMPDEST PUSH20 0xFFFFFFFFFFFFFFFFFFFFFFFFFFFFFFFFFFFFFFFF AND PUSH2 0xBD7 PUSH2 0xA29 JUMP JUMPDEST PUSH20 0xFFFFFFFFFFFFFFFFFFFFFFFFFFFFFFFFFFFFFFFF AND EQ PUSH2 0xC2D JUMPI PUSH1 0x40 MLOAD PUSH32 0x8C379A000000000000000000000000000000000000000000000000000000000 DUP2 MSTORE PUSH1 0x4 ADD PUSH2 0xC24 SWAP1 PUSH2 0x1781 JUMP JUMPDEST PUSH1 0x40 MLOAD DUP1 SWAP2 SUB SWAP1 REVERT JUMPDEST JUMP JUMPDEST PUSH1 0x0 DUP1 PUSH1 0x0 SWAP1 SLOAD SWAP1 PUSH2 0x100 EXP SWAP1 DIV PUSH20 0xFFFFFFFFFFFFFFFFFFFFFFFFFFFFFFFFFFFFFFFF AND SWAP1 POP DUP2 PUSH1 0x0 DUP1 PUSH2 0x100 EXP DUP2 SLOAD DUP2 PUSH20 0xFFFFFFFFFFFFFFFFFFFFFFFFFFFFFFFFFFFFFFFF MUL NOT AND SWAP1 DUP4 PUSH20 0xFFFFFFFFFFFFFFFFFFFFFFFFFFFFFFFFFFFFFFFF AND MUL OR SWAP1 SSTORE POP DUP2 PUSH20 0xFFFFFFFFFFFFFFFFFFFFFFFFFFFFFFFFFFFFFFFF AND DUP2 PUSH20 0xFFFFFFFFFFFFFFFFFFFFFFFFFFFFFFFFFFFFFFFF AND PUSH32 0x8BE0079C531659141344CD1FD0A4F28419497F9722A3DAAFE3B4186F6B6457E0 PUSH1 0x40 MLOAD PUSH1 0x40 MLOAD DUP1 SWAP2 SUB SWAP1 LOG3 POP POP JUMP JUMPDEST PUSH1 0x0 CALLER SWAP1 POP SWAP1 JUMP JUMPDEST DUP3 DUP1 SLOAD PUSH2 0xD07 SWAP1 PUSH2 0x127D JUMP JUMPDEST SWAP1 PUSH1 0x0 MSTORE PUSH1 0x20 PUSH1 0x0 KECCAK256 SWAP1 PUSH1 0x1F ADD PUSH1 0x20 SWAP1 DIV DUP2 ADD SWAP3 DUP3 PUSH2 0xD29 JUMPI PUSH1 0x0 DUP6 SSTORE PUSH2 0xD70 JUMP JUMPDEST DUP3 PUSH1 0x1F LT PUSH2 0xD42 JUMPI DUP1 MLOAD PUSH1 0xFF NOT AND DUP4 DUP1 ADD OR DUP6 SSTORE PUSH2 0xD70 JUMP JUMPDEST DUP3 DUP1 ADD PUSH1 0x1 ADD DUP6 SSTORE DUP3 ISZERO PUSH2 0xD70 JUMPI SWAP2 DUP3 ADD JUMPDEST DUP3 DUP2 GT ISZERO PUSH2 0xD6F JUMPI DUP3 MLOAD DUP3 SSTORE SWAP2 PUSH1 0x20 ADD SWAP2 SWAP1 PUSH1 0x1 ADD SWAP1 PUSH2 0xD54 JUMP JUMPDEST JUMPDEST POP SWAP1 POP PUSH2 0xD7D SWAP2 SWAP1 PUSH2 0xD81 JUMP JUMPDEST POP SWAP1 JUMP JUMPDEST JUMPDEST DUP1 DUP3 GT ISZERO PUSH2 0xD9A JUMPI PUSH1 0x0 DUP2 PUSH1 0x0 SWAP1 SSTORE POP PUSH1 0x1 ADD PUSH2 0xD82 JUMP JUMPDEST POP SWAP1 JUMP JUMPDEST PUSH1 0x0 DUP1 REVERT JUMPDEST PUSH1 0x0 DUP1 REVERT JUMPDEST PUSH1 0x0 DUP2 SWAP1 POP SWAP2 SWAP1 POP JUMP JUMPDEST PUSH2 0xDBB DUP2 PUSH2 0xDA8 JUMP JUMPDEST DUP2 EQ PUSH2 0xDC6 JUMPI PUSH1 0x0 DUP1 REVERT JUMPDEST POP JUMP JUMPDEST PUSH1 0x0 DUP2 CALLDATALOAD SWAP1 POP PUSH2 0xDD8 DUP2 PUSH2 0xDB2 JUMP JUMPDEST SWAP3 SWAP2 POP POP JUMP JUMPDEST PUSH1 0x0 PUSH1 0x20 DUP3 DUP5 SUB SLT ISZERO PUSH2 0xDF4 JUMPI PUSH2 0xDF3 PUSH2 0xD9E JUMP JUMPDEST JUMPDEST PUSH1 0x0 PUSH2 0xE02 DUP5 DUP3 DUP6 ADD PUSH2 0xDC9 JUMP JUMPDEST SWAP2 POP POP SWAP3 SWAP2 POP POP JUMP JUMPDEST PUSH1 0x0 PUSH20 0xFFFFFFFFFFFFFFFFFFFFFFFFFFFFFFFFFFFFFFFF DUP3 AND SWAP1 POP SWAP2 SWAP1 POP JUMP JUMPDEST PUSH1 0x0 PUSH2 0xE36 DUP3 PUSH2 0xE0B JUMP JUMPDEST SWAP1 POP SWAP2 SWAP1 POP JUMP JUMPDEST PUSH2 0xE46 DUP2 PUSH2 0xE2B JUMP JUMPDEST DUP2 EQ PUSH2 0xE51 JUMPI PUSH1 0x0 DUP1 REVERT JUMPDEST POP JUMP JUMPDEST PUSH1 0x0 DUP2 CALLDATALOAD SWAP1 POP PUSH2 0xE63 DUP2 PUSH2 0xE3D JUMP JUMPDEST SWAP3 SWAP2 POP POP JUMP JUMPDEST PUSH1 0x0 PUSH1 0x20 DUP3 DUP5 SUB SLT ISZERO PUSH2 0xE7F JUMPI PUSH2 0xE7E PUSH2 0xD9E JUMP JUMPDEST JUMPDEST PUSH1 0x0 PUSH2 0xE8D DUP5 DUP3 DUP6 ADD PUSH2 0xE54 JUMP JUMPDEST SWAP2 POP POP SWAP3 SWAP2 POP POP JUMP JUMPDEST PUSH1 0x0 DUP1 REVERT JUMPDEST PUSH1 0x0 DUP1 REVERT JUMPDEST PUSH1 0x0 DUP1 REVERT JUMPDEST PUSH1 0x0 DUP1 DUP4 PUSH1 0x1F DUP5 ADD SLT PUSH2 0xEBB JUMPI PUSH2 0xEBA PUSH2 0xE96 JUMP JUMPDEST JUMPDEST DUP3 CALLDATALOAD SWAP1 POP PUSH8 0xFFFFFFFFFFFFFFFF DUP2 GT ISZERO PUSH2 0xED8 JUMPI PUSH2 0xED7 PUSH2 0xE9B JUMP JUMPDEST JUMPDEST PUSH1 0x20 DUP4 ADD SWAP2 POP DUP4 PUSH1 0x1 DUP3 MUL DUP4 ADD GT ISZERO PUSH2 0xEF4 JUMPI PUSH2 0xEF3 PUSH2 0xEA0 JUMP JUMPDEST JUMPDEST SWAP3 POP SWAP3 SWAP1 POP JUMP JUMPDEST PUSH1 0x0 DUP1 PUSH1 0x20 DUP4 DUP6 SUB SLT ISZERO PUSH2 0xF12 JUMPI PUSH2 0xF11 PUSH2 0xD9E JUMP JUMPDEST JUMPDEST PUSH1 0x0 DUP4 ADD CALLDATALOAD PUSH8 0xFFFFFFFFFFFFFFFF DUP2 GT ISZERO PUSH2 0xF30 JUMPI PUSH2 0xF2F PUSH2 0xDA3 JUMP JUMPDEST JUMPDEST PUSH2 0xF3C DUP6 DUP3 DUP7 ADD PUSH2 0xEA5 JUMP JUMPDEST SWAP3 POP SWAP3 POP POP SWAP3 POP SWAP3 SWAP1 POP JUMP JUMPDEST PUSH2 0xF51 DUP2 PUSH2 0xE2B JUMP JUMPDEST DUP3 MSTORE POP POP JUMP JUMPDEST PUSH1 0x0 PUSH1 0x20 DUP3 ADD SWAP1 POP PUSH2 0xF6C PUSH1 0x0 DUP4 ADD DUP5 PUSH2 0xF48 JUMP JUMPDEST SWAP3 SWAP2 POP POP JUMP JUMPDEST PUSH32 0x4E487B7100000000000000000000000000000000000000000000000000000000 PUSH1 0x0 MSTORE PUSH1 0x21 PUSH1 0x4 MSTORE PUSH1 0x24 PUSH1 0x0 REVERT JUMPDEST PUSH1 0x0 DUP3 DUP3 MSTORE PUSH1 0x20 DUP3 ADD SWAP1 POP SWAP3 SWAP2 POP POP JUMP JUMPDEST PUSH32 0x5468652070726F706F73616C20726567697374726174696F6E206973206E6F74 PUSH1 0x0 DUP3 ADD MSTORE PUSH32 0x2073746172746564207965742E00000000000000000000000000000000000000 PUSH1 0x20 DUP3 ADD MSTORE POP JUMP JUMPDEST PUSH1 0x0 PUSH2 0x100E PUSH1 0x2D DUP4 PUSH2 0xFA1 JUMP JUMPDEST SWAP2 POP PUSH2 0x1019 DUP3 PUSH2 0xFB2 JUMP JUMPDEST PUSH1 0x40 DUP3 ADD SWAP1 POP SWAP2 SWAP1 POP JUMP JUMPDEST PUSH1 0x0 PUSH1 0x20 DUP3 ADD SWAP1 POP DUP2 DUP2 SUB PUSH1 0x0 DUP4 ADD MSTORE PUSH2 0x103D DUP2 PUSH2 0x1001 JUMP JUMPDEST SWAP1 POP SWAP2 SWAP1 POP JUMP JUMPDEST PUSH1 0x6 DUP2 LT PUSH2 0x1055 JUMPI PUSH2 0x1054 PUSH2 0xF72 JUMP JUMPDEST JUMPDEST POP JUMP JUMPDEST PUSH1 0x0 DUP2 SWAP1 POP PUSH2 0x1066 DUP3 PUSH2 0x1044 JUMP JUMPDEST SWAP2 SWAP1 POP JUMP JUMPDEST PUSH1 0x0 PUSH2 0x1076 DUP3 PUSH2 0x1058 JUMP JUMPDEST SWAP1 POP SWAP2 SWAP1 POP JUMP JUMPDEST PUSH2 0x1086 DUP2 PUSH2 0x106B JUMP JUMPDEST DUP3 MSTORE POP POP JUMP JUMPDEST PUSH1 0x0 PUSH1 0x40 DUP3 ADD SWAP1 POP PUSH2 0x10A1 PUSH1 0x0 DUP4 ADD DUP6 PUSH2 0x107D JUMP JUMPDEST PUSH2 0x10AE PUSH1 0x20 DUP4 ADD DUP5 PUSH2 0x107D JUMP JUMPDEST SWAP4 SWAP3 POP POP POP JUMP JUMPDEST PUSH32 0x54686520766F74696E672073657373696F6E206973206E6F7420737461727465 PUSH1 0x0 DUP3 ADD MSTORE PUSH32 0x64207965742E0000000000000000000000000000000000000000000000000000 PUSH1 0x20 DUP3 ADD MSTORE POP JUMP JUMPDEST PUSH1 0x0 PUSH2 0x1111 PUSH1 0x26 DUP4 PUSH2 0xFA1 JUMP JUMPDEST SWAP2 POP PUSH2 0x111C DUP3 PUSH2 0x10B5 JUMP JUMPDEST PUSH1 0x40 DUP3 ADD SWAP1 POP SWAP2 SWAP1 POP JUMP JUMPDEST PUSH1 0x0 PUSH1 0x20 DUP3 ADD SWAP1 POP DUP2 DUP2 SUB PUSH1 0x0 DUP4 ADD MSTORE PUSH2 0x1140 DUP2 PUSH2 0x1104 JUMP JUMPDEST SWAP1 POP SWAP2 SWAP1 POP JUMP JUMPDEST PUSH32 0x596F75206D7573742062652077686974656C697374656420746F20766F74652E PUSH1 0x0 DUP3 ADD MSTORE POP JUMP JUMPDEST PUSH1 0x0 PUSH2 0x117D PUSH1 0x20 DUP4 PUSH2 0xFA1 JUMP JUMPDEST SWAP2 POP PUSH2 0x1188 DUP3 PUSH2 0x1147 JUMP JUMPDEST PUSH1 0x20 DUP3 ADD SWAP1 POP SWAP2 SWAP1 POP JUMP JUMPDEST PUSH1 0x0 PUSH1 0x20 DUP3 ADD SWAP1 POP DUP2 DUP2 SUB PUSH1 0x0 DUP4 ADD MSTORE PUSH2 0x11AC DUP2 PUSH2 0x1170 JUMP JUMPDEST SWAP1 POP SWAP2 SWAP1 POP JUMP JUMPDEST PUSH32 0x596F7520616C726561647920766F7465642E0000000000000000000000000000 PUSH1 0x0 DUP3 ADD MSTORE POP JUMP JUMPDEST PUSH1 0x0 PUSH2 0x11E9 PUSH1 0x12 DUP4 PUSH2 0xFA1 JUMP JUMPDEST SWAP2 POP PUSH2 0x11F4 DUP3 PUSH2 0x11B3 JUMP JUMPDEST PUSH1 0x20 DUP3 ADD SWAP1 POP SWAP2 SWAP1 POP JUMP JUMPDEST PUSH1 0x0 PUSH1 0x20 DUP3 ADD SWAP1 POP DUP2 DUP2 SUB PUSH1 0x0 DUP4 ADD MSTORE PUSH2 0x1218 DUP2 PUSH2 0x11DC JUMP JUMPDEST SWAP1 POP SWAP2 SWAP1 POP JUMP JUMPDEST PUSH32 0x4E487B7100000000000000000000000000000000000000000000000000000000 PUSH1 0x0 MSTORE PUSH1 0x32 PUSH1 0x4 MSTORE PUSH1 0x24 PUSH1 0x0 REVERT JUMPDEST PUSH32 0x4E487B7100000000000000000000000000000000000000000000000000000000 PUSH1 0x0 MSTORE PUSH1 0x22 PUSH1 0x4 MSTORE PUSH1 0x24 PUSH1 0x0 REVERT JUMPDEST PUSH1 0x0 PUSH1 0x2 DUP3 DIV SWAP1 POP PUSH1 0x1 DUP3 AND DUP1 PUSH2 0x1295 JUMPI PUSH1 0x7F DUP3 AND SWAP2 POP JUMPDEST PUSH1 0x20 DUP3 LT DUP2 SUB PUSH2 0x12A8 JUMPI PUSH2 0x12A7 PUSH2 0x124E JUMP JUMPDEST JUMPDEST POP SWAP2 SWAP1 POP JUMP JUMPDEST PUSH32 0x546869732070726F706F73616C20646F6573206E6F74206578697374732E0000 PUSH1 0x0 DUP3 ADD MSTORE POP JUMP JUMPDEST PUSH1 0x0 PUSH2 0x12E4 PUSH1 0x1E DUP4 PUSH2 0xFA1 JUMP JUMPDEST SWAP2 POP PUSH2 0x12EF DUP3 PUSH2 0x12AE JUMP JUMPDEST PUSH1 0x20 DUP3 ADD SWAP1 POP SWAP2 SWAP1 POP JUMP JUMPDEST PUSH1 0x0 PUSH1 0x20 DUP3 ADD SWAP1 POP DUP2 DUP2 SUB PUSH1 0x0 DUP4 ADD MSTORE PUSH2 0x1313 DUP2 PUSH2 0x12D7 JUMP JUMPDEST SWAP1 POP SWAP2 SWAP1 POP JUMP JUMPDEST PUSH32 0x54686520766F74657220697320616C72656164792077686974656C6973746564 PUSH1 0x0 DUP3 ADD MSTORE PUSH32 0x2E00000000000000000000000000000000000000000000000000000000000000 PUSH1 0x20 DUP3 ADD MSTORE POP JUMP JUMPDEST PUSH1 0x0 PUSH2 0x1376 PUSH1 0x21 DUP4 PUSH2 0xFA1 JUMP JUMPDEST SWAP2 POP PUSH2 0x1381 DUP3 PUSH2 0x131A JUMP JUMPDEST PUSH1 0x40 DUP3 ADD SWAP1 POP SWAP2 SWAP1 POP JUMP JUMPDEST PUSH1 0x0 PUSH1 0x20 DUP3 ADD SWAP1 POP DUP2 DUP2 SUB PUSH1 0x0 DUP4 ADD MSTORE PUSH2 0x13A5 DUP2 PUSH2 0x1369 JUMP JUMPDEST SWAP1 POP SWAP2 SWAP1 POP JUMP JUMPDEST PUSH32 0x4E487B7100000000000000000000000000000000000000000000000000000000 PUSH1 0x0 MSTORE PUSH1 0x11 PUSH1 0x4 MSTORE PUSH1 0x24 PUSH1 0x0 REVERT JUMPDEST PUSH1 0x0 PUSH2 0x13E6 DUP3 PUSH2 0xDA8 JUMP JUMPDEST SWAP2 POP PUSH32 0xFFFFFFFFFFFFFFFFFFFFFFFFFFFFFFFFFFFFFFFFFFFFFFFFFFFFFFFFFFFFFFFF DUP3 SUB PUSH2 0x1418 JUMPI PUSH2 0x1417 PUSH2 0x13AC JUMP JUMPDEST JUMPDEST PUSH1 0x1 DUP3 ADD SWAP1 POP SWAP2 SWAP1 POP JUMP JUMPDEST PUSH32 0x596F75206D7573742062652077686974656C697374656420746F206D616B6520 PUSH1 0x0 DUP3 ADD MSTORE PUSH32 0x612070726F706F73616C2E000000000000000000000000000000000000000000 PUSH1 0x20 DUP3 ADD MSTORE POP JUMP JUMPDEST PUSH1 0x0 PUSH2 0x147F PUSH1 0x2B DUP4 PUSH2 0xFA1 JUMP JUMPDEST SWAP2 POP PUSH2 0x148A DUP3 PUSH2 0x1423 JUMP JUMPDEST PUSH1 0x40 DUP3 ADD SWAP1 POP SWAP2 SWAP1 POP JUMP JUMPDEST PUSH1 0x0 PUSH1 0x20 DUP3 ADD SWAP1 POP DUP2 DUP2 SUB PUSH1 0x0 DUP4 ADD MSTORE PUSH2 0x14AE DUP2 PUSH2 0x1472 JUMP JUMPDEST SWAP1 POP SWAP2 SWAP1 POP JUMP JUMPDEST PUSH32 0x5468652070726F706F73616C2063616E6E6F7420626520656D7074792E000000 PUSH1 0x0 DUP3 ADD MSTORE POP JUMP JUMPDEST PUSH1 0x0 PUSH2 0x14EB PUSH1 0x1D DUP4 PUSH2 0xFA1 JUMP JUMPDEST SWAP2 POP PUSH2 0x14F6 DUP3 PUSH2 0x14B5 JUMP JUMPDEST PUSH1 0x20 DUP3 ADD SWAP1 POP SWAP2 SWAP1 POP JUMP JUMPDEST PUSH1 0x0 PUSH1 0x20 DUP3 ADD SWAP1 POP DUP2 DUP2 SUB PUSH1 0x0 DUP4 ADD MSTORE PUSH2 0x151A DUP2 PUSH2 0x14DE JUMP JUMPDEST SWAP1 POP SWAP2 SWAP1 POP JUMP JUMPDEST PUSH1 0x0 PUSH2 0x152C DUP3 PUSH2 0xDA8 JUMP JUMPDEST SWAP2 POP PUSH2 0x1537 DUP4 PUSH2 0xDA8 JUMP JUMPDEST SWAP3 POP DUP3 DUP3 LT ISZERO PUSH2 0x154A JUMPI PUSH2 0x1549 PUSH2 0x13AC JUMP JUMPDEST JUMPDEST DUP3 DUP3 SUB SWAP1 POP SWAP3 SWAP2 POP POP JUMP JUMPDEST PUSH2 0x155E DUP2 PUSH2 0xDA8 JUMP JUMPDEST DUP3 MSTORE POP POP JUMP JUMPDEST PUSH1 0x0 PUSH1 0x20 DUP3 ADD SWAP1 POP PUSH2 0x1579 PUSH1 0x0 DUP4 ADD DUP5 PUSH2 0x1555 JUMP JUMPDEST SWAP3 SWAP2 POP POP JUMP JUMPDEST PUSH32 0x4E656564206174206C6561737420322077686974656C697374656420766F7465 PUSH1 0x0 DUP3 ADD MSTORE PUSH32 0x7220746F20737461727420612070726F706F73616C2073657373696F6E2E0000 PUSH1 0x20 DUP3 ADD MSTORE POP JUMP JUMPDEST PUSH1 0x0 PUSH2 0x15DB PUSH1 0x3E DUP4 PUSH2 0xFA1 JUMP JUMPDEST SWAP2 POP PUSH2 0x15E6 DUP3 PUSH2 0x157F JUMP JUMPDEST PUSH1 0x40 DUP3 ADD SWAP1 POP SWAP2 SWAP1 POP JUMP JUMPDEST PUSH1 0x0 PUSH1 0x20 DUP3 ADD SWAP1 POP DUP2 DUP2 SUB PUSH1 0x0 DUP4 ADD MSTORE PUSH2 0x160A DUP2 PUSH2 0x15CE JUMP JUMPDEST SWAP1 POP SWAP2 SWAP1 POP JUMP JUMPDEST PUSH32 0x4E656564206174206C6561737420322070726F706F73616C7320746F20737461 PUSH1 0x0 DUP3 ADD MSTORE PUSH32 0x7274206120766F74696E672073657373696F6E2E000000000000000000000000 PUSH1 0x20 DUP3 ADD MSTORE POP JUMP JUMPDEST PUSH1 0x0 PUSH2 0x166D PUSH1 0x34 DUP4 PUSH2 0xFA1 JUMP JUMPDEST SWAP2 POP PUSH2 0x1678 DUP3 PUSH2 0x1611 JUMP JUMPDEST PUSH1 0x40 DUP3 ADD SWAP1 POP SWAP2 SWAP1 POP JUMP JUMPDEST PUSH1 0x0 PUSH1 0x20 DUP3 ADD SWAP1 POP DUP2 DUP2 SUB PUSH1 0x0 DUP4 ADD MSTORE PUSH2 0x169C DUP2 PUSH2 0x1660 JUMP JUMPDEST SWAP1 POP SWAP2 SWAP1 POP JUMP JUMPDEST PUSH32 0x4F776E61626C653A206E6577206F776E657220697320746865207A65726F2061 PUSH1 0x0 DUP3 ADD MSTORE PUSH32 0x6464726573730000000000000000000000000000000000000000000000000000 PUSH1 0x20 DUP3 ADD MSTORE POP JUMP JUMPDEST PUSH1 0x0 PUSH2 0x16FF PUSH1 0x26 DUP4 PUSH2 0xFA1 JUMP JUMPDEST SWAP2 POP PUSH2 0x170A DUP3 PUSH2 0x16A3 JUMP JUMPDEST PUSH1 0x40 DUP3 ADD SWAP1 POP SWAP2 SWAP1 POP JUMP JUMPDEST PUSH1 0x0 PUSH1 0x20 DUP3 ADD SWAP1 POP DUP2 DUP2 SUB PUSH1 0x0 DUP4 ADD MSTORE PUSH2 0x172E DUP2 PUSH2 0x16F2 JUMP JUMPDEST SWAP1 POP SWAP2 SWAP1 POP JUMP JUMPDEST PUSH32 0x4F776E61626C653A2063616C6C6572206973206E6F7420746865206F776E6572 PUSH1 0x0 DUP3 ADD MSTORE POP JUMP JUMPDEST PUSH1 0x0 PUSH2 0x176B PUSH1 0x20 DUP4 PUSH2 0xFA1 JUMP JUMPDEST SWAP2 POP PUSH2 0x1776 DUP3 PUSH2 0x1735 JUMP JUMPDEST PUSH1 0x20 DUP3 ADD SWAP1 POP SWAP2 SWAP1 POP JUMP JUMPDEST PUSH1 0x0 PUSH1 0x20 DUP3 ADD SWAP1 POP DUP2 DUP2 SUB PUSH1 0x0 DUP4 ADD MSTORE PUSH2 0x179A DUP2 PUSH2 0x175E JUMP JUMPDEST SWAP1 POP SWAP2 SWAP1 POP JUMP INVALID LOG2 PUSH5 0x6970667358 0x22 SLT KECCAK256 0x23 PUSH5 0x3F5C9D1F0C 0xDD PC CALLDATASIZE 0xBD STATICCALL 0xBA PUSH3 0x1ACFF 0xB7 0xB0 0xC2 DUP4 0xAF 0xF6 0xB8 PUSH9 0xEE2982F1B6222B6473 PUSH16 0x6C634300080D00330000000000000000 "
				},
				"gasEstimates": {
					"creation": {
						"codeDepositCost": "1220600",
						"executionCost": "infinite",
						"totalCost": "infinite"
					},
					"external": {
						"adminStartProposalsSession()": "infinite",
						"adminStartVotingSession()": "infinite",
						"adminStopProposalsSession()": "infinite",
						"adminWhitelist(address)": "infinite",
						"getWinner()": "188",
						"owner()": "2544",
						"renounceOwnership()": "30487",
						"transferOwnership(address)": "30832",
						"voterAddProposal(string)": "infinite",
						"voterAddVote(uint256)": "58260"
					}
				},
				"methodIdentifiers": {
					"adminStartProposalsSession()": "7669d79e",
					"adminStartVotingSession()": "cf278c74",
					"adminStopProposalsSession()": "04456224",
					"adminWhitelist(address)": "43e20a1d",
					"getWinner()": "8e7ea5b2",
					"owner()": "8da5cb5b",
					"renounceOwnership()": "715018a6",
					"transferOwnership(address)": "f2fde38b",
					"voterAddProposal(string)": "5f39ff21",
					"voterAddVote(uint256)": "3b0ebff4"
				}
			},
			"storageLayout": {
				"storage": [
					{
						"astId": 320,
						"contract": "contracts/voting-system/voting.sol:voting",
						"label": "_owner",
						"offset": 0,
						"slot": "0",
						"type": "t_address"
					},
					{
						"astId": 50,
						"contract": "contracts/voting-system/voting.sol:voting",
						"label": "voters",
						"offset": 0,
						"slot": "1",
						"type": "t_mapping(t_address,t_struct(Voter)40_storage)"
					},
					{
						"astId": 53,
						"contract": "contracts/voting-system/voting.sol:voting",
						"label": "_voterWhitelistedCount",
						"offset": 0,
						"slot": "2",
						"type": "t_uint256"
					},
					{
						"astId": 57,
						"contract": "contracts/voting-system/voting.sol:voting",
						"label": "voterProposalIds",
						"offset": 0,
						"slot": "3",
						"type": "t_mapping(t_address,t_uint256)"
					},
					{
						"astId": 61,
						"contract": "contracts/voting-system/voting.sol:voting",
						"label": "voterProposals",
						"offset": 0,
						"slot": "4",
						"type": "t_array(t_struct(Proposal)45_storage)dyn_storage"
					},
					{
						"astId": 64,
						"contract": "contracts/voting-system/voting.sol:voting",
						"label": "_currentVotingSession",
						"offset": 0,
						"slot": "5",
						"type": "t_enum(WorkflowStatus)33"
					}
				],
				"types": {
					"t_address": {
						"encoding": "inplace",
						"label": "address",
						"numberOfBytes": "20"
					},
					"t_array(t_struct(Proposal)45_storage)dyn_storage": {
						"base": "t_struct(Proposal)45_storage",
						"encoding": "dynamic_array",
						"label": "struct voting.Proposal[]",
						"numberOfBytes": "32"
					},
					"t_bool": {
						"encoding": "inplace",
						"label": "bool",
						"numberOfBytes": "1"
					},
					"t_enum(WorkflowStatus)33": {
						"encoding": "inplace",
						"label": "enum voting.WorkflowStatus",
						"numberOfBytes": "1"
					},
					"t_mapping(t_address,t_struct(Voter)40_storage)": {
						"encoding": "mapping",
						"key": "t_address",
						"label": "mapping(address => struct voting.Voter)",
						"numberOfBytes": "32",
						"value": "t_struct(Voter)40_storage"
					},
					"t_mapping(t_address,t_uint256)": {
						"encoding": "mapping",
						"key": "t_address",
						"label": "mapping(address => uint256)",
						"numberOfBytes": "32",
						"value": "t_uint256"
					},
					"t_string_storage": {
						"encoding": "bytes",
						"label": "string",
						"numberOfBytes": "32"
					},
					"t_struct(Proposal)45_storage": {
						"encoding": "inplace",
						"label": "struct voting.Proposal",
						"members": [
							{
								"astId": 42,
								"contract": "contracts/voting-system/voting.sol:voting",
								"label": "description",
								"offset": 0,
								"slot": "0",
								"type": "t_string_storage"
							},
							{
								"astId": 44,
								"contract": "contracts/voting-system/voting.sol:voting",
								"label": "voteCount",
								"offset": 0,
								"slot": "1",
								"type": "t_uint256"
							}
						],
						"numberOfBytes": "64"
					},
					"t_struct(Voter)40_storage": {
						"encoding": "inplace",
						"label": "struct voting.Voter",
						"members": [
							{
								"astId": 35,
								"contract": "contracts/voting-system/voting.sol:voting",
								"label": "isRegistered",
								"offset": 0,
								"slot": "0",
								"type": "t_bool"
							},
							{
								"astId": 37,
								"contract": "contracts/voting-system/voting.sol:voting",
								"label": "hasVoted",
								"offset": 1,
								"slot": "0",
								"type": "t_bool"
							},
							{
								"astId": 39,
								"contract": "contracts/voting-system/voting.sol:voting",
								"label": "votedProposalId",
								"offset": 0,
								"slot": "1",
								"type": "t_uint256"
							}
						],
						"numberOfBytes": "64"
					},
					"t_uint256": {
						"encoding": "inplace",
						"label": "uint256",
						"numberOfBytes": "32"
					}
				}
			},
			"userdoc": {
				"kind": "user",
				"methods": {},
				"version": 1
			}
		}
	}
}