{
	"contracts/voting-system/voting.sol": {
		"voting": {
			"abi": [
				{
					"anonymous": false,
					"inputs": [
						{
							"indexed": true,
							"internalType": "address",
							"name": "previousOwner",
							"type": "address"
						},
						{
							"indexed": true,
							"internalType": "address",
							"name": "newOwner",
							"type": "address"
						}
					],
					"name": "OwnershipTransferred",
					"type": "event"
				},
				{
					"anonymous": false,
					"inputs": [
						{
							"indexed": false,
							"internalType": "uint256",
							"name": "proposalId",
							"type": "uint256"
						}
					],
					"name": "ProposalRegistered",
					"type": "event"
				},
				{
					"anonymous": false,
					"inputs": [
						{
							"indexed": false,
							"internalType": "address",
							"name": "voter",
							"type": "address"
						},
						{
							"indexed": false,
							"internalType": "uint256",
							"name": "proposalId",
							"type": "uint256"
						}
					],
					"name": "Voted",
					"type": "event"
				},
				{
					"anonymous": false,
					"inputs": [
						{
							"indexed": false,
							"internalType": "address",
							"name": "voterAddress",
							"type": "address"
						}
					],
					"name": "VoterRegistered",
					"type": "event"
				},
				{
					"anonymous": false,
					"inputs": [
						{
							"indexed": false,
							"internalType": "enum voting.WorkflowStatus",
							"name": "previousStatus",
							"type": "uint8"
						},
						{
							"indexed": false,
							"internalType": "enum voting.WorkflowStatus",
							"name": "newStatus",
							"type": "uint8"
						}
					],
					"name": "WorkflowStatusChange",
					"type": "event"
				},
				{
					"inputs": [],
					"name": "adminStartProposalsSession",
					"outputs": [],
					"stateMutability": "nonpayable",
					"type": "function"
				},
				{
					"inputs": [
						{
							"internalType": "address",
							"name": "_addrVoter",
							"type": "address"
						}
					],
					"name": "adminWhitelist",
					"outputs": [],
					"stateMutability": "nonpayable",
					"type": "function"
				},
				{
					"inputs": [],
					"name": "getWinner",
					"outputs": [],
					"stateMutability": "nonpayable",
					"type": "function"
				},
				{
					"inputs": [],
					"name": "owner",
					"outputs": [
						{
							"internalType": "address",
							"name": "",
							"type": "address"
						}
					],
					"stateMutability": "view",
					"type": "function"
				},
				{
					"inputs": [],
					"name": "renounceOwnership",
					"outputs": [],
					"stateMutability": "nonpayable",
					"type": "function"
				},
				{
					"inputs": [
						{
							"internalType": "address",
							"name": "newOwner",
							"type": "address"
						}
					],
					"name": "transferOwnership",
					"outputs": [],
					"stateMutability": "nonpayable",
					"type": "function"
				},
				{
					"inputs": [
						{
							"internalType": "string",
							"name": "_description",
							"type": "string"
						}
					],
					"name": "voterProposal",
					"outputs": [],
					"stateMutability": "nonpayable",
					"type": "function"
				}
			],
			"devdoc": {
				"kind": "dev",
				"methods": {
					"owner()": {
						"details": "Returns the address of the current owner."
					},
					"renounceOwnership()": {
						"details": "Leaves the contract without owner. It will not be possible to call `onlyOwner` functions anymore. Can only be called by the current owner. NOTE: Renouncing ownership will leave the contract without an owner, thereby removing any functionality that is only available to the owner."
					},
					"transferOwnership(address)": {
						"details": "Transfers ownership of the contract to a new account (`newOwner`). Can only be called by the current owner."
					}
				},
				"version": 1
			},
			"evm": {
				"assembly": "    /* \"contracts/voting-system/voting.sol\":169:2009  contract voting is Ownable{... */\n  mstore(0x40, 0x80)\n    /* \"contracts/voting-system/voting.sol\":995:996  0 */\n  0x00\n    /* \"contracts/voting-system/voting.sol\":957:996  uint private _voterWhitelistedCount = 0 */\n  0x02\n  sstore\n    /* \"contracts/voting-system/voting.sol\":169:2009  contract voting is Ownable{... */\n  callvalue\n  dup1\n  iszero\n  tag_1\n  jumpi\n  0x00\n  dup1\n  revert\ntag_1:\n  pop\n    /* \"https://github.com/OpenZeppelin/openzeppelin-contracts/blob/master/contracts/access/Ownable.sol\":936:968  _transferOwnership(_msgSender()) */\n  tag_4\n    /* \"https://github.com/OpenZeppelin/openzeppelin-contracts/blob/master/contracts/access/Ownable.sol\":955:967  _msgSender() */\n  tag_5\n    /* \"https://github.com/OpenZeppelin/openzeppelin-contracts/blob/master/contracts/access/Ownable.sol\":955:965  _msgSender */\n  shl(0x20, tag_6)\n    /* \"https://github.com/OpenZeppelin/openzeppelin-contracts/blob/master/contracts/access/Ownable.sol\":955:967  _msgSender() */\n  0x20\n  shr\n  jump\t// in\ntag_5:\n    /* \"https://github.com/OpenZeppelin/openzeppelin-contracts/blob/master/contracts/access/Ownable.sol\":936:954  _transferOwnership */\n  shl(0x20, tag_7)\n    /* \"https://github.com/OpenZeppelin/openzeppelin-contracts/blob/master/contracts/access/Ownable.sol\":936:968  _transferOwnership(_msgSender()) */\n  0x20\n  shr\n  jump\t// in\ntag_4:\n    /* \"contracts/voting-system/voting.sol\":169:2009  contract voting is Ownable{... */\n  jump(tag_8)\n    /* \"https://github.com/OpenZeppelin/openzeppelin-contracts/blob/master/contracts/utils/Context.sol\":640:736  function _msgSender() internal view virtual returns (address) {... */\ntag_6:\n    /* \"https://github.com/OpenZeppelin/openzeppelin-contracts/blob/master/contracts/utils/Context.sol\":693:700  address */\n  0x00\n    /* \"https://github.com/OpenZeppelin/openzeppelin-contracts/blob/master/contracts/utils/Context.sol\":719:729  msg.sender */\n  caller\n    /* \"https://github.com/OpenZeppelin/openzeppelin-contracts/blob/master/contracts/utils/Context.sol\":712:729  return msg.sender */\n  swap1\n  pop\n    /* \"https://github.com/OpenZeppelin/openzeppelin-contracts/blob/master/contracts/utils/Context.sol\":640:736  function _msgSender() internal view virtual returns (address) {... */\n  swap1\n  jump\t// out\n    /* \"https://github.com/OpenZeppelin/openzeppelin-contracts/blob/master/contracts/access/Ownable.sol\":2433:2620  function _transferOwnership(address newOwner) internal virtual {... */\ntag_7:\n    /* \"https://github.com/OpenZeppelin/openzeppelin-contracts/blob/master/contracts/access/Ownable.sol\":2506:2522  address oldOwner */\n  0x00\n    /* \"https://github.com/OpenZeppelin/openzeppelin-contracts/blob/master/contracts/access/Ownable.sol\":2525:2531  _owner */\n  dup1\n  0x00\n  swap1\n  sload\n  swap1\n  0x0100\n  exp\n  swap1\n  div\n  0xffffffffffffffffffffffffffffffffffffffff\n  and\n    /* \"https://github.com/OpenZeppelin/openzeppelin-contracts/blob/master/contracts/access/Ownable.sol\":2506:2531  address oldOwner = _owner */\n  swap1\n  pop\n    /* \"https://github.com/OpenZeppelin/openzeppelin-contracts/blob/master/contracts/access/Ownable.sol\":2550:2558  newOwner */\n  dup2\n    /* \"https://github.com/OpenZeppelin/openzeppelin-contracts/blob/master/contracts/access/Ownable.sol\":2541:2547  _owner */\n  0x00\n  dup1\n    /* \"https://github.com/OpenZeppelin/openzeppelin-contracts/blob/master/contracts/access/Ownable.sol\":2541:2558  _owner = newOwner */\n  0x0100\n  exp\n  dup2\n  sload\n  dup2\n  0xffffffffffffffffffffffffffffffffffffffff\n  mul\n  not\n  and\n  swap1\n  dup4\n  0xffffffffffffffffffffffffffffffffffffffff\n  and\n  mul\n  or\n  swap1\n  sstore\n  pop\n    /* \"https://github.com/OpenZeppelin/openzeppelin-contracts/blob/master/contracts/access/Ownable.sol\":2604:2612  newOwner */\n  dup2\n    /* \"https://github.com/OpenZeppelin/openzeppelin-contracts/blob/master/contracts/access/Ownable.sol\":2573:2613  OwnershipTransferred(oldOwner, newOwner) */\n  0xffffffffffffffffffffffffffffffffffffffff\n  and\n    /* \"https://github.com/OpenZeppelin/openzeppelin-contracts/blob/master/contracts/access/Ownable.sol\":2594:2602  oldOwner */\n  dup2\n    /* \"https://github.com/OpenZeppelin/openzeppelin-contracts/blob/master/contracts/access/Ownable.sol\":2573:2613  OwnershipTransferred(oldOwner, newOwner) */\n  0xffffffffffffffffffffffffffffffffffffffff\n  and\n  0x8be0079c531659141344cd1fd0a4f28419497f9722a3daafe3b4186f6b6457e0\n  mload(0x40)\n  mload(0x40)\n  dup1\n  swap2\n  sub\n  swap1\n  log3\n    /* \"https://github.com/OpenZeppelin/openzeppelin-contracts/blob/master/contracts/access/Ownable.sol\":2496:2620  {... */\n  pop\n    /* \"https://github.com/OpenZeppelin/openzeppelin-contracts/blob/master/contracts/access/Ownable.sol\":2433:2620  function _transferOwnership(address newOwner) internal virtual {... */\n  pop\n  jump\t// out\n    /* \"contracts/voting-system/voting.sol\":169:2009  contract voting is Ownable{... */\ntag_8:\n  dataSize(sub_0)\n  dup1\n  dataOffset(sub_0)\n  0x00\n  codecopy\n  0x00\n  return\nstop\n\nsub_0: assembly {\n        /* \"contracts/voting-system/voting.sol\":169:2009  contract voting is Ownable{... */\n      mstore(0x40, 0x80)\n      callvalue\n      dup1\n      iszero\n      tag_1\n      jumpi\n      0x00\n      dup1\n      revert\n    tag_1:\n      pop\n      jumpi(tag_2, lt(calldatasize, 0x04))\n      shr(0xe0, calldataload(0x00))\n      dup1\n      0x8da5cb5b\n      gt\n      tag_10\n      jumpi\n      dup1\n      0x8da5cb5b\n      eq\n      tag_6\n      jumpi\n      dup1\n      0x8e7ea5b2\n      eq\n      tag_7\n      jumpi\n      dup1\n      0x9e95dd3f\n      eq\n      tag_8\n      jumpi\n      dup1\n      0xf2fde38b\n      eq\n      tag_9\n      jumpi\n      jump(tag_2)\n    tag_10:\n      dup1\n      0x43e20a1d\n      eq\n      tag_3\n      jumpi\n      dup1\n      0x715018a6\n      eq\n      tag_4\n      jumpi\n      dup1\n      0x7669d79e\n      eq\n      tag_5\n      jumpi\n    tag_2:\n      0x00\n      dup1\n      revert\n        /* \"contracts/voting-system/voting.sol\":1061:1390  function adminWhitelist(address _addrVoter) external onlyOwner{... */\n    tag_3:\n      tag_11\n      0x04\n      dup1\n      calldatasize\n      sub\n      dup2\n      add\n      swap1\n      tag_12\n      swap2\n      swap1\n      tag_13\n      jump\t// in\n    tag_12:\n      tag_14\n      jump\t// in\n    tag_11:\n      stop\n        /* \"https://github.com/OpenZeppelin/openzeppelin-contracts/blob/master/contracts/access/Ownable.sol\":1831:1932  function renounceOwnership() public virtual onlyOwner {... */\n    tag_4:\n      tag_15\n      tag_16\n      jump\t// in\n    tag_15:\n      stop\n        /* \"contracts/voting-system/voting.sol\":1398:1580  function adminStartProposalsSession() external onlyOwner{... */\n    tag_5:\n      tag_17\n      tag_18\n      jump\t// in\n    tag_17:\n      stop\n        /* \"https://github.com/OpenZeppelin/openzeppelin-contracts/blob/master/contracts/access/Ownable.sol\":1201:1286  function owner() public view virtual returns (address) {... */\n    tag_6:\n      tag_19\n      tag_20\n      jump\t// in\n    tag_19:\n      mload(0x40)\n      tag_21\n      swap2\n      swap1\n      tag_22\n      jump\t// in\n    tag_21:\n      mload(0x40)\n      dup1\n      swap2\n      sub\n      swap1\n      return\n        /* \"contracts/voting-system/voting.sol\":1968:2006  function getWinner() public {... */\n    tag_7:\n      tag_23\n      tag_24\n      jump\t// in\n    tag_23:\n      stop\n        /* \"contracts/voting-system/voting.sol\":1592:1950  function voterProposal(string calldata _description) external {... */\n    tag_8:\n      tag_25\n      0x04\n      dup1\n      calldatasize\n      sub\n      dup2\n      add\n      swap1\n      tag_26\n      swap2\n      swap1\n      tag_27\n      jump\t// in\n    tag_26:\n      tag_28\n      jump\t// in\n    tag_25:\n      stop\n        /* \"https://github.com/OpenZeppelin/openzeppelin-contracts/blob/master/contracts/access/Ownable.sol\":2081:2279  function transferOwnership(address newOwner) public virtual onlyOwner {... */\n    tag_9:\n      tag_29\n      0x04\n      dup1\n      calldatasize\n      sub\n      dup2\n      add\n      swap1\n      tag_30\n      swap2\n      swap1\n      tag_13\n      jump\t// in\n    tag_30:\n      tag_31\n      jump\t// in\n    tag_29:\n      stop\n        /* \"contracts/voting-system/voting.sol\":1061:1390  function adminWhitelist(address _addrVoter) external onlyOwner{... */\n    tag_14:\n        /* \"https://github.com/OpenZeppelin/openzeppelin-contracts/blob/master/contracts/access/Ownable.sol\":1094:1107  _checkOwner() */\n      tag_33\n        /* \"https://github.com/OpenZeppelin/openzeppelin-contracts/blob/master/contracts/access/Ownable.sol\":1094:1105  _checkOwner */\n      tag_34\n        /* \"https://github.com/OpenZeppelin/openzeppelin-contracts/blob/master/contracts/access/Ownable.sol\":1094:1107  _checkOwner() */\n      jump\t// in\n    tag_33:\n        /* \"contracts/voting-system/voting.sol\":1194:1208  voterWhitelist */\n      0x01\n        /* \"contracts/voting-system/voting.sol\":1194:1220  voterWhitelist[_addrVoter] */\n      0x00\n        /* \"contracts/voting-system/voting.sol\":1209:1219  _addrVoter */\n      dup3\n        /* \"contracts/voting-system/voting.sol\":1194:1220  voterWhitelist[_addrVoter] */\n      0xffffffffffffffffffffffffffffffffffffffff\n      and\n      0xffffffffffffffffffffffffffffffffffffffff\n      and\n      dup2\n      mstore\n      0x20\n      add\n      swap1\n      dup2\n      mstore\n      0x20\n      add\n      0x00\n      keccak256\n      0x00\n      swap1\n      sload\n      swap1\n      0x0100\n      exp\n      swap1\n      div\n      0xff\n      and\n        /* \"contracts/voting-system/voting.sol\":1193:1220  !voterWhitelist[_addrVoter] */\n      iszero\n        /* \"contracts/voting-system/voting.sol\":1185:1258  require(!voterWhitelist[_addrVoter], \"The voter is already whitelisted.\") */\n      tag_36\n      jumpi\n      mload(0x40)\n      0x08c379a000000000000000000000000000000000000000000000000000000000\n      dup2\n      mstore\n      0x04\n      add\n      tag_37\n      swap1\n      tag_38\n      jump\t// in\n    tag_37:\n      mload(0x40)\n      dup1\n      swap2\n      sub\n      swap1\n      revert\n    tag_36:\n        /* \"contracts/voting-system/voting.sol\":1300:1304  true */\n      0x01\n        /* \"contracts/voting-system/voting.sol\":1271:1285  voterWhitelist */\n      dup1\n        /* \"contracts/voting-system/voting.sol\":1271:1297  voterWhitelist[_addrVoter] */\n      0x00\n        /* \"contracts/voting-system/voting.sol\":1286:1296  _addrVoter */\n      dup4\n        /* \"contracts/voting-system/voting.sol\":1271:1297  voterWhitelist[_addrVoter] */\n      0xffffffffffffffffffffffffffffffffffffffff\n      and\n      0xffffffffffffffffffffffffffffffffffffffff\n      and\n      dup2\n      mstore\n      0x20\n      add\n      swap1\n      dup2\n      mstore\n      0x20\n      add\n      0x00\n      keccak256\n      0x00\n        /* \"contracts/voting-system/voting.sol\":1271:1304  voterWhitelist[_addrVoter] = true */\n      0x0100\n      exp\n      dup2\n      sload\n      dup2\n      0xff\n      mul\n      not\n      and\n      swap1\n      dup4\n      iszero\n      iszero\n      mul\n      or\n      swap1\n      sstore\n      pop\n        /* \"contracts/voting-system/voting.sol\":1315:1337  _voterWhitelistedCount */\n      0x02\n      0x00\n        /* \"contracts/voting-system/voting.sol\":1315:1339  _voterWhitelistedCount++ */\n      dup2\n      sload\n      dup1\n      swap3\n      swap2\n      swap1\n      tag_39\n      swap1\n      tag_40\n      jump\t// in\n    tag_39:\n      swap2\n      swap1\n      pop\n      sstore\n      pop\n        /* \"contracts/voting-system/voting.sol\":1355:1382  VoterRegistered(_addrVoter) */\n      0xb6be2187d059cc2a55fe29e0e503b566e1e0f8c8780096e185429350acffd3dd\n        /* \"contracts/voting-system/voting.sol\":1371:1381  _addrVoter */\n      dup2\n        /* \"contracts/voting-system/voting.sol\":1355:1382  VoterRegistered(_addrVoter) */\n      mload(0x40)\n      tag_41\n      swap2\n      swap1\n      tag_22\n      jump\t// in\n    tag_41:\n      mload(0x40)\n      dup1\n      swap2\n      sub\n      swap1\n      log1\n        /* \"contracts/voting-system/voting.sol\":1061:1390  function adminWhitelist(address _addrVoter) external onlyOwner{... */\n      pop\n      jump\t// out\n        /* \"https://github.com/OpenZeppelin/openzeppelin-contracts/blob/master/contracts/access/Ownable.sol\":1831:1932  function renounceOwnership() public virtual onlyOwner {... */\n    tag_16:\n        /* \"https://github.com/OpenZeppelin/openzeppelin-contracts/blob/master/contracts/access/Ownable.sol\":1094:1107  _checkOwner() */\n      tag_43\n        /* \"https://github.com/OpenZeppelin/openzeppelin-contracts/blob/master/contracts/access/Ownable.sol\":1094:1105  _checkOwner */\n      tag_34\n        /* \"https://github.com/OpenZeppelin/openzeppelin-contracts/blob/master/contracts/access/Ownable.sol\":1094:1107  _checkOwner() */\n      jump\t// in\n    tag_43:\n        /* \"https://github.com/OpenZeppelin/openzeppelin-contracts/blob/master/contracts/access/Ownable.sol\":1895:1925  _transferOwnership(address(0)) */\n      tag_45\n        /* \"https://github.com/OpenZeppelin/openzeppelin-contracts/blob/master/contracts/access/Ownable.sol\":1922:1923  0 */\n      0x00\n        /* \"https://github.com/OpenZeppelin/openzeppelin-contracts/blob/master/contracts/access/Ownable.sol\":1895:1913  _transferOwnership */\n      tag_46\n        /* \"https://github.com/OpenZeppelin/openzeppelin-contracts/blob/master/contracts/access/Ownable.sol\":1895:1925  _transferOwnership(address(0)) */\n      jump\t// in\n    tag_45:\n        /* \"https://github.com/OpenZeppelin/openzeppelin-contracts/blob/master/contracts/access/Ownable.sol\":1831:1932  function renounceOwnership() public virtual onlyOwner {... */\n      jump\t// out\n        /* \"contracts/voting-system/voting.sol\":1398:1580  function adminStartProposalsSession() external onlyOwner{... */\n    tag_18:\n        /* \"https://github.com/OpenZeppelin/openzeppelin-contracts/blob/master/contracts/access/Ownable.sol\":1094:1107  _checkOwner() */\n      tag_48\n        /* \"https://github.com/OpenZeppelin/openzeppelin-contracts/blob/master/contracts/access/Ownable.sol\":1094:1105  _checkOwner */\n      tag_34\n        /* \"https://github.com/OpenZeppelin/openzeppelin-contracts/blob/master/contracts/access/Ownable.sol\":1094:1107  _checkOwner() */\n      jump\t// in\n    tag_48:\n        /* \"contracts/voting-system/voting.sol\":1500:1501  1 */\n      0x01\n        /* \"contracts/voting-system/voting.sol\":1475:1497  _voterWhitelistedCount */\n      sload(0x02)\n        /* \"contracts/voting-system/voting.sol\":1475:1501  _voterWhitelistedCount > 1 */\n      gt\n        /* \"contracts/voting-system/voting.sol\":1467:1568  require(_voterWhitelistedCount > 1, \"Need at least 2 whitelisted voter to start a proposal session.\") */\n      tag_50\n      jumpi\n      mload(0x40)\n      0x08c379a000000000000000000000000000000000000000000000000000000000\n      dup2\n      mstore\n      0x04\n      add\n      tag_51\n      swap1\n      tag_52\n      jump\t// in\n    tag_51:\n      mload(0x40)\n      dup1\n      swap2\n      sub\n      swap1\n      revert\n    tag_50:\n        /* \"contracts/voting-system/voting.sol\":1398:1580  function adminStartProposalsSession() external onlyOwner{... */\n      jump\t// out\n        /* \"https://github.com/OpenZeppelin/openzeppelin-contracts/blob/master/contracts/access/Ownable.sol\":1201:1286  function owner() public view virtual returns (address) {... */\n    tag_20:\n        /* \"https://github.com/OpenZeppelin/openzeppelin-contracts/blob/master/contracts/access/Ownable.sol\":1247:1254  address */\n      0x00\n        /* \"https://github.com/OpenZeppelin/openzeppelin-contracts/blob/master/contracts/access/Ownable.sol\":1273:1279  _owner */\n      dup1\n      0x00\n      swap1\n      sload\n      swap1\n      0x0100\n      exp\n      swap1\n      div\n      0xffffffffffffffffffffffffffffffffffffffff\n      and\n        /* \"https://github.com/OpenZeppelin/openzeppelin-contracts/blob/master/contracts/access/Ownable.sol\":1266:1279  return _owner */\n      swap1\n      pop\n        /* \"https://github.com/OpenZeppelin/openzeppelin-contracts/blob/master/contracts/access/Ownable.sol\":1201:1286  function owner() public view virtual returns (address) {... */\n      swap1\n      jump\t// out\n        /* \"contracts/voting-system/voting.sol\":1968:2006  function getWinner() public {... */\n    tag_24:\n      jump\t// out\n        /* \"contracts/voting-system/voting.sol\":1592:1950  function voterProposal(string calldata _description) external {... */\n    tag_28:\n        /* \"contracts/voting-system/voting.sol\":1683:1697  voterWhitelist */\n      0x01\n        /* \"contracts/voting-system/voting.sol\":1683:1709  voterWhitelist[msg.sender] */\n      0x00\n        /* \"contracts/voting-system/voting.sol\":1698:1708  msg.sender */\n      caller\n        /* \"contracts/voting-system/voting.sol\":1683:1709  voterWhitelist[msg.sender] */\n      0xffffffffffffffffffffffffffffffffffffffff\n      and\n      0xffffffffffffffffffffffffffffffffffffffff\n      and\n      dup2\n      mstore\n      0x20\n      add\n      swap1\n      dup2\n      mstore\n      0x20\n      add\n      0x00\n      keccak256\n      0x00\n      swap1\n      sload\n      swap1\n      0x0100\n      exp\n      swap1\n      div\n      0xff\n      and\n        /* \"contracts/voting-system/voting.sol\":1675:1763  require(voterWhitelist[msg.sender], \"The voter must be whitelisted to make a proposal.\") */\n      tag_56\n      jumpi\n      mload(0x40)\n      0x08c379a000000000000000000000000000000000000000000000000000000000\n      dup2\n      mstore\n      0x04\n      add\n      tag_57\n      swap1\n      tag_58\n      jump\t// in\n    tag_57:\n      mload(0x40)\n      dup1\n      swap2\n      sub\n      swap1\n      revert\n    tag_56:\n        /* \"contracts/voting-system/voting.sol\":1858:1883  Proposal(_description, 0) */\n      mload(0x40)\n      dup1\n      0x40\n      add\n      0x40\n      mstore\n      dup1\n        /* \"contracts/voting-system/voting.sol\":1867:1879  _description */\n      dup4\n      dup4\n        /* \"contracts/voting-system/voting.sol\":1858:1883  Proposal(_description, 0) */\n      dup1\n      dup1\n      0x1f\n      add\n      0x20\n      dup1\n      swap2\n      div\n      mul\n      0x20\n      add\n      mload(0x40)\n      swap1\n      dup2\n      add\n      0x40\n      mstore\n      dup1\n      swap4\n      swap3\n      swap2\n      swap1\n      dup2\n      dup2\n      mstore\n      0x20\n      add\n      dup4\n      dup4\n      dup1\n      dup3\n      dup5\n      calldatacopy\n      0x00\n      dup2\n      dup5\n      add\n      mstore\n      not(0x1f)\n      0x1f\n      dup3\n      add\n      and\n      swap1\n      pop\n      dup1\n      dup4\n      add\n      swap3\n      pop\n      pop\n      pop\n      pop\n      pop\n      pop\n      pop\n      dup2\n      mstore\n      0x20\n      add\n        /* \"contracts/voting-system/voting.sol\":1881:1882  0 */\n      0x00\n        /* \"contracts/voting-system/voting.sol\":1858:1883  Proposal(_description, 0) */\n      dup2\n      mstore\n      pop\n        /* \"contracts/voting-system/voting.sol\":1829:1843  voterProposals */\n      0x03\n        /* \"contracts/voting-system/voting.sol\":1829:1855  voterProposals[msg.sender] */\n      0x00\n        /* \"contracts/voting-system/voting.sol\":1844:1854  msg.sender */\n      caller\n        /* \"contracts/voting-system/voting.sol\":1829:1855  voterProposals[msg.sender] */\n      0xffffffffffffffffffffffffffffffffffffffff\n      and\n      0xffffffffffffffffffffffffffffffffffffffff\n      and\n      dup2\n      mstore\n      0x20\n      add\n      swap1\n      dup2\n      mstore\n      0x20\n      add\n      0x00\n      keccak256\n        /* \"contracts/voting-system/voting.sol\":1829:1883  voterProposals[msg.sender] = Proposal(_description, 0) */\n      0x00\n      dup3\n      add\n      mload\n      dup2\n      0x00\n      add\n      swap1\n      dup1\n      mload\n      swap1\n      0x20\n      add\n      swap1\n      tag_59\n      swap3\n      swap2\n      swap1\n      tag_60\n      jump\t// in\n    tag_59:\n      pop\n      0x20\n      dup3\n      add\n      mload\n      dup2\n      0x01\n      add\n      sstore\n      swap1\n      pop\n      pop\n        /* \"contracts/voting-system/voting.sol\":1592:1950  function voterProposal(string calldata _description) external {... */\n      pop\n      pop\n      jump\t// out\n        /* \"https://github.com/OpenZeppelin/openzeppelin-contracts/blob/master/contracts/access/Ownable.sol\":2081:2279  function transferOwnership(address newOwner) public virtual onlyOwner {... */\n    tag_31:\n        /* \"https://github.com/OpenZeppelin/openzeppelin-contracts/blob/master/contracts/access/Ownable.sol\":1094:1107  _checkOwner() */\n      tag_62\n        /* \"https://github.com/OpenZeppelin/openzeppelin-contracts/blob/master/contracts/access/Ownable.sol\":1094:1105  _checkOwner */\n      tag_34\n        /* \"https://github.com/OpenZeppelin/openzeppelin-contracts/blob/master/contracts/access/Ownable.sol\":1094:1107  _checkOwner() */\n      jump\t// in\n    tag_62:\n        /* \"https://github.com/OpenZeppelin/openzeppelin-contracts/blob/master/contracts/access/Ownable.sol\":2189:2190  0 */\n      0x00\n        /* \"https://github.com/OpenZeppelin/openzeppelin-contracts/blob/master/contracts/access/Ownable.sol\":2169:2191  newOwner != address(0) */\n      0xffffffffffffffffffffffffffffffffffffffff\n      and\n        /* \"https://github.com/OpenZeppelin/openzeppelin-contracts/blob/master/contracts/access/Ownable.sol\":2169:2177  newOwner */\n      dup2\n        /* \"https://github.com/OpenZeppelin/openzeppelin-contracts/blob/master/contracts/access/Ownable.sol\":2169:2191  newOwner != address(0) */\n      0xffffffffffffffffffffffffffffffffffffffff\n      and\n      sub\n        /* \"https://github.com/OpenZeppelin/openzeppelin-contracts/blob/master/contracts/access/Ownable.sol\":2161:2234  require(newOwner != address(0), \"Ownable: new owner is the zero address\") */\n      tag_64\n      jumpi\n      mload(0x40)\n      0x08c379a000000000000000000000000000000000000000000000000000000000\n      dup2\n      mstore\n      0x04\n      add\n      tag_65\n      swap1\n      tag_66\n      jump\t// in\n    tag_65:\n      mload(0x40)\n      dup1\n      swap2\n      sub\n      swap1\n      revert\n    tag_64:\n        /* \"https://github.com/OpenZeppelin/openzeppelin-contracts/blob/master/contracts/access/Ownable.sol\":2244:2272  _transferOwnership(newOwner) */\n      tag_67\n        /* \"https://github.com/OpenZeppelin/openzeppelin-contracts/blob/master/contracts/access/Ownable.sol\":2263:2271  newOwner */\n      dup2\n        /* \"https://github.com/OpenZeppelin/openzeppelin-contracts/blob/master/contracts/access/Ownable.sol\":2244:2262  _transferOwnership */\n      tag_46\n        /* \"https://github.com/OpenZeppelin/openzeppelin-contracts/blob/master/contracts/access/Ownable.sol\":2244:2272  _transferOwnership(newOwner) */\n      jump\t// in\n    tag_67:\n        /* \"https://github.com/OpenZeppelin/openzeppelin-contracts/blob/master/contracts/access/Ownable.sol\":2081:2279  function transferOwnership(address newOwner) public virtual onlyOwner {... */\n      pop\n      jump\t// out\n        /* \"https://github.com/OpenZeppelin/openzeppelin-contracts/blob/master/contracts/access/Ownable.sol\":1359:1489  function _checkOwner() internal view virtual {... */\n    tag_34:\n        /* \"https://github.com/OpenZeppelin/openzeppelin-contracts/blob/master/contracts/access/Ownable.sol\":1433:1445  _msgSender() */\n      tag_69\n        /* \"https://github.com/OpenZeppelin/openzeppelin-contracts/blob/master/contracts/access/Ownable.sol\":1433:1443  _msgSender */\n      tag_70\n        /* \"https://github.com/OpenZeppelin/openzeppelin-contracts/blob/master/contracts/access/Ownable.sol\":1433:1445  _msgSender() */\n      jump\t// in\n    tag_69:\n        /* \"https://github.com/OpenZeppelin/openzeppelin-contracts/blob/master/contracts/access/Ownable.sol\":1422:1445  owner() == _msgSender() */\n      0xffffffffffffffffffffffffffffffffffffffff\n      and\n        /* \"https://github.com/OpenZeppelin/openzeppelin-contracts/blob/master/contracts/access/Ownable.sol\":1422:1429  owner() */\n      tag_71\n        /* \"https://github.com/OpenZeppelin/openzeppelin-contracts/blob/master/contracts/access/Ownable.sol\":1422:1427  owner */\n      tag_20\n        /* \"https://github.com/OpenZeppelin/openzeppelin-contracts/blob/master/contracts/access/Ownable.sol\":1422:1429  owner() */\n      jump\t// in\n    tag_71:\n        /* \"https://github.com/OpenZeppelin/openzeppelin-contracts/blob/master/contracts/access/Ownable.sol\":1422:1445  owner() == _msgSender() */\n      0xffffffffffffffffffffffffffffffffffffffff\n      and\n      eq\n        /* \"https://github.com/OpenZeppelin/openzeppelin-contracts/blob/master/contracts/access/Ownable.sol\":1414:1482  require(owner() == _msgSender(), \"Ownable: caller is not the owner\") */\n      tag_72\n      jumpi\n      mload(0x40)\n      0x08c379a000000000000000000000000000000000000000000000000000000000\n      dup2\n      mstore\n      0x04\n      add\n      tag_73\n      swap1\n      tag_74\n      jump\t// in\n    tag_73:\n      mload(0x40)\n      dup1\n      swap2\n      sub\n      swap1\n      revert\n    tag_72:\n        /* \"https://github.com/OpenZeppelin/openzeppelin-contracts/blob/master/contracts/access/Ownable.sol\":1359:1489  function _checkOwner() internal view virtual {... */\n      jump\t// out\n        /* \"https://github.com/OpenZeppelin/openzeppelin-contracts/blob/master/contracts/access/Ownable.sol\":2433:2620  function _transferOwnership(address newOwner) internal virtual {... */\n    tag_46:\n        /* \"https://github.com/OpenZeppelin/openzeppelin-contracts/blob/master/contracts/access/Ownable.sol\":2506:2522  address oldOwner */\n      0x00\n        /* \"https://github.com/OpenZeppelin/openzeppelin-contracts/blob/master/contracts/access/Ownable.sol\":2525:2531  _owner */\n      dup1\n      0x00\n      swap1\n      sload\n      swap1\n      0x0100\n      exp\n      swap1\n      div\n      0xffffffffffffffffffffffffffffffffffffffff\n      and\n        /* \"https://github.com/OpenZeppelin/openzeppelin-contracts/blob/master/contracts/access/Ownable.sol\":2506:2531  address oldOwner = _owner */\n      swap1\n      pop\n        /* \"https://github.com/OpenZeppelin/openzeppelin-contracts/blob/master/contracts/access/Ownable.sol\":2550:2558  newOwner */\n      dup2\n        /* \"https://github.com/OpenZeppelin/openzeppelin-contracts/blob/master/contracts/access/Ownable.sol\":2541:2547  _owner */\n      0x00\n      dup1\n        /* \"https://github.com/OpenZeppelin/openzeppelin-contracts/blob/master/contracts/access/Ownable.sol\":2541:2558  _owner = newOwner */\n      0x0100\n      exp\n      dup2\n      sload\n      dup2\n      0xffffffffffffffffffffffffffffffffffffffff\n      mul\n      not\n      and\n      swap1\n      dup4\n      0xffffffffffffffffffffffffffffffffffffffff\n      and\n      mul\n      or\n      swap1\n      sstore\n      pop\n        /* \"https://github.com/OpenZeppelin/openzeppelin-contracts/blob/master/contracts/access/Ownable.sol\":2604:2612  newOwner */\n      dup2\n        /* \"https://github.com/OpenZeppelin/openzeppelin-contracts/blob/master/contracts/access/Ownable.sol\":2573:2613  OwnershipTransferred(oldOwner, newOwner) */\n      0xffffffffffffffffffffffffffffffffffffffff\n      and\n        /* \"https://github.com/OpenZeppelin/openzeppelin-contracts/blob/master/contracts/access/Ownable.sol\":2594:2602  oldOwner */\n      dup2\n        /* \"https://github.com/OpenZeppelin/openzeppelin-contracts/blob/master/contracts/access/Ownable.sol\":2573:2613  OwnershipTransferred(oldOwner, newOwner) */\n      0xffffffffffffffffffffffffffffffffffffffff\n      and\n      0x8be0079c531659141344cd1fd0a4f28419497f9722a3daafe3b4186f6b6457e0\n      mload(0x40)\n      mload(0x40)\n      dup1\n      swap2\n      sub\n      swap1\n      log3\n        /* \"https://github.com/OpenZeppelin/openzeppelin-contracts/blob/master/contracts/access/Ownable.sol\":2496:2620  {... */\n      pop\n        /* \"https://github.com/OpenZeppelin/openzeppelin-contracts/blob/master/contracts/access/Ownable.sol\":2433:2620  function _transferOwnership(address newOwner) internal virtual {... */\n      pop\n      jump\t// out\n        /* \"https://github.com/OpenZeppelin/openzeppelin-contracts/blob/master/contracts/utils/Context.sol\":640:736  function _msgSender() internal view virtual returns (address) {... */\n    tag_70:\n        /* \"https://github.com/OpenZeppelin/openzeppelin-contracts/blob/master/contracts/utils/Context.sol\":693:700  address */\n      0x00\n        /* \"https://github.com/OpenZeppelin/openzeppelin-contracts/blob/master/contracts/utils/Context.sol\":719:729  msg.sender */\n      caller\n        /* \"https://github.com/OpenZeppelin/openzeppelin-contracts/blob/master/contracts/utils/Context.sol\":712:729  return msg.sender */\n      swap1\n      pop\n        /* \"https://github.com/OpenZeppelin/openzeppelin-contracts/blob/master/contracts/utils/Context.sol\":640:736  function _msgSender() internal view virtual returns (address) {... */\n      swap1\n      jump\t// out\n    tag_60:\n      dup3\n      dup1\n      sload\n      tag_77\n      swap1\n      tag_78\n      jump\t// in\n    tag_77:\n      swap1\n      0x00\n      mstore\n      keccak256(0x00, 0x20)\n      swap1\n      0x1f\n      add\n      0x20\n      swap1\n      div\n      dup2\n      add\n      swap3\n      dup3\n      tag_80\n      jumpi\n      0x00\n      dup6\n      sstore\n      jump(tag_79)\n    tag_80:\n      dup3\n      0x1f\n      lt\n      tag_81\n      jumpi\n      dup1\n      mload\n      not(0xff)\n      and\n      dup4\n      dup1\n      add\n      or\n      dup6\n      sstore\n      jump(tag_79)\n    tag_81:\n      dup3\n      dup1\n      add\n      0x01\n      add\n      dup6\n      sstore\n      dup3\n      iszero\n      tag_79\n      jumpi\n      swap2\n      dup3\n      add\n    tag_82:\n      dup3\n      dup2\n      gt\n      iszero\n      tag_83\n      jumpi\n      dup3\n      mload\n      dup3\n      sstore\n      swap2\n      0x20\n      add\n      swap2\n      swap1\n      0x01\n      add\n      swap1\n      jump(tag_82)\n    tag_83:\n    tag_79:\n      pop\n      swap1\n      pop\n      tag_84\n      swap2\n      swap1\n      tag_85\n      jump\t// in\n    tag_84:\n      pop\n      swap1\n      jump\t// out\n    tag_85:\n    tag_86:\n      dup1\n      dup3\n      gt\n      iszero\n      tag_87\n      jumpi\n      0x00\n      dup2\n      0x00\n      swap1\n      sstore\n      pop\n      0x01\n      add\n      jump(tag_86)\n    tag_87:\n      pop\n      swap1\n      jump\t// out\n        /* \"#utility.yul\":88:205   */\n    tag_89:\n        /* \"#utility.yul\":197:198   */\n      0x00\n        /* \"#utility.yul\":194:195   */\n      dup1\n        /* \"#utility.yul\":187:199   */\n      revert\n        /* \"#utility.yul\":211:328   */\n    tag_90:\n        /* \"#utility.yul\":320:321   */\n      0x00\n        /* \"#utility.yul\":317:318   */\n      dup1\n        /* \"#utility.yul\":310:322   */\n      revert\n        /* \"#utility.yul\":334:460   */\n    tag_91:\n        /* \"#utility.yul\":371:378   */\n      0x00\n        /* \"#utility.yul\":411:453   */\n      0xffffffffffffffffffffffffffffffffffffffff\n        /* \"#utility.yul\":404:409   */\n      dup3\n        /* \"#utility.yul\":400:454   */\n      and\n        /* \"#utility.yul\":389:454   */\n      swap1\n      pop\n        /* \"#utility.yul\":334:460   */\n      swap2\n      swap1\n      pop\n      jump\t// out\n        /* \"#utility.yul\":466:562   */\n    tag_92:\n        /* \"#utility.yul\":503:510   */\n      0x00\n        /* \"#utility.yul\":532:556   */\n      tag_120\n        /* \"#utility.yul\":550:555   */\n      dup3\n        /* \"#utility.yul\":532:556   */\n      tag_91\n      jump\t// in\n    tag_120:\n        /* \"#utility.yul\":521:556   */\n      swap1\n      pop\n        /* \"#utility.yul\":466:562   */\n      swap2\n      swap1\n      pop\n      jump\t// out\n        /* \"#utility.yul\":568:690   */\n    tag_93:\n        /* \"#utility.yul\":641:665   */\n      tag_122\n        /* \"#utility.yul\":659:664   */\n      dup2\n        /* \"#utility.yul\":641:665   */\n      tag_92\n      jump\t// in\n    tag_122:\n        /* \"#utility.yul\":634:639   */\n      dup2\n        /* \"#utility.yul\":631:666   */\n      eq\n        /* \"#utility.yul\":621:684   */\n      tag_123\n      jumpi\n        /* \"#utility.yul\":680:681   */\n      0x00\n        /* \"#utility.yul\":677:678   */\n      dup1\n        /* \"#utility.yul\":670:682   */\n      revert\n        /* \"#utility.yul\":621:684   */\n    tag_123:\n        /* \"#utility.yul\":568:690   */\n      pop\n      jump\t// out\n        /* \"#utility.yul\":696:835   */\n    tag_94:\n        /* \"#utility.yul\":742:747   */\n      0x00\n        /* \"#utility.yul\":780:786   */\n      dup2\n        /* \"#utility.yul\":767:787   */\n      calldataload\n        /* \"#utility.yul\":758:787   */\n      swap1\n      pop\n        /* \"#utility.yul\":796:829   */\n      tag_125\n        /* \"#utility.yul\":823:828   */\n      dup2\n        /* \"#utility.yul\":796:829   */\n      tag_93\n      jump\t// in\n    tag_125:\n        /* \"#utility.yul\":696:835   */\n      swap3\n      swap2\n      pop\n      pop\n      jump\t// out\n        /* \"#utility.yul\":841:1170   */\n    tag_13:\n        /* \"#utility.yul\":900:906   */\n      0x00\n        /* \"#utility.yul\":949:951   */\n      0x20\n        /* \"#utility.yul\":937:946   */\n      dup3\n        /* \"#utility.yul\":928:935   */\n      dup5\n        /* \"#utility.yul\":924:947   */\n      sub\n        /* \"#utility.yul\":920:952   */\n      slt\n        /* \"#utility.yul\":917:1036   */\n      iszero\n      tag_127\n      jumpi\n        /* \"#utility.yul\":955:1034   */\n      tag_128\n      tag_89\n      jump\t// in\n    tag_128:\n        /* \"#utility.yul\":917:1036   */\n    tag_127:\n        /* \"#utility.yul\":1075:1076   */\n      0x00\n        /* \"#utility.yul\":1100:1153   */\n      tag_129\n        /* \"#utility.yul\":1145:1152   */\n      dup5\n        /* \"#utility.yul\":1136:1142   */\n      dup3\n        /* \"#utility.yul\":1125:1134   */\n      dup6\n        /* \"#utility.yul\":1121:1143   */\n      add\n        /* \"#utility.yul\":1100:1153   */\n      tag_94\n      jump\t// in\n    tag_129:\n        /* \"#utility.yul\":1090:1153   */\n      swap2\n      pop\n        /* \"#utility.yul\":1046:1163   */\n      pop\n        /* \"#utility.yul\":841:1170   */\n      swap3\n      swap2\n      pop\n      pop\n      jump\t// out\n        /* \"#utility.yul\":1176:1294   */\n    tag_95:\n        /* \"#utility.yul\":1263:1287   */\n      tag_131\n        /* \"#utility.yul\":1281:1286   */\n      dup2\n        /* \"#utility.yul\":1263:1287   */\n      tag_92\n      jump\t// in\n    tag_131:\n        /* \"#utility.yul\":1258:1261   */\n      dup3\n        /* \"#utility.yul\":1251:1288   */\n      mstore\n        /* \"#utility.yul\":1176:1294   */\n      pop\n      pop\n      jump\t// out\n        /* \"#utility.yul\":1300:1522   */\n    tag_22:\n        /* \"#utility.yul\":1393:1397   */\n      0x00\n        /* \"#utility.yul\":1431:1433   */\n      0x20\n        /* \"#utility.yul\":1420:1429   */\n      dup3\n        /* \"#utility.yul\":1416:1434   */\n      add\n        /* \"#utility.yul\":1408:1434   */\n      swap1\n      pop\n        /* \"#utility.yul\":1444:1515   */\n      tag_133\n        /* \"#utility.yul\":1512:1513   */\n      0x00\n        /* \"#utility.yul\":1501:1510   */\n      dup4\n        /* \"#utility.yul\":1497:1514   */\n      add\n        /* \"#utility.yul\":1488:1494   */\n      dup5\n        /* \"#utility.yul\":1444:1515   */\n      tag_95\n      jump\t// in\n    tag_133:\n        /* \"#utility.yul\":1300:1522   */\n      swap3\n      swap2\n      pop\n      pop\n      jump\t// out\n        /* \"#utility.yul\":1528:1645   */\n    tag_96:\n        /* \"#utility.yul\":1637:1638   */\n      0x00\n        /* \"#utility.yul\":1634:1635   */\n      dup1\n        /* \"#utility.yul\":1627:1639   */\n      revert\n        /* \"#utility.yul\":1651:1768   */\n    tag_97:\n        /* \"#utility.yul\":1760:1761   */\n      0x00\n        /* \"#utility.yul\":1757:1758   */\n      dup1\n        /* \"#utility.yul\":1750:1762   */\n      revert\n        /* \"#utility.yul\":1774:1891   */\n    tag_98:\n        /* \"#utility.yul\":1883:1884   */\n      0x00\n        /* \"#utility.yul\":1880:1881   */\n      dup1\n        /* \"#utility.yul\":1873:1885   */\n      revert\n        /* \"#utility.yul\":1911:2464   */\n    tag_99:\n        /* \"#utility.yul\":1969:1977   */\n      0x00\n        /* \"#utility.yul\":1979:1985   */\n      dup1\n        /* \"#utility.yul\":2029:2032   */\n      dup4\n        /* \"#utility.yul\":2022:2026   */\n      0x1f\n        /* \"#utility.yul\":2014:2020   */\n      dup5\n        /* \"#utility.yul\":2010:2027   */\n      add\n        /* \"#utility.yul\":2006:2033   */\n      slt\n        /* \"#utility.yul\":1996:2118   */\n      tag_138\n      jumpi\n        /* \"#utility.yul\":2037:2116   */\n      tag_139\n      tag_96\n      jump\t// in\n    tag_139:\n        /* \"#utility.yul\":1996:2118   */\n    tag_138:\n        /* \"#utility.yul\":2150:2156   */\n      dup3\n        /* \"#utility.yul\":2137:2157   */\n      calldataload\n        /* \"#utility.yul\":2127:2157   */\n      swap1\n      pop\n        /* \"#utility.yul\":2180:2198   */\n      0xffffffffffffffff\n        /* \"#utility.yul\":2172:2178   */\n      dup2\n        /* \"#utility.yul\":2169:2199   */\n      gt\n        /* \"#utility.yul\":2166:2283   */\n      iszero\n      tag_140\n      jumpi\n        /* \"#utility.yul\":2202:2281   */\n      tag_141\n      tag_97\n      jump\t// in\n    tag_141:\n        /* \"#utility.yul\":2166:2283   */\n    tag_140:\n        /* \"#utility.yul\":2316:2320   */\n      0x20\n        /* \"#utility.yul\":2308:2314   */\n      dup4\n        /* \"#utility.yul\":2304:2321   */\n      add\n        /* \"#utility.yul\":2292:2321   */\n      swap2\n      pop\n        /* \"#utility.yul\":2370:2373   */\n      dup4\n        /* \"#utility.yul\":2362:2366   */\n      0x01\n        /* \"#utility.yul\":2354:2360   */\n      dup3\n        /* \"#utility.yul\":2350:2367   */\n      mul\n        /* \"#utility.yul\":2340:2348   */\n      dup4\n        /* \"#utility.yul\":2336:2368   */\n      add\n        /* \"#utility.yul\":2333:2374   */\n      gt\n        /* \"#utility.yul\":2330:2458   */\n      iszero\n      tag_142\n      jumpi\n        /* \"#utility.yul\":2377:2456   */\n      tag_143\n      tag_98\n      jump\t// in\n    tag_143:\n        /* \"#utility.yul\":2330:2458   */\n    tag_142:\n        /* \"#utility.yul\":1911:2464   */\n      swap3\n      pop\n      swap3\n      swap1\n      pop\n      jump\t// out\n        /* \"#utility.yul\":2470:2999   */\n    tag_27:\n        /* \"#utility.yul\":2541:2547   */\n      0x00\n        /* \"#utility.yul\":2549:2555   */\n      dup1\n        /* \"#utility.yul\":2598:2600   */\n      0x20\n        /* \"#utility.yul\":2586:2595   */\n      dup4\n        /* \"#utility.yul\":2577:2584   */\n      dup6\n        /* \"#utility.yul\":2573:2596   */\n      sub\n        /* \"#utility.yul\":2569:2601   */\n      slt\n        /* \"#utility.yul\":2566:2685   */\n      iszero\n      tag_145\n      jumpi\n        /* \"#utility.yul\":2604:2683   */\n      tag_146\n      tag_89\n      jump\t// in\n    tag_146:\n        /* \"#utility.yul\":2566:2685   */\n    tag_145:\n        /* \"#utility.yul\":2752:2753   */\n      0x00\n        /* \"#utility.yul\":2741:2750   */\n      dup4\n        /* \"#utility.yul\":2737:2754   */\n      add\n        /* \"#utility.yul\":2724:2755   */\n      calldataload\n        /* \"#utility.yul\":2782:2800   */\n      0xffffffffffffffff\n        /* \"#utility.yul\":2774:2780   */\n      dup2\n        /* \"#utility.yul\":2771:2801   */\n      gt\n        /* \"#utility.yul\":2768:2885   */\n      iszero\n      tag_147\n      jumpi\n        /* \"#utility.yul\":2804:2883   */\n      tag_148\n      tag_90\n      jump\t// in\n    tag_148:\n        /* \"#utility.yul\":2768:2885   */\n    tag_147:\n        /* \"#utility.yul\":2917:2982   */\n      tag_149\n        /* \"#utility.yul\":2974:2981   */\n      dup6\n        /* \"#utility.yul\":2965:2971   */\n      dup3\n        /* \"#utility.yul\":2954:2963   */\n      dup7\n        /* \"#utility.yul\":2950:2972   */\n      add\n        /* \"#utility.yul\":2917:2982   */\n      tag_99\n      jump\t// in\n    tag_149:\n        /* \"#utility.yul\":2899:2982   */\n      swap3\n      pop\n      swap3\n      pop\n        /* \"#utility.yul\":2695:2992   */\n      pop\n        /* \"#utility.yul\":2470:2999   */\n      swap3\n      pop\n      swap3\n      swap1\n      pop\n      jump\t// out\n        /* \"#utility.yul\":3005:3174   */\n    tag_100:\n        /* \"#utility.yul\":3089:3100   */\n      0x00\n        /* \"#utility.yul\":3123:3129   */\n      dup3\n        /* \"#utility.yul\":3118:3121   */\n      dup3\n        /* \"#utility.yul\":3111:3130   */\n      mstore\n        /* \"#utility.yul\":3163:3167   */\n      0x20\n        /* \"#utility.yul\":3158:3161   */\n      dup3\n        /* \"#utility.yul\":3154:3168   */\n      add\n        /* \"#utility.yul\":3139:3168   */\n      swap1\n      pop\n        /* \"#utility.yul\":3005:3174   */\n      swap3\n      swap2\n      pop\n      pop\n      jump\t// out\n        /* \"#utility.yul\":3180:3400   */\n    tag_101:\n        /* \"#utility.yul\":3320:3354   */\n      0x54686520766f74657220697320616c72656164792077686974656c6973746564\n        /* \"#utility.yul\":3316:3317   */\n      0x00\n        /* \"#utility.yul\":3308:3314   */\n      dup3\n        /* \"#utility.yul\":3304:3318   */\n      add\n        /* \"#utility.yul\":3297:3355   */\n      mstore\n        /* \"#utility.yul\":3389:3392   */\n      0x2e00000000000000000000000000000000000000000000000000000000000000\n        /* \"#utility.yul\":3384:3386   */\n      0x20\n        /* \"#utility.yul\":3376:3382   */\n      dup3\n        /* \"#utility.yul\":3372:3387   */\n      add\n        /* \"#utility.yul\":3365:3393   */\n      mstore\n        /* \"#utility.yul\":3180:3400   */\n      pop\n      jump\t// out\n        /* \"#utility.yul\":3406:3772   */\n    tag_102:\n        /* \"#utility.yul\":3548:3551   */\n      0x00\n        /* \"#utility.yul\":3569:3636   */\n      tag_153\n        /* \"#utility.yul\":3633:3635   */\n      0x21\n        /* \"#utility.yul\":3628:3631   */\n      dup4\n        /* \"#utility.yul\":3569:3636   */\n      tag_100\n      jump\t// in\n    tag_153:\n        /* \"#utility.yul\":3562:3636   */\n      swap2\n      pop\n        /* \"#utility.yul\":3645:3738   */\n      tag_154\n        /* \"#utility.yul\":3734:3737   */\n      dup3\n        /* \"#utility.yul\":3645:3738   */\n      tag_101\n      jump\t// in\n    tag_154:\n        /* \"#utility.yul\":3763:3765   */\n      0x40\n        /* \"#utility.yul\":3758:3761   */\n      dup3\n        /* \"#utility.yul\":3754:3766   */\n      add\n        /* \"#utility.yul\":3747:3766   */\n      swap1\n      pop\n        /* \"#utility.yul\":3406:3772   */\n      swap2\n      swap1\n      pop\n      jump\t// out\n        /* \"#utility.yul\":3778:4197   */\n    tag_38:\n        /* \"#utility.yul\":3944:3948   */\n      0x00\n        /* \"#utility.yul\":3982:3984   */\n      0x20\n        /* \"#utility.yul\":3971:3980   */\n      dup3\n        /* \"#utility.yul\":3967:3985   */\n      add\n        /* \"#utility.yul\":3959:3985   */\n      swap1\n      pop\n        /* \"#utility.yul\":4031:4040   */\n      dup2\n        /* \"#utility.yul\":4025:4029   */\n      dup2\n        /* \"#utility.yul\":4021:4041   */\n      sub\n        /* \"#utility.yul\":4017:4018   */\n      0x00\n        /* \"#utility.yul\":4006:4015   */\n      dup4\n        /* \"#utility.yul\":4002:4019   */\n      add\n        /* \"#utility.yul\":3995:4042   */\n      mstore\n        /* \"#utility.yul\":4059:4190   */\n      tag_156\n        /* \"#utility.yul\":4185:4189   */\n      dup2\n        /* \"#utility.yul\":4059:4190   */\n      tag_102\n      jump\t// in\n    tag_156:\n        /* \"#utility.yul\":4051:4190   */\n      swap1\n      pop\n        /* \"#utility.yul\":3778:4197   */\n      swap2\n      swap1\n      pop\n      jump\t// out\n        /* \"#utility.yul\":4203:4383   */\n    tag_103:\n        /* \"#utility.yul\":4251:4328   */\n      0x4e487b7100000000000000000000000000000000000000000000000000000000\n        /* \"#utility.yul\":4248:4249   */\n      0x00\n        /* \"#utility.yul\":4241:4329   */\n      mstore\n        /* \"#utility.yul\":4348:4352   */\n      0x11\n        /* \"#utility.yul\":4345:4346   */\n      0x04\n        /* \"#utility.yul\":4338:4353   */\n      mstore\n        /* \"#utility.yul\":4372:4376   */\n      0x24\n        /* \"#utility.yul\":4369:4370   */\n      0x00\n        /* \"#utility.yul\":4362:4377   */\n      revert\n        /* \"#utility.yul\":4389:4466   */\n    tag_104:\n        /* \"#utility.yul\":4426:4433   */\n      0x00\n        /* \"#utility.yul\":4455:4460   */\n      dup2\n        /* \"#utility.yul\":4444:4460   */\n      swap1\n      pop\n        /* \"#utility.yul\":4389:4466   */\n      swap2\n      swap1\n      pop\n      jump\t// out\n        /* \"#utility.yul\":4472:4705   */\n    tag_40:\n        /* \"#utility.yul\":4511:4514   */\n      0x00\n        /* \"#utility.yul\":4534:4558   */\n      tag_160\n        /* \"#utility.yul\":4552:4557   */\n      dup3\n        /* \"#utility.yul\":4534:4558   */\n      tag_104\n      jump\t// in\n    tag_160:\n        /* \"#utility.yul\":4525:4558   */\n      swap2\n      pop\n        /* \"#utility.yul\":4580:4646   */\n      0xffffffffffffffffffffffffffffffffffffffffffffffffffffffffffffffff\n        /* \"#utility.yul\":4573:4578   */\n      dup3\n        /* \"#utility.yul\":4570:4647   */\n      sub\n        /* \"#utility.yul\":4567:4670   */\n      tag_161\n      jumpi\n        /* \"#utility.yul\":4650:4668   */\n      tag_162\n      tag_103\n      jump\t// in\n    tag_162:\n        /* \"#utility.yul\":4567:4670   */\n    tag_161:\n        /* \"#utility.yul\":4697:4698   */\n      0x01\n        /* \"#utility.yul\":4690:4695   */\n      dup3\n        /* \"#utility.yul\":4686:4699   */\n      add\n        /* \"#utility.yul\":4679:4699   */\n      swap1\n      pop\n        /* \"#utility.yul\":4472:4705   */\n      swap2\n      swap1\n      pop\n      jump\t// out\n        /* \"#utility.yul\":4711:4960   */\n    tag_105:\n        /* \"#utility.yul\":4851:4885   */\n      0x4e656564206174206c6561737420322077686974656c697374656420766f7465\n        /* \"#utility.yul\":4847:4848   */\n      0x00\n        /* \"#utility.yul\":4839:4845   */\n      dup3\n        /* \"#utility.yul\":4835:4849   */\n      add\n        /* \"#utility.yul\":4828:4886   */\n      mstore\n        /* \"#utility.yul\":4920:4952   */\n      0x7220746f20737461727420612070726f706f73616c2073657373696f6e2e0000\n        /* \"#utility.yul\":4915:4917   */\n      0x20\n        /* \"#utility.yul\":4907:4913   */\n      dup3\n        /* \"#utility.yul\":4903:4918   */\n      add\n        /* \"#utility.yul\":4896:4953   */\n      mstore\n        /* \"#utility.yul\":4711:4960   */\n      pop\n      jump\t// out\n        /* \"#utility.yul\":4966:5332   */\n    tag_106:\n        /* \"#utility.yul\":5108:5111   */\n      0x00\n        /* \"#utility.yul\":5129:5196   */\n      tag_165\n        /* \"#utility.yul\":5193:5195   */\n      0x3e\n        /* \"#utility.yul\":5188:5191   */\n      dup4\n        /* \"#utility.yul\":5129:5196   */\n      tag_100\n      jump\t// in\n    tag_165:\n        /* \"#utility.yul\":5122:5196   */\n      swap2\n      pop\n        /* \"#utility.yul\":5205:5298   */\n      tag_166\n        /* \"#utility.yul\":5294:5297   */\n      dup3\n        /* \"#utility.yul\":5205:5298   */\n      tag_105\n      jump\t// in\n    tag_166:\n        /* \"#utility.yul\":5323:5325   */\n      0x40\n        /* \"#utility.yul\":5318:5321   */\n      dup3\n        /* \"#utility.yul\":5314:5326   */\n      add\n        /* \"#utility.yul\":5307:5326   */\n      swap1\n      pop\n        /* \"#utility.yul\":4966:5332   */\n      swap2\n      swap1\n      pop\n      jump\t// out\n        /* \"#utility.yul\":5338:5757   */\n    tag_52:\n        /* \"#utility.yul\":5504:5508   */\n      0x00\n        /* \"#utility.yul\":5542:5544   */\n      0x20\n        /* \"#utility.yul\":5531:5540   */\n      dup3\n        /* \"#utility.yul\":5527:5545   */\n      add\n        /* \"#utility.yul\":5519:5545   */\n      swap1\n      pop\n        /* \"#utility.yul\":5591:5600   */\n      dup2\n        /* \"#utility.yul\":5585:5589   */\n      dup2\n        /* \"#utility.yul\":5581:5601   */\n      sub\n        /* \"#utility.yul\":5577:5578   */\n      0x00\n        /* \"#utility.yul\":5566:5575   */\n      dup4\n        /* \"#utility.yul\":5562:5579   */\n      add\n        /* \"#utility.yul\":5555:5602   */\n      mstore\n        /* \"#utility.yul\":5619:5750   */\n      tag_168\n        /* \"#utility.yul\":5745:5749   */\n      dup2\n        /* \"#utility.yul\":5619:5750   */\n      tag_106\n      jump\t// in\n    tag_168:\n        /* \"#utility.yul\":5611:5750   */\n      swap1\n      pop\n        /* \"#utility.yul\":5338:5757   */\n      swap2\n      swap1\n      pop\n      jump\t// out\n        /* \"#utility.yul\":5763:5999   */\n    tag_107:\n        /* \"#utility.yul\":5903:5937   */\n      0x54686520766f746572206d7573742062652077686974656c697374656420746f\n        /* \"#utility.yul\":5899:5900   */\n      0x00\n        /* \"#utility.yul\":5891:5897   */\n      dup3\n        /* \"#utility.yul\":5887:5901   */\n      add\n        /* \"#utility.yul\":5880:5938   */\n      mstore\n        /* \"#utility.yul\":5972:5991   */\n      0x206d616b6520612070726f706f73616c2e000000000000000000000000000000\n        /* \"#utility.yul\":5967:5969   */\n      0x20\n        /* \"#utility.yul\":5959:5965   */\n      dup3\n        /* \"#utility.yul\":5955:5970   */\n      add\n        /* \"#utility.yul\":5948:5992   */\n      mstore\n        /* \"#utility.yul\":5763:5999   */\n      pop\n      jump\t// out\n        /* \"#utility.yul\":6005:6371   */\n    tag_108:\n        /* \"#utility.yul\":6147:6150   */\n      0x00\n        /* \"#utility.yul\":6168:6235   */\n      tag_171\n        /* \"#utility.yul\":6232:6234   */\n      0x31\n        /* \"#utility.yul\":6227:6230   */\n      dup4\n        /* \"#utility.yul\":6168:6235   */\n      tag_100\n      jump\t// in\n    tag_171:\n        /* \"#utility.yul\":6161:6235   */\n      swap2\n      pop\n        /* \"#utility.yul\":6244:6337   */\n      tag_172\n        /* \"#utility.yul\":6333:6336   */\n      dup3\n        /* \"#utility.yul\":6244:6337   */\n      tag_107\n      jump\t// in\n    tag_172:\n        /* \"#utility.yul\":6362:6364   */\n      0x40\n        /* \"#utility.yul\":6357:6360   */\n      dup3\n        /* \"#utility.yul\":6353:6365   */\n      add\n        /* \"#utility.yul\":6346:6365   */\n      swap1\n      pop\n        /* \"#utility.yul\":6005:6371   */\n      swap2\n      swap1\n      pop\n      jump\t// out\n        /* \"#utility.yul\":6377:6796   */\n    tag_58:\n        /* \"#utility.yul\":6543:6547   */\n      0x00\n        /* \"#utility.yul\":6581:6583   */\n      0x20\n        /* \"#utility.yul\":6570:6579   */\n      dup3\n        /* \"#utility.yul\":6566:6584   */\n      add\n        /* \"#utility.yul\":6558:6584   */\n      swap1\n      pop\n        /* \"#utility.yul\":6630:6639   */\n      dup2\n        /* \"#utility.yul\":6624:6628   */\n      dup2\n        /* \"#utility.yul\":6620:6640   */\n      sub\n        /* \"#utility.yul\":6616:6617   */\n      0x00\n        /* \"#utility.yul\":6605:6614   */\n      dup4\n        /* \"#utility.yul\":6601:6618   */\n      add\n        /* \"#utility.yul\":6594:6641   */\n      mstore\n        /* \"#utility.yul\":6658:6789   */\n      tag_174\n        /* \"#utility.yul\":6784:6788   */\n      dup2\n        /* \"#utility.yul\":6658:6789   */\n      tag_108\n      jump\t// in\n    tag_174:\n        /* \"#utility.yul\":6650:6789   */\n      swap1\n      pop\n        /* \"#utility.yul\":6377:6796   */\n      swap2\n      swap1\n      pop\n      jump\t// out\n        /* \"#utility.yul\":6802:7027   */\n    tag_109:\n        /* \"#utility.yul\":6942:6976   */\n      0x4f776e61626c653a206e6577206f776e657220697320746865207a65726f2061\n        /* \"#utility.yul\":6938:6939   */\n      0x00\n        /* \"#utility.yul\":6930:6936   */\n      dup3\n        /* \"#utility.yul\":6926:6940   */\n      add\n        /* \"#utility.yul\":6919:6977   */\n      mstore\n        /* \"#utility.yul\":7011:7019   */\n      0x6464726573730000000000000000000000000000000000000000000000000000\n        /* \"#utility.yul\":7006:7008   */\n      0x20\n        /* \"#utility.yul\":6998:7004   */\n      dup3\n        /* \"#utility.yul\":6994:7009   */\n      add\n        /* \"#utility.yul\":6987:7020   */\n      mstore\n        /* \"#utility.yul\":6802:7027   */\n      pop\n      jump\t// out\n        /* \"#utility.yul\":7033:7399   */\n    tag_110:\n        /* \"#utility.yul\":7175:7178   */\n      0x00\n        /* \"#utility.yul\":7196:7263   */\n      tag_177\n        /* \"#utility.yul\":7260:7262   */\n      0x26\n        /* \"#utility.yul\":7255:7258   */\n      dup4\n        /* \"#utility.yul\":7196:7263   */\n      tag_100\n      jump\t// in\n    tag_177:\n        /* \"#utility.yul\":7189:7263   */\n      swap2\n      pop\n        /* \"#utility.yul\":7272:7365   */\n      tag_178\n        /* \"#utility.yul\":7361:7364   */\n      dup3\n        /* \"#utility.yul\":7272:7365   */\n      tag_109\n      jump\t// in\n    tag_178:\n        /* \"#utility.yul\":7390:7392   */\n      0x40\n        /* \"#utility.yul\":7385:7388   */\n      dup3\n        /* \"#utility.yul\":7381:7393   */\n      add\n        /* \"#utility.yul\":7374:7393   */\n      swap1\n      pop\n        /* \"#utility.yul\":7033:7399   */\n      swap2\n      swap1\n      pop\n      jump\t// out\n        /* \"#utility.yul\":7405:7824   */\n    tag_66:\n        /* \"#utility.yul\":7571:7575   */\n      0x00\n        /* \"#utility.yul\":7609:7611   */\n      0x20\n        /* \"#utility.yul\":7598:7607   */\n      dup3\n        /* \"#utility.yul\":7594:7612   */\n      add\n        /* \"#utility.yul\":7586:7612   */\n      swap1\n      pop\n        /* \"#utility.yul\":7658:7667   */\n      dup2\n        /* \"#utility.yul\":7652:7656   */\n      dup2\n        /* \"#utility.yul\":7648:7668   */\n      sub\n        /* \"#utility.yul\":7644:7645   */\n      0x00\n        /* \"#utility.yul\":7633:7642   */\n      dup4\n        /* \"#utility.yul\":7629:7646   */\n      add\n        /* \"#utility.yul\":7622:7669   */\n      mstore\n        /* \"#utility.yul\":7686:7817   */\n      tag_180\n        /* \"#utility.yul\":7812:7816   */\n      dup2\n        /* \"#utility.yul\":7686:7817   */\n      tag_110\n      jump\t// in\n    tag_180:\n        /* \"#utility.yul\":7678:7817   */\n      swap1\n      pop\n        /* \"#utility.yul\":7405:7824   */\n      swap2\n      swap1\n      pop\n      jump\t// out\n        /* \"#utility.yul\":7830:8012   */\n    tag_111:\n        /* \"#utility.yul\":7970:8004   */\n      0x4f776e61626c653a2063616c6c6572206973206e6f7420746865206f776e6572\n        /* \"#utility.yul\":7966:7967   */\n      0x00\n        /* \"#utility.yul\":7958:7964   */\n      dup3\n        /* \"#utility.yul\":7954:7968   */\n      add\n        /* \"#utility.yul\":7947:8005   */\n      mstore\n        /* \"#utility.yul\":7830:8012   */\n      pop\n      jump\t// out\n        /* \"#utility.yul\":8018:8384   */\n    tag_112:\n        /* \"#utility.yul\":8160:8163   */\n      0x00\n        /* \"#utility.yul\":8181:8248   */\n      tag_183\n        /* \"#utility.yul\":8245:8247   */\n      0x20\n        /* \"#utility.yul\":8240:8243   */\n      dup4\n        /* \"#utility.yul\":8181:8248   */\n      tag_100\n      jump\t// in\n    tag_183:\n        /* \"#utility.yul\":8174:8248   */\n      swap2\n      pop\n        /* \"#utility.yul\":8257:8350   */\n      tag_184\n        /* \"#utility.yul\":8346:8349   */\n      dup3\n        /* \"#utility.yul\":8257:8350   */\n      tag_111\n      jump\t// in\n    tag_184:\n        /* \"#utility.yul\":8375:8377   */\n      0x20\n        /* \"#utility.yul\":8370:8373   */\n      dup3\n        /* \"#utility.yul\":8366:8378   */\n      add\n        /* \"#utility.yul\":8359:8378   */\n      swap1\n      pop\n        /* \"#utility.yul\":8018:8384   */\n      swap2\n      swap1\n      pop\n      jump\t// out\n        /* \"#utility.yul\":8390:8809   */\n    tag_74:\n        /* \"#utility.yul\":8556:8560   */\n      0x00\n        /* \"#utility.yul\":8594:8596   */\n      0x20\n        /* \"#utility.yul\":8583:8592   */\n      dup3\n        /* \"#utility.yul\":8579:8597   */\n      add\n        /* \"#utility.yul\":8571:8597   */\n      swap1\n      pop\n        /* \"#utility.yul\":8643:8652   */\n      dup2\n        /* \"#utility.yul\":8637:8641   */\n      dup2\n        /* \"#utility.yul\":8633:8653   */\n      sub\n        /* \"#utility.yul\":8629:8630   */\n      0x00\n        /* \"#utility.yul\":8618:8627   */\n      dup4\n        /* \"#utility.yul\":8614:8631   */\n      add\n        /* \"#utility.yul\":8607:8654   */\n      mstore\n        /* \"#utility.yul\":8671:8802   */\n      tag_186\n        /* \"#utility.yul\":8797:8801   */\n      dup2\n        /* \"#utility.yul\":8671:8802   */\n      tag_112\n      jump\t// in\n    tag_186:\n        /* \"#utility.yul\":8663:8802   */\n      swap1\n      pop\n        /* \"#utility.yul\":8390:8809   */\n      swap2\n      swap1\n      pop\n      jump\t// out\n        /* \"#utility.yul\":8815:8995   */\n    tag_113:\n        /* \"#utility.yul\":8863:8940   */\n      0x4e487b7100000000000000000000000000000000000000000000000000000000\n        /* \"#utility.yul\":8860:8861   */\n      0x00\n        /* \"#utility.yul\":8853:8941   */\n      mstore\n        /* \"#utility.yul\":8960:8964   */\n      0x22\n        /* \"#utility.yul\":8957:8958   */\n      0x04\n        /* \"#utility.yul\":8950:8965   */\n      mstore\n        /* \"#utility.yul\":8984:8988   */\n      0x24\n        /* \"#utility.yul\":8981:8982   */\n      0x00\n        /* \"#utility.yul\":8974:8989   */\n      revert\n        /* \"#utility.yul\":9001:9321   */\n    tag_78:\n        /* \"#utility.yul\":9045:9051   */\n      0x00\n        /* \"#utility.yul\":9082:9083   */\n      0x02\n        /* \"#utility.yul\":9076:9080   */\n      dup3\n        /* \"#utility.yul\":9072:9084   */\n      div\n        /* \"#utility.yul\":9062:9084   */\n      swap1\n      pop\n        /* \"#utility.yul\":9129:9130   */\n      0x01\n        /* \"#utility.yul\":9123:9127   */\n      dup3\n        /* \"#utility.yul\":9119:9131   */\n      and\n        /* \"#utility.yul\":9150:9168   */\n      dup1\n        /* \"#utility.yul\":9140:9221   */\n      tag_189\n      jumpi\n        /* \"#utility.yul\":9206:9210   */\n      0x7f\n        /* \"#utility.yul\":9198:9204   */\n      dup3\n        /* \"#utility.yul\":9194:9211   */\n      and\n        /* \"#utility.yul\":9184:9211   */\n      swap2\n      pop\n        /* \"#utility.yul\":9140:9221   */\n    tag_189:\n        /* \"#utility.yul\":9268:9270   */\n      0x20\n        /* \"#utility.yul\":9260:9266   */\n      dup3\n        /* \"#utility.yul\":9257:9271   */\n      lt\n        /* \"#utility.yul\":9237:9255   */\n      dup2\n        /* \"#utility.yul\":9234:9272   */\n      sub\n        /* \"#utility.yul\":9231:9315   */\n      tag_190\n      jumpi\n        /* \"#utility.yul\":9287:9305   */\n      tag_191\n      tag_113\n      jump\t// in\n    tag_191:\n        /* \"#utility.yul\":9231:9315   */\n    tag_190:\n        /* \"#utility.yul\":9052:9321   */\n      pop\n        /* \"#utility.yul\":9001:9321   */\n      swap2\n      swap1\n      pop\n      jump\t// out\n\n    auxdata: 0xa264697066735822122057df2c239332d0dc5ccc23e7260c26ec130e2cfccbf99f5d34c66f2aaca3d42364736f6c634300080d0033\n}\n",
				"bytecode": {
					"linkReferences": {},
					"object": "6080604052600060025534801561001557600080fd5b5061003261002761003760201b60201c565b61003f60201b60201c565b610103565b600033905090565b60008060009054906101000a900473ffffffffffffffffffffffffffffffffffffffff169050816000806101000a81548173ffffffffffffffffffffffffffffffffffffffff021916908373ffffffffffffffffffffffffffffffffffffffff1602179055508173ffffffffffffffffffffffffffffffffffffffff168173ffffffffffffffffffffffffffffffffffffffff167f8be0079c531659141344cd1fd0a4f28419497f9722a3daafe3b4186f6b6457e060405160405180910390a35050565b610bee806101126000396000f3fe608060405234801561001057600080fd5b506004361061007d5760003560e01c80638da5cb5b1161005b5780638da5cb5b146100b25780638e7ea5b2146100d05780639e95dd3f146100da578063f2fde38b146100f65761007d565b806343e20a1d14610082578063715018a61461009e5780637669d79e146100a8575b600080fd5b61009c60048036038101906100979190610709565b610112565b005b6100a6610250565b005b6100b0610264565b005b6100ba6102b3565b6040516100c79190610745565b60405180910390f35b6100d86102dc565b005b6100f460048036038101906100ef91906107c5565b6102de565b005b610110600480360381019061010b9190610709565b610431565b005b61011a6104b4565b600160008273ffffffffffffffffffffffffffffffffffffffff1673ffffffffffffffffffffffffffffffffffffffff16815260200190815260200160002060009054906101000a900460ff16156101a7576040517f08c379a000000000000000000000000000000000000000000000000000000000815260040161019e90610895565b60405180910390fd5b60018060008373ffffffffffffffffffffffffffffffffffffffff1673ffffffffffffffffffffffffffffffffffffffff16815260200190815260200160002060006101000a81548160ff02191690831515021790555060026000815480929190610211906108ee565b91905055507fb6be2187d059cc2a55fe29e0e503b566e1e0f8c8780096e185429350acffd3dd816040516102459190610745565b60405180910390a150565b6102586104b4565b6102626000610532565b565b61026c6104b4565b6001600254116102b1576040517f08c379a00000000000000000000000000000000000000000000000000000000081526004016102a8906109a8565b60405180910390fd5b565b60008060009054906101000a900473ffffffffffffffffffffffffffffffffffffffff16905090565b565b600160003373ffffffffffffffffffffffffffffffffffffffff1673ffffffffffffffffffffffffffffffffffffffff16815260200190815260200160002060009054906101000a900460ff1661036a576040517f08c379a000000000000000000000000000000000000000000000000000000000815260040161036190610a3a565b60405180910390fd5b604051806040016040528083838080601f016020809104026020016040519081016040528093929190818152602001838380828437600081840152601f19601f8201169050808301925050505050505081526020016000815250600360003373ffffffffffffffffffffffffffffffffffffffff1673ffffffffffffffffffffffffffffffffffffffff168152602001908152602001600020600082015181600001908051906020019061041f9291906105fe565b50602082015181600101559050505050565b6104396104b4565b600073ffffffffffffffffffffffffffffffffffffffff168173ffffffffffffffffffffffffffffffffffffffff16036104a8576040517f08c379a000000000000000000000000000000000000000000000000000000000815260040161049f90610acc565b60405180910390fd5b6104b181610532565b50565b6104bc6105f6565b73ffffffffffffffffffffffffffffffffffffffff166104da6102b3565b73ffffffffffffffffffffffffffffffffffffffff1614610530576040517f08c379a000000000000000000000000000000000000000000000000000000000815260040161052790610b38565b60405180910390fd5b565b60008060009054906101000a900473ffffffffffffffffffffffffffffffffffffffff169050816000806101000a81548173ffffffffffffffffffffffffffffffffffffffff021916908373ffffffffffffffffffffffffffffffffffffffff1602179055508173ffffffffffffffffffffffffffffffffffffffff168173ffffffffffffffffffffffffffffffffffffffff167f8be0079c531659141344cd1fd0a4f28419497f9722a3daafe3b4186f6b6457e060405160405180910390a35050565b600033905090565b82805461060a90610b87565b90600052602060002090601f01602090048101928261062c5760008555610673565b82601f1061064557805160ff1916838001178555610673565b82800160010185558215610673579182015b82811115610672578251825591602001919060010190610657565b5b5090506106809190610684565b5090565b5b8082111561069d576000816000905550600101610685565b5090565b600080fd5b600080fd5b600073ffffffffffffffffffffffffffffffffffffffff82169050919050565b60006106d6826106ab565b9050919050565b6106e6816106cb565b81146106f157600080fd5b50565b600081359050610703816106dd565b92915050565b60006020828403121561071f5761071e6106a1565b5b600061072d848285016106f4565b91505092915050565b61073f816106cb565b82525050565b600060208201905061075a6000830184610736565b92915050565b600080fd5b600080fd5b600080fd5b60008083601f84011261078557610784610760565b5b8235905067ffffffffffffffff8111156107a2576107a1610765565b5b6020830191508360018202830111156107be576107bd61076a565b5b9250929050565b600080602083850312156107dc576107db6106a1565b5b600083013567ffffffffffffffff8111156107fa576107f96106a6565b5b6108068582860161076f565b92509250509250929050565b600082825260208201905092915050565b7f54686520766f74657220697320616c72656164792077686974656c697374656460008201527f2e00000000000000000000000000000000000000000000000000000000000000602082015250565b600061087f602183610812565b915061088a82610823565b604082019050919050565b600060208201905081810360008301526108ae81610872565b9050919050565b7f4e487b7100000000000000000000000000000000000000000000000000000000600052601160045260246000fd5b6000819050919050565b60006108f9826108e4565b91507fffffffffffffffffffffffffffffffffffffffffffffffffffffffffffffffff820361092b5761092a6108b5565b5b600182019050919050565b7f4e656564206174206c6561737420322077686974656c697374656420766f746560008201527f7220746f20737461727420612070726f706f73616c2073657373696f6e2e0000602082015250565b6000610992603e83610812565b915061099d82610936565b604082019050919050565b600060208201905081810360008301526109c181610985565b9050919050565b7f54686520766f746572206d7573742062652077686974656c697374656420746f60008201527f206d616b6520612070726f706f73616c2e000000000000000000000000000000602082015250565b6000610a24603183610812565b9150610a2f826109c8565b604082019050919050565b60006020820190508181036000830152610a5381610a17565b9050919050565b7f4f776e61626c653a206e6577206f776e657220697320746865207a65726f206160008201527f6464726573730000000000000000000000000000000000000000000000000000602082015250565b6000610ab6602683610812565b9150610ac182610a5a565b604082019050919050565b60006020820190508181036000830152610ae581610aa9565b9050919050565b7f4f776e61626c653a2063616c6c6572206973206e6f7420746865206f776e6572600082015250565b6000610b22602083610812565b9150610b2d82610aec565b602082019050919050565b60006020820190508181036000830152610b5181610b15565b9050919050565b7f4e487b7100000000000000000000000000000000000000000000000000000000600052602260045260246000fd5b60006002820490506001821680610b9f57607f821691505b602082108103610bb257610bb1610b58565b5b5091905056fea264697066735822122057df2c239332d0dc5ccc23e7260c26ec130e2cfccbf99f5d34c66f2aaca3d42364736f6c634300080d0033",
					"opcodes": "PUSH1 0x80 PUSH1 0x40 MSTORE PUSH1 0x0 PUSH1 0x2 SSTORE CALLVALUE DUP1 ISZERO PUSH2 0x15 JUMPI PUSH1 0x0 DUP1 REVERT JUMPDEST POP PUSH2 0x32 PUSH2 0x27 PUSH2 0x37 PUSH1 0x20 SHL PUSH1 0x20 SHR JUMP JUMPDEST PUSH2 0x3F PUSH1 0x20 SHL PUSH1 0x20 SHR JUMP JUMPDEST PUSH2 0x103 JUMP JUMPDEST PUSH1 0x0 CALLER SWAP1 POP SWAP1 JUMP JUMPDEST PUSH1 0x0 DUP1 PUSH1 0x0 SWAP1 SLOAD SWAP1 PUSH2 0x100 EXP SWAP1 DIV PUSH20 0xFFFFFFFFFFFFFFFFFFFFFFFFFFFFFFFFFFFFFFFF AND SWAP1 POP DUP2 PUSH1 0x0 DUP1 PUSH2 0x100 EXP DUP2 SLOAD DUP2 PUSH20 0xFFFFFFFFFFFFFFFFFFFFFFFFFFFFFFFFFFFFFFFF MUL NOT AND SWAP1 DUP4 PUSH20 0xFFFFFFFFFFFFFFFFFFFFFFFFFFFFFFFFFFFFFFFF AND MUL OR SWAP1 SSTORE POP DUP2 PUSH20 0xFFFFFFFFFFFFFFFFFFFFFFFFFFFFFFFFFFFFFFFF AND DUP2 PUSH20 0xFFFFFFFFFFFFFFFFFFFFFFFFFFFFFFFFFFFFFFFF AND PUSH32 0x8BE0079C531659141344CD1FD0A4F28419497F9722A3DAAFE3B4186F6B6457E0 PUSH1 0x40 MLOAD PUSH1 0x40 MLOAD DUP1 SWAP2 SUB SWAP1 LOG3 POP POP JUMP JUMPDEST PUSH2 0xBEE DUP1 PUSH2 0x112 PUSH1 0x0 CODECOPY PUSH1 0x0 RETURN INVALID PUSH1 0x80 PUSH1 0x40 MSTORE CALLVALUE DUP1 ISZERO PUSH2 0x10 JUMPI PUSH1 0x0 DUP1 REVERT JUMPDEST POP PUSH1 0x4 CALLDATASIZE LT PUSH2 0x7D JUMPI PUSH1 0x0 CALLDATALOAD PUSH1 0xE0 SHR DUP1 PUSH4 0x8DA5CB5B GT PUSH2 0x5B JUMPI DUP1 PUSH4 0x8DA5CB5B EQ PUSH2 0xB2 JUMPI DUP1 PUSH4 0x8E7EA5B2 EQ PUSH2 0xD0 JUMPI DUP1 PUSH4 0x9E95DD3F EQ PUSH2 0xDA JUMPI DUP1 PUSH4 0xF2FDE38B EQ PUSH2 0xF6 JUMPI PUSH2 0x7D JUMP JUMPDEST DUP1 PUSH4 0x43E20A1D EQ PUSH2 0x82 JUMPI DUP1 PUSH4 0x715018A6 EQ PUSH2 0x9E JUMPI DUP1 PUSH4 0x7669D79E EQ PUSH2 0xA8 JUMPI JUMPDEST PUSH1 0x0 DUP1 REVERT JUMPDEST PUSH2 0x9C PUSH1 0x4 DUP1 CALLDATASIZE SUB DUP2 ADD SWAP1 PUSH2 0x97 SWAP2 SWAP1 PUSH2 0x709 JUMP JUMPDEST PUSH2 0x112 JUMP JUMPDEST STOP JUMPDEST PUSH2 0xA6 PUSH2 0x250 JUMP JUMPDEST STOP JUMPDEST PUSH2 0xB0 PUSH2 0x264 JUMP JUMPDEST STOP JUMPDEST PUSH2 0xBA PUSH2 0x2B3 JUMP JUMPDEST PUSH1 0x40 MLOAD PUSH2 0xC7 SWAP2 SWAP1 PUSH2 0x745 JUMP JUMPDEST PUSH1 0x40 MLOAD DUP1 SWAP2 SUB SWAP1 RETURN JUMPDEST PUSH2 0xD8 PUSH2 0x2DC JUMP JUMPDEST STOP JUMPDEST PUSH2 0xF4 PUSH1 0x4 DUP1 CALLDATASIZE SUB DUP2 ADD SWAP1 PUSH2 0xEF SWAP2 SWAP1 PUSH2 0x7C5 JUMP JUMPDEST PUSH2 0x2DE JUMP JUMPDEST STOP JUMPDEST PUSH2 0x110 PUSH1 0x4 DUP1 CALLDATASIZE SUB DUP2 ADD SWAP1 PUSH2 0x10B SWAP2 SWAP1 PUSH2 0x709 JUMP JUMPDEST PUSH2 0x431 JUMP JUMPDEST STOP JUMPDEST PUSH2 0x11A PUSH2 0x4B4 JUMP JUMPDEST PUSH1 0x1 PUSH1 0x0 DUP3 PUSH20 0xFFFFFFFFFFFFFFFFFFFFFFFFFFFFFFFFFFFFFFFF AND PUSH20 0xFFFFFFFFFFFFFFFFFFFFFFFFFFFFFFFFFFFFFFFF AND DUP2 MSTORE PUSH1 0x20 ADD SWAP1 DUP2 MSTORE PUSH1 0x20 ADD PUSH1 0x0 KECCAK256 PUSH1 0x0 SWAP1 SLOAD SWAP1 PUSH2 0x100 EXP SWAP1 DIV PUSH1 0xFF AND ISZERO PUSH2 0x1A7 JUMPI PUSH1 0x40 MLOAD PUSH32 0x8C379A000000000000000000000000000000000000000000000000000000000 DUP2 MSTORE PUSH1 0x4 ADD PUSH2 0x19E SWAP1 PUSH2 0x895 JUMP JUMPDEST PUSH1 0x40 MLOAD DUP1 SWAP2 SUB SWAP1 REVERT JUMPDEST PUSH1 0x1 DUP1 PUSH1 0x0 DUP4 PUSH20 0xFFFFFFFFFFFFFFFFFFFFFFFFFFFFFFFFFFFFFFFF AND PUSH20 0xFFFFFFFFFFFFFFFFFFFFFFFFFFFFFFFFFFFFFFFF AND DUP2 MSTORE PUSH1 0x20 ADD SWAP1 DUP2 MSTORE PUSH1 0x20 ADD PUSH1 0x0 KECCAK256 PUSH1 0x0 PUSH2 0x100 EXP DUP2 SLOAD DUP2 PUSH1 0xFF MUL NOT AND SWAP1 DUP4 ISZERO ISZERO MUL OR SWAP1 SSTORE POP PUSH1 0x2 PUSH1 0x0 DUP2 SLOAD DUP1 SWAP3 SWAP2 SWAP1 PUSH2 0x211 SWAP1 PUSH2 0x8EE JUMP JUMPDEST SWAP2 SWAP1 POP SSTORE POP PUSH32 0xB6BE2187D059CC2A55FE29E0E503B566E1E0F8C8780096E185429350ACFFD3DD DUP2 PUSH1 0x40 MLOAD PUSH2 0x245 SWAP2 SWAP1 PUSH2 0x745 JUMP JUMPDEST PUSH1 0x40 MLOAD DUP1 SWAP2 SUB SWAP1 LOG1 POP JUMP JUMPDEST PUSH2 0x258 PUSH2 0x4B4 JUMP JUMPDEST PUSH2 0x262 PUSH1 0x0 PUSH2 0x532 JUMP JUMPDEST JUMP JUMPDEST PUSH2 0x26C PUSH2 0x4B4 JUMP JUMPDEST PUSH1 0x1 PUSH1 0x2 SLOAD GT PUSH2 0x2B1 JUMPI PUSH1 0x40 MLOAD PUSH32 0x8C379A000000000000000000000000000000000000000000000000000000000 DUP2 MSTORE PUSH1 0x4 ADD PUSH2 0x2A8 SWAP1 PUSH2 0x9A8 JUMP JUMPDEST PUSH1 0x40 MLOAD DUP1 SWAP2 SUB SWAP1 REVERT JUMPDEST JUMP JUMPDEST PUSH1 0x0 DUP1 PUSH1 0x0 SWAP1 SLOAD SWAP1 PUSH2 0x100 EXP SWAP1 DIV PUSH20 0xFFFFFFFFFFFFFFFFFFFFFFFFFFFFFFFFFFFFFFFF AND SWAP1 POP SWAP1 JUMP JUMPDEST JUMP JUMPDEST PUSH1 0x1 PUSH1 0x0 CALLER PUSH20 0xFFFFFFFFFFFFFFFFFFFFFFFFFFFFFFFFFFFFFFFF AND PUSH20 0xFFFFFFFFFFFFFFFFFFFFFFFFFFFFFFFFFFFFFFFF AND DUP2 MSTORE PUSH1 0x20 ADD SWAP1 DUP2 MSTORE PUSH1 0x20 ADD PUSH1 0x0 KECCAK256 PUSH1 0x0 SWAP1 SLOAD SWAP1 PUSH2 0x100 EXP SWAP1 DIV PUSH1 0xFF AND PUSH2 0x36A JUMPI PUSH1 0x40 MLOAD PUSH32 0x8C379A000000000000000000000000000000000000000000000000000000000 DUP2 MSTORE PUSH1 0x4 ADD PUSH2 0x361 SWAP1 PUSH2 0xA3A JUMP JUMPDEST PUSH1 0x40 MLOAD DUP1 SWAP2 SUB SWAP1 REVERT JUMPDEST PUSH1 0x40 MLOAD DUP1 PUSH1 0x40 ADD PUSH1 0x40 MSTORE DUP1 DUP4 DUP4 DUP1 DUP1 PUSH1 0x1F ADD PUSH1 0x20 DUP1 SWAP2 DIV MUL PUSH1 0x20 ADD PUSH1 0x40 MLOAD SWAP1 DUP2 ADD PUSH1 0x40 MSTORE DUP1 SWAP4 SWAP3 SWAP2 SWAP1 DUP2 DUP2 MSTORE PUSH1 0x20 ADD DUP4 DUP4 DUP1 DUP3 DUP5 CALLDATACOPY PUSH1 0x0 DUP2 DUP5 ADD MSTORE PUSH1 0x1F NOT PUSH1 0x1F DUP3 ADD AND SWAP1 POP DUP1 DUP4 ADD SWAP3 POP POP POP POP POP POP POP DUP2 MSTORE PUSH1 0x20 ADD PUSH1 0x0 DUP2 MSTORE POP PUSH1 0x3 PUSH1 0x0 CALLER PUSH20 0xFFFFFFFFFFFFFFFFFFFFFFFFFFFFFFFFFFFFFFFF AND PUSH20 0xFFFFFFFFFFFFFFFFFFFFFFFFFFFFFFFFFFFFFFFF AND DUP2 MSTORE PUSH1 0x20 ADD SWAP1 DUP2 MSTORE PUSH1 0x20 ADD PUSH1 0x0 KECCAK256 PUSH1 0x0 DUP3 ADD MLOAD DUP2 PUSH1 0x0 ADD SWAP1 DUP1 MLOAD SWAP1 PUSH1 0x20 ADD SWAP1 PUSH2 0x41F SWAP3 SWAP2 SWAP1 PUSH2 0x5FE JUMP JUMPDEST POP PUSH1 0x20 DUP3 ADD MLOAD DUP2 PUSH1 0x1 ADD SSTORE SWAP1 POP POP POP POP JUMP JUMPDEST PUSH2 0x439 PUSH2 0x4B4 JUMP JUMPDEST PUSH1 0x0 PUSH20 0xFFFFFFFFFFFFFFFFFFFFFFFFFFFFFFFFFFFFFFFF AND DUP2 PUSH20 0xFFFFFFFFFFFFFFFFFFFFFFFFFFFFFFFFFFFFFFFF AND SUB PUSH2 0x4A8 JUMPI PUSH1 0x40 MLOAD PUSH32 0x8C379A000000000000000000000000000000000000000000000000000000000 DUP2 MSTORE PUSH1 0x4 ADD PUSH2 0x49F SWAP1 PUSH2 0xACC JUMP JUMPDEST PUSH1 0x40 MLOAD DUP1 SWAP2 SUB SWAP1 REVERT JUMPDEST PUSH2 0x4B1 DUP2 PUSH2 0x532 JUMP JUMPDEST POP JUMP JUMPDEST PUSH2 0x4BC PUSH2 0x5F6 JUMP JUMPDEST PUSH20 0xFFFFFFFFFFFFFFFFFFFFFFFFFFFFFFFFFFFFFFFF AND PUSH2 0x4DA PUSH2 0x2B3 JUMP JUMPDEST PUSH20 0xFFFFFFFFFFFFFFFFFFFFFFFFFFFFFFFFFFFFFFFF AND EQ PUSH2 0x530 JUMPI PUSH1 0x40 MLOAD PUSH32 0x8C379A000000000000000000000000000000000000000000000000000000000 DUP2 MSTORE PUSH1 0x4 ADD PUSH2 0x527 SWAP1 PUSH2 0xB38 JUMP JUMPDEST PUSH1 0x40 MLOAD DUP1 SWAP2 SUB SWAP1 REVERT JUMPDEST JUMP JUMPDEST PUSH1 0x0 DUP1 PUSH1 0x0 SWAP1 SLOAD SWAP1 PUSH2 0x100 EXP SWAP1 DIV PUSH20 0xFFFFFFFFFFFFFFFFFFFFFFFFFFFFFFFFFFFFFFFF AND SWAP1 POP DUP2 PUSH1 0x0 DUP1 PUSH2 0x100 EXP DUP2 SLOAD DUP2 PUSH20 0xFFFFFFFFFFFFFFFFFFFFFFFFFFFFFFFFFFFFFFFF MUL NOT AND SWAP1 DUP4 PUSH20 0xFFFFFFFFFFFFFFFFFFFFFFFFFFFFFFFFFFFFFFFF AND MUL OR SWAP1 SSTORE POP DUP2 PUSH20 0xFFFFFFFFFFFFFFFFFFFFFFFFFFFFFFFFFFFFFFFF AND DUP2 PUSH20 0xFFFFFFFFFFFFFFFFFFFFFFFFFFFFFFFFFFFFFFFF AND PUSH32 0x8BE0079C531659141344CD1FD0A4F28419497F9722A3DAAFE3B4186F6B6457E0 PUSH1 0x40 MLOAD PUSH1 0x40 MLOAD DUP1 SWAP2 SUB SWAP1 LOG3 POP POP JUMP JUMPDEST PUSH1 0x0 CALLER SWAP1 POP SWAP1 JUMP JUMPDEST DUP3 DUP1 SLOAD PUSH2 0x60A SWAP1 PUSH2 0xB87 JUMP JUMPDEST SWAP1 PUSH1 0x0 MSTORE PUSH1 0x20 PUSH1 0x0 KECCAK256 SWAP1 PUSH1 0x1F ADD PUSH1 0x20 SWAP1 DIV DUP2 ADD SWAP3 DUP3 PUSH2 0x62C JUMPI PUSH1 0x0 DUP6 SSTORE PUSH2 0x673 JUMP JUMPDEST DUP3 PUSH1 0x1F LT PUSH2 0x645 JUMPI DUP1 MLOAD PUSH1 0xFF NOT AND DUP4 DUP1 ADD OR DUP6 SSTORE PUSH2 0x673 JUMP JUMPDEST DUP3 DUP1 ADD PUSH1 0x1 ADD DUP6 SSTORE DUP3 ISZERO PUSH2 0x673 JUMPI SWAP2 DUP3 ADD JUMPDEST DUP3 DUP2 GT ISZERO PUSH2 0x672 JUMPI DUP3 MLOAD DUP3 SSTORE SWAP2 PUSH1 0x20 ADD SWAP2 SWAP1 PUSH1 0x1 ADD SWAP1 PUSH2 0x657 JUMP JUMPDEST JUMPDEST POP SWAP1 POP PUSH2 0x680 SWAP2 SWAP1 PUSH2 0x684 JUMP JUMPDEST POP SWAP1 JUMP JUMPDEST JUMPDEST DUP1 DUP3 GT ISZERO PUSH2 0x69D JUMPI PUSH1 0x0 DUP2 PUSH1 0x0 SWAP1 SSTORE POP PUSH1 0x1 ADD PUSH2 0x685 JUMP JUMPDEST POP SWAP1 JUMP JUMPDEST PUSH1 0x0 DUP1 REVERT JUMPDEST PUSH1 0x0 DUP1 REVERT JUMPDEST PUSH1 0x0 PUSH20 0xFFFFFFFFFFFFFFFFFFFFFFFFFFFFFFFFFFFFFFFF DUP3 AND SWAP1 POP SWAP2 SWAP1 POP JUMP JUMPDEST PUSH1 0x0 PUSH2 0x6D6 DUP3 PUSH2 0x6AB JUMP JUMPDEST SWAP1 POP SWAP2 SWAP1 POP JUMP JUMPDEST PUSH2 0x6E6 DUP2 PUSH2 0x6CB JUMP JUMPDEST DUP2 EQ PUSH2 0x6F1 JUMPI PUSH1 0x0 DUP1 REVERT JUMPDEST POP JUMP JUMPDEST PUSH1 0x0 DUP2 CALLDATALOAD SWAP1 POP PUSH2 0x703 DUP2 PUSH2 0x6DD JUMP JUMPDEST SWAP3 SWAP2 POP POP JUMP JUMPDEST PUSH1 0x0 PUSH1 0x20 DUP3 DUP5 SUB SLT ISZERO PUSH2 0x71F JUMPI PUSH2 0x71E PUSH2 0x6A1 JUMP JUMPDEST JUMPDEST PUSH1 0x0 PUSH2 0x72D DUP5 DUP3 DUP6 ADD PUSH2 0x6F4 JUMP JUMPDEST SWAP2 POP POP SWAP3 SWAP2 POP POP JUMP JUMPDEST PUSH2 0x73F DUP2 PUSH2 0x6CB JUMP JUMPDEST DUP3 MSTORE POP POP JUMP JUMPDEST PUSH1 0x0 PUSH1 0x20 DUP3 ADD SWAP1 POP PUSH2 0x75A PUSH1 0x0 DUP4 ADD DUP5 PUSH2 0x736 JUMP JUMPDEST SWAP3 SWAP2 POP POP JUMP JUMPDEST PUSH1 0x0 DUP1 REVERT JUMPDEST PUSH1 0x0 DUP1 REVERT JUMPDEST PUSH1 0x0 DUP1 REVERT JUMPDEST PUSH1 0x0 DUP1 DUP4 PUSH1 0x1F DUP5 ADD SLT PUSH2 0x785 JUMPI PUSH2 0x784 PUSH2 0x760 JUMP JUMPDEST JUMPDEST DUP3 CALLDATALOAD SWAP1 POP PUSH8 0xFFFFFFFFFFFFFFFF DUP2 GT ISZERO PUSH2 0x7A2 JUMPI PUSH2 0x7A1 PUSH2 0x765 JUMP JUMPDEST JUMPDEST PUSH1 0x20 DUP4 ADD SWAP2 POP DUP4 PUSH1 0x1 DUP3 MUL DUP4 ADD GT ISZERO PUSH2 0x7BE JUMPI PUSH2 0x7BD PUSH2 0x76A JUMP JUMPDEST JUMPDEST SWAP3 POP SWAP3 SWAP1 POP JUMP JUMPDEST PUSH1 0x0 DUP1 PUSH1 0x20 DUP4 DUP6 SUB SLT ISZERO PUSH2 0x7DC JUMPI PUSH2 0x7DB PUSH2 0x6A1 JUMP JUMPDEST JUMPDEST PUSH1 0x0 DUP4 ADD CALLDATALOAD PUSH8 0xFFFFFFFFFFFFFFFF DUP2 GT ISZERO PUSH2 0x7FA JUMPI PUSH2 0x7F9 PUSH2 0x6A6 JUMP JUMPDEST JUMPDEST PUSH2 0x806 DUP6 DUP3 DUP7 ADD PUSH2 0x76F JUMP JUMPDEST SWAP3 POP SWAP3 POP POP SWAP3 POP SWAP3 SWAP1 POP JUMP JUMPDEST PUSH1 0x0 DUP3 DUP3 MSTORE PUSH1 0x20 DUP3 ADD SWAP1 POP SWAP3 SWAP2 POP POP JUMP JUMPDEST PUSH32 0x54686520766F74657220697320616C72656164792077686974656C6973746564 PUSH1 0x0 DUP3 ADD MSTORE PUSH32 0x2E00000000000000000000000000000000000000000000000000000000000000 PUSH1 0x20 DUP3 ADD MSTORE POP JUMP JUMPDEST PUSH1 0x0 PUSH2 0x87F PUSH1 0x21 DUP4 PUSH2 0x812 JUMP JUMPDEST SWAP2 POP PUSH2 0x88A DUP3 PUSH2 0x823 JUMP JUMPDEST PUSH1 0x40 DUP3 ADD SWAP1 POP SWAP2 SWAP1 POP JUMP JUMPDEST PUSH1 0x0 PUSH1 0x20 DUP3 ADD SWAP1 POP DUP2 DUP2 SUB PUSH1 0x0 DUP4 ADD MSTORE PUSH2 0x8AE DUP2 PUSH2 0x872 JUMP JUMPDEST SWAP1 POP SWAP2 SWAP1 POP JUMP JUMPDEST PUSH32 0x4E487B7100000000000000000000000000000000000000000000000000000000 PUSH1 0x0 MSTORE PUSH1 0x11 PUSH1 0x4 MSTORE PUSH1 0x24 PUSH1 0x0 REVERT JUMPDEST PUSH1 0x0 DUP2 SWAP1 POP SWAP2 SWAP1 POP JUMP JUMPDEST PUSH1 0x0 PUSH2 0x8F9 DUP3 PUSH2 0x8E4 JUMP JUMPDEST SWAP2 POP PUSH32 0xFFFFFFFFFFFFFFFFFFFFFFFFFFFFFFFFFFFFFFFFFFFFFFFFFFFFFFFFFFFFFFFF DUP3 SUB PUSH2 0x92B JUMPI PUSH2 0x92A PUSH2 0x8B5 JUMP JUMPDEST JUMPDEST PUSH1 0x1 DUP3 ADD SWAP1 POP SWAP2 SWAP1 POP JUMP JUMPDEST PUSH32 0x4E656564206174206C6561737420322077686974656C697374656420766F7465 PUSH1 0x0 DUP3 ADD MSTORE PUSH32 0x7220746F20737461727420612070726F706F73616C2073657373696F6E2E0000 PUSH1 0x20 DUP3 ADD MSTORE POP JUMP JUMPDEST PUSH1 0x0 PUSH2 0x992 PUSH1 0x3E DUP4 PUSH2 0x812 JUMP JUMPDEST SWAP2 POP PUSH2 0x99D DUP3 PUSH2 0x936 JUMP JUMPDEST PUSH1 0x40 DUP3 ADD SWAP1 POP SWAP2 SWAP1 POP JUMP JUMPDEST PUSH1 0x0 PUSH1 0x20 DUP3 ADD SWAP1 POP DUP2 DUP2 SUB PUSH1 0x0 DUP4 ADD MSTORE PUSH2 0x9C1 DUP2 PUSH2 0x985 JUMP JUMPDEST SWAP1 POP SWAP2 SWAP1 POP JUMP JUMPDEST PUSH32 0x54686520766F746572206D7573742062652077686974656C697374656420746F PUSH1 0x0 DUP3 ADD MSTORE PUSH32 0x206D616B6520612070726F706F73616C2E000000000000000000000000000000 PUSH1 0x20 DUP3 ADD MSTORE POP JUMP JUMPDEST PUSH1 0x0 PUSH2 0xA24 PUSH1 0x31 DUP4 PUSH2 0x812 JUMP JUMPDEST SWAP2 POP PUSH2 0xA2F DUP3 PUSH2 0x9C8 JUMP JUMPDEST PUSH1 0x40 DUP3 ADD SWAP1 POP SWAP2 SWAP1 POP JUMP JUMPDEST PUSH1 0x0 PUSH1 0x20 DUP3 ADD SWAP1 POP DUP2 DUP2 SUB PUSH1 0x0 DUP4 ADD MSTORE PUSH2 0xA53 DUP2 PUSH2 0xA17 JUMP JUMPDEST SWAP1 POP SWAP2 SWAP1 POP JUMP JUMPDEST PUSH32 0x4F776E61626C653A206E6577206F776E657220697320746865207A65726F2061 PUSH1 0x0 DUP3 ADD MSTORE PUSH32 0x6464726573730000000000000000000000000000000000000000000000000000 PUSH1 0x20 DUP3 ADD MSTORE POP JUMP JUMPDEST PUSH1 0x0 PUSH2 0xAB6 PUSH1 0x26 DUP4 PUSH2 0x812 JUMP JUMPDEST SWAP2 POP PUSH2 0xAC1 DUP3 PUSH2 0xA5A JUMP JUMPDEST PUSH1 0x40 DUP3 ADD SWAP1 POP SWAP2 SWAP1 POP JUMP JUMPDEST PUSH1 0x0 PUSH1 0x20 DUP3 ADD SWAP1 POP DUP2 DUP2 SUB PUSH1 0x0 DUP4 ADD MSTORE PUSH2 0xAE5 DUP2 PUSH2 0xAA9 JUMP JUMPDEST SWAP1 POP SWAP2 SWAP1 POP JUMP JUMPDEST PUSH32 0x4F776E61626C653A2063616C6C6572206973206E6F7420746865206F776E6572 PUSH1 0x0 DUP3 ADD MSTORE POP JUMP JUMPDEST PUSH1 0x0 PUSH2 0xB22 PUSH1 0x20 DUP4 PUSH2 0x812 JUMP JUMPDEST SWAP2 POP PUSH2 0xB2D DUP3 PUSH2 0xAEC JUMP JUMPDEST PUSH1 0x20 DUP3 ADD SWAP1 POP SWAP2 SWAP1 POP JUMP JUMPDEST PUSH1 0x0 PUSH1 0x20 DUP3 ADD SWAP1 POP DUP2 DUP2 SUB PUSH1 0x0 DUP4 ADD MSTORE PUSH2 0xB51 DUP2 PUSH2 0xB15 JUMP JUMPDEST SWAP1 POP SWAP2 SWAP1 POP JUMP JUMPDEST PUSH32 0x4E487B7100000000000000000000000000000000000000000000000000000000 PUSH1 0x0 MSTORE PUSH1 0x22 PUSH1 0x4 MSTORE PUSH1 0x24 PUSH1 0x0 REVERT JUMPDEST PUSH1 0x0 PUSH1 0x2 DUP3 DIV SWAP1 POP PUSH1 0x1 DUP3 AND DUP1 PUSH2 0xB9F JUMPI PUSH1 0x7F DUP3 AND SWAP2 POP JUMPDEST PUSH1 0x20 DUP3 LT DUP2 SUB PUSH2 0xBB2 JUMPI PUSH2 0xBB1 PUSH2 0xB58 JUMP JUMPDEST JUMPDEST POP SWAP2 SWAP1 POP JUMP INVALID LOG2 PUSH5 0x6970667358 0x22 SLT KECCAK256 JUMPI 0xDF 0x2C 0x23 SWAP4 ORIGIN 0xD0 0xDC 0x5C 0xCC 0x23 0xE7 0x26 0xC 0x26 0xEC SGT 0xE 0x2C 0xFC 0xCB 0xF9 SWAP16 0x5D CALLVALUE 0xC6 PUSH16 0x2AACA3D42364736F6C634300080D0033 "
				},
				"gasEstimates": {
					"creation": {
						"codeDepositCost": "610800",
						"executionCost": "infinite",
						"totalCost": "infinite"
					},
					"external": {
						"adminStartProposalsSession()": "4883",
						"adminWhitelist(address)": "infinite",
						"getWinner()": "166",
						"owner()": "2522",
						"renounceOwnership()": "30421",
						"transferOwnership(address)": "30810",
						"voterProposal(string)": "infinite"
					}
				},
				"methodIdentifiers": {
					"adminStartProposalsSession()": "7669d79e",
					"adminWhitelist(address)": "43e20a1d",
					"getWinner()": "8e7ea5b2",
					"owner()": "8da5cb5b",
					"renounceOwnership()": "715018a6",
					"transferOwnership(address)": "f2fde38b",
					"voterProposal(string)": "9e95dd3f"
				}
			},
			"storageLayout": {
				"storage": [
					{
						"astId": 136,
						"contract": "contracts/voting-system/voting.sol:voting",
						"label": "_owner",
						"offset": 0,
						"slot": "0",
						"type": "t_address"
					},
					{
						"astId": 49,
						"contract": "contracts/voting-system/voting.sol:voting",
						"label": "voterWhitelist",
						"offset": 0,
						"slot": "1",
						"type": "t_mapping(t_address,t_bool)"
					},
					{
						"astId": 52,
						"contract": "contracts/voting-system/voting.sol:voting",
						"label": "_voterWhitelistedCount",
						"offset": 0,
						"slot": "2",
						"type": "t_uint256"
					},
					{
						"astId": 57,
						"contract": "contracts/voting-system/voting.sol:voting",
						"label": "voterProposals",
						"offset": 0,
						"slot": "3",
						"type": "t_mapping(t_address,t_struct(Proposal)45_storage)"
					}
				],
				"types": {
					"t_address": {
						"encoding": "inplace",
						"label": "address",
						"numberOfBytes": "20"
					},
					"t_bool": {
						"encoding": "inplace",
						"label": "bool",
						"numberOfBytes": "1"
					},
					"t_mapping(t_address,t_bool)": {
						"encoding": "mapping",
						"key": "t_address",
						"label": "mapping(address => bool)",
						"numberOfBytes": "32",
						"value": "t_bool"
					},
					"t_mapping(t_address,t_struct(Proposal)45_storage)": {
						"encoding": "mapping",
						"key": "t_address",
						"label": "mapping(address => struct voting.Proposal)",
						"numberOfBytes": "32",
						"value": "t_struct(Proposal)45_storage"
					},
					"t_string_storage": {
						"encoding": "bytes",
						"label": "string",
						"numberOfBytes": "32"
					},
					"t_struct(Proposal)45_storage": {
						"encoding": "inplace",
						"label": "struct voting.Proposal",
						"members": [
							{
								"astId": 42,
								"contract": "contracts/voting-system/voting.sol:voting",
								"label": "description",
								"offset": 0,
								"slot": "0",
								"type": "t_string_storage"
							},
							{
								"astId": 44,
								"contract": "contracts/voting-system/voting.sol:voting",
								"label": "voteCount",
								"offset": 0,
								"slot": "1",
								"type": "t_uint256"
							}
						],
						"numberOfBytes": "64"
					},
					"t_uint256": {
						"encoding": "inplace",
						"label": "uint256",
						"numberOfBytes": "32"
					}
				}
			},
			"userdoc": {
				"kind": "user",
				"methods": {},
				"version": 1
			}
		}
	}
}