{
	"contracts/voting-systemV2/votingV2.sol": {
		"VotingV2": {
			"abi": [
				{
					"anonymous": false,
					"inputs": [
						{
							"indexed": true,
							"internalType": "address",
							"name": "previousOwner",
							"type": "address"
						},
						{
							"indexed": true,
							"internalType": "address",
							"name": "newOwner",
							"type": "address"
						}
					],
					"name": "OwnershipTransferred",
					"type": "event"
				},
				{
					"anonymous": false,
					"inputs": [
						{
							"indexed": true,
							"internalType": "uint16",
							"name": "proposalId",
							"type": "uint16"
						}
					],
					"name": "ProposalRegistered",
					"type": "event"
				},
				{
					"anonymous": false,
					"inputs": [
						{
							"indexed": true,
							"internalType": "address",
							"name": "voter",
							"type": "address"
						},
						{
							"indexed": true,
							"internalType": "uint16",
							"name": "proposalId",
							"type": "uint16"
						}
					],
					"name": "Voted",
					"type": "event"
				},
				{
					"anonymous": false,
					"inputs": [
						{
							"indexed": true,
							"internalType": "address",
							"name": "voterAddress",
							"type": "address"
						}
					],
					"name": "VoterRegistered",
					"type": "event"
				},
				{
					"anonymous": false,
					"inputs": [
						{
							"indexed": false,
							"internalType": "enum VotingV2.WorkflowStatus",
							"name": "previousStatus",
							"type": "uint8"
						},
						{
							"indexed": false,
							"internalType": "enum VotingV2.WorkflowStatus",
							"name": "newStatus",
							"type": "uint8"
						}
					],
					"name": "WorkflowStatusChange",
					"type": "event"
				},
				{
					"inputs": [],
					"name": "_restartSession",
					"outputs": [],
					"stateMutability": "nonpayable",
					"type": "function"
				},
				{
					"inputs": [
						{
							"internalType": "address",
							"name": "_addrVoter",
							"type": "address"
						}
					],
					"name": "adminAddRegistered",
					"outputs": [],
					"stateMutability": "nonpayable",
					"type": "function"
				},
				{
					"inputs": [],
					"name": "adminStartProposalsSession",
					"outputs": [],
					"stateMutability": "nonpayable",
					"type": "function"
				},
				{
					"inputs": [],
					"name": "adminStartVotingSession",
					"outputs": [],
					"stateMutability": "nonpayable",
					"type": "function"
				},
				{
					"inputs": [],
					"name": "adminStopProposalsSession",
					"outputs": [],
					"stateMutability": "nonpayable",
					"type": "function"
				},
				{
					"inputs": [],
					"name": "adminStopVotingSession",
					"outputs": [],
					"stateMutability": "nonpayable",
					"type": "function"
				},
				{
					"inputs": [],
					"name": "adminTallyVotes",
					"outputs": [],
					"stateMutability": "nonpayable",
					"type": "function"
				},
				{
					"inputs": [
						{
							"internalType": "address",
							"name": "_addr",
							"type": "address"
						}
					],
					"name": "getVoterProposals",
					"outputs": [
						{
							"components": [
								{
									"internalType": "string",
									"name": "description",
									"type": "string"
								},
								{
									"internalType": "uint16",
									"name": "voteCount",
									"type": "uint16"
								}
							],
							"internalType": "struct VotingV2.Proposal[]",
							"name": "",
							"type": "tuple[]"
						}
					],
					"stateMutability": "view",
					"type": "function"
				},
				{
					"inputs": [
						{
							"internalType": "address",
							"name": "_addr",
							"type": "address"
						}
					],
					"name": "getVoterVote",
					"outputs": [
						{
							"components": [
								{
									"internalType": "string",
									"name": "description",
									"type": "string"
								},
								{
									"internalType": "uint16",
									"name": "voteCount",
									"type": "uint16"
								}
							],
							"internalType": "struct VotingV2.Proposal",
							"name": "",
							"type": "tuple"
						}
					],
					"stateMutability": "view",
					"type": "function"
				},
				{
					"inputs": [],
					"name": "getWinner",
					"outputs": [
						{
							"components": [
								{
									"internalType": "string",
									"name": "description",
									"type": "string"
								},
								{
									"internalType": "uint16",
									"name": "voteCount",
									"type": "uint16"
								}
							],
							"internalType": "struct VotingV2.Proposal",
							"name": "",
							"type": "tuple"
						}
					],
					"stateMutability": "view",
					"type": "function"
				},
				{
					"inputs": [],
					"name": "owner",
					"outputs": [
						{
							"internalType": "address",
							"name": "",
							"type": "address"
						}
					],
					"stateMutability": "view",
					"type": "function"
				},
				{
					"inputs": [],
					"name": "renounceOwnership",
					"outputs": [],
					"stateMutability": "nonpayable",
					"type": "function"
				},
				{
					"inputs": [
						{
							"internalType": "address",
							"name": "newOwner",
							"type": "address"
						}
					],
					"name": "transferOwnership",
					"outputs": [],
					"stateMutability": "nonpayable",
					"type": "function"
				},
				{
					"inputs": [
						{
							"internalType": "string",
							"name": "_description",
							"type": "string"
						}
					],
					"name": "voterAddProposal",
					"outputs": [],
					"stateMutability": "nonpayable",
					"type": "function"
				},
				{
					"inputs": [
						{
							"internalType": "uint16",
							"name": "_proposalId",
							"type": "uint16"
						}
					],
					"name": "voterAddVote",
					"outputs": [],
					"stateMutability": "nonpayable",
					"type": "function"
				}
			],
			"devdoc": {
				"kind": "dev",
				"methods": {
					"adminAddRegistered(address)": {
						"details": "Allows only the adminstrator to add a new voter if the voter registration is started.  "
					},
					"adminStartProposalsSession()": {
						"details": "Allows only the administrator to start the proposal session if the voter registration is started       and there is at least 2 registered voters."
					},
					"adminStartVotingSession()": {
						"details": "Allows only the administrator to start the voting session if the proposal registration is started. "
					},
					"adminStopProposalsSession()": {
						"details": "Allows only the administrator to stop the proposal session if the proposal registration is started      and there is at least 2 proposals."
					},
					"adminStopVotingSession()": {
						"details": "Allows only the administrator to stop the voting session if the voting session is started      and there is at least one vote in a proposal. "
					},
					"adminTallyVotes()": {
						"details": "There is nothing special to do here because now the winner is calculated dynamically when users vote,       it determines which proposal gets the most votes first, it's fairer than on the voting system V1"
					},
					"getVoterProposals(address)": {
						"details": "Allows only a registered voter to check all the proposals of a registered voter.",
						"returns": {
							"_0": "The winning proposal"
						}
					},
					"getVoterVote(address)": {
						"details": "Allows only a registered voter to check for which proposal a registered voter has voted.",
						"returns": {
							"_0": "The proposal for which the voter voted"
						}
					},
					"getWinner()": {
						"details": "Allows everybody to check the winner if the vote count is over.",
						"returns": {
							"_0": "The winning proposal"
						}
					},
					"owner()": {
						"details": "Returns the address of the current owner."
					},
					"renounceOwnership()": {
						"details": "Leaves the contract without owner. It will not be possible to call `onlyOwner` functions anymore. Can only be called by the current owner. NOTE: Renouncing ownership will leave the contract without an owner, thereby removing any functionality that is only available to the owner."
					},
					"transferOwnership(address)": {
						"details": "Transfers ownership of the contract to a new account (`newOwner`). Can only be called by the current owner."
					},
					"voterAddProposal(string)": {
						"details": "Allows only a registered voter to add a proposal if the proposal registration is started      and the description is not empty. "
					},
					"voterAddVote(uint16)": {
						"details": "Allows only a registered voter to vote if the voting session is started       and the user has not voted yet and the proposal id exists.      If the proposals has more votes than the current winning proposal, it becomes the winning proposal"
					}
				},
				"version": 1
			},
			"evm": {
				"assembly": "    /* \"contracts/voting-systemV2/votingV2.sol\":487:9162  contract VotingV2 is Ownable{... */\n  mstore(0x40, 0x80)\n  callvalue\n  dup1\n  iszero\n  tag_1\n  jumpi\n  0x00\n  dup1\n  revert\ntag_1:\n  pop\n    /* \"https://github.com/OpenZeppelin/openzeppelin-contracts/blob/master/contracts/access/Ownable.sol\":936:968  _transferOwnership(_msgSender()) */\n  tag_4\n    /* \"https://github.com/OpenZeppelin/openzeppelin-contracts/blob/master/contracts/access/Ownable.sol\":955:967  _msgSender() */\n  tag_5\n    /* \"https://github.com/OpenZeppelin/openzeppelin-contracts/blob/master/contracts/access/Ownable.sol\":955:965  _msgSender */\n  shl(0x20, tag_6)\n    /* \"https://github.com/OpenZeppelin/openzeppelin-contracts/blob/master/contracts/access/Ownable.sol\":955:967  _msgSender() */\n  0x20\n  shr\n  jump\t// in\ntag_5:\n    /* \"https://github.com/OpenZeppelin/openzeppelin-contracts/blob/master/contracts/access/Ownable.sol\":936:954  _transferOwnership */\n  shl(0x20, tag_7)\n    /* \"https://github.com/OpenZeppelin/openzeppelin-contracts/blob/master/contracts/access/Ownable.sol\":936:968  _transferOwnership(_msgSender()) */\n  0x20\n  shr\n  jump\t// in\ntag_4:\n    /* \"contracts/voting-systemV2/votingV2.sol\":487:9162  contract VotingV2 is Ownable{... */\n  jump(tag_8)\n    /* \"https://github.com/OpenZeppelin/openzeppelin-contracts/blob/master/contracts/utils/Context.sol\":640:736  function _msgSender() internal view virtual returns (address) {... */\ntag_6:\n    /* \"https://github.com/OpenZeppelin/openzeppelin-contracts/blob/master/contracts/utils/Context.sol\":693:700  address */\n  0x00\n    /* \"https://github.com/OpenZeppelin/openzeppelin-contracts/blob/master/contracts/utils/Context.sol\":719:729  msg.sender */\n  caller\n    /* \"https://github.com/OpenZeppelin/openzeppelin-contracts/blob/master/contracts/utils/Context.sol\":712:729  return msg.sender */\n  swap1\n  pop\n    /* \"https://github.com/OpenZeppelin/openzeppelin-contracts/blob/master/contracts/utils/Context.sol\":640:736  function _msgSender() internal view virtual returns (address) {... */\n  swap1\n  jump\t// out\n    /* \"https://github.com/OpenZeppelin/openzeppelin-contracts/blob/master/contracts/access/Ownable.sol\":2433:2620  function _transferOwnership(address newOwner) internal virtual {... */\ntag_7:\n    /* \"https://github.com/OpenZeppelin/openzeppelin-contracts/blob/master/contracts/access/Ownable.sol\":2506:2522  address oldOwner */\n  0x00\n    /* \"https://github.com/OpenZeppelin/openzeppelin-contracts/blob/master/contracts/access/Ownable.sol\":2525:2531  _owner */\n  dup1\n  0x00\n  swap1\n  sload\n  swap1\n  0x0100\n  exp\n  swap1\n  div\n  0xffffffffffffffffffffffffffffffffffffffff\n  and\n    /* \"https://github.com/OpenZeppelin/openzeppelin-contracts/blob/master/contracts/access/Ownable.sol\":2506:2531  address oldOwner = _owner */\n  swap1\n  pop\n    /* \"https://github.com/OpenZeppelin/openzeppelin-contracts/blob/master/contracts/access/Ownable.sol\":2550:2558  newOwner */\n  dup2\n    /* \"https://github.com/OpenZeppelin/openzeppelin-contracts/blob/master/contracts/access/Ownable.sol\":2541:2547  _owner */\n  0x00\n  dup1\n    /* \"https://github.com/OpenZeppelin/openzeppelin-contracts/blob/master/contracts/access/Ownable.sol\":2541:2558  _owner = newOwner */\n  0x0100\n  exp\n  dup2\n  sload\n  dup2\n  0xffffffffffffffffffffffffffffffffffffffff\n  mul\n  not\n  and\n  swap1\n  dup4\n  0xffffffffffffffffffffffffffffffffffffffff\n  and\n  mul\n  or\n  swap1\n  sstore\n  pop\n    /* \"https://github.com/OpenZeppelin/openzeppelin-contracts/blob/master/contracts/access/Ownable.sol\":2604:2612  newOwner */\n  dup2\n    /* \"https://github.com/OpenZeppelin/openzeppelin-contracts/blob/master/contracts/access/Ownable.sol\":2573:2613  OwnershipTransferred(oldOwner, newOwner) */\n  0xffffffffffffffffffffffffffffffffffffffff\n  and\n    /* \"https://github.com/OpenZeppelin/openzeppelin-contracts/blob/master/contracts/access/Ownable.sol\":2594:2602  oldOwner */\n  dup2\n    /* \"https://github.com/OpenZeppelin/openzeppelin-contracts/blob/master/contracts/access/Ownable.sol\":2573:2613  OwnershipTransferred(oldOwner, newOwner) */\n  0xffffffffffffffffffffffffffffffffffffffff\n  and\n  0x8be0079c531659141344cd1fd0a4f28419497f9722a3daafe3b4186f6b6457e0\n  mload(0x40)\n  mload(0x40)\n  dup1\n  swap2\n  sub\n  swap1\n  log3\n    /* \"https://github.com/OpenZeppelin/openzeppelin-contracts/blob/master/contracts/access/Ownable.sol\":2496:2620  {... */\n  pop\n    /* \"https://github.com/OpenZeppelin/openzeppelin-contracts/blob/master/contracts/access/Ownable.sol\":2433:2620  function _transferOwnership(address newOwner) internal virtual {... */\n  pop\n  jump\t// out\n    /* \"contracts/voting-systemV2/votingV2.sol\":487:9162  contract VotingV2 is Ownable{... */\ntag_8:\n  dataSize(sub_0)\n  dup1\n  dataOffset(sub_0)\n  0x00\n  codecopy\n  0x00\n  return\nstop\n\nsub_0: assembly {\n        /* \"contracts/voting-systemV2/votingV2.sol\":487:9162  contract VotingV2 is Ownable{... */\n      mstore(0x40, 0x80)\n      callvalue\n      dup1\n      iszero\n      tag_1\n      jumpi\n      0x00\n      dup1\n      revert\n    tag_1:\n      pop\n      jumpi(tag_2, lt(calldatasize, 0x04))\n      shr(0xe0, calldataload(0x00))\n      dup1\n      0x7669d79e\n      gt\n      tag_18\n      jumpi\n      dup1\n      0xcf278c74\n      gt\n      tag_19\n      jumpi\n      dup1\n      0xcf278c74\n      eq\n      tag_14\n      jumpi\n      dup1\n      0xd1337403\n      eq\n      tag_15\n      jumpi\n      dup1\n      0xd83f235b\n      eq\n      tag_16\n      jumpi\n      dup1\n      0xf2fde38b\n      eq\n      tag_17\n      jumpi\n      jump(tag_2)\n    tag_19:\n      dup1\n      0x7669d79e\n      eq\n      tag_10\n      jumpi\n      dup1\n      0x8da5cb5b\n      eq\n      tag_11\n      jumpi\n      dup1\n      0x8e7ea5b2\n      eq\n      tag_12\n      jumpi\n      dup1\n      0xc145e3d5\n      eq\n      tag_13\n      jumpi\n      jump(tag_2)\n    tag_18:\n      dup1\n      0x52f33385\n      gt\n      tag_20\n      jumpi\n      dup1\n      0x52f33385\n      eq\n      tag_6\n      jumpi\n      dup1\n      0x5f39ff21\n      eq\n      tag_7\n      jumpi\n      dup1\n      0x6fbd32f6\n      eq\n      tag_8\n      jumpi\n      dup1\n      0x715018a6\n      eq\n      tag_9\n      jumpi\n      jump(tag_2)\n    tag_20:\n      dup1\n      0x04456224\n      eq\n      tag_3\n      jumpi\n      dup1\n      0x23e9df47\n      eq\n      tag_4\n      jumpi\n      dup1\n      0x5141e520\n      eq\n      tag_5\n      jumpi\n    tag_2:\n      0x00\n      dup1\n      revert\n        /* \"contracts/voting-systemV2/votingV2.sol\":3999:4381  function adminStopProposalsSession() external onlyOwner{... */\n    tag_3:\n      tag_21\n      tag_22\n      jump\t// in\n    tag_21:\n      stop\n        /* \"contracts/voting-systemV2/votingV2.sol\":6834:7581  function voterAddVote(uint16 _proposalId) external onlyRegistered{... */\n    tag_4:\n      tag_23\n      0x04\n      dup1\n      calldatasize\n      sub\n      dup2\n      add\n      swap1\n      tag_24\n      swap2\n      swap1\n      tag_25\n      jump\t// in\n    tag_24:\n      tag_26\n      jump\t// in\n    tag_23:\n      stop\n        /* \"contracts/voting-systemV2/votingV2.sol\":8842:9159  function getVoterVote(address _addr) external view onlyRegistered returns(Proposal memory){... */\n    tag_5:\n      tag_27\n      0x04\n      dup1\n      calldatasize\n      sub\n      dup2\n      add\n      swap1\n      tag_28\n      swap2\n      swap1\n      tag_29\n      jump\t// in\n    tag_28:\n      tag_30\n      jump\t// in\n    tag_27:\n      mload(0x40)\n      tag_31\n      swap2\n      swap1\n      tag_32\n      jump\t// in\n    tag_31:\n      mload(0x40)\n      dup1\n      swap2\n      sub\n      swap1\n      return\n        /* \"contracts/voting-systemV2/votingV2.sol\":2096:2647  function _restartSession() external onlyOwner{... */\n    tag_6:\n      tag_33\n      tag_34\n      jump\t// in\n    tag_33:\n      stop\n        /* \"contracts/voting-systemV2/votingV2.sol\":5994:6538  function voterAddProposal(string calldata _description) external onlyRegistered {... */\n    tag_7:\n      tag_35\n      0x04\n      dup1\n      calldatasize\n      sub\n      dup2\n      add\n      swap1\n      tag_36\n      swap2\n      swap1\n      tag_37\n      jump\t// in\n    tag_36:\n      tag_38\n      jump\t// in\n    tag_35:\n      stop\n        /* \"contracts/voting-systemV2/votingV2.sol\":8113:8659  function getVoterProposals(address _addr) external view onlyRegistered returns(Proposal[] memory){... */\n    tag_8:\n      tag_39\n      0x04\n      dup1\n      calldatasize\n      sub\n      dup2\n      add\n      swap1\n      tag_40\n      swap2\n      swap1\n      tag_29\n      jump\t// in\n    tag_40:\n      tag_41\n      jump\t// in\n    tag_39:\n      mload(0x40)\n      tag_42\n      swap2\n      swap1\n      tag_43\n      jump\t// in\n    tag_42:\n      mload(0x40)\n      dup1\n      swap2\n      sub\n      swap1\n      return\n        /* \"https://github.com/OpenZeppelin/openzeppelin-contracts/blob/master/contracts/access/Ownable.sol\":1831:1932  function renounceOwnership() public virtual onlyOwner {... */\n    tag_9:\n      tag_44\n      tag_45\n      jump\t// in\n    tag_44:\n      stop\n        /* \"contracts/voting-systemV2/votingV2.sol\":3435:3813  function adminStartProposalsSession() external onlyOwner{... */\n    tag_10:\n      tag_46\n      tag_47\n      jump\t// in\n    tag_46:\n      stop\n        /* \"https://github.com/OpenZeppelin/openzeppelin-contracts/blob/master/contracts/access/Ownable.sol\":1201:1286  function owner() public view virtual returns (address) {... */\n    tag_11:\n      tag_48\n      tag_49\n      jump\t// in\n    tag_48:\n      mload(0x40)\n      tag_50\n      swap2\n      swap1\n      tag_51\n      jump\t// in\n    tag_50:\n      mload(0x40)\n      dup1\n      swap2\n      sub\n      swap1\n      return\n        /* \"contracts/voting-systemV2/votingV2.sol\":7723:7956  function getWinner() external view returns(Proposal memory) {... */\n    tag_12:\n      tag_52\n      tag_53\n      jump\t// in\n    tag_52:\n      mload(0x40)\n      tag_54\n      swap2\n      swap1\n      tag_32\n      jump\t// in\n    tag_54:\n      mload(0x40)\n      dup1\n      swap2\n      sub\n      swap1\n      return\n        /* \"contracts/voting-systemV2/votingV2.sol\":2774:3242  function adminAddRegistered(address _addrVoter) external onlyOwner{... */\n    tag_13:\n      tag_55\n      0x04\n      dup1\n      calldatasize\n      sub\n      dup2\n      add\n      swap1\n      tag_56\n      swap2\n      swap1\n      tag_29\n      jump\t// in\n    tag_56:\n      tag_57\n      jump\t// in\n    tag_55:\n      stop\n        /* \"contracts/voting-systemV2/votingV2.sol\":4520:4786  function adminStartVotingSession() external onlyOwner{... */\n    tag_14:\n      tag_58\n      tag_59\n      jump\t// in\n    tag_58:\n      stop\n        /* \"contracts/voting-systemV2/votingV2.sol\":4975:5328  function adminStopVotingSession() external onlyOwner{... */\n    tag_15:\n      tag_60\n      tag_61\n      jump\t// in\n    tag_60:\n      stop\n        /* \"contracts/voting-systemV2/votingV2.sol\":5581:5812  function adminTallyVotes() external onlyOwner{... */\n    tag_16:\n      tag_62\n      tag_63\n      jump\t// in\n    tag_62:\n      stop\n        /* \"https://github.com/OpenZeppelin/openzeppelin-contracts/blob/master/contracts/access/Ownable.sol\":2081:2279  function transferOwnership(address newOwner) public virtual onlyOwner {... */\n    tag_17:\n      tag_64\n      0x04\n      dup1\n      calldatasize\n      sub\n      dup2\n      add\n      swap1\n      tag_65\n      swap2\n      swap1\n      tag_29\n      jump\t// in\n    tag_65:\n      tag_66\n      jump\t// in\n    tag_64:\n      stop\n        /* \"contracts/voting-systemV2/votingV2.sol\":3999:4381  function adminStopProposalsSession() external onlyOwner{... */\n    tag_22:\n        /* \"https://github.com/OpenZeppelin/openzeppelin-contracts/blob/master/contracts/access/Ownable.sol\":1094:1107  _checkOwner() */\n      tag_68\n        /* \"https://github.com/OpenZeppelin/openzeppelin-contracts/blob/master/contracts/access/Ownable.sol\":1094:1105  _checkOwner */\n      tag_69\n        /* \"https://github.com/OpenZeppelin/openzeppelin-contracts/blob/master/contracts/access/Ownable.sol\":1094:1107  _checkOwner() */\n      jump\t// in\n    tag_68:\n        /* \"contracts/voting-systemV2/votingV2.sol\":4099:4142  WorkflowStatus.ProposalsRegistrationStarted */\n      0x01\n        /* \"contracts/voting-systemV2/votingV2.sol\":4075:4142  currentVotingSession == WorkflowStatus.ProposalsRegistrationStarted */\n      0x05\n      dup2\n      gt\n      iszero\n      tag_71\n      jumpi\n      tag_72\n      tag_73\n      jump\t// in\n    tag_72:\n    tag_71:\n        /* \"contracts/voting-systemV2/votingV2.sol\":4075:4095  currentVotingSession */\n      0x00\n      0x1a\n      swap1\n      sload\n      swap1\n      0x0100\n      exp\n      swap1\n      div\n      0xff\n      and\n        /* \"contracts/voting-systemV2/votingV2.sol\":4075:4142  currentVotingSession == WorkflowStatus.ProposalsRegistrationStarted */\n      0x05\n      dup2\n      gt\n      iszero\n      tag_74\n      jumpi\n      tag_75\n      tag_73\n      jump\t// in\n    tag_75:\n    tag_74:\n      eq\n        /* \"contracts/voting-systemV2/votingV2.sol\":4067:4192  require(currentVotingSession == WorkflowStatus.ProposalsRegistrationStarted, \"The proposal registration is not started yet.\") */\n      tag_76\n      jumpi\n      mload(0x40)\n      0x08c379a000000000000000000000000000000000000000000000000000000000\n      dup2\n      mstore\n      0x04\n      add\n      tag_77\n      swap1\n      tag_78\n      jump\t// in\n    tag_77:\n      mload(0x40)\n      dup1\n      swap2\n      sub\n      swap1\n      revert\n    tag_76:\n        /* \"contracts/voting-systemV2/votingV2.sol\":4235:4236  1 */\n      0x01\n        /* \"contracts/voting-systemV2/votingV2.sol\":4211:4225  voterProposals */\n      dup1\n        /* \"contracts/voting-systemV2/votingV2.sol\":4211:4232  voterProposals.length */\n      dup1\n      sload\n      swap1\n      pop\n        /* \"contracts/voting-systemV2/votingV2.sol\":4211:4236  voterProposals.length > 1 */\n      gt\n        /* \"contracts/voting-systemV2/votingV2.sol\":4203:4296  require(voterProposals.length > 1, \"Need at least two proposals to stop a proposal session.\") */\n      tag_79\n      jumpi\n      mload(0x40)\n      0x08c379a000000000000000000000000000000000000000000000000000000000\n      dup2\n      mstore\n      0x04\n      add\n      tag_80\n      swap1\n      tag_81\n      jump\t// in\n    tag_80:\n      mload(0x40)\n      dup1\n      swap2\n      sub\n      swap1\n      revert\n    tag_79:\n        /* \"contracts/voting-systemV2/votingV2.sol\":4309:4373  _changeWorkflowStatus(WorkflowStatus.ProposalsRegistrationEnded) */\n      tag_82\n        /* \"contracts/voting-systemV2/votingV2.sol\":4331:4372  WorkflowStatus.ProposalsRegistrationEnded */\n      0x02\n        /* \"contracts/voting-systemV2/votingV2.sol\":4309:4330  _changeWorkflowStatus */\n      tag_83\n        /* \"contracts/voting-systemV2/votingV2.sol\":4309:4373  _changeWorkflowStatus(WorkflowStatus.ProposalsRegistrationEnded) */\n      jump\t// in\n    tag_82:\n        /* \"contracts/voting-systemV2/votingV2.sol\":3999:4381  function adminStopProposalsSession() external onlyOwner{... */\n      jump\t// out\n        /* \"contracts/voting-systemV2/votingV2.sol\":6834:7581  function voterAddVote(uint16 _proposalId) external onlyRegistered{... */\n    tag_26:\n        /* \"contracts/voting-systemV2/votingV2.sol\":1619:1625  voters */\n      0x03\n        /* \"contracts/voting-systemV2/votingV2.sol\":1619:1637  voters[msg.sender] */\n      0x00\n        /* \"contracts/voting-systemV2/votingV2.sol\":1626:1636  msg.sender */\n      caller\n        /* \"contracts/voting-systemV2/votingV2.sol\":1619:1637  voters[msg.sender] */\n      0xffffffffffffffffffffffffffffffffffffffff\n      and\n      0xffffffffffffffffffffffffffffffffffffffff\n      and\n      dup2\n      mstore\n      0x20\n      add\n      swap1\n      dup2\n      mstore\n      0x20\n      add\n      0x00\n      keccak256\n        /* \"contracts/voting-systemV2/votingV2.sol\":1619:1650  voters[msg.sender].isRegistered */\n      0x00\n      add\n      0x00\n      swap1\n      sload\n      swap1\n      0x0100\n      exp\n      swap1\n      div\n      0xff\n      and\n        /* \"contracts/voting-systemV2/votingV2.sol\":1611:1686  require(voters[msg.sender].isRegistered, \"You must be registered do this.\") */\n      tag_85\n      jumpi\n      mload(0x40)\n      0x08c379a000000000000000000000000000000000000000000000000000000000\n      dup2\n      mstore\n      0x04\n      add\n      tag_86\n      swap1\n      tag_87\n      jump\t// in\n    tag_86:\n      mload(0x40)\n      dup1\n      swap2\n      sub\n      swap1\n      revert\n    tag_85:\n        /* \"contracts/voting-systemV2/votingV2.sol\":6944:6979  WorkflowStatus.VotingSessionStarted */\n      0x03\n        /* \"contracts/voting-systemV2/votingV2.sol\":6920:6979  currentVotingSession == WorkflowStatus.VotingSessionStarted */\n      0x05\n      dup2\n      gt\n      iszero\n      tag_89\n      jumpi\n      tag_90\n      tag_73\n      jump\t// in\n    tag_90:\n    tag_89:\n        /* \"contracts/voting-systemV2/votingV2.sol\":6920:6940  currentVotingSession */\n      0x00\n      0x1a\n      swap1\n      sload\n      swap1\n      0x0100\n      exp\n      swap1\n      div\n      0xff\n      and\n        /* \"contracts/voting-systemV2/votingV2.sol\":6920:6979  currentVotingSession == WorkflowStatus.VotingSessionStarted */\n      0x05\n      dup2\n      gt\n      iszero\n      tag_91\n      jumpi\n      tag_92\n      tag_73\n      jump\t// in\n    tag_92:\n    tag_91:\n      eq\n        /* \"contracts/voting-systemV2/votingV2.sol\":6912:7022  require(currentVotingSession == WorkflowStatus.VotingSessionStarted, \"The voting session is not started yet.\") */\n      tag_93\n      jumpi\n      mload(0x40)\n      0x08c379a000000000000000000000000000000000000000000000000000000000\n      dup2\n      mstore\n      0x04\n      add\n      tag_94\n      swap1\n      tag_95\n      jump\t// in\n    tag_94:\n      mload(0x40)\n      dup1\n      swap2\n      sub\n      swap1\n      revert\n    tag_93:\n        /* \"contracts/voting-systemV2/votingV2.sol\":7042:7048  voters */\n      0x03\n        /* \"contracts/voting-systemV2/votingV2.sol\":7042:7060  voters[msg.sender] */\n      0x00\n        /* \"contracts/voting-systemV2/votingV2.sol\":7049:7059  msg.sender */\n      caller\n        /* \"contracts/voting-systemV2/votingV2.sol\":7042:7060  voters[msg.sender] */\n      0xffffffffffffffffffffffffffffffffffffffff\n      and\n      0xffffffffffffffffffffffffffffffffffffffff\n      and\n      dup2\n      mstore\n      0x20\n      add\n      swap1\n      dup2\n      mstore\n      0x20\n      add\n      0x00\n      keccak256\n        /* \"contracts/voting-systemV2/votingV2.sol\":7042:7069  voters[msg.sender].hasVoted */\n      0x00\n      add\n      0x01\n      swap1\n      sload\n      swap1\n      0x0100\n      exp\n      swap1\n      div\n      0xff\n      and\n        /* \"contracts/voting-systemV2/votingV2.sol\":7041:7069  !voters[msg.sender].hasVoted */\n      iszero\n        /* \"contracts/voting-systemV2/votingV2.sol\":7033:7092  require(!voters[msg.sender].hasVoted, \"You already voted.\") */\n      tag_96\n      jumpi\n      mload(0x40)\n      0x08c379a000000000000000000000000000000000000000000000000000000000\n      dup2\n      mstore\n      0x04\n      add\n      tag_97\n      swap1\n      tag_98\n      jump\t// in\n    tag_97:\n      mload(0x40)\n      dup1\n      swap2\n      sub\n      swap1\n      revert\n    tag_96:\n        /* \"contracts/voting-systemV2/votingV2.sol\":7125:7139  voterProposals */\n      0x01\n        /* \"contracts/voting-systemV2/votingV2.sol\":7125:7146  voterProposals.length */\n      dup1\n      sload\n      swap1\n      pop\n        /* \"contracts/voting-systemV2/votingV2.sol\":7111:7122  _proposalId */\n      dup2\n        /* \"contracts/voting-systemV2/votingV2.sol\":7111:7146  _proposalId < voterProposals.length */\n      0xffff\n      and\n      lt\n        /* \"contracts/voting-systemV2/votingV2.sol\":7103:7181  require(_proposalId < voterProposals.length, \"This proposal does not exists.\") */\n      tag_99\n      jumpi\n      mload(0x40)\n      0x08c379a000000000000000000000000000000000000000000000000000000000\n      dup2\n      mstore\n      0x04\n      add\n      tag_100\n      swap1\n      tag_101\n      jump\t// in\n    tag_100:\n      mload(0x40)\n      dup1\n      swap2\n      sub\n      swap1\n      revert\n    tag_99:\n        /* \"contracts/voting-systemV2/votingV2.sol\":7239:7250  _proposalId */\n      dup1\n        /* \"contracts/voting-systemV2/votingV2.sol\":7202:7208  voters */\n      0x03\n        /* \"contracts/voting-systemV2/votingV2.sol\":7202:7220  voters[msg.sender] */\n      0x00\n        /* \"contracts/voting-systemV2/votingV2.sol\":7209:7219  msg.sender */\n      caller\n        /* \"contracts/voting-systemV2/votingV2.sol\":7202:7220  voters[msg.sender] */\n      0xffffffffffffffffffffffffffffffffffffffff\n      and\n      0xffffffffffffffffffffffffffffffffffffffff\n      and\n      dup2\n      mstore\n      0x20\n      add\n      swap1\n      dup2\n      mstore\n      0x20\n      add\n      0x00\n      keccak256\n        /* \"contracts/voting-systemV2/votingV2.sol\":7202:7236  voters[msg.sender].votedProposalId */\n      0x00\n      add\n      0x02\n        /* \"contracts/voting-systemV2/votingV2.sol\":7202:7250  voters[msg.sender].votedProposalId = _proposalId */\n      0x0100\n      exp\n      dup2\n      sload\n      dup2\n      0xffff\n      mul\n      not\n      and\n      swap1\n      dup4\n      0xffff\n      and\n      mul\n      or\n      swap1\n      sstore\n      pop\n        /* \"contracts/voting-systemV2/votingV2.sol\":7291:7295  true */\n      0x01\n        /* \"contracts/voting-systemV2/votingV2.sol\":7261:7267  voters */\n      0x03\n        /* \"contracts/voting-systemV2/votingV2.sol\":7261:7279  voters[msg.sender] */\n      0x00\n        /* \"contracts/voting-systemV2/votingV2.sol\":7268:7278  msg.sender */\n      caller\n        /* \"contracts/voting-systemV2/votingV2.sol\":7261:7279  voters[msg.sender] */\n      0xffffffffffffffffffffffffffffffffffffffff\n      and\n      0xffffffffffffffffffffffffffffffffffffffff\n      and\n      dup2\n      mstore\n      0x20\n      add\n      swap1\n      dup2\n      mstore\n      0x20\n      add\n      0x00\n      keccak256\n        /* \"contracts/voting-systemV2/votingV2.sol\":7261:7288  voters[msg.sender].hasVoted */\n      0x00\n      add\n      0x01\n        /* \"contracts/voting-systemV2/votingV2.sol\":7261:7295  voters[msg.sender].hasVoted = true */\n      0x0100\n      exp\n      dup2\n      sload\n      dup2\n      0xff\n      mul\n      not\n      and\n      swap1\n      dup4\n      iszero\n      iszero\n      mul\n      or\n      swap1\n      sstore\n      pop\n        /* \"contracts/voting-systemV2/votingV2.sol\":7306:7320  voterProposals */\n      0x01\n        /* \"contracts/voting-systemV2/votingV2.sol\":7321:7332  _proposalId */\n      dup2\n        /* \"contracts/voting-systemV2/votingV2.sol\":7306:7333  voterProposals[_proposalId] */\n      0xffff\n      and\n      dup2\n      sload\n      dup2\n      lt\n      tag_102\n      jumpi\n      tag_103\n      tag_104\n      jump\t// in\n    tag_103:\n    tag_102:\n      swap1\n      0x00\n      mstore\n      keccak256(0x00, 0x20)\n      swap1\n      0x02\n      mul\n      add\n        /* \"contracts/voting-systemV2/votingV2.sol\":7306:7343  voterProposals[_proposalId].voteCount */\n      0x01\n      add\n      0x00\n        /* \"contracts/voting-systemV2/votingV2.sol\":7306:7345  voterProposals[_proposalId].voteCount++ */\n      dup2\n      dup2\n      swap1\n      sload\n      swap1\n      0x0100\n      exp\n      swap1\n      div\n      0xffff\n      and\n      dup1\n      swap3\n      swap2\n      swap1\n      tag_106\n      swap1\n      tag_107\n      jump\t// in\n    tag_106:\n      swap2\n      swap1\n      0x0100\n      exp\n      dup2\n      sload\n      dup2\n      0xffff\n      mul\n      not\n      and\n      swap1\n      dup4\n      0xffff\n      and\n      mul\n      or\n      swap1\n      sstore\n      pop\n      pop\n        /* \"contracts/voting-systemV2/votingV2.sol\":7356:7366  votesCount */\n      0x00\n      0x16\n        /* \"contracts/voting-systemV2/votingV2.sol\":7356:7368  votesCount++ */\n      dup2\n      dup2\n      swap1\n      sload\n      swap1\n      0x0100\n      exp\n      swap1\n      div\n      0xffff\n      and\n      dup1\n      swap3\n      swap2\n      swap1\n      tag_108\n      swap1\n      tag_107\n      jump\t// in\n    tag_108:\n      swap2\n      swap1\n      0x0100\n      exp\n      dup2\n      sload\n      dup2\n      0xffff\n      mul\n      not\n      and\n      swap1\n      dup4\n      0xffff\n      and\n      mul\n      or\n      swap1\n      sstore\n      pop\n      pop\n        /* \"contracts/voting-systemV2/votingV2.sol\":7424:7438  voterProposals */\n      0x01\n        /* \"contracts/voting-systemV2/votingV2.sol\":7439:7456  winningProposalId */\n      0x00\n      0x14\n      swap1\n      sload\n      swap1\n      0x0100\n      exp\n      swap1\n      div\n      0xffff\n      and\n        /* \"contracts/voting-systemV2/votingV2.sol\":7424:7457  voterProposals[winningProposalId] */\n      0xffff\n      and\n      dup2\n      sload\n      dup2\n      lt\n      tag_109\n      jumpi\n      tag_110\n      tag_104\n      jump\t// in\n    tag_110:\n    tag_109:\n      swap1\n      0x00\n      mstore\n      keccak256(0x00, 0x20)\n      swap1\n      0x02\n      mul\n      add\n        /* \"contracts/voting-systemV2/votingV2.sol\":7424:7467  voterProposals[winningProposalId].voteCount */\n      0x01\n      add\n      0x00\n      swap1\n      sload\n      swap1\n      0x0100\n      exp\n      swap1\n      div\n      0xffff\n      and\n        /* \"contracts/voting-systemV2/votingV2.sol\":7384:7467  voterProposals[_proposalId].voteCount > voterProposals[winningProposalId].voteCount */\n      0xffff\n      and\n        /* \"contracts/voting-systemV2/votingV2.sol\":7384:7398  voterProposals */\n      0x01\n        /* \"contracts/voting-systemV2/votingV2.sol\":7399:7410  _proposalId */\n      dup3\n        /* \"contracts/voting-systemV2/votingV2.sol\":7384:7411  voterProposals[_proposalId] */\n      0xffff\n      and\n      dup2\n      sload\n      dup2\n      lt\n      tag_112\n      jumpi\n      tag_113\n      tag_104\n      jump\t// in\n    tag_113:\n    tag_112:\n      swap1\n      0x00\n      mstore\n      keccak256(0x00, 0x20)\n      swap1\n      0x02\n      mul\n      add\n        /* \"contracts/voting-systemV2/votingV2.sol\":7384:7421  voterProposals[_proposalId].voteCount */\n      0x01\n      add\n      0x00\n      swap1\n      sload\n      swap1\n      0x0100\n      exp\n      swap1\n      div\n      0xffff\n      and\n        /* \"contracts/voting-systemV2/votingV2.sol\":7384:7467  voterProposals[_proposalId].voteCount > voterProposals[winningProposalId].voteCount */\n      0xffff\n      and\n      gt\n        /* \"contracts/voting-systemV2/votingV2.sol\":7381:7526  if(voterProposals[_proposalId].voteCount > voterProposals[winningProposalId].voteCount){... */\n      iszero\n      tag_115\n      jumpi\n        /* \"contracts/voting-systemV2/votingV2.sol\":7503:7514  _proposalId */\n      dup1\n        /* \"contracts/voting-systemV2/votingV2.sol\":7483:7500  winningProposalId */\n      0x00\n      0x14\n        /* \"contracts/voting-systemV2/votingV2.sol\":7483:7514  winningProposalId = _proposalId */\n      0x0100\n      exp\n      dup2\n      sload\n      dup2\n      0xffff\n      mul\n      not\n      and\n      swap1\n      dup4\n      0xffff\n      and\n      mul\n      or\n      swap1\n      sstore\n      pop\n        /* \"contracts/voting-systemV2/votingV2.sol\":7381:7526  if(voterProposals[_proposalId].voteCount > voterProposals[winningProposalId].voteCount){... */\n    tag_115:\n        /* \"contracts/voting-systemV2/votingV2.sol\":7561:7572  _proposalId */\n      dup1\n        /* \"contracts/voting-systemV2/votingV2.sol\":7543:7573  Voted(msg.sender, _proposalId) */\n      0xffff\n      and\n        /* \"contracts/voting-systemV2/votingV2.sol\":7549:7559  msg.sender */\n      caller\n        /* \"contracts/voting-systemV2/votingV2.sol\":7543:7573  Voted(msg.sender, _proposalId) */\n      0xffffffffffffffffffffffffffffffffffffffff\n      and\n      0x2941e36a18e27644e8ea10bad396659ac866fd7a18a75015d088fc148e24d854\n      mload(0x40)\n      mload(0x40)\n      dup1\n      swap2\n      sub\n      swap1\n      log3\n        /* \"contracts/voting-systemV2/votingV2.sol\":6834:7581  function voterAddVote(uint16 _proposalId) external onlyRegistered{... */\n      pop\n      jump\t// out\n        /* \"contracts/voting-systemV2/votingV2.sol\":8842:9159  function getVoterVote(address _addr) external view onlyRegistered returns(Proposal memory){... */\n    tag_30:\n        /* \"contracts/voting-systemV2/votingV2.sol\":8916:8931  Proposal memory */\n      tag_116\n      tag_117\n      jump\t// in\n    tag_116:\n        /* \"contracts/voting-systemV2/votingV2.sol\":1619:1625  voters */\n      0x03\n        /* \"contracts/voting-systemV2/votingV2.sol\":1619:1637  voters[msg.sender] */\n      0x00\n        /* \"contracts/voting-systemV2/votingV2.sol\":1626:1636  msg.sender */\n      caller\n        /* \"contracts/voting-systemV2/votingV2.sol\":1619:1637  voters[msg.sender] */\n      0xffffffffffffffffffffffffffffffffffffffff\n      and\n      0xffffffffffffffffffffffffffffffffffffffff\n      and\n      dup2\n      mstore\n      0x20\n      add\n      swap1\n      dup2\n      mstore\n      0x20\n      add\n      0x00\n      keccak256\n        /* \"contracts/voting-systemV2/votingV2.sol\":1619:1650  voters[msg.sender].isRegistered */\n      0x00\n      add\n      0x00\n      swap1\n      sload\n      swap1\n      0x0100\n      exp\n      swap1\n      div\n      0xff\n      and\n        /* \"contracts/voting-systemV2/votingV2.sol\":1611:1686  require(voters[msg.sender].isRegistered, \"You must be registered do this.\") */\n      tag_119\n      jumpi\n      mload(0x40)\n      0x08c379a000000000000000000000000000000000000000000000000000000000\n      dup2\n      mstore\n      0x04\n      add\n      tag_120\n      swap1\n      tag_87\n      jump\t// in\n    tag_120:\n      mload(0x40)\n      dup1\n      swap2\n      sub\n      swap1\n      revert\n    tag_119:\n        /* \"contracts/voting-systemV2/votingV2.sol\":8953:8959  voters */\n      0x03\n        /* \"contracts/voting-systemV2/votingV2.sol\":8953:8966  voters[_addr] */\n      0x00\n        /* \"contracts/voting-systemV2/votingV2.sol\":8960:8965  _addr */\n      dup4\n        /* \"contracts/voting-systemV2/votingV2.sol\":8953:8966  voters[_addr] */\n      0xffffffffffffffffffffffffffffffffffffffff\n      and\n      0xffffffffffffffffffffffffffffffffffffffff\n      and\n      dup2\n      mstore\n      0x20\n      add\n      swap1\n      dup2\n      mstore\n      0x20\n      add\n      0x00\n      keccak256\n        /* \"contracts/voting-systemV2/votingV2.sol\":8953:8979  voters[_addr].isRegistered */\n      0x00\n      add\n      0x00\n      swap1\n      sload\n      swap1\n      0x0100\n      exp\n      swap1\n      div\n      0xff\n      and\n        /* \"contracts/voting-systemV2/votingV2.sol\":8945:9012  require(voters[_addr].isRegistered, \"The voter is not registered.\") */\n      tag_122\n      jumpi\n      mload(0x40)\n      0x08c379a000000000000000000000000000000000000000000000000000000000\n      dup2\n      mstore\n      0x04\n      add\n      tag_123\n      swap1\n      tag_124\n      jump\t// in\n    tag_123:\n      mload(0x40)\n      dup1\n      swap2\n      sub\n      swap1\n      revert\n    tag_122:\n        /* \"contracts/voting-systemV2/votingV2.sol\":9031:9037  voters */\n      0x03\n        /* \"contracts/voting-systemV2/votingV2.sol\":9031:9044  voters[_addr] */\n      0x00\n        /* \"contracts/voting-systemV2/votingV2.sol\":9038:9043  _addr */\n      dup4\n        /* \"contracts/voting-systemV2/votingV2.sol\":9031:9044  voters[_addr] */\n      0xffffffffffffffffffffffffffffffffffffffff\n      and\n      0xffffffffffffffffffffffffffffffffffffffff\n      and\n      dup2\n      mstore\n      0x20\n      add\n      swap1\n      dup2\n      mstore\n      0x20\n      add\n      0x00\n      keccak256\n        /* \"contracts/voting-systemV2/votingV2.sol\":9031:9053  voters[_addr].hasVoted */\n      0x00\n      add\n      0x01\n      swap1\n      sload\n      swap1\n      0x0100\n      exp\n      swap1\n      div\n      0xff\n      and\n        /* \"contracts/voting-systemV2/votingV2.sol\":9023:9086  require(voters[_addr].hasVoted, \"The voter has not voted yet.\") */\n      tag_125\n      jumpi\n      mload(0x40)\n      0x08c379a000000000000000000000000000000000000000000000000000000000\n      dup2\n      mstore\n      0x04\n      add\n      tag_126\n      swap1\n      tag_127\n      jump\t// in\n    tag_126:\n      mload(0x40)\n      dup1\n      swap2\n      sub\n      swap1\n      revert\n    tag_125:\n        /* \"contracts/voting-systemV2/votingV2.sol\":9106:9120  voterProposals */\n      0x01\n        /* \"contracts/voting-systemV2/votingV2.sol\":9121:9127  voters */\n      0x03\n        /* \"contracts/voting-systemV2/votingV2.sol\":9121:9134  voters[_addr] */\n      0x00\n        /* \"contracts/voting-systemV2/votingV2.sol\":9128:9133  _addr */\n      dup5\n        /* \"contracts/voting-systemV2/votingV2.sol\":9121:9134  voters[_addr] */\n      0xffffffffffffffffffffffffffffffffffffffff\n      and\n      0xffffffffffffffffffffffffffffffffffffffff\n      and\n      dup2\n      mstore\n      0x20\n      add\n      swap1\n      dup2\n      mstore\n      0x20\n      add\n      0x00\n      keccak256\n        /* \"contracts/voting-systemV2/votingV2.sol\":9121:9150  voters[_addr].votedProposalId */\n      0x00\n      add\n      0x02\n      swap1\n      sload\n      swap1\n      0x0100\n      exp\n      swap1\n      div\n      0xffff\n      and\n        /* \"contracts/voting-systemV2/votingV2.sol\":9106:9151  voterProposals[voters[_addr].votedProposalId] */\n      0xffff\n      and\n      dup2\n      sload\n      dup2\n      lt\n      tag_128\n      jumpi\n      tag_129\n      tag_104\n      jump\t// in\n    tag_129:\n    tag_128:\n      swap1\n      0x00\n      mstore\n      keccak256(0x00, 0x20)\n      swap1\n      0x02\n      mul\n      add\n        /* \"contracts/voting-systemV2/votingV2.sol\":9099:9151  return voterProposals[voters[_addr].votedProposalId] */\n      mload(0x40)\n      dup1\n      0x40\n      add\n      0x40\n      mstore\n      swap1\n      dup2\n      0x00\n      dup3\n      add\n      dup1\n      sload\n      tag_131\n      swap1\n      tag_132\n      jump\t// in\n    tag_131:\n      dup1\n      0x1f\n      add\n      0x20\n      dup1\n      swap2\n      div\n      mul\n      0x20\n      add\n      mload(0x40)\n      swap1\n      dup2\n      add\n      0x40\n      mstore\n      dup1\n      swap3\n      swap2\n      swap1\n      dup2\n      dup2\n      mstore\n      0x20\n      add\n      dup3\n      dup1\n      sload\n      tag_133\n      swap1\n      tag_132\n      jump\t// in\n    tag_133:\n      dup1\n      iszero\n      tag_134\n      jumpi\n      dup1\n      0x1f\n      lt\n      tag_135\n      jumpi\n      0x0100\n      dup1\n      dup4\n      sload\n      div\n      mul\n      dup4\n      mstore\n      swap2\n      0x20\n      add\n      swap2\n      jump(tag_134)\n    tag_135:\n      dup3\n      add\n      swap2\n      swap1\n      0x00\n      mstore\n      keccak256(0x00, 0x20)\n      swap1\n    tag_136:\n      dup2\n      sload\n      dup2\n      mstore\n      swap1\n      0x01\n      add\n      swap1\n      0x20\n      add\n      dup1\n      dup4\n      gt\n      tag_136\n      jumpi\n      dup3\n      swap1\n      sub\n      0x1f\n      and\n      dup3\n      add\n      swap2\n    tag_134:\n      pop\n      pop\n      pop\n      pop\n      pop\n      dup2\n      mstore\n      0x20\n      add\n      0x01\n      dup3\n      add\n      0x00\n      swap1\n      sload\n      swap1\n      0x0100\n      exp\n      swap1\n      div\n      0xffff\n      and\n      0xffff\n      and\n      0xffff\n      and\n      dup2\n      mstore\n      pop\n      pop\n      swap1\n      pop\n        /* \"contracts/voting-systemV2/votingV2.sol\":8842:9159  function getVoterVote(address _addr) external view onlyRegistered returns(Proposal memory){... */\n      swap2\n      swap1\n      pop\n      jump\t// out\n        /* \"contracts/voting-systemV2/votingV2.sol\":2096:2647  function _restartSession() external onlyOwner{... */\n    tag_34:\n        /* \"https://github.com/OpenZeppelin/openzeppelin-contracts/blob/master/contracts/access/Ownable.sol\":1094:1107  _checkOwner() */\n      tag_138\n        /* \"https://github.com/OpenZeppelin/openzeppelin-contracts/blob/master/contracts/access/Ownable.sol\":1094:1105  _checkOwner */\n      tag_69\n        /* \"https://github.com/OpenZeppelin/openzeppelin-contracts/blob/master/contracts/access/Ownable.sol\":1094:1107  _checkOwner() */\n      jump\t// in\n    tag_138:\n        /* \"contracts/voting-systemV2/votingV2.sol\":2186:2213  WorkflowStatus.VotesTallied */\n      0x05\n        /* \"contracts/voting-systemV2/votingV2.sol\":2162:2213  currentVotingSession == WorkflowStatus.VotesTallied */\n      dup1\n      dup2\n      gt\n      iszero\n      tag_140\n      jumpi\n      tag_141\n      tag_73\n      jump\t// in\n    tag_141:\n    tag_140:\n        /* \"contracts/voting-systemV2/votingV2.sol\":2162:2182  currentVotingSession */\n      0x00\n      0x1a\n      swap1\n      sload\n      swap1\n      0x0100\n      exp\n      swap1\n      div\n      0xff\n      and\n        /* \"contracts/voting-systemV2/votingV2.sol\":2162:2213  currentVotingSession == WorkflowStatus.VotesTallied */\n      0x05\n      dup2\n      gt\n      iszero\n      tag_142\n      jumpi\n      tag_143\n      tag_73\n      jump\t// in\n    tag_143:\n    tag_142:\n      eq\n        /* \"contracts/voting-systemV2/votingV2.sol\":2154:2255  require(currentVotingSession == WorkflowStatus.VotesTallied, \"The previous session is not over yet.\") */\n      tag_144\n      jumpi\n      mload(0x40)\n      0x08c379a000000000000000000000000000000000000000000000000000000000\n      dup2\n      mstore\n      0x04\n      add\n      tag_145\n      swap1\n      tag_146\n      jump\t// in\n    tag_145:\n      mload(0x40)\n      dup1\n      swap2\n      sub\n      swap1\n      revert\n    tag_144:\n        /* \"contracts/voting-systemV2/votingV2.sol\":2324:2325  0 */\n      0x00\n        /* \"contracts/voting-systemV2/votingV2.sol\":2304:2321  winningProposalId */\n      dup1\n      0x14\n        /* \"contracts/voting-systemV2/votingV2.sol\":2304:2325  winningProposalId = 0 */\n      0x0100\n      exp\n      dup2\n      sload\n      dup2\n      0xffff\n      mul\n      not\n      and\n      swap1\n      dup4\n      0xffff\n      and\n      mul\n      or\n      swap1\n      sstore\n        /* \"contracts/voting-systemV2/votingV2.sol\":2281:2301  voterRegisteredCount */\n      0x00\n      0x18\n        /* \"contracts/voting-systemV2/votingV2.sol\":2281:2325  voterRegisteredCount = winningProposalId = 0 */\n      0x0100\n      exp\n      dup2\n      sload\n      dup2\n      0xffff\n      mul\n      not\n      and\n      swap1\n      dup4\n      0xffff\n      and\n      mul\n      or\n      swap1\n      sstore\n        /* \"contracts/voting-systemV2/votingV2.sol\":2268:2278  votesCount */\n      0x00\n      0x16\n        /* \"contracts/voting-systemV2/votingV2.sol\":2268:2325  votesCount = voterRegisteredCount = winningProposalId = 0 */\n      0x0100\n      exp\n      dup2\n      sload\n      dup2\n      0xffff\n      mul\n      not\n      and\n      swap1\n      dup4\n      0xffff\n      and\n      mul\n      or\n      swap1\n      sstore\n      pop\n        /* \"contracts/voting-systemV2/votingV2.sol\":2351:2359  uint16 i */\n      0x00\n        /* \"contracts/voting-systemV2/votingV2.sol\":2347:2506  for(uint16 i; i<voterAddresses.length; i++){... */\n    tag_147:\n        /* \"contracts/voting-systemV2/votingV2.sol\":2363:2377  voterAddresses */\n      0x02\n        /* \"contracts/voting-systemV2/votingV2.sol\":2363:2384  voterAddresses.length */\n      dup1\n      sload\n      swap1\n      pop\n        /* \"contracts/voting-systemV2/votingV2.sol\":2361:2362  i */\n      dup2\n        /* \"contracts/voting-systemV2/votingV2.sol\":2361:2384  i<voterAddresses.length */\n      0xffff\n      and\n      lt\n        /* \"contracts/voting-systemV2/votingV2.sol\":2347:2506  for(uint16 i; i<voterAddresses.length; i++){... */\n      iszero\n      tag_148\n      jumpi\n        /* \"contracts/voting-systemV2/votingV2.sol\":2412:2428  voterProposalIds */\n      0x04\n        /* \"contracts/voting-systemV2/votingV2.sol\":2412:2447  voterProposalIds[voterAddresses[i]] */\n      0x00\n        /* \"contracts/voting-systemV2/votingV2.sol\":2429:2443  voterAddresses */\n      0x02\n        /* \"contracts/voting-systemV2/votingV2.sol\":2444:2445  i */\n      dup4\n        /* \"contracts/voting-systemV2/votingV2.sol\":2429:2446  voterAddresses[i] */\n      0xffff\n      and\n      dup2\n      sload\n      dup2\n      lt\n      tag_150\n      jumpi\n      tag_151\n      tag_104\n      jump\t// in\n    tag_151:\n    tag_150:\n      swap1\n      0x00\n      mstore\n      keccak256(0x00, 0x20)\n      add\n      0x00\n      swap1\n      sload\n      swap1\n      0x0100\n      exp\n      swap1\n      div\n      0xffffffffffffffffffffffffffffffffffffffff\n      and\n        /* \"contracts/voting-systemV2/votingV2.sol\":2412:2447  voterProposalIds[voterAddresses[i]] */\n      0xffffffffffffffffffffffffffffffffffffffff\n      and\n      0xffffffffffffffffffffffffffffffffffffffff\n      and\n      dup2\n      mstore\n      0x20\n      add\n      swap1\n      dup2\n      mstore\n      0x20\n      add\n      0x00\n      keccak256\n      0x00\n        /* \"contracts/voting-systemV2/votingV2.sol\":2405:2447  delete voterProposalIds[voterAddresses[i]] */\n      tag_153\n      swap2\n      swap1\n      tag_154\n      jump\t// in\n    tag_153:\n        /* \"contracts/voting-systemV2/votingV2.sol\":2469:2475  voters */\n      0x03\n        /* \"contracts/voting-systemV2/votingV2.sol\":2469:2494  voters[voterAddresses[i]] */\n      0x00\n        /* \"contracts/voting-systemV2/votingV2.sol\":2476:2490  voterAddresses */\n      0x02\n        /* \"contracts/voting-systemV2/votingV2.sol\":2491:2492  i */\n      dup4\n        /* \"contracts/voting-systemV2/votingV2.sol\":2476:2493  voterAddresses[i] */\n      0xffff\n      and\n      dup2\n      sload\n      dup2\n      lt\n      tag_155\n      jumpi\n      tag_156\n      tag_104\n      jump\t// in\n    tag_156:\n    tag_155:\n      swap1\n      0x00\n      mstore\n      keccak256(0x00, 0x20)\n      add\n      0x00\n      swap1\n      sload\n      swap1\n      0x0100\n      exp\n      swap1\n      div\n      0xffffffffffffffffffffffffffffffffffffffff\n      and\n        /* \"contracts/voting-systemV2/votingV2.sol\":2469:2494  voters[voterAddresses[i]] */\n      0xffffffffffffffffffffffffffffffffffffffff\n      and\n      0xffffffffffffffffffffffffffffffffffffffff\n      and\n      dup2\n      mstore\n      0x20\n      add\n      swap1\n      dup2\n      mstore\n      0x20\n      add\n      0x00\n      keccak256\n      0x00\n        /* \"contracts/voting-systemV2/votingV2.sol\":2462:2494  delete voters[voterAddresses[i]] */\n      dup1\n      dup3\n      add\n      exp(0x0100, 0x00)\n      dup2\n      sload\n      swap1\n      0xff\n      mul\n      not\n      and\n      swap1\n      sstore\n      0x00\n      dup3\n      add\n      exp(0x0100, 0x01)\n      dup2\n      sload\n      swap1\n      0xff\n      mul\n      not\n      and\n      swap1\n      sstore\n      0x00\n      dup3\n      add\n      exp(0x0100, 0x02)\n      dup2\n      sload\n      swap1\n      0xffff\n      mul\n      not\n      and\n      swap1\n      sstore\n      pop\n      pop\n        /* \"contracts/voting-systemV2/votingV2.sol\":2386:2389  i++ */\n      dup1\n      dup1\n      tag_158\n      swap1\n      tag_107\n      jump\t// in\n    tag_158:\n      swap2\n      pop\n      pop\n        /* \"contracts/voting-systemV2/votingV2.sol\":2347:2506  for(uint16 i; i<voterAddresses.length; i++){... */\n      jump(tag_147)\n    tag_148:\n      pop\n        /* \"contracts/voting-systemV2/votingV2.sol\":2525:2539  voterProposals */\n      0x01\n      0x00\n        /* \"contracts/voting-systemV2/votingV2.sol\":2518:2539  delete voterProposals */\n      tag_159\n      swap2\n      swap1\n      tag_160\n      jump\t// in\n    tag_159:\n        /* \"contracts/voting-systemV2/votingV2.sol\":2557:2571  voterAddresses */\n      0x02\n      0x00\n        /* \"contracts/voting-systemV2/votingV2.sol\":2550:2571  delete voterAddresses */\n      tag_161\n      swap2\n      swap1\n      tag_162\n      jump\t// in\n    tag_161:\n        /* \"contracts/voting-systemV2/votingV2.sol\":2584:2639  _changeWorkflowStatus(WorkflowStatus.RegisteringVoters) */\n      tag_163\n        /* \"contracts/voting-systemV2/votingV2.sol\":2606:2638  WorkflowStatus.RegisteringVoters */\n      0x00\n        /* \"contracts/voting-systemV2/votingV2.sol\":2584:2605  _changeWorkflowStatus */\n      tag_83\n        /* \"contracts/voting-systemV2/votingV2.sol\":2584:2639  _changeWorkflowStatus(WorkflowStatus.RegisteringVoters) */\n      jump\t// in\n    tag_163:\n        /* \"contracts/voting-systemV2/votingV2.sol\":2096:2647  function _restartSession() external onlyOwner{... */\n      jump\t// out\n        /* \"contracts/voting-systemV2/votingV2.sol\":5994:6538  function voterAddProposal(string calldata _description) external onlyRegistered {... */\n    tag_38:\n        /* \"contracts/voting-systemV2/votingV2.sol\":1619:1625  voters */\n      0x03\n        /* \"contracts/voting-systemV2/votingV2.sol\":1619:1637  voters[msg.sender] */\n      0x00\n        /* \"contracts/voting-systemV2/votingV2.sol\":1626:1636  msg.sender */\n      caller\n        /* \"contracts/voting-systemV2/votingV2.sol\":1619:1637  voters[msg.sender] */\n      0xffffffffffffffffffffffffffffffffffffffff\n      and\n      0xffffffffffffffffffffffffffffffffffffffff\n      and\n      dup2\n      mstore\n      0x20\n      add\n      swap1\n      dup2\n      mstore\n      0x20\n      add\n      0x00\n      keccak256\n        /* \"contracts/voting-systemV2/votingV2.sol\":1619:1650  voters[msg.sender].isRegistered */\n      0x00\n      add\n      0x00\n      swap1\n      sload\n      swap1\n      0x0100\n      exp\n      swap1\n      div\n      0xff\n      and\n        /* \"contracts/voting-systemV2/votingV2.sol\":1611:1686  require(voters[msg.sender].isRegistered, \"You must be registered do this.\") */\n      tag_165\n      jumpi\n      mload(0x40)\n      0x08c379a000000000000000000000000000000000000000000000000000000000\n      dup2\n      mstore\n      0x04\n      add\n      tag_166\n      swap1\n      tag_87\n      jump\t// in\n    tag_166:\n      mload(0x40)\n      dup1\n      swap2\n      sub\n      swap1\n      revert\n    tag_165:\n        /* \"contracts/voting-systemV2/votingV2.sol\":6127:6170  WorkflowStatus.ProposalsRegistrationStarted */\n      0x01\n        /* \"contracts/voting-systemV2/votingV2.sol\":6103:6170  currentVotingSession == WorkflowStatus.ProposalsRegistrationStarted */\n      0x05\n      dup2\n      gt\n      iszero\n      tag_168\n      jumpi\n      tag_169\n      tag_73\n      jump\t// in\n    tag_169:\n    tag_168:\n        /* \"contracts/voting-systemV2/votingV2.sol\":6103:6123  currentVotingSession */\n      0x00\n      0x1a\n      swap1\n      sload\n      swap1\n      0x0100\n      exp\n      swap1\n      div\n      0xff\n      and\n        /* \"contracts/voting-systemV2/votingV2.sol\":6103:6170  currentVotingSession == WorkflowStatus.ProposalsRegistrationStarted */\n      0x05\n      dup2\n      gt\n      iszero\n      tag_170\n      jumpi\n      tag_171\n      tag_73\n      jump\t// in\n    tag_171:\n    tag_170:\n      eq\n        /* \"contracts/voting-systemV2/votingV2.sol\":6095:6220  require(currentVotingSession == WorkflowStatus.ProposalsRegistrationStarted, \"The proposal registration is not started yet.\") */\n      tag_172\n      jumpi\n      mload(0x40)\n      0x08c379a000000000000000000000000000000000000000000000000000000000\n      dup2\n      mstore\n      0x04\n      add\n      tag_173\n      swap1\n      tag_78\n      jump\t// in\n    tag_173:\n      mload(0x40)\n      dup1\n      swap2\n      sub\n      swap1\n      revert\n    tag_172:\n        /* \"contracts/voting-systemV2/votingV2.sol\":6268:6269  0 */\n      0x00\n        /* \"contracts/voting-systemV2/votingV2.sol\":6245:6257  _description */\n      dup3\n      dup3\n        /* \"contracts/voting-systemV2/votingV2.sol\":6239:6265  bytes(_description).length */\n      swap1\n      pop\n        /* \"contracts/voting-systemV2/votingV2.sol\":6239:6269  bytes(_description).length > 0 */\n      gt\n        /* \"contracts/voting-systemV2/votingV2.sol\":6231:6303  require(bytes(_description).length > 0, \"The proposal cannot be empty.\") */\n      tag_174\n      jumpi\n      mload(0x40)\n      0x08c379a000000000000000000000000000000000000000000000000000000000\n      dup2\n      mstore\n      0x04\n      add\n      tag_175\n      swap1\n      tag_176\n      jump\t// in\n    tag_175:\n      mload(0x40)\n      dup1\n      swap2\n      sub\n      swap1\n      revert\n    tag_174:\n        /* \"contracts/voting-systemV2/votingV2.sol\":6316:6330  voterProposals */\n      0x01\n        /* \"contracts/voting-systemV2/votingV2.sol\":6336:6361  Proposal(_description, 0) */\n      mload(0x40)\n      dup1\n      0x40\n      add\n      0x40\n      mstore\n      dup1\n        /* \"contracts/voting-systemV2/votingV2.sol\":6345:6357  _description */\n      dup5\n      dup5\n        /* \"contracts/voting-systemV2/votingV2.sol\":6336:6361  Proposal(_description, 0) */\n      dup1\n      dup1\n      0x1f\n      add\n      0x20\n      dup1\n      swap2\n      div\n      mul\n      0x20\n      add\n      mload(0x40)\n      swap1\n      dup2\n      add\n      0x40\n      mstore\n      dup1\n      swap4\n      swap3\n      swap2\n      swap1\n      dup2\n      dup2\n      mstore\n      0x20\n      add\n      dup4\n      dup4\n      dup1\n      dup3\n      dup5\n      calldatacopy\n      0x00\n      dup2\n      dup5\n      add\n      mstore\n      not(0x1f)\n      0x1f\n      dup3\n      add\n      and\n      swap1\n      pop\n      dup1\n      dup4\n      add\n      swap3\n      pop\n      pop\n      pop\n      pop\n      pop\n      pop\n      pop\n      dup2\n      mstore\n      0x20\n      add\n        /* \"contracts/voting-systemV2/votingV2.sol\":6359:6360  0 */\n      0x00\n        /* \"contracts/voting-systemV2/votingV2.sol\":6336:6361  Proposal(_description, 0) */\n      0xffff\n      and\n      dup2\n      mstore\n      pop\n        /* \"contracts/voting-systemV2/votingV2.sol\":6316:6362  voterProposals.push(Proposal(_description, 0)) */\n      swap1\n      dup1\n      0x01\n      dup2\n      sload\n      add\n      dup1\n      dup3\n      sstore\n      dup1\n      swap2\n      pop\n      pop\n      0x01\n      swap1\n      sub\n      swap1\n      0x00\n      mstore\n      keccak256(0x00, 0x20)\n      swap1\n      0x02\n      mul\n      add\n      0x00\n      swap1\n      swap2\n      swap1\n      swap2\n      swap1\n      swap2\n      pop\n      0x00\n      dup3\n      add\n      mload\n      dup2\n      0x00\n      add\n      swap1\n      dup2\n      tag_178\n      swap2\n      swap1\n      tag_179\n      jump\t// in\n    tag_178:\n      pop\n      0x20\n      dup3\n      add\n      mload\n      dup2\n      0x01\n      add\n      exp(0x0100, 0x00)\n      dup2\n      sload\n      dup2\n      0xffff\n      mul\n      not\n      and\n      swap1\n      dup4\n      0xffff\n      and\n      mul\n      or\n      swap1\n      sstore\n      pop\n      pop\n      pop\n        /* \"contracts/voting-systemV2/votingV2.sol\":6373:6390  uint16 proposalId */\n      0x00\n        /* \"contracts/voting-systemV2/votingV2.sol\":6424:6425  1 */\n      0x01\n        /* \"contracts/voting-systemV2/votingV2.sol\":6400:6414  voterProposals */\n      dup1\n        /* \"contracts/voting-systemV2/votingV2.sol\":6400:6421  voterProposals.length */\n      dup1\n      sload\n      swap1\n      pop\n        /* \"contracts/voting-systemV2/votingV2.sol\":6400:6425  voterProposals.length - 1 */\n      tag_180\n      swap2\n      swap1\n      tag_181\n      jump\t// in\n    tag_180:\n        /* \"contracts/voting-systemV2/votingV2.sol\":6373:6426  uint16 proposalId = uint16(voterProposals.length - 1) */\n      swap1\n      pop\n        /* \"contracts/voting-systemV2/votingV2.sol\":6437:6453  voterProposalIds */\n      0x04\n        /* \"contracts/voting-systemV2/votingV2.sol\":6437:6465  voterProposalIds[msg.sender] */\n      0x00\n        /* \"contracts/voting-systemV2/votingV2.sol\":6454:6464  msg.sender */\n      caller\n        /* \"contracts/voting-systemV2/votingV2.sol\":6437:6465  voterProposalIds[msg.sender] */\n      0xffffffffffffffffffffffffffffffffffffffff\n      and\n      0xffffffffffffffffffffffffffffffffffffffff\n      and\n      dup2\n      mstore\n      0x20\n      add\n      swap1\n      dup2\n      mstore\n      0x20\n      add\n      0x00\n      keccak256\n        /* \"contracts/voting-systemV2/votingV2.sol\":6471:6481  proposalId */\n      dup2\n        /* \"contracts/voting-systemV2/votingV2.sol\":6437:6482  voterProposalIds[msg.sender].push(proposalId) */\n      swap1\n      dup1\n      0x01\n      dup2\n      sload\n      add\n      dup1\n      dup3\n      sstore\n      dup1\n      swap2\n      pop\n      pop\n      0x01\n      swap1\n      sub\n      swap1\n      0x00\n      mstore\n      keccak256(0x00, 0x20)\n      add\n      0x00\n      swap1\n      swap2\n      0xffff\n      and\n      swap1\n      swap2\n      swap1\n      swap2\n      pop\n      sstore\n        /* \"contracts/voting-systemV2/votingV2.sol\":6519:6529  proposalId */\n      dup1\n        /* \"contracts/voting-systemV2/votingV2.sol\":6500:6530  ProposalRegistered(proposalId) */\n      0xffff\n      and\n      0x3a4c611b68899d706a17379718e0e71bc4fbd91ba8e193b04e9876719d2d8603\n      mload(0x40)\n      mload(0x40)\n      dup1\n      swap2\n      sub\n      swap1\n      log2\n        /* \"contracts/voting-systemV2/votingV2.sol\":6074:6538  {... */\n      pop\n        /* \"contracts/voting-systemV2/votingV2.sol\":5994:6538  function voterAddProposal(string calldata _description) external onlyRegistered {... */\n      pop\n      pop\n      jump\t// out\n        /* \"contracts/voting-systemV2/votingV2.sol\":8113:8659  function getVoterProposals(address _addr) external view onlyRegistered returns(Proposal[] memory){... */\n    tag_41:\n        /* \"contracts/voting-systemV2/votingV2.sol\":8192:8209  Proposal[] memory */\n      0x60\n        /* \"contracts/voting-systemV2/votingV2.sol\":1619:1625  voters */\n      0x03\n        /* \"contracts/voting-systemV2/votingV2.sol\":1619:1637  voters[msg.sender] */\n      0x00\n        /* \"contracts/voting-systemV2/votingV2.sol\":1626:1636  msg.sender */\n      caller\n        /* \"contracts/voting-systemV2/votingV2.sol\":1619:1637  voters[msg.sender] */\n      0xffffffffffffffffffffffffffffffffffffffff\n      and\n      0xffffffffffffffffffffffffffffffffffffffff\n      and\n      dup2\n      mstore\n      0x20\n      add\n      swap1\n      dup2\n      mstore\n      0x20\n      add\n      0x00\n      keccak256\n        /* \"contracts/voting-systemV2/votingV2.sol\":1619:1650  voters[msg.sender].isRegistered */\n      0x00\n      add\n      0x00\n      swap1\n      sload\n      swap1\n      0x0100\n      exp\n      swap1\n      div\n      0xff\n      and\n        /* \"contracts/voting-systemV2/votingV2.sol\":1611:1686  require(voters[msg.sender].isRegistered, \"You must be registered do this.\") */\n      tag_184\n      jumpi\n      mload(0x40)\n      0x08c379a000000000000000000000000000000000000000000000000000000000\n      dup2\n      mstore\n      0x04\n      add\n      tag_185\n      swap1\n      tag_87\n      jump\t// in\n    tag_185:\n      mload(0x40)\n      dup1\n      swap2\n      sub\n      swap1\n      revert\n    tag_184:\n        /* \"contracts/voting-systemV2/votingV2.sol\":8235:8241  voters */\n      0x03\n        /* \"contracts/voting-systemV2/votingV2.sol\":8235:8248  voters[_addr] */\n      0x00\n        /* \"contracts/voting-systemV2/votingV2.sol\":8242:8247  _addr */\n      dup4\n        /* \"contracts/voting-systemV2/votingV2.sol\":8235:8248  voters[_addr] */\n      0xffffffffffffffffffffffffffffffffffffffff\n      and\n      0xffffffffffffffffffffffffffffffffffffffff\n      and\n      dup2\n      mstore\n      0x20\n      add\n      swap1\n      dup2\n      mstore\n      0x20\n      add\n      0x00\n      keccak256\n        /* \"contracts/voting-systemV2/votingV2.sol\":8235:8261  voters[_addr].isRegistered */\n      0x00\n      add\n      0x00\n      swap1\n      sload\n      swap1\n      0x0100\n      exp\n      swap1\n      div\n      0xff\n      and\n        /* \"contracts/voting-systemV2/votingV2.sol\":8227:8294  require(voters[_addr].isRegistered, \"The voter is not registered.\") */\n      tag_187\n      jumpi\n      mload(0x40)\n      0x08c379a000000000000000000000000000000000000000000000000000000000\n      dup2\n      mstore\n      0x04\n      add\n      tag_188\n      swap1\n      tag_124\n      jump\t// in\n    tag_188:\n      mload(0x40)\n      dup1\n      swap2\n      sub\n      swap1\n      revert\n    tag_187:\n        /* \"contracts/voting-systemV2/votingV2.sol\":8307:8341  uint[] memory addrVoterProposalIds */\n      0x00\n        /* \"contracts/voting-systemV2/votingV2.sol\":8344:8360  voterProposalIds */\n      0x04\n        /* \"contracts/voting-systemV2/votingV2.sol\":8344:8367  voterProposalIds[_addr] */\n      0x00\n        /* \"contracts/voting-systemV2/votingV2.sol\":8361:8366  _addr */\n      dup5\n        /* \"contracts/voting-systemV2/votingV2.sol\":8344:8367  voterProposalIds[_addr] */\n      0xffffffffffffffffffffffffffffffffffffffff\n      and\n      0xffffffffffffffffffffffffffffffffffffffff\n      and\n      dup2\n      mstore\n      0x20\n      add\n      swap1\n      dup2\n      mstore\n      0x20\n      add\n      0x00\n      keccak256\n        /* \"contracts/voting-systemV2/votingV2.sol\":8307:8367  uint[] memory addrVoterProposalIds = voterProposalIds[_addr] */\n      dup1\n      sload\n      dup1\n      0x20\n      mul\n      0x20\n      add\n      mload(0x40)\n      swap1\n      dup2\n      add\n      0x40\n      mstore\n      dup1\n      swap3\n      swap2\n      swap1\n      dup2\n      dup2\n      mstore\n      0x20\n      add\n      dup3\n      dup1\n      sload\n      dup1\n      iszero\n      tag_189\n      jumpi\n      0x20\n      mul\n      dup3\n      add\n      swap2\n      swap1\n      0x00\n      mstore\n      keccak256(0x00, 0x20)\n      swap1\n    tag_190:\n      dup2\n      sload\n      dup2\n      mstore\n      0x20\n      add\n      swap1\n      0x01\n      add\n      swap1\n      dup1\n      dup4\n      gt\n      tag_190\n      jumpi\n    tag_189:\n      pop\n      pop\n      pop\n      pop\n      pop\n      swap1\n      pop\n        /* \"contracts/voting-systemV2/votingV2.sol\":8378:8414  Proposal[] memory addrVoterProposals */\n      0x00\n        /* \"contracts/voting-systemV2/votingV2.sol\":8432:8452  addrVoterProposalIds */\n      dup2\n        /* \"contracts/voting-systemV2/votingV2.sol\":8432:8459  addrVoterProposalIds.length */\n      mload\n        /* \"contracts/voting-systemV2/votingV2.sol\":8417:8460  new Proposal[](addrVoterProposalIds.length) */\n      0xffffffffffffffff\n      dup2\n      gt\n      iszero\n      tag_191\n      jumpi\n      tag_192\n      tag_193\n      jump\t// in\n    tag_192:\n    tag_191:\n      mload(0x40)\n      swap1\n      dup1\n      dup3\n      mstore\n      dup1\n      0x20\n      mul\n      0x20\n      add\n      dup3\n      add\n      0x40\n      mstore\n      dup1\n      iszero\n      tag_194\n      jumpi\n      dup2\n      0x20\n      add\n    tag_195:\n      tag_196\n      tag_117\n      jump\t// in\n    tag_196:\n      dup2\n      mstore\n      0x20\n      add\n      swap1\n      0x01\n      swap1\n      sub\n      swap1\n      dup2\n      tag_195\n      jumpi\n      swap1\n      pop\n    tag_194:\n      pop\n        /* \"contracts/voting-systemV2/votingV2.sol\":8378:8460  Proposal[] memory addrVoterProposals = new Proposal[](addrVoterProposalIds.length) */\n      swap1\n      pop\n        /* \"contracts/voting-systemV2/votingV2.sol\":8475:8483  uint16 i */\n      0x00\n        /* \"contracts/voting-systemV2/votingV2.sol\":8471:8612  for(uint16 i=0; i<addrVoterProposalIds.length; i++){... */\n    tag_197:\n        /* \"contracts/voting-systemV2/votingV2.sol\":8489:8509  addrVoterProposalIds */\n      dup3\n        /* \"contracts/voting-systemV2/votingV2.sol\":8489:8516  addrVoterProposalIds.length */\n      mload\n        /* \"contracts/voting-systemV2/votingV2.sol\":8487:8488  i */\n      dup2\n        /* \"contracts/voting-systemV2/votingV2.sol\":8487:8516  i<addrVoterProposalIds.length */\n      0xffff\n      and\n      lt\n        /* \"contracts/voting-systemV2/votingV2.sol\":8471:8612  for(uint16 i=0; i<addrVoterProposalIds.length; i++){... */\n      iszero\n      tag_198\n      jumpi\n        /* \"contracts/voting-systemV2/votingV2.sol\":8561:8575  voterProposals */\n      0x01\n        /* \"contracts/voting-systemV2/votingV2.sol\":8576:8596  addrVoterProposalIds */\n      dup4\n        /* \"contracts/voting-systemV2/votingV2.sol\":8597:8598  i */\n      dup3\n        /* \"contracts/voting-systemV2/votingV2.sol\":8576:8599  addrVoterProposalIds[i] */\n      0xffff\n      and\n      dup2\n      mload\n      dup2\n      lt\n      tag_200\n      jumpi\n      tag_201\n      tag_104\n      jump\t// in\n    tag_201:\n    tag_200:\n      0x20\n      mul\n      0x20\n      add\n      add\n      mload\n        /* \"contracts/voting-systemV2/votingV2.sol\":8561:8600  voterProposals[addrVoterProposalIds[i]] */\n      dup2\n      sload\n      dup2\n      lt\n      tag_202\n      jumpi\n      tag_203\n      tag_104\n      jump\t// in\n    tag_203:\n    tag_202:\n      swap1\n      0x00\n      mstore\n      keccak256(0x00, 0x20)\n      swap1\n      0x02\n      mul\n      add\n        /* \"contracts/voting-systemV2/votingV2.sol\":8537:8600  addrVoterProposals[i] = voterProposals[addrVoterProposalIds[i]] */\n      mload(0x40)\n      dup1\n      0x40\n      add\n      0x40\n      mstore\n      swap1\n      dup2\n      0x00\n      dup3\n      add\n      dup1\n      sload\n      tag_205\n      swap1\n      tag_132\n      jump\t// in\n    tag_205:\n      dup1\n      0x1f\n      add\n      0x20\n      dup1\n      swap2\n      div\n      mul\n      0x20\n      add\n      mload(0x40)\n      swap1\n      dup2\n      add\n      0x40\n      mstore\n      dup1\n      swap3\n      swap2\n      swap1\n      dup2\n      dup2\n      mstore\n      0x20\n      add\n      dup3\n      dup1\n      sload\n      tag_206\n      swap1\n      tag_132\n      jump\t// in\n    tag_206:\n      dup1\n      iszero\n      tag_207\n      jumpi\n      dup1\n      0x1f\n      lt\n      tag_208\n      jumpi\n      0x0100\n      dup1\n      dup4\n      sload\n      div\n      mul\n      dup4\n      mstore\n      swap2\n      0x20\n      add\n      swap2\n      jump(tag_207)\n    tag_208:\n      dup3\n      add\n      swap2\n      swap1\n      0x00\n      mstore\n      keccak256(0x00, 0x20)\n      swap1\n    tag_209:\n      dup2\n      sload\n      dup2\n      mstore\n      swap1\n      0x01\n      add\n      swap1\n      0x20\n      add\n      dup1\n      dup4\n      gt\n      tag_209\n      jumpi\n      dup3\n      swap1\n      sub\n      0x1f\n      and\n      dup3\n      add\n      swap2\n    tag_207:\n      pop\n      pop\n      pop\n      pop\n      pop\n      dup2\n      mstore\n      0x20\n      add\n      0x01\n      dup3\n      add\n      0x00\n      swap1\n      sload\n      swap1\n      0x0100\n      exp\n      swap1\n      div\n      0xffff\n      and\n      0xffff\n      and\n      0xffff\n      and\n      dup2\n      mstore\n      pop\n      pop\n        /* \"contracts/voting-systemV2/votingV2.sol\":8537:8555  addrVoterProposals */\n      dup3\n        /* \"contracts/voting-systemV2/votingV2.sol\":8556:8557  i */\n      dup3\n        /* \"contracts/voting-systemV2/votingV2.sol\":8537:8558  addrVoterProposals[i] */\n      0xffff\n      and\n      dup2\n      mload\n      dup2\n      lt\n      tag_210\n      jumpi\n      tag_211\n      tag_104\n      jump\t// in\n    tag_211:\n    tag_210:\n      0x20\n      mul\n      0x20\n      add\n      add\n        /* \"contracts/voting-systemV2/votingV2.sol\":8537:8600  addrVoterProposals[i] = voterProposals[addrVoterProposalIds[i]] */\n      dup2\n      swap1\n      mstore\n      pop\n        /* \"contracts/voting-systemV2/votingV2.sol\":8518:8521  i++ */\n      dup1\n      dup1\n      tag_212\n      swap1\n      tag_107\n      jump\t// in\n    tag_212:\n      swap2\n      pop\n      pop\n        /* \"contracts/voting-systemV2/votingV2.sol\":8471:8612  for(uint16 i=0; i<addrVoterProposalIds.length; i++){... */\n      jump(tag_197)\n    tag_198:\n      pop\n        /* \"contracts/voting-systemV2/votingV2.sol\":8632:8650  addrVoterProposals */\n      dup1\n        /* \"contracts/voting-systemV2/votingV2.sol\":8624:8651  return (addrVoterProposals) */\n      swap3\n      pop\n      pop\n      pop\n        /* \"contracts/voting-systemV2/votingV2.sol\":8113:8659  function getVoterProposals(address _addr) external view onlyRegistered returns(Proposal[] memory){... */\n      swap2\n      swap1\n      pop\n      jump\t// out\n        /* \"https://github.com/OpenZeppelin/openzeppelin-contracts/blob/master/contracts/access/Ownable.sol\":1831:1932  function renounceOwnership() public virtual onlyOwner {... */\n    tag_45:\n        /* \"https://github.com/OpenZeppelin/openzeppelin-contracts/blob/master/contracts/access/Ownable.sol\":1094:1107  _checkOwner() */\n      tag_214\n        /* \"https://github.com/OpenZeppelin/openzeppelin-contracts/blob/master/contracts/access/Ownable.sol\":1094:1105  _checkOwner */\n      tag_69\n        /* \"https://github.com/OpenZeppelin/openzeppelin-contracts/blob/master/contracts/access/Ownable.sol\":1094:1107  _checkOwner() */\n      jump\t// in\n    tag_214:\n        /* \"https://github.com/OpenZeppelin/openzeppelin-contracts/blob/master/contracts/access/Ownable.sol\":1895:1925  _transferOwnership(address(0)) */\n      tag_216\n        /* \"https://github.com/OpenZeppelin/openzeppelin-contracts/blob/master/contracts/access/Ownable.sol\":1922:1923  0 */\n      0x00\n        /* \"https://github.com/OpenZeppelin/openzeppelin-contracts/blob/master/contracts/access/Ownable.sol\":1895:1913  _transferOwnership */\n      tag_217\n        /* \"https://github.com/OpenZeppelin/openzeppelin-contracts/blob/master/contracts/access/Ownable.sol\":1895:1925  _transferOwnership(address(0)) */\n      jump\t// in\n    tag_216:\n        /* \"https://github.com/OpenZeppelin/openzeppelin-contracts/blob/master/contracts/access/Ownable.sol\":1831:1932  function renounceOwnership() public virtual onlyOwner {... */\n      jump\t// out\n        /* \"contracts/voting-systemV2/votingV2.sol\":3435:3813  function adminStartProposalsSession() external onlyOwner{... */\n    tag_47:\n        /* \"https://github.com/OpenZeppelin/openzeppelin-contracts/blob/master/contracts/access/Ownable.sol\":1094:1107  _checkOwner() */\n      tag_219\n        /* \"https://github.com/OpenZeppelin/openzeppelin-contracts/blob/master/contracts/access/Ownable.sol\":1094:1105  _checkOwner */\n      tag_69\n        /* \"https://github.com/OpenZeppelin/openzeppelin-contracts/blob/master/contracts/access/Ownable.sol\":1094:1107  _checkOwner() */\n      jump\t// in\n    tag_219:\n        /* \"contracts/voting-systemV2/votingV2.sol\":3536:3568  WorkflowStatus.RegisteringVoters */\n      0x00\n        /* \"contracts/voting-systemV2/votingV2.sol\":3512:3568  currentVotingSession == WorkflowStatus.RegisteringVoters */\n      0x05\n      dup2\n      gt\n      iszero\n      tag_221\n      jumpi\n      tag_222\n      tag_73\n      jump\t// in\n    tag_222:\n    tag_221:\n        /* \"contracts/voting-systemV2/votingV2.sol\":3512:3532  currentVotingSession */\n      0x00\n      0x1a\n      swap1\n      sload\n      swap1\n      0x0100\n      exp\n      swap1\n      div\n      0xff\n      and\n        /* \"contracts/voting-systemV2/votingV2.sol\":3512:3568  currentVotingSession == WorkflowStatus.RegisteringVoters */\n      0x05\n      dup2\n      gt\n      iszero\n      tag_223\n      jumpi\n      tag_224\n      tag_73\n      jump\t// in\n    tag_224:\n    tag_223:\n      eq\n        /* \"contracts/voting-systemV2/votingV2.sol\":3504:3614  require(currentVotingSession == WorkflowStatus.RegisteringVoters, \"The registering voters is not opened yet.\") */\n      tag_225\n      jumpi\n      mload(0x40)\n      0x08c379a000000000000000000000000000000000000000000000000000000000\n      dup2\n      mstore\n      0x04\n      add\n      tag_226\n      swap1\n      tag_227\n      jump\t// in\n    tag_226:\n      mload(0x40)\n      dup1\n      swap2\n      sub\n      swap1\n      revert\n    tag_225:\n        /* \"contracts/voting-systemV2/votingV2.sol\":3656:3657  1 */\n      0x01\n        /* \"contracts/voting-systemV2/votingV2.sol\":3633:3653  voterRegisteredCount */\n      0x00\n      0x18\n      swap1\n      sload\n      swap1\n      0x0100\n      exp\n      swap1\n      div\n      0xffff\n      and\n        /* \"contracts/voting-systemV2/votingV2.sol\":3633:3657  voterRegisteredCount > 1 */\n      0xffff\n      and\n      gt\n        /* \"contracts/voting-systemV2/votingV2.sol\":3625:3726  require(voterRegisteredCount > 1, \"Need at least two registered voters to start a proposal session.\") */\n      tag_228\n      jumpi\n      mload(0x40)\n      0x08c379a000000000000000000000000000000000000000000000000000000000\n      dup2\n      mstore\n      0x04\n      add\n      tag_229\n      swap1\n      tag_230\n      jump\t// in\n    tag_229:\n      mload(0x40)\n      dup1\n      swap2\n      sub\n      swap1\n      revert\n    tag_228:\n        /* \"contracts/voting-systemV2/votingV2.sol\":3739:3805  _changeWorkflowStatus(WorkflowStatus.ProposalsRegistrationStarted) */\n      tag_231\n        /* \"contracts/voting-systemV2/votingV2.sol\":3761:3804  WorkflowStatus.ProposalsRegistrationStarted */\n      0x01\n        /* \"contracts/voting-systemV2/votingV2.sol\":3739:3760  _changeWorkflowStatus */\n      tag_83\n        /* \"contracts/voting-systemV2/votingV2.sol\":3739:3805  _changeWorkflowStatus(WorkflowStatus.ProposalsRegistrationStarted) */\n      jump\t// in\n    tag_231:\n        /* \"contracts/voting-systemV2/votingV2.sol\":3435:3813  function adminStartProposalsSession() external onlyOwner{... */\n      jump\t// out\n        /* \"https://github.com/OpenZeppelin/openzeppelin-contracts/blob/master/contracts/access/Ownable.sol\":1201:1286  function owner() public view virtual returns (address) {... */\n    tag_49:\n        /* \"https://github.com/OpenZeppelin/openzeppelin-contracts/blob/master/contracts/access/Ownable.sol\":1247:1254  address */\n      0x00\n        /* \"https://github.com/OpenZeppelin/openzeppelin-contracts/blob/master/contracts/access/Ownable.sol\":1273:1279  _owner */\n      dup1\n      0x00\n      swap1\n      sload\n      swap1\n      0x0100\n      exp\n      swap1\n      div\n      0xffffffffffffffffffffffffffffffffffffffff\n      and\n        /* \"https://github.com/OpenZeppelin/openzeppelin-contracts/blob/master/contracts/access/Ownable.sol\":1266:1279  return _owner */\n      swap1\n      pop\n        /* \"https://github.com/OpenZeppelin/openzeppelin-contracts/blob/master/contracts/access/Ownable.sol\":1201:1286  function owner() public view virtual returns (address) {... */\n      swap1\n      jump\t// out\n        /* \"contracts/voting-systemV2/votingV2.sol\":7723:7956  function getWinner() external view returns(Proposal memory) {... */\n    tag_53:\n        /* \"contracts/voting-systemV2/votingV2.sol\":7766:7781  Proposal memory */\n      tag_233\n      tag_117\n      jump\t// in\n    tag_233:\n        /* \"contracts/voting-systemV2/votingV2.sol\":7828:7855  WorkflowStatus.VotesTallied */\n      0x05\n        /* \"contracts/voting-systemV2/votingV2.sol\":7804:7855  currentVotingSession == WorkflowStatus.VotesTallied */\n      dup1\n      dup2\n      gt\n      iszero\n      tag_235\n      jumpi\n      tag_236\n      tag_73\n      jump\t// in\n    tag_236:\n    tag_235:\n        /* \"contracts/voting-systemV2/votingV2.sol\":7804:7824  currentVotingSession */\n      0x00\n      0x1a\n      swap1\n      sload\n      swap1\n      0x0100\n      exp\n      swap1\n      div\n      0xff\n      and\n        /* \"contracts/voting-systemV2/votingV2.sol\":7804:7855  currentVotingSession == WorkflowStatus.VotesTallied */\n      0x05\n      dup2\n      gt\n      iszero\n      tag_237\n      jumpi\n      tag_238\n      tag_73\n      jump\t// in\n    tag_238:\n    tag_237:\n      eq\n        /* \"contracts/voting-systemV2/votingV2.sol\":7796:7891  require(currentVotingSession == WorkflowStatus.VotesTallied, \"The vote count is not over yet.\") */\n      tag_239\n      jumpi\n      mload(0x40)\n      0x08c379a000000000000000000000000000000000000000000000000000000000\n      dup2\n      mstore\n      0x04\n      add\n      tag_240\n      swap1\n      tag_241\n      jump\t// in\n    tag_240:\n      mload(0x40)\n      dup1\n      swap2\n      sub\n      swap1\n      revert\n    tag_239:\n        /* \"contracts/voting-systemV2/votingV2.sol\":7915:7929  voterProposals */\n      0x01\n        /* \"contracts/voting-systemV2/votingV2.sol\":7930:7947  winningProposalId */\n      0x00\n      0x14\n      swap1\n      sload\n      swap1\n      0x0100\n      exp\n      swap1\n      div\n      0xffff\n      and\n        /* \"contracts/voting-systemV2/votingV2.sol\":7915:7948  voterProposals[winningProposalId] */\n      0xffff\n      and\n      dup2\n      sload\n      dup2\n      lt\n      tag_242\n      jumpi\n      tag_243\n      tag_104\n      jump\t// in\n    tag_243:\n    tag_242:\n      swap1\n      0x00\n      mstore\n      keccak256(0x00, 0x20)\n      swap1\n      0x02\n      mul\n      add\n        /* \"contracts/voting-systemV2/votingV2.sol\":7908:7948  return voterProposals[winningProposalId] */\n      mload(0x40)\n      dup1\n      0x40\n      add\n      0x40\n      mstore\n      swap1\n      dup2\n      0x00\n      dup3\n      add\n      dup1\n      sload\n      tag_245\n      swap1\n      tag_132\n      jump\t// in\n    tag_245:\n      dup1\n      0x1f\n      add\n      0x20\n      dup1\n      swap2\n      div\n      mul\n      0x20\n      add\n      mload(0x40)\n      swap1\n      dup2\n      add\n      0x40\n      mstore\n      dup1\n      swap3\n      swap2\n      swap1\n      dup2\n      dup2\n      mstore\n      0x20\n      add\n      dup3\n      dup1\n      sload\n      tag_246\n      swap1\n      tag_132\n      jump\t// in\n    tag_246:\n      dup1\n      iszero\n      tag_247\n      jumpi\n      dup1\n      0x1f\n      lt\n      tag_248\n      jumpi\n      0x0100\n      dup1\n      dup4\n      sload\n      div\n      mul\n      dup4\n      mstore\n      swap2\n      0x20\n      add\n      swap2\n      jump(tag_247)\n    tag_248:\n      dup3\n      add\n      swap2\n      swap1\n      0x00\n      mstore\n      keccak256(0x00, 0x20)\n      swap1\n    tag_249:\n      dup2\n      sload\n      dup2\n      mstore\n      swap1\n      0x01\n      add\n      swap1\n      0x20\n      add\n      dup1\n      dup4\n      gt\n      tag_249\n      jumpi\n      dup3\n      swap1\n      sub\n      0x1f\n      and\n      dup3\n      add\n      swap2\n    tag_247:\n      pop\n      pop\n      pop\n      pop\n      pop\n      dup2\n      mstore\n      0x20\n      add\n      0x01\n      dup3\n      add\n      0x00\n      swap1\n      sload\n      swap1\n      0x0100\n      exp\n      swap1\n      div\n      0xffff\n      and\n      0xffff\n      and\n      0xffff\n      and\n      dup2\n      mstore\n      pop\n      pop\n      swap1\n      pop\n        /* \"contracts/voting-systemV2/votingV2.sol\":7723:7956  function getWinner() external view returns(Proposal memory) {... */\n      swap1\n      jump\t// out\n        /* \"contracts/voting-systemV2/votingV2.sol\":2774:3242  function adminAddRegistered(address _addrVoter) external onlyOwner{... */\n    tag_57:\n        /* \"https://github.com/OpenZeppelin/openzeppelin-contracts/blob/master/contracts/access/Ownable.sol\":1094:1107  _checkOwner() */\n      tag_251\n        /* \"https://github.com/OpenZeppelin/openzeppelin-contracts/blob/master/contracts/access/Ownable.sol\":1094:1105  _checkOwner */\n      tag_69\n        /* \"https://github.com/OpenZeppelin/openzeppelin-contracts/blob/master/contracts/access/Ownable.sol\":1094:1107  _checkOwner() */\n      jump\t// in\n    tag_251:\n        /* \"contracts/voting-systemV2/votingV2.sol\":2885:2917  WorkflowStatus.RegisteringVoters */\n      0x00\n        /* \"contracts/voting-systemV2/votingV2.sol\":2861:2917  currentVotingSession == WorkflowStatus.RegisteringVoters */\n      0x05\n      dup2\n      gt\n      iszero\n      tag_253\n      jumpi\n      tag_254\n      tag_73\n      jump\t// in\n    tag_254:\n    tag_253:\n        /* \"contracts/voting-systemV2/votingV2.sol\":2861:2881  currentVotingSession */\n      0x00\n      0x1a\n      swap1\n      sload\n      swap1\n      0x0100\n      exp\n      swap1\n      div\n      0xff\n      and\n        /* \"contracts/voting-systemV2/votingV2.sol\":2861:2917  currentVotingSession == WorkflowStatus.RegisteringVoters */\n      0x05\n      dup2\n      gt\n      iszero\n      tag_255\n      jumpi\n      tag_256\n      tag_73\n      jump\t// in\n    tag_256:\n    tag_255:\n      eq\n        /* \"contracts/voting-systemV2/votingV2.sol\":2853:2963  require(currentVotingSession == WorkflowStatus.RegisteringVoters, \"The registering voters is not opened yet.\") */\n      tag_257\n      jumpi\n      mload(0x40)\n      0x08c379a000000000000000000000000000000000000000000000000000000000\n      dup2\n      mstore\n      0x04\n      add\n      tag_258\n      swap1\n      tag_227\n      jump\t// in\n    tag_258:\n      mload(0x40)\n      dup1\n      swap2\n      sub\n      swap1\n      revert\n    tag_257:\n        /* \"contracts/voting-systemV2/votingV2.sol\":2983:2989  voters */\n      0x03\n        /* \"contracts/voting-systemV2/votingV2.sol\":2983:3001  voters[_addrVoter] */\n      0x00\n        /* \"contracts/voting-systemV2/votingV2.sol\":2990:3000  _addrVoter */\n      dup3\n        /* \"contracts/voting-systemV2/votingV2.sol\":2983:3001  voters[_addrVoter] */\n      0xffffffffffffffffffffffffffffffffffffffff\n      and\n      0xffffffffffffffffffffffffffffffffffffffff\n      and\n      dup2\n      mstore\n      0x20\n      add\n      swap1\n      dup2\n      mstore\n      0x20\n      add\n      0x00\n      keccak256\n        /* \"contracts/voting-systemV2/votingV2.sol\":2983:3014  voters[_addrVoter].isRegistered */\n      0x00\n      add\n      0x00\n      swap1\n      sload\n      swap1\n      0x0100\n      exp\n      swap1\n      div\n      0xff\n      and\n        /* \"contracts/voting-systemV2/votingV2.sol\":2982:3014  !voters[_addrVoter].isRegistered */\n      iszero\n        /* \"contracts/voting-systemV2/votingV2.sol\":2974:3051  require(!voters[_addrVoter].isRegistered, \"The voter is already registered.\") */\n      tag_259\n      jumpi\n      mload(0x40)\n      0x08c379a000000000000000000000000000000000000000000000000000000000\n      dup2\n      mstore\n      0x04\n      add\n      tag_260\n      swap1\n      tag_261\n      jump\t// in\n    tag_260:\n      mload(0x40)\n      dup1\n      swap2\n      sub\n      swap1\n      revert\n    tag_259:\n        /* \"contracts/voting-systemV2/votingV2.sol\":3072:3086  voterAddresses */\n      0x02\n        /* \"contracts/voting-systemV2/votingV2.sol\":3092:3102  _addrVoter */\n      dup2\n        /* \"contracts/voting-systemV2/votingV2.sol\":3072:3103  voterAddresses.push(_addrVoter) */\n      swap1\n      dup1\n      0x01\n      dup2\n      sload\n      add\n      dup1\n      dup3\n      sstore\n      dup1\n      swap2\n      pop\n      pop\n      0x01\n      swap1\n      sub\n      swap1\n      0x00\n      mstore\n      keccak256(0x00, 0x20)\n      add\n      0x00\n      swap1\n      swap2\n      swap1\n      swap2\n      swap1\n      swap2\n      0x0100\n      exp\n      dup2\n      sload\n      dup2\n      0xffffffffffffffffffffffffffffffffffffffff\n      mul\n      not\n      and\n      swap1\n      dup4\n      0xffffffffffffffffffffffffffffffffffffffff\n      and\n      mul\n      or\n      swap1\n      sstore\n      pop\n        /* \"contracts/voting-systemV2/votingV2.sol\":3135:3156  Voter(true, false, 0) */\n      mload(0x40)\n      dup1\n      0x60\n      add\n      0x40\n      mstore\n      dup1\n        /* \"contracts/voting-systemV2/votingV2.sol\":3141:3145  true */\n      0x01\n        /* \"contracts/voting-systemV2/votingV2.sol\":3135:3156  Voter(true, false, 0) */\n      iszero\n      iszero\n      dup2\n      mstore\n      0x20\n      add\n        /* \"contracts/voting-systemV2/votingV2.sol\":3147:3152  false */\n      0x00\n        /* \"contracts/voting-systemV2/votingV2.sol\":3135:3156  Voter(true, false, 0) */\n      iszero\n      iszero\n      dup2\n      mstore\n      0x20\n      add\n        /* \"contracts/voting-systemV2/votingV2.sol\":3154:3155  0 */\n      0x00\n        /* \"contracts/voting-systemV2/votingV2.sol\":3135:3156  Voter(true, false, 0) */\n      0xffff\n      and\n      dup2\n      mstore\n      pop\n        /* \"contracts/voting-systemV2/votingV2.sol\":3114:3120  voters */\n      0x03\n        /* \"contracts/voting-systemV2/votingV2.sol\":3114:3132  voters[_addrVoter] */\n      0x00\n        /* \"contracts/voting-systemV2/votingV2.sol\":3121:3131  _addrVoter */\n      dup4\n        /* \"contracts/voting-systemV2/votingV2.sol\":3114:3132  voters[_addrVoter] */\n      0xffffffffffffffffffffffffffffffffffffffff\n      and\n      0xffffffffffffffffffffffffffffffffffffffff\n      and\n      dup2\n      mstore\n      0x20\n      add\n      swap1\n      dup2\n      mstore\n      0x20\n      add\n      0x00\n      keccak256\n        /* \"contracts/voting-systemV2/votingV2.sol\":3114:3156  voters[_addrVoter] = Voter(true, false, 0) */\n      0x00\n      dup3\n      add\n      mload\n      dup2\n      0x00\n      add\n      exp(0x0100, 0x00)\n      dup2\n      sload\n      dup2\n      0xff\n      mul\n      not\n      and\n      swap1\n      dup4\n      iszero\n      iszero\n      mul\n      or\n      swap1\n      sstore\n      pop\n      0x20\n      dup3\n      add\n      mload\n      dup2\n      0x00\n      add\n      exp(0x0100, 0x01)\n      dup2\n      sload\n      dup2\n      0xff\n      mul\n      not\n      and\n      swap1\n      dup4\n      iszero\n      iszero\n      mul\n      or\n      swap1\n      sstore\n      pop\n      0x40\n      dup3\n      add\n      mload\n      dup2\n      0x00\n      add\n      exp(0x0100, 0x02)\n      dup2\n      sload\n      dup2\n      0xffff\n      mul\n      not\n      and\n      swap1\n      dup4\n      0xffff\n      and\n      mul\n      or\n      swap1\n      sstore\n      pop\n      swap1\n      pop\n      pop\n        /* \"contracts/voting-systemV2/votingV2.sol\":3167:3187  voterRegisteredCount */\n      0x00\n      0x18\n        /* \"contracts/voting-systemV2/votingV2.sol\":3167:3189  voterRegisteredCount++ */\n      dup2\n      dup2\n      swap1\n      sload\n      swap1\n      0x0100\n      exp\n      swap1\n      div\n      0xffff\n      and\n      dup1\n      swap3\n      swap2\n      swap1\n      tag_263\n      swap1\n      tag_107\n      jump\t// in\n    tag_263:\n      swap2\n      swap1\n      0x0100\n      exp\n      dup2\n      sload\n      dup2\n      0xffff\n      mul\n      not\n      and\n      swap1\n      dup4\n      0xffff\n      and\n      mul\n      or\n      swap1\n      sstore\n      pop\n      pop\n        /* \"contracts/voting-systemV2/votingV2.sol\":3223:3233  _addrVoter */\n      dup1\n        /* \"contracts/voting-systemV2/votingV2.sol\":3207:3234  VoterRegistered(_addrVoter) */\n      0xffffffffffffffffffffffffffffffffffffffff\n      and\n      0xb6be2187d059cc2a55fe29e0e503b566e1e0f8c8780096e185429350acffd3dd\n      mload(0x40)\n      mload(0x40)\n      dup1\n      swap2\n      sub\n      swap1\n      log2\n        /* \"contracts/voting-systemV2/votingV2.sol\":2774:3242  function adminAddRegistered(address _addrVoter) external onlyOwner{... */\n      pop\n      jump\t// out\n        /* \"contracts/voting-systemV2/votingV2.sol\":4520:4786  function adminStartVotingSession() external onlyOwner{... */\n    tag_59:\n        /* \"https://github.com/OpenZeppelin/openzeppelin-contracts/blob/master/contracts/access/Ownable.sol\":1094:1107  _checkOwner() */\n      tag_265\n        /* \"https://github.com/OpenZeppelin/openzeppelin-contracts/blob/master/contracts/access/Ownable.sol\":1094:1105  _checkOwner */\n      tag_69\n        /* \"https://github.com/OpenZeppelin/openzeppelin-contracts/blob/master/contracts/access/Ownable.sol\":1094:1107  _checkOwner() */\n      jump\t// in\n    tag_265:\n        /* \"contracts/voting-systemV2/votingV2.sol\":4618:4659  WorkflowStatus.ProposalsRegistrationEnded */\n      0x02\n        /* \"contracts/voting-systemV2/votingV2.sol\":4594:4659  currentVotingSession == WorkflowStatus.ProposalsRegistrationEnded */\n      0x05\n      dup2\n      gt\n      iszero\n      tag_267\n      jumpi\n      tag_268\n      tag_73\n      jump\t// in\n    tag_268:\n    tag_267:\n        /* \"contracts/voting-systemV2/votingV2.sol\":4594:4614  currentVotingSession */\n      0x00\n      0x1a\n      swap1\n      sload\n      swap1\n      0x0100\n      exp\n      swap1\n      div\n      0xff\n      and\n        /* \"contracts/voting-systemV2/votingV2.sol\":4594:4659  currentVotingSession == WorkflowStatus.ProposalsRegistrationEnded */\n      0x05\n      dup2\n      gt\n      iszero\n      tag_269\n      jumpi\n      tag_270\n      tag_73\n      jump\t// in\n    tag_270:\n    tag_269:\n      eq\n        /* \"contracts/voting-systemV2/votingV2.sol\":4586:4707  require(currentVotingSession == WorkflowStatus.ProposalsRegistrationEnded, \"The proposal registration is not ended yet.\") */\n      tag_271\n      jumpi\n      mload(0x40)\n      0x08c379a000000000000000000000000000000000000000000000000000000000\n      dup2\n      mstore\n      0x04\n      add\n      tag_272\n      swap1\n      tag_273\n      jump\t// in\n    tag_272:\n      mload(0x40)\n      dup1\n      swap2\n      sub\n      swap1\n      revert\n    tag_271:\n        /* \"contracts/voting-systemV2/votingV2.sol\":4720:4778  _changeWorkflowStatus(WorkflowStatus.VotingSessionStarted) */\n      tag_274\n        /* \"contracts/voting-systemV2/votingV2.sol\":4742:4777  WorkflowStatus.VotingSessionStarted */\n      0x03\n        /* \"contracts/voting-systemV2/votingV2.sol\":4720:4741  _changeWorkflowStatus */\n      tag_83\n        /* \"contracts/voting-systemV2/votingV2.sol\":4720:4778  _changeWorkflowStatus(WorkflowStatus.VotingSessionStarted) */\n      jump\t// in\n    tag_274:\n        /* \"contracts/voting-systemV2/votingV2.sol\":4520:4786  function adminStartVotingSession() external onlyOwner{... */\n      jump\t// out\n        /* \"contracts/voting-systemV2/votingV2.sol\":4975:5328  function adminStopVotingSession() external onlyOwner{... */\n    tag_61:\n        /* \"https://github.com/OpenZeppelin/openzeppelin-contracts/blob/master/contracts/access/Ownable.sol\":1094:1107  _checkOwner() */\n      tag_276\n        /* \"https://github.com/OpenZeppelin/openzeppelin-contracts/blob/master/contracts/access/Ownable.sol\":1094:1105  _checkOwner */\n      tag_69\n        /* \"https://github.com/OpenZeppelin/openzeppelin-contracts/blob/master/contracts/access/Ownable.sol\":1094:1107  _checkOwner() */\n      jump\t// in\n    tag_276:\n        /* \"contracts/voting-systemV2/votingV2.sol\":5072:5107  WorkflowStatus.VotingSessionStarted */\n      0x03\n        /* \"contracts/voting-systemV2/votingV2.sol\":5048:5107  currentVotingSession == WorkflowStatus.VotingSessionStarted */\n      0x05\n      dup2\n      gt\n      iszero\n      tag_278\n      jumpi\n      tag_279\n      tag_73\n      jump\t// in\n    tag_279:\n    tag_278:\n        /* \"contracts/voting-systemV2/votingV2.sol\":5048:5068  currentVotingSession */\n      0x00\n      0x1a\n      swap1\n      sload\n      swap1\n      0x0100\n      exp\n      swap1\n      div\n      0xff\n      and\n        /* \"contracts/voting-systemV2/votingV2.sol\":5048:5107  currentVotingSession == WorkflowStatus.VotingSessionStarted */\n      0x05\n      dup2\n      gt\n      iszero\n      tag_280\n      jumpi\n      tag_281\n      tag_73\n      jump\t// in\n    tag_281:\n    tag_280:\n      eq\n        /* \"contracts/voting-systemV2/votingV2.sol\":5040:5150  require(currentVotingSession == WorkflowStatus.VotingSessionStarted, \"The voting session is not started yet.\") */\n      tag_282\n      jumpi\n      mload(0x40)\n      0x08c379a000000000000000000000000000000000000000000000000000000000\n      dup2\n      mstore\n      0x04\n      add\n      tag_283\n      swap1\n      tag_95\n      jump\t// in\n    tag_283:\n      mload(0x40)\n      dup1\n      swap2\n      sub\n      swap1\n      revert\n    tag_282:\n        /* \"contracts/voting-systemV2/votingV2.sol\":5182:5183  0 */\n      0x00\n        /* \"contracts/voting-systemV2/votingV2.sol\":5169:5179  votesCount */\n      dup1\n      0x16\n      swap1\n      sload\n      swap1\n      0x0100\n      exp\n      swap1\n      div\n      0xffff\n      and\n        /* \"contracts/voting-systemV2/votingV2.sol\":5169:5183  votesCount > 0 */\n      0xffff\n      and\n      gt\n        /* \"contracts/voting-systemV2/votingV2.sol\":5161:5251  require(votesCount > 0, \"Need at least one vote in a proprosal to stop a voting session.\") */\n      tag_284\n      jumpi\n      mload(0x40)\n      0x08c379a000000000000000000000000000000000000000000000000000000000\n      dup2\n      mstore\n      0x04\n      add\n      tag_285\n      swap1\n      tag_286\n      jump\t// in\n    tag_285:\n      mload(0x40)\n      dup1\n      swap2\n      sub\n      swap1\n      revert\n    tag_284:\n        /* \"contracts/voting-systemV2/votingV2.sol\":5264:5320  _changeWorkflowStatus(WorkflowStatus.VotingSessionEnded) */\n      tag_287\n        /* \"contracts/voting-systemV2/votingV2.sol\":5286:5319  WorkflowStatus.VotingSessionEnded */\n      0x04\n        /* \"contracts/voting-systemV2/votingV2.sol\":5264:5285  _changeWorkflowStatus */\n      tag_83\n        /* \"contracts/voting-systemV2/votingV2.sol\":5264:5320  _changeWorkflowStatus(WorkflowStatus.VotingSessionEnded) */\n      jump\t// in\n    tag_287:\n        /* \"contracts/voting-systemV2/votingV2.sol\":4975:5328  function adminStopVotingSession() external onlyOwner{... */\n      jump\t// out\n        /* \"contracts/voting-systemV2/votingV2.sol\":5581:5812  function adminTallyVotes() external onlyOwner{... */\n    tag_63:\n        /* \"https://github.com/OpenZeppelin/openzeppelin-contracts/blob/master/contracts/access/Ownable.sol\":1094:1107  _checkOwner() */\n      tag_289\n        /* \"https://github.com/OpenZeppelin/openzeppelin-contracts/blob/master/contracts/access/Ownable.sol\":1094:1105  _checkOwner */\n      tag_69\n        /* \"https://github.com/OpenZeppelin/openzeppelin-contracts/blob/master/contracts/access/Ownable.sol\":1094:1107  _checkOwner() */\n      jump\t// in\n    tag_289:\n        /* \"contracts/voting-systemV2/votingV2.sol\":5669:5702  WorkflowStatus.VotingSessionEnded */\n      0x04\n        /* \"contracts/voting-systemV2/votingV2.sol\":5645:5702  currentVotingSession == WorkflowStatus.VotingSessionEnded */\n      0x05\n      dup2\n      gt\n      iszero\n      tag_291\n      jumpi\n      tag_292\n      tag_73\n      jump\t// in\n    tag_292:\n    tag_291:\n        /* \"contracts/voting-systemV2/votingV2.sol\":5645:5665  currentVotingSession */\n      0x00\n      0x1a\n      swap1\n      sload\n      swap1\n      0x0100\n      exp\n      swap1\n      div\n      0xff\n      and\n        /* \"contracts/voting-systemV2/votingV2.sol\":5645:5702  currentVotingSession == WorkflowStatus.VotingSessionEnded */\n      0x05\n      dup2\n      gt\n      iszero\n      tag_293\n      jumpi\n      tag_294\n      tag_73\n      jump\t// in\n    tag_294:\n    tag_293:\n      eq\n        /* \"contracts/voting-systemV2/votingV2.sol\":5637:5743  require(currentVotingSession == WorkflowStatus.VotingSessionEnded, \"The voting session is not ended yet.\") */\n      tag_295\n      jumpi\n      mload(0x40)\n      0x08c379a000000000000000000000000000000000000000000000000000000000\n      dup2\n      mstore\n      0x04\n      add\n      tag_296\n      swap1\n      tag_297\n      jump\t// in\n    tag_296:\n      mload(0x40)\n      dup1\n      swap2\n      sub\n      swap1\n      revert\n    tag_295:\n        /* \"contracts/voting-systemV2/votingV2.sol\":5754:5804  _changeWorkflowStatus(WorkflowStatus.VotesTallied) */\n      tag_298\n        /* \"contracts/voting-systemV2/votingV2.sol\":5776:5803  WorkflowStatus.VotesTallied */\n      0x05\n        /* \"contracts/voting-systemV2/votingV2.sol\":5754:5775  _changeWorkflowStatus */\n      tag_83\n        /* \"contracts/voting-systemV2/votingV2.sol\":5754:5804  _changeWorkflowStatus(WorkflowStatus.VotesTallied) */\n      jump\t// in\n    tag_298:\n        /* \"contracts/voting-systemV2/votingV2.sol\":5581:5812  function adminTallyVotes() external onlyOwner{... */\n      jump\t// out\n        /* \"https://github.com/OpenZeppelin/openzeppelin-contracts/blob/master/contracts/access/Ownable.sol\":2081:2279  function transferOwnership(address newOwner) public virtual onlyOwner {... */\n    tag_66:\n        /* \"https://github.com/OpenZeppelin/openzeppelin-contracts/blob/master/contracts/access/Ownable.sol\":1094:1107  _checkOwner() */\n      tag_300\n        /* \"https://github.com/OpenZeppelin/openzeppelin-contracts/blob/master/contracts/access/Ownable.sol\":1094:1105  _checkOwner */\n      tag_69\n        /* \"https://github.com/OpenZeppelin/openzeppelin-contracts/blob/master/contracts/access/Ownable.sol\":1094:1107  _checkOwner() */\n      jump\t// in\n    tag_300:\n        /* \"https://github.com/OpenZeppelin/openzeppelin-contracts/blob/master/contracts/access/Ownable.sol\":2189:2190  0 */\n      0x00\n        /* \"https://github.com/OpenZeppelin/openzeppelin-contracts/blob/master/contracts/access/Ownable.sol\":2169:2191  newOwner != address(0) */\n      0xffffffffffffffffffffffffffffffffffffffff\n      and\n        /* \"https://github.com/OpenZeppelin/openzeppelin-contracts/blob/master/contracts/access/Ownable.sol\":2169:2177  newOwner */\n      dup2\n        /* \"https://github.com/OpenZeppelin/openzeppelin-contracts/blob/master/contracts/access/Ownable.sol\":2169:2191  newOwner != address(0) */\n      0xffffffffffffffffffffffffffffffffffffffff\n      and\n      sub\n        /* \"https://github.com/OpenZeppelin/openzeppelin-contracts/blob/master/contracts/access/Ownable.sol\":2161:2234  require(newOwner != address(0), \"Ownable: new owner is the zero address\") */\n      tag_302\n      jumpi\n      mload(0x40)\n      0x08c379a000000000000000000000000000000000000000000000000000000000\n      dup2\n      mstore\n      0x04\n      add\n      tag_303\n      swap1\n      tag_304\n      jump\t// in\n    tag_303:\n      mload(0x40)\n      dup1\n      swap2\n      sub\n      swap1\n      revert\n    tag_302:\n        /* \"https://github.com/OpenZeppelin/openzeppelin-contracts/blob/master/contracts/access/Ownable.sol\":2244:2272  _transferOwnership(newOwner) */\n      tag_305\n        /* \"https://github.com/OpenZeppelin/openzeppelin-contracts/blob/master/contracts/access/Ownable.sol\":2263:2271  newOwner */\n      dup2\n        /* \"https://github.com/OpenZeppelin/openzeppelin-contracts/blob/master/contracts/access/Ownable.sol\":2244:2262  _transferOwnership */\n      tag_217\n        /* \"https://github.com/OpenZeppelin/openzeppelin-contracts/blob/master/contracts/access/Ownable.sol\":2244:2272  _transferOwnership(newOwner) */\n      jump\t// in\n    tag_305:\n        /* \"https://github.com/OpenZeppelin/openzeppelin-contracts/blob/master/contracts/access/Ownable.sol\":2081:2279  function transferOwnership(address newOwner) public virtual onlyOwner {... */\n      pop\n      jump\t// out\n        /* \"https://github.com/OpenZeppelin/openzeppelin-contracts/blob/master/contracts/access/Ownable.sol\":1359:1489  function _checkOwner() internal view virtual {... */\n    tag_69:\n        /* \"https://github.com/OpenZeppelin/openzeppelin-contracts/blob/master/contracts/access/Ownable.sol\":1433:1445  _msgSender() */\n      tag_307\n        /* \"https://github.com/OpenZeppelin/openzeppelin-contracts/blob/master/contracts/access/Ownable.sol\":1433:1443  _msgSender */\n      tag_308\n        /* \"https://github.com/OpenZeppelin/openzeppelin-contracts/blob/master/contracts/access/Ownable.sol\":1433:1445  _msgSender() */\n      jump\t// in\n    tag_307:\n        /* \"https://github.com/OpenZeppelin/openzeppelin-contracts/blob/master/contracts/access/Ownable.sol\":1422:1445  owner() == _msgSender() */\n      0xffffffffffffffffffffffffffffffffffffffff\n      and\n        /* \"https://github.com/OpenZeppelin/openzeppelin-contracts/blob/master/contracts/access/Ownable.sol\":1422:1429  owner() */\n      tag_309\n        /* \"https://github.com/OpenZeppelin/openzeppelin-contracts/blob/master/contracts/access/Ownable.sol\":1422:1427  owner */\n      tag_49\n        /* \"https://github.com/OpenZeppelin/openzeppelin-contracts/blob/master/contracts/access/Ownable.sol\":1422:1429  owner() */\n      jump\t// in\n    tag_309:\n        /* \"https://github.com/OpenZeppelin/openzeppelin-contracts/blob/master/contracts/access/Ownable.sol\":1422:1445  owner() == _msgSender() */\n      0xffffffffffffffffffffffffffffffffffffffff\n      and\n      eq\n        /* \"https://github.com/OpenZeppelin/openzeppelin-contracts/blob/master/contracts/access/Ownable.sol\":1414:1482  require(owner() == _msgSender(), \"Ownable: caller is not the owner\") */\n      tag_310\n      jumpi\n      mload(0x40)\n      0x08c379a000000000000000000000000000000000000000000000000000000000\n      dup2\n      mstore\n      0x04\n      add\n      tag_311\n      swap1\n      tag_312\n      jump\t// in\n    tag_311:\n      mload(0x40)\n      dup1\n      swap2\n      sub\n      swap1\n      revert\n    tag_310:\n        /* \"https://github.com/OpenZeppelin/openzeppelin-contracts/blob/master/contracts/access/Ownable.sol\":1359:1489  function _checkOwner() internal view virtual {... */\n      jump\t// out\n        /* \"contracts/voting-systemV2/votingV2.sol\":1831:2088  function _changeWorkflowStatus(WorkflowStatus newStatus) private {... */\n    tag_83:\n        /* \"contracts/voting-systemV2/votingV2.sol\":1909:1938  WorkflowStatus previousStatus */\n      0x00\n        /* \"contracts/voting-systemV2/votingV2.sol\":1941:1961  currentVotingSession */\n      dup1\n      0x1a\n      swap1\n      sload\n      swap1\n      0x0100\n      exp\n      swap1\n      div\n      0xff\n      and\n        /* \"contracts/voting-systemV2/votingV2.sol\":1909:1961  WorkflowStatus previousStatus = currentVotingSession */\n      swap1\n      pop\n        /* \"contracts/voting-systemV2/votingV2.sol\":1995:2004  newStatus */\n      dup2\n        /* \"contracts/voting-systemV2/votingV2.sol\":1972:1992  currentVotingSession */\n      0x00\n      0x1a\n        /* \"contracts/voting-systemV2/votingV2.sol\":1972:2004  currentVotingSession = newStatus */\n      0x0100\n      exp\n      dup2\n      sload\n      dup2\n      0xff\n      mul\n      not\n      and\n      swap1\n      dup4\n      0x05\n      dup2\n      gt\n      iszero\n      tag_314\n      jumpi\n      tag_315\n      tag_73\n      jump\t// in\n    tag_315:\n    tag_314:\n      mul\n      or\n      swap1\n      sstore\n      pop\n        /* \"contracts/voting-systemV2/votingV2.sol\":2022:2080  WorkflowStatusChange(previousStatus, currentVotingSession) */\n      0x0a97a4ee45751e2abf3e4fc8946939630b11b371ea8ae39ccdc3056e98f5cc3f\n        /* \"contracts/voting-systemV2/votingV2.sol\":2043:2057  previousStatus */\n      dup2\n        /* \"contracts/voting-systemV2/votingV2.sol\":2059:2079  currentVotingSession */\n      0x00\n      0x1a\n      swap1\n      sload\n      swap1\n      0x0100\n      exp\n      swap1\n      div\n      0xff\n      and\n        /* \"contracts/voting-systemV2/votingV2.sol\":2022:2080  WorkflowStatusChange(previousStatus, currentVotingSession) */\n      mload(0x40)\n      tag_316\n      swap3\n      swap2\n      swap1\n      tag_317\n      jump\t// in\n    tag_316:\n      mload(0x40)\n      dup1\n      swap2\n      sub\n      swap1\n      log1\n        /* \"contracts/voting-systemV2/votingV2.sol\":1896:2088  {... */\n      pop\n        /* \"contracts/voting-systemV2/votingV2.sol\":1831:2088  function _changeWorkflowStatus(WorkflowStatus newStatus) private {... */\n      pop\n      jump\t// out\n        /* \"https://github.com/OpenZeppelin/openzeppelin-contracts/blob/master/contracts/access/Ownable.sol\":2433:2620  function _transferOwnership(address newOwner) internal virtual {... */\n    tag_217:\n        /* \"https://github.com/OpenZeppelin/openzeppelin-contracts/blob/master/contracts/access/Ownable.sol\":2506:2522  address oldOwner */\n      0x00\n        /* \"https://github.com/OpenZeppelin/openzeppelin-contracts/blob/master/contracts/access/Ownable.sol\":2525:2531  _owner */\n      dup1\n      0x00\n      swap1\n      sload\n      swap1\n      0x0100\n      exp\n      swap1\n      div\n      0xffffffffffffffffffffffffffffffffffffffff\n      and\n        /* \"https://github.com/OpenZeppelin/openzeppelin-contracts/blob/master/contracts/access/Ownable.sol\":2506:2531  address oldOwner = _owner */\n      swap1\n      pop\n        /* \"https://github.com/OpenZeppelin/openzeppelin-contracts/blob/master/contracts/access/Ownable.sol\":2550:2558  newOwner */\n      dup2\n        /* \"https://github.com/OpenZeppelin/openzeppelin-contracts/blob/master/contracts/access/Ownable.sol\":2541:2547  _owner */\n      0x00\n      dup1\n        /* \"https://github.com/OpenZeppelin/openzeppelin-contracts/blob/master/contracts/access/Ownable.sol\":2541:2558  _owner = newOwner */\n      0x0100\n      exp\n      dup2\n      sload\n      dup2\n      0xffffffffffffffffffffffffffffffffffffffff\n      mul\n      not\n      and\n      swap1\n      dup4\n      0xffffffffffffffffffffffffffffffffffffffff\n      and\n      mul\n      or\n      swap1\n      sstore\n      pop\n        /* \"https://github.com/OpenZeppelin/openzeppelin-contracts/blob/master/contracts/access/Ownable.sol\":2604:2612  newOwner */\n      dup2\n        /* \"https://github.com/OpenZeppelin/openzeppelin-contracts/blob/master/contracts/access/Ownable.sol\":2573:2613  OwnershipTransferred(oldOwner, newOwner) */\n      0xffffffffffffffffffffffffffffffffffffffff\n      and\n        /* \"https://github.com/OpenZeppelin/openzeppelin-contracts/blob/master/contracts/access/Ownable.sol\":2594:2602  oldOwner */\n      dup2\n        /* \"https://github.com/OpenZeppelin/openzeppelin-contracts/blob/master/contracts/access/Ownable.sol\":2573:2613  OwnershipTransferred(oldOwner, newOwner) */\n      0xffffffffffffffffffffffffffffffffffffffff\n      and\n      0x8be0079c531659141344cd1fd0a4f28419497f9722a3daafe3b4186f6b6457e0\n      mload(0x40)\n      mload(0x40)\n      dup1\n      swap2\n      sub\n      swap1\n      log3\n        /* \"https://github.com/OpenZeppelin/openzeppelin-contracts/blob/master/contracts/access/Ownable.sol\":2496:2620  {... */\n      pop\n        /* \"https://github.com/OpenZeppelin/openzeppelin-contracts/blob/master/contracts/access/Ownable.sol\":2433:2620  function _transferOwnership(address newOwner) internal virtual {... */\n      pop\n      jump\t// out\n        /* \"https://github.com/OpenZeppelin/openzeppelin-contracts/blob/master/contracts/utils/Context.sol\":640:736  function _msgSender() internal view virtual returns (address) {... */\n    tag_308:\n        /* \"https://github.com/OpenZeppelin/openzeppelin-contracts/blob/master/contracts/utils/Context.sol\":693:700  address */\n      0x00\n        /* \"https://github.com/OpenZeppelin/openzeppelin-contracts/blob/master/contracts/utils/Context.sol\":719:729  msg.sender */\n      caller\n        /* \"https://github.com/OpenZeppelin/openzeppelin-contracts/blob/master/contracts/utils/Context.sol\":712:729  return msg.sender */\n      swap1\n      pop\n        /* \"https://github.com/OpenZeppelin/openzeppelin-contracts/blob/master/contracts/utils/Context.sol\":640:736  function _msgSender() internal view virtual returns (address) {... */\n      swap1\n      jump\t// out\n    tag_117:\n      mload(0x40)\n      dup1\n      0x40\n      add\n      0x40\n      mstore\n      dup1\n      0x60\n      dup2\n      mstore\n      0x20\n      add\n      and(0xffff, 0x00)\n      dup2\n      mstore\n      pop\n      swap1\n      jump\t// out\n    tag_154:\n      pop\n      dup1\n      sload\n      0x00\n      dup3\n      sstore\n      swap1\n      0x00\n      mstore\n      keccak256(0x00, 0x20)\n      swap1\n      dup2\n      add\n      swap1\n      tag_321\n      swap2\n      swap1\n      tag_322\n      jump\t// in\n    tag_321:\n      pop\n      jump\t// out\n    tag_160:\n      pop\n      dup1\n      sload\n      0x00\n      dup3\n      sstore\n      0x02\n      mul\n      swap1\n      0x00\n      mstore\n      keccak256(0x00, 0x20)\n      swap1\n      dup2\n      add\n      swap1\n      tag_324\n      swap2\n      swap1\n      tag_325\n      jump\t// in\n    tag_324:\n      pop\n      jump\t// out\n    tag_162:\n      pop\n      dup1\n      sload\n      0x00\n      dup3\n      sstore\n      swap1\n      0x00\n      mstore\n      keccak256(0x00, 0x20)\n      swap1\n      dup2\n      add\n      swap1\n      tag_327\n      swap2\n      swap1\n      tag_322\n      jump\t// in\n    tag_327:\n      pop\n      jump\t// out\n    tag_322:\n    tag_328:\n      dup1\n      dup3\n      gt\n      iszero\n      tag_329\n      jumpi\n      0x00\n      dup2\n      0x00\n      swap1\n      sstore\n      pop\n      0x01\n      add\n      jump(tag_328)\n    tag_329:\n      pop\n      swap1\n      jump\t// out\n    tag_325:\n    tag_330:\n      dup1\n      dup3\n      gt\n      iszero\n      tag_331\n      jumpi\n      0x00\n      dup1\n      dup3\n      add\n      0x00\n      tag_332\n      swap2\n      swap1\n      tag_333\n      jump\t// in\n    tag_332:\n      0x01\n      dup3\n      add\n      exp(0x0100, 0x00)\n      dup2\n      sload\n      swap1\n      0xffff\n      mul\n      not\n      and\n      swap1\n      sstore\n      pop\n      0x02\n      add\n      jump(tag_330)\n    tag_331:\n      pop\n      swap1\n      jump\t// out\n    tag_333:\n      pop\n      dup1\n      sload\n      tag_334\n      swap1\n      tag_132\n      jump\t// in\n    tag_334:\n      0x00\n      dup3\n      sstore\n      dup1\n      0x1f\n      lt\n      tag_336\n      jumpi\n      pop\n      jump(tag_335)\n    tag_336:\n      0x1f\n      add\n      0x20\n      swap1\n      div\n      swap1\n      0x00\n      mstore\n      keccak256(0x00, 0x20)\n      swap1\n      dup2\n      add\n      swap1\n      tag_337\n      swap2\n      swap1\n      tag_322\n      jump\t// in\n    tag_337:\n    tag_335:\n      pop\n      jump\t// out\n        /* \"#utility.yul\":88:205   */\n    tag_339:\n        /* \"#utility.yul\":197:198   */\n      0x00\n        /* \"#utility.yul\":194:195   */\n      dup1\n        /* \"#utility.yul\":187:199   */\n      revert\n        /* \"#utility.yul\":211:328   */\n    tag_340:\n        /* \"#utility.yul\":320:321   */\n      0x00\n        /* \"#utility.yul\":317:318   */\n      dup1\n        /* \"#utility.yul\":310:322   */\n      revert\n        /* \"#utility.yul\":334:423   */\n    tag_341:\n        /* \"#utility.yul\":370:377   */\n      0x00\n        /* \"#utility.yul\":410:416   */\n      0xffff\n        /* \"#utility.yul\":403:408   */\n      dup3\n        /* \"#utility.yul\":399:417   */\n      and\n        /* \"#utility.yul\":388:417   */\n      swap1\n      pop\n        /* \"#utility.yul\":334:423   */\n      swap2\n      swap1\n      pop\n      jump\t// out\n        /* \"#utility.yul\":429:549   */\n    tag_342:\n        /* \"#utility.yul\":501:524   */\n      tag_434\n        /* \"#utility.yul\":518:523   */\n      dup2\n        /* \"#utility.yul\":501:524   */\n      tag_341\n      jump\t// in\n    tag_434:\n        /* \"#utility.yul\":494:499   */\n      dup2\n        /* \"#utility.yul\":491:525   */\n      eq\n        /* \"#utility.yul\":481:543   */\n      tag_435\n      jumpi\n        /* \"#utility.yul\":539:540   */\n      0x00\n        /* \"#utility.yul\":536:537   */\n      dup1\n        /* \"#utility.yul\":529:541   */\n      revert\n        /* \"#utility.yul\":481:543   */\n    tag_435:\n        /* \"#utility.yul\":429:549   */\n      pop\n      jump\t// out\n        /* \"#utility.yul\":555:692   */\n    tag_343:\n        /* \"#utility.yul\":600:605   */\n      0x00\n        /* \"#utility.yul\":638:644   */\n      dup2\n        /* \"#utility.yul\":625:645   */\n      calldataload\n        /* \"#utility.yul\":616:645   */\n      swap1\n      pop\n        /* \"#utility.yul\":654:686   */\n      tag_437\n        /* \"#utility.yul\":680:685   */\n      dup2\n        /* \"#utility.yul\":654:686   */\n      tag_342\n      jump\t// in\n    tag_437:\n        /* \"#utility.yul\":555:692   */\n      swap3\n      swap2\n      pop\n      pop\n      jump\t// out\n        /* \"#utility.yul\":698:1025   */\n    tag_25:\n        /* \"#utility.yul\":756:762   */\n      0x00\n        /* \"#utility.yul\":805:807   */\n      0x20\n        /* \"#utility.yul\":793:802   */\n      dup3\n        /* \"#utility.yul\":784:791   */\n      dup5\n        /* \"#utility.yul\":780:803   */\n      sub\n        /* \"#utility.yul\":776:808   */\n      slt\n        /* \"#utility.yul\":773:892   */\n      iszero\n      tag_439\n      jumpi\n        /* \"#utility.yul\":811:890   */\n      tag_440\n      tag_339\n      jump\t// in\n    tag_440:\n        /* \"#utility.yul\":773:892   */\n    tag_439:\n        /* \"#utility.yul\":931:932   */\n      0x00\n        /* \"#utility.yul\":956:1008   */\n      tag_441\n        /* \"#utility.yul\":1000:1007   */\n      dup5\n        /* \"#utility.yul\":991:997   */\n      dup3\n        /* \"#utility.yul\":980:989   */\n      dup6\n        /* \"#utility.yul\":976:998   */\n      add\n        /* \"#utility.yul\":956:1008   */\n      tag_343\n      jump\t// in\n    tag_441:\n        /* \"#utility.yul\":946:1008   */\n      swap2\n      pop\n        /* \"#utility.yul\":902:1018   */\n      pop\n        /* \"#utility.yul\":698:1025   */\n      swap3\n      swap2\n      pop\n      pop\n      jump\t// out\n        /* \"#utility.yul\":1031:1157   */\n    tag_344:\n        /* \"#utility.yul\":1068:1075   */\n      0x00\n        /* \"#utility.yul\":1108:1150   */\n      0xffffffffffffffffffffffffffffffffffffffff\n        /* \"#utility.yul\":1101:1106   */\n      dup3\n        /* \"#utility.yul\":1097:1151   */\n      and\n        /* \"#utility.yul\":1086:1151   */\n      swap1\n      pop\n        /* \"#utility.yul\":1031:1157   */\n      swap2\n      swap1\n      pop\n      jump\t// out\n        /* \"#utility.yul\":1163:1259   */\n    tag_345:\n        /* \"#utility.yul\":1200:1207   */\n      0x00\n        /* \"#utility.yul\":1229:1253   */\n      tag_444\n        /* \"#utility.yul\":1247:1252   */\n      dup3\n        /* \"#utility.yul\":1229:1253   */\n      tag_344\n      jump\t// in\n    tag_444:\n        /* \"#utility.yul\":1218:1253   */\n      swap1\n      pop\n        /* \"#utility.yul\":1163:1259   */\n      swap2\n      swap1\n      pop\n      jump\t// out\n        /* \"#utility.yul\":1265:1387   */\n    tag_346:\n        /* \"#utility.yul\":1338:1362   */\n      tag_446\n        /* \"#utility.yul\":1356:1361   */\n      dup2\n        /* \"#utility.yul\":1338:1362   */\n      tag_345\n      jump\t// in\n    tag_446:\n        /* \"#utility.yul\":1331:1336   */\n      dup2\n        /* \"#utility.yul\":1328:1363   */\n      eq\n        /* \"#utility.yul\":1318:1381   */\n      tag_447\n      jumpi\n        /* \"#utility.yul\":1377:1378   */\n      0x00\n        /* \"#utility.yul\":1374:1375   */\n      dup1\n        /* \"#utility.yul\":1367:1379   */\n      revert\n        /* \"#utility.yul\":1318:1381   */\n    tag_447:\n        /* \"#utility.yul\":1265:1387   */\n      pop\n      jump\t// out\n        /* \"#utility.yul\":1393:1532   */\n    tag_347:\n        /* \"#utility.yul\":1439:1444   */\n      0x00\n        /* \"#utility.yul\":1477:1483   */\n      dup2\n        /* \"#utility.yul\":1464:1484   */\n      calldataload\n        /* \"#utility.yul\":1455:1484   */\n      swap1\n      pop\n        /* \"#utility.yul\":1493:1526   */\n      tag_449\n        /* \"#utility.yul\":1520:1525   */\n      dup2\n        /* \"#utility.yul\":1493:1526   */\n      tag_346\n      jump\t// in\n    tag_449:\n        /* \"#utility.yul\":1393:1532   */\n      swap3\n      swap2\n      pop\n      pop\n      jump\t// out\n        /* \"#utility.yul\":1538:1867   */\n    tag_29:\n        /* \"#utility.yul\":1597:1603   */\n      0x00\n        /* \"#utility.yul\":1646:1648   */\n      0x20\n        /* \"#utility.yul\":1634:1643   */\n      dup3\n        /* \"#utility.yul\":1625:1632   */\n      dup5\n        /* \"#utility.yul\":1621:1644   */\n      sub\n        /* \"#utility.yul\":1617:1649   */\n      slt\n        /* \"#utility.yul\":1614:1733   */\n      iszero\n      tag_451\n      jumpi\n        /* \"#utility.yul\":1652:1731   */\n      tag_452\n      tag_339\n      jump\t// in\n    tag_452:\n        /* \"#utility.yul\":1614:1733   */\n    tag_451:\n        /* \"#utility.yul\":1772:1773   */\n      0x00\n        /* \"#utility.yul\":1797:1850   */\n      tag_453\n        /* \"#utility.yul\":1842:1849   */\n      dup5\n        /* \"#utility.yul\":1833:1839   */\n      dup3\n        /* \"#utility.yul\":1822:1831   */\n      dup6\n        /* \"#utility.yul\":1818:1840   */\n      add\n        /* \"#utility.yul\":1797:1850   */\n      tag_347\n      jump\t// in\n    tag_453:\n        /* \"#utility.yul\":1787:1850   */\n      swap2\n      pop\n        /* \"#utility.yul\":1743:1860   */\n      pop\n        /* \"#utility.yul\":1538:1867   */\n      swap3\n      swap2\n      pop\n      pop\n      jump\t// out\n        /* \"#utility.yul\":1873:1972   */\n    tag_348:\n        /* \"#utility.yul\":1925:1931   */\n      0x00\n        /* \"#utility.yul\":1959:1964   */\n      dup2\n        /* \"#utility.yul\":1953:1965   */\n      mload\n        /* \"#utility.yul\":1943:1965   */\n      swap1\n      pop\n        /* \"#utility.yul\":1873:1972   */\n      swap2\n      swap1\n      pop\n      jump\t// out\n        /* \"#utility.yul\":1978:2137   */\n    tag_349:\n        /* \"#utility.yul\":2052:2063   */\n      0x00\n        /* \"#utility.yul\":2086:2092   */\n      dup3\n        /* \"#utility.yul\":2081:2084   */\n      dup3\n        /* \"#utility.yul\":2074:2093   */\n      mstore\n        /* \"#utility.yul\":2126:2130   */\n      0x20\n        /* \"#utility.yul\":2121:2124   */\n      dup3\n        /* \"#utility.yul\":2117:2131   */\n      add\n        /* \"#utility.yul\":2102:2131   */\n      swap1\n      pop\n        /* \"#utility.yul\":1978:2137   */\n      swap3\n      swap2\n      pop\n      pop\n      jump\t// out\n        /* \"#utility.yul\":2143:2389   */\n    tag_350:\n        /* \"#utility.yul\":2224:2225   */\n      0x00\n        /* \"#utility.yul\":2234:2347   */\n    tag_457:\n        /* \"#utility.yul\":2248:2254   */\n      dup4\n        /* \"#utility.yul\":2245:2246   */\n      dup2\n        /* \"#utility.yul\":2242:2255   */\n      lt\n        /* \"#utility.yul\":2234:2347   */\n      iszero\n      tag_459\n      jumpi\n        /* \"#utility.yul\":2333:2334   */\n      dup1\n        /* \"#utility.yul\":2328:2331   */\n      dup3\n        /* \"#utility.yul\":2324:2335   */\n      add\n        /* \"#utility.yul\":2318:2336   */\n      mload\n        /* \"#utility.yul\":2314:2315   */\n      dup2\n        /* \"#utility.yul\":2309:2312   */\n      dup5\n        /* \"#utility.yul\":2305:2316   */\n      add\n        /* \"#utility.yul\":2298:2337   */\n      mstore\n        /* \"#utility.yul\":2270:2272   */\n      0x20\n        /* \"#utility.yul\":2267:2268   */\n      dup2\n        /* \"#utility.yul\":2263:2273   */\n      add\n        /* \"#utility.yul\":2258:2273   */\n      swap1\n      pop\n        /* \"#utility.yul\":2234:2347   */\n      jump(tag_457)\n    tag_459:\n        /* \"#utility.yul\":2381:2382   */\n      0x00\n        /* \"#utility.yul\":2372:2378   */\n      dup5\n        /* \"#utility.yul\":2367:2370   */\n      dup5\n        /* \"#utility.yul\":2363:2379   */\n      add\n        /* \"#utility.yul\":2356:2383   */\n      mstore\n        /* \"#utility.yul\":2205:2389   */\n      pop\n        /* \"#utility.yul\":2143:2389   */\n      pop\n      pop\n      pop\n      jump\t// out\n        /* \"#utility.yul\":2395:2497   */\n    tag_351:\n        /* \"#utility.yul\":2436:2442   */\n      0x00\n        /* \"#utility.yul\":2487:2489   */\n      0x1f\n        /* \"#utility.yul\":2483:2490   */\n      not\n        /* \"#utility.yul\":2478:2480   */\n      0x1f\n        /* \"#utility.yul\":2471:2476   */\n      dup4\n        /* \"#utility.yul\":2467:2481   */\n      add\n        /* \"#utility.yul\":2463:2491   */\n      and\n        /* \"#utility.yul\":2453:2491   */\n      swap1\n      pop\n        /* \"#utility.yul\":2395:2497   */\n      swap2\n      swap1\n      pop\n      jump\t// out\n        /* \"#utility.yul\":2503:2860   */\n    tag_352:\n        /* \"#utility.yul\":2581:2584   */\n      0x00\n        /* \"#utility.yul\":2609:2648   */\n      tag_462\n        /* \"#utility.yul\":2642:2647   */\n      dup3\n        /* \"#utility.yul\":2609:2648   */\n      tag_348\n      jump\t// in\n    tag_462:\n        /* \"#utility.yul\":2664:2725   */\n      tag_463\n        /* \"#utility.yul\":2718:2724   */\n      dup2\n        /* \"#utility.yul\":2713:2716   */\n      dup6\n        /* \"#utility.yul\":2664:2725   */\n      tag_349\n      jump\t// in\n    tag_463:\n        /* \"#utility.yul\":2657:2725   */\n      swap4\n      pop\n        /* \"#utility.yul\":2734:2799   */\n      tag_464\n        /* \"#utility.yul\":2792:2798   */\n      dup2\n        /* \"#utility.yul\":2787:2790   */\n      dup6\n        /* \"#utility.yul\":2780:2784   */\n      0x20\n        /* \"#utility.yul\":2773:2778   */\n      dup7\n        /* \"#utility.yul\":2769:2785   */\n      add\n        /* \"#utility.yul\":2734:2799   */\n      tag_350\n      jump\t// in\n    tag_464:\n        /* \"#utility.yul\":2824:2853   */\n      tag_465\n        /* \"#utility.yul\":2846:2852   */\n      dup2\n        /* \"#utility.yul\":2824:2853   */\n      tag_351\n      jump\t// in\n    tag_465:\n        /* \"#utility.yul\":2819:2822   */\n      dup5\n        /* \"#utility.yul\":2815:2854   */\n      add\n        /* \"#utility.yul\":2808:2854   */\n      swap2\n      pop\n        /* \"#utility.yul\":2585:2860   */\n      pop\n        /* \"#utility.yul\":2503:2860   */\n      swap3\n      swap2\n      pop\n      pop\n      jump\t// out\n        /* \"#utility.yul\":2866:2971   */\n    tag_353:\n        /* \"#utility.yul\":2941:2964   */\n      tag_467\n        /* \"#utility.yul\":2958:2963   */\n      dup2\n        /* \"#utility.yul\":2941:2964   */\n      tag_341\n      jump\t// in\n    tag_467:\n        /* \"#utility.yul\":2936:2939   */\n      dup3\n        /* \"#utility.yul\":2929:2965   */\n      mstore\n        /* \"#utility.yul\":2866:2971   */\n      pop\n      pop\n      jump\t// out\n        /* \"#utility.yul\":3037:3651   */\n    tag_354:\n        /* \"#utility.yul\":3154:3157   */\n      0x00\n        /* \"#utility.yul\":3190:3194   */\n      0x40\n        /* \"#utility.yul\":3185:3188   */\n      dup4\n        /* \"#utility.yul\":3181:3195   */\n      add\n        /* \"#utility.yul\":3284:3288   */\n      0x00\n        /* \"#utility.yul\":3277:3282   */\n      dup4\n        /* \"#utility.yul\":3273:3289   */\n      add\n        /* \"#utility.yul\":3267:3290   */\n      mload\n        /* \"#utility.yul\":3337:3340   */\n      dup5\n        /* \"#utility.yul\":3331:3335   */\n      dup3\n        /* \"#utility.yul\":3327:3341   */\n      sub\n        /* \"#utility.yul\":3320:3324   */\n      0x00\n        /* \"#utility.yul\":3315:3318   */\n      dup7\n        /* \"#utility.yul\":3311:3325   */\n      add\n        /* \"#utility.yul\":3304:3342   */\n      mstore\n        /* \"#utility.yul\":3363:3436   */\n      tag_469\n        /* \"#utility.yul\":3431:3435   */\n      dup3\n        /* \"#utility.yul\":3417:3429   */\n      dup3\n        /* \"#utility.yul\":3363:3436   */\n      tag_352\n      jump\t// in\n    tag_469:\n        /* \"#utility.yul\":3355:3436   */\n      swap2\n      pop\n        /* \"#utility.yul\":3205:3447   */\n      pop\n        /* \"#utility.yul\":3534:3538   */\n      0x20\n        /* \"#utility.yul\":3527:3532   */\n      dup4\n        /* \"#utility.yul\":3523:3539   */\n      add\n        /* \"#utility.yul\":3517:3540   */\n      mload\n        /* \"#utility.yul\":3553:3614   */\n      tag_470\n        /* \"#utility.yul\":3608:3612   */\n      0x20\n        /* \"#utility.yul\":3603:3606   */\n      dup7\n        /* \"#utility.yul\":3599:3613   */\n      add\n        /* \"#utility.yul\":3585:3597   */\n      dup3\n        /* \"#utility.yul\":3553:3614   */\n      tag_353\n      jump\t// in\n    tag_470:\n        /* \"#utility.yul\":3457:3624   */\n      pop\n        /* \"#utility.yul\":3641:3645   */\n      dup1\n        /* \"#utility.yul\":3634:3645   */\n      swap2\n      pop\n        /* \"#utility.yul\":3159:3651   */\n      pop\n        /* \"#utility.yul\":3037:3651   */\n      swap3\n      swap2\n      pop\n      pop\n      jump\t// out\n        /* \"#utility.yul\":3657:4026   */\n    tag_32:\n        /* \"#utility.yul\":3798:3802   */\n      0x00\n        /* \"#utility.yul\":3836:3838   */\n      0x20\n        /* \"#utility.yul\":3825:3834   */\n      dup3\n        /* \"#utility.yul\":3821:3839   */\n      add\n        /* \"#utility.yul\":3813:3839   */\n      swap1\n      pop\n        /* \"#utility.yul\":3885:3894   */\n      dup2\n        /* \"#utility.yul\":3879:3883   */\n      dup2\n        /* \"#utility.yul\":3875:3895   */\n      sub\n        /* \"#utility.yul\":3871:3872   */\n      0x00\n        /* \"#utility.yul\":3860:3869   */\n      dup4\n        /* \"#utility.yul\":3856:3873   */\n      add\n        /* \"#utility.yul\":3849:3896   */\n      mstore\n        /* \"#utility.yul\":3913:4019   */\n      tag_472\n        /* \"#utility.yul\":4014:4018   */\n      dup2\n        /* \"#utility.yul\":4005:4011   */\n      dup5\n        /* \"#utility.yul\":3913:4019   */\n      tag_354\n      jump\t// in\n    tag_472:\n        /* \"#utility.yul\":3905:4019   */\n      swap1\n      pop\n        /* \"#utility.yul\":3657:4026   */\n      swap3\n      swap2\n      pop\n      pop\n      jump\t// out\n        /* \"#utility.yul\":4032:4149   */\n    tag_355:\n        /* \"#utility.yul\":4141:4142   */\n      0x00\n        /* \"#utility.yul\":4138:4139   */\n      dup1\n        /* \"#utility.yul\":4131:4143   */\n      revert\n        /* \"#utility.yul\":4155:4272   */\n    tag_356:\n        /* \"#utility.yul\":4264:4265   */\n      0x00\n        /* \"#utility.yul\":4261:4262   */\n      dup1\n        /* \"#utility.yul\":4254:4266   */\n      revert\n        /* \"#utility.yul\":4278:4395   */\n    tag_357:\n        /* \"#utility.yul\":4387:4388   */\n      0x00\n        /* \"#utility.yul\":4384:4385   */\n      dup1\n        /* \"#utility.yul\":4377:4389   */\n      revert\n        /* \"#utility.yul\":4415:4968   */\n    tag_358:\n        /* \"#utility.yul\":4473:4481   */\n      0x00\n        /* \"#utility.yul\":4483:4489   */\n      dup1\n        /* \"#utility.yul\":4533:4536   */\n      dup4\n        /* \"#utility.yul\":4526:4530   */\n      0x1f\n        /* \"#utility.yul\":4518:4524   */\n      dup5\n        /* \"#utility.yul\":4514:4531   */\n      add\n        /* \"#utility.yul\":4510:4537   */\n      slt\n        /* \"#utility.yul\":4500:4622   */\n      tag_477\n      jumpi\n        /* \"#utility.yul\":4541:4620   */\n      tag_478\n      tag_355\n      jump\t// in\n    tag_478:\n        /* \"#utility.yul\":4500:4622   */\n    tag_477:\n        /* \"#utility.yul\":4654:4660   */\n      dup3\n        /* \"#utility.yul\":4641:4661   */\n      calldataload\n        /* \"#utility.yul\":4631:4661   */\n      swap1\n      pop\n        /* \"#utility.yul\":4684:4702   */\n      0xffffffffffffffff\n        /* \"#utility.yul\":4676:4682   */\n      dup2\n        /* \"#utility.yul\":4673:4703   */\n      gt\n        /* \"#utility.yul\":4670:4787   */\n      iszero\n      tag_479\n      jumpi\n        /* \"#utility.yul\":4706:4785   */\n      tag_480\n      tag_356\n      jump\t// in\n    tag_480:\n        /* \"#utility.yul\":4670:4787   */\n    tag_479:\n        /* \"#utility.yul\":4820:4824   */\n      0x20\n        /* \"#utility.yul\":4812:4818   */\n      dup4\n        /* \"#utility.yul\":4808:4825   */\n      add\n        /* \"#utility.yul\":4796:4825   */\n      swap2\n      pop\n        /* \"#utility.yul\":4874:4877   */\n      dup4\n        /* \"#utility.yul\":4866:4870   */\n      0x01\n        /* \"#utility.yul\":4858:4864   */\n      dup3\n        /* \"#utility.yul\":4854:4871   */\n      mul\n        /* \"#utility.yul\":4844:4852   */\n      dup4\n        /* \"#utility.yul\":4840:4872   */\n      add\n        /* \"#utility.yul\":4837:4878   */\n      gt\n        /* \"#utility.yul\":4834:4962   */\n      iszero\n      tag_481\n      jumpi\n        /* \"#utility.yul\":4881:4960   */\n      tag_482\n      tag_357\n      jump\t// in\n    tag_482:\n        /* \"#utility.yul\":4834:4962   */\n    tag_481:\n        /* \"#utility.yul\":4415:4968   */\n      swap3\n      pop\n      swap3\n      swap1\n      pop\n      jump\t// out\n        /* \"#utility.yul\":4974:5503   */\n    tag_37:\n        /* \"#utility.yul\":5045:5051   */\n      0x00\n        /* \"#utility.yul\":5053:5059   */\n      dup1\n        /* \"#utility.yul\":5102:5104   */\n      0x20\n        /* \"#utility.yul\":5090:5099   */\n      dup4\n        /* \"#utility.yul\":5081:5088   */\n      dup6\n        /* \"#utility.yul\":5077:5100   */\n      sub\n        /* \"#utility.yul\":5073:5105   */\n      slt\n        /* \"#utility.yul\":5070:5189   */\n      iszero\n      tag_484\n      jumpi\n        /* \"#utility.yul\":5108:5187   */\n      tag_485\n      tag_339\n      jump\t// in\n    tag_485:\n        /* \"#utility.yul\":5070:5189   */\n    tag_484:\n        /* \"#utility.yul\":5256:5257   */\n      0x00\n        /* \"#utility.yul\":5245:5254   */\n      dup4\n        /* \"#utility.yul\":5241:5258   */\n      add\n        /* \"#utility.yul\":5228:5259   */\n      calldataload\n        /* \"#utility.yul\":5286:5304   */\n      0xffffffffffffffff\n        /* \"#utility.yul\":5278:5284   */\n      dup2\n        /* \"#utility.yul\":5275:5305   */\n      gt\n        /* \"#utility.yul\":5272:5389   */\n      iszero\n      tag_486\n      jumpi\n        /* \"#utility.yul\":5308:5387   */\n      tag_487\n      tag_340\n      jump\t// in\n    tag_487:\n        /* \"#utility.yul\":5272:5389   */\n    tag_486:\n        /* \"#utility.yul\":5421:5486   */\n      tag_488\n        /* \"#utility.yul\":5478:5485   */\n      dup6\n        /* \"#utility.yul\":5469:5475   */\n      dup3\n        /* \"#utility.yul\":5458:5467   */\n      dup7\n        /* \"#utility.yul\":5454:5476   */\n      add\n        /* \"#utility.yul\":5421:5486   */\n      tag_358\n      jump\t// in\n    tag_488:\n        /* \"#utility.yul\":5403:5486   */\n      swap3\n      pop\n      swap3\n      pop\n        /* \"#utility.yul\":5199:5496   */\n      pop\n        /* \"#utility.yul\":4974:5503   */\n      swap3\n      pop\n      swap3\n      swap1\n      pop\n      jump\t// out\n        /* \"#utility.yul\":5509:5647   */\n    tag_359:\n        /* \"#utility.yul\":5600:5606   */\n      0x00\n        /* \"#utility.yul\":5634:5639   */\n      dup2\n        /* \"#utility.yul\":5628:5640   */\n      mload\n        /* \"#utility.yul\":5618:5640   */\n      swap1\n      pop\n        /* \"#utility.yul\":5509:5647   */\n      swap2\n      swap1\n      pop\n      jump\t// out\n        /* \"#utility.yul\":5653:5861   */\n    tag_360:\n        /* \"#utility.yul\":5776:5787   */\n      0x00\n        /* \"#utility.yul\":5810:5816   */\n      dup3\n        /* \"#utility.yul\":5805:5808   */\n      dup3\n        /* \"#utility.yul\":5798:5817   */\n      mstore\n        /* \"#utility.yul\":5850:5854   */\n      0x20\n        /* \"#utility.yul\":5845:5848   */\n      dup3\n        /* \"#utility.yul\":5841:5855   */\n      add\n        /* \"#utility.yul\":5826:5855   */\n      swap1\n      pop\n        /* \"#utility.yul\":5653:5861   */\n      swap3\n      swap2\n      pop\n      pop\n      jump\t// out\n        /* \"#utility.yul\":5867:6023   */\n    tag_361:\n        /* \"#utility.yul\":5958:5962   */\n      0x00\n        /* \"#utility.yul\":5981:5984   */\n      dup2\n        /* \"#utility.yul\":5973:5984   */\n      swap1\n      pop\n        /* \"#utility.yul\":6011:6015   */\n      0x20\n        /* \"#utility.yul\":6006:6009   */\n      dup3\n        /* \"#utility.yul\":6002:6016   */\n      add\n        /* \"#utility.yul\":5994:6016   */\n      swap1\n      pop\n        /* \"#utility.yul\":5867:6023   */\n      swap2\n      swap1\n      pop\n      jump\t// out\n        /* \"#utility.yul\":6089:6693   */\n    tag_362:\n        /* \"#utility.yul\":6196:6199   */\n      0x00\n        /* \"#utility.yul\":6232:6236   */\n      0x40\n        /* \"#utility.yul\":6227:6230   */\n      dup4\n        /* \"#utility.yul\":6223:6237   */\n      add\n        /* \"#utility.yul\":6326:6330   */\n      0x00\n        /* \"#utility.yul\":6319:6324   */\n      dup4\n        /* \"#utility.yul\":6315:6331   */\n      add\n        /* \"#utility.yul\":6309:6332   */\n      mload\n        /* \"#utility.yul\":6379:6382   */\n      dup5\n        /* \"#utility.yul\":6373:6377   */\n      dup3\n        /* \"#utility.yul\":6369:6383   */\n      sub\n        /* \"#utility.yul\":6362:6366   */\n      0x00\n        /* \"#utility.yul\":6357:6360   */\n      dup7\n        /* \"#utility.yul\":6353:6367   */\n      add\n        /* \"#utility.yul\":6346:6384   */\n      mstore\n        /* \"#utility.yul\":6405:6478   */\n      tag_493\n        /* \"#utility.yul\":6473:6477   */\n      dup3\n        /* \"#utility.yul\":6459:6471   */\n      dup3\n        /* \"#utility.yul\":6405:6478   */\n      tag_352\n      jump\t// in\n    tag_493:\n        /* \"#utility.yul\":6397:6478   */\n      swap2\n      pop\n        /* \"#utility.yul\":6247:6489   */\n      pop\n        /* \"#utility.yul\":6576:6580   */\n      0x20\n        /* \"#utility.yul\":6569:6574   */\n      dup4\n        /* \"#utility.yul\":6565:6581   */\n      add\n        /* \"#utility.yul\":6559:6582   */\n      mload\n        /* \"#utility.yul\":6595:6656   */\n      tag_494\n        /* \"#utility.yul\":6650:6654   */\n      0x20\n        /* \"#utility.yul\":6645:6648   */\n      dup7\n        /* \"#utility.yul\":6641:6655   */\n      add\n        /* \"#utility.yul\":6627:6639   */\n      dup3\n        /* \"#utility.yul\":6595:6656   */\n      tag_353\n      jump\t// in\n    tag_494:\n        /* \"#utility.yul\":6499:6666   */\n      pop\n        /* \"#utility.yul\":6683:6687   */\n      dup1\n        /* \"#utility.yul\":6676:6687   */\n      swap2\n      pop\n        /* \"#utility.yul\":6201:6693   */\n      pop\n        /* \"#utility.yul\":6089:6693   */\n      swap3\n      swap2\n      pop\n      pop\n      jump\t// out\n        /* \"#utility.yul\":6699:6951   */\n    tag_363:\n        /* \"#utility.yul\":6816:6826   */\n      0x00\n        /* \"#utility.yul\":6851:6945   */\n      tag_496\n        /* \"#utility.yul\":6941:6944   */\n      dup4\n        /* \"#utility.yul\":6933:6939   */\n      dup4\n        /* \"#utility.yul\":6851:6945   */\n      tag_362\n      jump\t// in\n    tag_496:\n        /* \"#utility.yul\":6837:6945   */\n      swap1\n      pop\n        /* \"#utility.yul\":6699:6951   */\n      swap3\n      swap2\n      pop\n      pop\n      jump\t// out\n        /* \"#utility.yul\":6957:7094   */\n    tag_364:\n        /* \"#utility.yul\":7051:7055   */\n      0x00\n        /* \"#utility.yul\":7083:7087   */\n      0x20\n        /* \"#utility.yul\":7078:7081   */\n      dup3\n        /* \"#utility.yul\":7074:7088   */\n      add\n        /* \"#utility.yul\":7066:7088   */\n      swap1\n      pop\n        /* \"#utility.yul\":6957:7094   */\n      swap2\n      swap1\n      pop\n      jump\t// out\n        /* \"#utility.yul\":7164:8267   */\n    tag_365:\n        /* \"#utility.yul\":7331:7334   */\n      0x00\n        /* \"#utility.yul\":7360:7438   */\n      tag_499\n        /* \"#utility.yul\":7432:7437   */\n      dup3\n        /* \"#utility.yul\":7360:7438   */\n      tag_359\n      jump\t// in\n    tag_499:\n        /* \"#utility.yul\":7454:7564   */\n      tag_500\n        /* \"#utility.yul\":7557:7563   */\n      dup2\n        /* \"#utility.yul\":7552:7555   */\n      dup6\n        /* \"#utility.yul\":7454:7564   */\n      tag_360\n      jump\t// in\n    tag_500:\n        /* \"#utility.yul\":7447:7564   */\n      swap4\n      pop\n        /* \"#utility.yul\":7590:7593   */\n      dup4\n        /* \"#utility.yul\":7635:7639   */\n      0x20\n        /* \"#utility.yul\":7627:7633   */\n      dup3\n        /* \"#utility.yul\":7623:7640   */\n      mul\n        /* \"#utility.yul\":7618:7621   */\n      dup6\n        /* \"#utility.yul\":7614:7641   */\n      add\n        /* \"#utility.yul\":7665:7745   */\n      tag_501\n        /* \"#utility.yul\":7739:7744   */\n      dup6\n        /* \"#utility.yul\":7665:7745   */\n      tag_361\n      jump\t// in\n    tag_501:\n        /* \"#utility.yul\":7768:7775   */\n      dup1\n        /* \"#utility.yul\":7799:7800   */\n      0x00\n        /* \"#utility.yul\":7784:8222   */\n    tag_502:\n        /* \"#utility.yul\":7809:7815   */\n      dup6\n        /* \"#utility.yul\":7806:7807   */\n      dup2\n        /* \"#utility.yul\":7803:7816   */\n      lt\n        /* \"#utility.yul\":7784:8222   */\n      iszero\n      tag_504\n      jumpi\n        /* \"#utility.yul\":7880:7889   */\n      dup5\n        /* \"#utility.yul\":7874:7878   */\n      dup5\n        /* \"#utility.yul\":7870:7890   */\n      sub\n        /* \"#utility.yul\":7865:7868   */\n      dup10\n        /* \"#utility.yul\":7858:7891   */\n      mstore\n        /* \"#utility.yul\":7931:7937   */\n      dup2\n        /* \"#utility.yul\":7925:7938   */\n      mload\n        /* \"#utility.yul\":7959:8071   */\n      tag_505\n        /* \"#utility.yul\":8066:8070   */\n      dup6\n        /* \"#utility.yul\":8051:8064   */\n      dup3\n        /* \"#utility.yul\":7959:8071   */\n      tag_363\n      jump\t// in\n    tag_505:\n        /* \"#utility.yul\":7951:8071   */\n      swap5\n      pop\n        /* \"#utility.yul\":8094:8178   */\n      tag_506\n        /* \"#utility.yul\":8171:8177   */\n      dup4\n        /* \"#utility.yul\":8094:8178   */\n      tag_364\n      jump\t// in\n    tag_506:\n        /* \"#utility.yul\":8084:8178   */\n      swap3\n      pop\n        /* \"#utility.yul\":8207:8211   */\n      0x20\n        /* \"#utility.yul\":8202:8205   */\n      dup11\n        /* \"#utility.yul\":8198:8212   */\n      add\n        /* \"#utility.yul\":8191:8212   */\n      swap10\n      pop\n        /* \"#utility.yul\":7844:8222   */\n      pop\n        /* \"#utility.yul\":7831:7832   */\n      0x01\n        /* \"#utility.yul\":7828:7829   */\n      dup2\n        /* \"#utility.yul\":7824:7833   */\n      add\n        /* \"#utility.yul\":7819:7833   */\n      swap1\n      pop\n        /* \"#utility.yul\":7784:8222   */\n      jump(tag_502)\n    tag_504:\n        /* \"#utility.yul\":7788:7802   */\n      pop\n        /* \"#utility.yul\":8238:8242   */\n      dup3\n        /* \"#utility.yul\":8231:8242   */\n      swap8\n      pop\n        /* \"#utility.yul\":8258:8261   */\n      dup8\n        /* \"#utility.yul\":8251:8261   */\n      swap6\n      pop\n        /* \"#utility.yul\":7336:8267   */\n      pop\n      pop\n      pop\n      pop\n      pop\n        /* \"#utility.yul\":7164:8267   */\n      swap3\n      swap2\n      pop\n      pop\n      jump\t// out\n        /* \"#utility.yul\":8273:8742   */\n    tag_43:\n        /* \"#utility.yul\":8464:8468   */\n      0x00\n        /* \"#utility.yul\":8502:8504   */\n      0x20\n        /* \"#utility.yul\":8491:8500   */\n      dup3\n        /* \"#utility.yul\":8487:8505   */\n      add\n        /* \"#utility.yul\":8479:8505   */\n      swap1\n      pop\n        /* \"#utility.yul\":8551:8560   */\n      dup2\n        /* \"#utility.yul\":8545:8549   */\n      dup2\n        /* \"#utility.yul\":8541:8561   */\n      sub\n        /* \"#utility.yul\":8537:8538   */\n      0x00\n        /* \"#utility.yul\":8526:8535   */\n      dup4\n        /* \"#utility.yul\":8522:8539   */\n      add\n        /* \"#utility.yul\":8515:8562   */\n      mstore\n        /* \"#utility.yul\":8579:8735   */\n      tag_508\n        /* \"#utility.yul\":8730:8734   */\n      dup2\n        /* \"#utility.yul\":8721:8727   */\n      dup5\n        /* \"#utility.yul\":8579:8735   */\n      tag_365\n      jump\t// in\n    tag_508:\n        /* \"#utility.yul\":8571:8735   */\n      swap1\n      pop\n        /* \"#utility.yul\":8273:8742   */\n      swap3\n      swap2\n      pop\n      pop\n      jump\t// out\n        /* \"#utility.yul\":8748:8866   */\n    tag_366:\n        /* \"#utility.yul\":8835:8859   */\n      tag_510\n        /* \"#utility.yul\":8853:8858   */\n      dup2\n        /* \"#utility.yul\":8835:8859   */\n      tag_345\n      jump\t// in\n    tag_510:\n        /* \"#utility.yul\":8830:8833   */\n      dup3\n        /* \"#utility.yul\":8823:8860   */\n      mstore\n        /* \"#utility.yul\":8748:8866   */\n      pop\n      pop\n      jump\t// out\n        /* \"#utility.yul\":8872:9094   */\n    tag_51:\n        /* \"#utility.yul\":8965:8969   */\n      0x00\n        /* \"#utility.yul\":9003:9005   */\n      0x20\n        /* \"#utility.yul\":8992:9001   */\n      dup3\n        /* \"#utility.yul\":8988:9006   */\n      add\n        /* \"#utility.yul\":8980:9006   */\n      swap1\n      pop\n        /* \"#utility.yul\":9016:9087   */\n      tag_512\n        /* \"#utility.yul\":9084:9085   */\n      0x00\n        /* \"#utility.yul\":9073:9082   */\n      dup4\n        /* \"#utility.yul\":9069:9086   */\n      add\n        /* \"#utility.yul\":9060:9066   */\n      dup5\n        /* \"#utility.yul\":9016:9087   */\n      tag_366\n      jump\t// in\n    tag_512:\n        /* \"#utility.yul\":8872:9094   */\n      swap3\n      swap2\n      pop\n      pop\n      jump\t// out\n        /* \"#utility.yul\":9100:9280   */\n    tag_73:\n        /* \"#utility.yul\":9148:9225   */\n      0x4e487b7100000000000000000000000000000000000000000000000000000000\n        /* \"#utility.yul\":9145:9146   */\n      0x00\n        /* \"#utility.yul\":9138:9226   */\n      mstore\n        /* \"#utility.yul\":9245:9249   */\n      0x21\n        /* \"#utility.yul\":9242:9243   */\n      0x04\n        /* \"#utility.yul\":9235:9250   */\n      mstore\n        /* \"#utility.yul\":9269:9273   */\n      0x24\n        /* \"#utility.yul\":9266:9267   */\n      0x00\n        /* \"#utility.yul\":9259:9274   */\n      revert\n        /* \"#utility.yul\":9286:9455   */\n    tag_367:\n        /* \"#utility.yul\":9370:9381   */\n      0x00\n        /* \"#utility.yul\":9404:9410   */\n      dup3\n        /* \"#utility.yul\":9399:9402   */\n      dup3\n        /* \"#utility.yul\":9392:9411   */\n      mstore\n        /* \"#utility.yul\":9444:9448   */\n      0x20\n        /* \"#utility.yul\":9439:9442   */\n      dup3\n        /* \"#utility.yul\":9435:9449   */\n      add\n        /* \"#utility.yul\":9420:9449   */\n      swap1\n      pop\n        /* \"#utility.yul\":9286:9455   */\n      swap3\n      swap2\n      pop\n      pop\n      jump\t// out\n        /* \"#utility.yul\":9461:9693   */\n    tag_368:\n        /* \"#utility.yul\":9601:9635   */\n      0x5468652070726f706f73616c20726567697374726174696f6e206973206e6f74\n        /* \"#utility.yul\":9597:9598   */\n      0x00\n        /* \"#utility.yul\":9589:9595   */\n      dup3\n        /* \"#utility.yul\":9585:9599   */\n      add\n        /* \"#utility.yul\":9578:9636   */\n      mstore\n        /* \"#utility.yul\":9670:9685   */\n      0x2073746172746564207965742e00000000000000000000000000000000000000\n        /* \"#utility.yul\":9665:9667   */\n      0x20\n        /* \"#utility.yul\":9657:9663   */\n      dup3\n        /* \"#utility.yul\":9653:9668   */\n      add\n        /* \"#utility.yul\":9646:9686   */\n      mstore\n        /* \"#utility.yul\":9461:9693   */\n      pop\n      jump\t// out\n        /* \"#utility.yul\":9699:10065   */\n    tag_369:\n        /* \"#utility.yul\":9841:9844   */\n      0x00\n        /* \"#utility.yul\":9862:9929   */\n      tag_517\n        /* \"#utility.yul\":9926:9928   */\n      0x2d\n        /* \"#utility.yul\":9921:9924   */\n      dup4\n        /* \"#utility.yul\":9862:9929   */\n      tag_367\n      jump\t// in\n    tag_517:\n        /* \"#utility.yul\":9855:9929   */\n      swap2\n      pop\n        /* \"#utility.yul\":9938:10031   */\n      tag_518\n        /* \"#utility.yul\":10027:10030   */\n      dup3\n        /* \"#utility.yul\":9938:10031   */\n      tag_368\n      jump\t// in\n    tag_518:\n        /* \"#utility.yul\":10056:10058   */\n      0x40\n        /* \"#utility.yul\":10051:10054   */\n      dup3\n        /* \"#utility.yul\":10047:10059   */\n      add\n        /* \"#utility.yul\":10040:10059   */\n      swap1\n      pop\n        /* \"#utility.yul\":9699:10065   */\n      swap2\n      swap1\n      pop\n      jump\t// out\n        /* \"#utility.yul\":10071:10490   */\n    tag_78:\n        /* \"#utility.yul\":10237:10241   */\n      0x00\n        /* \"#utility.yul\":10275:10277   */\n      0x20\n        /* \"#utility.yul\":10264:10273   */\n      dup3\n        /* \"#utility.yul\":10260:10278   */\n      add\n        /* \"#utility.yul\":10252:10278   */\n      swap1\n      pop\n        /* \"#utility.yul\":10324:10333   */\n      dup2\n        /* \"#utility.yul\":10318:10322   */\n      dup2\n        /* \"#utility.yul\":10314:10334   */\n      sub\n        /* \"#utility.yul\":10310:10311   */\n      0x00\n        /* \"#utility.yul\":10299:10308   */\n      dup4\n        /* \"#utility.yul\":10295:10312   */\n      add\n        /* \"#utility.yul\":10288:10335   */\n      mstore\n        /* \"#utility.yul\":10352:10483   */\n      tag_520\n        /* \"#utility.yul\":10478:10482   */\n      dup2\n        /* \"#utility.yul\":10352:10483   */\n      tag_369\n      jump\t// in\n    tag_520:\n        /* \"#utility.yul\":10344:10483   */\n      swap1\n      pop\n        /* \"#utility.yul\":10071:10490   */\n      swap2\n      swap1\n      pop\n      jump\t// out\n        /* \"#utility.yul\":10496:10738   */\n    tag_370:\n        /* \"#utility.yul\":10636:10670   */\n      0x4e656564206174206c656173742074776f2070726f706f73616c7320746f2073\n        /* \"#utility.yul\":10632:10633   */\n      0x00\n        /* \"#utility.yul\":10624:10630   */\n      dup3\n        /* \"#utility.yul\":10620:10634   */\n      add\n        /* \"#utility.yul\":10613:10671   */\n      mstore\n        /* \"#utility.yul\":10705:10730   */\n      0x746f7020612070726f706f73616c2073657373696f6e2e000000000000000000\n        /* \"#utility.yul\":10700:10702   */\n      0x20\n        /* \"#utility.yul\":10692:10698   */\n      dup3\n        /* \"#utility.yul\":10688:10703   */\n      add\n        /* \"#utility.yul\":10681:10731   */\n      mstore\n        /* \"#utility.yul\":10496:10738   */\n      pop\n      jump\t// out\n        /* \"#utility.yul\":10744:11110   */\n    tag_371:\n        /* \"#utility.yul\":10886:10889   */\n      0x00\n        /* \"#utility.yul\":10907:10974   */\n      tag_523\n        /* \"#utility.yul\":10971:10973   */\n      0x37\n        /* \"#utility.yul\":10966:10969   */\n      dup4\n        /* \"#utility.yul\":10907:10974   */\n      tag_367\n      jump\t// in\n    tag_523:\n        /* \"#utility.yul\":10900:10974   */\n      swap2\n      pop\n        /* \"#utility.yul\":10983:11076   */\n      tag_524\n        /* \"#utility.yul\":11072:11075   */\n      dup3\n        /* \"#utility.yul\":10983:11076   */\n      tag_370\n      jump\t// in\n    tag_524:\n        /* \"#utility.yul\":11101:11103   */\n      0x40\n        /* \"#utility.yul\":11096:11099   */\n      dup3\n        /* \"#utility.yul\":11092:11104   */\n      add\n        /* \"#utility.yul\":11085:11104   */\n      swap1\n      pop\n        /* \"#utility.yul\":10744:11110   */\n      swap2\n      swap1\n      pop\n      jump\t// out\n        /* \"#utility.yul\":11116:11535   */\n    tag_81:\n        /* \"#utility.yul\":11282:11286   */\n      0x00\n        /* \"#utility.yul\":11320:11322   */\n      0x20\n        /* \"#utility.yul\":11309:11318   */\n      dup3\n        /* \"#utility.yul\":11305:11323   */\n      add\n        /* \"#utility.yul\":11297:11323   */\n      swap1\n      pop\n        /* \"#utility.yul\":11369:11378   */\n      dup2\n        /* \"#utility.yul\":11363:11367   */\n      dup2\n        /* \"#utility.yul\":11359:11379   */\n      sub\n        /* \"#utility.yul\":11355:11356   */\n      0x00\n        /* \"#utility.yul\":11344:11353   */\n      dup4\n        /* \"#utility.yul\":11340:11357   */\n      add\n        /* \"#utility.yul\":11333:11380   */\n      mstore\n        /* \"#utility.yul\":11397:11528   */\n      tag_526\n        /* \"#utility.yul\":11523:11527   */\n      dup2\n        /* \"#utility.yul\":11397:11528   */\n      tag_371\n      jump\t// in\n    tag_526:\n        /* \"#utility.yul\":11389:11528   */\n      swap1\n      pop\n        /* \"#utility.yul\":11116:11535   */\n      swap2\n      swap1\n      pop\n      jump\t// out\n        /* \"#utility.yul\":11541:11722   */\n    tag_372:\n        /* \"#utility.yul\":11681:11714   */\n      0x596f75206d757374206265207265676973746572656420646f20746869732e00\n        /* \"#utility.yul\":11677:11678   */\n      0x00\n        /* \"#utility.yul\":11669:11675   */\n      dup3\n        /* \"#utility.yul\":11665:11679   */\n      add\n        /* \"#utility.yul\":11658:11715   */\n      mstore\n        /* \"#utility.yul\":11541:11722   */\n      pop\n      jump\t// out\n        /* \"#utility.yul\":11728:12094   */\n    tag_373:\n        /* \"#utility.yul\":11870:11873   */\n      0x00\n        /* \"#utility.yul\":11891:11958   */\n      tag_529\n        /* \"#utility.yul\":11955:11957   */\n      0x1f\n        /* \"#utility.yul\":11950:11953   */\n      dup4\n        /* \"#utility.yul\":11891:11958   */\n      tag_367\n      jump\t// in\n    tag_529:\n        /* \"#utility.yul\":11884:11958   */\n      swap2\n      pop\n        /* \"#utility.yul\":11967:12060   */\n      tag_530\n        /* \"#utility.yul\":12056:12059   */\n      dup3\n        /* \"#utility.yul\":11967:12060   */\n      tag_372\n      jump\t// in\n    tag_530:\n        /* \"#utility.yul\":12085:12087   */\n      0x20\n        /* \"#utility.yul\":12080:12083   */\n      dup3\n        /* \"#utility.yul\":12076:12088   */\n      add\n        /* \"#utility.yul\":12069:12088   */\n      swap1\n      pop\n        /* \"#utility.yul\":11728:12094   */\n      swap2\n      swap1\n      pop\n      jump\t// out\n        /* \"#utility.yul\":12100:12519   */\n    tag_87:\n        /* \"#utility.yul\":12266:12270   */\n      0x00\n        /* \"#utility.yul\":12304:12306   */\n      0x20\n        /* \"#utility.yul\":12293:12302   */\n      dup3\n        /* \"#utility.yul\":12289:12307   */\n      add\n        /* \"#utility.yul\":12281:12307   */\n      swap1\n      pop\n        /* \"#utility.yul\":12353:12362   */\n      dup2\n        /* \"#utility.yul\":12347:12351   */\n      dup2\n        /* \"#utility.yul\":12343:12363   */\n      sub\n        /* \"#utility.yul\":12339:12340   */\n      0x00\n        /* \"#utility.yul\":12328:12337   */\n      dup4\n        /* \"#utility.yul\":12324:12341   */\n      add\n        /* \"#utility.yul\":12317:12364   */\n      mstore\n        /* \"#utility.yul\":12381:12512   */\n      tag_532\n        /* \"#utility.yul\":12507:12511   */\n      dup2\n        /* \"#utility.yul\":12381:12512   */\n      tag_373\n      jump\t// in\n    tag_532:\n        /* \"#utility.yul\":12373:12512   */\n      swap1\n      pop\n        /* \"#utility.yul\":12100:12519   */\n      swap2\n      swap1\n      pop\n      jump\t// out\n        /* \"#utility.yul\":12525:12750   */\n    tag_374:\n        /* \"#utility.yul\":12665:12699   */\n      0x54686520766f74696e672073657373696f6e206973206e6f7420737461727465\n        /* \"#utility.yul\":12661:12662   */\n      0x00\n        /* \"#utility.yul\":12653:12659   */\n      dup3\n        /* \"#utility.yul\":12649:12663   */\n      add\n        /* \"#utility.yul\":12642:12700   */\n      mstore\n        /* \"#utility.yul\":12734:12742   */\n      0x64207965742e0000000000000000000000000000000000000000000000000000\n        /* \"#utility.yul\":12729:12731   */\n      0x20\n        /* \"#utility.yul\":12721:12727   */\n      dup3\n        /* \"#utility.yul\":12717:12732   */\n      add\n        /* \"#utility.yul\":12710:12743   */\n      mstore\n        /* \"#utility.yul\":12525:12750   */\n      pop\n      jump\t// out\n        /* \"#utility.yul\":12756:13122   */\n    tag_375:\n        /* \"#utility.yul\":12898:12901   */\n      0x00\n        /* \"#utility.yul\":12919:12986   */\n      tag_535\n        /* \"#utility.yul\":12983:12985   */\n      0x26\n        /* \"#utility.yul\":12978:12981   */\n      dup4\n        /* \"#utility.yul\":12919:12986   */\n      tag_367\n      jump\t// in\n    tag_535:\n        /* \"#utility.yul\":12912:12986   */\n      swap2\n      pop\n        /* \"#utility.yul\":12995:13088   */\n      tag_536\n        /* \"#utility.yul\":13084:13087   */\n      dup3\n        /* \"#utility.yul\":12995:13088   */\n      tag_374\n      jump\t// in\n    tag_536:\n        /* \"#utility.yul\":13113:13115   */\n      0x40\n        /* \"#utility.yul\":13108:13111   */\n      dup3\n        /* \"#utility.yul\":13104:13116   */\n      add\n        /* \"#utility.yul\":13097:13116   */\n      swap1\n      pop\n        /* \"#utility.yul\":12756:13122   */\n      swap2\n      swap1\n      pop\n      jump\t// out\n        /* \"#utility.yul\":13128:13547   */\n    tag_95:\n        /* \"#utility.yul\":13294:13298   */\n      0x00\n        /* \"#utility.yul\":13332:13334   */\n      0x20\n        /* \"#utility.yul\":13321:13330   */\n      dup3\n        /* \"#utility.yul\":13317:13335   */\n      add\n        /* \"#utility.yul\":13309:13335   */\n      swap1\n      pop\n        /* \"#utility.yul\":13381:13390   */\n      dup2\n        /* \"#utility.yul\":13375:13379   */\n      dup2\n        /* \"#utility.yul\":13371:13391   */\n      sub\n        /* \"#utility.yul\":13367:13368   */\n      0x00\n        /* \"#utility.yul\":13356:13365   */\n      dup4\n        /* \"#utility.yul\":13352:13369   */\n      add\n        /* \"#utility.yul\":13345:13392   */\n      mstore\n        /* \"#utility.yul\":13409:13540   */\n      tag_538\n        /* \"#utility.yul\":13535:13539   */\n      dup2\n        /* \"#utility.yul\":13409:13540   */\n      tag_375\n      jump\t// in\n    tag_538:\n        /* \"#utility.yul\":13401:13540   */\n      swap1\n      pop\n        /* \"#utility.yul\":13128:13547   */\n      swap2\n      swap1\n      pop\n      jump\t// out\n        /* \"#utility.yul\":13553:13721   */\n    tag_376:\n        /* \"#utility.yul\":13693:13713   */\n      0x596f7520616c726561647920766f7465642e0000000000000000000000000000\n        /* \"#utility.yul\":13689:13690   */\n      0x00\n        /* \"#utility.yul\":13681:13687   */\n      dup3\n        /* \"#utility.yul\":13677:13691   */\n      add\n        /* \"#utility.yul\":13670:13714   */\n      mstore\n        /* \"#utility.yul\":13553:13721   */\n      pop\n      jump\t// out\n        /* \"#utility.yul\":13727:14093   */\n    tag_377:\n        /* \"#utility.yul\":13869:13872   */\n      0x00\n        /* \"#utility.yul\":13890:13957   */\n      tag_541\n        /* \"#utility.yul\":13954:13956   */\n      0x12\n        /* \"#utility.yul\":13949:13952   */\n      dup4\n        /* \"#utility.yul\":13890:13957   */\n      tag_367\n      jump\t// in\n    tag_541:\n        /* \"#utility.yul\":13883:13957   */\n      swap2\n      pop\n        /* \"#utility.yul\":13966:14059   */\n      tag_542\n        /* \"#utility.yul\":14055:14058   */\n      dup3\n        /* \"#utility.yul\":13966:14059   */\n      tag_376\n      jump\t// in\n    tag_542:\n        /* \"#utility.yul\":14084:14086   */\n      0x20\n        /* \"#utility.yul\":14079:14082   */\n      dup3\n        /* \"#utility.yul\":14075:14087   */\n      add\n        /* \"#utility.yul\":14068:14087   */\n      swap1\n      pop\n        /* \"#utility.yul\":13727:14093   */\n      swap2\n      swap1\n      pop\n      jump\t// out\n        /* \"#utility.yul\":14099:14518   */\n    tag_98:\n        /* \"#utility.yul\":14265:14269   */\n      0x00\n        /* \"#utility.yul\":14303:14305   */\n      0x20\n        /* \"#utility.yul\":14292:14301   */\n      dup3\n        /* \"#utility.yul\":14288:14306   */\n      add\n        /* \"#utility.yul\":14280:14306   */\n      swap1\n      pop\n        /* \"#utility.yul\":14352:14361   */\n      dup2\n        /* \"#utility.yul\":14346:14350   */\n      dup2\n        /* \"#utility.yul\":14342:14362   */\n      sub\n        /* \"#utility.yul\":14338:14339   */\n      0x00\n        /* \"#utility.yul\":14327:14336   */\n      dup4\n        /* \"#utility.yul\":14323:14340   */\n      add\n        /* \"#utility.yul\":14316:14363   */\n      mstore\n        /* \"#utility.yul\":14380:14511   */\n      tag_544\n        /* \"#utility.yul\":14506:14510   */\n      dup2\n        /* \"#utility.yul\":14380:14511   */\n      tag_377\n      jump\t// in\n    tag_544:\n        /* \"#utility.yul\":14372:14511   */\n      swap1\n      pop\n        /* \"#utility.yul\":14099:14518   */\n      swap2\n      swap1\n      pop\n      jump\t// out\n        /* \"#utility.yul\":14524:14704   */\n    tag_378:\n        /* \"#utility.yul\":14664:14696   */\n      0x546869732070726f706f73616c20646f6573206e6f74206578697374732e0000\n        /* \"#utility.yul\":14660:14661   */\n      0x00\n        /* \"#utility.yul\":14652:14658   */\n      dup3\n        /* \"#utility.yul\":14648:14662   */\n      add\n        /* \"#utility.yul\":14641:14697   */\n      mstore\n        /* \"#utility.yul\":14524:14704   */\n      pop\n      jump\t// out\n        /* \"#utility.yul\":14710:15076   */\n    tag_379:\n        /* \"#utility.yul\":14852:14855   */\n      0x00\n        /* \"#utility.yul\":14873:14940   */\n      tag_547\n        /* \"#utility.yul\":14937:14939   */\n      0x1e\n        /* \"#utility.yul\":14932:14935   */\n      dup4\n        /* \"#utility.yul\":14873:14940   */\n      tag_367\n      jump\t// in\n    tag_547:\n        /* \"#utility.yul\":14866:14940   */\n      swap2\n      pop\n        /* \"#utility.yul\":14949:15042   */\n      tag_548\n        /* \"#utility.yul\":15038:15041   */\n      dup3\n        /* \"#utility.yul\":14949:15042   */\n      tag_378\n      jump\t// in\n    tag_548:\n        /* \"#utility.yul\":15067:15069   */\n      0x20\n        /* \"#utility.yul\":15062:15065   */\n      dup3\n        /* \"#utility.yul\":15058:15070   */\n      add\n        /* \"#utility.yul\":15051:15070   */\n      swap1\n      pop\n        /* \"#utility.yul\":14710:15076   */\n      swap2\n      swap1\n      pop\n      jump\t// out\n        /* \"#utility.yul\":15082:15501   */\n    tag_101:\n        /* \"#utility.yul\":15248:15252   */\n      0x00\n        /* \"#utility.yul\":15286:15288   */\n      0x20\n        /* \"#utility.yul\":15275:15284   */\n      dup3\n        /* \"#utility.yul\":15271:15289   */\n      add\n        /* \"#utility.yul\":15263:15289   */\n      swap1\n      pop\n        /* \"#utility.yul\":15335:15344   */\n      dup2\n        /* \"#utility.yul\":15329:15333   */\n      dup2\n        /* \"#utility.yul\":15325:15345   */\n      sub\n        /* \"#utility.yul\":15321:15322   */\n      0x00\n        /* \"#utility.yul\":15310:15319   */\n      dup4\n        /* \"#utility.yul\":15306:15323   */\n      add\n        /* \"#utility.yul\":15299:15346   */\n      mstore\n        /* \"#utility.yul\":15363:15494   */\n      tag_550\n        /* \"#utility.yul\":15489:15493   */\n      dup2\n        /* \"#utility.yul\":15363:15494   */\n      tag_379\n      jump\t// in\n    tag_550:\n        /* \"#utility.yul\":15355:15494   */\n      swap1\n      pop\n        /* \"#utility.yul\":15082:15501   */\n      swap2\n      swap1\n      pop\n      jump\t// out\n        /* \"#utility.yul\":15507:15687   */\n    tag_104:\n        /* \"#utility.yul\":15555:15632   */\n      0x4e487b7100000000000000000000000000000000000000000000000000000000\n        /* \"#utility.yul\":15552:15553   */\n      0x00\n        /* \"#utility.yul\":15545:15633   */\n      mstore\n        /* \"#utility.yul\":15652:15656   */\n      0x32\n        /* \"#utility.yul\":15649:15650   */\n      0x04\n        /* \"#utility.yul\":15642:15657   */\n      mstore\n        /* \"#utility.yul\":15676:15680   */\n      0x24\n        /* \"#utility.yul\":15673:15674   */\n      0x00\n        /* \"#utility.yul\":15666:15681   */\n      revert\n        /* \"#utility.yul\":15693:15873   */\n    tag_380:\n        /* \"#utility.yul\":15741:15818   */\n      0x4e487b7100000000000000000000000000000000000000000000000000000000\n        /* \"#utility.yul\":15738:15739   */\n      0x00\n        /* \"#utility.yul\":15731:15819   */\n      mstore\n        /* \"#utility.yul\":15838:15842   */\n      0x11\n        /* \"#utility.yul\":15835:15836   */\n      0x04\n        /* \"#utility.yul\":15828:15843   */\n      mstore\n        /* \"#utility.yul\":15862:15866   */\n      0x24\n        /* \"#utility.yul\":15859:15860   */\n      0x00\n        /* \"#utility.yul\":15852:15867   */\n      revert\n        /* \"#utility.yul\":15879:16050   */\n    tag_107:\n        /* \"#utility.yul\":15917:15920   */\n      0x00\n        /* \"#utility.yul\":15940:15963   */\n      tag_554\n        /* \"#utility.yul\":15957:15962   */\n      dup3\n        /* \"#utility.yul\":15940:15963   */\n      tag_341\n      jump\t// in\n    tag_554:\n        /* \"#utility.yul\":15931:15963   */\n      swap2\n      pop\n        /* \"#utility.yul\":15985:15991   */\n      0xffff\n        /* \"#utility.yul\":15978:15983   */\n      dup3\n        /* \"#utility.yul\":15975:15992   */\n      sub\n        /* \"#utility.yul\":15972:16015   */\n      tag_555\n      jumpi\n        /* \"#utility.yul\":15995:16013   */\n      tag_556\n      tag_380\n      jump\t// in\n    tag_556:\n        /* \"#utility.yul\":15972:16015   */\n    tag_555:\n        /* \"#utility.yul\":16042:16043   */\n      0x01\n        /* \"#utility.yul\":16035:16040   */\n      dup3\n        /* \"#utility.yul\":16031:16044   */\n      add\n        /* \"#utility.yul\":16024:16044   */\n      swap1\n      pop\n        /* \"#utility.yul\":15879:16050   */\n      swap2\n      swap1\n      pop\n      jump\t// out\n        /* \"#utility.yul\":16056:16234   */\n    tag_381:\n        /* \"#utility.yul\":16196:16226   */\n      0x54686520766f746572206973206e6f7420726567697374657265642e00000000\n        /* \"#utility.yul\":16192:16193   */\n      0x00\n        /* \"#utility.yul\":16184:16190   */\n      dup3\n        /* \"#utility.yul\":16180:16194   */\n      add\n        /* \"#utility.yul\":16173:16227   */\n      mstore\n        /* \"#utility.yul\":16056:16234   */\n      pop\n      jump\t// out\n        /* \"#utility.yul\":16240:16606   */\n    tag_382:\n        /* \"#utility.yul\":16382:16385   */\n      0x00\n        /* \"#utility.yul\":16403:16470   */\n      tag_559\n        /* \"#utility.yul\":16467:16469   */\n      0x1c\n        /* \"#utility.yul\":16462:16465   */\n      dup4\n        /* \"#utility.yul\":16403:16470   */\n      tag_367\n      jump\t// in\n    tag_559:\n        /* \"#utility.yul\":16396:16470   */\n      swap2\n      pop\n        /* \"#utility.yul\":16479:16572   */\n      tag_560\n        /* \"#utility.yul\":16568:16571   */\n      dup3\n        /* \"#utility.yul\":16479:16572   */\n      tag_381\n      jump\t// in\n    tag_560:\n        /* \"#utility.yul\":16597:16599   */\n      0x20\n        /* \"#utility.yul\":16592:16595   */\n      dup3\n        /* \"#utility.yul\":16588:16600   */\n      add\n        /* \"#utility.yul\":16581:16600   */\n      swap1\n      pop\n        /* \"#utility.yul\":16240:16606   */\n      swap2\n      swap1\n      pop\n      jump\t// out\n        /* \"#utility.yul\":16612:17031   */\n    tag_124:\n        /* \"#utility.yul\":16778:16782   */\n      0x00\n        /* \"#utility.yul\":16816:16818   */\n      0x20\n        /* \"#utility.yul\":16805:16814   */\n      dup3\n        /* \"#utility.yul\":16801:16819   */\n      add\n        /* \"#utility.yul\":16793:16819   */\n      swap1\n      pop\n        /* \"#utility.yul\":16865:16874   */\n      dup2\n        /* \"#utility.yul\":16859:16863   */\n      dup2\n        /* \"#utility.yul\":16855:16875   */\n      sub\n        /* \"#utility.yul\":16851:16852   */\n      0x00\n        /* \"#utility.yul\":16840:16849   */\n      dup4\n        /* \"#utility.yul\":16836:16853   */\n      add\n        /* \"#utility.yul\":16829:16876   */\n      mstore\n        /* \"#utility.yul\":16893:17024   */\n      tag_562\n        /* \"#utility.yul\":17019:17023   */\n      dup2\n        /* \"#utility.yul\":16893:17024   */\n      tag_382\n      jump\t// in\n    tag_562:\n        /* \"#utility.yul\":16885:17024   */\n      swap1\n      pop\n        /* \"#utility.yul\":16612:17031   */\n      swap2\n      swap1\n      pop\n      jump\t// out\n        /* \"#utility.yul\":17037:17215   */\n    tag_383:\n        /* \"#utility.yul\":17177:17207   */\n      0x54686520766f74657220686173206e6f7420766f746564207965742e00000000\n        /* \"#utility.yul\":17173:17174   */\n      0x00\n        /* \"#utility.yul\":17165:17171   */\n      dup3\n        /* \"#utility.yul\":17161:17175   */\n      add\n        /* \"#utility.yul\":17154:17208   */\n      mstore\n        /* \"#utility.yul\":17037:17215   */\n      pop\n      jump\t// out\n        /* \"#utility.yul\":17221:17587   */\n    tag_384:\n        /* \"#utility.yul\":17363:17366   */\n      0x00\n        /* \"#utility.yul\":17384:17451   */\n      tag_565\n        /* \"#utility.yul\":17448:17450   */\n      0x1c\n        /* \"#utility.yul\":17443:17446   */\n      dup4\n        /* \"#utility.yul\":17384:17451   */\n      tag_367\n      jump\t// in\n    tag_565:\n        /* \"#utility.yul\":17377:17451   */\n      swap2\n      pop\n        /* \"#utility.yul\":17460:17553   */\n      tag_566\n        /* \"#utility.yul\":17549:17552   */\n      dup3\n        /* \"#utility.yul\":17460:17553   */\n      tag_383\n      jump\t// in\n    tag_566:\n        /* \"#utility.yul\":17578:17580   */\n      0x20\n        /* \"#utility.yul\":17573:17576   */\n      dup3\n        /* \"#utility.yul\":17569:17581   */\n      add\n        /* \"#utility.yul\":17562:17581   */\n      swap1\n      pop\n        /* \"#utility.yul\":17221:17587   */\n      swap2\n      swap1\n      pop\n      jump\t// out\n        /* \"#utility.yul\":17593:18012   */\n    tag_127:\n        /* \"#utility.yul\":17759:17763   */\n      0x00\n        /* \"#utility.yul\":17797:17799   */\n      0x20\n        /* \"#utility.yul\":17786:17795   */\n      dup3\n        /* \"#utility.yul\":17782:17800   */\n      add\n        /* \"#utility.yul\":17774:17800   */\n      swap1\n      pop\n        /* \"#utility.yul\":17846:17855   */\n      dup2\n        /* \"#utility.yul\":17840:17844   */\n      dup2\n        /* \"#utility.yul\":17836:17856   */\n      sub\n        /* \"#utility.yul\":17832:17833   */\n      0x00\n        /* \"#utility.yul\":17821:17830   */\n      dup4\n        /* \"#utility.yul\":17817:17834   */\n      add\n        /* \"#utility.yul\":17810:17857   */\n      mstore\n        /* \"#utility.yul\":17874:18005   */\n      tag_568\n        /* \"#utility.yul\":18000:18004   */\n      dup2\n        /* \"#utility.yul\":17874:18005   */\n      tag_384\n      jump\t// in\n    tag_568:\n        /* \"#utility.yul\":17866:18005   */\n      swap1\n      pop\n        /* \"#utility.yul\":17593:18012   */\n      swap2\n      swap1\n      pop\n      jump\t// out\n        /* \"#utility.yul\":18018:18198   */\n    tag_385:\n        /* \"#utility.yul\":18066:18143   */\n      0x4e487b7100000000000000000000000000000000000000000000000000000000\n        /* \"#utility.yul\":18063:18064   */\n      0x00\n        /* \"#utility.yul\":18056:18144   */\n      mstore\n        /* \"#utility.yul\":18163:18167   */\n      0x22\n        /* \"#utility.yul\":18160:18161   */\n      0x04\n        /* \"#utility.yul\":18153:18168   */\n      mstore\n        /* \"#utility.yul\":18187:18191   */\n      0x24\n        /* \"#utility.yul\":18184:18185   */\n      0x00\n        /* \"#utility.yul\":18177:18192   */\n      revert\n        /* \"#utility.yul\":18204:18524   */\n    tag_132:\n        /* \"#utility.yul\":18248:18254   */\n      0x00\n        /* \"#utility.yul\":18285:18286   */\n      0x02\n        /* \"#utility.yul\":18279:18283   */\n      dup3\n        /* \"#utility.yul\":18275:18287   */\n      div\n        /* \"#utility.yul\":18265:18287   */\n      swap1\n      pop\n        /* \"#utility.yul\":18332:18333   */\n      0x01\n        /* \"#utility.yul\":18326:18330   */\n      dup3\n        /* \"#utility.yul\":18322:18334   */\n      and\n        /* \"#utility.yul\":18353:18371   */\n      dup1\n        /* \"#utility.yul\":18343:18424   */\n      tag_571\n      jumpi\n        /* \"#utility.yul\":18409:18413   */\n      0x7f\n        /* \"#utility.yul\":18401:18407   */\n      dup3\n        /* \"#utility.yul\":18397:18414   */\n      and\n        /* \"#utility.yul\":18387:18414   */\n      swap2\n      pop\n        /* \"#utility.yul\":18343:18424   */\n    tag_571:\n        /* \"#utility.yul\":18471:18473   */\n      0x20\n        /* \"#utility.yul\":18463:18469   */\n      dup3\n        /* \"#utility.yul\":18460:18474   */\n      lt\n        /* \"#utility.yul\":18440:18458   */\n      dup2\n        /* \"#utility.yul\":18437:18475   */\n      sub\n        /* \"#utility.yul\":18434:18518   */\n      tag_572\n      jumpi\n        /* \"#utility.yul\":18490:18508   */\n      tag_573\n      tag_385\n      jump\t// in\n    tag_573:\n        /* \"#utility.yul\":18434:18518   */\n    tag_572:\n        /* \"#utility.yul\":18255:18524   */\n      pop\n        /* \"#utility.yul\":18204:18524   */\n      swap2\n      swap1\n      pop\n      jump\t// out\n        /* \"#utility.yul\":18530:18754   */\n    tag_386:\n        /* \"#utility.yul\":18670:18704   */\n      0x5468652070726576696f75732073657373696f6e206973206e6f74206f766572\n        /* \"#utility.yul\":18666:18667   */\n      0x00\n        /* \"#utility.yul\":18658:18664   */\n      dup3\n        /* \"#utility.yul\":18654:18668   */\n      add\n        /* \"#utility.yul\":18647:18705   */\n      mstore\n        /* \"#utility.yul\":18739:18746   */\n      0x207965742e000000000000000000000000000000000000000000000000000000\n        /* \"#utility.yul\":18734:18736   */\n      0x20\n        /* \"#utility.yul\":18726:18732   */\n      dup3\n        /* \"#utility.yul\":18722:18737   */\n      add\n        /* \"#utility.yul\":18715:18747   */\n      mstore\n        /* \"#utility.yul\":18530:18754   */\n      pop\n      jump\t// out\n        /* \"#utility.yul\":18760:19126   */\n    tag_387:\n        /* \"#utility.yul\":18902:18905   */\n      0x00\n        /* \"#utility.yul\":18923:18990   */\n      tag_576\n        /* \"#utility.yul\":18987:18989   */\n      0x25\n        /* \"#utility.yul\":18982:18985   */\n      dup4\n        /* \"#utility.yul\":18923:18990   */\n      tag_367\n      jump\t// in\n    tag_576:\n        /* \"#utility.yul\":18916:18990   */\n      swap2\n      pop\n        /* \"#utility.yul\":18999:19092   */\n      tag_577\n        /* \"#utility.yul\":19088:19091   */\n      dup3\n        /* \"#utility.yul\":18999:19092   */\n      tag_386\n      jump\t// in\n    tag_577:\n        /* \"#utility.yul\":19117:19119   */\n      0x40\n        /* \"#utility.yul\":19112:19115   */\n      dup3\n        /* \"#utility.yul\":19108:19120   */\n      add\n        /* \"#utility.yul\":19101:19120   */\n      swap1\n      pop\n        /* \"#utility.yul\":18760:19126   */\n      swap2\n      swap1\n      pop\n      jump\t// out\n        /* \"#utility.yul\":19132:19551   */\n    tag_146:\n        /* \"#utility.yul\":19298:19302   */\n      0x00\n        /* \"#utility.yul\":19336:19338   */\n      0x20\n        /* \"#utility.yul\":19325:19334   */\n      dup3\n        /* \"#utility.yul\":19321:19339   */\n      add\n        /* \"#utility.yul\":19313:19339   */\n      swap1\n      pop\n        /* \"#utility.yul\":19385:19394   */\n      dup2\n        /* \"#utility.yul\":19379:19383   */\n      dup2\n        /* \"#utility.yul\":19375:19395   */\n      sub\n        /* \"#utility.yul\":19371:19372   */\n      0x00\n        /* \"#utility.yul\":19360:19369   */\n      dup4\n        /* \"#utility.yul\":19356:19373   */\n      add\n        /* \"#utility.yul\":19349:19396   */\n      mstore\n        /* \"#utility.yul\":19413:19544   */\n      tag_579\n        /* \"#utility.yul\":19539:19543   */\n      dup2\n        /* \"#utility.yul\":19413:19544   */\n      tag_387\n      jump\t// in\n    tag_579:\n        /* \"#utility.yul\":19405:19544   */\n      swap1\n      pop\n        /* \"#utility.yul\":19132:19551   */\n      swap2\n      swap1\n      pop\n      jump\t// out\n        /* \"#utility.yul\":19557:19736   */\n    tag_388:\n        /* \"#utility.yul\":19697:19728   */\n      0x5468652070726f706f73616c2063616e6e6f7420626520656d7074792e000000\n        /* \"#utility.yul\":19693:19694   */\n      0x00\n        /* \"#utility.yul\":19685:19691   */\n      dup3\n        /* \"#utility.yul\":19681:19695   */\n      add\n        /* \"#utility.yul\":19674:19729   */\n      mstore\n        /* \"#utility.yul\":19557:19736   */\n      pop\n      jump\t// out\n        /* \"#utility.yul\":19742:20108   */\n    tag_389:\n        /* \"#utility.yul\":19884:19887   */\n      0x00\n        /* \"#utility.yul\":19905:19972   */\n      tag_582\n        /* \"#utility.yul\":19969:19971   */\n      0x1d\n        /* \"#utility.yul\":19964:19967   */\n      dup4\n        /* \"#utility.yul\":19905:19972   */\n      tag_367\n      jump\t// in\n    tag_582:\n        /* \"#utility.yul\":19898:19972   */\n      swap2\n      pop\n        /* \"#utility.yul\":19981:20074   */\n      tag_583\n        /* \"#utility.yul\":20070:20073   */\n      dup3\n        /* \"#utility.yul\":19981:20074   */\n      tag_388\n      jump\t// in\n    tag_583:\n        /* \"#utility.yul\":20099:20101   */\n      0x20\n        /* \"#utility.yul\":20094:20097   */\n      dup3\n        /* \"#utility.yul\":20090:20102   */\n      add\n        /* \"#utility.yul\":20083:20102   */\n      swap1\n      pop\n        /* \"#utility.yul\":19742:20108   */\n      swap2\n      swap1\n      pop\n      jump\t// out\n        /* \"#utility.yul\":20114:20533   */\n    tag_176:\n        /* \"#utility.yul\":20280:20284   */\n      0x00\n        /* \"#utility.yul\":20318:20320   */\n      0x20\n        /* \"#utility.yul\":20307:20316   */\n      dup3\n        /* \"#utility.yul\":20303:20321   */\n      add\n        /* \"#utility.yul\":20295:20321   */\n      swap1\n      pop\n        /* \"#utility.yul\":20367:20376   */\n      dup2\n        /* \"#utility.yul\":20361:20365   */\n      dup2\n        /* \"#utility.yul\":20357:20377   */\n      sub\n        /* \"#utility.yul\":20353:20354   */\n      0x00\n        /* \"#utility.yul\":20342:20351   */\n      dup4\n        /* \"#utility.yul\":20338:20355   */\n      add\n        /* \"#utility.yul\":20331:20378   */\n      mstore\n        /* \"#utility.yul\":20395:20526   */\n      tag_585\n        /* \"#utility.yul\":20521:20525   */\n      dup2\n        /* \"#utility.yul\":20395:20526   */\n      tag_389\n      jump\t// in\n    tag_585:\n        /* \"#utility.yul\":20387:20526   */\n      swap1\n      pop\n        /* \"#utility.yul\":20114:20533   */\n      swap2\n      swap1\n      pop\n      jump\t// out\n        /* \"#utility.yul\":20539:20719   */\n    tag_193:\n        /* \"#utility.yul\":20587:20664   */\n      0x4e487b7100000000000000000000000000000000000000000000000000000000\n        /* \"#utility.yul\":20584:20585   */\n      0x00\n        /* \"#utility.yul\":20577:20665   */\n      mstore\n        /* \"#utility.yul\":20684:20688   */\n      0x41\n        /* \"#utility.yul\":20681:20682   */\n      0x04\n        /* \"#utility.yul\":20674:20689   */\n      mstore\n        /* \"#utility.yul\":20708:20712   */\n      0x24\n        /* \"#utility.yul\":20705:20706   */\n      0x00\n        /* \"#utility.yul\":20698:20713   */\n      revert\n        /* \"#utility.yul\":20725:20866   */\n    tag_390:\n        /* \"#utility.yul\":20774:20778   */\n      0x00\n        /* \"#utility.yul\":20797:20800   */\n      dup2\n        /* \"#utility.yul\":20789:20800   */\n      swap1\n      pop\n        /* \"#utility.yul\":20820:20823   */\n      dup2\n        /* \"#utility.yul\":20817:20818   */\n      0x00\n        /* \"#utility.yul\":20810:20824   */\n      mstore\n        /* \"#utility.yul\":20854:20858   */\n      0x20\n        /* \"#utility.yul\":20851:20852   */\n      0x00\n        /* \"#utility.yul\":20841:20859   */\n      keccak256\n        /* \"#utility.yul\":20833:20859   */\n      swap1\n      pop\n        /* \"#utility.yul\":20725:20866   */\n      swap2\n      swap1\n      pop\n      jump\t// out\n        /* \"#utility.yul\":20872:20965   */\n    tag_391:\n        /* \"#utility.yul\":20909:20915   */\n      0x00\n        /* \"#utility.yul\":20956:20958   */\n      0x20\n        /* \"#utility.yul\":20951:20953   */\n      0x1f\n        /* \"#utility.yul\":20944:20949   */\n      dup4\n        /* \"#utility.yul\":20940:20954   */\n      add\n        /* \"#utility.yul\":20936:20959   */\n      div\n        /* \"#utility.yul\":20926:20959   */\n      swap1\n      pop\n        /* \"#utility.yul\":20872:20965   */\n      swap2\n      swap1\n      pop\n      jump\t// out\n        /* \"#utility.yul\":20971:21078   */\n    tag_392:\n        /* \"#utility.yul\":21015:21023   */\n      0x00\n        /* \"#utility.yul\":21065:21070   */\n      dup3\n        /* \"#utility.yul\":21059:21063   */\n      dup3\n        /* \"#utility.yul\":21055:21071   */\n      shl\n        /* \"#utility.yul\":21034:21071   */\n      swap1\n      pop\n        /* \"#utility.yul\":20971:21078   */\n      swap3\n      swap2\n      pop\n      pop\n      jump\t// out\n        /* \"#utility.yul\":21084:21477   */\n    tag_393:\n        /* \"#utility.yul\":21153:21159   */\n      0x00\n        /* \"#utility.yul\":21203:21204   */\n      0x08\n        /* \"#utility.yul\":21191:21201   */\n      dup4\n        /* \"#utility.yul\":21187:21205   */\n      mul\n        /* \"#utility.yul\":21226:21323   */\n      tag_591\n        /* \"#utility.yul\":21256:21322   */\n      0xffffffffffffffffffffffffffffffffffffffffffffffffffffffffffffffff\n        /* \"#utility.yul\":21245:21254   */\n      dup3\n        /* \"#utility.yul\":21226:21323   */\n      tag_392\n      jump\t// in\n    tag_591:\n        /* \"#utility.yul\":21344:21383   */\n      tag_592\n        /* \"#utility.yul\":21374:21382   */\n      dup7\n        /* \"#utility.yul\":21363:21372   */\n      dup4\n        /* \"#utility.yul\":21344:21383   */\n      tag_392\n      jump\t// in\n    tag_592:\n        /* \"#utility.yul\":21332:21383   */\n      swap6\n      pop\n        /* \"#utility.yul\":21416:21420   */\n      dup1\n        /* \"#utility.yul\":21412:21421   */\n      not\n        /* \"#utility.yul\":21405:21410   */\n      dup5\n        /* \"#utility.yul\":21401:21422   */\n      and\n        /* \"#utility.yul\":21392:21422   */\n      swap4\n      pop\n        /* \"#utility.yul\":21465:21469   */\n      dup1\n        /* \"#utility.yul\":21455:21463   */\n      dup7\n        /* \"#utility.yul\":21451:21470   */\n      and\n        /* \"#utility.yul\":21444:21449   */\n      dup5\n        /* \"#utility.yul\":21441:21471   */\n      or\n        /* \"#utility.yul\":21431:21471   */\n      swap3\n      pop\n        /* \"#utility.yul\":21160:21477   */\n      pop\n      pop\n        /* \"#utility.yul\":21084:21477   */\n      swap4\n      swap3\n      pop\n      pop\n      pop\n      jump\t// out\n        /* \"#utility.yul\":21483:21560   */\n    tag_394:\n        /* \"#utility.yul\":21520:21527   */\n      0x00\n        /* \"#utility.yul\":21549:21554   */\n      dup2\n        /* \"#utility.yul\":21538:21554   */\n      swap1\n      pop\n        /* \"#utility.yul\":21483:21560   */\n      swap2\n      swap1\n      pop\n      jump\t// out\n        /* \"#utility.yul\":21566:21626   */\n    tag_395:\n        /* \"#utility.yul\":21594:21597   */\n      0x00\n        /* \"#utility.yul\":21615:21620   */\n      dup2\n        /* \"#utility.yul\":21608:21620   */\n      swap1\n      pop\n        /* \"#utility.yul\":21566:21626   */\n      swap2\n      swap1\n      pop\n      jump\t// out\n        /* \"#utility.yul\":21632:21774   */\n    tag_396:\n        /* \"#utility.yul\":21682:21691   */\n      0x00\n        /* \"#utility.yul\":21715:21768   */\n      tag_596\n        /* \"#utility.yul\":21733:21767   */\n      tag_597\n        /* \"#utility.yul\":21742:21766   */\n      tag_598\n        /* \"#utility.yul\":21760:21765   */\n      dup5\n        /* \"#utility.yul\":21742:21766   */\n      tag_394\n      jump\t// in\n    tag_598:\n        /* \"#utility.yul\":21733:21767   */\n      tag_395\n      jump\t// in\n    tag_597:\n        /* \"#utility.yul\":21715:21768   */\n      tag_394\n      jump\t// in\n    tag_596:\n        /* \"#utility.yul\":21702:21768   */\n      swap1\n      pop\n        /* \"#utility.yul\":21632:21774   */\n      swap2\n      swap1\n      pop\n      jump\t// out\n        /* \"#utility.yul\":21780:21855   */\n    tag_397:\n        /* \"#utility.yul\":21823:21826   */\n      0x00\n        /* \"#utility.yul\":21844:21849   */\n      dup2\n        /* \"#utility.yul\":21837:21849   */\n      swap1\n      pop\n        /* \"#utility.yul\":21780:21855   */\n      swap2\n      swap1\n      pop\n      jump\t// out\n        /* \"#utility.yul\":21861:22130   */\n    tag_398:\n        /* \"#utility.yul\":21971:22010   */\n      tag_601\n        /* \"#utility.yul\":22002:22009   */\n      dup4\n        /* \"#utility.yul\":21971:22010   */\n      tag_396\n      jump\t// in\n    tag_601:\n        /* \"#utility.yul\":22032:22123   */\n      tag_602\n        /* \"#utility.yul\":22081:22122   */\n      tag_603\n        /* \"#utility.yul\":22105:22121   */\n      dup3\n        /* \"#utility.yul\":22081:22122   */\n      tag_397\n      jump\t// in\n    tag_603:\n        /* \"#utility.yul\":22073:22079   */\n      dup5\n        /* \"#utility.yul\":22066:22070   */\n      dup5\n        /* \"#utility.yul\":22060:22071   */\n      sload\n        /* \"#utility.yul\":22032:22123   */\n      tag_393\n      jump\t// in\n    tag_602:\n        /* \"#utility.yul\":22026:22030   */\n      dup3\n        /* \"#utility.yul\":22019:22124   */\n      sstore\n        /* \"#utility.yul\":21937:22130   */\n      pop\n        /* \"#utility.yul\":21861:22130   */\n      pop\n      pop\n      pop\n      jump\t// out\n        /* \"#utility.yul\":22136:22209   */\n    tag_399:\n        /* \"#utility.yul\":22181:22184   */\n      0x00\n        /* \"#utility.yul\":22136:22209   */\n      swap1\n      jump\t// out\n        /* \"#utility.yul\":22215:22404   */\n    tag_400:\n        /* \"#utility.yul\":22292:22324   */\n      tag_606\n      tag_399\n      jump\t// in\n    tag_606:\n        /* \"#utility.yul\":22333:22398   */\n      tag_607\n        /* \"#utility.yul\":22391:22397   */\n      dup2\n        /* \"#utility.yul\":22383:22389   */\n      dup5\n        /* \"#utility.yul\":22377:22381   */\n      dup5\n        /* \"#utility.yul\":22333:22398   */\n      tag_398\n      jump\t// in\n    tag_607:\n        /* \"#utility.yul\":22268:22404   */\n      pop\n        /* \"#utility.yul\":22215:22404   */\n      pop\n      pop\n      jump\t// out\n        /* \"#utility.yul\":22410:22596   */\n    tag_401:\n        /* \"#utility.yul\":22470:22590   */\n    tag_609:\n        /* \"#utility.yul\":22487:22490   */\n      dup2\n        /* \"#utility.yul\":22480:22485   */\n      dup2\n        /* \"#utility.yul\":22477:22491   */\n      lt\n        /* \"#utility.yul\":22470:22590   */\n      iszero\n      tag_611\n      jumpi\n        /* \"#utility.yul\":22541:22580   */\n      tag_612\n        /* \"#utility.yul\":22578:22579   */\n      0x00\n        /* \"#utility.yul\":22571:22576   */\n      dup3\n        /* \"#utility.yul\":22541:22580   */\n      tag_400\n      jump\t// in\n    tag_612:\n        /* \"#utility.yul\":22514:22515   */\n      0x01\n        /* \"#utility.yul\":22507:22512   */\n      dup2\n        /* \"#utility.yul\":22503:22516   */\n      add\n        /* \"#utility.yul\":22494:22516   */\n      swap1\n      pop\n        /* \"#utility.yul\":22470:22590   */\n      jump(tag_609)\n    tag_611:\n        /* \"#utility.yul\":22410:22596   */\n      pop\n      pop\n      jump\t// out\n        /* \"#utility.yul\":22602:23145   */\n    tag_402:\n        /* \"#utility.yul\":22703:22705   */\n      0x1f\n        /* \"#utility.yul\":22698:22701   */\n      dup3\n        /* \"#utility.yul\":22695:22706   */\n      gt\n        /* \"#utility.yul\":22692:23138   */\n      iszero\n      tag_614\n      jumpi\n        /* \"#utility.yul\":22737:22775   */\n      tag_615\n        /* \"#utility.yul\":22769:22774   */\n      dup2\n        /* \"#utility.yul\":22737:22775   */\n      tag_390\n      jump\t// in\n    tag_615:\n        /* \"#utility.yul\":22821:22850   */\n      tag_616\n        /* \"#utility.yul\":22839:22849   */\n      dup5\n        /* \"#utility.yul\":22821:22850   */\n      tag_391\n      jump\t// in\n    tag_616:\n        /* \"#utility.yul\":22811:22819   */\n      dup2\n        /* \"#utility.yul\":22807:22851   */\n      add\n        /* \"#utility.yul\":23004:23006   */\n      0x20\n        /* \"#utility.yul\":22992:23002   */\n      dup6\n        /* \"#utility.yul\":22989:23007   */\n      lt\n        /* \"#utility.yul\":22986:23035   */\n      iszero\n      tag_617\n      jumpi\n        /* \"#utility.yul\":23025:23033   */\n      dup2\n        /* \"#utility.yul\":23010:23033   */\n      swap1\n      pop\n        /* \"#utility.yul\":22986:23035   */\n    tag_617:\n        /* \"#utility.yul\":23048:23128   */\n      tag_618\n        /* \"#utility.yul\":23104:23126   */\n      tag_619\n        /* \"#utility.yul\":23122:23125   */\n      dup6\n        /* \"#utility.yul\":23104:23126   */\n      tag_391\n      jump\t// in\n    tag_619:\n        /* \"#utility.yul\":23094:23102   */\n      dup4\n        /* \"#utility.yul\":23090:23127   */\n      add\n        /* \"#utility.yul\":23077:23088   */\n      dup3\n        /* \"#utility.yul\":23048:23128   */\n      tag_401\n      jump\t// in\n    tag_618:\n        /* \"#utility.yul\":22707:23138   */\n      pop\n      pop\n        /* \"#utility.yul\":22692:23138   */\n    tag_614:\n        /* \"#utility.yul\":22602:23145   */\n      pop\n      pop\n      pop\n      jump\t// out\n        /* \"#utility.yul\":23151:23268   */\n    tag_403:\n        /* \"#utility.yul\":23205:23213   */\n      0x00\n        /* \"#utility.yul\":23255:23260   */\n      dup3\n        /* \"#utility.yul\":23249:23253   */\n      dup3\n        /* \"#utility.yul\":23245:23261   */\n      shr\n        /* \"#utility.yul\":23224:23261   */\n      swap1\n      pop\n        /* \"#utility.yul\":23151:23268   */\n      swap3\n      swap2\n      pop\n      pop\n      jump\t// out\n        /* \"#utility.yul\":23274:23443   */\n    tag_404:\n        /* \"#utility.yul\":23318:23324   */\n      0x00\n        /* \"#utility.yul\":23351:23402   */\n      tag_622\n        /* \"#utility.yul\":23399:23400   */\n      0x00\n        /* \"#utility.yul\":23395:23401   */\n      not\n        /* \"#utility.yul\":23387:23392   */\n      dup5\n        /* \"#utility.yul\":23384:23385   */\n      0x08\n        /* \"#utility.yul\":23380:23393   */\n      mul\n        /* \"#utility.yul\":23351:23402   */\n      tag_403\n      jump\t// in\n    tag_622:\n        /* \"#utility.yul\":23347:23403   */\n      not\n        /* \"#utility.yul\":23432:23436   */\n      dup1\n        /* \"#utility.yul\":23426:23430   */\n      dup4\n        /* \"#utility.yul\":23422:23437   */\n      and\n        /* \"#utility.yul\":23412:23437   */\n      swap2\n      pop\n        /* \"#utility.yul\":23325:23443   */\n      pop\n        /* \"#utility.yul\":23274:23443   */\n      swap3\n      swap2\n      pop\n      pop\n      jump\t// out\n        /* \"#utility.yul\":23448:23743   */\n    tag_405:\n        /* \"#utility.yul\":23524:23528   */\n      0x00\n        /* \"#utility.yul\":23670:23699   */\n      tag_624\n        /* \"#utility.yul\":23695:23698   */\n      dup4\n        /* \"#utility.yul\":23689:23693   */\n      dup4\n        /* \"#utility.yul\":23670:23699   */\n      tag_404\n      jump\t// in\n    tag_624:\n        /* \"#utility.yul\":23662:23699   */\n      swap2\n      pop\n        /* \"#utility.yul\":23732:23735   */\n      dup3\n        /* \"#utility.yul\":23729:23730   */\n      0x02\n        /* \"#utility.yul\":23725:23736   */\n      mul\n        /* \"#utility.yul\":23719:23723   */\n      dup3\n        /* \"#utility.yul\":23716:23737   */\n      or\n        /* \"#utility.yul\":23708:23737   */\n      swap1\n      pop\n        /* \"#utility.yul\":23448:23743   */\n      swap3\n      swap2\n      pop\n      pop\n      jump\t// out\n        /* \"#utility.yul\":23748:25143   */\n    tag_179:\n        /* \"#utility.yul\":23865:23902   */\n      tag_626\n        /* \"#utility.yul\":23898:23901   */\n      dup3\n        /* \"#utility.yul\":23865:23902   */\n      tag_348\n      jump\t// in\n    tag_626:\n        /* \"#utility.yul\":23967:23985   */\n      0xffffffffffffffff\n        /* \"#utility.yul\":23959:23965   */\n      dup2\n        /* \"#utility.yul\":23956:23986   */\n      gt\n        /* \"#utility.yul\":23953:24009   */\n      iszero\n      tag_627\n      jumpi\n        /* \"#utility.yul\":23989:24007   */\n      tag_628\n      tag_193\n      jump\t// in\n    tag_628:\n        /* \"#utility.yul\":23953:24009   */\n    tag_627:\n        /* \"#utility.yul\":24033:24071   */\n      tag_629\n        /* \"#utility.yul\":24065:24069   */\n      dup3\n        /* \"#utility.yul\":24059:24070   */\n      sload\n        /* \"#utility.yul\":24033:24071   */\n      tag_132\n      jump\t// in\n    tag_629:\n        /* \"#utility.yul\":24118:24185   */\n      tag_630\n        /* \"#utility.yul\":24178:24184   */\n      dup3\n        /* \"#utility.yul\":24170:24176   */\n      dup3\n        /* \"#utility.yul\":24164:24168   */\n      dup6\n        /* \"#utility.yul\":24118:24185   */\n      tag_402\n      jump\t// in\n    tag_630:\n        /* \"#utility.yul\":24212:24213   */\n      0x00\n        /* \"#utility.yul\":24236:24240   */\n      0x20\n        /* \"#utility.yul\":24223:24240   */\n      swap1\n      pop\n        /* \"#utility.yul\":24268:24270   */\n      0x1f\n        /* \"#utility.yul\":24260:24266   */\n      dup4\n        /* \"#utility.yul\":24257:24271   */\n      gt\n        /* \"#utility.yul\":24285:24286   */\n      0x01\n        /* \"#utility.yul\":24280:24898   */\n      dup2\n      eq\n      tag_632\n      jumpi\n        /* \"#utility.yul\":24942:24943   */\n      0x00\n        /* \"#utility.yul\":24959:24965   */\n      dup5\n        /* \"#utility.yul\":24956:25033   */\n      iszero\n      tag_633\n      jumpi\n        /* \"#utility.yul\":25008:25017   */\n      dup3\n        /* \"#utility.yul\":25003:25006   */\n      dup8\n        /* \"#utility.yul\":24999:25018   */\n      add\n        /* \"#utility.yul\":24993:25019   */\n      mload\n        /* \"#utility.yul\":24984:25019   */\n      swap1\n      pop\n        /* \"#utility.yul\":24956:25033   */\n    tag_633:\n        /* \"#utility.yul\":25059:25126   */\n      tag_634\n        /* \"#utility.yul\":25119:25125   */\n      dup6\n        /* \"#utility.yul\":25112:25117   */\n      dup3\n        /* \"#utility.yul\":25059:25126   */\n      tag_405\n      jump\t// in\n    tag_634:\n        /* \"#utility.yul\":25053:25057   */\n      dup7\n        /* \"#utility.yul\":25046:25127   */\n      sstore\n        /* \"#utility.yul\":24915:25137   */\n      pop\n        /* \"#utility.yul\":24250:25137   */\n      jump(tag_631)\n        /* \"#utility.yul\":24280:24898   */\n    tag_632:\n        /* \"#utility.yul\":24332:24336   */\n      0x1f\n        /* \"#utility.yul\":24328:24337   */\n      not\n        /* \"#utility.yul\":24320:24326   */\n      dup5\n        /* \"#utility.yul\":24316:24338   */\n      and\n        /* \"#utility.yul\":24366:24403   */\n      tag_635\n        /* \"#utility.yul\":24398:24402   */\n      dup7\n        /* \"#utility.yul\":24366:24403   */\n      tag_390\n      jump\t// in\n    tag_635:\n        /* \"#utility.yul\":24425:24426   */\n      0x00\n        /* \"#utility.yul\":24439:24647   */\n    tag_636:\n        /* \"#utility.yul\":24453:24460   */\n      dup3\n        /* \"#utility.yul\":24450:24451   */\n      dup2\n        /* \"#utility.yul\":24447:24461   */\n      lt\n        /* \"#utility.yul\":24439:24647   */\n      iszero\n      tag_638\n      jumpi\n        /* \"#utility.yul\":24532:24541   */\n      dup5\n        /* \"#utility.yul\":24527:24530   */\n      dup10\n        /* \"#utility.yul\":24523:24542   */\n      add\n        /* \"#utility.yul\":24517:24543   */\n      mload\n        /* \"#utility.yul\":24509:24515   */\n      dup3\n        /* \"#utility.yul\":24502:24544   */\n      sstore\n        /* \"#utility.yul\":24583:24584   */\n      0x01\n        /* \"#utility.yul\":24575:24581   */\n      dup3\n        /* \"#utility.yul\":24571:24585   */\n      add\n        /* \"#utility.yul\":24561:24585   */\n      swap2\n      pop\n        /* \"#utility.yul\":24630:24632   */\n      0x20\n        /* \"#utility.yul\":24619:24628   */\n      dup6\n        /* \"#utility.yul\":24615:24633   */\n      add\n        /* \"#utility.yul\":24602:24633   */\n      swap5\n      pop\n        /* \"#utility.yul\":24476:24480   */\n      0x20\n        /* \"#utility.yul\":24473:24474   */\n      dup2\n        /* \"#utility.yul\":24469:24481   */\n      add\n        /* \"#utility.yul\":24464:24481   */\n      swap1\n      pop\n        /* \"#utility.yul\":24439:24647   */\n      jump(tag_636)\n    tag_638:\n        /* \"#utility.yul\":24675:24681   */\n      dup7\n        /* \"#utility.yul\":24666:24673   */\n      dup4\n        /* \"#utility.yul\":24663:24682   */\n      lt\n        /* \"#utility.yul\":24660:24839   */\n      iszero\n      tag_639\n      jumpi\n        /* \"#utility.yul\":24733:24742   */\n      dup5\n        /* \"#utility.yul\":24728:24731   */\n      dup10\n        /* \"#utility.yul\":24724:24743   */\n      add\n        /* \"#utility.yul\":24718:24744   */\n      mload\n        /* \"#utility.yul\":24776:24824   */\n      tag_640\n        /* \"#utility.yul\":24818:24822   */\n      0x1f\n        /* \"#utility.yul\":24810:24816   */\n      dup10\n        /* \"#utility.yul\":24806:24823   */\n      and\n        /* \"#utility.yul\":24795:24804   */\n      dup3\n        /* \"#utility.yul\":24776:24824   */\n      tag_404\n      jump\t// in\n    tag_640:\n        /* \"#utility.yul\":24768:24774   */\n      dup4\n        /* \"#utility.yul\":24761:24825   */\n      sstore\n        /* \"#utility.yul\":24683:24839   */\n      pop\n        /* \"#utility.yul\":24660:24839   */\n    tag_639:\n        /* \"#utility.yul\":24885:24886   */\n      0x01\n        /* \"#utility.yul\":24881:24882   */\n      0x02\n        /* \"#utility.yul\":24873:24879   */\n      dup9\n        /* \"#utility.yul\":24869:24883   */\n      mul\n        /* \"#utility.yul\":24865:24887   */\n      add\n        /* \"#utility.yul\":24859:24863   */\n      dup9\n        /* \"#utility.yul\":24852:24888   */\n      sstore\n        /* \"#utility.yul\":24287:24898   */\n      pop\n      pop\n      pop\n        /* \"#utility.yul\":24250:25137   */\n    tag_631:\n      pop\n        /* \"#utility.yul\":23840:25143   */\n      pop\n      pop\n      pop\n        /* \"#utility.yul\":23748:25143   */\n      pop\n      pop\n      jump\t// out\n        /* \"#utility.yul\":25149:25343   */\n    tag_181:\n        /* \"#utility.yul\":25189:25193   */\n      0x00\n        /* \"#utility.yul\":25209:25229   */\n      tag_642\n        /* \"#utility.yul\":25227:25228   */\n      dup3\n        /* \"#utility.yul\":25209:25229   */\n      tag_394\n      jump\t// in\n    tag_642:\n        /* \"#utility.yul\":25204:25229   */\n      swap2\n      pop\n        /* \"#utility.yul\":25243:25263   */\n      tag_643\n        /* \"#utility.yul\":25261:25262   */\n      dup4\n        /* \"#utility.yul\":25243:25263   */\n      tag_394\n      jump\t// in\n    tag_643:\n        /* \"#utility.yul\":25238:25263   */\n      swap3\n      pop\n        /* \"#utility.yul\":25287:25288   */\n      dup3\n        /* \"#utility.yul\":25284:25285   */\n      dup3\n        /* \"#utility.yul\":25280:25289   */\n      sub\n        /* \"#utility.yul\":25272:25289   */\n      swap1\n      pop\n        /* \"#utility.yul\":25311:25312   */\n      dup2\n        /* \"#utility.yul\":25305:25309   */\n      dup2\n        /* \"#utility.yul\":25302:25313   */\n      gt\n        /* \"#utility.yul\":25299:25336   */\n      iszero\n      tag_644\n      jumpi\n        /* \"#utility.yul\":25316:25334   */\n      tag_645\n      tag_380\n      jump\t// in\n    tag_645:\n        /* \"#utility.yul\":25299:25336   */\n    tag_644:\n        /* \"#utility.yul\":25149:25343   */\n      swap3\n      swap2\n      pop\n      pop\n      jump\t// out\n        /* \"#utility.yul\":25349:25577   */\n    tag_406:\n        /* \"#utility.yul\":25489:25523   */\n      0x546865207265676973746572696e6720766f74657273206973206e6f74206f70\n        /* \"#utility.yul\":25485:25486   */\n      0x00\n        /* \"#utility.yul\":25477:25483   */\n      dup3\n        /* \"#utility.yul\":25473:25487   */\n      add\n        /* \"#utility.yul\":25466:25524   */\n      mstore\n        /* \"#utility.yul\":25558:25569   */\n      0x656e6564207965742e0000000000000000000000000000000000000000000000\n        /* \"#utility.yul\":25553:25555   */\n      0x20\n        /* \"#utility.yul\":25545:25551   */\n      dup3\n        /* \"#utility.yul\":25541:25556   */\n      add\n        /* \"#utility.yul\":25534:25570   */\n      mstore\n        /* \"#utility.yul\":25349:25577   */\n      pop\n      jump\t// out\n        /* \"#utility.yul\":25583:25949   */\n    tag_407:\n        /* \"#utility.yul\":25725:25728   */\n      0x00\n        /* \"#utility.yul\":25746:25813   */\n      tag_648\n        /* \"#utility.yul\":25810:25812   */\n      0x29\n        /* \"#utility.yul\":25805:25808   */\n      dup4\n        /* \"#utility.yul\":25746:25813   */\n      tag_367\n      jump\t// in\n    tag_648:\n        /* \"#utility.yul\":25739:25813   */\n      swap2\n      pop\n        /* \"#utility.yul\":25822:25915   */\n      tag_649\n        /* \"#utility.yul\":25911:25914   */\n      dup3\n        /* \"#utility.yul\":25822:25915   */\n      tag_406\n      jump\t// in\n    tag_649:\n        /* \"#utility.yul\":25940:25942   */\n      0x40\n        /* \"#utility.yul\":25935:25938   */\n      dup3\n        /* \"#utility.yul\":25931:25943   */\n      add\n        /* \"#utility.yul\":25924:25943   */\n      swap1\n      pop\n        /* \"#utility.yul\":25583:25949   */\n      swap2\n      swap1\n      pop\n      jump\t// out\n        /* \"#utility.yul\":25955:26374   */\n    tag_227:\n        /* \"#utility.yul\":26121:26125   */\n      0x00\n        /* \"#utility.yul\":26159:26161   */\n      0x20\n        /* \"#utility.yul\":26148:26157   */\n      dup3\n        /* \"#utility.yul\":26144:26162   */\n      add\n        /* \"#utility.yul\":26136:26162   */\n      swap1\n      pop\n        /* \"#utility.yul\":26208:26217   */\n      dup2\n        /* \"#utility.yul\":26202:26206   */\n      dup2\n        /* \"#utility.yul\":26198:26218   */\n      sub\n        /* \"#utility.yul\":26194:26195   */\n      0x00\n        /* \"#utility.yul\":26183:26192   */\n      dup4\n        /* \"#utility.yul\":26179:26196   */\n      add\n        /* \"#utility.yul\":26172:26219   */\n      mstore\n        /* \"#utility.yul\":26236:26367   */\n      tag_651\n        /* \"#utility.yul\":26362:26366   */\n      dup2\n        /* \"#utility.yul\":26236:26367   */\n      tag_407\n      jump\t// in\n    tag_651:\n        /* \"#utility.yul\":26228:26367   */\n      swap1\n      pop\n        /* \"#utility.yul\":25955:26374   */\n      swap2\n      swap1\n      pop\n      jump\t// out\n        /* \"#utility.yul\":26380:26631   */\n    tag_408:\n        /* \"#utility.yul\":26520:26554   */\n      0x4e656564206174206c656173742074776f207265676973746572656420766f74\n        /* \"#utility.yul\":26516:26517   */\n      0x00\n        /* \"#utility.yul\":26508:26514   */\n      dup3\n        /* \"#utility.yul\":26504:26518   */\n      add\n        /* \"#utility.yul\":26497:26555   */\n      mstore\n        /* \"#utility.yul\":26589:26623   */\n      0x65727320746f20737461727420612070726f706f73616c2073657373696f6e2e\n        /* \"#utility.yul\":26584:26586   */\n      0x20\n        /* \"#utility.yul\":26576:26582   */\n      dup3\n        /* \"#utility.yul\":26572:26587   */\n      add\n        /* \"#utility.yul\":26565:26624   */\n      mstore\n        /* \"#utility.yul\":26380:26631   */\n      pop\n      jump\t// out\n        /* \"#utility.yul\":26637:27003   */\n    tag_409:\n        /* \"#utility.yul\":26779:26782   */\n      0x00\n        /* \"#utility.yul\":26800:26867   */\n      tag_654\n        /* \"#utility.yul\":26864:26866   */\n      0x40\n        /* \"#utility.yul\":26859:26862   */\n      dup4\n        /* \"#utility.yul\":26800:26867   */\n      tag_367\n      jump\t// in\n    tag_654:\n        /* \"#utility.yul\":26793:26867   */\n      swap2\n      pop\n        /* \"#utility.yul\":26876:26969   */\n      tag_655\n        /* \"#utility.yul\":26965:26968   */\n      dup3\n        /* \"#utility.yul\":26876:26969   */\n      tag_408\n      jump\t// in\n    tag_655:\n        /* \"#utility.yul\":26994:26996   */\n      0x40\n        /* \"#utility.yul\":26989:26992   */\n      dup3\n        /* \"#utility.yul\":26985:26997   */\n      add\n        /* \"#utility.yul\":26978:26997   */\n      swap1\n      pop\n        /* \"#utility.yul\":26637:27003   */\n      swap2\n      swap1\n      pop\n      jump\t// out\n        /* \"#utility.yul\":27009:27428   */\n    tag_230:\n        /* \"#utility.yul\":27175:27179   */\n      0x00\n        /* \"#utility.yul\":27213:27215   */\n      0x20\n        /* \"#utility.yul\":27202:27211   */\n      dup3\n        /* \"#utility.yul\":27198:27216   */\n      add\n        /* \"#utility.yul\":27190:27216   */\n      swap1\n      pop\n        /* \"#utility.yul\":27262:27271   */\n      dup2\n        /* \"#utility.yul\":27256:27260   */\n      dup2\n        /* \"#utility.yul\":27252:27272   */\n      sub\n        /* \"#utility.yul\":27248:27249   */\n      0x00\n        /* \"#utility.yul\":27237:27246   */\n      dup4\n        /* \"#utility.yul\":27233:27250   */\n      add\n        /* \"#utility.yul\":27226:27273   */\n      mstore\n        /* \"#utility.yul\":27290:27421   */\n      tag_657\n        /* \"#utility.yul\":27416:27420   */\n      dup2\n        /* \"#utility.yul\":27290:27421   */\n      tag_409\n      jump\t// in\n    tag_657:\n        /* \"#utility.yul\":27282:27421   */\n      swap1\n      pop\n        /* \"#utility.yul\":27009:27428   */\n      swap2\n      swap1\n      pop\n      jump\t// out\n        /* \"#utility.yul\":27434:27615   */\n    tag_410:\n        /* \"#utility.yul\":27574:27607   */\n      0x54686520766f746520636f756e74206973206e6f74206f766572207965742e00\n        /* \"#utility.yul\":27570:27571   */\n      0x00\n        /* \"#utility.yul\":27562:27568   */\n      dup3\n        /* \"#utility.yul\":27558:27572   */\n      add\n        /* \"#utility.yul\":27551:27608   */\n      mstore\n        /* \"#utility.yul\":27434:27615   */\n      pop\n      jump\t// out\n        /* \"#utility.yul\":27621:27987   */\n    tag_411:\n        /* \"#utility.yul\":27763:27766   */\n      0x00\n        /* \"#utility.yul\":27784:27851   */\n      tag_660\n        /* \"#utility.yul\":27848:27850   */\n      0x1f\n        /* \"#utility.yul\":27843:27846   */\n      dup4\n        /* \"#utility.yul\":27784:27851   */\n      tag_367\n      jump\t// in\n    tag_660:\n        /* \"#utility.yul\":27777:27851   */\n      swap2\n      pop\n        /* \"#utility.yul\":27860:27953   */\n      tag_661\n        /* \"#utility.yul\":27949:27952   */\n      dup3\n        /* \"#utility.yul\":27860:27953   */\n      tag_410\n      jump\t// in\n    tag_661:\n        /* \"#utility.yul\":27978:27980   */\n      0x20\n        /* \"#utility.yul\":27973:27976   */\n      dup3\n        /* \"#utility.yul\":27969:27981   */\n      add\n        /* \"#utility.yul\":27962:27981   */\n      swap1\n      pop\n        /* \"#utility.yul\":27621:27987   */\n      swap2\n      swap1\n      pop\n      jump\t// out\n        /* \"#utility.yul\":27993:28412   */\n    tag_241:\n        /* \"#utility.yul\":28159:28163   */\n      0x00\n        /* \"#utility.yul\":28197:28199   */\n      0x20\n        /* \"#utility.yul\":28186:28195   */\n      dup3\n        /* \"#utility.yul\":28182:28200   */\n      add\n        /* \"#utility.yul\":28174:28200   */\n      swap1\n      pop\n        /* \"#utility.yul\":28246:28255   */\n      dup2\n        /* \"#utility.yul\":28240:28244   */\n      dup2\n        /* \"#utility.yul\":28236:28256   */\n      sub\n        /* \"#utility.yul\":28232:28233   */\n      0x00\n        /* \"#utility.yul\":28221:28230   */\n      dup4\n        /* \"#utility.yul\":28217:28234   */\n      add\n        /* \"#utility.yul\":28210:28257   */\n      mstore\n        /* \"#utility.yul\":28274:28405   */\n      tag_663\n        /* \"#utility.yul\":28400:28404   */\n      dup2\n        /* \"#utility.yul\":28274:28405   */\n      tag_411\n      jump\t// in\n    tag_663:\n        /* \"#utility.yul\":28266:28405   */\n      swap1\n      pop\n        /* \"#utility.yul\":27993:28412   */\n      swap2\n      swap1\n      pop\n      jump\t// out\n        /* \"#utility.yul\":28418:28600   */\n    tag_412:\n        /* \"#utility.yul\":28558:28592   */\n      0x54686520766f74657220697320616c726561647920726567697374657265642e\n        /* \"#utility.yul\":28554:28555   */\n      0x00\n        /* \"#utility.yul\":28546:28552   */\n      dup3\n        /* \"#utility.yul\":28542:28556   */\n      add\n        /* \"#utility.yul\":28535:28593   */\n      mstore\n        /* \"#utility.yul\":28418:28600   */\n      pop\n      jump\t// out\n        /* \"#utility.yul\":28606:28972   */\n    tag_413:\n        /* \"#utility.yul\":28748:28751   */\n      0x00\n        /* \"#utility.yul\":28769:28836   */\n      tag_666\n        /* \"#utility.yul\":28833:28835   */\n      0x20\n        /* \"#utility.yul\":28828:28831   */\n      dup4\n        /* \"#utility.yul\":28769:28836   */\n      tag_367\n      jump\t// in\n    tag_666:\n        /* \"#utility.yul\":28762:28836   */\n      swap2\n      pop\n        /* \"#utility.yul\":28845:28938   */\n      tag_667\n        /* \"#utility.yul\":28934:28937   */\n      dup3\n        /* \"#utility.yul\":28845:28938   */\n      tag_412\n      jump\t// in\n    tag_667:\n        /* \"#utility.yul\":28963:28965   */\n      0x20\n        /* \"#utility.yul\":28958:28961   */\n      dup3\n        /* \"#utility.yul\":28954:28966   */\n      add\n        /* \"#utility.yul\":28947:28966   */\n      swap1\n      pop\n        /* \"#utility.yul\":28606:28972   */\n      swap2\n      swap1\n      pop\n      jump\t// out\n        /* \"#utility.yul\":28978:29397   */\n    tag_261:\n        /* \"#utility.yul\":29144:29148   */\n      0x00\n        /* \"#utility.yul\":29182:29184   */\n      0x20\n        /* \"#utility.yul\":29171:29180   */\n      dup3\n        /* \"#utility.yul\":29167:29185   */\n      add\n        /* \"#utility.yul\":29159:29185   */\n      swap1\n      pop\n        /* \"#utility.yul\":29231:29240   */\n      dup2\n        /* \"#utility.yul\":29225:29229   */\n      dup2\n        /* \"#utility.yul\":29221:29241   */\n      sub\n        /* \"#utility.yul\":29217:29218   */\n      0x00\n        /* \"#utility.yul\":29206:29215   */\n      dup4\n        /* \"#utility.yul\":29202:29219   */\n      add\n        /* \"#utility.yul\":29195:29242   */\n      mstore\n        /* \"#utility.yul\":29259:29390   */\n      tag_669\n        /* \"#utility.yul\":29385:29389   */\n      dup2\n        /* \"#utility.yul\":29259:29390   */\n      tag_413\n      jump\t// in\n    tag_669:\n        /* \"#utility.yul\":29251:29390   */\n      swap1\n      pop\n        /* \"#utility.yul\":28978:29397   */\n      swap2\n      swap1\n      pop\n      jump\t// out\n        /* \"#utility.yul\":29403:29633   */\n    tag_414:\n        /* \"#utility.yul\":29543:29577   */\n      0x5468652070726f706f73616c20726567697374726174696f6e206973206e6f74\n        /* \"#utility.yul\":29539:29540   */\n      0x00\n        /* \"#utility.yul\":29531:29537   */\n      dup3\n        /* \"#utility.yul\":29527:29541   */\n      add\n        /* \"#utility.yul\":29520:29578   */\n      mstore\n        /* \"#utility.yul\":29612:29625   */\n      0x20656e646564207965742e000000000000000000000000000000000000000000\n        /* \"#utility.yul\":29607:29609   */\n      0x20\n        /* \"#utility.yul\":29599:29605   */\n      dup3\n        /* \"#utility.yul\":29595:29610   */\n      add\n        /* \"#utility.yul\":29588:29626   */\n      mstore\n        /* \"#utility.yul\":29403:29633   */\n      pop\n      jump\t// out\n        /* \"#utility.yul\":29639:30005   */\n    tag_415:\n        /* \"#utility.yul\":29781:29784   */\n      0x00\n        /* \"#utility.yul\":29802:29869   */\n      tag_672\n        /* \"#utility.yul\":29866:29868   */\n      0x2b\n        /* \"#utility.yul\":29861:29864   */\n      dup4\n        /* \"#utility.yul\":29802:29869   */\n      tag_367\n      jump\t// in\n    tag_672:\n        /* \"#utility.yul\":29795:29869   */\n      swap2\n      pop\n        /* \"#utility.yul\":29878:29971   */\n      tag_673\n        /* \"#utility.yul\":29967:29970   */\n      dup3\n        /* \"#utility.yul\":29878:29971   */\n      tag_414\n      jump\t// in\n    tag_673:\n        /* \"#utility.yul\":29996:29998   */\n      0x40\n        /* \"#utility.yul\":29991:29994   */\n      dup3\n        /* \"#utility.yul\":29987:29999   */\n      add\n        /* \"#utility.yul\":29980:29999   */\n      swap1\n      pop\n        /* \"#utility.yul\":29639:30005   */\n      swap2\n      swap1\n      pop\n      jump\t// out\n        /* \"#utility.yul\":30011:30430   */\n    tag_273:\n        /* \"#utility.yul\":30177:30181   */\n      0x00\n        /* \"#utility.yul\":30215:30217   */\n      0x20\n        /* \"#utility.yul\":30204:30213   */\n      dup3\n        /* \"#utility.yul\":30200:30218   */\n      add\n        /* \"#utility.yul\":30192:30218   */\n      swap1\n      pop\n        /* \"#utility.yul\":30264:30273   */\n      dup2\n        /* \"#utility.yul\":30258:30262   */\n      dup2\n        /* \"#utility.yul\":30254:30274   */\n      sub\n        /* \"#utility.yul\":30250:30251   */\n      0x00\n        /* \"#utility.yul\":30239:30248   */\n      dup4\n        /* \"#utility.yul\":30235:30252   */\n      add\n        /* \"#utility.yul\":30228:30275   */\n      mstore\n        /* \"#utility.yul\":30292:30423   */\n      tag_675\n        /* \"#utility.yul\":30418:30422   */\n      dup2\n        /* \"#utility.yul\":30292:30423   */\n      tag_415\n      jump\t// in\n    tag_675:\n        /* \"#utility.yul\":30284:30423   */\n      swap1\n      pop\n        /* \"#utility.yul\":30011:30430   */\n      swap2\n      swap1\n      pop\n      jump\t// out\n        /* \"#utility.yul\":30436:30686   */\n    tag_416:\n        /* \"#utility.yul\":30576:30610   */\n      0x4e656564206174206c65617374206f6e6520766f746520696e20612070726f70\n        /* \"#utility.yul\":30572:30573   */\n      0x00\n        /* \"#utility.yul\":30564:30570   */\n      dup3\n        /* \"#utility.yul\":30560:30574   */\n      add\n        /* \"#utility.yul\":30553:30611   */\n      mstore\n        /* \"#utility.yul\":30645:30678   */\n      0x726f73616c20746f2073746f70206120766f74696e672073657373696f6e2e00\n        /* \"#utility.yul\":30640:30642   */\n      0x20\n        /* \"#utility.yul\":30632:30638   */\n      dup3\n        /* \"#utility.yul\":30628:30643   */\n      add\n        /* \"#utility.yul\":30621:30679   */\n      mstore\n        /* \"#utility.yul\":30436:30686   */\n      pop\n      jump\t// out\n        /* \"#utility.yul\":30692:31058   */\n    tag_417:\n        /* \"#utility.yul\":30834:30837   */\n      0x00\n        /* \"#utility.yul\":30855:30922   */\n      tag_678\n        /* \"#utility.yul\":30919:30921   */\n      0x3f\n        /* \"#utility.yul\":30914:30917   */\n      dup4\n        /* \"#utility.yul\":30855:30922   */\n      tag_367\n      jump\t// in\n    tag_678:\n        /* \"#utility.yul\":30848:30922   */\n      swap2\n      pop\n        /* \"#utility.yul\":30931:31024   */\n      tag_679\n        /* \"#utility.yul\":31020:31023   */\n      dup3\n        /* \"#utility.yul\":30931:31024   */\n      tag_416\n      jump\t// in\n    tag_679:\n        /* \"#utility.yul\":31049:31051   */\n      0x40\n        /* \"#utility.yul\":31044:31047   */\n      dup3\n        /* \"#utility.yul\":31040:31052   */\n      add\n        /* \"#utility.yul\":31033:31052   */\n      swap1\n      pop\n        /* \"#utility.yul\":30692:31058   */\n      swap2\n      swap1\n      pop\n      jump\t// out\n        /* \"#utility.yul\":31064:31483   */\n    tag_286:\n        /* \"#utility.yul\":31230:31234   */\n      0x00\n        /* \"#utility.yul\":31268:31270   */\n      0x20\n        /* \"#utility.yul\":31257:31266   */\n      dup3\n        /* \"#utility.yul\":31253:31271   */\n      add\n        /* \"#utility.yul\":31245:31271   */\n      swap1\n      pop\n        /* \"#utility.yul\":31317:31326   */\n      dup2\n        /* \"#utility.yul\":31311:31315   */\n      dup2\n        /* \"#utility.yul\":31307:31327   */\n      sub\n        /* \"#utility.yul\":31303:31304   */\n      0x00\n        /* \"#utility.yul\":31292:31301   */\n      dup4\n        /* \"#utility.yul\":31288:31305   */\n      add\n        /* \"#utility.yul\":31281:31328   */\n      mstore\n        /* \"#utility.yul\":31345:31476   */\n      tag_681\n        /* \"#utility.yul\":31471:31475   */\n      dup2\n        /* \"#utility.yul\":31345:31476   */\n      tag_417\n      jump\t// in\n    tag_681:\n        /* \"#utility.yul\":31337:31476   */\n      swap1\n      pop\n        /* \"#utility.yul\":31064:31483   */\n      swap2\n      swap1\n      pop\n      jump\t// out\n        /* \"#utility.yul\":31489:31712   */\n    tag_418:\n        /* \"#utility.yul\":31629:31663   */\n      0x54686520766f74696e672073657373696f6e206973206e6f7420656e64656420\n        /* \"#utility.yul\":31625:31626   */\n      0x00\n        /* \"#utility.yul\":31617:31623   */\n      dup3\n        /* \"#utility.yul\":31613:31627   */\n      add\n        /* \"#utility.yul\":31606:31664   */\n      mstore\n        /* \"#utility.yul\":31698:31704   */\n      0x7965742e00000000000000000000000000000000000000000000000000000000\n        /* \"#utility.yul\":31693:31695   */\n      0x20\n        /* \"#utility.yul\":31685:31691   */\n      dup3\n        /* \"#utility.yul\":31681:31696   */\n      add\n        /* \"#utility.yul\":31674:31705   */\n      mstore\n        /* \"#utility.yul\":31489:31712   */\n      pop\n      jump\t// out\n        /* \"#utility.yul\":31718:32084   */\n    tag_419:\n        /* \"#utility.yul\":31860:31863   */\n      0x00\n        /* \"#utility.yul\":31881:31948   */\n      tag_684\n        /* \"#utility.yul\":31945:31947   */\n      0x24\n        /* \"#utility.yul\":31940:31943   */\n      dup4\n        /* \"#utility.yul\":31881:31948   */\n      tag_367\n      jump\t// in\n    tag_684:\n        /* \"#utility.yul\":31874:31948   */\n      swap2\n      pop\n        /* \"#utility.yul\":31957:32050   */\n      tag_685\n        /* \"#utility.yul\":32046:32049   */\n      dup3\n        /* \"#utility.yul\":31957:32050   */\n      tag_418\n      jump\t// in\n    tag_685:\n        /* \"#utility.yul\":32075:32077   */\n      0x40\n        /* \"#utility.yul\":32070:32073   */\n      dup3\n        /* \"#utility.yul\":32066:32078   */\n      add\n        /* \"#utility.yul\":32059:32078   */\n      swap1\n      pop\n        /* \"#utility.yul\":31718:32084   */\n      swap2\n      swap1\n      pop\n      jump\t// out\n        /* \"#utility.yul\":32090:32509   */\n    tag_297:\n        /* \"#utility.yul\":32256:32260   */\n      0x00\n        /* \"#utility.yul\":32294:32296   */\n      0x20\n        /* \"#utility.yul\":32283:32292   */\n      dup3\n        /* \"#utility.yul\":32279:32297   */\n      add\n        /* \"#utility.yul\":32271:32297   */\n      swap1\n      pop\n        /* \"#utility.yul\":32343:32352   */\n      dup2\n        /* \"#utility.yul\":32337:32341   */\n      dup2\n        /* \"#utility.yul\":32333:32353   */\n      sub\n        /* \"#utility.yul\":32329:32330   */\n      0x00\n        /* \"#utility.yul\":32318:32327   */\n      dup4\n        /* \"#utility.yul\":32314:32331   */\n      add\n        /* \"#utility.yul\":32307:32354   */\n      mstore\n        /* \"#utility.yul\":32371:32502   */\n      tag_687\n        /* \"#utility.yul\":32497:32501   */\n      dup2\n        /* \"#utility.yul\":32371:32502   */\n      tag_419\n      jump\t// in\n    tag_687:\n        /* \"#utility.yul\":32363:32502   */\n      swap1\n      pop\n        /* \"#utility.yul\":32090:32509   */\n      swap2\n      swap1\n      pop\n      jump\t// out\n        /* \"#utility.yul\":32515:32740   */\n    tag_420:\n        /* \"#utility.yul\":32655:32689   */\n      0x4f776e61626c653a206e6577206f776e657220697320746865207a65726f2061\n        /* \"#utility.yul\":32651:32652   */\n      0x00\n        /* \"#utility.yul\":32643:32649   */\n      dup3\n        /* \"#utility.yul\":32639:32653   */\n      add\n        /* \"#utility.yul\":32632:32690   */\n      mstore\n        /* \"#utility.yul\":32724:32732   */\n      0x6464726573730000000000000000000000000000000000000000000000000000\n        /* \"#utility.yul\":32719:32721   */\n      0x20\n        /* \"#utility.yul\":32711:32717   */\n      dup3\n        /* \"#utility.yul\":32707:32722   */\n      add\n        /* \"#utility.yul\":32700:32733   */\n      mstore\n        /* \"#utility.yul\":32515:32740   */\n      pop\n      jump\t// out\n        /* \"#utility.yul\":32746:33112   */\n    tag_421:\n        /* \"#utility.yul\":32888:32891   */\n      0x00\n        /* \"#utility.yul\":32909:32976   */\n      tag_690\n        /* \"#utility.yul\":32973:32975   */\n      0x26\n        /* \"#utility.yul\":32968:32971   */\n      dup4\n        /* \"#utility.yul\":32909:32976   */\n      tag_367\n      jump\t// in\n    tag_690:\n        /* \"#utility.yul\":32902:32976   */\n      swap2\n      pop\n        /* \"#utility.yul\":32985:33078   */\n      tag_691\n        /* \"#utility.yul\":33074:33077   */\n      dup3\n        /* \"#utility.yul\":32985:33078   */\n      tag_420\n      jump\t// in\n    tag_691:\n        /* \"#utility.yul\":33103:33105   */\n      0x40\n        /* \"#utility.yul\":33098:33101   */\n      dup3\n        /* \"#utility.yul\":33094:33106   */\n      add\n        /* \"#utility.yul\":33087:33106   */\n      swap1\n      pop\n        /* \"#utility.yul\":32746:33112   */\n      swap2\n      swap1\n      pop\n      jump\t// out\n        /* \"#utility.yul\":33118:33537   */\n    tag_304:\n        /* \"#utility.yul\":33284:33288   */\n      0x00\n        /* \"#utility.yul\":33322:33324   */\n      0x20\n        /* \"#utility.yul\":33311:33320   */\n      dup3\n        /* \"#utility.yul\":33307:33325   */\n      add\n        /* \"#utility.yul\":33299:33325   */\n      swap1\n      pop\n        /* \"#utility.yul\":33371:33380   */\n      dup2\n        /* \"#utility.yul\":33365:33369   */\n      dup2\n        /* \"#utility.yul\":33361:33381   */\n      sub\n        /* \"#utility.yul\":33357:33358   */\n      0x00\n        /* \"#utility.yul\":33346:33355   */\n      dup4\n        /* \"#utility.yul\":33342:33359   */\n      add\n        /* \"#utility.yul\":33335:33382   */\n      mstore\n        /* \"#utility.yul\":33399:33530   */\n      tag_693\n        /* \"#utility.yul\":33525:33529   */\n      dup2\n        /* \"#utility.yul\":33399:33530   */\n      tag_421\n      jump\t// in\n    tag_693:\n        /* \"#utility.yul\":33391:33530   */\n      swap1\n      pop\n        /* \"#utility.yul\":33118:33537   */\n      swap2\n      swap1\n      pop\n      jump\t// out\n        /* \"#utility.yul\":33543:33725   */\n    tag_422:\n        /* \"#utility.yul\":33683:33717   */\n      0x4f776e61626c653a2063616c6c6572206973206e6f7420746865206f776e6572\n        /* \"#utility.yul\":33679:33680   */\n      0x00\n        /* \"#utility.yul\":33671:33677   */\n      dup3\n        /* \"#utility.yul\":33667:33681   */\n      add\n        /* \"#utility.yul\":33660:33718   */\n      mstore\n        /* \"#utility.yul\":33543:33725   */\n      pop\n      jump\t// out\n        /* \"#utility.yul\":33731:34097   */\n    tag_423:\n        /* \"#utility.yul\":33873:33876   */\n      0x00\n        /* \"#utility.yul\":33894:33961   */\n      tag_696\n        /* \"#utility.yul\":33958:33960   */\n      0x20\n        /* \"#utility.yul\":33953:33956   */\n      dup4\n        /* \"#utility.yul\":33894:33961   */\n      tag_367\n      jump\t// in\n    tag_696:\n        /* \"#utility.yul\":33887:33961   */\n      swap2\n      pop\n        /* \"#utility.yul\":33970:34063   */\n      tag_697\n        /* \"#utility.yul\":34059:34062   */\n      dup3\n        /* \"#utility.yul\":33970:34063   */\n      tag_422\n      jump\t// in\n    tag_697:\n        /* \"#utility.yul\":34088:34090   */\n      0x20\n        /* \"#utility.yul\":34083:34086   */\n      dup3\n        /* \"#utility.yul\":34079:34091   */\n      add\n        /* \"#utility.yul\":34072:34091   */\n      swap1\n      pop\n        /* \"#utility.yul\":33731:34097   */\n      swap2\n      swap1\n      pop\n      jump\t// out\n        /* \"#utility.yul\":34103:34522   */\n    tag_312:\n        /* \"#utility.yul\":34269:34273   */\n      0x00\n        /* \"#utility.yul\":34307:34309   */\n      0x20\n        /* \"#utility.yul\":34296:34305   */\n      dup3\n        /* \"#utility.yul\":34292:34310   */\n      add\n        /* \"#utility.yul\":34284:34310   */\n      swap1\n      pop\n        /* \"#utility.yul\":34356:34365   */\n      dup2\n        /* \"#utility.yul\":34350:34354   */\n      dup2\n        /* \"#utility.yul\":34346:34366   */\n      sub\n        /* \"#utility.yul\":34342:34343   */\n      0x00\n        /* \"#utility.yul\":34331:34340   */\n      dup4\n        /* \"#utility.yul\":34327:34344   */\n      add\n        /* \"#utility.yul\":34320:34367   */\n      mstore\n        /* \"#utility.yul\":34384:34515   */\n      tag_699\n        /* \"#utility.yul\":34510:34514   */\n      dup2\n        /* \"#utility.yul\":34384:34515   */\n      tag_423\n      jump\t// in\n    tag_699:\n        /* \"#utility.yul\":34376:34515   */\n      swap1\n      pop\n        /* \"#utility.yul\":34103:34522   */\n      swap2\n      swap1\n      pop\n      jump\t// out\n        /* \"#utility.yul\":34528:34650   */\n    tag_424:\n        /* \"#utility.yul\":34618:34619   */\n      0x06\n        /* \"#utility.yul\":34611:34616   */\n      dup2\n        /* \"#utility.yul\":34608:34620   */\n      lt\n        /* \"#utility.yul\":34598:34644   */\n      tag_701\n      jumpi\n        /* \"#utility.yul\":34624:34642   */\n      tag_702\n      tag_73\n      jump\t// in\n    tag_702:\n        /* \"#utility.yul\":34598:34644   */\n    tag_701:\n        /* \"#utility.yul\":34528:34650   */\n      pop\n      jump\t// out\n        /* \"#utility.yul\":34656:34801   */\n    tag_425:\n        /* \"#utility.yul\":34710:34717   */\n      0x00\n        /* \"#utility.yul\":34739:34744   */\n      dup2\n        /* \"#utility.yul\":34728:34744   */\n      swap1\n      pop\n        /* \"#utility.yul\":34745:34795   */\n      tag_704\n        /* \"#utility.yul\":34789:34794   */\n      dup3\n        /* \"#utility.yul\":34745:34795   */\n      tag_424\n      jump\t// in\n    tag_704:\n        /* \"#utility.yul\":34656:34801   */\n      swap2\n      swap1\n      pop\n      jump\t// out\n        /* \"#utility.yul\":34807:34952   */\n    tag_426:\n        /* \"#utility.yul\":34872:34881   */\n      0x00\n        /* \"#utility.yul\":34905:34946   */\n      tag_706\n        /* \"#utility.yul\":34940:34945   */\n      dup3\n        /* \"#utility.yul\":34905:34946   */\n      tag_425\n      jump\t// in\n    tag_706:\n        /* \"#utility.yul\":34892:34946   */\n      swap1\n      pop\n        /* \"#utility.yul\":34807:34952   */\n      swap2\n      swap1\n      pop\n      jump\t// out\n        /* \"#utility.yul\":34958:35119   */\n    tag_427:\n        /* \"#utility.yul\":35060:35112   */\n      tag_708\n        /* \"#utility.yul\":35106:35111   */\n      dup2\n        /* \"#utility.yul\":35060:35112   */\n      tag_426\n      jump\t// in\n    tag_708:\n        /* \"#utility.yul\":35055:35058   */\n      dup3\n        /* \"#utility.yul\":35048:35113   */\n      mstore\n        /* \"#utility.yul\":34958:35119   */\n      pop\n      pop\n      jump\t// out\n        /* \"#utility.yul\":35125:35517   */\n    tag_317:\n        /* \"#utility.yul\":35276:35280   */\n      0x00\n        /* \"#utility.yul\":35314:35316   */\n      0x40\n        /* \"#utility.yul\":35303:35312   */\n      dup3\n        /* \"#utility.yul\":35299:35317   */\n      add\n        /* \"#utility.yul\":35291:35317   */\n      swap1\n      pop\n        /* \"#utility.yul\":35327:35413   */\n      tag_710\n        /* \"#utility.yul\":35410:35411   */\n      0x00\n        /* \"#utility.yul\":35399:35408   */\n      dup4\n        /* \"#utility.yul\":35395:35412   */\n      add\n        /* \"#utility.yul\":35386:35392   */\n      dup6\n        /* \"#utility.yul\":35327:35413   */\n      tag_427\n      jump\t// in\n    tag_710:\n        /* \"#utility.yul\":35423:35510   */\n      tag_711\n        /* \"#utility.yul\":35506:35508   */\n      0x20\n        /* \"#utility.yul\":35495:35504   */\n      dup4\n        /* \"#utility.yul\":35491:35509   */\n      add\n        /* \"#utility.yul\":35482:35488   */\n      dup5\n        /* \"#utility.yul\":35423:35510   */\n      tag_427\n      jump\t// in\n    tag_711:\n        /* \"#utility.yul\":35125:35517   */\n      swap4\n      swap3\n      pop\n      pop\n      pop\n      jump\t// out\n\n    auxdata: 0xa2646970667358221220fb1031ce8150d85264710f4f54417124b4516086295781d343a81cf470cdabd264736f6c63430008120033\n}\n",
				"bytecode": {
					"linkReferences": {},
					"object": "60806040523480156200001157600080fd5b5062000032620000266200003860201b60201c565b6200004060201b60201c565b62000104565b600033905090565b60008060009054906101000a900473ffffffffffffffffffffffffffffffffffffffff169050816000806101000a81548173ffffffffffffffffffffffffffffffffffffffff021916908373ffffffffffffffffffffffffffffffffffffffff1602179055508173ffffffffffffffffffffffffffffffffffffffff168173ffffffffffffffffffffffffffffffffffffffff167f8be0079c531659141344cd1fd0a4f28419497f9722a3daafe3b4186f6b6457e060405160405180910390a35050565b612faa80620001146000396000f3fe608060405234801561001057600080fd5b50600436106100f55760003560e01c80637669d79e11610097578063cf278c7411610066578063cf278c7414610212578063d13374031461021c578063d83f235b14610226578063f2fde38b14610230576100f5565b80637669d79e146101b05780638da5cb5b146101ba5780638e7ea5b2146101d8578063c145e3d5146101f6576100f5565b806352f33385116100d357806352f33385146101505780635f39ff211461015a5780636fbd32f614610176578063715018a6146101a6576100f5565b806304456224146100fa57806323e9df47146101045780635141e52014610120575b600080fd5b61010261024c565b005b61011e60048036038101906101199190611dbd565b61031d565b005b61013a60048036038101906101359190611e48565b610749565b6040516101479190611f51565b60405180910390f35b610158610a38565b005b610174600480360381019061016f9190611fd8565b610ca6565b005b610190600480360381019061018b9190611e48565b610f6a565b60405161019d9190612124565b60405180910390f35b6101ae6112c2565b005b6101b86112d6565b005b6101c26113b7565b6040516101cf9190612155565b60405180910390f35b6101e06113e0565b6040516101ed9190611f51565b60405180910390f35b610210600480360381019061020b9190611e48565b611555565b005b61021a611812565b005b61022461189c565b005b61022e61197c565b005b61024a60048036038101906102459190611e48565b611a06565b005b610254611a89565b6001600581111561026857610267612170565b5b6000601a9054906101000a900460ff16600581111561028a57610289612170565b5b146102ca576040517f08c379a00000000000000000000000000000000000000000000000000000000081526004016102c190612222565b60405180910390fd5b6001808054905011610311576040517f08c379a0000000000000000000000000000000000000000000000000000000008152600401610308906122b4565b60405180910390fd5b61031b6002611b07565b565b600360003373ffffffffffffffffffffffffffffffffffffffff1673ffffffffffffffffffffffffffffffffffffffff16815260200190815260200160002060000160009054906101000a900460ff166103ac576040517f08c379a00000000000000000000000000000000000000000000000000000000081526004016103a390612320565b60405180910390fd5b600360058111156103c0576103bf612170565b5b6000601a9054906101000a900460ff1660058111156103e2576103e1612170565b5b14610422576040517f08c379a0000000000000000000000000000000000000000000000000000000008152600401610419906123b2565b60405180910390fd5b600360003373ffffffffffffffffffffffffffffffffffffffff1673ffffffffffffffffffffffffffffffffffffffff16815260200190815260200160002060000160019054906101000a900460ff16156104b2576040517f08c379a00000000000000000000000000000000000000000000000000000000081526004016104a99061241e565b60405180910390fd5b6001805490508161ffff16106104fd576040517f08c379a00000000000000000000000000000000000000000000000000000000081526004016104f49061248a565b60405180910390fd5b80600360003373ffffffffffffffffffffffffffffffffffffffff1673ffffffffffffffffffffffffffffffffffffffff16815260200190815260200160002060000160026101000a81548161ffff021916908361ffff1602179055506001600360003373ffffffffffffffffffffffffffffffffffffffff1673ffffffffffffffffffffffffffffffffffffffff16815260200190815260200160002060000160016101000a81548160ff02191690831515021790555060018161ffff16815481106105cd576105cc6124aa565b5b9060005260206000209060020201600101600081819054906101000a900461ffff16809291906105fc90612508565b91906101000a81548161ffff021916908361ffff160217905550506000601681819054906101000a900461ffff168092919061063790612508565b91906101000a81548161ffff021916908361ffff160217905550506001600060149054906101000a900461ffff1661ffff168154811061067a576106796124aa565b5b906000526020600020906002020160010160009054906101000a900461ffff1661ffff1660018261ffff16815481106106b6576106b56124aa565b5b906000526020600020906002020160010160009054906101000a900461ffff1661ffff1611156106fe5780600060146101000a81548161ffff021916908361ffff1602179055505b8061ffff163373ffffffffffffffffffffffffffffffffffffffff167f2941e36a18e27644e8ea10bad396659ac866fd7a18a75015d088fc148e24d85460405160405180910390a350565b610751611c5c565b600360003373ffffffffffffffffffffffffffffffffffffffff1673ffffffffffffffffffffffffffffffffffffffff16815260200190815260200160002060000160009054906101000a900460ff166107e0576040517f08c379a00000000000000000000000000000000000000000000000000000000081526004016107d790612320565b60405180910390fd5b600360008373ffffffffffffffffffffffffffffffffffffffff1673ffffffffffffffffffffffffffffffffffffffff16815260200190815260200160002060000160009054906101000a900460ff1661086f576040517f08c379a00000000000000000000000000000000000000000000000000000000081526004016108669061257e565b60405180910390fd5b600360008373ffffffffffffffffffffffffffffffffffffffff1673ffffffffffffffffffffffffffffffffffffffff16815260200190815260200160002060000160019054906101000a900460ff166108fe576040517f08c379a00000000000000000000000000000000000000000000000000000000081526004016108f5906125ea565b60405180910390fd5b6001600360008473ffffffffffffffffffffffffffffffffffffffff1673ffffffffffffffffffffffffffffffffffffffff16815260200190815260200160002060000160029054906101000a900461ffff1661ffff1681548110610966576109656124aa565b5b906000526020600020906002020160405180604001604052908160008201805461098f90612639565b80601f01602080910402602001604051908101604052809291908181526020018280546109bb90612639565b8015610a085780601f106109dd57610100808354040283529160200191610a08565b820191906000526020600020905b8154815290600101906020018083116109eb57829003601f168201915b505050505081526020016001820160009054906101000a900461ffff1661ffff1661ffff16815250509050919050565b610a40611a89565b600580811115610a5357610a52612170565b5b6000601a9054906101000a900460ff166005811115610a7557610a74612170565b5b14610ab5576040517f08c379a0000000000000000000000000000000000000000000000000000000008152600401610aac906126dc565b60405180910390fd5b60008060146101000a81548161ffff021916908361ffff1602179055600060186101000a81548161ffff021916908361ffff1602179055600060166101000a81548161ffff021916908361ffff16021790555060005b6002805490508161ffff161015610c7d576004600060028361ffff1681548110610b3857610b376124aa565b5b9060005260206000200160009054906101000a900473ffffffffffffffffffffffffffffffffffffffff1673ffffffffffffffffffffffffffffffffffffffff1673ffffffffffffffffffffffffffffffffffffffff1681526020019081526020016000206000610ba99190611c7a565b6003600060028361ffff1681548110610bc557610bc46124aa565b5b9060005260206000200160009054906101000a900473ffffffffffffffffffffffffffffffffffffffff1673ffffffffffffffffffffffffffffffffffffffff1673ffffffffffffffffffffffffffffffffffffffff168152602001908152602001600020600080820160006101000a81549060ff02191690556000820160016101000a81549060ff02191690556000820160026101000a81549061ffff021916905550508080610c7590612508565b915050610b0b565b5060016000610c8c9190611c9b565b60026000610c9a9190611cbf565b610ca46000611b07565b565b600360003373ffffffffffffffffffffffffffffffffffffffff1673ffffffffffffffffffffffffffffffffffffffff16815260200190815260200160002060000160009054906101000a900460ff16610d35576040517f08c379a0000000000000000000000000000000000000000000000000000000008152600401610d2c90612320565b60405180910390fd5b60016005811115610d4957610d48612170565b5b6000601a9054906101000a900460ff166005811115610d6b57610d6a612170565b5b14610dab576040517f08c379a0000000000000000000000000000000000000000000000000000000008152600401610da290612222565b60405180910390fd5b60008282905011610df1576040517f08c379a0000000000000000000000000000000000000000000000000000000008152600401610de890612748565b60405180910390fd5b6001604051806040016040528084848080601f016020809104026020016040519081016040528093929190818152602001838380828437600081840152601f19601f820116905080830192505050505050508152602001600061ffff1681525090806001815401808255809150506001900390600052602060002090600202016000909190919091506000820151816000019081610e8f919061294d565b5060208201518160010160006101000a81548161ffff021916908361ffff1602179055505050600060018080549050610ec89190612a1f565b9050600460003373ffffffffffffffffffffffffffffffffffffffff1673ffffffffffffffffffffffffffffffffffffffff16815260200190815260200160002081908060018154018082558091505060019003906000526020600020016000909161ffff169091909150558061ffff167f3a4c611b68899d706a17379718e0e71bc4fbd91ba8e193b04e9876719d2d860360405160405180910390a2505050565b6060600360003373ffffffffffffffffffffffffffffffffffffffff1673ffffffffffffffffffffffffffffffffffffffff16815260200190815260200160002060000160009054906101000a900460ff16610ffb576040517f08c379a0000000000000000000000000000000000000000000000000000000008152600401610ff290612320565b60405180910390fd5b600360008373ffffffffffffffffffffffffffffffffffffffff1673ffffffffffffffffffffffffffffffffffffffff16815260200190815260200160002060000160009054906101000a900460ff1661108a576040517f08c379a00000000000000000000000000000000000000000000000000000000081526004016110819061257e565b60405180910390fd5b6000600460008473ffffffffffffffffffffffffffffffffffffffff1673ffffffffffffffffffffffffffffffffffffffff16815260200190815260200160002080548060200260200160405190810160405280929190818152602001828054801561111557602002820191906000526020600020905b815481526020019060010190808311611101575b505050505090506000815167ffffffffffffffff81111561113957611138612768565b5b60405190808252806020026020018201604052801561117257816020015b61115f611c5c565b8152602001906001900390816111575790505b50905060005b82518161ffff1610156112b7576001838261ffff168151811061119e5761119d6124aa565b5b6020026020010151815481106111b7576111b66124aa565b5b90600052602060002090600202016040518060400160405290816000820180546111e090612639565b80601f016020809104026020016040519081016040528092919081815260200182805461120c90612639565b80156112595780601f1061122e57610100808354040283529160200191611259565b820191906000526020600020905b81548152906001019060200180831161123c57829003601f168201915b505050505081526020016001820160009054906101000a900461ffff1661ffff1661ffff1681525050828261ffff1681518110611299576112986124aa565b5b602002602001018190525080806112af90612508565b915050611178565b508092505050919050565b6112ca611a89565b6112d46000611b90565b565b6112de611a89565b600060058111156112f2576112f1612170565b5b6000601a9054906101000a900460ff16600581111561131457611313612170565b5b14611354576040517f08c379a000000000000000000000000000000000000000000000000000000000815260040161134b90612ac5565b60405180910390fd5b6001600060189054906101000a900461ffff1661ffff16116113ab576040517f08c379a00000000000000000000000000000000000000000000000000000000081526004016113a290612b57565b60405180910390fd5b6113b56001611b07565b565b60008060009054906101000a900473ffffffffffffffffffffffffffffffffffffffff16905090565b6113e8611c5c565b6005808111156113fb576113fa612170565b5b6000601a9054906101000a900460ff16600581111561141d5761141c612170565b5b1461145d576040517f08c379a000000000000000000000000000000000000000000000000000000000815260040161145490612bc3565b60405180910390fd5b6001600060149054906101000a900461ffff1661ffff1681548110611485576114846124aa565b5b90600052602060002090600202016040518060400160405290816000820180546114ae90612639565b80601f01602080910402602001604051908101604052809291908181526020018280546114da90612639565b80156115275780601f106114fc57610100808354040283529160200191611527565b820191906000526020600020905b81548152906001019060200180831161150a57829003601f168201915b505050505081526020016001820160009054906101000a900461ffff1661ffff1661ffff1681525050905090565b61155d611a89565b6000600581111561157157611570612170565b5b6000601a9054906101000a900460ff16600581111561159357611592612170565b5b146115d3576040517f08c379a00000000000000000000000000000000000000000000000000000000081526004016115ca90612ac5565b60405180910390fd5b600360008273ffffffffffffffffffffffffffffffffffffffff1673ffffffffffffffffffffffffffffffffffffffff16815260200190815260200160002060000160009054906101000a900460ff1615611663576040517f08c379a000000000000000000000000000000000000000000000000000000000815260040161165a90612c2f565b60405180910390fd5b6002819080600181540180825580915050600190039060005260206000200160009091909190916101000a81548173ffffffffffffffffffffffffffffffffffffffff021916908373ffffffffffffffffffffffffffffffffffffffff1602179055506040518060600160405280600115158152602001600015158152602001600061ffff16815250600360008373ffffffffffffffffffffffffffffffffffffffff1673ffffffffffffffffffffffffffffffffffffffff16815260200190815260200160002060008201518160000160006101000a81548160ff02191690831515021790555060208201518160000160016101000a81548160ff02191690831515021790555060408201518160000160026101000a81548161ffff021916908361ffff1602179055509050506000601881819054906101000a900461ffff16809291906117b190612508565b91906101000a81548161ffff021916908361ffff160217905550508073ffffffffffffffffffffffffffffffffffffffff167fb6be2187d059cc2a55fe29e0e503b566e1e0f8c8780096e185429350acffd3dd60405160405180910390a250565b61181a611a89565b6002600581111561182e5761182d612170565b5b6000601a9054906101000a900460ff1660058111156118505761184f612170565b5b14611890576040517f08c379a000000000000000000000000000000000000000000000000000000000815260040161188790612cc1565b60405180910390fd5b61189a6003611b07565b565b6118a4611a89565b600360058111156118b8576118b7612170565b5b6000601a9054906101000a900460ff1660058111156118da576118d9612170565b5b1461191a576040517f08c379a0000000000000000000000000000000000000000000000000000000008152600401611911906123b2565b60405180910390fd5b60008060169054906101000a900461ffff1661ffff1611611970576040517f08c379a000000000000000000000000000000000000000000000000000000000815260040161196790612d53565b60405180910390fd5b61197a6004611b07565b565b611984611a89565b6004600581111561199857611997612170565b5b6000601a9054906101000a900460ff1660058111156119ba576119b9612170565b5b146119fa576040517f08c379a00000000000000000000000000000000000000000000000000000000081526004016119f190612de5565b60405180910390fd5b611a046005611b07565b565b611a0e611a89565b600073ffffffffffffffffffffffffffffffffffffffff168173ffffffffffffffffffffffffffffffffffffffff1603611a7d576040517f08c379a0000000000000000000000000000000000000000000000000000000008152600401611a7490612e77565b60405180910390fd5b611a8681611b90565b50565b611a91611c54565b73ffffffffffffffffffffffffffffffffffffffff16611aaf6113b7565b73ffffffffffffffffffffffffffffffffffffffff1614611b05576040517f08c379a0000000000000000000000000000000000000000000000000000000008152600401611afc90612ee3565b60405180910390fd5b565b600080601a9054906101000a900460ff169050816000601a6101000a81548160ff02191690836005811115611b3f57611b3e612170565b5b02179055507f0a97a4ee45751e2abf3e4fc8946939630b11b371ea8ae39ccdc3056e98f5cc3f816000601a9054906101000a900460ff16604051611b84929190612f4b565b60405180910390a15050565b60008060009054906101000a900473ffffffffffffffffffffffffffffffffffffffff169050816000806101000a81548173ffffffffffffffffffffffffffffffffffffffff021916908373ffffffffffffffffffffffffffffffffffffffff1602179055508173ffffffffffffffffffffffffffffffffffffffff168173ffffffffffffffffffffffffffffffffffffffff167f8be0079c531659141344cd1fd0a4f28419497f9722a3daafe3b4186f6b6457e060405160405180910390a35050565b600033905090565b604051806040016040528060608152602001600061ffff1681525090565b5080546000825590600052602060002090810190611c989190611ce0565b50565b5080546000825560020290600052602060002090810190611cbc9190611cfd565b50565b5080546000825590600052602060002090810190611cdd9190611ce0565b50565b5b80821115611cf9576000816000905550600101611ce1565b5090565b5b80821115611d355760008082016000611d179190611d39565b6001820160006101000a81549061ffff021916905550600201611cfe565b5090565b508054611d4590612639565b6000825580601f10611d575750611d76565b601f016020900490600052602060002090810190611d759190611ce0565b5b50565b600080fd5b600080fd5b600061ffff82169050919050565b611d9a81611d83565b8114611da557600080fd5b50565b600081359050611db781611d91565b92915050565b600060208284031215611dd357611dd2611d79565b5b6000611de184828501611da8565b91505092915050565b600073ffffffffffffffffffffffffffffffffffffffff82169050919050565b6000611e1582611dea565b9050919050565b611e2581611e0a565b8114611e3057600080fd5b50565b600081359050611e4281611e1c565b92915050565b600060208284031215611e5e57611e5d611d79565b5b6000611e6c84828501611e33565b91505092915050565b600081519050919050565b600082825260208201905092915050565b60005b83811015611eaf578082015181840152602081019050611e94565b60008484015250505050565b6000601f19601f8301169050919050565b6000611ed782611e75565b611ee18185611e80565b9350611ef1818560208601611e91565b611efa81611ebb565b840191505092915050565b611f0e81611d83565b82525050565b60006040830160008301518482036000860152611f318282611ecc565b9150506020830151611f466020860182611f05565b508091505092915050565b60006020820190508181036000830152611f6b8184611f14565b905092915050565b600080fd5b600080fd5b600080fd5b60008083601f840112611f9857611f97611f73565b5b8235905067ffffffffffffffff811115611fb557611fb4611f78565b5b602083019150836001820283011115611fd157611fd0611f7d565b5b9250929050565b60008060208385031215611fef57611fee611d79565b5b600083013567ffffffffffffffff81111561200d5761200c611d7e565b5b61201985828601611f82565b92509250509250929050565b600081519050919050565b600082825260208201905092915050565b6000819050602082019050919050565b6000604083016000830151848203600086015261206e8282611ecc565b91505060208301516120836020860182611f05565b508091505092915050565b600061209a8383612051565b905092915050565b6000602082019050919050565b60006120ba82612025565b6120c48185612030565b9350836020820285016120d685612041565b8060005b8581101561211257848403895281516120f3858261208e565b94506120fe836120a2565b925060208a019950506001810190506120da565b50829750879550505050505092915050565b6000602082019050818103600083015261213e81846120af565b905092915050565b61214f81611e0a565b82525050565b600060208201905061216a6000830184612146565b92915050565b7f4e487b7100000000000000000000000000000000000000000000000000000000600052602160045260246000fd5b600082825260208201905092915050565b7f5468652070726f706f73616c20726567697374726174696f6e206973206e6f7460008201527f2073746172746564207965742e00000000000000000000000000000000000000602082015250565b600061220c602d8361219f565b9150612217826121b0565b604082019050919050565b6000602082019050818103600083015261223b816121ff565b9050919050565b7f4e656564206174206c656173742074776f2070726f706f73616c7320746f207360008201527f746f7020612070726f706f73616c2073657373696f6e2e000000000000000000602082015250565b600061229e60378361219f565b91506122a982612242565b604082019050919050565b600060208201905081810360008301526122cd81612291565b9050919050565b7f596f75206d757374206265207265676973746572656420646f20746869732e00600082015250565b600061230a601f8361219f565b9150612315826122d4565b602082019050919050565b60006020820190508181036000830152612339816122fd565b9050919050565b7f54686520766f74696e672073657373696f6e206973206e6f742073746172746560008201527f64207965742e0000000000000000000000000000000000000000000000000000602082015250565b600061239c60268361219f565b91506123a782612340565b604082019050919050565b600060208201905081810360008301526123cb8161238f565b9050919050565b7f596f7520616c726561647920766f7465642e0000000000000000000000000000600082015250565b600061240860128361219f565b9150612413826123d2565b602082019050919050565b60006020820190508181036000830152612437816123fb565b9050919050565b7f546869732070726f706f73616c20646f6573206e6f74206578697374732e0000600082015250565b6000612474601e8361219f565b915061247f8261243e565b602082019050919050565b600060208201905081810360008301526124a381612467565b9050919050565b7f4e487b7100000000000000000000000000000000000000000000000000000000600052603260045260246000fd5b7f4e487b7100000000000000000000000000000000000000000000000000000000600052601160045260246000fd5b600061251382611d83565b915061ffff8203612527576125266124d9565b5b600182019050919050565b7f54686520766f746572206973206e6f7420726567697374657265642e00000000600082015250565b6000612568601c8361219f565b915061257382612532565b602082019050919050565b600060208201905081810360008301526125978161255b565b9050919050565b7f54686520766f74657220686173206e6f7420766f746564207965742e00000000600082015250565b60006125d4601c8361219f565b91506125df8261259e565b602082019050919050565b60006020820190508181036000830152612603816125c7565b9050919050565b7f4e487b7100000000000000000000000000000000000000000000000000000000600052602260045260246000fd5b6000600282049050600182168061265157607f821691505b6020821081036126645761266361260a565b5b50919050565b7f5468652070726576696f75732073657373696f6e206973206e6f74206f76657260008201527f207965742e000000000000000000000000000000000000000000000000000000602082015250565b60006126c660258361219f565b91506126d18261266a565b604082019050919050565b600060208201905081810360008301526126f5816126b9565b9050919050565b7f5468652070726f706f73616c2063616e6e6f7420626520656d7074792e000000600082015250565b6000612732601d8361219f565b915061273d826126fc565b602082019050919050565b6000602082019050818103600083015261276181612725565b9050919050565b7f4e487b7100000000000000000000000000000000000000000000000000000000600052604160045260246000fd5b60008190508160005260206000209050919050565b60006020601f8301049050919050565b600082821b905092915050565b6000600883026127f97fffffffffffffffffffffffffffffffffffffffffffffffffffffffffffffffff826127bc565b61280386836127bc565b95508019841693508086168417925050509392505050565b6000819050919050565b6000819050919050565b600061284a6128456128408461281b565b612825565b61281b565b9050919050565b6000819050919050565b6128648361282f565b61287861287082612851565b8484546127c9565b825550505050565b600090565b61288d612880565b61289881848461285b565b505050565b5b818110156128bc576128b1600082612885565b60018101905061289e565b5050565b601f821115612901576128d281612797565b6128db846127ac565b810160208510156128ea578190505b6128fe6128f6856127ac565b83018261289d565b50505b505050565b600082821c905092915050565b600061292460001984600802612906565b1980831691505092915050565b600061293d8383612913565b9150826002028217905092915050565b61295682611e75565b67ffffffffffffffff81111561296f5761296e612768565b5b6129798254612639565b6129848282856128c0565b600060209050601f8311600181146129b757600084156129a5578287015190505b6129af8582612931565b865550612a17565b601f1984166129c586612797565b60005b828110156129ed578489015182556001820191506020850194506020810190506129c8565b86831015612a0a5784890151612a06601f891682612913565b8355505b6001600288020188555050505b505050505050565b6000612a2a8261281b565b9150612a358361281b565b9250828203905081811115612a4d57612a4c6124d9565b5b92915050565b7f546865207265676973746572696e6720766f74657273206973206e6f74206f7060008201527f656e6564207965742e0000000000000000000000000000000000000000000000602082015250565b6000612aaf60298361219f565b9150612aba82612a53565b604082019050919050565b60006020820190508181036000830152612ade81612aa2565b9050919050565b7f4e656564206174206c656173742074776f207265676973746572656420766f7460008201527f65727320746f20737461727420612070726f706f73616c2073657373696f6e2e602082015250565b6000612b4160408361219f565b9150612b4c82612ae5565b604082019050919050565b60006020820190508181036000830152612b7081612b34565b9050919050565b7f54686520766f746520636f756e74206973206e6f74206f766572207965742e00600082015250565b6000612bad601f8361219f565b9150612bb882612b77565b602082019050919050565b60006020820190508181036000830152612bdc81612ba0565b9050919050565b7f54686520766f74657220697320616c726561647920726567697374657265642e600082015250565b6000612c1960208361219f565b9150612c2482612be3565b602082019050919050565b60006020820190508181036000830152612c4881612c0c565b9050919050565b7f5468652070726f706f73616c20726567697374726174696f6e206973206e6f7460008201527f20656e646564207965742e000000000000000000000000000000000000000000602082015250565b6000612cab602b8361219f565b9150612cb682612c4f565b604082019050919050565b60006020820190508181036000830152612cda81612c9e565b9050919050565b7f4e656564206174206c65617374206f6e6520766f746520696e20612070726f7060008201527f726f73616c20746f2073746f70206120766f74696e672073657373696f6e2e00602082015250565b6000612d3d603f8361219f565b9150612d4882612ce1565b604082019050919050565b60006020820190508181036000830152612d6c81612d30565b9050919050565b7f54686520766f74696e672073657373696f6e206973206e6f7420656e6465642060008201527f7965742e00000000000000000000000000000000000000000000000000000000602082015250565b6000612dcf60248361219f565b9150612dda82612d73565b604082019050919050565b60006020820190508181036000830152612dfe81612dc2565b9050919050565b7f4f776e61626c653a206e6577206f776e657220697320746865207a65726f206160008201527f6464726573730000000000000000000000000000000000000000000000000000602082015250565b6000612e6160268361219f565b9150612e6c82612e05565b604082019050919050565b60006020820190508181036000830152612e9081612e54565b9050919050565b7f4f776e61626c653a2063616c6c6572206973206e6f7420746865206f776e6572600082015250565b6000612ecd60208361219f565b9150612ed882612e97565b602082019050919050565b60006020820190508181036000830152612efc81612ec0565b9050919050565b60068110612f1457612f13612170565b5b50565b6000819050612f2582612f03565b919050565b6000612f3582612f17565b9050919050565b612f4581612f2a565b82525050565b6000604082019050612f606000830185612f3c565b612f6d6020830184612f3c565b939250505056fea2646970667358221220fb1031ce8150d85264710f4f54417124b4516086295781d343a81cf470cdabd264736f6c63430008120033",
					"opcodes": "PUSH1 0x80 PUSH1 0x40 MSTORE CALLVALUE DUP1 ISZERO PUSH3 0x11 JUMPI PUSH1 0x0 DUP1 REVERT JUMPDEST POP PUSH3 0x32 PUSH3 0x26 PUSH3 0x38 PUSH1 0x20 SHL PUSH1 0x20 SHR JUMP JUMPDEST PUSH3 0x40 PUSH1 0x20 SHL PUSH1 0x20 SHR JUMP JUMPDEST PUSH3 0x104 JUMP JUMPDEST PUSH1 0x0 CALLER SWAP1 POP SWAP1 JUMP JUMPDEST PUSH1 0x0 DUP1 PUSH1 0x0 SWAP1 SLOAD SWAP1 PUSH2 0x100 EXP SWAP1 DIV PUSH20 0xFFFFFFFFFFFFFFFFFFFFFFFFFFFFFFFFFFFFFFFF AND SWAP1 POP DUP2 PUSH1 0x0 DUP1 PUSH2 0x100 EXP DUP2 SLOAD DUP2 PUSH20 0xFFFFFFFFFFFFFFFFFFFFFFFFFFFFFFFFFFFFFFFF MUL NOT AND SWAP1 DUP4 PUSH20 0xFFFFFFFFFFFFFFFFFFFFFFFFFFFFFFFFFFFFFFFF AND MUL OR SWAP1 SSTORE POP DUP2 PUSH20 0xFFFFFFFFFFFFFFFFFFFFFFFFFFFFFFFFFFFFFFFF AND DUP2 PUSH20 0xFFFFFFFFFFFFFFFFFFFFFFFFFFFFFFFFFFFFFFFF AND PUSH32 0x8BE0079C531659141344CD1FD0A4F28419497F9722A3DAAFE3B4186F6B6457E0 PUSH1 0x40 MLOAD PUSH1 0x40 MLOAD DUP1 SWAP2 SUB SWAP1 LOG3 POP POP JUMP JUMPDEST PUSH2 0x2FAA DUP1 PUSH3 0x114 PUSH1 0x0 CODECOPY PUSH1 0x0 RETURN INVALID PUSH1 0x80 PUSH1 0x40 MSTORE CALLVALUE DUP1 ISZERO PUSH2 0x10 JUMPI PUSH1 0x0 DUP1 REVERT JUMPDEST POP PUSH1 0x4 CALLDATASIZE LT PUSH2 0xF5 JUMPI PUSH1 0x0 CALLDATALOAD PUSH1 0xE0 SHR DUP1 PUSH4 0x7669D79E GT PUSH2 0x97 JUMPI DUP1 PUSH4 0xCF278C74 GT PUSH2 0x66 JUMPI DUP1 PUSH4 0xCF278C74 EQ PUSH2 0x212 JUMPI DUP1 PUSH4 0xD1337403 EQ PUSH2 0x21C JUMPI DUP1 PUSH4 0xD83F235B EQ PUSH2 0x226 JUMPI DUP1 PUSH4 0xF2FDE38B EQ PUSH2 0x230 JUMPI PUSH2 0xF5 JUMP JUMPDEST DUP1 PUSH4 0x7669D79E EQ PUSH2 0x1B0 JUMPI DUP1 PUSH4 0x8DA5CB5B EQ PUSH2 0x1BA JUMPI DUP1 PUSH4 0x8E7EA5B2 EQ PUSH2 0x1D8 JUMPI DUP1 PUSH4 0xC145E3D5 EQ PUSH2 0x1F6 JUMPI PUSH2 0xF5 JUMP JUMPDEST DUP1 PUSH4 0x52F33385 GT PUSH2 0xD3 JUMPI DUP1 PUSH4 0x52F33385 EQ PUSH2 0x150 JUMPI DUP1 PUSH4 0x5F39FF21 EQ PUSH2 0x15A JUMPI DUP1 PUSH4 0x6FBD32F6 EQ PUSH2 0x176 JUMPI DUP1 PUSH4 0x715018A6 EQ PUSH2 0x1A6 JUMPI PUSH2 0xF5 JUMP JUMPDEST DUP1 PUSH4 0x4456224 EQ PUSH2 0xFA JUMPI DUP1 PUSH4 0x23E9DF47 EQ PUSH2 0x104 JUMPI DUP1 PUSH4 0x5141E520 EQ PUSH2 0x120 JUMPI JUMPDEST PUSH1 0x0 DUP1 REVERT JUMPDEST PUSH2 0x102 PUSH2 0x24C JUMP JUMPDEST STOP JUMPDEST PUSH2 0x11E PUSH1 0x4 DUP1 CALLDATASIZE SUB DUP2 ADD SWAP1 PUSH2 0x119 SWAP2 SWAP1 PUSH2 0x1DBD JUMP JUMPDEST PUSH2 0x31D JUMP JUMPDEST STOP JUMPDEST PUSH2 0x13A PUSH1 0x4 DUP1 CALLDATASIZE SUB DUP2 ADD SWAP1 PUSH2 0x135 SWAP2 SWAP1 PUSH2 0x1E48 JUMP JUMPDEST PUSH2 0x749 JUMP JUMPDEST PUSH1 0x40 MLOAD PUSH2 0x147 SWAP2 SWAP1 PUSH2 0x1F51 JUMP JUMPDEST PUSH1 0x40 MLOAD DUP1 SWAP2 SUB SWAP1 RETURN JUMPDEST PUSH2 0x158 PUSH2 0xA38 JUMP JUMPDEST STOP JUMPDEST PUSH2 0x174 PUSH1 0x4 DUP1 CALLDATASIZE SUB DUP2 ADD SWAP1 PUSH2 0x16F SWAP2 SWAP1 PUSH2 0x1FD8 JUMP JUMPDEST PUSH2 0xCA6 JUMP JUMPDEST STOP JUMPDEST PUSH2 0x190 PUSH1 0x4 DUP1 CALLDATASIZE SUB DUP2 ADD SWAP1 PUSH2 0x18B SWAP2 SWAP1 PUSH2 0x1E48 JUMP JUMPDEST PUSH2 0xF6A JUMP JUMPDEST PUSH1 0x40 MLOAD PUSH2 0x19D SWAP2 SWAP1 PUSH2 0x2124 JUMP JUMPDEST PUSH1 0x40 MLOAD DUP1 SWAP2 SUB SWAP1 RETURN JUMPDEST PUSH2 0x1AE PUSH2 0x12C2 JUMP JUMPDEST STOP JUMPDEST PUSH2 0x1B8 PUSH2 0x12D6 JUMP JUMPDEST STOP JUMPDEST PUSH2 0x1C2 PUSH2 0x13B7 JUMP JUMPDEST PUSH1 0x40 MLOAD PUSH2 0x1CF SWAP2 SWAP1 PUSH2 0x2155 JUMP JUMPDEST PUSH1 0x40 MLOAD DUP1 SWAP2 SUB SWAP1 RETURN JUMPDEST PUSH2 0x1E0 PUSH2 0x13E0 JUMP JUMPDEST PUSH1 0x40 MLOAD PUSH2 0x1ED SWAP2 SWAP1 PUSH2 0x1F51 JUMP JUMPDEST PUSH1 0x40 MLOAD DUP1 SWAP2 SUB SWAP1 RETURN JUMPDEST PUSH2 0x210 PUSH1 0x4 DUP1 CALLDATASIZE SUB DUP2 ADD SWAP1 PUSH2 0x20B SWAP2 SWAP1 PUSH2 0x1E48 JUMP JUMPDEST PUSH2 0x1555 JUMP JUMPDEST STOP JUMPDEST PUSH2 0x21A PUSH2 0x1812 JUMP JUMPDEST STOP JUMPDEST PUSH2 0x224 PUSH2 0x189C JUMP JUMPDEST STOP JUMPDEST PUSH2 0x22E PUSH2 0x197C JUMP JUMPDEST STOP JUMPDEST PUSH2 0x24A PUSH1 0x4 DUP1 CALLDATASIZE SUB DUP2 ADD SWAP1 PUSH2 0x245 SWAP2 SWAP1 PUSH2 0x1E48 JUMP JUMPDEST PUSH2 0x1A06 JUMP JUMPDEST STOP JUMPDEST PUSH2 0x254 PUSH2 0x1A89 JUMP JUMPDEST PUSH1 0x1 PUSH1 0x5 DUP2 GT ISZERO PUSH2 0x268 JUMPI PUSH2 0x267 PUSH2 0x2170 JUMP JUMPDEST JUMPDEST PUSH1 0x0 PUSH1 0x1A SWAP1 SLOAD SWAP1 PUSH2 0x100 EXP SWAP1 DIV PUSH1 0xFF AND PUSH1 0x5 DUP2 GT ISZERO PUSH2 0x28A JUMPI PUSH2 0x289 PUSH2 0x2170 JUMP JUMPDEST JUMPDEST EQ PUSH2 0x2CA JUMPI PUSH1 0x40 MLOAD PUSH32 0x8C379A000000000000000000000000000000000000000000000000000000000 DUP2 MSTORE PUSH1 0x4 ADD PUSH2 0x2C1 SWAP1 PUSH2 0x2222 JUMP JUMPDEST PUSH1 0x40 MLOAD DUP1 SWAP2 SUB SWAP1 REVERT JUMPDEST PUSH1 0x1 DUP1 DUP1 SLOAD SWAP1 POP GT PUSH2 0x311 JUMPI PUSH1 0x40 MLOAD PUSH32 0x8C379A000000000000000000000000000000000000000000000000000000000 DUP2 MSTORE PUSH1 0x4 ADD PUSH2 0x308 SWAP1 PUSH2 0x22B4 JUMP JUMPDEST PUSH1 0x40 MLOAD DUP1 SWAP2 SUB SWAP1 REVERT JUMPDEST PUSH2 0x31B PUSH1 0x2 PUSH2 0x1B07 JUMP JUMPDEST JUMP JUMPDEST PUSH1 0x3 PUSH1 0x0 CALLER PUSH20 0xFFFFFFFFFFFFFFFFFFFFFFFFFFFFFFFFFFFFFFFF AND PUSH20 0xFFFFFFFFFFFFFFFFFFFFFFFFFFFFFFFFFFFFFFFF AND DUP2 MSTORE PUSH1 0x20 ADD SWAP1 DUP2 MSTORE PUSH1 0x20 ADD PUSH1 0x0 KECCAK256 PUSH1 0x0 ADD PUSH1 0x0 SWAP1 SLOAD SWAP1 PUSH2 0x100 EXP SWAP1 DIV PUSH1 0xFF AND PUSH2 0x3AC JUMPI PUSH1 0x40 MLOAD PUSH32 0x8C379A000000000000000000000000000000000000000000000000000000000 DUP2 MSTORE PUSH1 0x4 ADD PUSH2 0x3A3 SWAP1 PUSH2 0x2320 JUMP JUMPDEST PUSH1 0x40 MLOAD DUP1 SWAP2 SUB SWAP1 REVERT JUMPDEST PUSH1 0x3 PUSH1 0x5 DUP2 GT ISZERO PUSH2 0x3C0 JUMPI PUSH2 0x3BF PUSH2 0x2170 JUMP JUMPDEST JUMPDEST PUSH1 0x0 PUSH1 0x1A SWAP1 SLOAD SWAP1 PUSH2 0x100 EXP SWAP1 DIV PUSH1 0xFF AND PUSH1 0x5 DUP2 GT ISZERO PUSH2 0x3E2 JUMPI PUSH2 0x3E1 PUSH2 0x2170 JUMP JUMPDEST JUMPDEST EQ PUSH2 0x422 JUMPI PUSH1 0x40 MLOAD PUSH32 0x8C379A000000000000000000000000000000000000000000000000000000000 DUP2 MSTORE PUSH1 0x4 ADD PUSH2 0x419 SWAP1 PUSH2 0x23B2 JUMP JUMPDEST PUSH1 0x40 MLOAD DUP1 SWAP2 SUB SWAP1 REVERT JUMPDEST PUSH1 0x3 PUSH1 0x0 CALLER PUSH20 0xFFFFFFFFFFFFFFFFFFFFFFFFFFFFFFFFFFFFFFFF AND PUSH20 0xFFFFFFFFFFFFFFFFFFFFFFFFFFFFFFFFFFFFFFFF AND DUP2 MSTORE PUSH1 0x20 ADD SWAP1 DUP2 MSTORE PUSH1 0x20 ADD PUSH1 0x0 KECCAK256 PUSH1 0x0 ADD PUSH1 0x1 SWAP1 SLOAD SWAP1 PUSH2 0x100 EXP SWAP1 DIV PUSH1 0xFF AND ISZERO PUSH2 0x4B2 JUMPI PUSH1 0x40 MLOAD PUSH32 0x8C379A000000000000000000000000000000000000000000000000000000000 DUP2 MSTORE PUSH1 0x4 ADD PUSH2 0x4A9 SWAP1 PUSH2 0x241E JUMP JUMPDEST PUSH1 0x40 MLOAD DUP1 SWAP2 SUB SWAP1 REVERT JUMPDEST PUSH1 0x1 DUP1 SLOAD SWAP1 POP DUP2 PUSH2 0xFFFF AND LT PUSH2 0x4FD JUMPI PUSH1 0x40 MLOAD PUSH32 0x8C379A000000000000000000000000000000000000000000000000000000000 DUP2 MSTORE PUSH1 0x4 ADD PUSH2 0x4F4 SWAP1 PUSH2 0x248A JUMP JUMPDEST PUSH1 0x40 MLOAD DUP1 SWAP2 SUB SWAP1 REVERT JUMPDEST DUP1 PUSH1 0x3 PUSH1 0x0 CALLER PUSH20 0xFFFFFFFFFFFFFFFFFFFFFFFFFFFFFFFFFFFFFFFF AND PUSH20 0xFFFFFFFFFFFFFFFFFFFFFFFFFFFFFFFFFFFFFFFF AND DUP2 MSTORE PUSH1 0x20 ADD SWAP1 DUP2 MSTORE PUSH1 0x20 ADD PUSH1 0x0 KECCAK256 PUSH1 0x0 ADD PUSH1 0x2 PUSH2 0x100 EXP DUP2 SLOAD DUP2 PUSH2 0xFFFF MUL NOT AND SWAP1 DUP4 PUSH2 0xFFFF AND MUL OR SWAP1 SSTORE POP PUSH1 0x1 PUSH1 0x3 PUSH1 0x0 CALLER PUSH20 0xFFFFFFFFFFFFFFFFFFFFFFFFFFFFFFFFFFFFFFFF AND PUSH20 0xFFFFFFFFFFFFFFFFFFFFFFFFFFFFFFFFFFFFFFFF AND DUP2 MSTORE PUSH1 0x20 ADD SWAP1 DUP2 MSTORE PUSH1 0x20 ADD PUSH1 0x0 KECCAK256 PUSH1 0x0 ADD PUSH1 0x1 PUSH2 0x100 EXP DUP2 SLOAD DUP2 PUSH1 0xFF MUL NOT AND SWAP1 DUP4 ISZERO ISZERO MUL OR SWAP1 SSTORE POP PUSH1 0x1 DUP2 PUSH2 0xFFFF AND DUP2 SLOAD DUP2 LT PUSH2 0x5CD JUMPI PUSH2 0x5CC PUSH2 0x24AA JUMP JUMPDEST JUMPDEST SWAP1 PUSH1 0x0 MSTORE PUSH1 0x20 PUSH1 0x0 KECCAK256 SWAP1 PUSH1 0x2 MUL ADD PUSH1 0x1 ADD PUSH1 0x0 DUP2 DUP2 SWAP1 SLOAD SWAP1 PUSH2 0x100 EXP SWAP1 DIV PUSH2 0xFFFF AND DUP1 SWAP3 SWAP2 SWAP1 PUSH2 0x5FC SWAP1 PUSH2 0x2508 JUMP JUMPDEST SWAP2 SWAP1 PUSH2 0x100 EXP DUP2 SLOAD DUP2 PUSH2 0xFFFF MUL NOT AND SWAP1 DUP4 PUSH2 0xFFFF AND MUL OR SWAP1 SSTORE POP POP PUSH1 0x0 PUSH1 0x16 DUP2 DUP2 SWAP1 SLOAD SWAP1 PUSH2 0x100 EXP SWAP1 DIV PUSH2 0xFFFF AND DUP1 SWAP3 SWAP2 SWAP1 PUSH2 0x637 SWAP1 PUSH2 0x2508 JUMP JUMPDEST SWAP2 SWAP1 PUSH2 0x100 EXP DUP2 SLOAD DUP2 PUSH2 0xFFFF MUL NOT AND SWAP1 DUP4 PUSH2 0xFFFF AND MUL OR SWAP1 SSTORE POP POP PUSH1 0x1 PUSH1 0x0 PUSH1 0x14 SWAP1 SLOAD SWAP1 PUSH2 0x100 EXP SWAP1 DIV PUSH2 0xFFFF AND PUSH2 0xFFFF AND DUP2 SLOAD DUP2 LT PUSH2 0x67A JUMPI PUSH2 0x679 PUSH2 0x24AA JUMP JUMPDEST JUMPDEST SWAP1 PUSH1 0x0 MSTORE PUSH1 0x20 PUSH1 0x0 KECCAK256 SWAP1 PUSH1 0x2 MUL ADD PUSH1 0x1 ADD PUSH1 0x0 SWAP1 SLOAD SWAP1 PUSH2 0x100 EXP SWAP1 DIV PUSH2 0xFFFF AND PUSH2 0xFFFF AND PUSH1 0x1 DUP3 PUSH2 0xFFFF AND DUP2 SLOAD DUP2 LT PUSH2 0x6B6 JUMPI PUSH2 0x6B5 PUSH2 0x24AA JUMP JUMPDEST JUMPDEST SWAP1 PUSH1 0x0 MSTORE PUSH1 0x20 PUSH1 0x0 KECCAK256 SWAP1 PUSH1 0x2 MUL ADD PUSH1 0x1 ADD PUSH1 0x0 SWAP1 SLOAD SWAP1 PUSH2 0x100 EXP SWAP1 DIV PUSH2 0xFFFF AND PUSH2 0xFFFF AND GT ISZERO PUSH2 0x6FE JUMPI DUP1 PUSH1 0x0 PUSH1 0x14 PUSH2 0x100 EXP DUP2 SLOAD DUP2 PUSH2 0xFFFF MUL NOT AND SWAP1 DUP4 PUSH2 0xFFFF AND MUL OR SWAP1 SSTORE POP JUMPDEST DUP1 PUSH2 0xFFFF AND CALLER PUSH20 0xFFFFFFFFFFFFFFFFFFFFFFFFFFFFFFFFFFFFFFFF AND PUSH32 0x2941E36A18E27644E8EA10BAD396659AC866FD7A18A75015D088FC148E24D854 PUSH1 0x40 MLOAD PUSH1 0x40 MLOAD DUP1 SWAP2 SUB SWAP1 LOG3 POP JUMP JUMPDEST PUSH2 0x751 PUSH2 0x1C5C JUMP JUMPDEST PUSH1 0x3 PUSH1 0x0 CALLER PUSH20 0xFFFFFFFFFFFFFFFFFFFFFFFFFFFFFFFFFFFFFFFF AND PUSH20 0xFFFFFFFFFFFFFFFFFFFFFFFFFFFFFFFFFFFFFFFF AND DUP2 MSTORE PUSH1 0x20 ADD SWAP1 DUP2 MSTORE PUSH1 0x20 ADD PUSH1 0x0 KECCAK256 PUSH1 0x0 ADD PUSH1 0x0 SWAP1 SLOAD SWAP1 PUSH2 0x100 EXP SWAP1 DIV PUSH1 0xFF AND PUSH2 0x7E0 JUMPI PUSH1 0x40 MLOAD PUSH32 0x8C379A000000000000000000000000000000000000000000000000000000000 DUP2 MSTORE PUSH1 0x4 ADD PUSH2 0x7D7 SWAP1 PUSH2 0x2320 JUMP JUMPDEST PUSH1 0x40 MLOAD DUP1 SWAP2 SUB SWAP1 REVERT JUMPDEST PUSH1 0x3 PUSH1 0x0 DUP4 PUSH20 0xFFFFFFFFFFFFFFFFFFFFFFFFFFFFFFFFFFFFFFFF AND PUSH20 0xFFFFFFFFFFFFFFFFFFFFFFFFFFFFFFFFFFFFFFFF AND DUP2 MSTORE PUSH1 0x20 ADD SWAP1 DUP2 MSTORE PUSH1 0x20 ADD PUSH1 0x0 KECCAK256 PUSH1 0x0 ADD PUSH1 0x0 SWAP1 SLOAD SWAP1 PUSH2 0x100 EXP SWAP1 DIV PUSH1 0xFF AND PUSH2 0x86F JUMPI PUSH1 0x40 MLOAD PUSH32 0x8C379A000000000000000000000000000000000000000000000000000000000 DUP2 MSTORE PUSH1 0x4 ADD PUSH2 0x866 SWAP1 PUSH2 0x257E JUMP JUMPDEST PUSH1 0x40 MLOAD DUP1 SWAP2 SUB SWAP1 REVERT JUMPDEST PUSH1 0x3 PUSH1 0x0 DUP4 PUSH20 0xFFFFFFFFFFFFFFFFFFFFFFFFFFFFFFFFFFFFFFFF AND PUSH20 0xFFFFFFFFFFFFFFFFFFFFFFFFFFFFFFFFFFFFFFFF AND DUP2 MSTORE PUSH1 0x20 ADD SWAP1 DUP2 MSTORE PUSH1 0x20 ADD PUSH1 0x0 KECCAK256 PUSH1 0x0 ADD PUSH1 0x1 SWAP1 SLOAD SWAP1 PUSH2 0x100 EXP SWAP1 DIV PUSH1 0xFF AND PUSH2 0x8FE JUMPI PUSH1 0x40 MLOAD PUSH32 0x8C379A000000000000000000000000000000000000000000000000000000000 DUP2 MSTORE PUSH1 0x4 ADD PUSH2 0x8F5 SWAP1 PUSH2 0x25EA JUMP JUMPDEST PUSH1 0x40 MLOAD DUP1 SWAP2 SUB SWAP1 REVERT JUMPDEST PUSH1 0x1 PUSH1 0x3 PUSH1 0x0 DUP5 PUSH20 0xFFFFFFFFFFFFFFFFFFFFFFFFFFFFFFFFFFFFFFFF AND PUSH20 0xFFFFFFFFFFFFFFFFFFFFFFFFFFFFFFFFFFFFFFFF AND DUP2 MSTORE PUSH1 0x20 ADD SWAP1 DUP2 MSTORE PUSH1 0x20 ADD PUSH1 0x0 KECCAK256 PUSH1 0x0 ADD PUSH1 0x2 SWAP1 SLOAD SWAP1 PUSH2 0x100 EXP SWAP1 DIV PUSH2 0xFFFF AND PUSH2 0xFFFF AND DUP2 SLOAD DUP2 LT PUSH2 0x966 JUMPI PUSH2 0x965 PUSH2 0x24AA JUMP JUMPDEST JUMPDEST SWAP1 PUSH1 0x0 MSTORE PUSH1 0x20 PUSH1 0x0 KECCAK256 SWAP1 PUSH1 0x2 MUL ADD PUSH1 0x40 MLOAD DUP1 PUSH1 0x40 ADD PUSH1 0x40 MSTORE SWAP1 DUP2 PUSH1 0x0 DUP3 ADD DUP1 SLOAD PUSH2 0x98F SWAP1 PUSH2 0x2639 JUMP JUMPDEST DUP1 PUSH1 0x1F ADD PUSH1 0x20 DUP1 SWAP2 DIV MUL PUSH1 0x20 ADD PUSH1 0x40 MLOAD SWAP1 DUP2 ADD PUSH1 0x40 MSTORE DUP1 SWAP3 SWAP2 SWAP1 DUP2 DUP2 MSTORE PUSH1 0x20 ADD DUP3 DUP1 SLOAD PUSH2 0x9BB SWAP1 PUSH2 0x2639 JUMP JUMPDEST DUP1 ISZERO PUSH2 0xA08 JUMPI DUP1 PUSH1 0x1F LT PUSH2 0x9DD JUMPI PUSH2 0x100 DUP1 DUP4 SLOAD DIV MUL DUP4 MSTORE SWAP2 PUSH1 0x20 ADD SWAP2 PUSH2 0xA08 JUMP JUMPDEST DUP3 ADD SWAP2 SWAP1 PUSH1 0x0 MSTORE PUSH1 0x20 PUSH1 0x0 KECCAK256 SWAP1 JUMPDEST DUP2 SLOAD DUP2 MSTORE SWAP1 PUSH1 0x1 ADD SWAP1 PUSH1 0x20 ADD DUP1 DUP4 GT PUSH2 0x9EB JUMPI DUP3 SWAP1 SUB PUSH1 0x1F AND DUP3 ADD SWAP2 JUMPDEST POP POP POP POP POP DUP2 MSTORE PUSH1 0x20 ADD PUSH1 0x1 DUP3 ADD PUSH1 0x0 SWAP1 SLOAD SWAP1 PUSH2 0x100 EXP SWAP1 DIV PUSH2 0xFFFF AND PUSH2 0xFFFF AND PUSH2 0xFFFF AND DUP2 MSTORE POP POP SWAP1 POP SWAP2 SWAP1 POP JUMP JUMPDEST PUSH2 0xA40 PUSH2 0x1A89 JUMP JUMPDEST PUSH1 0x5 DUP1 DUP2 GT ISZERO PUSH2 0xA53 JUMPI PUSH2 0xA52 PUSH2 0x2170 JUMP JUMPDEST JUMPDEST PUSH1 0x0 PUSH1 0x1A SWAP1 SLOAD SWAP1 PUSH2 0x100 EXP SWAP1 DIV PUSH1 0xFF AND PUSH1 0x5 DUP2 GT ISZERO PUSH2 0xA75 JUMPI PUSH2 0xA74 PUSH2 0x2170 JUMP JUMPDEST JUMPDEST EQ PUSH2 0xAB5 JUMPI PUSH1 0x40 MLOAD PUSH32 0x8C379A000000000000000000000000000000000000000000000000000000000 DUP2 MSTORE PUSH1 0x4 ADD PUSH2 0xAAC SWAP1 PUSH2 0x26DC JUMP JUMPDEST PUSH1 0x40 MLOAD DUP1 SWAP2 SUB SWAP1 REVERT JUMPDEST PUSH1 0x0 DUP1 PUSH1 0x14 PUSH2 0x100 EXP DUP2 SLOAD DUP2 PUSH2 0xFFFF MUL NOT AND SWAP1 DUP4 PUSH2 0xFFFF AND MUL OR SWAP1 SSTORE PUSH1 0x0 PUSH1 0x18 PUSH2 0x100 EXP DUP2 SLOAD DUP2 PUSH2 0xFFFF MUL NOT AND SWAP1 DUP4 PUSH2 0xFFFF AND MUL OR SWAP1 SSTORE PUSH1 0x0 PUSH1 0x16 PUSH2 0x100 EXP DUP2 SLOAD DUP2 PUSH2 0xFFFF MUL NOT AND SWAP1 DUP4 PUSH2 0xFFFF AND MUL OR SWAP1 SSTORE POP PUSH1 0x0 JUMPDEST PUSH1 0x2 DUP1 SLOAD SWAP1 POP DUP2 PUSH2 0xFFFF AND LT ISZERO PUSH2 0xC7D JUMPI PUSH1 0x4 PUSH1 0x0 PUSH1 0x2 DUP4 PUSH2 0xFFFF AND DUP2 SLOAD DUP2 LT PUSH2 0xB38 JUMPI PUSH2 0xB37 PUSH2 0x24AA JUMP JUMPDEST JUMPDEST SWAP1 PUSH1 0x0 MSTORE PUSH1 0x20 PUSH1 0x0 KECCAK256 ADD PUSH1 0x0 SWAP1 SLOAD SWAP1 PUSH2 0x100 EXP SWAP1 DIV PUSH20 0xFFFFFFFFFFFFFFFFFFFFFFFFFFFFFFFFFFFFFFFF AND PUSH20 0xFFFFFFFFFFFFFFFFFFFFFFFFFFFFFFFFFFFFFFFF AND PUSH20 0xFFFFFFFFFFFFFFFFFFFFFFFFFFFFFFFFFFFFFFFF AND DUP2 MSTORE PUSH1 0x20 ADD SWAP1 DUP2 MSTORE PUSH1 0x20 ADD PUSH1 0x0 KECCAK256 PUSH1 0x0 PUSH2 0xBA9 SWAP2 SWAP1 PUSH2 0x1C7A JUMP JUMPDEST PUSH1 0x3 PUSH1 0x0 PUSH1 0x2 DUP4 PUSH2 0xFFFF AND DUP2 SLOAD DUP2 LT PUSH2 0xBC5 JUMPI PUSH2 0xBC4 PUSH2 0x24AA JUMP JUMPDEST JUMPDEST SWAP1 PUSH1 0x0 MSTORE PUSH1 0x20 PUSH1 0x0 KECCAK256 ADD PUSH1 0x0 SWAP1 SLOAD SWAP1 PUSH2 0x100 EXP SWAP1 DIV PUSH20 0xFFFFFFFFFFFFFFFFFFFFFFFFFFFFFFFFFFFFFFFF AND PUSH20 0xFFFFFFFFFFFFFFFFFFFFFFFFFFFFFFFFFFFFFFFF AND PUSH20 0xFFFFFFFFFFFFFFFFFFFFFFFFFFFFFFFFFFFFFFFF AND DUP2 MSTORE PUSH1 0x20 ADD SWAP1 DUP2 MSTORE PUSH1 0x20 ADD PUSH1 0x0 KECCAK256 PUSH1 0x0 DUP1 DUP3 ADD PUSH1 0x0 PUSH2 0x100 EXP DUP2 SLOAD SWAP1 PUSH1 0xFF MUL NOT AND SWAP1 SSTORE PUSH1 0x0 DUP3 ADD PUSH1 0x1 PUSH2 0x100 EXP DUP2 SLOAD SWAP1 PUSH1 0xFF MUL NOT AND SWAP1 SSTORE PUSH1 0x0 DUP3 ADD PUSH1 0x2 PUSH2 0x100 EXP DUP2 SLOAD SWAP1 PUSH2 0xFFFF MUL NOT AND SWAP1 SSTORE POP POP DUP1 DUP1 PUSH2 0xC75 SWAP1 PUSH2 0x2508 JUMP JUMPDEST SWAP2 POP POP PUSH2 0xB0B JUMP JUMPDEST POP PUSH1 0x1 PUSH1 0x0 PUSH2 0xC8C SWAP2 SWAP1 PUSH2 0x1C9B JUMP JUMPDEST PUSH1 0x2 PUSH1 0x0 PUSH2 0xC9A SWAP2 SWAP1 PUSH2 0x1CBF JUMP JUMPDEST PUSH2 0xCA4 PUSH1 0x0 PUSH2 0x1B07 JUMP JUMPDEST JUMP JUMPDEST PUSH1 0x3 PUSH1 0x0 CALLER PUSH20 0xFFFFFFFFFFFFFFFFFFFFFFFFFFFFFFFFFFFFFFFF AND PUSH20 0xFFFFFFFFFFFFFFFFFFFFFFFFFFFFFFFFFFFFFFFF AND DUP2 MSTORE PUSH1 0x20 ADD SWAP1 DUP2 MSTORE PUSH1 0x20 ADD PUSH1 0x0 KECCAK256 PUSH1 0x0 ADD PUSH1 0x0 SWAP1 SLOAD SWAP1 PUSH2 0x100 EXP SWAP1 DIV PUSH1 0xFF AND PUSH2 0xD35 JUMPI PUSH1 0x40 MLOAD PUSH32 0x8C379A000000000000000000000000000000000000000000000000000000000 DUP2 MSTORE PUSH1 0x4 ADD PUSH2 0xD2C SWAP1 PUSH2 0x2320 JUMP JUMPDEST PUSH1 0x40 MLOAD DUP1 SWAP2 SUB SWAP1 REVERT JUMPDEST PUSH1 0x1 PUSH1 0x5 DUP2 GT ISZERO PUSH2 0xD49 JUMPI PUSH2 0xD48 PUSH2 0x2170 JUMP JUMPDEST JUMPDEST PUSH1 0x0 PUSH1 0x1A SWAP1 SLOAD SWAP1 PUSH2 0x100 EXP SWAP1 DIV PUSH1 0xFF AND PUSH1 0x5 DUP2 GT ISZERO PUSH2 0xD6B JUMPI PUSH2 0xD6A PUSH2 0x2170 JUMP JUMPDEST JUMPDEST EQ PUSH2 0xDAB JUMPI PUSH1 0x40 MLOAD PUSH32 0x8C379A000000000000000000000000000000000000000000000000000000000 DUP2 MSTORE PUSH1 0x4 ADD PUSH2 0xDA2 SWAP1 PUSH2 0x2222 JUMP JUMPDEST PUSH1 0x40 MLOAD DUP1 SWAP2 SUB SWAP1 REVERT JUMPDEST PUSH1 0x0 DUP3 DUP3 SWAP1 POP GT PUSH2 0xDF1 JUMPI PUSH1 0x40 MLOAD PUSH32 0x8C379A000000000000000000000000000000000000000000000000000000000 DUP2 MSTORE PUSH1 0x4 ADD PUSH2 0xDE8 SWAP1 PUSH2 0x2748 JUMP JUMPDEST PUSH1 0x40 MLOAD DUP1 SWAP2 SUB SWAP1 REVERT JUMPDEST PUSH1 0x1 PUSH1 0x40 MLOAD DUP1 PUSH1 0x40 ADD PUSH1 0x40 MSTORE DUP1 DUP5 DUP5 DUP1 DUP1 PUSH1 0x1F ADD PUSH1 0x20 DUP1 SWAP2 DIV MUL PUSH1 0x20 ADD PUSH1 0x40 MLOAD SWAP1 DUP2 ADD PUSH1 0x40 MSTORE DUP1 SWAP4 SWAP3 SWAP2 SWAP1 DUP2 DUP2 MSTORE PUSH1 0x20 ADD DUP4 DUP4 DUP1 DUP3 DUP5 CALLDATACOPY PUSH1 0x0 DUP2 DUP5 ADD MSTORE PUSH1 0x1F NOT PUSH1 0x1F DUP3 ADD AND SWAP1 POP DUP1 DUP4 ADD SWAP3 POP POP POP POP POP POP POP DUP2 MSTORE PUSH1 0x20 ADD PUSH1 0x0 PUSH2 0xFFFF AND DUP2 MSTORE POP SWAP1 DUP1 PUSH1 0x1 DUP2 SLOAD ADD DUP1 DUP3 SSTORE DUP1 SWAP2 POP POP PUSH1 0x1 SWAP1 SUB SWAP1 PUSH1 0x0 MSTORE PUSH1 0x20 PUSH1 0x0 KECCAK256 SWAP1 PUSH1 0x2 MUL ADD PUSH1 0x0 SWAP1 SWAP2 SWAP1 SWAP2 SWAP1 SWAP2 POP PUSH1 0x0 DUP3 ADD MLOAD DUP2 PUSH1 0x0 ADD SWAP1 DUP2 PUSH2 0xE8F SWAP2 SWAP1 PUSH2 0x294D JUMP JUMPDEST POP PUSH1 0x20 DUP3 ADD MLOAD DUP2 PUSH1 0x1 ADD PUSH1 0x0 PUSH2 0x100 EXP DUP2 SLOAD DUP2 PUSH2 0xFFFF MUL NOT AND SWAP1 DUP4 PUSH2 0xFFFF AND MUL OR SWAP1 SSTORE POP POP POP PUSH1 0x0 PUSH1 0x1 DUP1 DUP1 SLOAD SWAP1 POP PUSH2 0xEC8 SWAP2 SWAP1 PUSH2 0x2A1F JUMP JUMPDEST SWAP1 POP PUSH1 0x4 PUSH1 0x0 CALLER PUSH20 0xFFFFFFFFFFFFFFFFFFFFFFFFFFFFFFFFFFFFFFFF AND PUSH20 0xFFFFFFFFFFFFFFFFFFFFFFFFFFFFFFFFFFFFFFFF AND DUP2 MSTORE PUSH1 0x20 ADD SWAP1 DUP2 MSTORE PUSH1 0x20 ADD PUSH1 0x0 KECCAK256 DUP2 SWAP1 DUP1 PUSH1 0x1 DUP2 SLOAD ADD DUP1 DUP3 SSTORE DUP1 SWAP2 POP POP PUSH1 0x1 SWAP1 SUB SWAP1 PUSH1 0x0 MSTORE PUSH1 0x20 PUSH1 0x0 KECCAK256 ADD PUSH1 0x0 SWAP1 SWAP2 PUSH2 0xFFFF AND SWAP1 SWAP2 SWAP1 SWAP2 POP SSTORE DUP1 PUSH2 0xFFFF AND PUSH32 0x3A4C611B68899D706A17379718E0E71BC4FBD91BA8E193B04E9876719D2D8603 PUSH1 0x40 MLOAD PUSH1 0x40 MLOAD DUP1 SWAP2 SUB SWAP1 LOG2 POP POP POP JUMP JUMPDEST PUSH1 0x60 PUSH1 0x3 PUSH1 0x0 CALLER PUSH20 0xFFFFFFFFFFFFFFFFFFFFFFFFFFFFFFFFFFFFFFFF AND PUSH20 0xFFFFFFFFFFFFFFFFFFFFFFFFFFFFFFFFFFFFFFFF AND DUP2 MSTORE PUSH1 0x20 ADD SWAP1 DUP2 MSTORE PUSH1 0x20 ADD PUSH1 0x0 KECCAK256 PUSH1 0x0 ADD PUSH1 0x0 SWAP1 SLOAD SWAP1 PUSH2 0x100 EXP SWAP1 DIV PUSH1 0xFF AND PUSH2 0xFFB JUMPI PUSH1 0x40 MLOAD PUSH32 0x8C379A000000000000000000000000000000000000000000000000000000000 DUP2 MSTORE PUSH1 0x4 ADD PUSH2 0xFF2 SWAP1 PUSH2 0x2320 JUMP JUMPDEST PUSH1 0x40 MLOAD DUP1 SWAP2 SUB SWAP1 REVERT JUMPDEST PUSH1 0x3 PUSH1 0x0 DUP4 PUSH20 0xFFFFFFFFFFFFFFFFFFFFFFFFFFFFFFFFFFFFFFFF AND PUSH20 0xFFFFFFFFFFFFFFFFFFFFFFFFFFFFFFFFFFFFFFFF AND DUP2 MSTORE PUSH1 0x20 ADD SWAP1 DUP2 MSTORE PUSH1 0x20 ADD PUSH1 0x0 KECCAK256 PUSH1 0x0 ADD PUSH1 0x0 SWAP1 SLOAD SWAP1 PUSH2 0x100 EXP SWAP1 DIV PUSH1 0xFF AND PUSH2 0x108A JUMPI PUSH1 0x40 MLOAD PUSH32 0x8C379A000000000000000000000000000000000000000000000000000000000 DUP2 MSTORE PUSH1 0x4 ADD PUSH2 0x1081 SWAP1 PUSH2 0x257E JUMP JUMPDEST PUSH1 0x40 MLOAD DUP1 SWAP2 SUB SWAP1 REVERT JUMPDEST PUSH1 0x0 PUSH1 0x4 PUSH1 0x0 DUP5 PUSH20 0xFFFFFFFFFFFFFFFFFFFFFFFFFFFFFFFFFFFFFFFF AND PUSH20 0xFFFFFFFFFFFFFFFFFFFFFFFFFFFFFFFFFFFFFFFF AND DUP2 MSTORE PUSH1 0x20 ADD SWAP1 DUP2 MSTORE PUSH1 0x20 ADD PUSH1 0x0 KECCAK256 DUP1 SLOAD DUP1 PUSH1 0x20 MUL PUSH1 0x20 ADD PUSH1 0x40 MLOAD SWAP1 DUP2 ADD PUSH1 0x40 MSTORE DUP1 SWAP3 SWAP2 SWAP1 DUP2 DUP2 MSTORE PUSH1 0x20 ADD DUP3 DUP1 SLOAD DUP1 ISZERO PUSH2 0x1115 JUMPI PUSH1 0x20 MUL DUP3 ADD SWAP2 SWAP1 PUSH1 0x0 MSTORE PUSH1 0x20 PUSH1 0x0 KECCAK256 SWAP1 JUMPDEST DUP2 SLOAD DUP2 MSTORE PUSH1 0x20 ADD SWAP1 PUSH1 0x1 ADD SWAP1 DUP1 DUP4 GT PUSH2 0x1101 JUMPI JUMPDEST POP POP POP POP POP SWAP1 POP PUSH1 0x0 DUP2 MLOAD PUSH8 0xFFFFFFFFFFFFFFFF DUP2 GT ISZERO PUSH2 0x1139 JUMPI PUSH2 0x1138 PUSH2 0x2768 JUMP JUMPDEST JUMPDEST PUSH1 0x40 MLOAD SWAP1 DUP1 DUP3 MSTORE DUP1 PUSH1 0x20 MUL PUSH1 0x20 ADD DUP3 ADD PUSH1 0x40 MSTORE DUP1 ISZERO PUSH2 0x1172 JUMPI DUP2 PUSH1 0x20 ADD JUMPDEST PUSH2 0x115F PUSH2 0x1C5C JUMP JUMPDEST DUP2 MSTORE PUSH1 0x20 ADD SWAP1 PUSH1 0x1 SWAP1 SUB SWAP1 DUP2 PUSH2 0x1157 JUMPI SWAP1 POP JUMPDEST POP SWAP1 POP PUSH1 0x0 JUMPDEST DUP3 MLOAD DUP2 PUSH2 0xFFFF AND LT ISZERO PUSH2 0x12B7 JUMPI PUSH1 0x1 DUP4 DUP3 PUSH2 0xFFFF AND DUP2 MLOAD DUP2 LT PUSH2 0x119E JUMPI PUSH2 0x119D PUSH2 0x24AA JUMP JUMPDEST JUMPDEST PUSH1 0x20 MUL PUSH1 0x20 ADD ADD MLOAD DUP2 SLOAD DUP2 LT PUSH2 0x11B7 JUMPI PUSH2 0x11B6 PUSH2 0x24AA JUMP JUMPDEST JUMPDEST SWAP1 PUSH1 0x0 MSTORE PUSH1 0x20 PUSH1 0x0 KECCAK256 SWAP1 PUSH1 0x2 MUL ADD PUSH1 0x40 MLOAD DUP1 PUSH1 0x40 ADD PUSH1 0x40 MSTORE SWAP1 DUP2 PUSH1 0x0 DUP3 ADD DUP1 SLOAD PUSH2 0x11E0 SWAP1 PUSH2 0x2639 JUMP JUMPDEST DUP1 PUSH1 0x1F ADD PUSH1 0x20 DUP1 SWAP2 DIV MUL PUSH1 0x20 ADD PUSH1 0x40 MLOAD SWAP1 DUP2 ADD PUSH1 0x40 MSTORE DUP1 SWAP3 SWAP2 SWAP1 DUP2 DUP2 MSTORE PUSH1 0x20 ADD DUP3 DUP1 SLOAD PUSH2 0x120C SWAP1 PUSH2 0x2639 JUMP JUMPDEST DUP1 ISZERO PUSH2 0x1259 JUMPI DUP1 PUSH1 0x1F LT PUSH2 0x122E JUMPI PUSH2 0x100 DUP1 DUP4 SLOAD DIV MUL DUP4 MSTORE SWAP2 PUSH1 0x20 ADD SWAP2 PUSH2 0x1259 JUMP JUMPDEST DUP3 ADD SWAP2 SWAP1 PUSH1 0x0 MSTORE PUSH1 0x20 PUSH1 0x0 KECCAK256 SWAP1 JUMPDEST DUP2 SLOAD DUP2 MSTORE SWAP1 PUSH1 0x1 ADD SWAP1 PUSH1 0x20 ADD DUP1 DUP4 GT PUSH2 0x123C JUMPI DUP3 SWAP1 SUB PUSH1 0x1F AND DUP3 ADD SWAP2 JUMPDEST POP POP POP POP POP DUP2 MSTORE PUSH1 0x20 ADD PUSH1 0x1 DUP3 ADD PUSH1 0x0 SWAP1 SLOAD SWAP1 PUSH2 0x100 EXP SWAP1 DIV PUSH2 0xFFFF AND PUSH2 0xFFFF AND PUSH2 0xFFFF AND DUP2 MSTORE POP POP DUP3 DUP3 PUSH2 0xFFFF AND DUP2 MLOAD DUP2 LT PUSH2 0x1299 JUMPI PUSH2 0x1298 PUSH2 0x24AA JUMP JUMPDEST JUMPDEST PUSH1 0x20 MUL PUSH1 0x20 ADD ADD DUP2 SWAP1 MSTORE POP DUP1 DUP1 PUSH2 0x12AF SWAP1 PUSH2 0x2508 JUMP JUMPDEST SWAP2 POP POP PUSH2 0x1178 JUMP JUMPDEST POP DUP1 SWAP3 POP POP POP SWAP2 SWAP1 POP JUMP JUMPDEST PUSH2 0x12CA PUSH2 0x1A89 JUMP JUMPDEST PUSH2 0x12D4 PUSH1 0x0 PUSH2 0x1B90 JUMP JUMPDEST JUMP JUMPDEST PUSH2 0x12DE PUSH2 0x1A89 JUMP JUMPDEST PUSH1 0x0 PUSH1 0x5 DUP2 GT ISZERO PUSH2 0x12F2 JUMPI PUSH2 0x12F1 PUSH2 0x2170 JUMP JUMPDEST JUMPDEST PUSH1 0x0 PUSH1 0x1A SWAP1 SLOAD SWAP1 PUSH2 0x100 EXP SWAP1 DIV PUSH1 0xFF AND PUSH1 0x5 DUP2 GT ISZERO PUSH2 0x1314 JUMPI PUSH2 0x1313 PUSH2 0x2170 JUMP JUMPDEST JUMPDEST EQ PUSH2 0x1354 JUMPI PUSH1 0x40 MLOAD PUSH32 0x8C379A000000000000000000000000000000000000000000000000000000000 DUP2 MSTORE PUSH1 0x4 ADD PUSH2 0x134B SWAP1 PUSH2 0x2AC5 JUMP JUMPDEST PUSH1 0x40 MLOAD DUP1 SWAP2 SUB SWAP1 REVERT JUMPDEST PUSH1 0x1 PUSH1 0x0 PUSH1 0x18 SWAP1 SLOAD SWAP1 PUSH2 0x100 EXP SWAP1 DIV PUSH2 0xFFFF AND PUSH2 0xFFFF AND GT PUSH2 0x13AB JUMPI PUSH1 0x40 MLOAD PUSH32 0x8C379A000000000000000000000000000000000000000000000000000000000 DUP2 MSTORE PUSH1 0x4 ADD PUSH2 0x13A2 SWAP1 PUSH2 0x2B57 JUMP JUMPDEST PUSH1 0x40 MLOAD DUP1 SWAP2 SUB SWAP1 REVERT JUMPDEST PUSH2 0x13B5 PUSH1 0x1 PUSH2 0x1B07 JUMP JUMPDEST JUMP JUMPDEST PUSH1 0x0 DUP1 PUSH1 0x0 SWAP1 SLOAD SWAP1 PUSH2 0x100 EXP SWAP1 DIV PUSH20 0xFFFFFFFFFFFFFFFFFFFFFFFFFFFFFFFFFFFFFFFF AND SWAP1 POP SWAP1 JUMP JUMPDEST PUSH2 0x13E8 PUSH2 0x1C5C JUMP JUMPDEST PUSH1 0x5 DUP1 DUP2 GT ISZERO PUSH2 0x13FB JUMPI PUSH2 0x13FA PUSH2 0x2170 JUMP JUMPDEST JUMPDEST PUSH1 0x0 PUSH1 0x1A SWAP1 SLOAD SWAP1 PUSH2 0x100 EXP SWAP1 DIV PUSH1 0xFF AND PUSH1 0x5 DUP2 GT ISZERO PUSH2 0x141D JUMPI PUSH2 0x141C PUSH2 0x2170 JUMP JUMPDEST JUMPDEST EQ PUSH2 0x145D JUMPI PUSH1 0x40 MLOAD PUSH32 0x8C379A000000000000000000000000000000000000000000000000000000000 DUP2 MSTORE PUSH1 0x4 ADD PUSH2 0x1454 SWAP1 PUSH2 0x2BC3 JUMP JUMPDEST PUSH1 0x40 MLOAD DUP1 SWAP2 SUB SWAP1 REVERT JUMPDEST PUSH1 0x1 PUSH1 0x0 PUSH1 0x14 SWAP1 SLOAD SWAP1 PUSH2 0x100 EXP SWAP1 DIV PUSH2 0xFFFF AND PUSH2 0xFFFF AND DUP2 SLOAD DUP2 LT PUSH2 0x1485 JUMPI PUSH2 0x1484 PUSH2 0x24AA JUMP JUMPDEST JUMPDEST SWAP1 PUSH1 0x0 MSTORE PUSH1 0x20 PUSH1 0x0 KECCAK256 SWAP1 PUSH1 0x2 MUL ADD PUSH1 0x40 MLOAD DUP1 PUSH1 0x40 ADD PUSH1 0x40 MSTORE SWAP1 DUP2 PUSH1 0x0 DUP3 ADD DUP1 SLOAD PUSH2 0x14AE SWAP1 PUSH2 0x2639 JUMP JUMPDEST DUP1 PUSH1 0x1F ADD PUSH1 0x20 DUP1 SWAP2 DIV MUL PUSH1 0x20 ADD PUSH1 0x40 MLOAD SWAP1 DUP2 ADD PUSH1 0x40 MSTORE DUP1 SWAP3 SWAP2 SWAP1 DUP2 DUP2 MSTORE PUSH1 0x20 ADD DUP3 DUP1 SLOAD PUSH2 0x14DA SWAP1 PUSH2 0x2639 JUMP JUMPDEST DUP1 ISZERO PUSH2 0x1527 JUMPI DUP1 PUSH1 0x1F LT PUSH2 0x14FC JUMPI PUSH2 0x100 DUP1 DUP4 SLOAD DIV MUL DUP4 MSTORE SWAP2 PUSH1 0x20 ADD SWAP2 PUSH2 0x1527 JUMP JUMPDEST DUP3 ADD SWAP2 SWAP1 PUSH1 0x0 MSTORE PUSH1 0x20 PUSH1 0x0 KECCAK256 SWAP1 JUMPDEST DUP2 SLOAD DUP2 MSTORE SWAP1 PUSH1 0x1 ADD SWAP1 PUSH1 0x20 ADD DUP1 DUP4 GT PUSH2 0x150A JUMPI DUP3 SWAP1 SUB PUSH1 0x1F AND DUP3 ADD SWAP2 JUMPDEST POP POP POP POP POP DUP2 MSTORE PUSH1 0x20 ADD PUSH1 0x1 DUP3 ADD PUSH1 0x0 SWAP1 SLOAD SWAP1 PUSH2 0x100 EXP SWAP1 DIV PUSH2 0xFFFF AND PUSH2 0xFFFF AND PUSH2 0xFFFF AND DUP2 MSTORE POP POP SWAP1 POP SWAP1 JUMP JUMPDEST PUSH2 0x155D PUSH2 0x1A89 JUMP JUMPDEST PUSH1 0x0 PUSH1 0x5 DUP2 GT ISZERO PUSH2 0x1571 JUMPI PUSH2 0x1570 PUSH2 0x2170 JUMP JUMPDEST JUMPDEST PUSH1 0x0 PUSH1 0x1A SWAP1 SLOAD SWAP1 PUSH2 0x100 EXP SWAP1 DIV PUSH1 0xFF AND PUSH1 0x5 DUP2 GT ISZERO PUSH2 0x1593 JUMPI PUSH2 0x1592 PUSH2 0x2170 JUMP JUMPDEST JUMPDEST EQ PUSH2 0x15D3 JUMPI PUSH1 0x40 MLOAD PUSH32 0x8C379A000000000000000000000000000000000000000000000000000000000 DUP2 MSTORE PUSH1 0x4 ADD PUSH2 0x15CA SWAP1 PUSH2 0x2AC5 JUMP JUMPDEST PUSH1 0x40 MLOAD DUP1 SWAP2 SUB SWAP1 REVERT JUMPDEST PUSH1 0x3 PUSH1 0x0 DUP3 PUSH20 0xFFFFFFFFFFFFFFFFFFFFFFFFFFFFFFFFFFFFFFFF AND PUSH20 0xFFFFFFFFFFFFFFFFFFFFFFFFFFFFFFFFFFFFFFFF AND DUP2 MSTORE PUSH1 0x20 ADD SWAP1 DUP2 MSTORE PUSH1 0x20 ADD PUSH1 0x0 KECCAK256 PUSH1 0x0 ADD PUSH1 0x0 SWAP1 SLOAD SWAP1 PUSH2 0x100 EXP SWAP1 DIV PUSH1 0xFF AND ISZERO PUSH2 0x1663 JUMPI PUSH1 0x40 MLOAD PUSH32 0x8C379A000000000000000000000000000000000000000000000000000000000 DUP2 MSTORE PUSH1 0x4 ADD PUSH2 0x165A SWAP1 PUSH2 0x2C2F JUMP JUMPDEST PUSH1 0x40 MLOAD DUP1 SWAP2 SUB SWAP1 REVERT JUMPDEST PUSH1 0x2 DUP2 SWAP1 DUP1 PUSH1 0x1 DUP2 SLOAD ADD DUP1 DUP3 SSTORE DUP1 SWAP2 POP POP PUSH1 0x1 SWAP1 SUB SWAP1 PUSH1 0x0 MSTORE PUSH1 0x20 PUSH1 0x0 KECCAK256 ADD PUSH1 0x0 SWAP1 SWAP2 SWAP1 SWAP2 SWAP1 SWAP2 PUSH2 0x100 EXP DUP2 SLOAD DUP2 PUSH20 0xFFFFFFFFFFFFFFFFFFFFFFFFFFFFFFFFFFFFFFFF MUL NOT AND SWAP1 DUP4 PUSH20 0xFFFFFFFFFFFFFFFFFFFFFFFFFFFFFFFFFFFFFFFF AND MUL OR SWAP1 SSTORE POP PUSH1 0x40 MLOAD DUP1 PUSH1 0x60 ADD PUSH1 0x40 MSTORE DUP1 PUSH1 0x1 ISZERO ISZERO DUP2 MSTORE PUSH1 0x20 ADD PUSH1 0x0 ISZERO ISZERO DUP2 MSTORE PUSH1 0x20 ADD PUSH1 0x0 PUSH2 0xFFFF AND DUP2 MSTORE POP PUSH1 0x3 PUSH1 0x0 DUP4 PUSH20 0xFFFFFFFFFFFFFFFFFFFFFFFFFFFFFFFFFFFFFFFF AND PUSH20 0xFFFFFFFFFFFFFFFFFFFFFFFFFFFFFFFFFFFFFFFF AND DUP2 MSTORE PUSH1 0x20 ADD SWAP1 DUP2 MSTORE PUSH1 0x20 ADD PUSH1 0x0 KECCAK256 PUSH1 0x0 DUP3 ADD MLOAD DUP2 PUSH1 0x0 ADD PUSH1 0x0 PUSH2 0x100 EXP DUP2 SLOAD DUP2 PUSH1 0xFF MUL NOT AND SWAP1 DUP4 ISZERO ISZERO MUL OR SWAP1 SSTORE POP PUSH1 0x20 DUP3 ADD MLOAD DUP2 PUSH1 0x0 ADD PUSH1 0x1 PUSH2 0x100 EXP DUP2 SLOAD DUP2 PUSH1 0xFF MUL NOT AND SWAP1 DUP4 ISZERO ISZERO MUL OR SWAP1 SSTORE POP PUSH1 0x40 DUP3 ADD MLOAD DUP2 PUSH1 0x0 ADD PUSH1 0x2 PUSH2 0x100 EXP DUP2 SLOAD DUP2 PUSH2 0xFFFF MUL NOT AND SWAP1 DUP4 PUSH2 0xFFFF AND MUL OR SWAP1 SSTORE POP SWAP1 POP POP PUSH1 0x0 PUSH1 0x18 DUP2 DUP2 SWAP1 SLOAD SWAP1 PUSH2 0x100 EXP SWAP1 DIV PUSH2 0xFFFF AND DUP1 SWAP3 SWAP2 SWAP1 PUSH2 0x17B1 SWAP1 PUSH2 0x2508 JUMP JUMPDEST SWAP2 SWAP1 PUSH2 0x100 EXP DUP2 SLOAD DUP2 PUSH2 0xFFFF MUL NOT AND SWAP1 DUP4 PUSH2 0xFFFF AND MUL OR SWAP1 SSTORE POP POP DUP1 PUSH20 0xFFFFFFFFFFFFFFFFFFFFFFFFFFFFFFFFFFFFFFFF AND PUSH32 0xB6BE2187D059CC2A55FE29E0E503B566E1E0F8C8780096E185429350ACFFD3DD PUSH1 0x40 MLOAD PUSH1 0x40 MLOAD DUP1 SWAP2 SUB SWAP1 LOG2 POP JUMP JUMPDEST PUSH2 0x181A PUSH2 0x1A89 JUMP JUMPDEST PUSH1 0x2 PUSH1 0x5 DUP2 GT ISZERO PUSH2 0x182E JUMPI PUSH2 0x182D PUSH2 0x2170 JUMP JUMPDEST JUMPDEST PUSH1 0x0 PUSH1 0x1A SWAP1 SLOAD SWAP1 PUSH2 0x100 EXP SWAP1 DIV PUSH1 0xFF AND PUSH1 0x5 DUP2 GT ISZERO PUSH2 0x1850 JUMPI PUSH2 0x184F PUSH2 0x2170 JUMP JUMPDEST JUMPDEST EQ PUSH2 0x1890 JUMPI PUSH1 0x40 MLOAD PUSH32 0x8C379A000000000000000000000000000000000000000000000000000000000 DUP2 MSTORE PUSH1 0x4 ADD PUSH2 0x1887 SWAP1 PUSH2 0x2CC1 JUMP JUMPDEST PUSH1 0x40 MLOAD DUP1 SWAP2 SUB SWAP1 REVERT JUMPDEST PUSH2 0x189A PUSH1 0x3 PUSH2 0x1B07 JUMP JUMPDEST JUMP JUMPDEST PUSH2 0x18A4 PUSH2 0x1A89 JUMP JUMPDEST PUSH1 0x3 PUSH1 0x5 DUP2 GT ISZERO PUSH2 0x18B8 JUMPI PUSH2 0x18B7 PUSH2 0x2170 JUMP JUMPDEST JUMPDEST PUSH1 0x0 PUSH1 0x1A SWAP1 SLOAD SWAP1 PUSH2 0x100 EXP SWAP1 DIV PUSH1 0xFF AND PUSH1 0x5 DUP2 GT ISZERO PUSH2 0x18DA JUMPI PUSH2 0x18D9 PUSH2 0x2170 JUMP JUMPDEST JUMPDEST EQ PUSH2 0x191A JUMPI PUSH1 0x40 MLOAD PUSH32 0x8C379A000000000000000000000000000000000000000000000000000000000 DUP2 MSTORE PUSH1 0x4 ADD PUSH2 0x1911 SWAP1 PUSH2 0x23B2 JUMP JUMPDEST PUSH1 0x40 MLOAD DUP1 SWAP2 SUB SWAP1 REVERT JUMPDEST PUSH1 0x0 DUP1 PUSH1 0x16 SWAP1 SLOAD SWAP1 PUSH2 0x100 EXP SWAP1 DIV PUSH2 0xFFFF AND PUSH2 0xFFFF AND GT PUSH2 0x1970 JUMPI PUSH1 0x40 MLOAD PUSH32 0x8C379A000000000000000000000000000000000000000000000000000000000 DUP2 MSTORE PUSH1 0x4 ADD PUSH2 0x1967 SWAP1 PUSH2 0x2D53 JUMP JUMPDEST PUSH1 0x40 MLOAD DUP1 SWAP2 SUB SWAP1 REVERT JUMPDEST PUSH2 0x197A PUSH1 0x4 PUSH2 0x1B07 JUMP JUMPDEST JUMP JUMPDEST PUSH2 0x1984 PUSH2 0x1A89 JUMP JUMPDEST PUSH1 0x4 PUSH1 0x5 DUP2 GT ISZERO PUSH2 0x1998 JUMPI PUSH2 0x1997 PUSH2 0x2170 JUMP JUMPDEST JUMPDEST PUSH1 0x0 PUSH1 0x1A SWAP1 SLOAD SWAP1 PUSH2 0x100 EXP SWAP1 DIV PUSH1 0xFF AND PUSH1 0x5 DUP2 GT ISZERO PUSH2 0x19BA JUMPI PUSH2 0x19B9 PUSH2 0x2170 JUMP JUMPDEST JUMPDEST EQ PUSH2 0x19FA JUMPI PUSH1 0x40 MLOAD PUSH32 0x8C379A000000000000000000000000000000000000000000000000000000000 DUP2 MSTORE PUSH1 0x4 ADD PUSH2 0x19F1 SWAP1 PUSH2 0x2DE5 JUMP JUMPDEST PUSH1 0x40 MLOAD DUP1 SWAP2 SUB SWAP1 REVERT JUMPDEST PUSH2 0x1A04 PUSH1 0x5 PUSH2 0x1B07 JUMP JUMPDEST JUMP JUMPDEST PUSH2 0x1A0E PUSH2 0x1A89 JUMP JUMPDEST PUSH1 0x0 PUSH20 0xFFFFFFFFFFFFFFFFFFFFFFFFFFFFFFFFFFFFFFFF AND DUP2 PUSH20 0xFFFFFFFFFFFFFFFFFFFFFFFFFFFFFFFFFFFFFFFF AND SUB PUSH2 0x1A7D JUMPI PUSH1 0x40 MLOAD PUSH32 0x8C379A000000000000000000000000000000000000000000000000000000000 DUP2 MSTORE PUSH1 0x4 ADD PUSH2 0x1A74 SWAP1 PUSH2 0x2E77 JUMP JUMPDEST PUSH1 0x40 MLOAD DUP1 SWAP2 SUB SWAP1 REVERT JUMPDEST PUSH2 0x1A86 DUP2 PUSH2 0x1B90 JUMP JUMPDEST POP JUMP JUMPDEST PUSH2 0x1A91 PUSH2 0x1C54 JUMP JUMPDEST PUSH20 0xFFFFFFFFFFFFFFFFFFFFFFFFFFFFFFFFFFFFFFFF AND PUSH2 0x1AAF PUSH2 0x13B7 JUMP JUMPDEST PUSH20 0xFFFFFFFFFFFFFFFFFFFFFFFFFFFFFFFFFFFFFFFF AND EQ PUSH2 0x1B05 JUMPI PUSH1 0x40 MLOAD PUSH32 0x8C379A000000000000000000000000000000000000000000000000000000000 DUP2 MSTORE PUSH1 0x4 ADD PUSH2 0x1AFC SWAP1 PUSH2 0x2EE3 JUMP JUMPDEST PUSH1 0x40 MLOAD DUP1 SWAP2 SUB SWAP1 REVERT JUMPDEST JUMP JUMPDEST PUSH1 0x0 DUP1 PUSH1 0x1A SWAP1 SLOAD SWAP1 PUSH2 0x100 EXP SWAP1 DIV PUSH1 0xFF AND SWAP1 POP DUP2 PUSH1 0x0 PUSH1 0x1A PUSH2 0x100 EXP DUP2 SLOAD DUP2 PUSH1 0xFF MUL NOT AND SWAP1 DUP4 PUSH1 0x5 DUP2 GT ISZERO PUSH2 0x1B3F JUMPI PUSH2 0x1B3E PUSH2 0x2170 JUMP JUMPDEST JUMPDEST MUL OR SWAP1 SSTORE POP PUSH32 0xA97A4EE45751E2ABF3E4FC8946939630B11B371EA8AE39CCDC3056E98F5CC3F DUP2 PUSH1 0x0 PUSH1 0x1A SWAP1 SLOAD SWAP1 PUSH2 0x100 EXP SWAP1 DIV PUSH1 0xFF AND PUSH1 0x40 MLOAD PUSH2 0x1B84 SWAP3 SWAP2 SWAP1 PUSH2 0x2F4B JUMP JUMPDEST PUSH1 0x40 MLOAD DUP1 SWAP2 SUB SWAP1 LOG1 POP POP JUMP JUMPDEST PUSH1 0x0 DUP1 PUSH1 0x0 SWAP1 SLOAD SWAP1 PUSH2 0x100 EXP SWAP1 DIV PUSH20 0xFFFFFFFFFFFFFFFFFFFFFFFFFFFFFFFFFFFFFFFF AND SWAP1 POP DUP2 PUSH1 0x0 DUP1 PUSH2 0x100 EXP DUP2 SLOAD DUP2 PUSH20 0xFFFFFFFFFFFFFFFFFFFFFFFFFFFFFFFFFFFFFFFF MUL NOT AND SWAP1 DUP4 PUSH20 0xFFFFFFFFFFFFFFFFFFFFFFFFFFFFFFFFFFFFFFFF AND MUL OR SWAP1 SSTORE POP DUP2 PUSH20 0xFFFFFFFFFFFFFFFFFFFFFFFFFFFFFFFFFFFFFFFF AND DUP2 PUSH20 0xFFFFFFFFFFFFFFFFFFFFFFFFFFFFFFFFFFFFFFFF AND PUSH32 0x8BE0079C531659141344CD1FD0A4F28419497F9722A3DAAFE3B4186F6B6457E0 PUSH1 0x40 MLOAD PUSH1 0x40 MLOAD DUP1 SWAP2 SUB SWAP1 LOG3 POP POP JUMP JUMPDEST PUSH1 0x0 CALLER SWAP1 POP SWAP1 JUMP JUMPDEST PUSH1 0x40 MLOAD DUP1 PUSH1 0x40 ADD PUSH1 0x40 MSTORE DUP1 PUSH1 0x60 DUP2 MSTORE PUSH1 0x20 ADD PUSH1 0x0 PUSH2 0xFFFF AND DUP2 MSTORE POP SWAP1 JUMP JUMPDEST POP DUP1 SLOAD PUSH1 0x0 DUP3 SSTORE SWAP1 PUSH1 0x0 MSTORE PUSH1 0x20 PUSH1 0x0 KECCAK256 SWAP1 DUP2 ADD SWAP1 PUSH2 0x1C98 SWAP2 SWAP1 PUSH2 0x1CE0 JUMP JUMPDEST POP JUMP JUMPDEST POP DUP1 SLOAD PUSH1 0x0 DUP3 SSTORE PUSH1 0x2 MUL SWAP1 PUSH1 0x0 MSTORE PUSH1 0x20 PUSH1 0x0 KECCAK256 SWAP1 DUP2 ADD SWAP1 PUSH2 0x1CBC SWAP2 SWAP1 PUSH2 0x1CFD JUMP JUMPDEST POP JUMP JUMPDEST POP DUP1 SLOAD PUSH1 0x0 DUP3 SSTORE SWAP1 PUSH1 0x0 MSTORE PUSH1 0x20 PUSH1 0x0 KECCAK256 SWAP1 DUP2 ADD SWAP1 PUSH2 0x1CDD SWAP2 SWAP1 PUSH2 0x1CE0 JUMP JUMPDEST POP JUMP JUMPDEST JUMPDEST DUP1 DUP3 GT ISZERO PUSH2 0x1CF9 JUMPI PUSH1 0x0 DUP2 PUSH1 0x0 SWAP1 SSTORE POP PUSH1 0x1 ADD PUSH2 0x1CE1 JUMP JUMPDEST POP SWAP1 JUMP JUMPDEST JUMPDEST DUP1 DUP3 GT ISZERO PUSH2 0x1D35 JUMPI PUSH1 0x0 DUP1 DUP3 ADD PUSH1 0x0 PUSH2 0x1D17 SWAP2 SWAP1 PUSH2 0x1D39 JUMP JUMPDEST PUSH1 0x1 DUP3 ADD PUSH1 0x0 PUSH2 0x100 EXP DUP2 SLOAD SWAP1 PUSH2 0xFFFF MUL NOT AND SWAP1 SSTORE POP PUSH1 0x2 ADD PUSH2 0x1CFE JUMP JUMPDEST POP SWAP1 JUMP JUMPDEST POP DUP1 SLOAD PUSH2 0x1D45 SWAP1 PUSH2 0x2639 JUMP JUMPDEST PUSH1 0x0 DUP3 SSTORE DUP1 PUSH1 0x1F LT PUSH2 0x1D57 JUMPI POP PUSH2 0x1D76 JUMP JUMPDEST PUSH1 0x1F ADD PUSH1 0x20 SWAP1 DIV SWAP1 PUSH1 0x0 MSTORE PUSH1 0x20 PUSH1 0x0 KECCAK256 SWAP1 DUP2 ADD SWAP1 PUSH2 0x1D75 SWAP2 SWAP1 PUSH2 0x1CE0 JUMP JUMPDEST JUMPDEST POP JUMP JUMPDEST PUSH1 0x0 DUP1 REVERT JUMPDEST PUSH1 0x0 DUP1 REVERT JUMPDEST PUSH1 0x0 PUSH2 0xFFFF DUP3 AND SWAP1 POP SWAP2 SWAP1 POP JUMP JUMPDEST PUSH2 0x1D9A DUP2 PUSH2 0x1D83 JUMP JUMPDEST DUP2 EQ PUSH2 0x1DA5 JUMPI PUSH1 0x0 DUP1 REVERT JUMPDEST POP JUMP JUMPDEST PUSH1 0x0 DUP2 CALLDATALOAD SWAP1 POP PUSH2 0x1DB7 DUP2 PUSH2 0x1D91 JUMP JUMPDEST SWAP3 SWAP2 POP POP JUMP JUMPDEST PUSH1 0x0 PUSH1 0x20 DUP3 DUP5 SUB SLT ISZERO PUSH2 0x1DD3 JUMPI PUSH2 0x1DD2 PUSH2 0x1D79 JUMP JUMPDEST JUMPDEST PUSH1 0x0 PUSH2 0x1DE1 DUP5 DUP3 DUP6 ADD PUSH2 0x1DA8 JUMP JUMPDEST SWAP2 POP POP SWAP3 SWAP2 POP POP JUMP JUMPDEST PUSH1 0x0 PUSH20 0xFFFFFFFFFFFFFFFFFFFFFFFFFFFFFFFFFFFFFFFF DUP3 AND SWAP1 POP SWAP2 SWAP1 POP JUMP JUMPDEST PUSH1 0x0 PUSH2 0x1E15 DUP3 PUSH2 0x1DEA JUMP JUMPDEST SWAP1 POP SWAP2 SWAP1 POP JUMP JUMPDEST PUSH2 0x1E25 DUP2 PUSH2 0x1E0A JUMP JUMPDEST DUP2 EQ PUSH2 0x1E30 JUMPI PUSH1 0x0 DUP1 REVERT JUMPDEST POP JUMP JUMPDEST PUSH1 0x0 DUP2 CALLDATALOAD SWAP1 POP PUSH2 0x1E42 DUP2 PUSH2 0x1E1C JUMP JUMPDEST SWAP3 SWAP2 POP POP JUMP JUMPDEST PUSH1 0x0 PUSH1 0x20 DUP3 DUP5 SUB SLT ISZERO PUSH2 0x1E5E JUMPI PUSH2 0x1E5D PUSH2 0x1D79 JUMP JUMPDEST JUMPDEST PUSH1 0x0 PUSH2 0x1E6C DUP5 DUP3 DUP6 ADD PUSH2 0x1E33 JUMP JUMPDEST SWAP2 POP POP SWAP3 SWAP2 POP POP JUMP JUMPDEST PUSH1 0x0 DUP2 MLOAD SWAP1 POP SWAP2 SWAP1 POP JUMP JUMPDEST PUSH1 0x0 DUP3 DUP3 MSTORE PUSH1 0x20 DUP3 ADD SWAP1 POP SWAP3 SWAP2 POP POP JUMP JUMPDEST PUSH1 0x0 JUMPDEST DUP4 DUP2 LT ISZERO PUSH2 0x1EAF JUMPI DUP1 DUP3 ADD MLOAD DUP2 DUP5 ADD MSTORE PUSH1 0x20 DUP2 ADD SWAP1 POP PUSH2 0x1E94 JUMP JUMPDEST PUSH1 0x0 DUP5 DUP5 ADD MSTORE POP POP POP POP JUMP JUMPDEST PUSH1 0x0 PUSH1 0x1F NOT PUSH1 0x1F DUP4 ADD AND SWAP1 POP SWAP2 SWAP1 POP JUMP JUMPDEST PUSH1 0x0 PUSH2 0x1ED7 DUP3 PUSH2 0x1E75 JUMP JUMPDEST PUSH2 0x1EE1 DUP2 DUP6 PUSH2 0x1E80 JUMP JUMPDEST SWAP4 POP PUSH2 0x1EF1 DUP2 DUP6 PUSH1 0x20 DUP7 ADD PUSH2 0x1E91 JUMP JUMPDEST PUSH2 0x1EFA DUP2 PUSH2 0x1EBB JUMP JUMPDEST DUP5 ADD SWAP2 POP POP SWAP3 SWAP2 POP POP JUMP JUMPDEST PUSH2 0x1F0E DUP2 PUSH2 0x1D83 JUMP JUMPDEST DUP3 MSTORE POP POP JUMP JUMPDEST PUSH1 0x0 PUSH1 0x40 DUP4 ADD PUSH1 0x0 DUP4 ADD MLOAD DUP5 DUP3 SUB PUSH1 0x0 DUP7 ADD MSTORE PUSH2 0x1F31 DUP3 DUP3 PUSH2 0x1ECC JUMP JUMPDEST SWAP2 POP POP PUSH1 0x20 DUP4 ADD MLOAD PUSH2 0x1F46 PUSH1 0x20 DUP7 ADD DUP3 PUSH2 0x1F05 JUMP JUMPDEST POP DUP1 SWAP2 POP POP SWAP3 SWAP2 POP POP JUMP JUMPDEST PUSH1 0x0 PUSH1 0x20 DUP3 ADD SWAP1 POP DUP2 DUP2 SUB PUSH1 0x0 DUP4 ADD MSTORE PUSH2 0x1F6B DUP2 DUP5 PUSH2 0x1F14 JUMP JUMPDEST SWAP1 POP SWAP3 SWAP2 POP POP JUMP JUMPDEST PUSH1 0x0 DUP1 REVERT JUMPDEST PUSH1 0x0 DUP1 REVERT JUMPDEST PUSH1 0x0 DUP1 REVERT JUMPDEST PUSH1 0x0 DUP1 DUP4 PUSH1 0x1F DUP5 ADD SLT PUSH2 0x1F98 JUMPI PUSH2 0x1F97 PUSH2 0x1F73 JUMP JUMPDEST JUMPDEST DUP3 CALLDATALOAD SWAP1 POP PUSH8 0xFFFFFFFFFFFFFFFF DUP2 GT ISZERO PUSH2 0x1FB5 JUMPI PUSH2 0x1FB4 PUSH2 0x1F78 JUMP JUMPDEST JUMPDEST PUSH1 0x20 DUP4 ADD SWAP2 POP DUP4 PUSH1 0x1 DUP3 MUL DUP4 ADD GT ISZERO PUSH2 0x1FD1 JUMPI PUSH2 0x1FD0 PUSH2 0x1F7D JUMP JUMPDEST JUMPDEST SWAP3 POP SWAP3 SWAP1 POP JUMP JUMPDEST PUSH1 0x0 DUP1 PUSH1 0x20 DUP4 DUP6 SUB SLT ISZERO PUSH2 0x1FEF JUMPI PUSH2 0x1FEE PUSH2 0x1D79 JUMP JUMPDEST JUMPDEST PUSH1 0x0 DUP4 ADD CALLDATALOAD PUSH8 0xFFFFFFFFFFFFFFFF DUP2 GT ISZERO PUSH2 0x200D JUMPI PUSH2 0x200C PUSH2 0x1D7E JUMP JUMPDEST JUMPDEST PUSH2 0x2019 DUP6 DUP3 DUP7 ADD PUSH2 0x1F82 JUMP JUMPDEST SWAP3 POP SWAP3 POP POP SWAP3 POP SWAP3 SWAP1 POP JUMP JUMPDEST PUSH1 0x0 DUP2 MLOAD SWAP1 POP SWAP2 SWAP1 POP JUMP JUMPDEST PUSH1 0x0 DUP3 DUP3 MSTORE PUSH1 0x20 DUP3 ADD SWAP1 POP SWAP3 SWAP2 POP POP JUMP JUMPDEST PUSH1 0x0 DUP2 SWAP1 POP PUSH1 0x20 DUP3 ADD SWAP1 POP SWAP2 SWAP1 POP JUMP JUMPDEST PUSH1 0x0 PUSH1 0x40 DUP4 ADD PUSH1 0x0 DUP4 ADD MLOAD DUP5 DUP3 SUB PUSH1 0x0 DUP7 ADD MSTORE PUSH2 0x206E DUP3 DUP3 PUSH2 0x1ECC JUMP JUMPDEST SWAP2 POP POP PUSH1 0x20 DUP4 ADD MLOAD PUSH2 0x2083 PUSH1 0x20 DUP7 ADD DUP3 PUSH2 0x1F05 JUMP JUMPDEST POP DUP1 SWAP2 POP POP SWAP3 SWAP2 POP POP JUMP JUMPDEST PUSH1 0x0 PUSH2 0x209A DUP4 DUP4 PUSH2 0x2051 JUMP JUMPDEST SWAP1 POP SWAP3 SWAP2 POP POP JUMP JUMPDEST PUSH1 0x0 PUSH1 0x20 DUP3 ADD SWAP1 POP SWAP2 SWAP1 POP JUMP JUMPDEST PUSH1 0x0 PUSH2 0x20BA DUP3 PUSH2 0x2025 JUMP JUMPDEST PUSH2 0x20C4 DUP2 DUP6 PUSH2 0x2030 JUMP JUMPDEST SWAP4 POP DUP4 PUSH1 0x20 DUP3 MUL DUP6 ADD PUSH2 0x20D6 DUP6 PUSH2 0x2041 JUMP JUMPDEST DUP1 PUSH1 0x0 JUMPDEST DUP6 DUP2 LT ISZERO PUSH2 0x2112 JUMPI DUP5 DUP5 SUB DUP10 MSTORE DUP2 MLOAD PUSH2 0x20F3 DUP6 DUP3 PUSH2 0x208E JUMP JUMPDEST SWAP5 POP PUSH2 0x20FE DUP4 PUSH2 0x20A2 JUMP JUMPDEST SWAP3 POP PUSH1 0x20 DUP11 ADD SWAP10 POP POP PUSH1 0x1 DUP2 ADD SWAP1 POP PUSH2 0x20DA JUMP JUMPDEST POP DUP3 SWAP8 POP DUP8 SWAP6 POP POP POP POP POP POP SWAP3 SWAP2 POP POP JUMP JUMPDEST PUSH1 0x0 PUSH1 0x20 DUP3 ADD SWAP1 POP DUP2 DUP2 SUB PUSH1 0x0 DUP4 ADD MSTORE PUSH2 0x213E DUP2 DUP5 PUSH2 0x20AF JUMP JUMPDEST SWAP1 POP SWAP3 SWAP2 POP POP JUMP JUMPDEST PUSH2 0x214F DUP2 PUSH2 0x1E0A JUMP JUMPDEST DUP3 MSTORE POP POP JUMP JUMPDEST PUSH1 0x0 PUSH1 0x20 DUP3 ADD SWAP1 POP PUSH2 0x216A PUSH1 0x0 DUP4 ADD DUP5 PUSH2 0x2146 JUMP JUMPDEST SWAP3 SWAP2 POP POP JUMP JUMPDEST PUSH32 0x4E487B7100000000000000000000000000000000000000000000000000000000 PUSH1 0x0 MSTORE PUSH1 0x21 PUSH1 0x4 MSTORE PUSH1 0x24 PUSH1 0x0 REVERT JUMPDEST PUSH1 0x0 DUP3 DUP3 MSTORE PUSH1 0x20 DUP3 ADD SWAP1 POP SWAP3 SWAP2 POP POP JUMP JUMPDEST PUSH32 0x5468652070726F706F73616C20726567697374726174696F6E206973206E6F74 PUSH1 0x0 DUP3 ADD MSTORE PUSH32 0x2073746172746564207965742E00000000000000000000000000000000000000 PUSH1 0x20 DUP3 ADD MSTORE POP JUMP JUMPDEST PUSH1 0x0 PUSH2 0x220C PUSH1 0x2D DUP4 PUSH2 0x219F JUMP JUMPDEST SWAP2 POP PUSH2 0x2217 DUP3 PUSH2 0x21B0 JUMP JUMPDEST PUSH1 0x40 DUP3 ADD SWAP1 POP SWAP2 SWAP1 POP JUMP JUMPDEST PUSH1 0x0 PUSH1 0x20 DUP3 ADD SWAP1 POP DUP2 DUP2 SUB PUSH1 0x0 DUP4 ADD MSTORE PUSH2 0x223B DUP2 PUSH2 0x21FF JUMP JUMPDEST SWAP1 POP SWAP2 SWAP1 POP JUMP JUMPDEST PUSH32 0x4E656564206174206C656173742074776F2070726F706F73616C7320746F2073 PUSH1 0x0 DUP3 ADD MSTORE PUSH32 0x746F7020612070726F706F73616C2073657373696F6E2E000000000000000000 PUSH1 0x20 DUP3 ADD MSTORE POP JUMP JUMPDEST PUSH1 0x0 PUSH2 0x229E PUSH1 0x37 DUP4 PUSH2 0x219F JUMP JUMPDEST SWAP2 POP PUSH2 0x22A9 DUP3 PUSH2 0x2242 JUMP JUMPDEST PUSH1 0x40 DUP3 ADD SWAP1 POP SWAP2 SWAP1 POP JUMP JUMPDEST PUSH1 0x0 PUSH1 0x20 DUP3 ADD SWAP1 POP DUP2 DUP2 SUB PUSH1 0x0 DUP4 ADD MSTORE PUSH2 0x22CD DUP2 PUSH2 0x2291 JUMP JUMPDEST SWAP1 POP SWAP2 SWAP1 POP JUMP JUMPDEST PUSH32 0x596F75206D757374206265207265676973746572656420646F20746869732E00 PUSH1 0x0 DUP3 ADD MSTORE POP JUMP JUMPDEST PUSH1 0x0 PUSH2 0x230A PUSH1 0x1F DUP4 PUSH2 0x219F JUMP JUMPDEST SWAP2 POP PUSH2 0x2315 DUP3 PUSH2 0x22D4 JUMP JUMPDEST PUSH1 0x20 DUP3 ADD SWAP1 POP SWAP2 SWAP1 POP JUMP JUMPDEST PUSH1 0x0 PUSH1 0x20 DUP3 ADD SWAP1 POP DUP2 DUP2 SUB PUSH1 0x0 DUP4 ADD MSTORE PUSH2 0x2339 DUP2 PUSH2 0x22FD JUMP JUMPDEST SWAP1 POP SWAP2 SWAP1 POP JUMP JUMPDEST PUSH32 0x54686520766F74696E672073657373696F6E206973206E6F7420737461727465 PUSH1 0x0 DUP3 ADD MSTORE PUSH32 0x64207965742E0000000000000000000000000000000000000000000000000000 PUSH1 0x20 DUP3 ADD MSTORE POP JUMP JUMPDEST PUSH1 0x0 PUSH2 0x239C PUSH1 0x26 DUP4 PUSH2 0x219F JUMP JUMPDEST SWAP2 POP PUSH2 0x23A7 DUP3 PUSH2 0x2340 JUMP JUMPDEST PUSH1 0x40 DUP3 ADD SWAP1 POP SWAP2 SWAP1 POP JUMP JUMPDEST PUSH1 0x0 PUSH1 0x20 DUP3 ADD SWAP1 POP DUP2 DUP2 SUB PUSH1 0x0 DUP4 ADD MSTORE PUSH2 0x23CB DUP2 PUSH2 0x238F JUMP JUMPDEST SWAP1 POP SWAP2 SWAP1 POP JUMP JUMPDEST PUSH32 0x596F7520616C726561647920766F7465642E0000000000000000000000000000 PUSH1 0x0 DUP3 ADD MSTORE POP JUMP JUMPDEST PUSH1 0x0 PUSH2 0x2408 PUSH1 0x12 DUP4 PUSH2 0x219F JUMP JUMPDEST SWAP2 POP PUSH2 0x2413 DUP3 PUSH2 0x23D2 JUMP JUMPDEST PUSH1 0x20 DUP3 ADD SWAP1 POP SWAP2 SWAP1 POP JUMP JUMPDEST PUSH1 0x0 PUSH1 0x20 DUP3 ADD SWAP1 POP DUP2 DUP2 SUB PUSH1 0x0 DUP4 ADD MSTORE PUSH2 0x2437 DUP2 PUSH2 0x23FB JUMP JUMPDEST SWAP1 POP SWAP2 SWAP1 POP JUMP JUMPDEST PUSH32 0x546869732070726F706F73616C20646F6573206E6F74206578697374732E0000 PUSH1 0x0 DUP3 ADD MSTORE POP JUMP JUMPDEST PUSH1 0x0 PUSH2 0x2474 PUSH1 0x1E DUP4 PUSH2 0x219F JUMP JUMPDEST SWAP2 POP PUSH2 0x247F DUP3 PUSH2 0x243E JUMP JUMPDEST PUSH1 0x20 DUP3 ADD SWAP1 POP SWAP2 SWAP1 POP JUMP JUMPDEST PUSH1 0x0 PUSH1 0x20 DUP3 ADD SWAP1 POP DUP2 DUP2 SUB PUSH1 0x0 DUP4 ADD MSTORE PUSH2 0x24A3 DUP2 PUSH2 0x2467 JUMP JUMPDEST SWAP1 POP SWAP2 SWAP1 POP JUMP JUMPDEST PUSH32 0x4E487B7100000000000000000000000000000000000000000000000000000000 PUSH1 0x0 MSTORE PUSH1 0x32 PUSH1 0x4 MSTORE PUSH1 0x24 PUSH1 0x0 REVERT JUMPDEST PUSH32 0x4E487B7100000000000000000000000000000000000000000000000000000000 PUSH1 0x0 MSTORE PUSH1 0x11 PUSH1 0x4 MSTORE PUSH1 0x24 PUSH1 0x0 REVERT JUMPDEST PUSH1 0x0 PUSH2 0x2513 DUP3 PUSH2 0x1D83 JUMP JUMPDEST SWAP2 POP PUSH2 0xFFFF DUP3 SUB PUSH2 0x2527 JUMPI PUSH2 0x2526 PUSH2 0x24D9 JUMP JUMPDEST JUMPDEST PUSH1 0x1 DUP3 ADD SWAP1 POP SWAP2 SWAP1 POP JUMP JUMPDEST PUSH32 0x54686520766F746572206973206E6F7420726567697374657265642E00000000 PUSH1 0x0 DUP3 ADD MSTORE POP JUMP JUMPDEST PUSH1 0x0 PUSH2 0x2568 PUSH1 0x1C DUP4 PUSH2 0x219F JUMP JUMPDEST SWAP2 POP PUSH2 0x2573 DUP3 PUSH2 0x2532 JUMP JUMPDEST PUSH1 0x20 DUP3 ADD SWAP1 POP SWAP2 SWAP1 POP JUMP JUMPDEST PUSH1 0x0 PUSH1 0x20 DUP3 ADD SWAP1 POP DUP2 DUP2 SUB PUSH1 0x0 DUP4 ADD MSTORE PUSH2 0x2597 DUP2 PUSH2 0x255B JUMP JUMPDEST SWAP1 POP SWAP2 SWAP1 POP JUMP JUMPDEST PUSH32 0x54686520766F74657220686173206E6F7420766F746564207965742E00000000 PUSH1 0x0 DUP3 ADD MSTORE POP JUMP JUMPDEST PUSH1 0x0 PUSH2 0x25D4 PUSH1 0x1C DUP4 PUSH2 0x219F JUMP JUMPDEST SWAP2 POP PUSH2 0x25DF DUP3 PUSH2 0x259E JUMP JUMPDEST PUSH1 0x20 DUP3 ADD SWAP1 POP SWAP2 SWAP1 POP JUMP JUMPDEST PUSH1 0x0 PUSH1 0x20 DUP3 ADD SWAP1 POP DUP2 DUP2 SUB PUSH1 0x0 DUP4 ADD MSTORE PUSH2 0x2603 DUP2 PUSH2 0x25C7 JUMP JUMPDEST SWAP1 POP SWAP2 SWAP1 POP JUMP JUMPDEST PUSH32 0x4E487B7100000000000000000000000000000000000000000000000000000000 PUSH1 0x0 MSTORE PUSH1 0x22 PUSH1 0x4 MSTORE PUSH1 0x24 PUSH1 0x0 REVERT JUMPDEST PUSH1 0x0 PUSH1 0x2 DUP3 DIV SWAP1 POP PUSH1 0x1 DUP3 AND DUP1 PUSH2 0x2651 JUMPI PUSH1 0x7F DUP3 AND SWAP2 POP JUMPDEST PUSH1 0x20 DUP3 LT DUP2 SUB PUSH2 0x2664 JUMPI PUSH2 0x2663 PUSH2 0x260A JUMP JUMPDEST JUMPDEST POP SWAP2 SWAP1 POP JUMP JUMPDEST PUSH32 0x5468652070726576696F75732073657373696F6E206973206E6F74206F766572 PUSH1 0x0 DUP3 ADD MSTORE PUSH32 0x207965742E000000000000000000000000000000000000000000000000000000 PUSH1 0x20 DUP3 ADD MSTORE POP JUMP JUMPDEST PUSH1 0x0 PUSH2 0x26C6 PUSH1 0x25 DUP4 PUSH2 0x219F JUMP JUMPDEST SWAP2 POP PUSH2 0x26D1 DUP3 PUSH2 0x266A JUMP JUMPDEST PUSH1 0x40 DUP3 ADD SWAP1 POP SWAP2 SWAP1 POP JUMP JUMPDEST PUSH1 0x0 PUSH1 0x20 DUP3 ADD SWAP1 POP DUP2 DUP2 SUB PUSH1 0x0 DUP4 ADD MSTORE PUSH2 0x26F5 DUP2 PUSH2 0x26B9 JUMP JUMPDEST SWAP1 POP SWAP2 SWAP1 POP JUMP JUMPDEST PUSH32 0x5468652070726F706F73616C2063616E6E6F7420626520656D7074792E000000 PUSH1 0x0 DUP3 ADD MSTORE POP JUMP JUMPDEST PUSH1 0x0 PUSH2 0x2732 PUSH1 0x1D DUP4 PUSH2 0x219F JUMP JUMPDEST SWAP2 POP PUSH2 0x273D DUP3 PUSH2 0x26FC JUMP JUMPDEST PUSH1 0x20 DUP3 ADD SWAP1 POP SWAP2 SWAP1 POP JUMP JUMPDEST PUSH1 0x0 PUSH1 0x20 DUP3 ADD SWAP1 POP DUP2 DUP2 SUB PUSH1 0x0 DUP4 ADD MSTORE PUSH2 0x2761 DUP2 PUSH2 0x2725 JUMP JUMPDEST SWAP1 POP SWAP2 SWAP1 POP JUMP JUMPDEST PUSH32 0x4E487B7100000000000000000000000000000000000000000000000000000000 PUSH1 0x0 MSTORE PUSH1 0x41 PUSH1 0x4 MSTORE PUSH1 0x24 PUSH1 0x0 REVERT JUMPDEST PUSH1 0x0 DUP2 SWAP1 POP DUP2 PUSH1 0x0 MSTORE PUSH1 0x20 PUSH1 0x0 KECCAK256 SWAP1 POP SWAP2 SWAP1 POP JUMP JUMPDEST PUSH1 0x0 PUSH1 0x20 PUSH1 0x1F DUP4 ADD DIV SWAP1 POP SWAP2 SWAP1 POP JUMP JUMPDEST PUSH1 0x0 DUP3 DUP3 SHL SWAP1 POP SWAP3 SWAP2 POP POP JUMP JUMPDEST PUSH1 0x0 PUSH1 0x8 DUP4 MUL PUSH2 0x27F9 PUSH32 0xFFFFFFFFFFFFFFFFFFFFFFFFFFFFFFFFFFFFFFFFFFFFFFFFFFFFFFFFFFFFFFFF DUP3 PUSH2 0x27BC JUMP JUMPDEST PUSH2 0x2803 DUP7 DUP4 PUSH2 0x27BC JUMP JUMPDEST SWAP6 POP DUP1 NOT DUP5 AND SWAP4 POP DUP1 DUP7 AND DUP5 OR SWAP3 POP POP POP SWAP4 SWAP3 POP POP POP JUMP JUMPDEST PUSH1 0x0 DUP2 SWAP1 POP SWAP2 SWAP1 POP JUMP JUMPDEST PUSH1 0x0 DUP2 SWAP1 POP SWAP2 SWAP1 POP JUMP JUMPDEST PUSH1 0x0 PUSH2 0x284A PUSH2 0x2845 PUSH2 0x2840 DUP5 PUSH2 0x281B JUMP JUMPDEST PUSH2 0x2825 JUMP JUMPDEST PUSH2 0x281B JUMP JUMPDEST SWAP1 POP SWAP2 SWAP1 POP JUMP JUMPDEST PUSH1 0x0 DUP2 SWAP1 POP SWAP2 SWAP1 POP JUMP JUMPDEST PUSH2 0x2864 DUP4 PUSH2 0x282F JUMP JUMPDEST PUSH2 0x2878 PUSH2 0x2870 DUP3 PUSH2 0x2851 JUMP JUMPDEST DUP5 DUP5 SLOAD PUSH2 0x27C9 JUMP JUMPDEST DUP3 SSTORE POP POP POP POP JUMP JUMPDEST PUSH1 0x0 SWAP1 JUMP JUMPDEST PUSH2 0x288D PUSH2 0x2880 JUMP JUMPDEST PUSH2 0x2898 DUP2 DUP5 DUP5 PUSH2 0x285B JUMP JUMPDEST POP POP POP JUMP JUMPDEST JUMPDEST DUP2 DUP2 LT ISZERO PUSH2 0x28BC JUMPI PUSH2 0x28B1 PUSH1 0x0 DUP3 PUSH2 0x2885 JUMP JUMPDEST PUSH1 0x1 DUP2 ADD SWAP1 POP PUSH2 0x289E JUMP JUMPDEST POP POP JUMP JUMPDEST PUSH1 0x1F DUP3 GT ISZERO PUSH2 0x2901 JUMPI PUSH2 0x28D2 DUP2 PUSH2 0x2797 JUMP JUMPDEST PUSH2 0x28DB DUP5 PUSH2 0x27AC JUMP JUMPDEST DUP2 ADD PUSH1 0x20 DUP6 LT ISZERO PUSH2 0x28EA JUMPI DUP2 SWAP1 POP JUMPDEST PUSH2 0x28FE PUSH2 0x28F6 DUP6 PUSH2 0x27AC JUMP JUMPDEST DUP4 ADD DUP3 PUSH2 0x289D JUMP JUMPDEST POP POP JUMPDEST POP POP POP JUMP JUMPDEST PUSH1 0x0 DUP3 DUP3 SHR SWAP1 POP SWAP3 SWAP2 POP POP JUMP JUMPDEST PUSH1 0x0 PUSH2 0x2924 PUSH1 0x0 NOT DUP5 PUSH1 0x8 MUL PUSH2 0x2906 JUMP JUMPDEST NOT DUP1 DUP4 AND SWAP2 POP POP SWAP3 SWAP2 POP POP JUMP JUMPDEST PUSH1 0x0 PUSH2 0x293D DUP4 DUP4 PUSH2 0x2913 JUMP JUMPDEST SWAP2 POP DUP3 PUSH1 0x2 MUL DUP3 OR SWAP1 POP SWAP3 SWAP2 POP POP JUMP JUMPDEST PUSH2 0x2956 DUP3 PUSH2 0x1E75 JUMP JUMPDEST PUSH8 0xFFFFFFFFFFFFFFFF DUP2 GT ISZERO PUSH2 0x296F JUMPI PUSH2 0x296E PUSH2 0x2768 JUMP JUMPDEST JUMPDEST PUSH2 0x2979 DUP3 SLOAD PUSH2 0x2639 JUMP JUMPDEST PUSH2 0x2984 DUP3 DUP3 DUP6 PUSH2 0x28C0 JUMP JUMPDEST PUSH1 0x0 PUSH1 0x20 SWAP1 POP PUSH1 0x1F DUP4 GT PUSH1 0x1 DUP2 EQ PUSH2 0x29B7 JUMPI PUSH1 0x0 DUP5 ISZERO PUSH2 0x29A5 JUMPI DUP3 DUP8 ADD MLOAD SWAP1 POP JUMPDEST PUSH2 0x29AF DUP6 DUP3 PUSH2 0x2931 JUMP JUMPDEST DUP7 SSTORE POP PUSH2 0x2A17 JUMP JUMPDEST PUSH1 0x1F NOT DUP5 AND PUSH2 0x29C5 DUP7 PUSH2 0x2797 JUMP JUMPDEST PUSH1 0x0 JUMPDEST DUP3 DUP2 LT ISZERO PUSH2 0x29ED JUMPI DUP5 DUP10 ADD MLOAD DUP3 SSTORE PUSH1 0x1 DUP3 ADD SWAP2 POP PUSH1 0x20 DUP6 ADD SWAP5 POP PUSH1 0x20 DUP2 ADD SWAP1 POP PUSH2 0x29C8 JUMP JUMPDEST DUP7 DUP4 LT ISZERO PUSH2 0x2A0A JUMPI DUP5 DUP10 ADD MLOAD PUSH2 0x2A06 PUSH1 0x1F DUP10 AND DUP3 PUSH2 0x2913 JUMP JUMPDEST DUP4 SSTORE POP JUMPDEST PUSH1 0x1 PUSH1 0x2 DUP9 MUL ADD DUP9 SSTORE POP POP POP JUMPDEST POP POP POP POP POP POP JUMP JUMPDEST PUSH1 0x0 PUSH2 0x2A2A DUP3 PUSH2 0x281B JUMP JUMPDEST SWAP2 POP PUSH2 0x2A35 DUP4 PUSH2 0x281B JUMP JUMPDEST SWAP3 POP DUP3 DUP3 SUB SWAP1 POP DUP2 DUP2 GT ISZERO PUSH2 0x2A4D JUMPI PUSH2 0x2A4C PUSH2 0x24D9 JUMP JUMPDEST JUMPDEST SWAP3 SWAP2 POP POP JUMP JUMPDEST PUSH32 0x546865207265676973746572696E6720766F74657273206973206E6F74206F70 PUSH1 0x0 DUP3 ADD MSTORE PUSH32 0x656E6564207965742E0000000000000000000000000000000000000000000000 PUSH1 0x20 DUP3 ADD MSTORE POP JUMP JUMPDEST PUSH1 0x0 PUSH2 0x2AAF PUSH1 0x29 DUP4 PUSH2 0x219F JUMP JUMPDEST SWAP2 POP PUSH2 0x2ABA DUP3 PUSH2 0x2A53 JUMP JUMPDEST PUSH1 0x40 DUP3 ADD SWAP1 POP SWAP2 SWAP1 POP JUMP JUMPDEST PUSH1 0x0 PUSH1 0x20 DUP3 ADD SWAP1 POP DUP2 DUP2 SUB PUSH1 0x0 DUP4 ADD MSTORE PUSH2 0x2ADE DUP2 PUSH2 0x2AA2 JUMP JUMPDEST SWAP1 POP SWAP2 SWAP1 POP JUMP JUMPDEST PUSH32 0x4E656564206174206C656173742074776F207265676973746572656420766F74 PUSH1 0x0 DUP3 ADD MSTORE PUSH32 0x65727320746F20737461727420612070726F706F73616C2073657373696F6E2E PUSH1 0x20 DUP3 ADD MSTORE POP JUMP JUMPDEST PUSH1 0x0 PUSH2 0x2B41 PUSH1 0x40 DUP4 PUSH2 0x219F JUMP JUMPDEST SWAP2 POP PUSH2 0x2B4C DUP3 PUSH2 0x2AE5 JUMP JUMPDEST PUSH1 0x40 DUP3 ADD SWAP1 POP SWAP2 SWAP1 POP JUMP JUMPDEST PUSH1 0x0 PUSH1 0x20 DUP3 ADD SWAP1 POP DUP2 DUP2 SUB PUSH1 0x0 DUP4 ADD MSTORE PUSH2 0x2B70 DUP2 PUSH2 0x2B34 JUMP JUMPDEST SWAP1 POP SWAP2 SWAP1 POP JUMP JUMPDEST PUSH32 0x54686520766F746520636F756E74206973206E6F74206F766572207965742E00 PUSH1 0x0 DUP3 ADD MSTORE POP JUMP JUMPDEST PUSH1 0x0 PUSH2 0x2BAD PUSH1 0x1F DUP4 PUSH2 0x219F JUMP JUMPDEST SWAP2 POP PUSH2 0x2BB8 DUP3 PUSH2 0x2B77 JUMP JUMPDEST PUSH1 0x20 DUP3 ADD SWAP1 POP SWAP2 SWAP1 POP JUMP JUMPDEST PUSH1 0x0 PUSH1 0x20 DUP3 ADD SWAP1 POP DUP2 DUP2 SUB PUSH1 0x0 DUP4 ADD MSTORE PUSH2 0x2BDC DUP2 PUSH2 0x2BA0 JUMP JUMPDEST SWAP1 POP SWAP2 SWAP1 POP JUMP JUMPDEST PUSH32 0x54686520766F74657220697320616C726561647920726567697374657265642E PUSH1 0x0 DUP3 ADD MSTORE POP JUMP JUMPDEST PUSH1 0x0 PUSH2 0x2C19 PUSH1 0x20 DUP4 PUSH2 0x219F JUMP JUMPDEST SWAP2 POP PUSH2 0x2C24 DUP3 PUSH2 0x2BE3 JUMP JUMPDEST PUSH1 0x20 DUP3 ADD SWAP1 POP SWAP2 SWAP1 POP JUMP JUMPDEST PUSH1 0x0 PUSH1 0x20 DUP3 ADD SWAP1 POP DUP2 DUP2 SUB PUSH1 0x0 DUP4 ADD MSTORE PUSH2 0x2C48 DUP2 PUSH2 0x2C0C JUMP JUMPDEST SWAP1 POP SWAP2 SWAP1 POP JUMP JUMPDEST PUSH32 0x5468652070726F706F73616C20726567697374726174696F6E206973206E6F74 PUSH1 0x0 DUP3 ADD MSTORE PUSH32 0x20656E646564207965742E000000000000000000000000000000000000000000 PUSH1 0x20 DUP3 ADD MSTORE POP JUMP JUMPDEST PUSH1 0x0 PUSH2 0x2CAB PUSH1 0x2B DUP4 PUSH2 0x219F JUMP JUMPDEST SWAP2 POP PUSH2 0x2CB6 DUP3 PUSH2 0x2C4F JUMP JUMPDEST PUSH1 0x40 DUP3 ADD SWAP1 POP SWAP2 SWAP1 POP JUMP JUMPDEST PUSH1 0x0 PUSH1 0x20 DUP3 ADD SWAP1 POP DUP2 DUP2 SUB PUSH1 0x0 DUP4 ADD MSTORE PUSH2 0x2CDA DUP2 PUSH2 0x2C9E JUMP JUMPDEST SWAP1 POP SWAP2 SWAP1 POP JUMP JUMPDEST PUSH32 0x4E656564206174206C65617374206F6E6520766F746520696E20612070726F70 PUSH1 0x0 DUP3 ADD MSTORE PUSH32 0x726F73616C20746F2073746F70206120766F74696E672073657373696F6E2E00 PUSH1 0x20 DUP3 ADD MSTORE POP JUMP JUMPDEST PUSH1 0x0 PUSH2 0x2D3D PUSH1 0x3F DUP4 PUSH2 0x219F JUMP JUMPDEST SWAP2 POP PUSH2 0x2D48 DUP3 PUSH2 0x2CE1 JUMP JUMPDEST PUSH1 0x40 DUP3 ADD SWAP1 POP SWAP2 SWAP1 POP JUMP JUMPDEST PUSH1 0x0 PUSH1 0x20 DUP3 ADD SWAP1 POP DUP2 DUP2 SUB PUSH1 0x0 DUP4 ADD MSTORE PUSH2 0x2D6C DUP2 PUSH2 0x2D30 JUMP JUMPDEST SWAP1 POP SWAP2 SWAP1 POP JUMP JUMPDEST PUSH32 0x54686520766F74696E672073657373696F6E206973206E6F7420656E64656420 PUSH1 0x0 DUP3 ADD MSTORE PUSH32 0x7965742E00000000000000000000000000000000000000000000000000000000 PUSH1 0x20 DUP3 ADD MSTORE POP JUMP JUMPDEST PUSH1 0x0 PUSH2 0x2DCF PUSH1 0x24 DUP4 PUSH2 0x219F JUMP JUMPDEST SWAP2 POP PUSH2 0x2DDA DUP3 PUSH2 0x2D73 JUMP JUMPDEST PUSH1 0x40 DUP3 ADD SWAP1 POP SWAP2 SWAP1 POP JUMP JUMPDEST PUSH1 0x0 PUSH1 0x20 DUP3 ADD SWAP1 POP DUP2 DUP2 SUB PUSH1 0x0 DUP4 ADD MSTORE PUSH2 0x2DFE DUP2 PUSH2 0x2DC2 JUMP JUMPDEST SWAP1 POP SWAP2 SWAP1 POP JUMP JUMPDEST PUSH32 0x4F776E61626C653A206E6577206F776E657220697320746865207A65726F2061 PUSH1 0x0 DUP3 ADD MSTORE PUSH32 0x6464726573730000000000000000000000000000000000000000000000000000 PUSH1 0x20 DUP3 ADD MSTORE POP JUMP JUMPDEST PUSH1 0x0 PUSH2 0x2E61 PUSH1 0x26 DUP4 PUSH2 0x219F JUMP JUMPDEST SWAP2 POP PUSH2 0x2E6C DUP3 PUSH2 0x2E05 JUMP JUMPDEST PUSH1 0x40 DUP3 ADD SWAP1 POP SWAP2 SWAP1 POP JUMP JUMPDEST PUSH1 0x0 PUSH1 0x20 DUP3 ADD SWAP1 POP DUP2 DUP2 SUB PUSH1 0x0 DUP4 ADD MSTORE PUSH2 0x2E90 DUP2 PUSH2 0x2E54 JUMP JUMPDEST SWAP1 POP SWAP2 SWAP1 POP JUMP JUMPDEST PUSH32 0x4F776E61626C653A2063616C6C6572206973206E6F7420746865206F776E6572 PUSH1 0x0 DUP3 ADD MSTORE POP JUMP JUMPDEST PUSH1 0x0 PUSH2 0x2ECD PUSH1 0x20 DUP4 PUSH2 0x219F JUMP JUMPDEST SWAP2 POP PUSH2 0x2ED8 DUP3 PUSH2 0x2E97 JUMP JUMPDEST PUSH1 0x20 DUP3 ADD SWAP1 POP SWAP2 SWAP1 POP JUMP JUMPDEST PUSH1 0x0 PUSH1 0x20 DUP3 ADD SWAP1 POP DUP2 DUP2 SUB PUSH1 0x0 DUP4 ADD MSTORE PUSH2 0x2EFC DUP2 PUSH2 0x2EC0 JUMP JUMPDEST SWAP1 POP SWAP2 SWAP1 POP JUMP JUMPDEST PUSH1 0x6 DUP2 LT PUSH2 0x2F14 JUMPI PUSH2 0x2F13 PUSH2 0x2170 JUMP JUMPDEST JUMPDEST POP JUMP JUMPDEST PUSH1 0x0 DUP2 SWAP1 POP PUSH2 0x2F25 DUP3 PUSH2 0x2F03 JUMP JUMPDEST SWAP2 SWAP1 POP JUMP JUMPDEST PUSH1 0x0 PUSH2 0x2F35 DUP3 PUSH2 0x2F17 JUMP JUMPDEST SWAP1 POP SWAP2 SWAP1 POP JUMP JUMPDEST PUSH2 0x2F45 DUP2 PUSH2 0x2F2A JUMP JUMPDEST DUP3 MSTORE POP POP JUMP JUMPDEST PUSH1 0x0 PUSH1 0x40 DUP3 ADD SWAP1 POP PUSH2 0x2F60 PUSH1 0x0 DUP4 ADD DUP6 PUSH2 0x2F3C JUMP JUMPDEST PUSH2 0x2F6D PUSH1 0x20 DUP4 ADD DUP5 PUSH2 0x2F3C JUMP JUMPDEST SWAP4 SWAP3 POP POP POP JUMP INVALID LOG2 PUSH5 0x6970667358 0x22 SLT KECCAK256 0xFB LT BALANCE 0xCE DUP2 POP 0xD8 MSTORE PUSH5 0x710F4F5441 PUSH18 0x24B4516086295781D343A81CF470CDABD264 PUSH20 0x6F6C634300081200330000000000000000000000 "
				},
				"gasEstimates": {
					"creation": {
						"codeDepositCost": "2440400",
						"executionCost": "infinite",
						"totalCost": "infinite"
					},
					"external": {
						"_restartSession()": "infinite",
						"adminAddRegistered(address)": "156857",
						"adminStartProposalsSession()": "infinite",
						"adminStartVotingSession()": "infinite",
						"adminStopProposalsSession()": "infinite",
						"adminStopVotingSession()": "infinite",
						"adminTallyVotes()": "infinite",
						"getVoterProposals(address)": "infinite",
						"getVoterVote(address)": "infinite",
						"getWinner()": "infinite",
						"owner()": "2567",
						"renounceOwnership()": "30487",
						"transferOwnership(address)": "30832",
						"voterAddProposal(string)": "infinite",
						"voterAddVote(uint16)": "infinite"
					},
					"internal": {
						"_changeWorkflowStatus(enum VotingV2.WorkflowStatus)": "infinite"
					}
				},
				"methodIdentifiers": {
					"_restartSession()": "52f33385",
					"adminAddRegistered(address)": "c145e3d5",
					"adminStartProposalsSession()": "7669d79e",
					"adminStartVotingSession()": "cf278c74",
					"adminStopProposalsSession()": "04456224",
					"adminStopVotingSession()": "d1337403",
					"adminTallyVotes()": "d83f235b",
					"getVoterProposals(address)": "6fbd32f6",
					"getVoterVote(address)": "5141e520",
					"getWinner()": "8e7ea5b2",
					"owner()": "8da5cb5b",
					"renounceOwnership()": "715018a6",
					"transferOwnership(address)": "f2fde38b",
					"voterAddProposal(string)": "5f39ff21",
					"voterAddVote(uint16)": "23e9df47"
				}
			},
			"storageLayout": {
				"storage": [
					{
						"astId": 610,
						"contract": "contracts/voting-systemV2/votingV2.sol:VotingV2",
						"label": "_owner",
						"offset": 0,
						"slot": "0",
						"type": "t_address"
					},
					{
						"astId": 7,
						"contract": "contracts/voting-systemV2/votingV2.sol:VotingV2",
						"label": "winningProposalId",
						"offset": 20,
						"slot": "0",
						"type": "t_uint16"
					},
					{
						"astId": 9,
						"contract": "contracts/voting-systemV2/votingV2.sol:VotingV2",
						"label": "votesCount",
						"offset": 22,
						"slot": "0",
						"type": "t_uint16"
					},
					{
						"astId": 11,
						"contract": "contracts/voting-systemV2/votingV2.sol:VotingV2",
						"label": "voterRegisteredCount",
						"offset": 24,
						"slot": "0",
						"type": "t_uint16"
					},
					{
						"astId": 14,
						"contract": "contracts/voting-systemV2/votingV2.sol:VotingV2",
						"label": "currentVotingSession",
						"offset": 26,
						"slot": "0",
						"type": "t_enum(WorkflowStatus)60"
					},
					{
						"astId": 18,
						"contract": "contracts/voting-systemV2/votingV2.sol:VotingV2",
						"label": "voterProposals",
						"offset": 0,
						"slot": "1",
						"type": "t_array(t_struct(Proposal)72_storage)dyn_storage"
					},
					{
						"astId": 21,
						"contract": "contracts/voting-systemV2/votingV2.sol:VotingV2",
						"label": "voterAddresses",
						"offset": 0,
						"slot": "2",
						"type": "t_array(t_address)dyn_storage"
					},
					{
						"astId": 26,
						"contract": "contracts/voting-systemV2/votingV2.sol:VotingV2",
						"label": "voters",
						"offset": 0,
						"slot": "3",
						"type": "t_mapping(t_address,t_struct(Voter)67_storage)"
					},
					{
						"astId": 31,
						"contract": "contracts/voting-systemV2/votingV2.sol:VotingV2",
						"label": "voterProposalIds",
						"offset": 0,
						"slot": "4",
						"type": "t_mapping(t_address,t_array(t_uint256)dyn_storage)"
					}
				],
				"types": {
					"t_address": {
						"encoding": "inplace",
						"label": "address",
						"numberOfBytes": "20"
					},
					"t_array(t_address)dyn_storage": {
						"base": "t_address",
						"encoding": "dynamic_array",
						"label": "address[]",
						"numberOfBytes": "32"
					},
					"t_array(t_struct(Proposal)72_storage)dyn_storage": {
						"base": "t_struct(Proposal)72_storage",
						"encoding": "dynamic_array",
						"label": "struct VotingV2.Proposal[]",
						"numberOfBytes": "32"
					},
					"t_array(t_uint256)dyn_storage": {
						"base": "t_uint256",
						"encoding": "dynamic_array",
						"label": "uint256[]",
						"numberOfBytes": "32"
					},
					"t_bool": {
						"encoding": "inplace",
						"label": "bool",
						"numberOfBytes": "1"
					},
					"t_enum(WorkflowStatus)60": {
						"encoding": "inplace",
						"label": "enum VotingV2.WorkflowStatus",
						"numberOfBytes": "1"
					},
					"t_mapping(t_address,t_array(t_uint256)dyn_storage)": {
						"encoding": "mapping",
						"key": "t_address",
						"label": "mapping(address => uint256[])",
						"numberOfBytes": "32",
						"value": "t_array(t_uint256)dyn_storage"
					},
					"t_mapping(t_address,t_struct(Voter)67_storage)": {
						"encoding": "mapping",
						"key": "t_address",
						"label": "mapping(address => struct VotingV2.Voter)",
						"numberOfBytes": "32",
						"value": "t_struct(Voter)67_storage"
					},
					"t_string_storage": {
						"encoding": "bytes",
						"label": "string",
						"numberOfBytes": "32"
					},
					"t_struct(Proposal)72_storage": {
						"encoding": "inplace",
						"label": "struct VotingV2.Proposal",
						"members": [
							{
								"astId": 69,
								"contract": "contracts/voting-systemV2/votingV2.sol:VotingV2",
								"label": "description",
								"offset": 0,
								"slot": "0",
								"type": "t_string_storage"
							},
							{
								"astId": 71,
								"contract": "contracts/voting-systemV2/votingV2.sol:VotingV2",
								"label": "voteCount",
								"offset": 0,
								"slot": "1",
								"type": "t_uint16"
							}
						],
						"numberOfBytes": "64"
					},
					"t_struct(Voter)67_storage": {
						"encoding": "inplace",
						"label": "struct VotingV2.Voter",
						"members": [
							{
								"astId": 62,
								"contract": "contracts/voting-systemV2/votingV2.sol:VotingV2",
								"label": "isRegistered",
								"offset": 0,
								"slot": "0",
								"type": "t_bool"
							},
							{
								"astId": 64,
								"contract": "contracts/voting-systemV2/votingV2.sol:VotingV2",
								"label": "hasVoted",
								"offset": 1,
								"slot": "0",
								"type": "t_bool"
							},
							{
								"astId": 66,
								"contract": "contracts/voting-systemV2/votingV2.sol:VotingV2",
								"label": "votedProposalId",
								"offset": 2,
								"slot": "0",
								"type": "t_uint16"
							}
						],
						"numberOfBytes": "32"
					},
					"t_uint16": {
						"encoding": "inplace",
						"label": "uint16",
						"numberOfBytes": "2"
					},
					"t_uint256": {
						"encoding": "inplace",
						"label": "uint256",
						"numberOfBytes": "32"
					}
				}
			},
			"userdoc": {
				"kind": "user",
				"methods": {},
				"notice": "This is an upgrade of the voting-system. Improvements: - Admin can restart a new session after the count is over. He needs to register again voter addresses. - The first proposal to have more votes is now the winner in case of tie. The winning proposal is calculated dynamically when users votes.",
				"version": 1
			}
		}
	}
}