{
  "contractName": "admin",
  "abi": [
    {
      "anonymous": false,
      "inputs": [
        {
          "indexed": false,
          "internalType": "address",
          "name": "",
          "type": "address"
        }
      ],
      "name": "Blacklisted",
      "type": "event"
    },
    {
      "anonymous": false,
      "inputs": [
        {
          "indexed": true,
          "internalType": "address",
          "name": "previousOwner",
          "type": "address"
        },
        {
          "indexed": true,
          "internalType": "address",
          "name": "newOwner",
          "type": "address"
        }
      ],
      "name": "OwnershipTransferred",
      "type": "event"
    },
    {
      "anonymous": false,
      "inputs": [
        {
          "indexed": false,
          "internalType": "address",
          "name": "",
          "type": "address"
        }
      ],
      "name": "Whitelisted",
      "type": "event"
    },
    {
      "inputs": [],
      "name": "owner",
      "outputs": [
        {
          "internalType": "address",
          "name": "",
          "type": "address"
        }
      ],
      "stateMutability": "view",
      "type": "function"
    },
    {
      "inputs": [],
      "name": "renounceOwnership",
      "outputs": [],
      "stateMutability": "nonpayable",
      "type": "function"
    },
    {
      "inputs": [
        {
          "internalType": "address",
          "name": "newOwner",
          "type": "address"
        }
      ],
      "name": "transferOwnership",
      "outputs": [],
      "stateMutability": "nonpayable",
      "type": "function"
    },
    {
      "inputs": [
        {
          "internalType": "address",
          "name": "_addr",
          "type": "address"
        }
      ],
      "name": "whitelist",
      "outputs": [],
      "stateMutability": "nonpayable",
      "type": "function"
    },
    {
      "inputs": [
        {
          "internalType": "address",
          "name": "_addr",
          "type": "address"
        }
      ],
      "name": "blacklist",
      "outputs": [],
      "stateMutability": "nonpayable",
      "type": "function"
    },
    {
      "inputs": [
        {
          "internalType": "address",
          "name": "_addr",
          "type": "address"
        }
      ],
      "name": "isWhitelisted",
      "outputs": [
        {
          "internalType": "bool",
          "name": "",
          "type": "bool"
        }
      ],
      "stateMutability": "view",
      "type": "function"
    },
    {
      "inputs": [
        {
          "internalType": "address",
          "name": "_addr",
          "type": "address"
        }
      ],
      "name": "isBlacklisted",
      "outputs": [
        {
          "internalType": "bool",
          "name": "",
          "type": "bool"
        }
      ],
      "stateMutability": "view",
      "type": "function"
    }
  ],
  "bytecode": "0x608060405234801561001057600080fd5b5061002d61002261003260201b60201c565b61003a60201b60201c565b6100fe565b600033905090565b60008060009054906101000a900473ffffffffffffffffffffffffffffffffffffffff169050816000806101000a81548173ffffffffffffffffffffffffffffffffffffffff021916908373ffffffffffffffffffffffffffffffffffffffff1602179055508173ffffffffffffffffffffffffffffffffffffffff168173ffffffffffffffffffffffffffffffffffffffff167f8be0079c531659141344cd1fd0a4f28419497f9722a3daafe3b4186f6b6457e060405160405180910390a35050565b610ac38061010d6000396000f3fe608060405234801561001057600080fd5b506004361061007d5760003560e01c80639b19251a1161005b5780639b19251a146100da578063f2fde38b146100f6578063f9f92be414610112578063fe575a871461012e5761007d565b80633af32abf14610082578063715018a6146100b25780638da5cb5b146100bc575b600080fd5b61009c60048036038101906100979190610761565b61015e565b6040516100a991906107a9565b60405180910390f35b6100ba6101b4565b005b6100c46101c8565b6040516100d191906107d3565b60405180910390f35b6100f460048036038101906100ef9190610761565b6101f1565b005b610110600480360381019061010b9190610761565b61032b565b005b61012c60048036038101906101279190610761565b6103ae565b005b61014860048036038101906101439190610761565b61055e565b60405161015591906107a9565b60405180910390f35b6000600160008373ffffffffffffffffffffffffffffffffffffffff1673ffffffffffffffffffffffffffffffffffffffff16815260200190815260200160002060009054906101000a900460ff169050919050565b6101bc6105b4565b6101c66000610632565b565b60008060009054906101000a900473ffffffffffffffffffffffffffffffffffffffff16905090565b6101f96105b4565b6102028161015e565b15610242576040517f08c379a000000000000000000000000000000000000000000000000000000000815260040161023990610871565b60405180910390fd5b6000600260008373ffffffffffffffffffffffffffffffffffffffff1673ffffffffffffffffffffffffffffffffffffffff16815260200190815260200160002060006101000a81548160ff02191690831515021790555060018060008373ffffffffffffffffffffffffffffffffffffffff1673ffffffffffffffffffffffffffffffffffffffff16815260200190815260200160002060006101000a81548160ff0219169083151502179055507faab7954e9d246b167ef88aeddad35209ca2489d95a8aeb59e288d9b19fae5a548160405161032091906107d3565b60405180910390a150565b6103336105b4565b600073ffffffffffffffffffffffffffffffffffffffff168173ffffffffffffffffffffffffffffffffffffffff16036103a2576040517f08c379a000000000000000000000000000000000000000000000000000000000815260040161039990610903565b60405180910390fd5b6103ab81610632565b50565b6103b66105b4565b6103be6101c8565b73ffffffffffffffffffffffffffffffffffffffff168173ffffffffffffffffffffffffffffffffffffffff160361042b576040517f08c379a00000000000000000000000000000000000000000000000000000000081526004016104229061096f565b60405180910390fd5b6104348161055e565b15610474576040517f08c379a000000000000000000000000000000000000000000000000000000000815260040161046b90610a01565b60405180910390fd5b6001600260008373ffffffffffffffffffffffffffffffffffffffff1673ffffffffffffffffffffffffffffffffffffffff16815260200190815260200160002060006101000a81548160ff0219169083151502179055506000600160008373ffffffffffffffffffffffffffffffffffffffff1673ffffffffffffffffffffffffffffffffffffffff16815260200190815260200160002060006101000a81548160ff0219169083151502179055507fffa4e6181777692565cf28528fc88fd1516ea86b56da075235fa575af6a4b8558160405161055391906107d3565b60405180910390a150565b6000600260008373ffffffffffffffffffffffffffffffffffffffff1673ffffffffffffffffffffffffffffffffffffffff16815260200190815260200160002060009054906101000a900460ff169050919050565b6105bc6106f6565b73ffffffffffffffffffffffffffffffffffffffff166105da6101c8565b73ffffffffffffffffffffffffffffffffffffffff1614610630576040517f08c379a000000000000000000000000000000000000000000000000000000000815260040161062790610a6d565b60405180910390fd5b565b60008060009054906101000a900473ffffffffffffffffffffffffffffffffffffffff169050816000806101000a81548173ffffffffffffffffffffffffffffffffffffffff021916908373ffffffffffffffffffffffffffffffffffffffff1602179055508173ffffffffffffffffffffffffffffffffffffffff168173ffffffffffffffffffffffffffffffffffffffff167f8be0079c531659141344cd1fd0a4f28419497f9722a3daafe3b4186f6b6457e060405160405180910390a35050565b600033905090565b600080fd5b600073ffffffffffffffffffffffffffffffffffffffff82169050919050565b600061072e82610703565b9050919050565b61073e81610723565b811461074957600080fd5b50565b60008135905061075b81610735565b92915050565b600060208284031215610777576107766106fe565b5b60006107858482850161074c565b91505092915050565b60008115159050919050565b6107a38161078e565b82525050565b60006020820190506107be600083018461079a565b92915050565b6107cd81610723565b82525050565b60006020820190506107e860008301846107c4565b92915050565b600082825260208201905092915050565b7f546865206164647265737320697320616c72656164792077686974656c69737460008201527f65642e0000000000000000000000000000000000000000000000000000000000602082015250565b600061085b6023836107ee565b9150610866826107ff565b604082019050919050565b6000602082019050818103600083015261088a8161084e565b9050919050565b7f4f776e61626c653a206e6577206f776e657220697320746865207a65726f206160008201527f6464726573730000000000000000000000000000000000000000000000000000602082015250565b60006108ed6026836107ee565b91506108f882610891565b604082019050919050565b6000602082019050818103600083015261091c816108e0565b9050919050565b7f596f752063616e6e6f7420626c61636b6c69737420746865206f776e65722e00600082015250565b6000610959601f836107ee565b915061096482610923565b602082019050919050565b600060208201905081810360008301526109888161094c565b9050919050565b7f546865206164647265737320697320616c726561647920626c61636b6c69737460008201527f65642e0000000000000000000000000000000000000000000000000000000000602082015250565b60006109eb6023836107ee565b91506109f68261098f565b604082019050919050565b60006020820190508181036000830152610a1a816109de565b9050919050565b7f4f776e61626c653a2063616c6c6572206973206e6f7420746865206f776e6572600082015250565b6000610a576020836107ee565b9150610a6282610a21565b602082019050919050565b60006020820190508181036000830152610a8681610a4a565b905091905056fea2646970667358221220fab08b1b2d3504bc8785d529e9948eaad7fb028f3928938b0c737c21d86082bf64736f6c63430008120033",
  "immutableReferences": {},
  "source": "// SPDX-License-Identifier: MIT\r\npragma solidity >=0.8.18;\r\n\r\nimport \"@openzeppelin/contracts/access/Ownable.sol\";\r\n\r\ncontract admin is Ownable {\r\n    event Whitelisted(address);\r\n    event Blacklisted(address);\r\n\r\n    mapping(address => bool) whitelists;\r\n    mapping(address => bool) blacklists;\r\n\r\n    function whitelist(address _addr) public onlyOwner {\r\n        require(!isWhitelisted(_addr), \"The address is already whitelisted.\");\r\n\r\n        blacklists[_addr] = false;\r\n        whitelists[_addr] = true;\r\n\r\n        emit Whitelisted(_addr);\r\n    }\r\n\r\n    function blacklist(address _addr) public onlyOwner {\r\n        require(_addr != owner(), \"You cannot blacklist the owner.\");\r\n        require(!isBlacklisted(_addr), \"The address is already blacklisted.\");\r\n\r\n        blacklists[_addr] = true;\r\n        whitelists[_addr] = false;\r\n\r\n        emit Blacklisted(_addr);\r\n    }\r\n\r\n    function isWhitelisted(address _addr) public view returns (bool) {\r\n        return whitelists[_addr];\r\n    }\r\n\r\n    function isBlacklisted(address _addr) public view returns (bool) {\r\n        return blacklists[_addr];\r\n    }\r\n}\r\n",
  "sourcePath": "C:\\Users\\Alex\\Documents\\Travail\\Alyra\\Alyra-Solidity\\contracts\\administration-system\\admin.sol",
  "compiler": {
    "name": "solc",
    "version": "0.8.18+commit.87f61d96.Emscripten.clang"
  },
  "schemaVersion": "3.4.7",
  "updatedAt": "2023-02-18T20:52:10.556Z",
  "devdoc": {
    "kind": "dev",
    "methods": {
      "owner()": {
        "details": "Returns the address of the current owner."
      },
      "renounceOwnership()": {
        "details": "Leaves the contract without owner. It will not be possible to call `onlyOwner` functions anymore. Can only be called by the current owner. NOTE: Renouncing ownership will leave the contract without an owner, thereby removing any functionality that is only available to the owner."
      },
      "transferOwnership(address)": {
        "details": "Transfers ownership of the contract to a new account (`newOwner`). Can only be called by the current owner."
      }
    },
    "version": 1
  },
  "userdoc": {
    "kind": "user",
    "methods": {},
    "version": 1
  }
}