{
  "contractName": "Bank",
  "abi": [
    {
      "inputs": [
        {
          "internalType": "uint256",
          "name": "_amout",
          "type": "uint256"
        }
      ],
      "name": "deposit",
      "outputs": [],
      "stateMutability": "nonpayable",
      "type": "function"
    },
    {
      "inputs": [
        {
          "internalType": "address",
          "name": "_recipient",
          "type": "address"
        },
        {
          "internalType": "uint256",
          "name": "_amount",
          "type": "uint256"
        }
      ],
      "name": "transfer",
      "outputs": [],
      "stateMutability": "nonpayable",
      "type": "function"
    },
    {
      "inputs": [
        {
          "internalType": "address",
          "name": "_address",
          "type": "address"
        }
      ],
      "name": "balanceOf",
      "outputs": [
        {
          "internalType": "uint256",
          "name": "",
          "type": "uint256"
        }
      ],
      "stateMutability": "view",
      "type": "function"
    }
  ],
  "bytecode": "0x608060405234801561001057600080fd5b506107fa806100206000396000f3fe608060405234801561001057600080fd5b50600436106100415760003560e01c806370a0823114610046578063a9059cbb14610076578063b6b55f2514610092575b600080fd5b610060600480360381019061005b9190610400565b6100ae565b60405161006d9190610446565b60405180910390f35b610090600480360381019061008b919061048d565b6100f6565b005b6100ac60048036038101906100a791906104cd565b610345565b005b60008060008373ffffffffffffffffffffffffffffffffffffffff1673ffffffffffffffffffffffffffffffffffffffff168152602001908152602001600020549050919050565b60008111610139576040517f08c379a00000000000000000000000000000000000000000000000000000000081526004016101309061057d565b60405180910390fd5b600073ffffffffffffffffffffffffffffffffffffffff168273ffffffffffffffffffffffffffffffffffffffff16036101a8576040517f08c379a000000000000000000000000000000000000000000000000000000000815260040161019f9061060f565b60405180910390fd5b3373ffffffffffffffffffffffffffffffffffffffff168273ffffffffffffffffffffffffffffffffffffffff1603610216576040517f08c379a000000000000000000000000000000000000000000000000000000000815260040161020d906106a1565b60405180910390fd5b806000803373ffffffffffffffffffffffffffffffffffffffff1673ffffffffffffffffffffffffffffffffffffffff168152602001908152602001600020541015610297576040517f08c379a000000000000000000000000000000000000000000000000000000000815260040161028e9061070d565b60405180910390fd5b806000803373ffffffffffffffffffffffffffffffffffffffff1673ffffffffffffffffffffffffffffffffffffffff16815260200190815260200160002060008282546102e5919061075c565b92505081905550806000808473ffffffffffffffffffffffffffffffffffffffff1673ffffffffffffffffffffffffffffffffffffffff168152602001908152602001600020600082825461033a9190610790565b925050819055505050565b806000803373ffffffffffffffffffffffffffffffffffffffff1673ffffffffffffffffffffffffffffffffffffffff16815260200190815260200160002060008282546103939190610790565b9250508190555050565b600080fd5b600073ffffffffffffffffffffffffffffffffffffffff82169050919050565b60006103cd826103a2565b9050919050565b6103dd816103c2565b81146103e857600080fd5b50565b6000813590506103fa816103d4565b92915050565b6000602082840312156104165761041561039d565b5b6000610424848285016103eb565b91505092915050565b6000819050919050565b6104408161042d565b82525050565b600060208201905061045b6000830184610437565b92915050565b61046a8161042d565b811461047557600080fd5b50565b60008135905061048781610461565b92915050565b600080604083850312156104a4576104a361039d565b5b60006104b2858286016103eb565b92505060206104c385828601610478565b9150509250929050565b6000602082840312156104e3576104e261039d565b5b60006104f184828501610478565b91505092915050565b600082825260208201905092915050565b7f596f75206e65656420746f20656e74657220612076616c7565206f66206d6f6e60008201527f657920746f2073656e6400000000000000000000000000000000000000000000602082015250565b6000610567602a836104fa565b91506105728261050b565b604082019050919050565b600060208201905081810360008301526105968161055a565b9050919050565b7f596f752063616e6e6f74207472616e7366657220746f2074686520616464726560008201527f7373207a65726f00000000000000000000000000000000000000000000000000602082015250565b60006105f96027836104fa565b91506106048261059d565b604082019050919050565b60006020820190508181036000830152610628816105ec565b9050919050565b7f596f752063616e6e6f742073656e64206d6f6e657920746f20796f7572206f7760008201527f6e20616464726573730000000000000000000000000000000000000000000000602082015250565b600061068b6029836104fa565b91506106968261062f565b604082019050919050565b600060208201905081810360008301526106ba8161067e565b9050919050565b7f596f7520646f206e6f74206861766520656e6f756768206d6f6e657900000000600082015250565b60006106f7601c836104fa565b9150610702826106c1565b602082019050919050565b60006020820190508181036000830152610726816106ea565b9050919050565b7f4e487b7100000000000000000000000000000000000000000000000000000000600052601160045260246000fd5b60006107678261042d565b91506107728361042d565b925082820390508181111561078a5761078961072d565b5b92915050565b600061079b8261042d565b91506107a68361042d565b92508282019050808211156107be576107bd61072d565b5b9291505056fea26469706673582212200f9d5f171200b0efac86804ab2c18aab67343c3288385603e1698a0022496b4364736f6c63430008120033",
  "immutableReferences": {},
  "source": "// SPDX-License-Identifier: MIT\r\npragma solidity 0.8.18;\r\n\r\ncontract Bank {\r\n    mapping(address => uint256) _balances;\r\n\r\n    function deposit(uint256 _amout) public {\r\n        _balances[msg.sender] += _amout;\r\n    }\r\n\r\n    function transfer(address _recipient, uint256 _amount) public {\r\n        require(_amount > 0, \"You need to enter a value of money to send\");\r\n        require(\r\n            _recipient != address(0),\r\n            \"You cannot transfer to the address zero\"\r\n        );\r\n        require(\r\n            _recipient != msg.sender,\r\n            \"You cannot send money to your own address\"\r\n        );\r\n        require(\r\n            _balances[msg.sender] >= _amount,\r\n            \"You do not have enough money\"\r\n        );\r\n\r\n        _balances[msg.sender] -= _amount;\r\n        _balances[_recipient] += _amount;\r\n    }\r\n\r\n    function balanceOf(address _address) public view returns (uint256) {\r\n        return _balances[_address];\r\n    }\r\n}\r\n",
  "sourcePath": "C:\\Users\\Alex\\Documents\\Travail\\Alyra\\Alyra-Solidity\\contracts\\decentralize-bank\\bank.sol",
  "compiler": {
    "name": "solc",
    "version": "0.8.18+commit.87f61d96.Emscripten.clang"
  },
  "schemaVersion": "3.4.7",
  "updatedAt": "2023-02-18T20:52:10.617Z",
  "devdoc": {
    "kind": "dev",
    "methods": {},
    "version": 1
  },
  "userdoc": {
    "kind": "user",
    "methods": {},
    "version": 1
  }
}