{
  "contractName": "Caller",
  "abi": [
    {
      "inputs": [
        {
          "internalType": "uint256",
          "name": "_value",
          "type": "uint256"
        }
      ],
      "name": "createChild",
      "outputs": [
        {
          "internalType": "uint256",
          "name": "",
          "type": "uint256"
        }
      ],
      "stateMutability": "nonpayable",
      "type": "function"
    }
  ],
  "bytecode": "0x608060405234801561001057600080fd5b506103f7806100206000396000f3fe608060405234801561001057600080fd5b506004361061002b5760003560e01c80630419eca514610030575b600080fd5b61004a600480360381019061004591906101b8565b610060565b60405161005791906101f4565b60405180910390f35b60008060405161006f90610170565b604051809103906000f08015801561008b573d6000803e3d6000fd5b5090508073ffffffffffffffffffffffffffffffffffffffff166355241077846040518263ffffffff1660e01b81526004016100c791906101f4565b600060405180830381600087803b1580156100e157600080fd5b505af11580156100f5573d6000803e3d6000fd5b505050508073ffffffffffffffffffffffffffffffffffffffff16633ba529eb6040518163ffffffff1660e01b8152600401602060405180830381865afa158015610144573d6000803e3d6000fd5b505050506040513d601f19601f820116820180604052508101906101689190610224565b915050919050565b6101708061025283390190565b600080fd5b6000819050919050565b61019581610182565b81146101a057600080fd5b50565b6000813590506101b28161018c565b92915050565b6000602082840312156101ce576101cd61017d565b5b60006101dc848285016101a3565b91505092915050565b6101ee81610182565b82525050565b600060208201905061020960008301846101e5565b92915050565b60008151905061021e8161018c565b92915050565b60006020828403121561023a5761023961017d565b5b60006102488482850161020f565b9150509291505056fe608060405234801561001057600080fd5b50610150806100206000396000f3fe608060405234801561001057600080fd5b50600436106100365760003560e01c80633ba529eb1461003b5780635524107714610059575b600080fd5b610043610075565b60405161005091906100a1565b60405180910390f35b610073600480360381019061006e91906100ed565b61007e565b005b60008054905090565b8060008190555050565b6000819050919050565b61009b81610088565b82525050565b60006020820190506100b66000830184610092565b92915050565b600080fd5b6100ca81610088565b81146100d557600080fd5b50565b6000813590506100e7816100c1565b92915050565b600060208284031215610103576101026100bc565b5b6000610111848285016100d8565b9150509291505056fea2646970667358221220421dc933c108b727d392aebb6ea9c981308cb4ced45896382b5297c9673f8f1b64736f6c63430008120033a26469706673582212200c5d8002aaf5244af1a363abc81d76b854839250446ab960b73d2fe8abba389b64736f6c63430008120033",
  "immutableReferences": {},
  "source": "// SPDX-License-Identifier: GPL-3.0\r\npragma solidity 0.8.18;\r\n\r\ncontract Parent {\r\n    uint256 myValue;\r\n\r\n    function setValue(uint256 _value) external {\r\n        myValue = _value;\r\n    }\r\n}\r\n\r\ncontract Child is Parent {\r\n    function getParentValue() external view returns (uint256) {\r\n        return myValue;\r\n    }\r\n}\r\n\r\ncontract Caller {\r\n    function createChild(uint256 _value) public returns (uint256) {\r\n        Child child = new Child();\r\n        child.setValue(_value);\r\n        return child.getParentValue();\r\n    }\r\n}\r\n",
  "sourcePath": "C:\\Users\\Alex\\Documents\\Travail\\Alyra\\Alyra-Solidity\\contracts\\exoCours\\exoInheritance\\exoInheritance.sol",
  "compiler": {
    "name": "solc",
    "version": "0.8.18+commit.87f61d96.Emscripten.clang"
  },
  "schemaVersion": "3.4.7",
  "updatedAt": "2023-02-18T20:52:10.700Z",
  "devdoc": {
    "kind": "dev",
    "methods": {},
    "version": 1
  },
  "userdoc": {
    "kind": "user",
    "methods": {},
    "version": 1
  }
}