{
  "contractName": "exoBalance",
  "abi": [
    {
      "stateMutability": "payable",
      "type": "fallback"
    },
    {
      "stateMutability": "payable",
      "type": "receive"
    },
    {
      "inputs": [
        {
          "internalType": "address",
          "name": "_addr",
          "type": "address"
        }
      ],
      "name": "setAddresse",
      "outputs": [],
      "stateMutability": "nonpayable",
      "type": "function"
    },
    {
      "inputs": [],
      "name": "getBalance",
      "outputs": [
        {
          "internalType": "uint256",
          "name": "",
          "type": "uint256"
        }
      ],
      "stateMutability": "view",
      "type": "function"
    },
    {
      "inputs": [
        {
          "internalType": "address",
          "name": "_addr",
          "type": "address"
        }
      ],
      "name": "getABalance",
      "outputs": [
        {
          "internalType": "uint256",
          "name": "",
          "type": "uint256"
        }
      ],
      "stateMutability": "view",
      "type": "function"
    },
    {
      "inputs": [
        {
          "internalType": "address",
          "name": "_addr",
          "type": "address"
        }
      ],
      "name": "transferBalance",
      "outputs": [
        {
          "internalType": "bool",
          "name": "",
          "type": "bool"
        }
      ],
      "stateMutability": "payable",
      "type": "function"
    },
    {
      "inputs": [
        {
          "internalType": "uint256",
          "name": "amount",
          "type": "uint256"
        }
      ],
      "name": "transferBalanceCheck",
      "outputs": [
        {
          "internalType": "bool",
          "name": "",
          "type": "bool"
        }
      ],
      "stateMutability": "payable",
      "type": "function"
    }
  ],
  "bytecode": "0x608060405234801561001057600080fd5b5061066e806100206000396000f3fe60806040526004361061004e5760003560e01c806304525f181461005757806312065fe01461009457806330416a58146100bf57806363b6b31f146100ef578063a0f3a9041461011f57610055565b3661005557005b005b34801561006357600080fd5b5061007e60048036038101906100799190610419565b610148565b60405161008b919061045f565b60405180910390f35b3480156100a057600080fd5b506100a9610169565b6040516100b6919061045f565b60405180910390f35b6100d960048036038101906100d491906104a6565b6101a9565b6040516100e691906104ee565b60405180910390f35b61010960048036038101906101049190610419565b6102fd565b60405161011691906104ee565b60405180910390f35b34801561012b57600080fd5b5061014660048036038101906101419190610419565b610373565b005b60008173ffffffffffffffffffffffffffffffffffffffff16319050919050565b60008060009054906101000a900473ffffffffffffffffffffffffffffffffffffffff1673ffffffffffffffffffffffffffffffffffffffff1631905090565b6000600134116101ee576040517f08c379a00000000000000000000000000000000000000000000000000000000081526004016101e590610566565b60405180910390fd5b8160008054906101000a900473ffffffffffffffffffffffffffffffffffffffff1673ffffffffffffffffffffffffffffffffffffffff163111610267576040517f08c379a000000000000000000000000000000000000000000000000000000000815260040161025e906105d2565b60405180910390fd5b60008060009054906101000a900473ffffffffffffffffffffffffffffffffffffffff1673ffffffffffffffffffffffffffffffffffffffff16346040516102ae90610623565b60006040518083038185875af1925050503d80600081146102eb576040519150601f19603f3d011682016040523d82523d6000602084013e6102f0565b606091505b5050905080915050919050565b6000808273ffffffffffffffffffffffffffffffffffffffff163460405161032490610623565b60006040518083038185875af1925050503d8060008114610361576040519150601f19603f3d011682016040523d82523d6000602084013e610366565b606091505b5050905080915050919050565b806000806101000a81548173ffffffffffffffffffffffffffffffffffffffff021916908373ffffffffffffffffffffffffffffffffffffffff16021790555050565b600080fd5b600073ffffffffffffffffffffffffffffffffffffffff82169050919050565b60006103e6826103bb565b9050919050565b6103f6816103db565b811461040157600080fd5b50565b600081359050610413816103ed565b92915050565b60006020828403121561042f5761042e6103b6565b5b600061043d84828501610404565b91505092915050565b6000819050919050565b61045981610446565b82525050565b60006020820190506104746000830184610450565b92915050565b61048381610446565b811461048e57600080fd5b50565b6000813590506104a08161047a565b92915050565b6000602082840312156104bc576104bb6103b6565b5b60006104ca84828501610491565b91505092915050565b60008115159050919050565b6104e8816104d3565b82525050565b600060208201905061050360008301846104df565b92915050565b600082825260208201905092915050565b7f596f75206e65656420746f2073656e64206d6f7265206d6f6e65792e00000000600082015250565b6000610550601c83610509565b915061055b8261051a565b602082019050919050565b6000602082019050818103600083015261057f81610543565b9050919050565b7f4e6f7420656e6f756768206d6f6e657920746f2073656e642e00000000000000600082015250565b60006105bc601983610509565b91506105c782610586565b602082019050919050565b600060208201905081810360008301526105eb816105af565b9050919050565b600081905092915050565b50565b600061060d6000836105f2565b9150610618826105fd565b600082019050919050565b600061062e82610600565b915081905091905056fea2646970667358221220fe514d26a8bc7451e91ffc05b866b489f49346ea6713399dd497ea58271b735b64736f6c63430008120033",
  "immutableReferences": {},
  "source": "// SPDX-License-Identifier: GPL-3.0\r\npragma solidity 0.8.18;\r\n\r\ncontract exoBalance {\r\n    address myAdress;\r\n\r\n    function setAddresse(address _addr) public {\r\n        myAdress = _addr;\r\n    }\r\n\r\n    function getBalance() public view returns (uint256) {\r\n        return myAdress.balance;\r\n    }\r\n\r\n    function getABalance(address _addr) public view returns (uint256) {\r\n        return _addr.balance;\r\n    }\r\n\r\n    function transferBalance(address _addr) public payable returns (bool) {\r\n        (bool success, ) = _addr.call{value: msg.value}(\"\");\r\n        return success;\r\n    }\r\n\r\n    function transferBalanceCheck(uint256 amount)\r\n        public\r\n        payable\r\n        returns (bool)\r\n    {\r\n        // Send and transfert cost 24 000 gas\r\n        // pure transaction cost already 21000 gas\r\n        // it remains not enough gas to add data in the transaction\r\n\r\n        // Call will use all the necessary gas to do the transaction\r\n        // need to put a gas limit\r\n        // it's more flexible than send an transfer\r\n        // no revert, returns a bool and data\r\n\r\n        require(msg.value > 1, \"You need to send more money.\");\r\n        require(myAdress.balance > amount, \"Not enough money to send.\");\r\n        (bool success, ) = myAdress.call{value: msg.value}(\"\");\r\n        return success;\r\n    }\r\n\r\n    receive() external payable {\r\n        // Execute only when the contract receive ether\r\n        // If ether + data are sent, it's the fallback method that is executed\r\n    }\r\n\r\n    fallback() external payable {\r\n        // Executed when ether + data are sent or if there is no receive method\r\n    }\r\n}\r\n",
  "sourcePath": "C:\\Users\\Alex\\Documents\\Travail\\Alyra\\Alyra-Solidity\\contracts\\exoCours\\exoBalance\\exoBalance.sol",
  "compiler": {
    "name": "solc",
    "version": "0.8.18+commit.87f61d96.Emscripten.clang"
  },
  "schemaVersion": "3.4.7",
  "updatedAt": "2023-02-18T20:52:10.650Z",
  "devdoc": {
    "kind": "dev",
    "methods": {},
    "version": 1
  },
  "userdoc": {
    "kind": "user",
    "methods": {},
    "version": 1
  }
}