{
  "contractName": "exoGuessWon",
  "abi": [
    {
      "anonymous": false,
      "inputs": [
        {
          "indexed": true,
          "internalType": "address",
          "name": "previousOwner",
          "type": "address"
        },
        {
          "indexed": true,
          "internalType": "address",
          "name": "newOwner",
          "type": "address"
        }
      ],
      "name": "OwnershipTransferred",
      "type": "event"
    },
    {
      "inputs": [],
      "name": "owner",
      "outputs": [
        {
          "internalType": "address",
          "name": "",
          "type": "address"
        }
      ],
      "stateMutability": "view",
      "type": "function"
    },
    {
      "inputs": [],
      "name": "renounceOwnership",
      "outputs": [],
      "stateMutability": "nonpayable",
      "type": "function"
    },
    {
      "inputs": [],
      "name": "tips",
      "outputs": [
        {
          "internalType": "string",
          "name": "",
          "type": "string"
        }
      ],
      "stateMutability": "view",
      "type": "function"
    },
    {
      "inputs": [
        {
          "internalType": "address",
          "name": "newOwner",
          "type": "address"
        }
      ],
      "name": "transferOwnership",
      "outputs": [],
      "stateMutability": "nonpayable",
      "type": "function"
    },
    {
      "inputs": [],
      "name": "winner",
      "outputs": [
        {
          "internalType": "address",
          "name": "",
          "type": "address"
        }
      ],
      "stateMutability": "view",
      "type": "function"
    },
    {
      "inputs": [
        {
          "internalType": "string",
          "name": "_word",
          "type": "string"
        },
        {
          "internalType": "string",
          "name": "_tips",
          "type": "string"
        }
      ],
      "name": "setWordTips",
      "outputs": [],
      "stateMutability": "nonpayable",
      "type": "function"
    },
    {
      "inputs": [
        {
          "internalType": "string",
          "name": "_proposal",
          "type": "string"
        }
      ],
      "name": "tryToGuess",
      "outputs": [
        {
          "internalType": "bool",
          "name": "",
          "type": "bool"
        }
      ],
      "stateMutability": "nonpayable",
      "type": "function"
    }
  ],
  "bytecode": "0x608060405234801561001057600080fd5b5061002d61002261003260201b60201c565b61003a60201b60201c565b6100fe565b600033905090565b60008060009054906101000a900473ffffffffffffffffffffffffffffffffffffffff169050816000806101000a81548173ffffffffffffffffffffffffffffffffffffffff021916908373ffffffffffffffffffffffffffffffffffffffff1602179055508173ffffffffffffffffffffffffffffffffffffffff168173ffffffffffffffffffffffffffffffffffffffff167f8be0079c531659141344cd1fd0a4f28419497f9722a3daafe3b4186f6b6457e060405160405180910390a35050565b6111138061010d6000396000f3fe608060405234801561001057600080fd5b506004361061007d5760003560e01c8063bc17e05b1161005b578063bc17e05b146100c8578063dfbf53ae146100e4578063e96aa63114610102578063f2fde38b146101325761007d565b80631a4e1e7814610082578063715018a6146100a05780638da5cb5b146100aa575b600080fd5b61008a61014e565b60405161009791906107ad565b60405180910390f35b6100a86101dc565b005b6100b26101f0565b6040516100bf9190610810565b60405180910390f35b6100e260048036038101906100dd919061089a565b610219565b005b6100ec6102a0565b6040516100f99190610810565b60405180910390f35b61011c6004803603810190610117919061091b565b6102c6565b6040516101299190610983565b60405180910390f35b61014c600480360381019061014791906109ca565b610550565b005b6001805461015b90610a26565b80601f016020809104026020016040519081016040528092919081815260200182805461018790610a26565b80156101d45780601f106101a9576101008083540402835291602001916101d4565b820191906000526020600020905b8154815290600101906020018083116101b757829003601f168201915b505050505081565b6101e46105d3565b6101ee6000610651565b565b60008060009054906101000a900473ffffffffffffffffffffffffffffffffffffffff16905090565b6102216105d3565b6000848490501180156102375750600082829050115b610276576040517f08c379a000000000000000000000000000000000000000000000000000000000815260040161026d90610ac9565b60405180910390fd5b818160019182610287929190610cd9565b50838360029182610299929190610cd9565b5050505050565b600360009054906101000a900473ffffffffffffffffffffffffffffffffffffffff1681565b600080600280546102d690610a26565b90501180156102f357506000600180546102ef90610a26565b9050115b610332576040517f08c379a000000000000000000000000000000000000000000000000000000000815260040161032990610df5565b60405180910390fd5b600073ffffffffffffffffffffffffffffffffffffffff16600360009054906101000a900473ffffffffffffffffffffffffffffffffffffffff1673ffffffffffffffffffffffffffffffffffffffff16146103c3576040517f08c379a00000000000000000000000000000000000000000000000000000000081526004016103ba90610e61565b60405180910390fd5b600460003373ffffffffffffffffffffffffffffffffffffffff1673ffffffffffffffffffffffffffffffffffffffff16815260200190815260200160002060009054906101000a900460ff1615610450576040517f08c379a000000000000000000000000000000000000000000000000000000000815260040161044790610ecd565b60405180910390fd5b6001600460003373ffffffffffffffffffffffffffffffffffffffff1673ffffffffffffffffffffffffffffffffffffffff16815260200190815260200160002060006101000a81548160ff021916908315150217905550600060026040516020016104bc9190610f7b565b6040516020818303038152906040528051906020012084846040516020016104e5929190610fc6565b6040516020818303038152906040528051906020012014905080156105465733600360006101000a81548173ffffffffffffffffffffffffffffffffffffffff021916908373ffffffffffffffffffffffffffffffffffffffff1602179055505b8091505092915050565b6105586105d3565b600073ffffffffffffffffffffffffffffffffffffffff168173ffffffffffffffffffffffffffffffffffffffff16036105c7576040517f08c379a00000000000000000000000000000000000000000000000000000000081526004016105be90611051565b60405180910390fd5b6105d081610651565b50565b6105db610715565b73ffffffffffffffffffffffffffffffffffffffff166105f96101f0565b73ffffffffffffffffffffffffffffffffffffffff161461064f576040517f08c379a0000000000000000000000000000000000000000000000000000000008152600401610646906110bd565b60405180910390fd5b565b60008060009054906101000a900473ffffffffffffffffffffffffffffffffffffffff169050816000806101000a81548173ffffffffffffffffffffffffffffffffffffffff021916908373ffffffffffffffffffffffffffffffffffffffff1602179055508173ffffffffffffffffffffffffffffffffffffffff168173ffffffffffffffffffffffffffffffffffffffff167f8be0079c531659141344cd1fd0a4f28419497f9722a3daafe3b4186f6b6457e060405160405180910390a35050565b600033905090565b600081519050919050565b600082825260208201905092915050565b60005b8381101561075757808201518184015260208101905061073c565b60008484015250505050565b6000601f19601f8301169050919050565b600061077f8261071d565b6107898185610728565b9350610799818560208601610739565b6107a281610763565b840191505092915050565b600060208201905081810360008301526107c78184610774565b905092915050565b600073ffffffffffffffffffffffffffffffffffffffff82169050919050565b60006107fa826107cf565b9050919050565b61080a816107ef565b82525050565b60006020820190506108256000830184610801565b92915050565b600080fd5b600080fd5b600080fd5b600080fd5b600080fd5b60008083601f84011261085a57610859610835565b5b8235905067ffffffffffffffff8111156108775761087661083a565b5b6020830191508360018202830111156108935761089261083f565b5b9250929050565b600080600080604085870312156108b4576108b361082b565b5b600085013567ffffffffffffffff8111156108d2576108d1610830565b5b6108de87828801610844565b9450945050602085013567ffffffffffffffff81111561090157610900610830565b5b61090d87828801610844565b925092505092959194509250565b600080602083850312156109325761093161082b565b5b600083013567ffffffffffffffff8111156109505761094f610830565b5b61095c85828601610844565b92509250509250929050565b60008115159050919050565b61097d81610968565b82525050565b60006020820190506109986000830184610974565b92915050565b6109a7816107ef565b81146109b257600080fd5b50565b6000813590506109c48161099e565b92915050565b6000602082840312156109e0576109df61082b565b5b60006109ee848285016109b5565b91505092915050565b7f4e487b7100000000000000000000000000000000000000000000000000000000600052602260045260246000fd5b60006002820490506001821680610a3e57607f821691505b602082108103610a5157610a506109f7565b5b50919050565b7f596f75206e65656420746f20736574206120776f726420616e6420612074697060008201527f20746f207374617274207468652067616d652e00000000000000000000000000602082015250565b6000610ab3603383610728565b9150610abe82610a57565b604082019050919050565b60006020820190508181036000830152610ae281610aa6565b9050919050565b600082905092915050565b7f4e487b7100000000000000000000000000000000000000000000000000000000600052604160045260246000fd5b60008190508160005260206000209050919050565b60006020601f8301049050919050565b600082821b905092915050565b600060088302610b857fffffffffffffffffffffffffffffffffffffffffffffffffffffffffffffffff82610b48565b610b8f8683610b48565b95508019841693508086168417925050509392505050565b6000819050919050565b6000819050919050565b6000610bd6610bd1610bcc84610ba7565b610bb1565b610ba7565b9050919050565b6000819050919050565b610bf083610bbb565b610c04610bfc82610bdd565b848454610b55565b825550505050565b600090565b610c19610c0c565b610c24818484610be7565b505050565b5b81811015610c4857610c3d600082610c11565b600181019050610c2a565b5050565b601f821115610c8d57610c5e81610b23565b610c6784610b38565b81016020851015610c76578190505b610c8a610c8285610b38565b830182610c29565b50505b505050565b600082821c905092915050565b6000610cb060001984600802610c92565b1980831691505092915050565b6000610cc98383610c9f565b9150826002028217905092915050565b610ce38383610ae9565b67ffffffffffffffff811115610cfc57610cfb610af4565b5b610d068254610a26565b610d11828285610c4c565b6000601f831160018114610d405760008415610d2e578287013590505b610d388582610cbd565b865550610da0565b601f198416610d4e86610b23565b60005b82811015610d7657848901358255600182019150602085019450602081019050610d51565b86831015610d935784890135610d8f601f891682610c9f565b8355505b6001600288020188555050505b50505050505050565b7f5468652067616d65206973206e6f742073746172746564207965742e00000000600082015250565b6000610ddf601c83610728565b9150610dea82610da9565b602082019050919050565b60006020820190508181036000830152610e0e81610dd2565b9050919050565b7f546865726520697320616c726561647920612077696e6e65722e000000000000600082015250565b6000610e4b601a83610728565b9150610e5682610e15565b602082019050919050565b60006020820190508181036000830152610e7a81610e3e565b9050919050565b7f596f7520616c726561647920706c617965642e00000000000000000000000000600082015250565b6000610eb7601383610728565b9150610ec282610e81565b602082019050919050565b60006020820190508181036000830152610ee681610eaa565b9050919050565b600081905092915050565b60008154610f0581610a26565b610f0f8186610eed565b94506001821660008114610f2a5760018114610f3f57610f72565b60ff1983168652811515820286019350610f72565b610f4885610b23565b60005b83811015610f6a57815481890152600182019150602081019050610f4b565b838801955050505b50505092915050565b6000610f878284610ef8565b915081905092915050565b82818337600083830152505050565b6000610fad8385610eed565b9350610fba838584610f92565b82840190509392505050565b6000610fd3828486610fa1565b91508190509392505050565b7f4f776e61626c653a206e6577206f776e657220697320746865207a65726f206160008201527f6464726573730000000000000000000000000000000000000000000000000000602082015250565b600061103b602683610728565b915061104682610fdf565b604082019050919050565b6000602082019050818103600083015261106a8161102e565b9050919050565b7f4f776e61626c653a2063616c6c6572206973206e6f7420746865206f776e6572600082015250565b60006110a7602083610728565b91506110b282611071565b602082019050919050565b600060208201905081810360008301526110d68161109a565b905091905056fea26469706673582212204f6b8f6b52670344cae33ea943de7506bb407703bfa44bf4fc52e011635c555b64736f6c63430008120033",
  "immutableReferences": {},
  "source": "// SPDX-License-Identifier: GPL-3.0\r\npragma solidity 0.8.18;\r\n\r\nimport \"@openzeppelin/contracts/access/Ownable.sol\";\r\n\r\ncontract exoGuessWon is Ownable {\r\n    string public tips;\r\n    string private word;\r\n    address public winner;\r\n    mapping(address => bool) players;\r\n\r\n    function setWordTips(string calldata _word, string calldata _tips)\r\n        external\r\n        onlyOwner\r\n    {\r\n        require(\r\n            bytes(_word).length > 0 && bytes(_tips).length > 0,\r\n            \"You need to set a word and a tip to start the game.\"\r\n        );\r\n\r\n        tips = _tips;\r\n        word = _word;\r\n    }\r\n\r\n    function tryToGuess(string calldata _proposal) external returns (bool) {\r\n        require(\r\n            bytes(word).length > 0 && bytes(tips).length > 0,\r\n            \"The game is not started yet.\"\r\n        );\r\n        require(address(winner) == address(0), \"There is already a winner.\");\r\n        require(!players[msg.sender], \"You already played.\");\r\n\r\n        players[msg.sender] = true;\r\n        bool isMatch = keccak256(abi.encodePacked(_proposal)) ==\r\n            keccak256(abi.encodePacked(word));\r\n        if (isMatch) {\r\n            winner = msg.sender;\r\n        }\r\n        return isMatch;\r\n    }\r\n}\r\n",
  "sourcePath": "C:\\Users\\Alex\\Documents\\Travail\\Alyra\\Alyra-Solidity\\contracts\\exoCours\\exoGuessWon\\exoGuessWon.sol",
  "compiler": {
    "name": "solc",
    "version": "0.8.18+commit.87f61d96.Emscripten.clang"
  },
  "schemaVersion": "3.4.7",
  "updatedAt": "2023-02-18T20:52:10.666Z",
  "devdoc": {
    "kind": "dev",
    "methods": {
      "owner()": {
        "details": "Returns the address of the current owner."
      },
      "renounceOwnership()": {
        "details": "Leaves the contract without owner. It will not be possible to call `onlyOwner` functions anymore. Can only be called by the current owner. NOTE: Renouncing ownership will leave the contract without an owner, thereby removing any functionality that is only available to the owner."
      },
      "transferOwnership(address)": {
        "details": "Transfers ownership of the contract to a new account (`newOwner`). Can only be called by the current owner."
      }
    },
    "version": 1
  },
  "userdoc": {
    "kind": "user",
    "methods": {},
    "version": 1
  }
}