{
  "contractName": "exoGuessWonV2",
  "abi": [
    {
      "anonymous": false,
      "inputs": [
        {
          "indexed": true,
          "internalType": "address",
          "name": "previousOwner",
          "type": "address"
        },
        {
          "indexed": true,
          "internalType": "address",
          "name": "newOwner",
          "type": "address"
        }
      ],
      "name": "OwnershipTransferred",
      "type": "event"
    },
    {
      "inputs": [],
      "name": "gagnant",
      "outputs": [
        {
          "internalType": "address",
          "name": "",
          "type": "address"
        }
      ],
      "stateMutability": "view",
      "type": "function"
    },
    {
      "inputs": [],
      "name": "indice",
      "outputs": [
        {
          "internalType": "string",
          "name": "",
          "type": "string"
        }
      ],
      "stateMutability": "view",
      "type": "function"
    },
    {
      "inputs": [],
      "name": "owner",
      "outputs": [
        {
          "internalType": "address",
          "name": "",
          "type": "address"
        }
      ],
      "stateMutability": "view",
      "type": "function"
    },
    {
      "inputs": [
        {
          "internalType": "uint256",
          "name": "",
          "type": "uint256"
        }
      ],
      "name": "players",
      "outputs": [
        {
          "internalType": "address",
          "name": "",
          "type": "address"
        }
      ],
      "stateMutability": "view",
      "type": "function"
    },
    {
      "inputs": [],
      "name": "renounceOwnership",
      "outputs": [],
      "stateMutability": "nonpayable",
      "type": "function"
    },
    {
      "inputs": [
        {
          "internalType": "address",
          "name": "newOwner",
          "type": "address"
        }
      ],
      "name": "transferOwnership",
      "outputs": [],
      "stateMutability": "nonpayable",
      "type": "function"
    },
    {
      "inputs": [
        {
          "internalType": "string",
          "name": "_mot",
          "type": "string"
        },
        {
          "internalType": "string",
          "name": "_indice",
          "type": "string"
        }
      ],
      "name": "setMot",
      "outputs": [],
      "stateMutability": "nonpayable",
      "type": "function"
    },
    {
      "inputs": [],
      "name": "getWinner",
      "outputs": [
        {
          "internalType": "string",
          "name": "",
          "type": "string"
        }
      ],
      "stateMutability": "view",
      "type": "function"
    },
    {
      "inputs": [
        {
          "internalType": "string",
          "name": "_try",
          "type": "string"
        }
      ],
      "name": "playWord",
      "outputs": [
        {
          "internalType": "bool",
          "name": "",
          "type": "bool"
        }
      ],
      "stateMutability": "nonpayable",
      "type": "function"
    },
    {
      "inputs": [
        {
          "internalType": "string",
          "name": "_mot",
          "type": "string"
        },
        {
          "internalType": "string",
          "name": "_indice",
          "type": "string"
        }
      ],
      "name": "reset",
      "outputs": [],
      "stateMutability": "nonpayable",
      "type": "function"
    }
  ],
  "bytecode": "0x608060405234801561001057600080fd5b5061002d61002261003260201b60201c565b61003a60201b60201c565b6100fe565b600033905090565b60008060009054906101000a900473ffffffffffffffffffffffffffffffffffffffff169050816000806101000a81548173ffffffffffffffffffffffffffffffffffffffff021916908373ffffffffffffffffffffffffffffffffffffffff1602179055508173ffffffffffffffffffffffffffffffffffffffff168173ffffffffffffffffffffffffffffffffffffffff167f8be0079c531659141344cd1fd0a4f28419497f9722a3daafe3b4186f6b6457e060405160405180910390a35050565b6114588061010d6000396000f3fe608060405234801561001057600080fd5b506004361061009e5760003560e01c80638e7ea5b2116100665780638e7ea5b214610137578063ade1807014610155578063e23f0ede14610171578063f2fde38b1461018d578063f71d96cb146101a95761009e565b80631ecd2d9f146100a3578063427f822b146100d3578063556e6edc146100f1578063715018a61461010f5780638da5cb5b14610119575b600080fd5b6100bd60048036038101906100b89190610b53565b6101d9565b6040516100ca9190610bb7565b60405180910390f35b6100db61048b565b6040516100e89190610c13565b60405180910390f35b6100f96104b1565b6040516101069190610cad565b60405180910390f35b61011761053f565b005b610121610553565b60405161012e9190610c13565b60405180910390f35b61013f61057c565b60405161014c9190610cad565b60405180910390f35b61016f600480360381019061016a9190610ccf565b61064d565b005b61018b60048036038101906101869190610ccf565b6107c1565b005b6101a760048036038101906101a29190610d73565b6107ed565b005b6101c360048036038101906101be9190610dd6565b610870565b6040516101d09190610c13565b60405180910390f35b6000801515600460003373ffffffffffffffffffffffffffffffffffffffff1673ffffffffffffffffffffffffffffffffffffffff16815260200190815260200160002060009054906101000a900460ff1615151461026d576040517f08c379a000000000000000000000000000000000000000000000000000000000815260040161026490610e4f565b60405180910390fd5b600160405160200161027f9190610f72565b60405160208183030381529060405280519060200120826040516020016102a69190610fba565b60405160208183030381529060405280519060200120036103c65733600360006101000a81548173ffffffffffffffffffffffffffffffffffffffff021916908373ffffffffffffffffffffffffffffffffffffffff1602179055506001600460003373ffffffffffffffffffffffffffffffffffffffff1673ffffffffffffffffffffffffffffffffffffffff16815260200190815260200160002060006101000a81548160ff0219169083151502179055506005339080600181540180825580915050600190039060005260206000200160009091909190916101000a81548173ffffffffffffffffffffffffffffffffffffffff021916908373ffffffffffffffffffffffffffffffffffffffff16021790555060019050610486565b6001600460003373ffffffffffffffffffffffffffffffffffffffff1673ffffffffffffffffffffffffffffffffffffffff16815260200190815260200160002060006101000a81548160ff0219169083151502179055506005339080600181540180825580915050600190039060005260206000200160009091909190916101000a81548173ffffffffffffffffffffffffffffffffffffffff021916908373ffffffffffffffffffffffffffffffffffffffff160217905550600090505b919050565b600360009054906101000a900473ffffffffffffffffffffffffffffffffffffffff1681565b600280546104be90610e9e565b80601f01602080910402602001604051908101604052809291908181526020018280546104ea90610e9e565b80156105375780601f1061050c57610100808354040283529160200191610537565b820191906000526020600020905b81548152906001019060200180831161051a57829003601f168201915b505050505081565b6105476108af565b610551600061092d565b565b60008060009054906101000a900473ffffffffffffffffffffffffffffffffffffffff16905090565b6060600073ffffffffffffffffffffffffffffffffffffffff16600360009054906101000a900473ffffffffffffffffffffffffffffffffffffffff1673ffffffffffffffffffffffffffffffffffffffff1603610611576040518060400160405280601681526020017f50617320656e636f7265206465206761676e616e742100000000000000000000815250905061064a565b6040518060400160405280601281526020017f496c2079206120756e206761676e616e7421000000000000000000000000000081525090505b90565b6106556108af565b6000600580549050905060008060018361066f9190611000565b90505b600081111561076e576005818154811061068f5761068e611034565b5b9060005260206000200160009054906101000a900473ffffffffffffffffffffffffffffffffffffffff1691506000600460008473ffffffffffffffffffffffffffffffffffffffff1673ffffffffffffffffffffffffffffffffffffffff16815260200190815260200160002060006101000a81548160ff021916908315150217905550600580548061072657610725611063565b5b6001900381819060005260206000200160006101000a81549073ffffffffffffffffffffffffffffffffffffffff02191690559055808061076690611092565b915050610672565b506000600360006101000a81548173ffffffffffffffffffffffffffffffffffffffff021916908373ffffffffffffffffffffffffffffffffffffffff1602179055506107bb84846107c1565b50505050565b6107c96108af565b81600190816107d89190611252565b5080600290816107e89190611252565b505050565b6107f56108af565b600073ffffffffffffffffffffffffffffffffffffffff168173ffffffffffffffffffffffffffffffffffffffff1603610864576040517f08c379a000000000000000000000000000000000000000000000000000000000815260040161085b90611396565b60405180910390fd5b61086d8161092d565b50565b6005818154811061088057600080fd5b906000526020600020016000915054906101000a900473ffffffffffffffffffffffffffffffffffffffff1681565b6108b76109f1565b73ffffffffffffffffffffffffffffffffffffffff166108d5610553565b73ffffffffffffffffffffffffffffffffffffffff161461092b576040517f08c379a000000000000000000000000000000000000000000000000000000000815260040161092290611402565b60405180910390fd5b565b60008060009054906101000a900473ffffffffffffffffffffffffffffffffffffffff169050816000806101000a81548173ffffffffffffffffffffffffffffffffffffffff021916908373ffffffffffffffffffffffffffffffffffffffff1602179055508173ffffffffffffffffffffffffffffffffffffffff168173ffffffffffffffffffffffffffffffffffffffff167f8be0079c531659141344cd1fd0a4f28419497f9722a3daafe3b4186f6b6457e060405160405180910390a35050565b600033905090565b6000604051905090565b600080fd5b600080fd5b600080fd5b600080fd5b6000601f19601f8301169050919050565b7f4e487b7100000000000000000000000000000000000000000000000000000000600052604160045260246000fd5b610a6082610a17565b810181811067ffffffffffffffff82111715610a7f57610a7e610a28565b5b80604052505050565b6000610a926109f9565b9050610a9e8282610a57565b919050565b600067ffffffffffffffff821115610abe57610abd610a28565b5b610ac782610a17565b9050602081019050919050565b82818337600083830152505050565b6000610af6610af184610aa3565b610a88565b905082815260208101848484011115610b1257610b11610a12565b5b610b1d848285610ad4565b509392505050565b600082601f830112610b3a57610b39610a0d565b5b8135610b4a848260208601610ae3565b91505092915050565b600060208284031215610b6957610b68610a03565b5b600082013567ffffffffffffffff811115610b8757610b86610a08565b5b610b9384828501610b25565b91505092915050565b60008115159050919050565b610bb181610b9c565b82525050565b6000602082019050610bcc6000830184610ba8565b92915050565b600073ffffffffffffffffffffffffffffffffffffffff82169050919050565b6000610bfd82610bd2565b9050919050565b610c0d81610bf2565b82525050565b6000602082019050610c286000830184610c04565b92915050565b600081519050919050565b600082825260208201905092915050565b60005b83811015610c68578082015181840152602081019050610c4d565b60008484015250505050565b6000610c7f82610c2e565b610c898185610c39565b9350610c99818560208601610c4a565b610ca281610a17565b840191505092915050565b60006020820190508181036000830152610cc78184610c74565b905092915050565b60008060408385031215610ce657610ce5610a03565b5b600083013567ffffffffffffffff811115610d0457610d03610a08565b5b610d1085828601610b25565b925050602083013567ffffffffffffffff811115610d3157610d30610a08565b5b610d3d85828601610b25565b9150509250929050565b610d5081610bf2565b8114610d5b57600080fd5b50565b600081359050610d6d81610d47565b92915050565b600060208284031215610d8957610d88610a03565b5b6000610d9784828501610d5e565b91505092915050565b6000819050919050565b610db381610da0565b8114610dbe57600080fd5b50565b600081359050610dd081610daa565b92915050565b600060208284031215610dec57610deb610a03565b5b6000610dfa84828501610dc1565b91505092915050565b7f742761732064656a61206a6f7565000000000000000000000000000000000000600082015250565b6000610e39600e83610c39565b9150610e4482610e03565b602082019050919050565b60006020820190508181036000830152610e6881610e2c565b9050919050565b7f4e487b7100000000000000000000000000000000000000000000000000000000600052602260045260246000fd5b60006002820490506001821680610eb657607f821691505b602082108103610ec957610ec8610e6f565b5b50919050565b600081905092915050565b60008190508160005260206000209050919050565b60008154610efc81610e9e565b610f068186610ecf565b94506001821660008114610f215760018114610f3657610f69565b60ff1983168652811515820286019350610f69565b610f3f85610eda565b60005b83811015610f6157815481890152600182019150602081019050610f42565b838801955050505b50505092915050565b6000610f7e8284610eef565b915081905092915050565b6000610f9482610c2e565b610f9e8185610ecf565b9350610fae818560208601610c4a565b80840191505092915050565b6000610fc68284610f89565b915081905092915050565b7f4e487b7100000000000000000000000000000000000000000000000000000000600052601160045260246000fd5b600061100b82610da0565b915061101683610da0565b925082820390508181111561102e5761102d610fd1565b5b92915050565b7f4e487b7100000000000000000000000000000000000000000000000000000000600052603260045260246000fd5b7f4e487b7100000000000000000000000000000000000000000000000000000000600052603160045260246000fd5b600061109d82610da0565b9150600082036110b0576110af610fd1565b5b600182039050919050565b60006020601f8301049050919050565b600082821b905092915050565b6000600883026111087fffffffffffffffffffffffffffffffffffffffffffffffffffffffffffffffff826110cb565b61111286836110cb565b95508019841693508086168417925050509392505050565b6000819050919050565b600061114f61114a61114584610da0565b61112a565b610da0565b9050919050565b6000819050919050565b61116983611134565b61117d61117582611156565b8484546110d8565b825550505050565b600090565b611192611185565b61119d818484611160565b505050565b5b818110156111c1576111b660008261118a565b6001810190506111a3565b5050565b601f821115611206576111d781610eda565b6111e0846110bb565b810160208510156111ef578190505b6112036111fb856110bb565b8301826111a2565b50505b505050565b600082821c905092915050565b60006112296000198460080261120b565b1980831691505092915050565b60006112428383611218565b9150826002028217905092915050565b61125b82610c2e565b67ffffffffffffffff81111561127457611273610a28565b5b61127e8254610e9e565b6112898282856111c5565b600060209050601f8311600181146112bc57600084156112aa578287015190505b6112b48582611236565b86555061131c565b601f1984166112ca86610eda565b60005b828110156112f2578489015182556001820191506020850194506020810190506112cd565b8683101561130f578489015161130b601f891682611218565b8355505b6001600288020188555050505b505050505050565b7f4f776e61626c653a206e6577206f776e657220697320746865207a65726f206160008201527f6464726573730000000000000000000000000000000000000000000000000000602082015250565b6000611380602683610c39565b915061138b82611324565b604082019050919050565b600060208201905081810360008301526113af81611373565b9050919050565b7f4f776e61626c653a2063616c6c6572206973206e6f7420746865206f776e6572600082015250565b60006113ec602083610c39565b91506113f7826113b6565b602082019050919050565b6000602082019050818103600083015261141b816113df565b905091905056fea2646970667358221220e8d7184382b3dc07c42ca9a6df6f3d03a4f5ea8f407e56312990e34654c053bd64736f6c63430008120033",
  "immutableReferences": {},
  "source": "// SPDX-License-Identifier: GPL-3.0\r\npragma solidity 0.8.18;\r\nimport \"@openzeppelin/contracts/access/Ownable.sol\";\r\n\r\ncontract exoGuessWonV2 is Ownable {\r\n    string private mot;\r\n    string public indice;\r\n    address public gagnant;\r\n    mapping(address => bool) played;\r\n    address[] public players;\r\n\r\n    function setMot(string memory _mot, string memory _indice)\r\n        public\r\n        onlyOwner\r\n    {\r\n        mot = _mot;\r\n        indice = _indice;\r\n    }\r\n\r\n    function getWinner() public view returns (string memory) {\r\n        if (gagnant == address(0)) {\r\n            return \"Pas encore de gagnant!\";\r\n        } else {\r\n            return \"Il y a un gagnant!\";\r\n        }\r\n    }\r\n\r\n    function playWord(string memory _try) public returns (bool) {\r\n        require(played[msg.sender] == false, \"t'as deja joue\");\r\n        if (\r\n            keccak256(abi.encodePacked(_try)) ==\r\n            keccak256(abi.encodePacked(mot))\r\n        ) {\r\n            gagnant = msg.sender;\r\n            played[msg.sender] = true;\r\n            players.push(msg.sender);\r\n            return true;\r\n        } else {\r\n            played[msg.sender] = true;\r\n            players.push(msg.sender);\r\n            return false;\r\n        }\r\n    }\r\n\r\n    function reset(string memory _mot, string memory _indice) public onlyOwner {\r\n        uint256 tailleTableau = players.length;\r\n        address tempPlayers;\r\n        for (uint256 i = tailleTableau - 1; i > 0; i--) {\r\n            tempPlayers = players[i];\r\n            played[tempPlayers] = false;\r\n            players.pop();\r\n        }\r\n        gagnant = address(0);\r\n        setMot(_mot, _indice);\r\n    }\r\n}\r\n",
  "sourcePath": "C:\\Users\\Alex\\Documents\\Travail\\Alyra\\Alyra-Solidity\\contracts\\exoCours\\exoGuessWonV2\\exoGuessWonV2.sol",
  "compiler": {
    "name": "solc",
    "version": "0.8.18+commit.87f61d96.Emscripten.clang"
  },
  "schemaVersion": "3.4.7",
  "updatedAt": "2023-02-18T20:52:10.687Z",
  "devdoc": {
    "kind": "dev",
    "methods": {
      "owner()": {
        "details": "Returns the address of the current owner."
      },
      "renounceOwnership()": {
        "details": "Leaves the contract without owner. It will not be possible to call `onlyOwner` functions anymore. Can only be called by the current owner. NOTE: Renouncing ownership will leave the contract without an owner, thereby removing any functionality that is only available to the owner."
      },
      "transferOwnership(address)": {
        "details": "Transfers ownership of the contract to a new account (`newOwner`). Can only be called by the current owner."
      }
    },
    "version": 1
  },
  "userdoc": {
    "kind": "user",
    "methods": {},
    "version": 1
  }
}