{
  "contractName": "exoMoneySaving",
  "abi": [
    {
      "anonymous": false,
      "inputs": [
        {
          "indexed": true,
          "internalType": "address",
          "name": "previousOwner",
          "type": "address"
        },
        {
          "indexed": true,
          "internalType": "address",
          "name": "newOwner",
          "type": "address"
        }
      ],
      "name": "OwnershipTransferred",
      "type": "event"
    },
    {
      "inputs": [],
      "name": "depositCount",
      "outputs": [
        {
          "internalType": "uint256",
          "name": "",
          "type": "uint256"
        }
      ],
      "stateMutability": "view",
      "type": "function"
    },
    {
      "inputs": [],
      "name": "firstDeposit",
      "outputs": [
        {
          "internalType": "uint256",
          "name": "",
          "type": "uint256"
        }
      ],
      "stateMutability": "view",
      "type": "function"
    },
    {
      "inputs": [],
      "name": "owner",
      "outputs": [
        {
          "internalType": "address",
          "name": "",
          "type": "address"
        }
      ],
      "stateMutability": "view",
      "type": "function"
    },
    {
      "inputs": [],
      "name": "renounceOwnership",
      "outputs": [],
      "stateMutability": "nonpayable",
      "type": "function"
    },
    {
      "inputs": [
        {
          "internalType": "address",
          "name": "newOwner",
          "type": "address"
        }
      ],
      "name": "transferOwnership",
      "outputs": [],
      "stateMutability": "nonpayable",
      "type": "function"
    },
    {
      "stateMutability": "payable",
      "type": "receive"
    },
    {
      "inputs": [],
      "name": "getMoney",
      "outputs": [],
      "stateMutability": "nonpayable",
      "type": "function"
    },
    {
      "inputs": [],
      "name": "deposit",
      "outputs": [],
      "stateMutability": "payable",
      "type": "function"
    }
  ],
  "bytecode": "0x608060405234801561001057600080fd5b5061002d61002261003260201b60201c565b61003a60201b60201c565b6100fe565b600033905090565b60008060009054906101000a900473ffffffffffffffffffffffffffffffffffffffff169050816000806101000a81548173ffffffffffffffffffffffffffffffffffffffff021916908373ffffffffffffffffffffffffffffffffffffffff1602179055508173ffffffffffffffffffffffffffffffffffffffff168173ffffffffffffffffffffffffffffffffffffffff167f8be0079c531659141344cd1fd0a4f28419497f9722a3daafe3b4186f6b6457e060405160405180910390a35050565b6109ab8061010d6000396000f3fe6080604052600436106100745760003560e01c806398e1b4101161004e57806398e1b410146100f5578063a5f5be541461010c578063d0e30db014610137578063f2fde38b1461014157610083565b80632dfdf0b514610088578063715018a6146100b35780638da5cb5b146100ca57610083565b366100835761008161016a565b005b600080fd5b34801561009457600080fd5b5061009d6101a6565b6040516100aa9190610536565b60405180910390f35b3480156100bf57600080fd5b506100c86101ac565b005b3480156100d657600080fd5b506100df6101c0565b6040516100ec9190610592565b60405180910390f35b34801561010157600080fd5b5061010a6101e9565b005b34801561011857600080fd5b50610121610336565b60405161012e9190610536565b60405180910390f35b61013f61016a565b005b34801561014d57600080fd5b50610168600480360381019061016391906105de565b61033c565b005b6101726103bf565b34600360006002548152602001908152602001600020819055506002600081548092919061019f9061063a565b9190505550565b60025481565b6101b46103d3565b6101be6000610451565b565b60008060009054906101000a900473ffffffffffffffffffffffffffffffffffffffff16905090565b6101f16103d3565b6001471015610235576040517f08c379a000000000000000000000000000000000000000000000000000000000815260040161022c906106df565b60405180910390fd5b42626ebe0060015461024791906106ff565b11610287576040517f08c379a000000000000000000000000000000000000000000000000000000000815260040161027e906107a5565b60405180910390fd5b60003373ffffffffffffffffffffffffffffffffffffffff16476040516102ad906107f6565b60006040518083038185875af1925050503d80600081146102ea576040519150601f19603f3d011682016040523d82523d6000602084013e6102ef565b606091505b5050905080610333576040517f08c379a000000000000000000000000000000000000000000000000000000000815260040161032a90610857565b60405180910390fd5b50565b60015481565b6103446103d3565b600073ffffffffffffffffffffffffffffffffffffffff168173ffffffffffffffffffffffffffffffffffffffff16036103b3576040517f08c379a00000000000000000000000000000000000000000000000000000000081526004016103aa906108e9565b60405180910390fd5b6103bc81610451565b50565b6000600154036103d157426001819055505b565b6103db610515565b73ffffffffffffffffffffffffffffffffffffffff166103f96101c0565b73ffffffffffffffffffffffffffffffffffffffff161461044f576040517f08c379a000000000000000000000000000000000000000000000000000000000815260040161044690610955565b60405180910390fd5b565b60008060009054906101000a900473ffffffffffffffffffffffffffffffffffffffff169050816000806101000a81548173ffffffffffffffffffffffffffffffffffffffff021916908373ffffffffffffffffffffffffffffffffffffffff1602179055508173ffffffffffffffffffffffffffffffffffffffff168173ffffffffffffffffffffffffffffffffffffffff167f8be0079c531659141344cd1fd0a4f28419497f9722a3daafe3b4186f6b6457e060405160405180910390a35050565b600033905090565b6000819050919050565b6105308161051d565b82525050565b600060208201905061054b6000830184610527565b92915050565b600073ffffffffffffffffffffffffffffffffffffffff82169050919050565b600061057c82610551565b9050919050565b61058c81610571565b82525050565b60006020820190506105a76000830184610583565b92915050565b600080fd5b6105bb81610571565b81146105c657600080fd5b50565b6000813590506105d8816105b2565b92915050565b6000602082840312156105f4576105f36105ad565b5b6000610602848285016105c9565b91505092915050565b7f4e487b7100000000000000000000000000000000000000000000000000000000600052601160045260246000fd5b60006106458261051d565b91507fffffffffffffffffffffffffffffffffffffffffffffffffffffffffffffffff82036106775761067661060b565b5b600182019050919050565b600082825260208201905092915050565b7f4e6f7468696e6720746f20676574000000000000000000000000000000000000600082015250565b60006106c9600e83610682565b91506106d482610693565b602082019050919050565b600060208201905081810360008301526106f8816106bc565b9050919050565b600061070a8261051d565b91506107158361051d565b925082820190508082111561072d5761072c61060b565b5b92915050565b7f596f75206e65656420746f20776169742033207765656b7320746f206765742060008201527f746865206d6f6e65790000000000000000000000000000000000000000000000602082015250565b600061078f602983610682565b915061079a82610733565b604082019050919050565b600060208201905081810360008301526107be81610782565b9050919050565b600081905092915050565b50565b60006107e06000836107c5565b91506107eb826107d0565b600082019050919050565b6000610801826107d3565b9150819050919050565b7f5472616e73666572206572726f72000000000000000000000000000000000000600082015250565b6000610841600e83610682565b915061084c8261080b565b602082019050919050565b6000602082019050818103600083015261087081610834565b9050919050565b7f4f776e61626c653a206e6577206f776e657220697320746865207a65726f206160008201527f6464726573730000000000000000000000000000000000000000000000000000602082015250565b60006108d3602683610682565b91506108de82610877565b604082019050919050565b60006020820190508181036000830152610902816108c6565b9050919050565b7f4f776e61626c653a2063616c6c6572206973206e6f7420746865206f776e6572600082015250565b600061093f602083610682565b915061094a82610909565b602082019050919050565b6000602082019050818103600083015261096e81610932565b905091905056fea26469706673582212205704e38d42a09a2d63600384f91a5f35cbe589db6e82c2a07163a8fe174f379264736f6c63430008120033",
  "immutableReferences": {},
  "source": "// SPDX-License-Identifier: GPL-3.0\r\npragma solidity 0.8.18;\r\n\r\nimport \"@openzeppelin/contracts/access/Ownable.sol\";\r\n\r\ncontract exoMoneySaving is Ownable {\r\n    uint256 public firstDeposit;\r\n    uint256 public depositCount;\r\n\r\n    mapping(uint256 => uint256) deposits;\r\n\r\n    function getMoney() external onlyOwner {\r\n        require(address(this).balance >= 1 wei, \"Nothing to get\");\r\n        require(\r\n            firstDeposit + 12 weeks > block.timestamp,\r\n            \"You need to wait 3 weeks to get the money\"\r\n        );\r\n        (bool success, ) = msg.sender.call{value: address(this).balance}(\"\");\r\n        require(success, \"Transfer error\");\r\n    }\r\n\r\n    function deposit() public payable {\r\n        _setFirstDepositTimeStamp();\r\n        deposits[depositCount] = msg.value;\r\n        depositCount++;\r\n    }\r\n\r\n    function _setFirstDepositTimeStamp() private {\r\n        if (firstDeposit == 0) {\r\n            firstDeposit = block.timestamp;\r\n        }\r\n    }\r\n\r\n    receive() external payable {\r\n        deposit();\r\n    }\r\n}\r\n",
  "sourcePath": "C:\\Users\\Alex\\Documents\\Travail\\Alyra\\Alyra-Solidity\\contracts\\exoCours\\exoMoneySaving\\exoMoneySaving.sol",
  "compiler": {
    "name": "solc",
    "version": "0.8.18+commit.87f61d96.Emscripten.clang"
  },
  "schemaVersion": "3.4.7",
  "updatedAt": "2023-02-18T20:52:10.733Z",
  "devdoc": {
    "kind": "dev",
    "methods": {
      "owner()": {
        "details": "Returns the address of the current owner."
      },
      "renounceOwnership()": {
        "details": "Leaves the contract without owner. It will not be possible to call `onlyOwner` functions anymore. Can only be called by the current owner. NOTE: Renouncing ownership will leave the contract without an owner, thereby removing any functionality that is only available to the owner."
      },
      "transferOwnership(address)": {
        "details": "Transfers ownership of the contract to a new account (`newOwner`). Can only be called by the current owner."
      }
    },
    "version": 1
  },
  "userdoc": {
    "kind": "user",
    "methods": {},
    "version": 1
  }
}