{
  "contractName": "exoNotationV2",
  "abi": [
    {
      "anonymous": false,
      "inputs": [
        {
          "indexed": true,
          "internalType": "address",
          "name": "previousOwner",
          "type": "address"
        },
        {
          "indexed": true,
          "internalType": "address",
          "name": "newOwner",
          "type": "address"
        }
      ],
      "name": "OwnershipTransferred",
      "type": "event"
    },
    {
      "anonymous": false,
      "inputs": [
        {
          "indexed": false,
          "internalType": "string",
          "name": "_name",
          "type": "string"
        },
        {
          "indexed": false,
          "internalType": "string",
          "name": "_class",
          "type": "string"
        },
        {
          "indexed": false,
          "internalType": "address",
          "name": "_addr",
          "type": "address"
        }
      ],
      "name": "studentAdded",
      "type": "event"
    },
    {
      "anonymous": false,
      "inputs": [
        {
          "indexed": false,
          "internalType": "string",
          "name": "_class",
          "type": "string"
        },
        {
          "indexed": false,
          "internalType": "string",
          "name": "_course",
          "type": "string"
        },
        {
          "indexed": false,
          "internalType": "address",
          "name": "_addr",
          "type": "address"
        }
      ],
      "name": "teacherAdded",
      "type": "event"
    },
    {
      "inputs": [],
      "name": "owner",
      "outputs": [
        {
          "internalType": "address",
          "name": "",
          "type": "address"
        }
      ],
      "stateMutability": "view",
      "type": "function"
    },
    {
      "inputs": [],
      "name": "renounceOwnership",
      "outputs": [],
      "stateMutability": "nonpayable",
      "type": "function"
    },
    {
      "inputs": [
        {
          "internalType": "address",
          "name": "newOwner",
          "type": "address"
        }
      ],
      "name": "transferOwnership",
      "outputs": [],
      "stateMutability": "nonpayable",
      "type": "function"
    },
    {
      "inputs": [
        {
          "internalType": "string",
          "name": "_name",
          "type": "string"
        },
        {
          "internalType": "string",
          "name": "_class",
          "type": "string"
        },
        {
          "internalType": "address",
          "name": "_addr",
          "type": "address"
        }
      ],
      "name": "addStudent",
      "outputs": [],
      "stateMutability": "nonpayable",
      "type": "function"
    },
    {
      "inputs": [
        {
          "internalType": "string",
          "name": "_class",
          "type": "string"
        },
        {
          "internalType": "string",
          "name": "_course",
          "type": "string"
        },
        {
          "internalType": "address",
          "name": "_addr",
          "type": "address"
        }
      ],
      "name": "setTeacher",
      "outputs": [],
      "stateMutability": "nonpayable",
      "type": "function"
    },
    {
      "inputs": [
        {
          "internalType": "string",
          "name": "_course",
          "type": "string"
        },
        {
          "internalType": "string",
          "name": "_nameStudent",
          "type": "string"
        },
        {
          "internalType": "uint256",
          "name": "_note",
          "type": "uint256"
        }
      ],
      "name": "setNote",
      "outputs": [],
      "stateMutability": "nonpayable",
      "type": "function"
    },
    {
      "inputs": [
        {
          "internalType": "string",
          "name": "_class",
          "type": "string"
        },
        {
          "internalType": "string",
          "name": "_course",
          "type": "string"
        }
      ],
      "name": "calculateMoyennePerCourse",
      "outputs": [
        {
          "internalType": "uint256",
          "name": "",
          "type": "uint256"
        }
      ],
      "stateMutability": "view",
      "type": "function"
    },
    {
      "inputs": [
        {
          "internalType": "string",
          "name": "_name",
          "type": "string"
        }
      ],
      "name": "calculateMoyenneStudent",
      "outputs": [
        {
          "internalType": "uint256",
          "name": "",
          "type": "uint256"
        }
      ],
      "stateMutability": "view",
      "type": "function"
    },
    {
      "inputs": [
        {
          "internalType": "string",
          "name": "_name",
          "type": "string"
        }
      ],
      "name": "isPassing",
      "outputs": [
        {
          "internalType": "bool",
          "name": "",
          "type": "bool"
        }
      ],
      "stateMutability": "view",
      "type": "function"
    },
    {
      "inputs": [
        {
          "internalType": "string",
          "name": "_class",
          "type": "string"
        }
      ],
      "name": "calculateMoyenneGenerale",
      "outputs": [
        {
          "internalType": "uint256",
          "name": "",
          "type": "uint256"
        }
      ],
      "stateMutability": "view",
      "type": "function"
    }
  ],
  "bytecode": "0x608060405234801561001057600080fd5b5061002d61002261003260201b60201c565b61003a60201b60201c565b6100fe565b600033905090565b60008060009054906101000a900473ffffffffffffffffffffffffffffffffffffffff169050816000806101000a81548173ffffffffffffffffffffffffffffffffffffffff021916908373ffffffffffffffffffffffffffffffffffffffff1602179055508173ffffffffffffffffffffffffffffffffffffffff168173ffffffffffffffffffffffffffffffffffffffff167f8be0079c531659141344cd1fd0a4f28419497f9722a3daafe3b4186f6b6457e060405160405180910390a35050565b611cf88061010d6000396000f3fe608060405234801561001057600080fd5b506004361061009e5760003560e01c8063715018a611610066578063715018a6146101575780638da5cb5b14610161578063c2ef37711461017f578063d304b1ea146101af578063f2fde38b146101df5761009e565b806302a3c89b146100a35780630b90cbc9146100d35780630dc0ffb1146100ef57806327b51db21461011f57806342de06191461013b575b600080fd5b6100bd60048036038101906100b89190611107565b6101fb565b6040516100ca9190611169565b60405180910390f35b6100ed60048036038101906100e891906111e2565b6102ac565b005b61010960048036038101906101049190611107565b61036d565b6040516101169190611288565b60405180910390f35b610139600480360381019061013491906112cf565b61039a565b005b610155600480360381019061015091906111e2565b61062f565b005b61015f61077b565b005b61016961078f565b6040516101769190611369565b60405180910390f35b61019960048036038101906101949190611384565b6107b8565b6040516101a69190611169565b60405180910390f35b6101c960048036038101906101c49190611107565b610b23565b6040516101d69190611169565b60405180910390f35b6101f960048036038101906101f491906113fc565b610cc8565b005b6000610205610d4b565b600061021083610dc9565b905060036001828154811061022857610227611429565b5b9060005260206000209060060201600501546001838154811061024e5761024d611429565b5b9060005260206000209060060201600401546001848154811061027457610273611429565b5b9060005260206000209060060201600301546102909190611487565b61029a9190611487565b6102a491906114ea565b915050919050565b6102b4610d4b565b806002846040516102c5919061158c565b9081526020016040518091039020836040516102e1919061158c565b908152602001604051809103902060006101000a81548173ffffffffffffffffffffffffffffffffffffffff021916908373ffffffffffffffffffffffffffffffffffffffff1602179055507f80a01e1d3291c6b3092f33ed56018c7bf68c833d0ea02c22585a85453a95fb05838383604051610360939291906115ed565b60405180910390a1505050565b6000610377610d4b565b600a610382836101fb565b106103905760019050610395565b600090505b919050565b60006103a583610dc9565b90506002600182815481106103bd576103bc611429565b5b90600052602060002090600602016001016040516103db919061172a565b9081526020016040518091039020846040516103f7919061158c565b908152602001604051809103902060009054906101000a900473ffffffffffffffffffffffffffffffffffffffff1673ffffffffffffffffffffffffffffffffffffffff163373ffffffffffffffffffffffffffffffffffffffff1614610493576040517f08c379a000000000000000000000000000000000000000000000000000000000815260040161048a906117b3565b60405180910390fd5b6104d2846040518060400160405280600781526020017f62696f6c6f677900000000000000000000000000000000000000000000000000815250610e7c565b156105065781600182815481106104ec576104eb611429565b5b906000526020600020906006020160030181905550610629565b610545846040518060400160405280600581526020017f6d61746873000000000000000000000000000000000000000000000000000000815250610e7c565b1561057957816001828154811061055f5761055e611429565b5b906000526020600020906006020160040181905550610628565b6105b8846040518060400160405280600681526020017f6672656e63680000000000000000000000000000000000000000000000000000815250610e7c565b156105ec5781600182815481106105d2576105d1611429565b5b906000526020600020906006020160050181905550610627565b6040517f08c379a000000000000000000000000000000000000000000000000000000000815260040161061e9061181f565b60405180910390fd5b5b5b50505050565b610637610d4b565b60016040518060c001604052808581526020018481526020018373ffffffffffffffffffffffffffffffffffffffff16815260200160008152602001600081526020016000815250908060018154018082558091505060019003906000526020600020906006020160009091909190915060008201518160000190816106bd91906119d6565b5060208201518160010190816106d391906119d6565b5060408201518160020160006101000a81548173ffffffffffffffffffffffffffffffffffffffff021916908373ffffffffffffffffffffffffffffffffffffffff160217905550606082015181600301556080820151816004015560a0820151816005015550507fc5a733a207b7a059be3101c664dd32331efcaa32bb12d0531ae1b7d4607a741583838360405161076e939291906115ed565b60405180910390a1505050565b610783610d4b565b61078d6000610ee1565b565b60008060009054906101000a900473ffffffffffffffffffffffffffffffffffffffff16905090565b60006002836040516107ca919061158c565b9081526020016040518091039020826040516107e6919061158c565b908152602001604051809103902060009054906101000a900473ffffffffffffffffffffffffffffffffffffffff1673ffffffffffffffffffffffffffffffffffffffff163373ffffffffffffffffffffffffffffffffffffffff1614610882576040517f08c379a000000000000000000000000000000000000000000000000000000000815260040161087990611b1a565b60405180910390fd5b60008060005b600180549050811015610afa5761094c86600183815481106108ad576108ac611429565b5b906000526020600020906006020160010180546108c990611661565b80601f01602080910402602001604051908101604052809291908181526020018280546108f590611661565b80156109425780601f1061091757610100808354040283529160200191610942565b820191906000526020600020905b81548152906001019060200180831161092557829003601f168201915b5050505050610e7c565b15610ae757610990856040518060400160405280600781526020017f62696f6c6f677900000000000000000000000000000000000000000000000000815250610e7c565b156109d857600181815481106109a9576109a8611429565b5b906000526020600020906006020160030154836109c69190611487565b92506001826109d59190611487565b91505b610a17856040518060400160405280600581526020017f6d61746873000000000000000000000000000000000000000000000000000000815250610e7c565b15610a5f5760018181548110610a3057610a2f611429565b5b90600052602060002090600602016004015483610a4d9190611487565b9250600182610a5c9190611487565b91505b610a9e856040518060400160405280600681526020017f6672656e63680000000000000000000000000000000000000000000000000000815250610e7c565b15610ae65760018181548110610ab757610ab6611429565b5b90600052602060002090600602016005015483610ad49190611487565b9250600182610ae39190611487565b91505b5b8080610af290611b3a565b915050610888565b50600081606484610b0b9190611b82565b610b1591906114ea565b905080935050505092915050565b6000610b2d610d4b565b60008060005b600180549050811015610cb257610bf78560018381548110610b5857610b57611429565b5b90600052602060002090600602016001018054610b7490611661565b80601f0160208091040260200160405190810160405280929190818152602001828054610ba090611661565b8015610bed5780601f10610bc257610100808354040283529160200191610bed565b820191906000526020600020905b815481529060010190602001808311610bd057829003601f168201915b5050505050610e7c565b15610c9f5760018181548110610c1057610c0f611429565b5b90600052602060002090600602016005015460018281548110610c3657610c35611429565b5b90600052602060002090600602016004015460018381548110610c5c57610c5b611429565b5b906000526020600020906006020160030154610c789190611487565b610c829190611487565b83610c8d9190611487565b9250600382610c9c9190611487565b91505b8080610caa90611b3a565b915050610b33565b508082610cbf91906114ea565b92505050919050565b610cd0610d4b565b600073ffffffffffffffffffffffffffffffffffffffff168173ffffffffffffffffffffffffffffffffffffffff1603610d3f576040517f08c379a0000000000000000000000000000000000000000000000000000000008152600401610d3690611c36565b60405180910390fd5b610d4881610ee1565b50565b610d53610fa5565b73ffffffffffffffffffffffffffffffffffffffff16610d7161078f565b73ffffffffffffffffffffffffffffffffffffffff1614610dc7576040517f08c379a0000000000000000000000000000000000000000000000000000000008152600401610dbe90611ca2565b60405180910390fd5b565b600080600090505b600180549050811015610e715782604051602001610def919061158c565b6040516020818303038152906040528051906020012060018281548110610e1957610e18611429565b5b9060005260206000209060060201600001604051602001610e3a919061172a565b6040516020818303038152906040528051906020012003610e5e5780915050610e77565b8080610e6990611b3a565b915050610dd1565b50600090505b919050565b60008082604051602001610e90919061158c565b6040516020818303038152906040528051906020012084604051602001610eb7919061158c565b6040516020818303038152906040528051906020012003610ed757600190505b8091505092915050565b60008060009054906101000a900473ffffffffffffffffffffffffffffffffffffffff169050816000806101000a81548173ffffffffffffffffffffffffffffffffffffffff021916908373ffffffffffffffffffffffffffffffffffffffff1602179055508173ffffffffffffffffffffffffffffffffffffffff168173ffffffffffffffffffffffffffffffffffffffff167f8be0079c531659141344cd1fd0a4f28419497f9722a3daafe3b4186f6b6457e060405160405180910390a35050565b600033905090565b6000604051905090565b600080fd5b600080fd5b600080fd5b600080fd5b6000601f19601f8301169050919050565b7f4e487b7100000000000000000000000000000000000000000000000000000000600052604160045260246000fd5b61101482610fcb565b810181811067ffffffffffffffff8211171561103357611032610fdc565b5b80604052505050565b6000611046610fad565b9050611052828261100b565b919050565b600067ffffffffffffffff82111561107257611071610fdc565b5b61107b82610fcb565b9050602081019050919050565b82818337600083830152505050565b60006110aa6110a584611057565b61103c565b9050828152602081018484840111156110c6576110c5610fc6565b5b6110d1848285611088565b509392505050565b600082601f8301126110ee576110ed610fc1565b5b81356110fe848260208601611097565b91505092915050565b60006020828403121561111d5761111c610fb7565b5b600082013567ffffffffffffffff81111561113b5761113a610fbc565b5b611147848285016110d9565b91505092915050565b6000819050919050565b61116381611150565b82525050565b600060208201905061117e600083018461115a565b92915050565b600073ffffffffffffffffffffffffffffffffffffffff82169050919050565b60006111af82611184565b9050919050565b6111bf816111a4565b81146111ca57600080fd5b50565b6000813590506111dc816111b6565b92915050565b6000806000606084860312156111fb576111fa610fb7565b5b600084013567ffffffffffffffff81111561121957611218610fbc565b5b611225868287016110d9565b935050602084013567ffffffffffffffff81111561124657611245610fbc565b5b611252868287016110d9565b9250506040611263868287016111cd565b9150509250925092565b60008115159050919050565b6112828161126d565b82525050565b600060208201905061129d6000830184611279565b92915050565b6112ac81611150565b81146112b757600080fd5b50565b6000813590506112c9816112a3565b92915050565b6000806000606084860312156112e8576112e7610fb7565b5b600084013567ffffffffffffffff81111561130657611305610fbc565b5b611312868287016110d9565b935050602084013567ffffffffffffffff81111561133357611332610fbc565b5b61133f868287016110d9565b9250506040611350868287016112ba565b9150509250925092565b611363816111a4565b82525050565b600060208201905061137e600083018461135a565b92915050565b6000806040838503121561139b5761139a610fb7565b5b600083013567ffffffffffffffff8111156113b9576113b8610fbc565b5b6113c5858286016110d9565b925050602083013567ffffffffffffffff8111156113e6576113e5610fbc565b5b6113f2858286016110d9565b9150509250929050565b60006020828403121561141257611411610fb7565b5b6000611420848285016111cd565b91505092915050565b7f4e487b7100000000000000000000000000000000000000000000000000000000600052603260045260246000fd5b7f4e487b7100000000000000000000000000000000000000000000000000000000600052601160045260246000fd5b600061149282611150565b915061149d83611150565b92508282019050808211156114b5576114b4611458565b5b92915050565b7f4e487b7100000000000000000000000000000000000000000000000000000000600052601260045260246000fd5b60006114f582611150565b915061150083611150565b9250826115105761150f6114bb565b5b828204905092915050565b600081519050919050565b600081905092915050565b60005b8381101561154f578082015181840152602081019050611534565b60008484015250505050565b60006115668261151b565b6115708185611526565b9350611580818560208601611531565b80840191505092915050565b6000611598828461155b565b915081905092915050565b600082825260208201905092915050565b60006115bf8261151b565b6115c981856115a3565b93506115d9818560208601611531565b6115e281610fcb565b840191505092915050565b6000606082019050818103600083015261160781866115b4565b9050818103602083015261161b81856115b4565b905061162a604083018461135a565b949350505050565b7f4e487b7100000000000000000000000000000000000000000000000000000000600052602260045260246000fd5b6000600282049050600182168061167957607f821691505b60208210810361168c5761168b611632565b5b50919050565b60008190508160005260206000209050919050565b600081546116b481611661565b6116be8186611526565b945060018216600081146116d957600181146116ee57611721565b60ff1983168652811515820286019350611721565b6116f785611692565b60005b83811015611719578154818901526001820191506020810190506116fa565b838801955050505b50505092915050565b600061173682846116a7565b915081905092915050565b7f796f75207265206e6f74207468652074656163686572206f662074686973207360008201527f747564656e7420636f7572736500000000000000000000000000000000000000602082015250565b600061179d602d836115a3565b91506117a882611741565b604082019050919050565b600060208201905081810360008301526117cc81611790565b9050919050565b7f747970652061207265616c20636f757273650000000000000000000000000000600082015250565b60006118096012836115a3565b9150611814826117d3565b602082019050919050565b60006020820190508181036000830152611838816117fc565b9050919050565b60006020601f8301049050919050565b600082821b905092915050565b60006008830261188c7fffffffffffffffffffffffffffffffffffffffffffffffffffffffffffffffff8261184f565b611896868361184f565b95508019841693508086168417925050509392505050565b6000819050919050565b60006118d36118ce6118c984611150565b6118ae565b611150565b9050919050565b6000819050919050565b6118ed836118b8565b6119016118f9826118da565b84845461185c565b825550505050565b600090565b611916611909565b6119218184846118e4565b505050565b5b818110156119455761193a60008261190e565b600181019050611927565b5050565b601f82111561198a5761195b81611692565b6119648461183f565b81016020851015611973578190505b61198761197f8561183f565b830182611926565b50505b505050565b600082821c905092915050565b60006119ad6000198460080261198f565b1980831691505092915050565b60006119c6838361199c565b9150826002028217905092915050565b6119df8261151b565b67ffffffffffffffff8111156119f8576119f7610fdc565b5b611a028254611661565b611a0d828285611949565b600060209050601f831160018114611a405760008415611a2e578287015190505b611a3885826119ba565b865550611aa0565b601f198416611a4e86611692565b60005b82811015611a7657848901518255600182019150602085019450602081019050611a51565b86831015611a935784890151611a8f601f89168261199c565b8355505b6001600288020188555050505b505050505050565b7f796f75277265206e6f74207468652074656163686572206f662074686973206360008201527f6c61737320636f75727365000000000000000000000000000000000000000000602082015250565b6000611b04602b836115a3565b9150611b0f82611aa8565b604082019050919050565b60006020820190508181036000830152611b3381611af7565b9050919050565b6000611b4582611150565b91507fffffffffffffffffffffffffffffffffffffffffffffffffffffffffffffffff8203611b7757611b76611458565b5b600182019050919050565b6000611b8d82611150565b9150611b9883611150565b9250828202611ba681611150565b91508282048414831517611bbd57611bbc611458565b5b5092915050565b7f4f776e61626c653a206e6577206f776e657220697320746865207a65726f206160008201527f6464726573730000000000000000000000000000000000000000000000000000602082015250565b6000611c206026836115a3565b9150611c2b82611bc4565b604082019050919050565b60006020820190508181036000830152611c4f81611c13565b9050919050565b7f4f776e61626c653a2063616c6c6572206973206e6f7420746865206f776e6572600082015250565b6000611c8c6020836115a3565b9150611c9782611c56565b602082019050919050565b60006020820190508181036000830152611cbb81611c7f565b905091905056fea264697066735822122020fad47d002adc4fbc1e4e1bc1f1872f5acc9abcd34f0219be3702524b0ba74264736f6c63430008120033",
  "immutableReferences": {},
  "source": "// SPDX-License-Identifier: GPL-3.0\r\npragma solidity 0.8.18;\r\n\r\nimport \"@openzeppelin/contracts/access/Ownable.sol\";\r\n\r\ncontract exoNotationV2 is Ownable {\r\n    struct Student {\r\n        string name;\r\n        string class;\r\n        address addr;\r\n        uint256 noteBiology;\r\n        uint256 noteMaths;\r\n        uint256 noteFr;\r\n    }\r\n\r\n    Student[] private students;\r\n\r\n    // class => course => address\r\n    mapping(string => mapping(string => address)) teachers;\r\n\r\n    event studentAdded(string _name, string _class, address _addr);\r\n    event teacherAdded(string _class, string _course, address _addr);\r\n\r\n    function addStudent(\r\n        string memory _name,\r\n        string memory _class,\r\n        address _addr\r\n    ) public onlyOwner {\r\n        students.push(Student(_name, _class, _addr, 0, 0, 0));\r\n        emit studentAdded(_name, _class, _addr);\r\n    }\r\n\r\n    function setTeacher(\r\n        string memory _class,\r\n        string memory _course,\r\n        address _addr\r\n    ) public onlyOwner {\r\n        teachers[_class][_course] = _addr;\r\n        emit teacherAdded(_class, _course, _addr);\r\n    }\r\n\r\n    function getStudentFromName(string memory _name)\r\n        private\r\n        view\r\n        returns (uint256)\r\n    {\r\n        for (uint256 i = 0; i < students.length; i++) {\r\n            if (\r\n                keccak256(abi.encodePacked(students[i].name)) ==\r\n                keccak256(abi.encodePacked(_name))\r\n            ) {\r\n                return i;\r\n            }\r\n        }\r\n        return 0;\r\n    }\r\n\r\n    function stringsEquals(string memory _string1, string memory _string2)\r\n        private\r\n        pure\r\n        returns (bool)\r\n    {\r\n        bool test;\r\n        if (\r\n            keccak256(abi.encodePacked(_string1)) ==\r\n            keccak256(abi.encodePacked(_string2))\r\n        ) {\r\n            test = true;\r\n        }\r\n        return test;\r\n    }\r\n\r\n    function setNote(\r\n        string memory _course,\r\n        string memory _nameStudent,\r\n        uint256 _note\r\n    ) public {\r\n        uint256 idStudent = getStudentFromName(_nameStudent);\r\n        require(\r\n            msg.sender == teachers[students[idStudent].class][_course],\r\n            \"you re not the teacher of this student course\"\r\n        );\r\n        if (stringsEquals(_course, \"biology\")) {\r\n            students[idStudent].noteBiology = _note;\r\n        } else if (stringsEquals(_course, \"maths\")) {\r\n            students[idStudent].noteMaths = _note;\r\n        } else if (stringsEquals(_course, \"french\")) {\r\n            students[idStudent].noteFr = _note;\r\n        } else {\r\n            revert(\"type a real course\");\r\n        }\r\n    }\r\n\r\n    function calculateMoyennePerCourse(\r\n        string memory _class,\r\n        string memory _course\r\n    ) public view returns (uint256) {\r\n        require(\r\n            msg.sender == teachers[_class][_course],\r\n            \"you're not the teacher of this class course\"\r\n        );\r\n        uint256 totalNote;\r\n        uint256 totalStudent;\r\n        for (uint256 i = 0; i < students.length; i++) {\r\n            if (stringsEquals(_class, students[i].class)) {\r\n                if (stringsEquals(_course, \"biology\")) {\r\n                    totalNote += students[i].noteBiology;\r\n                    totalStudent += 1;\r\n                }\r\n                if (stringsEquals(_course, \"maths\")) {\r\n                    totalNote += students[i].noteMaths;\r\n                    totalStudent += 1;\r\n                }\r\n                if (stringsEquals(_course, \"french\")) {\r\n                    totalNote += students[i].noteFr;\r\n                    totalStudent += 1;\r\n                }\r\n            }\r\n        }\r\n        uint256 moyenne = (totalNote * 100) / totalStudent;\r\n        return moyenne;\r\n    }\r\n\r\n    function calculateMoyenneStudent(string memory _name)\r\n        public\r\n        view\r\n        onlyOwner\r\n        returns (uint256)\r\n    {\r\n        uint256 idStudent = getStudentFromName(_name);\r\n        return\r\n            (students[idStudent].noteBiology +\r\n                students[idStudent].noteMaths +\r\n                students[idStudent].noteFr) / 3;\r\n    }\r\n\r\n    function isPassing(string memory _name)\r\n        public\r\n        view\r\n        onlyOwner\r\n        returns (bool)\r\n    {\r\n        if (calculateMoyenneStudent(_name) >= 10) {\r\n            return true;\r\n        } else {\r\n            return false;\r\n        }\r\n    }\r\n\r\n    function calculateMoyenneGenerale(string memory _class)\r\n        public\r\n        view\r\n        onlyOwner\r\n        returns (uint256)\r\n    {\r\n        uint256 totalNote;\r\n        uint256 totalStudent;\r\n        for (uint256 i = 0; i < students.length; i++) {\r\n            if (stringsEquals(_class, students[i].class)) {\r\n                totalNote +=\r\n                    students[i].noteBiology +\r\n                    students[i].noteMaths +\r\n                    students[i].noteFr;\r\n                totalStudent += 3;\r\n            }\r\n        }\r\n        return totalNote / totalStudent;\r\n    }\r\n}\r\n",
  "sourcePath": "C:\\Users\\Alex\\Documents\\Travail\\Alyra\\Alyra-Solidity\\contracts\\exoCours\\exoNotationV2\\exoNotationV2.sol",
  "compiler": {
    "name": "solc",
    "version": "0.8.18+commit.87f61d96.Emscripten.clang"
  },
  "schemaVersion": "3.4.7",
  "updatedAt": "2023-02-18T20:52:10.797Z",
  "devdoc": {
    "kind": "dev",
    "methods": {
      "owner()": {
        "details": "Returns the address of the current owner."
      },
      "renounceOwnership()": {
        "details": "Leaves the contract without owner. It will not be possible to call `onlyOwner` functions anymore. Can only be called by the current owner. NOTE: Renouncing ownership will leave the contract without an owner, thereby removing any functionality that is only available to the owner."
      },
      "transferOwnership(address)": {
        "details": "Transfers ownership of the contract to a new account (`newOwner`). Can only be called by the current owner."
      }
    },
    "version": 1
  },
  "userdoc": {
    "kind": "user",
    "methods": {},
    "version": 1
  }
}