{
  "contractName": "exoNotation",
  "abi": [
    {
      "anonymous": false,
      "inputs": [
        {
          "indexed": true,
          "internalType": "address",
          "name": "previousOwner",
          "type": "address"
        },
        {
          "indexed": true,
          "internalType": "address",
          "name": "newOwner",
          "type": "address"
        }
      ],
      "name": "OwnershipTransferred",
      "type": "event"
    },
    {
      "anonymous": false,
      "inputs": [
        {
          "indexed": false,
          "internalType": "string",
          "name": "_name",
          "type": "string"
        },
        {
          "indexed": false,
          "internalType": "address",
          "name": "_addr",
          "type": "address"
        }
      ],
      "name": "studentAdded",
      "type": "event"
    },
    {
      "anonymous": false,
      "inputs": [
        {
          "indexed": false,
          "internalType": "enum exoNotation.course",
          "name": "_course",
          "type": "uint8"
        },
        {
          "indexed": false,
          "internalType": "address",
          "name": "_addr",
          "type": "address"
        }
      ],
      "name": "teacherAdded",
      "type": "event"
    },
    {
      "inputs": [],
      "name": "owner",
      "outputs": [
        {
          "internalType": "address",
          "name": "",
          "type": "address"
        }
      ],
      "stateMutability": "view",
      "type": "function"
    },
    {
      "inputs": [],
      "name": "renounceOwnership",
      "outputs": [],
      "stateMutability": "nonpayable",
      "type": "function"
    },
    {
      "inputs": [
        {
          "internalType": "address",
          "name": "newOwner",
          "type": "address"
        }
      ],
      "name": "transferOwnership",
      "outputs": [],
      "stateMutability": "nonpayable",
      "type": "function"
    },
    {
      "inputs": [
        {
          "internalType": "string",
          "name": "_name",
          "type": "string"
        },
        {
          "internalType": "address",
          "name": "_addr",
          "type": "address"
        }
      ],
      "name": "addStudent",
      "outputs": [],
      "stateMutability": "nonpayable",
      "type": "function"
    },
    {
      "inputs": [
        {
          "internalType": "enum exoNotation.course",
          "name": "_course",
          "type": "uint8"
        },
        {
          "internalType": "address",
          "name": "_addr",
          "type": "address"
        }
      ],
      "name": "addTeacher",
      "outputs": [],
      "stateMutability": "nonpayable",
      "type": "function"
    },
    {
      "inputs": [
        {
          "internalType": "enum exoNotation.course",
          "name": "_course",
          "type": "uint8"
        }
      ],
      "name": "calculateMeanPerCourse",
      "outputs": [
        {
          "internalType": "uint256",
          "name": "",
          "type": "uint256"
        }
      ],
      "stateMutability": "view",
      "type": "function"
    },
    {
      "inputs": [
        {
          "internalType": "string",
          "name": "_name",
          "type": "string"
        }
      ],
      "name": "calculateMeanStudent",
      "outputs": [
        {
          "internalType": "uint256",
          "name": "",
          "type": "uint256"
        }
      ],
      "stateMutability": "view",
      "type": "function"
    },
    {
      "inputs": [
        {
          "internalType": "string",
          "name": "_name",
          "type": "string"
        }
      ],
      "name": "isPassing",
      "outputs": [
        {
          "internalType": "bool",
          "name": "",
          "type": "bool"
        }
      ],
      "stateMutability": "view",
      "type": "function"
    },
    {
      "inputs": [],
      "name": "calculateMeanGlobal",
      "outputs": [
        {
          "internalType": "uint256",
          "name": "",
          "type": "uint256"
        }
      ],
      "stateMutability": "view",
      "type": "function"
    },
    {
      "inputs": [
        {
          "internalType": "enum exoNotation.course",
          "name": "_course",
          "type": "uint8"
        },
        {
          "internalType": "string",
          "name": "_nameStudent",
          "type": "string"
        },
        {
          "internalType": "uint256",
          "name": "_note",
          "type": "uint256"
        }
      ],
      "name": "setNote",
      "outputs": [],
      "stateMutability": "nonpayable",
      "type": "function"
    }
  ],
  "bytecode": "0x608060405234801561001057600080fd5b5061002d61002261003260201b60201c565b61003a60201b60201c565b6100fe565b600033905090565b60008060009054906101000a900473ffffffffffffffffffffffffffffffffffffffff169050816000806101000a81548173ffffffffffffffffffffffffffffffffffffffff021916908373ffffffffffffffffffffffffffffffffffffffff1602179055508173ffffffffffffffffffffffffffffffffffffffff168173ffffffffffffffffffffffffffffffffffffffff167f8be0079c531659141344cd1fd0a4f28419497f9722a3daafe3b4186f6b6457e060405160405180910390a35050565b611baf8061010d6000396000f3fe608060405234801561001057600080fd5b506004361061009e5760003560e01c8063715018a611610066578063715018a6146101575780638da5cb5b14610161578063ce28c8071461017f578063f2fde38b146101af578063fa489605146101cb5761009e565b80630dc0ffb1146100a357806310468c2f146100d357806335d1f30d146100ef5780633c8c07bc1461010b5780635eb050cf1461013b575b600080fd5b6100bd60048036038101906100b89190610e99565b6101e9565b6040516100ca9190610efd565b60405180910390f35b6100ed60048036038101906100e89190610fd6565b610208565b005b6101096004803603810190610104919061105b565b610319565b005b61012560048036038101906101209190610e99565b6103d4565b60405161013291906110b4565b60405180910390f35b610155600480360381019061015091906110fb565b610491565b005b61015f6106fb565b005b61016961070f565b604051610176919061117e565b60405180910390f35b61019960048036038101906101949190611199565b610738565b6040516101a691906110b4565b60405180910390f35b6101c960048036038101906101c491906111c6565b6109a3565b005b6101d3610a26565b6040516101e091906110b4565b60405180910390f35b60006101f3610b0c565b6103e86101ff836103d4565b10159050919050565b610210610b0c565b6002604051806080016040528085858080601f016020809104026020016040519081016040528093929190818152602001838380828437600081840152601f19601f82011690508083019250505050505050815260200160008152602001600081526020016000815250908060018154018082558091505060019003906000526020600020906004020160009091909190915060008201518160000190816102b8919061140a565b5060208201518160010155604082015181600201556060820151816003015550507ff37b44c60d951a102e1b401bcd083688102e58c75aae387ff9884aa0f9ff33dc83838360405161030c9392919061151a565b60405180910390a1505050565b610321610b0c565b80600360008460028111156103395761033861154c565b5b600281111561034b5761034a61154c565b5b815260200190815260200160002060006101000a81548173ffffffffffffffffffffffffffffffffffffffff021916908373ffffffffffffffffffffffffffffffffffffffff1602179055507f4c81db63b6bab09b12e49b76a90a6ca4a9cfac4a8aabcefc1f8a249f0f4e691982826040516103c89291906115c3565b60405180910390a15050565b60006103de610b0c565b60006103e983610b8a565b90506003606460028381548110610403576104026115ec565b5b90600052602060002090600402016002015460028481548110610429576104286115ec565b5b9060005260206000209060040201600301546002858154811061044f5761044e6115ec565b5b90600052602060002090600402016001015461046b919061164a565b610475919061164a565b61047f919061167e565b61048991906116ef565b915050919050565b60006104e084848080601f016020809104026020016040519081016040528093929190818152602001838380828437600081840152601f19601f82011690508083019250505050505050610b8a565b9050600360008660028111156104f9576104f861154c565b5b600281111561050b5761050a61154c565b5b815260200190815260200160002060009054906101000a900473ffffffffffffffffffffffffffffffffffffffff1673ffffffffffffffffffffffffffffffffffffffff163373ffffffffffffffffffffffffffffffffffffffff16146105a7576040517f08c379a000000000000000000000000000000000000000000000000000000000815260040161059e90611792565b60405180910390fd5b600060028111156105bb576105ba61154c565b5b8560028111156105ce576105cd61154c565b5b036106025781600282815481106105e8576105e76115ec565b5b9060005260206000209060040201600101819055506106f4565b6002808111156106155761061461154c565b5b8560028111156106285761062761154c565b5b0361065c578160028281548110610642576106416115ec565b5b9060005260206000209060040201600301819055506106f3565b600160028111156106705761066f61154c565b5b8560028111156106835761068261154c565b5b036106b757816002828154811061069d5761069c6115ec565b5b9060005260206000209060040201600201819055506106f2565b6040517f08c379a00000000000000000000000000000000000000000000000000000000081526004016106e9906117fe565b60405180910390fd5b5b5b5050505050565b610703610b0c565b61070d6000610c73565b565b60008060009054906101000a900473ffffffffffffffffffffffffffffffffffffffff16905090565b6000600360008360028111156107515761075061154c565b5b60028111156107635761076261154c565b5b815260200190815260200160002060009054906101000a900473ffffffffffffffffffffffffffffffffffffffff1673ffffffffffffffffffffffffffffffffffffffff163373ffffffffffffffffffffffffffffffffffffffff16146107ff576040517f08c379a00000000000000000000000000000000000000000000000000000000081526004016107f690611890565b60405180910390fd5b60008060005b60028054905081101561097b57600060028111156108265761082561154c565b5b8560028111156108395761083861154c565b5b036108855760028181548110610852576108516115ec565b5b9060005260206000209060040201600101548361086f919061164a565b925060018261087e919061164a565b9150610968565b6002808111156108985761089761154c565b5b8560028111156108ab576108aa61154c565b5b036108f757600281815481106108c4576108c36115ec565b5b906000526020600020906004020160030154836108e1919061164a565b92506001826108f0919061164a565b9150610967565b6001600281111561090b5761090a61154c565b5b85600281111561091e5761091d61154c565b5b036109665760028181548110610937576109366115ec565b5b90600052602060002090600402016002015483610954919061164a565b9250600182610963919061164a565b91505b5b5b8080610973906118b0565b915050610805565b5060008160648461098c919061167e565b61099691906116ef565b9050809350505050919050565b6109ab610b0c565b600073ffffffffffffffffffffffffffffffffffffffff168173ffffffffffffffffffffffffffffffffffffffff1603610a1a576040517f08c379a0000000000000000000000000000000000000000000000000000000008152600401610a119061196a565b60405180910390fd5b610a2381610c73565b50565b6000610a30610b0c565b60008060005b600280549050811015610af85760028181548110610a5757610a566115ec565b5b90600052602060002090600402016002015460028281548110610a7d57610a7c6115ec565b5b90600052602060002090600402016003015460028381548110610aa357610aa26115ec565b5b906000526020600020906004020160010154610abf919061164a565b610ac9919061164a565b83610ad4919061164a565b9250600382610ae3919061164a565b91508080610af0906118b0565b915050610a36565b508082610b0591906116ef565b9250505090565b610b14610d37565b73ffffffffffffffffffffffffffffffffffffffff16610b3261070f565b73ffffffffffffffffffffffffffffffffffffffff1614610b88576040517f08c379a0000000000000000000000000000000000000000000000000000000008152600401610b7f906119d6565b60405180910390fd5b565b600080600090505b600280549050811015610c325782604051602001610bb09190611a5c565b6040516020818303038152906040528051906020012060028281548110610bda57610bd96115ec565b5b9060005260206000209060040201600001604051602001610bfb9190611af6565b6040516020818303038152906040528051906020012003610c1f5780915050610c6e565b8080610c2a906118b0565b915050610b92565b506040517f08c379a0000000000000000000000000000000000000000000000000000000008152600401610c6590611b59565b60405180910390fd5b919050565b60008060009054906101000a900473ffffffffffffffffffffffffffffffffffffffff169050816000806101000a81548173ffffffffffffffffffffffffffffffffffffffff021916908373ffffffffffffffffffffffffffffffffffffffff1602179055508173ffffffffffffffffffffffffffffffffffffffff168173ffffffffffffffffffffffffffffffffffffffff167f8be0079c531659141344cd1fd0a4f28419497f9722a3daafe3b4186f6b6457e060405160405180910390a35050565b600033905090565b6000604051905090565b600080fd5b600080fd5b600080fd5b600080fd5b6000601f19601f8301169050919050565b7f4e487b7100000000000000000000000000000000000000000000000000000000600052604160045260246000fd5b610da682610d5d565b810181811067ffffffffffffffff82111715610dc557610dc4610d6e565b5b80604052505050565b6000610dd8610d3f565b9050610de48282610d9d565b919050565b600067ffffffffffffffff821115610e0457610e03610d6e565b5b610e0d82610d5d565b9050602081019050919050565b82818337600083830152505050565b6000610e3c610e3784610de9565b610dce565b905082815260208101848484011115610e5857610e57610d58565b5b610e63848285610e1a565b509392505050565b600082601f830112610e8057610e7f610d53565b5b8135610e90848260208601610e29565b91505092915050565b600060208284031215610eaf57610eae610d49565b5b600082013567ffffffffffffffff811115610ecd57610ecc610d4e565b5b610ed984828501610e6b565b91505092915050565b60008115159050919050565b610ef781610ee2565b82525050565b6000602082019050610f126000830184610eee565b92915050565b600080fd5b600080fd5b60008083601f840112610f3857610f37610d53565b5b8235905067ffffffffffffffff811115610f5557610f54610f18565b5b602083019150836001820283011115610f7157610f70610f1d565b5b9250929050565b600073ffffffffffffffffffffffffffffffffffffffff82169050919050565b6000610fa382610f78565b9050919050565b610fb381610f98565b8114610fbe57600080fd5b50565b600081359050610fd081610faa565b92915050565b600080600060408486031215610fef57610fee610d49565b5b600084013567ffffffffffffffff81111561100d5761100c610d4e565b5b61101986828701610f22565b9350935050602061102c86828701610fc1565b9150509250925092565b6003811061104357600080fd5b50565b60008135905061105581611036565b92915050565b6000806040838503121561107257611071610d49565b5b600061108085828601611046565b925050602061109185828601610fc1565b9150509250929050565b6000819050919050565b6110ae8161109b565b82525050565b60006020820190506110c960008301846110a5565b92915050565b6110d88161109b565b81146110e357600080fd5b50565b6000813590506110f5816110cf565b92915050565b6000806000806060858703121561111557611114610d49565b5b600061112387828801611046565b945050602085013567ffffffffffffffff81111561114457611143610d4e565b5b61115087828801610f22565b93509350506040611163878288016110e6565b91505092959194509250565b61117881610f98565b82525050565b6000602082019050611193600083018461116f565b92915050565b6000602082840312156111af576111ae610d49565b5b60006111bd84828501611046565b91505092915050565b6000602082840312156111dc576111db610d49565b5b60006111ea84828501610fc1565b91505092915050565b600081519050919050565b7f4e487b7100000000000000000000000000000000000000000000000000000000600052602260045260246000fd5b6000600282049050600182168061124557607f821691505b602082108103611258576112576111fe565b5b50919050565b60008190508160005260206000209050919050565b60006020601f8301049050919050565b600082821b905092915050565b6000600883026112c07fffffffffffffffffffffffffffffffffffffffffffffffffffffffffffffffff82611283565b6112ca8683611283565b95508019841693508086168417925050509392505050565b6000819050919050565b60006113076113026112fd8461109b565b6112e2565b61109b565b9050919050565b6000819050919050565b611321836112ec565b61133561132d8261130e565b848454611290565b825550505050565b600090565b61134a61133d565b611355818484611318565b505050565b5b818110156113795761136e600082611342565b60018101905061135b565b5050565b601f8211156113be5761138f8161125e565b61139884611273565b810160208510156113a7578190505b6113bb6113b385611273565b83018261135a565b50505b505050565b600082821c905092915050565b60006113e1600019846008026113c3565b1980831691505092915050565b60006113fa83836113d0565b9150826002028217905092915050565b611413826111f3565b67ffffffffffffffff81111561142c5761142b610d6e565b5b611436825461122d565b61144182828561137d565b600060209050601f8311600181146114745760008415611462578287015190505b61146c85826113ee565b8655506114d4565b601f1984166114828661125e565b60005b828110156114aa57848901518255600182019150602085019450602081019050611485565b868310156114c757848901516114c3601f8916826113d0565b8355505b6001600288020188555050505b505050505050565b600082825260208201905092915050565b60006114f983856114dc565b9350611506838584610e1a565b61150f83610d5d565b840190509392505050565b600060408201905081810360008301526115358185876114ed565b9050611544602083018461116f565b949350505050565b7f4e487b7100000000000000000000000000000000000000000000000000000000600052602160045260246000fd5b6003811061158c5761158b61154c565b5b50565b600081905061159d8261157b565b919050565b60006115ad8261158f565b9050919050565b6115bd816115a2565b82525050565b60006040820190506115d860008301856115b4565b6115e5602083018461116f565b9392505050565b7f4e487b7100000000000000000000000000000000000000000000000000000000600052603260045260246000fd5b7f4e487b7100000000000000000000000000000000000000000000000000000000600052601160045260246000fd5b60006116558261109b565b91506116608361109b565b92508282019050808211156116785761167761161b565b5b92915050565b60006116898261109b565b91506116948361109b565b92508282026116a28161109b565b915082820484148315176116b9576116b861161b565b5b5092915050565b7f4e487b7100000000000000000000000000000000000000000000000000000000600052601260045260246000fd5b60006116fa8261109b565b91506117058361109b565b925082611715576117146116c0565b5b828204905092915050565b7f596f7520617265206e6f74207468652074656163686572206f6620746869732060008201527f73747564656e7420636f757273652e0000000000000000000000000000000000602082015250565b600061177c602f836114dc565b915061178782611720565b604082019050919050565b600060208201905081810360008301526117ab8161176f565b9050919050565b7f436f75727365207479706520646f6573206e6f742065786973742e0000000000600082015250565b60006117e8601b836114dc565b91506117f3826117b2565b602082019050919050565b60006020820190508181036000830152611817816117db565b9050919050565b7f596f7520617265206e6f74207468652074656163686572206f6620746869732060008201527f636c61737320636f757273652e00000000000000000000000000000000000000602082015250565b600061187a602d836114dc565b91506118858261181e565b604082019050919050565b600060208201905081810360008301526118a98161186d565b9050919050565b60006118bb8261109b565b91507fffffffffffffffffffffffffffffffffffffffffffffffffffffffffffffffff82036118ed576118ec61161b565b5b600182019050919050565b7f4f776e61626c653a206e6577206f776e657220697320746865207a65726f206160008201527f6464726573730000000000000000000000000000000000000000000000000000602082015250565b60006119546026836114dc565b915061195f826118f8565b604082019050919050565b6000602082019050818103600083015261198381611947565b9050919050565b7f4f776e61626c653a2063616c6c6572206973206e6f7420746865206f776e6572600082015250565b60006119c06020836114dc565b91506119cb8261198a565b602082019050919050565b600060208201905081810360008301526119ef816119b3565b9050919050565b600081905092915050565b60005b83811015611a1f578082015181840152602081019050611a04565b60008484015250505050565b6000611a36826111f3565b611a4081856119f6565b9350611a50818560208601611a01565b80840191505092915050565b6000611a688284611a2b565b915081905092915050565b60008154611a808161122d565b611a8a81866119f6565b94506001821660008114611aa55760018114611aba57611aed565b60ff1983168652811515820286019350611aed565b611ac38561125e565b60005b83811015611ae557815481890152600182019150602081019050611ac6565b838801955050505b50505092915050565b6000611b028284611a73565b915081905092915050565b7f5468652073747564656e7420646f6573206e6f742065786973742e0000000000600082015250565b6000611b43601b836114dc565b9150611b4e82611b0d565b602082019050919050565b60006020820190508181036000830152611b7281611b36565b905091905056fea264697066735822122004d23e907f0dfbb1fe4c4bf63b03a79d454b8f704c256777a62b36390df59d2864736f6c63430008120033",
  "immutableReferences": {},
  "source": "// SPDX-License-Identifier: GPL-3.0\r\npragma solidity 0.8.18;\r\n\r\nimport \"@openzeppelin/contracts/access/Ownable.sol\";\r\n\r\ncontract exoNotation is Ownable {\r\n    enum course {\r\n        Biology,\r\n        Math,\r\n        Fr\r\n    }\r\n\r\n    struct Student {\r\n        string name;\r\n        uint256 noteBiology;\r\n        uint256 noteMath;\r\n        uint256 noteFr;\r\n    }\r\n\r\n    mapping(course => mapping(string => Student)) notes;\r\n\r\n    Student[] private students;\r\n    mapping(course => address) teachers;\r\n\r\n    event studentAdded(string _name, address _addr);\r\n    event teacherAdded(course _course, address _addr);\r\n\r\n    function addStudent(string calldata _name, address _addr) public onlyOwner {\r\n        students.push(Student(_name, 0, 0, 0));\r\n        emit studentAdded(_name, _addr);\r\n    }\r\n\r\n    function addTeacher(course _course, address _addr) public onlyOwner {\r\n        teachers[_course] = _addr;\r\n        emit teacherAdded(_course, _addr);\r\n    }\r\n\r\n    function getStudentFromName(string memory _name)\r\n        private\r\n        view\r\n        returns (uint256)\r\n    {\r\n        for (uint256 i = 0; i < students.length; i++) {\r\n            if (\r\n                keccak256(abi.encodePacked(students[i].name)) ==\r\n                keccak256(abi.encodePacked(_name))\r\n            ) {\r\n                return i;\r\n            }\r\n        }\r\n        revert(\"The student does not exist.\");\r\n    }\r\n\r\n    function calculateMeanPerCourse(course _course)\r\n        public\r\n        view\r\n        returns (uint256)\r\n    {\r\n        require(\r\n            msg.sender == teachers[_course],\r\n            \"You are not the teacher of this class course.\"\r\n        );\r\n        uint256 totalNote;\r\n        uint256 totalStudent;\r\n\r\n        for (uint256 i = 0; i < students.length; i++) {\r\n            if (_course == course.Biology) {\r\n                totalNote += students[i].noteBiology;\r\n                totalStudent += 1;\r\n            } else if (_course == course.Fr) {\r\n                totalNote += students[i].noteFr;\r\n                totalStudent += 1;\r\n            } else if (_course == course.Math) {\r\n                totalNote += students[i].noteMath;\r\n                totalStudent += 1;\r\n            }\r\n        }\r\n        uint256 mean = (totalNote * 100) / totalStudent;\r\n        return mean;\r\n    }\r\n\r\n    function calculateMeanStudent(string memory _name)\r\n        public\r\n        view\r\n        onlyOwner\r\n        returns (uint256)\r\n    {\r\n        uint256 idStudent = getStudentFromName(_name);\r\n        return\r\n            ((students[idStudent].noteBiology +\r\n                students[idStudent].noteFr +\r\n                students[idStudent].noteMath) * 100) / 3;\r\n    }\r\n\r\n    function isPassing(string memory _name)\r\n        public\r\n        view\r\n        onlyOwner\r\n        returns (bool)\r\n    {\r\n        return calculateMeanStudent(_name) >= 1000;\r\n    }\r\n\r\n    function calculateMeanGlobal() public view onlyOwner returns (uint256) {\r\n        uint256 totalNote;\r\n        uint256 totalStudent;\r\n\r\n        for (uint256 i = 0; i < students.length; i++) {\r\n            totalNote +=\r\n                students[i].noteBiology +\r\n                students[i].noteFr +\r\n                students[i].noteMath;\r\n            totalStudent += 3;\r\n        }\r\n        return totalNote / totalStudent;\r\n    }\r\n\r\n    function setNote(\r\n        course _course,\r\n        string calldata _nameStudent,\r\n        uint256 _note\r\n    ) public {\r\n        uint256 idStudent = getStudentFromName(_nameStudent);\r\n        require(\r\n            msg.sender == teachers[_course],\r\n            \"You are not the teacher of this student course.\"\r\n        );\r\n        if (_course == course.Biology) {\r\n            students[idStudent].noteBiology = _note;\r\n        } else if (_course == course.Fr) {\r\n            students[idStudent].noteFr = _note;\r\n        } else if (_course == course.Math) {\r\n            students[idStudent].noteMath = _note;\r\n        } else {\r\n            revert(\"Course type does not exist.\");\r\n        }\r\n    }\r\n}\r\n",
  "sourcePath": "C:\\Users\\Alex\\Documents\\Travail\\Alyra\\Alyra-Solidity\\contracts\\exoCours\\exoNotation\\exoNotation.sol",
  "compiler": {
    "name": "solc",
    "version": "0.8.18+commit.87f61d96.Emscripten.clang"
  },
  "schemaVersion": "3.4.7",
  "updatedAt": "2023-02-18T20:52:10.753Z",
  "devdoc": {
    "kind": "dev",
    "methods": {
      "owner()": {
        "details": "Returns the address of the current owner."
      },
      "renounceOwnership()": {
        "details": "Leaves the contract without owner. It will not be possible to call `onlyOwner` functions anymore. Can only be called by the current owner. NOTE: Renouncing ownership will leave the contract without an owner, thereby removing any functionality that is only available to the owner."
      },
      "transferOwnership(address)": {
        "details": "Transfers ownership of the contract to a new account (`newOwner`). Can only be called by the current owner."
      }
    },
    "version": 1
  },
  "userdoc": {
    "kind": "user",
    "methods": {},
    "version": 1
  }
}