{
  "contractName": "inheritance",
  "abi": [
    {
      "inputs": [
        {
          "internalType": "address",
          "name": "_addr",
          "type": "address"
        }
      ],
      "name": "getContractByAddress",
      "outputs": [],
      "stateMutability": "nonpayable",
      "type": "function"
    },
    {
      "inputs": [],
      "name": "getValue",
      "outputs": [
        {
          "internalType": "uint256",
          "name": "",
          "type": "uint256"
        }
      ],
      "stateMutability": "view",
      "type": "function"
    },
    {
      "inputs": [
        {
          "internalType": "uint256",
          "name": "_val",
          "type": "uint256"
        }
      ],
      "name": "setValue",
      "outputs": [
        {
          "internalType": "uint256",
          "name": "",
          "type": "uint256"
        }
      ],
      "stateMutability": "nonpayable",
      "type": "function"
    }
  ],
  "bytecode": "0x608060405234801561001057600080fd5b506103b5806100206000396000f3fe608060405234801561001057600080fd5b50600436106100415760003560e01c806320965255146100465780635524107714610064578063a3d4551b14610094575b600080fd5b61004e6100b0565b60405161005b9190610239565b60405180910390f35b61007e60048036038101906100799190610285565b610147565b60405161008b9190610239565b60405180910390f35b6100ae60048036038101906100a99190610310565b6101dd565b005b60008060009054906101000a900473ffffffffffffffffffffffffffffffffffffffff1673ffffffffffffffffffffffffffffffffffffffff16632e64cec16040518163ffffffff1660e01b8152600401602060405180830381865afa15801561011e573d6000803e3d6000fd5b505050506040513d601f19601f820116820180604052508101906101429190610352565b905090565b60008060009054906101000a900473ffffffffffffffffffffffffffffffffffffffff1673ffffffffffffffffffffffffffffffffffffffff16636057361d836040518263ffffffff1660e01b81526004016101a39190610239565b600060405180830381600087803b1580156101bd57600080fd5b505af11580156101d1573d6000803e3d6000fd5b50505050819050919050565b806000806101000a81548173ffffffffffffffffffffffffffffffffffffffff021916908373ffffffffffffffffffffffffffffffffffffffff16021790555050565b6000819050919050565b61023381610220565b82525050565b600060208201905061024e600083018461022a565b92915050565b600080fd5b61026281610220565b811461026d57600080fd5b50565b60008135905061027f81610259565b92915050565b60006020828403121561029b5761029a610254565b5b60006102a984828501610270565b91505092915050565b600073ffffffffffffffffffffffffffffffffffffffff82169050919050565b60006102dd826102b2565b9050919050565b6102ed816102d2565b81146102f857600080fd5b50565b60008135905061030a816102e4565b92915050565b60006020828403121561032657610325610254565b5b6000610334848285016102fb565b91505092915050565b60008151905061034c81610259565b92915050565b60006020828403121561036857610367610254565b5b60006103768482850161033d565b9150509291505056fea26469706673582212207615cde9cb9fff8f14974c2c3cceb2865ec1d970729598e17f4a76d0628b7ee364736f6c63430008120033",
  "immutableReferences": {},
  "source": "// SPDX-License-Identifier: GPL-3.0\r\n\r\npragma solidity >=0.7.0 <0.9.0;\r\n\r\ninterface IStorage{\r\n    function store(uint256 num) external;\r\n    function retrieve() external view returns(uint256);\r\n}   \r\n    \r\ncontract inheritance{\r\n\r\n    IStorage dc;\r\n\r\n    function getContractByAddress(address _addr) external{\r\n\r\n        dc = IStorage(_addr);\r\n    }\r\n\r\n    function getValue() public view returns(uint){\r\n        return dc.retrieve();\r\n    }\r\n\r\n    function setValue(uint _val) public returns(uint){\r\n        dc.store(_val);\r\n        return _val;\r\n    }\r\n}",
  "sourcePath": "C:\\Users\\Alex\\Documents\\Travail\\Alyra\\Alyra-Solidity\\contracts\\exoCours\\exoInheritance2\\inheritance.sol",
  "compiler": {
    "name": "solc",
    "version": "0.8.18+commit.87f61d96.Emscripten.clang"
  },
  "schemaVersion": "3.4.7",
  "updatedAt": "2023-02-18T20:52:10.723Z",
  "devdoc": {
    "kind": "dev",
    "methods": {},
    "version": 1
  },
  "userdoc": {
    "kind": "user",
    "methods": {},
    "version": 1
  }
}