{
  "contractName": "Owner",
  "abi": [
    {
      "inputs": [],
      "stateMutability": "nonpayable",
      "type": "constructor"
    },
    {
      "anonymous": false,
      "inputs": [
        {
          "indexed": true,
          "internalType": "address",
          "name": "oldOwner",
          "type": "address"
        },
        {
          "indexed": true,
          "internalType": "address",
          "name": "newOwner",
          "type": "address"
        }
      ],
      "name": "OwnerSet",
      "type": "event"
    },
    {
      "inputs": [
        {
          "internalType": "address",
          "name": "newOwner",
          "type": "address"
        }
      ],
      "name": "changeOwner",
      "outputs": [],
      "stateMutability": "nonpayable",
      "type": "function"
    },
    {
      "inputs": [],
      "name": "getOwner",
      "outputs": [
        {
          "internalType": "address",
          "name": "",
          "type": "address"
        }
      ],
      "stateMutability": "view",
      "type": "function"
    }
  ],
  "bytecode": "0x608060405234801561001057600080fd5b5061005a6040518060400160405280601b81526020017f4f776e657220636f6e7472616374206465706c6f7965642062793a00000000008152503361011a60201b6101e91760201c565b336000806101000a81548173ffffffffffffffffffffffffffffffffffffffff021916908373ffffffffffffffffffffffffffffffffffffffff16021790555060008054906101000a900473ffffffffffffffffffffffffffffffffffffffff1673ffffffffffffffffffffffffffffffffffffffff16600073ffffffffffffffffffffffffffffffffffffffff167f342827c97908e5e2f71151c08502a66d44b6f758e3ac2f1de95f02eb95f0a73560405160405180910390a36102e6565b6101b882826040516024016101309291906102b6565b6040516020818303038152906040527f319af333000000000000000000000000000000000000000000000000000000007bffffffffffffffffffffffffffffffffffffffffffffffffffffffff19166020820180517bffffffffffffffffffffffffffffffffffffffffffffffffffffffff83818316178352505050506101bc60201b60201c565b5050565b60008151905060006a636f6e736f6c652e6c6f679050602083016000808483855afa5050505050565b600081519050919050565b600082825260208201905092915050565b60005b8381101561021f578082015181840152602081019050610204565b60008484015250505050565b6000601f19601f8301169050919050565b6000610247826101e5565b61025181856101f0565b9350610261818560208601610201565b61026a8161022b565b840191505092915050565b600073ffffffffffffffffffffffffffffffffffffffff82169050919050565b60006102a082610275565b9050919050565b6102b081610295565b82525050565b600060408201905081810360008301526102d0818561023c565b90506102df60208301846102a7565b9392505050565b6104ca806102f56000396000f3fe608060405234801561001057600080fd5b50600436106100365760003560e01c8063893d20e81461003b578063a6f9dae114610059575b600080fd5b610043610075565b60405161005091906102ef565b60405180910390f35b610073600480360381019061006e919061033b565b61009e565b005b60008060009054906101000a900473ffffffffffffffffffffffffffffffffffffffff16905090565b60008054906101000a900473ffffffffffffffffffffffffffffffffffffffff1673ffffffffffffffffffffffffffffffffffffffff163373ffffffffffffffffffffffffffffffffffffffff161461012c576040517f08c379a0000000000000000000000000000000000000000000000000000000008152600401610123906103c5565b60405180910390fd5b8073ffffffffffffffffffffffffffffffffffffffff1660008054906101000a900473ffffffffffffffffffffffffffffffffffffffff1673ffffffffffffffffffffffffffffffffffffffff167f342827c97908e5e2f71151c08502a66d44b6f758e3ac2f1de95f02eb95f0a73560405160405180910390a3806000806101000a81548173ffffffffffffffffffffffffffffffffffffffff021916908373ffffffffffffffffffffffffffffffffffffffff16021790555050565b61028182826040516024016101ff929190610464565b6040516020818303038152906040527f319af333000000000000000000000000000000000000000000000000000000007bffffffffffffffffffffffffffffffffffffffffffffffffffffffff19166020820180517bffffffffffffffffffffffffffffffffffffffffffffffffffffffff8381831617835250505050610285565b5050565b60008151905060006a636f6e736f6c652e6c6f679050602083016000808483855afa5050505050565b600073ffffffffffffffffffffffffffffffffffffffff82169050919050565b60006102d9826102ae565b9050919050565b6102e9816102ce565b82525050565b600060208201905061030460008301846102e0565b92915050565b600080fd5b610318816102ce565b811461032357600080fd5b50565b6000813590506103358161030f565b92915050565b6000602082840312156103515761035061030a565b5b600061035f84828501610326565b91505092915050565b600082825260208201905092915050565b7f43616c6c6572206973206e6f74206f776e657200000000000000000000000000600082015250565b60006103af601383610368565b91506103ba82610379565b602082019050919050565b600060208201905081810360008301526103de816103a2565b9050919050565b600081519050919050565b60005b8381101561040e5780820151818401526020810190506103f3565b60008484015250505050565b6000601f19601f8301169050919050565b6000610436826103e5565b6104408185610368565b93506104508185602086016103f0565b6104598161041a565b840191505092915050565b6000604082019050818103600083015261047e818561042b565b905061048d60208301846102e0565b939250505056fea26469706673582212204db0d4c694cd2182f9e1f91ba4d69580edd28a5b6f22e7da58fe4c10f0829aaa64736f6c63430008120033",
  "immutableReferences": {},
  "source": "// SPDX-License-Identifier: GPL-3.0\r\n\r\npragma solidity >=0.7.0 <0.9.0;\r\n\r\nimport \"hardhat/console.sol\";\r\n\r\n/**\r\n * @title Owner\r\n * @dev Set & change owner\r\n */\r\ncontract Owner {\r\n\r\n    address private owner;\r\n\r\n    // event for EVM logging\r\n    event OwnerSet(address indexed oldOwner, address indexed newOwner);\r\n\r\n    // modifier to check if caller is owner\r\n    modifier isOwner() {\r\n        // If the first argument of 'require' evaluates to 'false', execution terminates and all\r\n        // changes to the state and to Ether balances are reverted.\r\n        // This used to consume all gas in old EVM versions, but not anymore.\r\n        // It is often a good idea to use 'require' to check if functions are called correctly.\r\n        // As a second argument, you can also provide an explanation about what went wrong.\r\n        require(msg.sender == owner, \"Caller is not owner\");\r\n        _;\r\n    }\r\n\r\n    /**\r\n     * @dev Set contract deployer as owner\r\n     */\r\n    constructor() {\r\n        console.log(\"Owner contract deployed by:\", msg.sender);\r\n        owner = msg.sender; // 'msg.sender' is sender of current call, contract deployer for a constructor\r\n        emit OwnerSet(address(0), owner);\r\n    }\r\n\r\n    /**\r\n     * @dev Change owner\r\n     * @param newOwner address of new owner\r\n     */\r\n    function changeOwner(address newOwner) public isOwner {\r\n        emit OwnerSet(owner, newOwner);\r\n        owner = newOwner;\r\n    }\r\n\r\n    /**\r\n     * @dev Return owner address \r\n     * @return address of owner\r\n     */\r\n    function getOwner() external view returns (address) {\r\n        return owner;\r\n    }\r\n} ",
  "sourcePath": "C:\\Users\\Alex\\Documents\\Travail\\Alyra\\Alyra-Solidity\\contracts\\2_Owner.sol",
  "compiler": {
    "name": "solc",
    "version": "0.8.18+commit.87f61d96.Emscripten.clang"
  },
  "schemaVersion": "3.4.7",
  "updatedAt": "2023-02-18T20:52:10.512Z",
  "devdoc": {
    "details": "Set & change owner",
    "kind": "dev",
    "methods": {
      "changeOwner(address)": {
        "details": "Change owner",
        "params": {
          "newOwner": "address of new owner"
        }
      },
      "constructor": {
        "details": "Set contract deployer as owner"
      },
      "getOwner()": {
        "details": "Return owner address ",
        "returns": {
          "_0": "address of owner"
        }
      }
    },
    "title": "Owner",
    "version": 1
  },
  "userdoc": {
    "kind": "user",
    "methods": {},
    "version": 1
  }
}