{
  "contractName": "Parent",
  "abi": [
    {
      "inputs": [
        {
          "internalType": "uint256",
          "name": "_value",
          "type": "uint256"
        }
      ],
      "name": "setValue",
      "outputs": [],
      "stateMutability": "nonpayable",
      "type": "function"
    }
  ],
  "bytecode": "0x608060405234801561001057600080fd5b5060e38061001f6000396000f3fe6080604052348015600f57600080fd5b506004361060285760003560e01c80635524107714602d575b600080fd5b60436004803603810190603f91906085565b6045565b005b8060008190555050565b600080fd5b6000819050919050565b6065816054565b8114606f57600080fd5b50565b600081359050607f81605e565b92915050565b6000602082840312156098576097604f565b5b600060a4848285016072565b9150509291505056fea2646970667358221220ac438d1b4306a8358de5045281b85031079d2db18fcec4ac115cd0936f35492e64736f6c63430008120033",
  "immutableReferences": {},
  "source": "// SPDX-License-Identifier: GPL-3.0\r\npragma solidity 0.8.18;\r\n\r\ncontract Parent {\r\n    uint256 myValue;\r\n\r\n    function setValue(uint256 _value) external {\r\n        myValue = _value;\r\n    }\r\n}\r\n\r\ncontract Child is Parent {\r\n    function getParentValue() external view returns (uint256) {\r\n        return myValue;\r\n    }\r\n}\r\n\r\ncontract Caller {\r\n    function createChild(uint256 _value) public returns (uint256) {\r\n        Child child = new Child();\r\n        child.setValue(_value);\r\n        return child.getParentValue();\r\n    }\r\n}\r\n",
  "sourcePath": "C:\\Users\\Alex\\Documents\\Travail\\Alyra\\Alyra-Solidity\\contracts\\exoCours\\exoInheritance\\exoInheritance.sol",
  "compiler": {
    "name": "solc",
    "version": "0.8.18+commit.87f61d96.Emscripten.clang"
  },
  "schemaVersion": "3.4.7",
  "updatedAt": "2023-02-18T20:52:10.708Z",
  "devdoc": {
    "kind": "dev",
    "methods": {},
    "version": 1
  },
  "userdoc": {
    "kind": "user",
    "methods": {},
    "version": 1
  }
}