{
  "contractName": "Random",
  "abi": [
    {
      "inputs": [],
      "name": "random",
      "outputs": [
        {
          "internalType": "uint256",
          "name": "",
          "type": "uint256"
        }
      ],
      "stateMutability": "nonpayable",
      "type": "function"
    },
    {
      "inputs": [],
      "name": "getLastRandomForTest",
      "outputs": [
        {
          "internalType": "uint256",
          "name": "",
          "type": "uint256"
        }
      ],
      "stateMutability": "view",
      "type": "function"
    }
  ],
  "bytecode": "0x60806040526000805534801561001457600080fd5b506102fd806100246000396000f3fe608060405234801561001057600080fd5b50600436106100365760003560e01c80630404a2451461003b5780635ec01e4d14610059575b600080fd5b610043610077565b60405161005091906100fd565b60405180910390f35b610061610081565b60405161006e91906100fd565b60405180910390f35b6000600154905090565b600080600081548092919061009590610147565b9190505550606442336000546040516020016100b39392919061022a565b6040516020818303038152906040528051906020012060001c6100d69190610296565b600181905550600154905090565b6000819050919050565b6100f7816100e4565b82525050565b600060208201905061011260008301846100ee565b92915050565b7f4e487b7100000000000000000000000000000000000000000000000000000000600052601160045260246000fd5b6000610152826100e4565b91507fffffffffffffffffffffffffffffffffffffffffffffffffffffffffffffffff820361018457610183610118565b5b600182019050919050565b6000819050919050565b6101aa6101a5826100e4565b61018f565b82525050565b600073ffffffffffffffffffffffffffffffffffffffff82169050919050565b60006101db826101b0565b9050919050565b60008160601b9050919050565b60006101fa826101e2565b9050919050565b600061020c826101ef565b9050919050565b61022461021f826101d0565b610201565b82525050565b60006102368286610199565b6020820191506102468285610213565b6014820191506102568284610199565b602082019150819050949350505050565b7f4e487b7100000000000000000000000000000000000000000000000000000000600052601260045260246000fd5b60006102a1826100e4565b91506102ac836100e4565b9250826102bc576102bb610267565b5b82820690509291505056fea2646970667358221220ff89741807fabfd875e33a6674e0b0c2f60bec84f1e7028b7b1d0f4a3dc3a5f264736f6c63430008120033",
  "immutableReferences": {},
  "source": "// SPDX-License-Identifier: MIT\r\npragma solidity 0.8.18;\r\n\r\ncontract Random {\r\n    uint256 private _nonce = 0;\r\n    uint256 _lastRand;\r\n\r\n    function random() public returns (uint256) {\r\n        _nonce++;\r\n        _lastRand =\r\n            uint256(\r\n                keccak256(abi.encodePacked(block.timestamp, msg.sender, _nonce))\r\n            ) %\r\n            100;\r\n        return _lastRand;\r\n    }\r\n\r\n    function getLastRandomForTest() public view returns (uint256) {\r\n        return _lastRand;\r\n    }\r\n}\r\n",
  "sourcePath": "C:\\Users\\Alex\\Documents\\Travail\\Alyra\\Alyra-Solidity\\contracts\\random\\random.sol",
  "compiler": {
    "name": "solc",
    "version": "0.8.18+commit.87f61d96.Emscripten.clang"
  },
  "schemaVersion": "3.4.7",
  "updatedAt": "2023-02-18T20:52:10.817Z",
  "devdoc": {
    "kind": "dev",
    "methods": {},
    "version": 1
  },
  "userdoc": {
    "kind": "user",
    "methods": {},
    "version": 1
  }
}