{
  "contractName": "VotingV2",
  "abi": [
    {
      "anonymous": false,
      "inputs": [
        {
          "indexed": true,
          "internalType": "address",
          "name": "previousOwner",
          "type": "address"
        },
        {
          "indexed": true,
          "internalType": "address",
          "name": "newOwner",
          "type": "address"
        }
      ],
      "name": "OwnershipTransferred",
      "type": "event"
    },
    {
      "anonymous": false,
      "inputs": [
        {
          "indexed": true,
          "internalType": "uint16",
          "name": "proposalId",
          "type": "uint16"
        }
      ],
      "name": "ProposalRegistered",
      "type": "event"
    },
    {
      "anonymous": false,
      "inputs": [
        {
          "indexed": true,
          "internalType": "address",
          "name": "voter",
          "type": "address"
        },
        {
          "indexed": true,
          "internalType": "uint16",
          "name": "proposalId",
          "type": "uint16"
        }
      ],
      "name": "Voted",
      "type": "event"
    },
    {
      "anonymous": false,
      "inputs": [
        {
          "indexed": true,
          "internalType": "address",
          "name": "voterAddress",
          "type": "address"
        }
      ],
      "name": "VoterRegistered",
      "type": "event"
    },
    {
      "anonymous": false,
      "inputs": [
        {
          "indexed": false,
          "internalType": "enum VotingV2.WorkflowStatus",
          "name": "previousStatus",
          "type": "uint8"
        },
        {
          "indexed": false,
          "internalType": "enum VotingV2.WorkflowStatus",
          "name": "newStatus",
          "type": "uint8"
        }
      ],
      "name": "WorkflowStatusChange",
      "type": "event"
    },
    {
      "inputs": [],
      "name": "owner",
      "outputs": [
        {
          "internalType": "address",
          "name": "",
          "type": "address"
        }
      ],
      "stateMutability": "view",
      "type": "function"
    },
    {
      "inputs": [],
      "name": "renounceOwnership",
      "outputs": [],
      "stateMutability": "nonpayable",
      "type": "function"
    },
    {
      "inputs": [
        {
          "internalType": "address",
          "name": "newOwner",
          "type": "address"
        }
      ],
      "name": "transferOwnership",
      "outputs": [],
      "stateMutability": "nonpayable",
      "type": "function"
    },
    {
      "inputs": [],
      "name": "_restartSession",
      "outputs": [],
      "stateMutability": "nonpayable",
      "type": "function"
    },
    {
      "inputs": [
        {
          "internalType": "address",
          "name": "_addrVoter",
          "type": "address"
        }
      ],
      "name": "adminAddRegistered",
      "outputs": [],
      "stateMutability": "nonpayable",
      "type": "function"
    },
    {
      "inputs": [],
      "name": "adminStartProposalsSession",
      "outputs": [],
      "stateMutability": "nonpayable",
      "type": "function"
    },
    {
      "inputs": [],
      "name": "adminStopProposalsSession",
      "outputs": [],
      "stateMutability": "nonpayable",
      "type": "function"
    },
    {
      "inputs": [],
      "name": "adminStartVotingSession",
      "outputs": [],
      "stateMutability": "nonpayable",
      "type": "function"
    },
    {
      "inputs": [],
      "name": "adminStopVotingSession",
      "outputs": [],
      "stateMutability": "nonpayable",
      "type": "function"
    },
    {
      "inputs": [],
      "name": "adminTallyVotes",
      "outputs": [],
      "stateMutability": "nonpayable",
      "type": "function"
    },
    {
      "inputs": [
        {
          "internalType": "string",
          "name": "_description",
          "type": "string"
        }
      ],
      "name": "voterAddProposal",
      "outputs": [],
      "stateMutability": "nonpayable",
      "type": "function"
    },
    {
      "inputs": [
        {
          "internalType": "uint16",
          "name": "_proposalId",
          "type": "uint16"
        }
      ],
      "name": "voterAddVote",
      "outputs": [],
      "stateMutability": "nonpayable",
      "type": "function"
    },
    {
      "inputs": [],
      "name": "getWinner",
      "outputs": [
        {
          "components": [
            {
              "internalType": "string",
              "name": "description",
              "type": "string"
            },
            {
              "internalType": "uint16",
              "name": "voteCount",
              "type": "uint16"
            }
          ],
          "internalType": "struct VotingV2.Proposal",
          "name": "",
          "type": "tuple"
        }
      ],
      "stateMutability": "view",
      "type": "function"
    },
    {
      "inputs": [
        {
          "internalType": "address",
          "name": "_addr",
          "type": "address"
        }
      ],
      "name": "getVoterProposals",
      "outputs": [
        {
          "components": [
            {
              "internalType": "string",
              "name": "description",
              "type": "string"
            },
            {
              "internalType": "uint16",
              "name": "voteCount",
              "type": "uint16"
            }
          ],
          "internalType": "struct VotingV2.Proposal[]",
          "name": "",
          "type": "tuple[]"
        }
      ],
      "stateMutability": "view",
      "type": "function"
    },
    {
      "inputs": [
        {
          "internalType": "address",
          "name": "_addr",
          "type": "address"
        }
      ],
      "name": "getVoterVote",
      "outputs": [
        {
          "components": [
            {
              "internalType": "string",
              "name": "description",
              "type": "string"
            },
            {
              "internalType": "uint16",
              "name": "voteCount",
              "type": "uint16"
            }
          ],
          "internalType": "struct VotingV2.Proposal",
          "name": "",
          "type": "tuple"
        }
      ],
      "stateMutability": "view",
      "type": "function"
    }
  ],
  "bytecode": "0x60806040523480156200001157600080fd5b5062000032620000266200003860201b60201c565b6200004060201b60201c565b62000104565b600033905090565b60008060009054906101000a900473ffffffffffffffffffffffffffffffffffffffff169050816000806101000a81548173ffffffffffffffffffffffffffffffffffffffff021916908373ffffffffffffffffffffffffffffffffffffffff1602179055508173ffffffffffffffffffffffffffffffffffffffff168173ffffffffffffffffffffffffffffffffffffffff167f8be0079c531659141344cd1fd0a4f28419497f9722a3daafe3b4186f6b6457e060405160405180910390a35050565b612faa80620001146000396000f3fe608060405234801561001057600080fd5b50600436106100f55760003560e01c80637669d79e11610097578063cf278c7411610066578063cf278c7414610212578063d13374031461021c578063d83f235b14610226578063f2fde38b14610230576100f5565b80637669d79e146101b05780638da5cb5b146101ba5780638e7ea5b2146101d8578063c145e3d5146101f6576100f5565b806352f33385116100d357806352f33385146101505780635f39ff211461015a5780636fbd32f614610176578063715018a6146101a6576100f5565b806304456224146100fa57806323e9df47146101045780635141e52014610120575b600080fd5b61010261024c565b005b61011e60048036038101906101199190611dbd565b61031d565b005b61013a60048036038101906101359190611e48565b610749565b6040516101479190611f51565b60405180910390f35b610158610a38565b005b610174600480360381019061016f9190611fd8565b610ca6565b005b610190600480360381019061018b9190611e48565b610f6a565b60405161019d9190612124565b60405180910390f35b6101ae6112c2565b005b6101b86112d6565b005b6101c26113b7565b6040516101cf9190612155565b60405180910390f35b6101e06113e0565b6040516101ed9190611f51565b60405180910390f35b610210600480360381019061020b9190611e48565b611555565b005b61021a611812565b005b61022461189c565b005b61022e61197c565b005b61024a60048036038101906102459190611e48565b611a06565b005b610254611a89565b6001600581111561026857610267612170565b5b6000601a9054906101000a900460ff16600581111561028a57610289612170565b5b146102ca576040517f08c379a00000000000000000000000000000000000000000000000000000000081526004016102c190612222565b60405180910390fd5b6001808054905011610311576040517f08c379a0000000000000000000000000000000000000000000000000000000008152600401610308906122b4565b60405180910390fd5b61031b6002611b07565b565b600360003373ffffffffffffffffffffffffffffffffffffffff1673ffffffffffffffffffffffffffffffffffffffff16815260200190815260200160002060000160009054906101000a900460ff166103ac576040517f08c379a00000000000000000000000000000000000000000000000000000000081526004016103a390612320565b60405180910390fd5b600360058111156103c0576103bf612170565b5b6000601a9054906101000a900460ff1660058111156103e2576103e1612170565b5b14610422576040517f08c379a0000000000000000000000000000000000000000000000000000000008152600401610419906123b2565b60405180910390fd5b600360003373ffffffffffffffffffffffffffffffffffffffff1673ffffffffffffffffffffffffffffffffffffffff16815260200190815260200160002060000160019054906101000a900460ff16156104b2576040517f08c379a00000000000000000000000000000000000000000000000000000000081526004016104a99061241e565b60405180910390fd5b6001805490508161ffff16106104fd576040517f08c379a00000000000000000000000000000000000000000000000000000000081526004016104f49061248a565b60405180910390fd5b80600360003373ffffffffffffffffffffffffffffffffffffffff1673ffffffffffffffffffffffffffffffffffffffff16815260200190815260200160002060000160026101000a81548161ffff021916908361ffff1602179055506001600360003373ffffffffffffffffffffffffffffffffffffffff1673ffffffffffffffffffffffffffffffffffffffff16815260200190815260200160002060000160016101000a81548160ff02191690831515021790555060018161ffff16815481106105cd576105cc6124aa565b5b9060005260206000209060020201600101600081819054906101000a900461ffff16809291906105fc90612508565b91906101000a81548161ffff021916908361ffff160217905550506000601681819054906101000a900461ffff168092919061063790612508565b91906101000a81548161ffff021916908361ffff160217905550506001600060149054906101000a900461ffff1661ffff168154811061067a576106796124aa565b5b906000526020600020906002020160010160009054906101000a900461ffff1661ffff1660018261ffff16815481106106b6576106b56124aa565b5b906000526020600020906002020160010160009054906101000a900461ffff1661ffff1611156106fe5780600060146101000a81548161ffff021916908361ffff1602179055505b8061ffff163373ffffffffffffffffffffffffffffffffffffffff167f2941e36a18e27644e8ea10bad396659ac866fd7a18a75015d088fc148e24d85460405160405180910390a350565b610751611c5c565b600360003373ffffffffffffffffffffffffffffffffffffffff1673ffffffffffffffffffffffffffffffffffffffff16815260200190815260200160002060000160009054906101000a900460ff166107e0576040517f08c379a00000000000000000000000000000000000000000000000000000000081526004016107d790612320565b60405180910390fd5b600360008373ffffffffffffffffffffffffffffffffffffffff1673ffffffffffffffffffffffffffffffffffffffff16815260200190815260200160002060000160009054906101000a900460ff1661086f576040517f08c379a00000000000000000000000000000000000000000000000000000000081526004016108669061257e565b60405180910390fd5b600360008373ffffffffffffffffffffffffffffffffffffffff1673ffffffffffffffffffffffffffffffffffffffff16815260200190815260200160002060000160019054906101000a900460ff166108fe576040517f08c379a00000000000000000000000000000000000000000000000000000000081526004016108f5906125ea565b60405180910390fd5b6001600360008473ffffffffffffffffffffffffffffffffffffffff1673ffffffffffffffffffffffffffffffffffffffff16815260200190815260200160002060000160029054906101000a900461ffff1661ffff1681548110610966576109656124aa565b5b906000526020600020906002020160405180604001604052908160008201805461098f90612639565b80601f01602080910402602001604051908101604052809291908181526020018280546109bb90612639565b8015610a085780601f106109dd57610100808354040283529160200191610a08565b820191906000526020600020905b8154815290600101906020018083116109eb57829003601f168201915b505050505081526020016001820160009054906101000a900461ffff1661ffff1661ffff16815250509050919050565b610a40611a89565b600580811115610a5357610a52612170565b5b6000601a9054906101000a900460ff166005811115610a7557610a74612170565b5b14610ab5576040517f08c379a0000000000000000000000000000000000000000000000000000000008152600401610aac906126dc565b60405180910390fd5b60008060146101000a81548161ffff021916908361ffff1602179055600060186101000a81548161ffff021916908361ffff1602179055600060166101000a81548161ffff021916908361ffff16021790555060005b6002805490508161ffff161015610c7d576004600060028361ffff1681548110610b3857610b376124aa565b5b9060005260206000200160009054906101000a900473ffffffffffffffffffffffffffffffffffffffff1673ffffffffffffffffffffffffffffffffffffffff1673ffffffffffffffffffffffffffffffffffffffff1681526020019081526020016000206000610ba99190611c7a565b6003600060028361ffff1681548110610bc557610bc46124aa565b5b9060005260206000200160009054906101000a900473ffffffffffffffffffffffffffffffffffffffff1673ffffffffffffffffffffffffffffffffffffffff1673ffffffffffffffffffffffffffffffffffffffff168152602001908152602001600020600080820160006101000a81549060ff02191690556000820160016101000a81549060ff02191690556000820160026101000a81549061ffff021916905550508080610c7590612508565b915050610b0b565b5060016000610c8c9190611c9b565b60026000610c9a9190611cbf565b610ca46000611b07565b565b600360003373ffffffffffffffffffffffffffffffffffffffff1673ffffffffffffffffffffffffffffffffffffffff16815260200190815260200160002060000160009054906101000a900460ff16610d35576040517f08c379a0000000000000000000000000000000000000000000000000000000008152600401610d2c90612320565b60405180910390fd5b60016005811115610d4957610d48612170565b5b6000601a9054906101000a900460ff166005811115610d6b57610d6a612170565b5b14610dab576040517f08c379a0000000000000000000000000000000000000000000000000000000008152600401610da290612222565b60405180910390fd5b60008282905011610df1576040517f08c379a0000000000000000000000000000000000000000000000000000000008152600401610de890612748565b60405180910390fd5b6001604051806040016040528084848080601f016020809104026020016040519081016040528093929190818152602001838380828437600081840152601f19601f820116905080830192505050505050508152602001600061ffff1681525090806001815401808255809150506001900390600052602060002090600202016000909190919091506000820151816000019081610e8f919061294d565b5060208201518160010160006101000a81548161ffff021916908361ffff1602179055505050600060018080549050610ec89190612a1f565b9050600460003373ffffffffffffffffffffffffffffffffffffffff1673ffffffffffffffffffffffffffffffffffffffff16815260200190815260200160002081908060018154018082558091505060019003906000526020600020016000909161ffff169091909150558061ffff167f3a4c611b68899d706a17379718e0e71bc4fbd91ba8e193b04e9876719d2d860360405160405180910390a2505050565b6060600360003373ffffffffffffffffffffffffffffffffffffffff1673ffffffffffffffffffffffffffffffffffffffff16815260200190815260200160002060000160009054906101000a900460ff16610ffb576040517f08c379a0000000000000000000000000000000000000000000000000000000008152600401610ff290612320565b60405180910390fd5b600360008373ffffffffffffffffffffffffffffffffffffffff1673ffffffffffffffffffffffffffffffffffffffff16815260200190815260200160002060000160009054906101000a900460ff1661108a576040517f08c379a00000000000000000000000000000000000000000000000000000000081526004016110819061257e565b60405180910390fd5b6000600460008473ffffffffffffffffffffffffffffffffffffffff1673ffffffffffffffffffffffffffffffffffffffff16815260200190815260200160002080548060200260200160405190810160405280929190818152602001828054801561111557602002820191906000526020600020905b815481526020019060010190808311611101575b505050505090506000815167ffffffffffffffff81111561113957611138612768565b5b60405190808252806020026020018201604052801561117257816020015b61115f611c5c565b8152602001906001900390816111575790505b50905060005b82518161ffff1610156112b7576001838261ffff168151811061119e5761119d6124aa565b5b6020026020010151815481106111b7576111b66124aa565b5b90600052602060002090600202016040518060400160405290816000820180546111e090612639565b80601f016020809104026020016040519081016040528092919081815260200182805461120c90612639565b80156112595780601f1061122e57610100808354040283529160200191611259565b820191906000526020600020905b81548152906001019060200180831161123c57829003601f168201915b505050505081526020016001820160009054906101000a900461ffff1661ffff1661ffff1681525050828261ffff1681518110611299576112986124aa565b5b602002602001018190525080806112af90612508565b915050611178565b508092505050919050565b6112ca611a89565b6112d46000611b90565b565b6112de611a89565b600060058111156112f2576112f1612170565b5b6000601a9054906101000a900460ff16600581111561131457611313612170565b5b14611354576040517f08c379a000000000000000000000000000000000000000000000000000000000815260040161134b90612ac5565b60405180910390fd5b6001600060189054906101000a900461ffff1661ffff16116113ab576040517f08c379a00000000000000000000000000000000000000000000000000000000081526004016113a290612b57565b60405180910390fd5b6113b56001611b07565b565b60008060009054906101000a900473ffffffffffffffffffffffffffffffffffffffff16905090565b6113e8611c5c565b6005808111156113fb576113fa612170565b5b6000601a9054906101000a900460ff16600581111561141d5761141c612170565b5b1461145d576040517f08c379a000000000000000000000000000000000000000000000000000000000815260040161145490612bc3565b60405180910390fd5b6001600060149054906101000a900461ffff1661ffff1681548110611485576114846124aa565b5b90600052602060002090600202016040518060400160405290816000820180546114ae90612639565b80601f01602080910402602001604051908101604052809291908181526020018280546114da90612639565b80156115275780601f106114fc57610100808354040283529160200191611527565b820191906000526020600020905b81548152906001019060200180831161150a57829003601f168201915b505050505081526020016001820160009054906101000a900461ffff1661ffff1661ffff1681525050905090565b61155d611a89565b6000600581111561157157611570612170565b5b6000601a9054906101000a900460ff16600581111561159357611592612170565b5b146115d3576040517f08c379a00000000000000000000000000000000000000000000000000000000081526004016115ca90612ac5565b60405180910390fd5b600360008273ffffffffffffffffffffffffffffffffffffffff1673ffffffffffffffffffffffffffffffffffffffff16815260200190815260200160002060000160009054906101000a900460ff1615611663576040517f08c379a000000000000000000000000000000000000000000000000000000000815260040161165a90612c2f565b60405180910390fd5b6002819080600181540180825580915050600190039060005260206000200160009091909190916101000a81548173ffffffffffffffffffffffffffffffffffffffff021916908373ffffffffffffffffffffffffffffffffffffffff1602179055506040518060600160405280600115158152602001600015158152602001600061ffff16815250600360008373ffffffffffffffffffffffffffffffffffffffff1673ffffffffffffffffffffffffffffffffffffffff16815260200190815260200160002060008201518160000160006101000a81548160ff02191690831515021790555060208201518160000160016101000a81548160ff02191690831515021790555060408201518160000160026101000a81548161ffff021916908361ffff1602179055509050506000601881819054906101000a900461ffff16809291906117b190612508565b91906101000a81548161ffff021916908361ffff160217905550508073ffffffffffffffffffffffffffffffffffffffff167fb6be2187d059cc2a55fe29e0e503b566e1e0f8c8780096e185429350acffd3dd60405160405180910390a250565b61181a611a89565b6002600581111561182e5761182d612170565b5b6000601a9054906101000a900460ff1660058111156118505761184f612170565b5b14611890576040517f08c379a000000000000000000000000000000000000000000000000000000000815260040161188790612cc1565b60405180910390fd5b61189a6003611b07565b565b6118a4611a89565b600360058111156118b8576118b7612170565b5b6000601a9054906101000a900460ff1660058111156118da576118d9612170565b5b1461191a576040517f08c379a0000000000000000000000000000000000000000000000000000000008152600401611911906123b2565b60405180910390fd5b60008060169054906101000a900461ffff1661ffff1611611970576040517f08c379a000000000000000000000000000000000000000000000000000000000815260040161196790612d53565b60405180910390fd5b61197a6004611b07565b565b611984611a89565b6004600581111561199857611997612170565b5b6000601a9054906101000a900460ff1660058111156119ba576119b9612170565b5b146119fa576040517f08c379a00000000000000000000000000000000000000000000000000000000081526004016119f190612de5565b60405180910390fd5b611a046005611b07565b565b611a0e611a89565b600073ffffffffffffffffffffffffffffffffffffffff168173ffffffffffffffffffffffffffffffffffffffff1603611a7d576040517f08c379a0000000000000000000000000000000000000000000000000000000008152600401611a7490612e77565b60405180910390fd5b611a8681611b90565b50565b611a91611c54565b73ffffffffffffffffffffffffffffffffffffffff16611aaf6113b7565b73ffffffffffffffffffffffffffffffffffffffff1614611b05576040517f08c379a0000000000000000000000000000000000000000000000000000000008152600401611afc90612ee3565b60405180910390fd5b565b600080601a9054906101000a900460ff169050816000601a6101000a81548160ff02191690836005811115611b3f57611b3e612170565b5b02179055507f0a97a4ee45751e2abf3e4fc8946939630b11b371ea8ae39ccdc3056e98f5cc3f816000601a9054906101000a900460ff16604051611b84929190612f4b565b60405180910390a15050565b60008060009054906101000a900473ffffffffffffffffffffffffffffffffffffffff169050816000806101000a81548173ffffffffffffffffffffffffffffffffffffffff021916908373ffffffffffffffffffffffffffffffffffffffff1602179055508173ffffffffffffffffffffffffffffffffffffffff168173ffffffffffffffffffffffffffffffffffffffff167f8be0079c531659141344cd1fd0a4f28419497f9722a3daafe3b4186f6b6457e060405160405180910390a35050565b600033905090565b604051806040016040528060608152602001600061ffff1681525090565b5080546000825590600052602060002090810190611c989190611ce0565b50565b5080546000825560020290600052602060002090810190611cbc9190611cfd565b50565b5080546000825590600052602060002090810190611cdd9190611ce0565b50565b5b80821115611cf9576000816000905550600101611ce1565b5090565b5b80821115611d355760008082016000611d179190611d39565b6001820160006101000a81549061ffff021916905550600201611cfe565b5090565b508054611d4590612639565b6000825580601f10611d575750611d76565b601f016020900490600052602060002090810190611d759190611ce0565b5b50565b600080fd5b600080fd5b600061ffff82169050919050565b611d9a81611d83565b8114611da557600080fd5b50565b600081359050611db781611d91565b92915050565b600060208284031215611dd357611dd2611d79565b5b6000611de184828501611da8565b91505092915050565b600073ffffffffffffffffffffffffffffffffffffffff82169050919050565b6000611e1582611dea565b9050919050565b611e2581611e0a565b8114611e3057600080fd5b50565b600081359050611e4281611e1c565b92915050565b600060208284031215611e5e57611e5d611d79565b5b6000611e6c84828501611e33565b91505092915050565b600081519050919050565b600082825260208201905092915050565b60005b83811015611eaf578082015181840152602081019050611e94565b60008484015250505050565b6000601f19601f8301169050919050565b6000611ed782611e75565b611ee18185611e80565b9350611ef1818560208601611e91565b611efa81611ebb565b840191505092915050565b611f0e81611d83565b82525050565b60006040830160008301518482036000860152611f318282611ecc565b9150506020830151611f466020860182611f05565b508091505092915050565b60006020820190508181036000830152611f6b8184611f14565b905092915050565b600080fd5b600080fd5b600080fd5b60008083601f840112611f9857611f97611f73565b5b8235905067ffffffffffffffff811115611fb557611fb4611f78565b5b602083019150836001820283011115611fd157611fd0611f7d565b5b9250929050565b60008060208385031215611fef57611fee611d79565b5b600083013567ffffffffffffffff81111561200d5761200c611d7e565b5b61201985828601611f82565b92509250509250929050565b600081519050919050565b600082825260208201905092915050565b6000819050602082019050919050565b6000604083016000830151848203600086015261206e8282611ecc565b91505060208301516120836020860182611f05565b508091505092915050565b600061209a8383612051565b905092915050565b6000602082019050919050565b60006120ba82612025565b6120c48185612030565b9350836020820285016120d685612041565b8060005b8581101561211257848403895281516120f3858261208e565b94506120fe836120a2565b925060208a019950506001810190506120da565b50829750879550505050505092915050565b6000602082019050818103600083015261213e81846120af565b905092915050565b61214f81611e0a565b82525050565b600060208201905061216a6000830184612146565b92915050565b7f4e487b7100000000000000000000000000000000000000000000000000000000600052602160045260246000fd5b600082825260208201905092915050565b7f5468652070726f706f73616c20726567697374726174696f6e206973206e6f7460008201527f2073746172746564207965742e00000000000000000000000000000000000000602082015250565b600061220c602d8361219f565b9150612217826121b0565b604082019050919050565b6000602082019050818103600083015261223b816121ff565b9050919050565b7f4e656564206174206c656173742074776f2070726f706f73616c7320746f207360008201527f746f7020612070726f706f73616c2073657373696f6e2e000000000000000000602082015250565b600061229e60378361219f565b91506122a982612242565b604082019050919050565b600060208201905081810360008301526122cd81612291565b9050919050565b7f596f75206d757374206265207265676973746572656420646f20746869732e00600082015250565b600061230a601f8361219f565b9150612315826122d4565b602082019050919050565b60006020820190508181036000830152612339816122fd565b9050919050565b7f54686520766f74696e672073657373696f6e206973206e6f742073746172746560008201527f64207965742e0000000000000000000000000000000000000000000000000000602082015250565b600061239c60268361219f565b91506123a782612340565b604082019050919050565b600060208201905081810360008301526123cb8161238f565b9050919050565b7f596f7520616c726561647920766f7465642e0000000000000000000000000000600082015250565b600061240860128361219f565b9150612413826123d2565b602082019050919050565b60006020820190508181036000830152612437816123fb565b9050919050565b7f546869732070726f706f73616c20646f6573206e6f74206578697374732e0000600082015250565b6000612474601e8361219f565b915061247f8261243e565b602082019050919050565b600060208201905081810360008301526124a381612467565b9050919050565b7f4e487b7100000000000000000000000000000000000000000000000000000000600052603260045260246000fd5b7f4e487b7100000000000000000000000000000000000000000000000000000000600052601160045260246000fd5b600061251382611d83565b915061ffff8203612527576125266124d9565b5b600182019050919050565b7f54686520766f746572206973206e6f7420726567697374657265642e00000000600082015250565b6000612568601c8361219f565b915061257382612532565b602082019050919050565b600060208201905081810360008301526125978161255b565b9050919050565b7f54686520766f74657220686173206e6f7420766f746564207965742e00000000600082015250565b60006125d4601c8361219f565b91506125df8261259e565b602082019050919050565b60006020820190508181036000830152612603816125c7565b9050919050565b7f4e487b7100000000000000000000000000000000000000000000000000000000600052602260045260246000fd5b6000600282049050600182168061265157607f821691505b6020821081036126645761266361260a565b5b50919050565b7f5468652070726576696f75732073657373696f6e206973206e6f74206f76657260008201527f207965742e000000000000000000000000000000000000000000000000000000602082015250565b60006126c660258361219f565b91506126d18261266a565b604082019050919050565b600060208201905081810360008301526126f5816126b9565b9050919050565b7f5468652070726f706f73616c2063616e6e6f7420626520656d7074792e000000600082015250565b6000612732601d8361219f565b915061273d826126fc565b602082019050919050565b6000602082019050818103600083015261276181612725565b9050919050565b7f4e487b7100000000000000000000000000000000000000000000000000000000600052604160045260246000fd5b60008190508160005260206000209050919050565b60006020601f8301049050919050565b600082821b905092915050565b6000600883026127f97fffffffffffffffffffffffffffffffffffffffffffffffffffffffffffffffff826127bc565b61280386836127bc565b95508019841693508086168417925050509392505050565b6000819050919050565b6000819050919050565b600061284a6128456128408461281b565b612825565b61281b565b9050919050565b6000819050919050565b6128648361282f565b61287861287082612851565b8484546127c9565b825550505050565b600090565b61288d612880565b61289881848461285b565b505050565b5b818110156128bc576128b1600082612885565b60018101905061289e565b5050565b601f821115612901576128d281612797565b6128db846127ac565b810160208510156128ea578190505b6128fe6128f6856127ac565b83018261289d565b50505b505050565b600082821c905092915050565b600061292460001984600802612906565b1980831691505092915050565b600061293d8383612913565b9150826002028217905092915050565b61295682611e75565b67ffffffffffffffff81111561296f5761296e612768565b5b6129798254612639565b6129848282856128c0565b600060209050601f8311600181146129b757600084156129a5578287015190505b6129af8582612931565b865550612a17565b601f1984166129c586612797565b60005b828110156129ed578489015182556001820191506020850194506020810190506129c8565b86831015612a0a5784890151612a06601f891682612913565b8355505b6001600288020188555050505b505050505050565b6000612a2a8261281b565b9150612a358361281b565b9250828203905081811115612a4d57612a4c6124d9565b5b92915050565b7f546865207265676973746572696e6720766f74657273206973206e6f74206f7060008201527f656e6564207965742e0000000000000000000000000000000000000000000000602082015250565b6000612aaf60298361219f565b9150612aba82612a53565b604082019050919050565b60006020820190508181036000830152612ade81612aa2565b9050919050565b7f4e656564206174206c656173742074776f207265676973746572656420766f7460008201527f65727320746f20737461727420612070726f706f73616c2073657373696f6e2e602082015250565b6000612b4160408361219f565b9150612b4c82612ae5565b604082019050919050565b60006020820190508181036000830152612b7081612b34565b9050919050565b7f54686520766f746520636f756e74206973206e6f74206f766572207965742e00600082015250565b6000612bad601f8361219f565b9150612bb882612b77565b602082019050919050565b60006020820190508181036000830152612bdc81612ba0565b9050919050565b7f54686520766f74657220697320616c726561647920726567697374657265642e600082015250565b6000612c1960208361219f565b9150612c2482612be3565b602082019050919050565b60006020820190508181036000830152612c4881612c0c565b9050919050565b7f5468652070726f706f73616c20726567697374726174696f6e206973206e6f7460008201527f20656e646564207965742e000000000000000000000000000000000000000000602082015250565b6000612cab602b8361219f565b9150612cb682612c4f565b604082019050919050565b60006020820190508181036000830152612cda81612c9e565b9050919050565b7f4e656564206174206c65617374206f6e6520766f746520696e20612070726f7060008201527f726f73616c20746f2073746f70206120766f74696e672073657373696f6e2e00602082015250565b6000612d3d603f8361219f565b9150612d4882612ce1565b604082019050919050565b60006020820190508181036000830152612d6c81612d30565b9050919050565b7f54686520766f74696e672073657373696f6e206973206e6f7420656e6465642060008201527f7965742e00000000000000000000000000000000000000000000000000000000602082015250565b6000612dcf60248361219f565b9150612dda82612d73565b604082019050919050565b60006020820190508181036000830152612dfe81612dc2565b9050919050565b7f4f776e61626c653a206e6577206f776e657220697320746865207a65726f206160008201527f6464726573730000000000000000000000000000000000000000000000000000602082015250565b6000612e6160268361219f565b9150612e6c82612e05565b604082019050919050565b60006020820190508181036000830152612e9081612e54565b9050919050565b7f4f776e61626c653a2063616c6c6572206973206e6f7420746865206f776e6572600082015250565b6000612ecd60208361219f565b9150612ed882612e97565b602082019050919050565b60006020820190508181036000830152612efc81612ec0565b9050919050565b60068110612f1457612f13612170565b5b50565b6000819050612f2582612f03565b919050565b6000612f3582612f17565b9050919050565b612f4581612f2a565b82525050565b6000604082019050612f606000830185612f3c565b612f6d6020830184612f3c565b939250505056fea2646970667358221220861d29d4a0f276d4aa235313a45f55c92f9060b9948ab819e27ccadee73fd6ef64736f6c63430008120033",
  "immutableReferences": {},
  "source": "// SPDX-License-Identifier: MIT\r\npragma solidity 0.8.18;\r\n\r\nimport \"@openzeppelin/contracts/access/Ownable.sol\";\r\n\r\n/**\r\n * This is an upgrade of the voting-system.\r\n * Improvements:\r\n * - Admin can restart a new session after the count is over. He needs to register again voter addresses.\r\n * - The first proposal to have more votes is now the winner in case of tie. The winning proposal is calculated dynamically when users votes.\r\n */\r\ncontract VotingV2 is Ownable {\r\n    uint16 private winningProposalId;\r\n    uint16 private votesCount;\r\n    uint16 private voterRegisteredCount;\r\n    WorkflowStatus private currentVotingSession;\r\n    Proposal[] private voterProposals;\r\n    address[] private voterAddresses;\r\n\r\n    mapping(address => Voter) private voters;\r\n    mapping(address => uint256[]) private voterProposalIds;\r\n\r\n    event VoterRegistered(address indexed voterAddress);\r\n    event WorkflowStatusChange(\r\n        WorkflowStatus previousStatus,\r\n        WorkflowStatus newStatus\r\n    );\r\n    event ProposalRegistered(uint16 indexed proposalId);\r\n    event Voted(address indexed voter, uint16 indexed proposalId);\r\n\r\n    enum WorkflowStatus {\r\n        RegisteringVoters,\r\n        ProposalsRegistrationStarted,\r\n        ProposalsRegistrationEnded,\r\n        VotingSessionStarted,\r\n        VotingSessionEnded,\r\n        VotesTallied\r\n    }\r\n\r\n    struct Voter {\r\n        bool isRegistered;\r\n        bool hasVoted;\r\n        uint16 votedProposalId;\r\n    }\r\n\r\n    struct Proposal {\r\n        string description;\r\n        uint16 voteCount;\r\n    }\r\n\r\n    modifier onlyRegistered() {\r\n        require(\r\n            voters[msg.sender].isRegistered,\r\n            \"You must be registered do this.\"\r\n        );\r\n        _;\r\n    }\r\n\r\n    /**\r\n     * @dev Change the current status and generate an event with the previous and the new status.\r\n     */\r\n    function _changeWorkflowStatus(WorkflowStatus newStatus) private {\r\n        WorkflowStatus previousStatus = currentVotingSession;\r\n        currentVotingSession = newStatus;\r\n\r\n        emit WorkflowStatusChange(previousStatus, currentVotingSession);\r\n    }\r\n\r\n    function _restartSession() external onlyOwner {\r\n        require(\r\n            currentVotingSession == WorkflowStatus.VotesTallied,\r\n            \"The previous session is not over yet.\"\r\n        );\r\n\r\n        votesCount = voterRegisteredCount = winningProposalId = 0;\r\n\r\n        for (uint16 i; i < voterAddresses.length; i++) {\r\n            delete voterProposalIds[voterAddresses[i]];\r\n            delete voters[voterAddresses[i]];\r\n        }\r\n\r\n        delete voterProposals;\r\n        delete voterAddresses;\r\n\r\n        _changeWorkflowStatus(WorkflowStatus.RegisteringVoters);\r\n    }\r\n\r\n    /**\r\n     * @dev Allows only the adminstrator to add a new voter if the voter registration is started.\r\n     */\r\n    function adminAddRegistered(address _addrVoter) external onlyOwner {\r\n        require(\r\n            currentVotingSession == WorkflowStatus.RegisteringVoters,\r\n            \"The registering voters is not opened yet.\"\r\n        );\r\n        require(\r\n            !voters[_addrVoter].isRegistered,\r\n            \"The voter is already registered.\"\r\n        );\r\n\r\n        voterAddresses.push(_addrVoter);\r\n        voters[_addrVoter] = Voter(true, false, 0);\r\n        voterRegisteredCount++;\r\n\r\n        emit VoterRegistered(_addrVoter);\r\n    }\r\n\r\n    /**\r\n     * @dev Allows only the administrator to start the proposal session if the voter registration is started\r\n     *      and there is at least 2 registered voters.\r\n     */\r\n    function adminStartProposalsSession() external onlyOwner {\r\n        require(\r\n            currentVotingSession == WorkflowStatus.RegisteringVoters,\r\n            \"The registering voters is not opened yet.\"\r\n        );\r\n        require(\r\n            voterRegisteredCount > 1,\r\n            \"Need at least two registered voters to start a proposal session.\"\r\n        );\r\n\r\n        _changeWorkflowStatus(WorkflowStatus.ProposalsRegistrationStarted);\r\n    }\r\n\r\n    /**\r\n     * @dev Allows only the administrator to stop the proposal session if the proposal registration is started\r\n     *      and there is at least 2 proposals.\r\n     */\r\n    function adminStopProposalsSession() external onlyOwner {\r\n        require(\r\n            currentVotingSession == WorkflowStatus.ProposalsRegistrationStarted,\r\n            \"The proposal registration is not started yet.\"\r\n        );\r\n        require(\r\n            voterProposals.length > 1,\r\n            \"Need at least two proposals to stop a proposal session.\"\r\n        );\r\n\r\n        _changeWorkflowStatus(WorkflowStatus.ProposalsRegistrationEnded);\r\n    }\r\n\r\n    /**\r\n     * @dev Allows only the administrator to start the voting session if the proposal registration is started.\r\n     */\r\n    function adminStartVotingSession() external onlyOwner {\r\n        require(\r\n            currentVotingSession == WorkflowStatus.ProposalsRegistrationEnded,\r\n            \"The proposal registration is not ended yet.\"\r\n        );\r\n\r\n        _changeWorkflowStatus(WorkflowStatus.VotingSessionStarted);\r\n    }\r\n\r\n    /**\r\n     * @dev Allows only the administrator to stop the voting session if the voting session is started\r\n     *      and there is at least one vote in a proposal.\r\n     */\r\n    function adminStopVotingSession() external onlyOwner {\r\n        require(\r\n            currentVotingSession == WorkflowStatus.VotingSessionStarted,\r\n            \"The voting session is not started yet.\"\r\n        );\r\n        require(\r\n            votesCount > 0,\r\n            \"Need at least one vote in a proprosal to stop a voting session.\"\r\n        );\r\n\r\n        _changeWorkflowStatus(WorkflowStatus.VotingSessionEnded);\r\n    }\r\n\r\n    /**\r\n     * @dev There is nothing special to do here because now the winner is calculated dynamically when users vote,\r\n     *      it determines which proposal gets the most votes first, it's fairer than on the voting system V1\r\n     */\r\n    function adminTallyVotes() external onlyOwner {\r\n        require(\r\n            currentVotingSession == WorkflowStatus.VotingSessionEnded,\r\n            \"The voting session is not ended yet.\"\r\n        );\r\n        _changeWorkflowStatus(WorkflowStatus.VotesTallied);\r\n    }\r\n\r\n    /**\r\n     * @dev Allows only a registered voter to add a proposal if the proposal registration is started\r\n     *      and the description is not empty.\r\n     */\r\n    function voterAddProposal(string calldata _description)\r\n        external\r\n        onlyRegistered\r\n    {\r\n        require(\r\n            currentVotingSession == WorkflowStatus.ProposalsRegistrationStarted,\r\n            \"The proposal registration is not started yet.\"\r\n        );\r\n        require(\r\n            bytes(_description).length > 0,\r\n            \"The proposal cannot be empty.\"\r\n        );\r\n\r\n        voterProposals.push(Proposal(_description, 0));\r\n        uint16 proposalId = uint16(voterProposals.length - 1);\r\n        voterProposalIds[msg.sender].push(proposalId);\r\n\r\n        emit ProposalRegistered(proposalId);\r\n    }\r\n\r\n    /**\r\n     * @dev Allows only a registered voter to vote if the voting session is started\r\n     *      and the user has not voted yet and the proposal id exists.\r\n     *      If the proposals has more votes than the current winning proposal, it becomes the winning proposal\r\n     */\r\n    function voterAddVote(uint16 _proposalId) external onlyRegistered {\r\n        require(\r\n            currentVotingSession == WorkflowStatus.VotingSessionStarted,\r\n            \"The voting session is not started yet.\"\r\n        );\r\n        require(!voters[msg.sender].hasVoted, \"You already voted.\");\r\n        require(\r\n            _proposalId < voterProposals.length,\r\n            \"This proposal does not exists.\"\r\n        );\r\n\r\n        voters[msg.sender].votedProposalId = _proposalId;\r\n        voters[msg.sender].hasVoted = true;\r\n        voterProposals[_proposalId].voteCount++;\r\n        votesCount++;\r\n\r\n        if (\r\n            voterProposals[_proposalId].voteCount >\r\n            voterProposals[winningProposalId].voteCount\r\n        ) {\r\n            winningProposalId = _proposalId;\r\n        }\r\n\r\n        emit Voted(msg.sender, _proposalId);\r\n    }\r\n\r\n    /**\r\n     * @dev Allows everybody to check the winner if the vote count is over.\r\n     * @return The winning proposal\r\n     */\r\n    function getWinner() external view returns (Proposal memory) {\r\n        require(\r\n            currentVotingSession == WorkflowStatus.VotesTallied,\r\n            \"The vote count is not over yet.\"\r\n        );\r\n\r\n        return voterProposals[winningProposalId];\r\n    }\r\n\r\n    /**\r\n     * @dev Allows only a registered voter to check all the proposals of a registered voter.\r\n     * @return The winning proposal\r\n     */\r\n    function getVoterProposals(address _addr)\r\n        external\r\n        view\r\n        onlyRegistered\r\n        returns (Proposal[] memory)\r\n    {\r\n        require(voters[_addr].isRegistered, \"The voter is not registered.\");\r\n\r\n        uint256[] memory addrVoterProposalIds = voterProposalIds[_addr];\r\n        Proposal[] memory addrVoterProposals = new Proposal[](\r\n            addrVoterProposalIds.length\r\n        );\r\n        for (uint16 i = 0; i < addrVoterProposalIds.length; i++) {\r\n            addrVoterProposals[i] = voterProposals[addrVoterProposalIds[i]];\r\n        }\r\n\r\n        return (addrVoterProposals);\r\n    }\r\n\r\n    /**\r\n     * @dev Allows only a registered voter to check for which proposal a registered voter has voted.\r\n     * @return The proposal for which the voter voted\r\n     */\r\n    function getVoterVote(address _addr)\r\n        external\r\n        view\r\n        onlyRegistered\r\n        returns (Proposal memory)\r\n    {\r\n        require(voters[_addr].isRegistered, \"The voter is not registered.\");\r\n        require(voters[_addr].hasVoted, \"The voter has not voted yet.\");\r\n\r\n        return voterProposals[voters[_addr].votedProposalId];\r\n    }\r\n}\r\n",
  "sourcePath": "C:\\Users\\Alex\\Documents\\Travail\\Alyra\\Alyra-Solidity\\contracts\\voting-systemV2\\votingV2.sol",
  "compiler": {
    "name": "solc",
    "version": "0.8.18+commit.87f61d96.Emscripten.clang"
  },
  "schemaVersion": "3.4.7",
  "updatedAt": "2023-02-18T20:52:10.878Z",
  "devdoc": {
    "kind": "dev",
    "methods": {
      "adminAddRegistered(address)": {
        "details": "Allows only the adminstrator to add a new voter if the voter registration is started."
      },
      "adminStartProposalsSession()": {
        "details": "Allows only the administrator to start the proposal session if the voter registration is started      and there is at least 2 registered voters."
      },
      "adminStartVotingSession()": {
        "details": "Allows only the administrator to start the voting session if the proposal registration is started."
      },
      "adminStopProposalsSession()": {
        "details": "Allows only the administrator to stop the proposal session if the proposal registration is started      and there is at least 2 proposals."
      },
      "adminStopVotingSession()": {
        "details": "Allows only the administrator to stop the voting session if the voting session is started      and there is at least one vote in a proposal."
      },
      "adminTallyVotes()": {
        "details": "There is nothing special to do here because now the winner is calculated dynamically when users vote,      it determines which proposal gets the most votes first, it's fairer than on the voting system V1"
      },
      "getVoterProposals(address)": {
        "details": "Allows only a registered voter to check all the proposals of a registered voter.",
        "returns": {
          "_0": "The winning proposal"
        }
      },
      "getVoterVote(address)": {
        "details": "Allows only a registered voter to check for which proposal a registered voter has voted.",
        "returns": {
          "_0": "The proposal for which the voter voted"
        }
      },
      "getWinner()": {
        "details": "Allows everybody to check the winner if the vote count is over.",
        "returns": {
          "_0": "The winning proposal"
        }
      },
      "owner()": {
        "details": "Returns the address of the current owner."
      },
      "renounceOwnership()": {
        "details": "Leaves the contract without owner. It will not be possible to call `onlyOwner` functions anymore. Can only be called by the current owner. NOTE: Renouncing ownership will leave the contract without an owner, thereby removing any functionality that is only available to the owner."
      },
      "transferOwnership(address)": {
        "details": "Transfers ownership of the contract to a new account (`newOwner`). Can only be called by the current owner."
      },
      "voterAddProposal(string)": {
        "details": "Allows only a registered voter to add a proposal if the proposal registration is started      and the description is not empty."
      },
      "voterAddVote(uint16)": {
        "details": "Allows only a registered voter to vote if the voting session is started      and the user has not voted yet and the proposal id exists.      If the proposals has more votes than the current winning proposal, it becomes the winning proposal"
      }
    },
    "version": 1
  },
  "userdoc": {
    "kind": "user",
    "methods": {},
    "notice": "This is an upgrade of the voting-system. Improvements: - Admin can restart a new session after the count is over. He needs to register again voter addresses. - The first proposal to have more votes is now the winner in case of tie. The winning proposal is calculated dynamically when users votes.",
    "version": 1
  }
}