{
  "contractName": "Voting",
  "abi": [
    {
      "anonymous": false,
      "inputs": [
        {
          "indexed": true,
          "internalType": "address",
          "name": "previousOwner",
          "type": "address"
        },
        {
          "indexed": true,
          "internalType": "address",
          "name": "newOwner",
          "type": "address"
        }
      ],
      "name": "OwnershipTransferred",
      "type": "event"
    },
    {
      "anonymous": false,
      "inputs": [
        {
          "indexed": true,
          "internalType": "uint16",
          "name": "proposalId",
          "type": "uint16"
        }
      ],
      "name": "ProposalRegistered",
      "type": "event"
    },
    {
      "anonymous": false,
      "inputs": [
        {
          "indexed": true,
          "internalType": "address",
          "name": "voter",
          "type": "address"
        },
        {
          "indexed": true,
          "internalType": "uint16",
          "name": "proposalId",
          "type": "uint16"
        }
      ],
      "name": "Voted",
      "type": "event"
    },
    {
      "anonymous": false,
      "inputs": [
        {
          "indexed": true,
          "internalType": "address",
          "name": "voterAddress",
          "type": "address"
        }
      ],
      "name": "VoterRegistered",
      "type": "event"
    },
    {
      "anonymous": false,
      "inputs": [
        {
          "indexed": false,
          "internalType": "enum Voting.WorkflowStatus",
          "name": "previousStatus",
          "type": "uint8"
        },
        {
          "indexed": false,
          "internalType": "enum Voting.WorkflowStatus",
          "name": "newStatus",
          "type": "uint8"
        }
      ],
      "name": "WorkflowStatusChange",
      "type": "event"
    },
    {
      "inputs": [],
      "name": "owner",
      "outputs": [
        {
          "internalType": "address",
          "name": "",
          "type": "address"
        }
      ],
      "stateMutability": "view",
      "type": "function"
    },
    {
      "inputs": [],
      "name": "renounceOwnership",
      "outputs": [],
      "stateMutability": "nonpayable",
      "type": "function"
    },
    {
      "inputs": [
        {
          "internalType": "address",
          "name": "newOwner",
          "type": "address"
        }
      ],
      "name": "transferOwnership",
      "outputs": [],
      "stateMutability": "nonpayable",
      "type": "function"
    },
    {
      "inputs": [
        {
          "internalType": "address",
          "name": "_addrVoter",
          "type": "address"
        }
      ],
      "name": "adminAddRegistered",
      "outputs": [],
      "stateMutability": "nonpayable",
      "type": "function"
    },
    {
      "inputs": [],
      "name": "adminStartProposalsSession",
      "outputs": [],
      "stateMutability": "nonpayable",
      "type": "function"
    },
    {
      "inputs": [],
      "name": "adminStopProposalsSession",
      "outputs": [],
      "stateMutability": "nonpayable",
      "type": "function"
    },
    {
      "inputs": [],
      "name": "adminStartVotingSession",
      "outputs": [],
      "stateMutability": "nonpayable",
      "type": "function"
    },
    {
      "inputs": [],
      "name": "adminStopVotingSession",
      "outputs": [],
      "stateMutability": "nonpayable",
      "type": "function"
    },
    {
      "inputs": [],
      "name": "adminTallyVotes",
      "outputs": [],
      "stateMutability": "nonpayable",
      "type": "function"
    },
    {
      "inputs": [
        {
          "internalType": "string",
          "name": "_description",
          "type": "string"
        }
      ],
      "name": "voterAddProposal",
      "outputs": [],
      "stateMutability": "nonpayable",
      "type": "function"
    },
    {
      "inputs": [
        {
          "internalType": "uint16",
          "name": "_proposalId",
          "type": "uint16"
        }
      ],
      "name": "voterAddVote",
      "outputs": [],
      "stateMutability": "nonpayable",
      "type": "function"
    },
    {
      "inputs": [],
      "name": "getWinner",
      "outputs": [
        {
          "components": [
            {
              "internalType": "string",
              "name": "description",
              "type": "string"
            },
            {
              "internalType": "uint16",
              "name": "voteCount",
              "type": "uint16"
            }
          ],
          "internalType": "struct Voting.Proposal",
          "name": "",
          "type": "tuple"
        }
      ],
      "stateMutability": "view",
      "type": "function"
    },
    {
      "inputs": [
        {
          "internalType": "address",
          "name": "_addr",
          "type": "address"
        }
      ],
      "name": "getVoterProposals",
      "outputs": [
        {
          "components": [
            {
              "internalType": "string",
              "name": "description",
              "type": "string"
            },
            {
              "internalType": "uint16",
              "name": "voteCount",
              "type": "uint16"
            }
          ],
          "internalType": "struct Voting.Proposal[]",
          "name": "",
          "type": "tuple[]"
        }
      ],
      "stateMutability": "view",
      "type": "function"
    },
    {
      "inputs": [
        {
          "internalType": "address",
          "name": "_addr",
          "type": "address"
        }
      ],
      "name": "getVoterVote",
      "outputs": [
        {
          "components": [
            {
              "internalType": "string",
              "name": "description",
              "type": "string"
            },
            {
              "internalType": "uint16",
              "name": "voteCount",
              "type": "uint16"
            }
          ],
          "internalType": "struct Voting.Proposal",
          "name": "",
          "type": "tuple"
        }
      ],
      "stateMutability": "view",
      "type": "function"
    }
  ],
  "bytecode": "0x60806040523480156200001157600080fd5b5062000032620000266200003860201b60201c565b6200004060201b60201c565b62000104565b600033905090565b60008060009054906101000a900473ffffffffffffffffffffffffffffffffffffffff169050816000806101000a81548173ffffffffffffffffffffffffffffffffffffffff021916908373ffffffffffffffffffffffffffffffffffffffff1602179055508173ffffffffffffffffffffffffffffffffffffffff168173ffffffffffffffffffffffffffffffffffffffff167f8be0079c531659141344cd1fd0a4f28419497f9722a3daafe3b4186f6b6457e060405160405180910390a35050565b612b5b80620001146000396000f3fe608060405234801561001057600080fd5b50600436106100ea5760003560e01c80638da5cb5b1161008c578063cf278c7411610066578063cf278c74146101fd578063d133740314610207578063d83f235b14610211578063f2fde38b1461021b576100ea565b80638da5cb5b146101a55780638e7ea5b2146101c3578063c145e3d5146101e1576100ea565b80635f39ff21116100c85780635f39ff21146101455780636fbd32f614610161578063715018a6146101915780637669d79e1461019b576100ea565b806304456224146100ef57806323e9df47146100f95780635141e52014610115575b600080fd5b6100f7610237565b005b610113600480360381019061010e9190611a00565b610308565b005b61012f600480360381019061012a9190611a8b565b610688565b60405161013c9190611b94565b60405180910390f35b61015f600480360381019061015a9190611c1b565b610977565b005b61017b60048036038101906101769190611a8b565b610c3b565b6040516101889190611d67565b60405180910390f35b610199610f93565b005b6101a3610fa7565b005b6101ad611088565b6040516101ba9190611d98565b60405180910390f35b6101cb6110b1565b6040516101d89190611b94565b60405180910390f35b6101fb60048036038101906101f69190611a8b565b611226565b005b610205611480565b005b61020f61150a565b005b6102196115ea565b005b61023560048036038101906102309190611a8b565b611748565b005b61023f6117cb565b6001600581111561025357610252611db3565b5b6000601a9054906101000a900460ff16600581111561027557610274611db3565b5b146102b5576040517f08c379a00000000000000000000000000000000000000000000000000000000081526004016102ac90611e65565b60405180910390fd5b60018080549050116102fc576040517f08c379a00000000000000000000000000000000000000000000000000000000081526004016102f390611ef7565b60405180910390fd5b6103066002611849565b565b600260003373ffffffffffffffffffffffffffffffffffffffff1673ffffffffffffffffffffffffffffffffffffffff16815260200190815260200160002060000160009054906101000a900460ff16610397576040517f08c379a000000000000000000000000000000000000000000000000000000000815260040161038e90611f63565b60405180910390fd5b600360058111156103ab576103aa611db3565b5b6000601a9054906101000a900460ff1660058111156103cd576103cc611db3565b5b1461040d576040517f08c379a000000000000000000000000000000000000000000000000000000000815260040161040490611ff5565b60405180910390fd5b600260003373ffffffffffffffffffffffffffffffffffffffff1673ffffffffffffffffffffffffffffffffffffffff16815260200190815260200160002060000160019054906101000a900460ff161561049d576040517f08c379a000000000000000000000000000000000000000000000000000000000815260040161049490612061565b60405180910390fd5b6001805490508161ffff16106104e8576040517f08c379a00000000000000000000000000000000000000000000000000000000081526004016104df906120cd565b60405180910390fd5b80600260003373ffffffffffffffffffffffffffffffffffffffff1673ffffffffffffffffffffffffffffffffffffffff16815260200190815260200160002060000160026101000a81548161ffff021916908361ffff1602179055506001600260003373ffffffffffffffffffffffffffffffffffffffff1673ffffffffffffffffffffffffffffffffffffffff16815260200190815260200160002060000160016101000a81548160ff02191690831515021790555060018161ffff16815481106105b8576105b76120ed565b5b9060005260206000209060020201600101600081819054906101000a900461ffff16809291906105e79061214b565b91906101000a81548161ffff021916908361ffff160217905550506000601681819054906101000a900461ffff16809291906106229061214b565b91906101000a81548161ffff021916908361ffff160217905550508061ffff163373ffffffffffffffffffffffffffffffffffffffff167f2941e36a18e27644e8ea10bad396659ac866fd7a18a75015d088fc148e24d85460405160405180910390a350565b61069061199e565b600260003373ffffffffffffffffffffffffffffffffffffffff1673ffffffffffffffffffffffffffffffffffffffff16815260200190815260200160002060000160009054906101000a900460ff1661071f576040517f08c379a000000000000000000000000000000000000000000000000000000000815260040161071690611f63565b60405180910390fd5b600260008373ffffffffffffffffffffffffffffffffffffffff1673ffffffffffffffffffffffffffffffffffffffff16815260200190815260200160002060000160009054906101000a900460ff166107ae576040517f08c379a00000000000000000000000000000000000000000000000000000000081526004016107a5906121c1565b60405180910390fd5b600260008373ffffffffffffffffffffffffffffffffffffffff1673ffffffffffffffffffffffffffffffffffffffff16815260200190815260200160002060000160019054906101000a900460ff1661083d576040517f08c379a00000000000000000000000000000000000000000000000000000000081526004016108349061222d565b60405180910390fd5b6001600260008473ffffffffffffffffffffffffffffffffffffffff1673ffffffffffffffffffffffffffffffffffffffff16815260200190815260200160002060000160029054906101000a900461ffff1661ffff16815481106108a5576108a46120ed565b5b90600052602060002090600202016040518060400160405290816000820180546108ce9061227c565b80601f01602080910402602001604051908101604052809291908181526020018280546108fa9061227c565b80156109475780601f1061091c57610100808354040283529160200191610947565b820191906000526020600020905b81548152906001019060200180831161092a57829003601f168201915b505050505081526020016001820160009054906101000a900461ffff1661ffff1661ffff16815250509050919050565b600260003373ffffffffffffffffffffffffffffffffffffffff1673ffffffffffffffffffffffffffffffffffffffff16815260200190815260200160002060000160009054906101000a900460ff16610a06576040517f08c379a00000000000000000000000000000000000000000000000000000000081526004016109fd90611f63565b60405180910390fd5b60016005811115610a1a57610a19611db3565b5b6000601a9054906101000a900460ff166005811115610a3c57610a3b611db3565b5b14610a7c576040517f08c379a0000000000000000000000000000000000000000000000000000000008152600401610a7390611e65565b60405180910390fd5b60008282905011610ac2576040517f08c379a0000000000000000000000000000000000000000000000000000000008152600401610ab9906122f9565b60405180910390fd5b6001604051806040016040528084848080601f016020809104026020016040519081016040528093929190818152602001838380828437600081840152601f19601f820116905080830192505050505050508152602001600061ffff1681525090806001815401808255809150506001900390600052602060002090600202016000909190919091506000820151816000019081610b6091906124fe565b5060208201518160010160006101000a81548161ffff021916908361ffff1602179055505050600060018080549050610b9991906125d0565b9050600360003373ffffffffffffffffffffffffffffffffffffffff1673ffffffffffffffffffffffffffffffffffffffff16815260200190815260200160002081908060018154018082558091505060019003906000526020600020016000909161ffff169091909150558061ffff167f3a4c611b68899d706a17379718e0e71bc4fbd91ba8e193b04e9876719d2d860360405160405180910390a2505050565b6060600260003373ffffffffffffffffffffffffffffffffffffffff1673ffffffffffffffffffffffffffffffffffffffff16815260200190815260200160002060000160009054906101000a900460ff16610ccc576040517f08c379a0000000000000000000000000000000000000000000000000000000008152600401610cc390611f63565b60405180910390fd5b600260008373ffffffffffffffffffffffffffffffffffffffff1673ffffffffffffffffffffffffffffffffffffffff16815260200190815260200160002060000160009054906101000a900460ff16610d5b576040517f08c379a0000000000000000000000000000000000000000000000000000000008152600401610d52906121c1565b60405180910390fd5b6000600360008473ffffffffffffffffffffffffffffffffffffffff1673ffffffffffffffffffffffffffffffffffffffff168152602001908152602001600020805480602002602001604051908101604052809291908181526020018280548015610de657602002820191906000526020600020905b815481526020019060010190808311610dd2575b505050505090506000815167ffffffffffffffff811115610e0a57610e09612319565b5b604051908082528060200260200182016040528015610e4357816020015b610e3061199e565b815260200190600190039081610e285790505b50905060005b82518161ffff161015610f88576001838261ffff1681518110610e6f57610e6e6120ed565b5b602002602001015181548110610e8857610e876120ed565b5b9060005260206000209060020201604051806040016040529081600082018054610eb19061227c565b80601f0160208091040260200160405190810160405280929190818152602001828054610edd9061227c565b8015610f2a5780601f10610eff57610100808354040283529160200191610f2a565b820191906000526020600020905b815481529060010190602001808311610f0d57829003601f168201915b505050505081526020016001820160009054906101000a900461ffff1661ffff1661ffff1681525050828261ffff1681518110610f6a57610f696120ed565b5b60200260200101819052508080610f809061214b565b915050610e49565b508092505050919050565b610f9b6117cb565b610fa560006118d2565b565b610faf6117cb565b60006005811115610fc357610fc2611db3565b5b6000601a9054906101000a900460ff166005811115610fe557610fe4611db3565b5b14611025576040517f08c379a000000000000000000000000000000000000000000000000000000000815260040161101c90612676565b60405180910390fd5b6001600060189054906101000a900461ffff1661ffff161161107c576040517f08c379a000000000000000000000000000000000000000000000000000000000815260040161107390612708565b60405180910390fd5b6110866001611849565b565b60008060009054906101000a900473ffffffffffffffffffffffffffffffffffffffff16905090565b6110b961199e565b6005808111156110cc576110cb611db3565b5b6000601a9054906101000a900460ff1660058111156110ee576110ed611db3565b5b1461112e576040517f08c379a000000000000000000000000000000000000000000000000000000000815260040161112590612774565b60405180910390fd5b6001600060149054906101000a900461ffff1661ffff1681548110611156576111556120ed565b5b906000526020600020906002020160405180604001604052908160008201805461117f9061227c565b80601f01602080910402602001604051908101604052809291908181526020018280546111ab9061227c565b80156111f85780601f106111cd576101008083540402835291602001916111f8565b820191906000526020600020905b8154815290600101906020018083116111db57829003601f168201915b505050505081526020016001820160009054906101000a900461ffff1661ffff1661ffff1681525050905090565b61122e6117cb565b6000600581111561124257611241611db3565b5b6000601a9054906101000a900460ff16600581111561126457611263611db3565b5b146112a4576040517f08c379a000000000000000000000000000000000000000000000000000000000815260040161129b90612676565b60405180910390fd5b600260008273ffffffffffffffffffffffffffffffffffffffff1673ffffffffffffffffffffffffffffffffffffffff16815260200190815260200160002060000160009054906101000a900460ff1615611334576040517f08c379a000000000000000000000000000000000000000000000000000000000815260040161132b906127e0565b60405180910390fd5b6040518060600160405280600115158152602001600015158152602001600061ffff16815250600260008373ffffffffffffffffffffffffffffffffffffffff1673ffffffffffffffffffffffffffffffffffffffff16815260200190815260200160002060008201518160000160006101000a81548160ff02191690831515021790555060208201518160000160016101000a81548160ff02191690831515021790555060408201518160000160026101000a81548161ffff021916908361ffff1602179055509050506000601881819054906101000a900461ffff168092919061141f9061214b565b91906101000a81548161ffff021916908361ffff160217905550508073ffffffffffffffffffffffffffffffffffffffff167fb6be2187d059cc2a55fe29e0e503b566e1e0f8c8780096e185429350acffd3dd60405160405180910390a250565b6114886117cb565b6002600581111561149c5761149b611db3565b5b6000601a9054906101000a900460ff1660058111156114be576114bd611db3565b5b146114fe576040517f08c379a00000000000000000000000000000000000000000000000000000000081526004016114f590612872565b60405180910390fd5b6115086003611849565b565b6115126117cb565b6003600581111561152657611525611db3565b5b6000601a9054906101000a900460ff16600581111561154857611547611db3565b5b14611588576040517f08c379a000000000000000000000000000000000000000000000000000000000815260040161157f90611ff5565b60405180910390fd5b60008060169054906101000a900461ffff1661ffff16116115de576040517f08c379a00000000000000000000000000000000000000000000000000000000081526004016115d590612904565b60405180910390fd5b6115e86004611849565b565b6115f26117cb565b6004600581111561160657611605611db3565b5b6000601a9054906101000a900460ff16600581111561162857611627611db3565b5b14611668576040517f08c379a000000000000000000000000000000000000000000000000000000000815260040161165f90612996565b60405180910390fd5b60005b6001805490508161ffff16101561173b576001600060149054906101000a900461ffff1661ffff16815481106116a4576116a36120ed565b5b906000526020600020906002020160010160009054906101000a900461ffff1661ffff1660018261ffff16815481106116e0576116df6120ed565b5b906000526020600020906002020160010160009054906101000a900461ffff1661ffff1611156117285780600060146101000a81548161ffff021916908361ffff1602179055505b80806117339061214b565b91505061166b565b506117466005611849565b565b6117506117cb565b600073ffffffffffffffffffffffffffffffffffffffff168173ffffffffffffffffffffffffffffffffffffffff16036117bf576040517f08c379a00000000000000000000000000000000000000000000000000000000081526004016117b690612a28565b60405180910390fd5b6117c8816118d2565b50565b6117d3611996565b73ffffffffffffffffffffffffffffffffffffffff166117f1611088565b73ffffffffffffffffffffffffffffffffffffffff1614611847576040517f08c379a000000000000000000000000000000000000000000000000000000000815260040161183e90612a94565b60405180910390fd5b565b600080601a9054906101000a900460ff169050816000601a6101000a81548160ff0219169083600581111561188157611880611db3565b5b02179055507f0a97a4ee45751e2abf3e4fc8946939630b11b371ea8ae39ccdc3056e98f5cc3f816000601a9054906101000a900460ff166040516118c6929190612afc565b60405180910390a15050565b60008060009054906101000a900473ffffffffffffffffffffffffffffffffffffffff169050816000806101000a81548173ffffffffffffffffffffffffffffffffffffffff021916908373ffffffffffffffffffffffffffffffffffffffff1602179055508173ffffffffffffffffffffffffffffffffffffffff168173ffffffffffffffffffffffffffffffffffffffff167f8be0079c531659141344cd1fd0a4f28419497f9722a3daafe3b4186f6b6457e060405160405180910390a35050565b600033905090565b604051806040016040528060608152602001600061ffff1681525090565b600080fd5b600080fd5b600061ffff82169050919050565b6119dd816119c6565b81146119e857600080fd5b50565b6000813590506119fa816119d4565b92915050565b600060208284031215611a1657611a156119bc565b5b6000611a24848285016119eb565b91505092915050565b600073ffffffffffffffffffffffffffffffffffffffff82169050919050565b6000611a5882611a2d565b9050919050565b611a6881611a4d565b8114611a7357600080fd5b50565b600081359050611a8581611a5f565b92915050565b600060208284031215611aa157611aa06119bc565b5b6000611aaf84828501611a76565b91505092915050565b600081519050919050565b600082825260208201905092915050565b60005b83811015611af2578082015181840152602081019050611ad7565b60008484015250505050565b6000601f19601f8301169050919050565b6000611b1a82611ab8565b611b248185611ac3565b9350611b34818560208601611ad4565b611b3d81611afe565b840191505092915050565b611b51816119c6565b82525050565b60006040830160008301518482036000860152611b748282611b0f565b9150506020830151611b896020860182611b48565b508091505092915050565b60006020820190508181036000830152611bae8184611b57565b905092915050565b600080fd5b600080fd5b600080fd5b60008083601f840112611bdb57611bda611bb6565b5b8235905067ffffffffffffffff811115611bf857611bf7611bbb565b5b602083019150836001820283011115611c1457611c13611bc0565b5b9250929050565b60008060208385031215611c3257611c316119bc565b5b600083013567ffffffffffffffff811115611c5057611c4f6119c1565b5b611c5c85828601611bc5565b92509250509250929050565b600081519050919050565b600082825260208201905092915050565b6000819050602082019050919050565b60006040830160008301518482036000860152611cb18282611b0f565b9150506020830151611cc66020860182611b48565b508091505092915050565b6000611cdd8383611c94565b905092915050565b6000602082019050919050565b6000611cfd82611c68565b611d078185611c73565b935083602082028501611d1985611c84565b8060005b85811015611d555784840389528151611d368582611cd1565b9450611d4183611ce5565b925060208a01995050600181019050611d1d565b50829750879550505050505092915050565b60006020820190508181036000830152611d818184611cf2565b905092915050565b611d9281611a4d565b82525050565b6000602082019050611dad6000830184611d89565b92915050565b7f4e487b7100000000000000000000000000000000000000000000000000000000600052602160045260246000fd5b600082825260208201905092915050565b7f5468652070726f706f73616c20726567697374726174696f6e206973206e6f7460008201527f2073746172746564207965742e00000000000000000000000000000000000000602082015250565b6000611e4f602d83611de2565b9150611e5a82611df3565b604082019050919050565b60006020820190508181036000830152611e7e81611e42565b9050919050565b7f4e656564206174206c656173742074776f2070726f706f73616c7320746f207360008201527f746f7020612070726f706f73616c2073657373696f6e2e000000000000000000602082015250565b6000611ee1603783611de2565b9150611eec82611e85565b604082019050919050565b60006020820190508181036000830152611f1081611ed4565b9050919050565b7f596f75206d757374206265207265676973746572656420646f20746869732e00600082015250565b6000611f4d601f83611de2565b9150611f5882611f17565b602082019050919050565b60006020820190508181036000830152611f7c81611f40565b9050919050565b7f54686520766f74696e672073657373696f6e206973206e6f742073746172746560008201527f64207965742e0000000000000000000000000000000000000000000000000000602082015250565b6000611fdf602683611de2565b9150611fea82611f83565b604082019050919050565b6000602082019050818103600083015261200e81611fd2565b9050919050565b7f596f7520616c726561647920766f7465642e0000000000000000000000000000600082015250565b600061204b601283611de2565b915061205682612015565b602082019050919050565b6000602082019050818103600083015261207a8161203e565b9050919050565b7f546869732070726f706f73616c20646f6573206e6f74206578697374732e0000600082015250565b60006120b7601e83611de2565b91506120c282612081565b602082019050919050565b600060208201905081810360008301526120e6816120aa565b9050919050565b7f4e487b7100000000000000000000000000000000000000000000000000000000600052603260045260246000fd5b7f4e487b7100000000000000000000000000000000000000000000000000000000600052601160045260246000fd5b6000612156826119c6565b915061ffff820361216a5761216961211c565b5b600182019050919050565b7f54686520766f746572206973206e6f7420726567697374657265642e00000000600082015250565b60006121ab601c83611de2565b91506121b682612175565b602082019050919050565b600060208201905081810360008301526121da8161219e565b9050919050565b7f54686520766f74657220686173206e6f7420766f746564207965742e00000000600082015250565b6000612217601c83611de2565b9150612222826121e1565b602082019050919050565b600060208201905081810360008301526122468161220a565b9050919050565b7f4e487b7100000000000000000000000000000000000000000000000000000000600052602260045260246000fd5b6000600282049050600182168061229457607f821691505b6020821081036122a7576122a661224d565b5b50919050565b7f5468652070726f706f73616c2063616e6e6f7420626520656d7074792e000000600082015250565b60006122e3601d83611de2565b91506122ee826122ad565b602082019050919050565b60006020820190508181036000830152612312816122d6565b9050919050565b7f4e487b7100000000000000000000000000000000000000000000000000000000600052604160045260246000fd5b60008190508160005260206000209050919050565b60006020601f8301049050919050565b600082821b905092915050565b6000600883026123aa7fffffffffffffffffffffffffffffffffffffffffffffffffffffffffffffffff8261236d565b6123b4868361236d565b95508019841693508086168417925050509392505050565b6000819050919050565b6000819050919050565b60006123fb6123f66123f1846123cc565b6123d6565b6123cc565b9050919050565b6000819050919050565b612415836123e0565b61242961242182612402565b84845461237a565b825550505050565b600090565b61243e612431565b61244981848461240c565b505050565b5b8181101561246d57612462600082612436565b60018101905061244f565b5050565b601f8211156124b25761248381612348565b61248c8461235d565b8101602085101561249b578190505b6124af6124a78561235d565b83018261244e565b50505b505050565b600082821c905092915050565b60006124d5600019846008026124b7565b1980831691505092915050565b60006124ee83836124c4565b9150826002028217905092915050565b61250782611ab8565b67ffffffffffffffff8111156125205761251f612319565b5b61252a825461227c565b612535828285612471565b600060209050601f8311600181146125685760008415612556578287015190505b61256085826124e2565b8655506125c8565b601f19841661257686612348565b60005b8281101561259e57848901518255600182019150602085019450602081019050612579565b868310156125bb57848901516125b7601f8916826124c4565b8355505b6001600288020188555050505b505050505050565b60006125db826123cc565b91506125e6836123cc565b92508282039050818111156125fe576125fd61211c565b5b92915050565b7f546865207265676973746572696e6720766f74657273206973206e6f74206f7060008201527f656e6564207965742e0000000000000000000000000000000000000000000000602082015250565b6000612660602983611de2565b915061266b82612604565b604082019050919050565b6000602082019050818103600083015261268f81612653565b9050919050565b7f4e656564206174206c656173742074776f207265676973746572656420766f7460008201527f65727320746f20737461727420612070726f706f73616c2073657373696f6e2e602082015250565b60006126f2604083611de2565b91506126fd82612696565b604082019050919050565b60006020820190508181036000830152612721816126e5565b9050919050565b7f54686520766f746520636f756e74206973206e6f74206f766572207965742e00600082015250565b600061275e601f83611de2565b915061276982612728565b602082019050919050565b6000602082019050818103600083015261278d81612751565b9050919050565b7f54686520766f74657220697320616c726561647920726567697374657265642e600082015250565b60006127ca602083611de2565b91506127d582612794565b602082019050919050565b600060208201905081810360008301526127f9816127bd565b9050919050565b7f5468652070726f706f73616c20726567697374726174696f6e206973206e6f7460008201527f20656e646564207965742e000000000000000000000000000000000000000000602082015250565b600061285c602b83611de2565b915061286782612800565b604082019050919050565b6000602082019050818103600083015261288b8161284f565b9050919050565b7f4e656564206174206c65617374206f6e6520766f746520696e20612070726f7060008201527f726f73616c20746f2073746f70206120766f74696e672073657373696f6e2e00602082015250565b60006128ee603f83611de2565b91506128f982612892565b604082019050919050565b6000602082019050818103600083015261291d816128e1565b9050919050565b7f54686520766f74696e672073657373696f6e206973206e6f7420656e6465642060008201527f7965742e00000000000000000000000000000000000000000000000000000000602082015250565b6000612980602483611de2565b915061298b82612924565b604082019050919050565b600060208201905081810360008301526129af81612973565b9050919050565b7f4f776e61626c653a206e6577206f776e657220697320746865207a65726f206160008201527f6464726573730000000000000000000000000000000000000000000000000000602082015250565b6000612a12602683611de2565b9150612a1d826129b6565b604082019050919050565b60006020820190508181036000830152612a4181612a05565b9050919050565b7f4f776e61626c653a2063616c6c6572206973206e6f7420746865206f776e6572600082015250565b6000612a7e602083611de2565b9150612a8982612a48565b602082019050919050565b60006020820190508181036000830152612aad81612a71565b9050919050565b60068110612ac557612ac4611db3565b5b50565b6000819050612ad682612ab4565b919050565b6000612ae682612ac8565b9050919050565b612af681612adb565b82525050565b6000604082019050612b116000830185612aed565b612b1e6020830184612aed565b939250505056fea26469706673582212207c46ae8da4576bfab610977961a379f5c5809829e2a9d0d6615df9007d1af3d564736f6c63430008120033",
  "immutableReferences": {},
  "source": "// SPDX-License-Identifier: MIT\r\npragma solidity 0.8.18;\r\n\r\nimport \"@openzeppelin/contracts/access/Ownable.sol\";\r\n\r\ncontract Voting is Ownable {\r\n    uint16 private winningProposalId;\r\n    uint16 private votesCount;\r\n    uint16 private voterRegisteredCount;\r\n    WorkflowStatus private currentVotingSession;\r\n    Proposal[] private voterProposals;\r\n\r\n    mapping(address => Voter) private voters;\r\n    mapping(address => uint256[]) private voterProposalIds;\r\n\r\n    event VoterRegistered(address indexed voterAddress);\r\n    event WorkflowStatusChange(\r\n        WorkflowStatus previousStatus,\r\n        WorkflowStatus newStatus\r\n    );\r\n    event ProposalRegistered(uint16 indexed proposalId);\r\n    event Voted(address indexed voter, uint16 indexed proposalId);\r\n\r\n    enum WorkflowStatus {\r\n        RegisteringVoters,\r\n        ProposalsRegistrationStarted,\r\n        ProposalsRegistrationEnded,\r\n        VotingSessionStarted,\r\n        VotingSessionEnded,\r\n        VotesTallied\r\n    }\r\n\r\n    struct Voter {\r\n        bool isRegistered;\r\n        bool hasVoted;\r\n        uint16 votedProposalId;\r\n    }\r\n\r\n    struct Proposal {\r\n        string description;\r\n        uint16 voteCount;\r\n    }\r\n\r\n    modifier onlyRegistered() {\r\n        require(\r\n            voters[msg.sender].isRegistered,\r\n            \"You must be registered do this.\"\r\n        );\r\n        _;\r\n    }\r\n\r\n    /**\r\n     * @dev Change the current status and generate an event with the previous and the new status.\r\n     */\r\n    function _changeWorkflowStatus(WorkflowStatus newStatus) private {\r\n        WorkflowStatus previousStatus = currentVotingSession;\r\n        currentVotingSession = newStatus;\r\n\r\n        emit WorkflowStatusChange(previousStatus, currentVotingSession);\r\n    }\r\n\r\n    /**\r\n     * @dev Allows only the adminstrator to add a new voter if the voter registration is started.\r\n     */\r\n    function adminAddRegistered(address _addrVoter) external onlyOwner {\r\n        require(\r\n            currentVotingSession == WorkflowStatus.RegisteringVoters,\r\n            \"The registering voters is not opened yet.\"\r\n        );\r\n        require(\r\n            !voters[_addrVoter].isRegistered,\r\n            \"The voter is already registered.\"\r\n        );\r\n\r\n        voters[_addrVoter] = Voter(true, false, 0);\r\n        voterRegisteredCount++;\r\n\r\n        emit VoterRegistered(_addrVoter);\r\n    }\r\n\r\n    /**\r\n     * @dev Allows only the administrator to start the proposal session if the voter registration is started\r\n     *      and there is at least 2 registered voters.\r\n     */\r\n    function adminStartProposalsSession() external onlyOwner {\r\n        require(\r\n            currentVotingSession == WorkflowStatus.RegisteringVoters,\r\n            \"The registering voters is not opened yet.\"\r\n        );\r\n        require(\r\n            voterRegisteredCount > 1,\r\n            \"Need at least two registered voters to start a proposal session.\"\r\n        );\r\n\r\n        _changeWorkflowStatus(WorkflowStatus.ProposalsRegistrationStarted);\r\n    }\r\n\r\n    /**\r\n     * @dev Allows only the administrator to stop the proposal session if the proposal registration is started\r\n     *      and there is at least 2 proposals.\r\n     */\r\n    function adminStopProposalsSession() external onlyOwner {\r\n        require(\r\n            currentVotingSession == WorkflowStatus.ProposalsRegistrationStarted,\r\n            \"The proposal registration is not started yet.\"\r\n        );\r\n        require(\r\n            voterProposals.length > 1,\r\n            \"Need at least two proposals to stop a proposal session.\"\r\n        );\r\n\r\n        _changeWorkflowStatus(WorkflowStatus.ProposalsRegistrationEnded);\r\n    }\r\n\r\n    /**\r\n     * @dev Allows only the administrator to start the voting session if the proposal registration is started.\r\n     */\r\n    function adminStartVotingSession() external onlyOwner {\r\n        require(\r\n            currentVotingSession == WorkflowStatus.ProposalsRegistrationEnded,\r\n            \"The proposal registration is not ended yet.\"\r\n        );\r\n\r\n        _changeWorkflowStatus(WorkflowStatus.VotingSessionStarted);\r\n    }\r\n\r\n    /**\r\n     * @dev Allows only the administrator to stop the voting session if the voting session is started\r\n     *      and there is at least one vote in a proposal.\r\n     */\r\n    function adminStopVotingSession() external onlyOwner {\r\n        require(\r\n            currentVotingSession == WorkflowStatus.VotingSessionStarted,\r\n            \"The voting session is not started yet.\"\r\n        );\r\n        require(\r\n            votesCount > 0,\r\n            \"Need at least one vote in a proprosal to stop a voting session.\"\r\n        );\r\n\r\n        _changeWorkflowStatus(WorkflowStatus.VotingSessionEnded);\r\n    }\r\n\r\n    /**\r\n     * @dev Allows only the administrator to count the votes if the voting session is stopped.\r\n     *      In case of a tie, the winning proposal is the first found in the list\r\n     */\r\n    function adminTallyVotes() external onlyOwner {\r\n        require(\r\n            currentVotingSession == WorkflowStatus.VotingSessionEnded,\r\n            \"The voting session is not ended yet.\"\r\n        );\r\n\r\n        for (uint16 i = 0; i < voterProposals.length; i++) {\r\n            if (\r\n                voterProposals[i].voteCount >\r\n                voterProposals[winningProposalId].voteCount\r\n            ) {\r\n                winningProposalId = i;\r\n            }\r\n        }\r\n\r\n        _changeWorkflowStatus(WorkflowStatus.VotesTallied);\r\n    }\r\n\r\n    /**\r\n     * @dev Allows only a registered voter to add a proposal if the proposal registration is started\r\n     *      and the description is not empty.\r\n     */\r\n    function voterAddProposal(string calldata _description)\r\n        external\r\n        onlyRegistered\r\n    {\r\n        require(\r\n            currentVotingSession == WorkflowStatus.ProposalsRegistrationStarted,\r\n            \"The proposal registration is not started yet.\"\r\n        );\r\n        require(\r\n            bytes(_description).length > 0,\r\n            \"The proposal cannot be empty.\"\r\n        );\r\n\r\n        voterProposals.push(Proposal(_description, 0));\r\n        uint16 proposalId = uint16(voterProposals.length - 1);\r\n        voterProposalIds[msg.sender].push(proposalId);\r\n\r\n        emit ProposalRegistered(proposalId);\r\n    }\r\n\r\n    /**\r\n     * @dev Allows only a registered voter to vote if the voting session is started\r\n     *      and the user has not voted yet and the proposal id exists.\r\n     */\r\n    function voterAddVote(uint16 _proposalId) external onlyRegistered {\r\n        require(\r\n            currentVotingSession == WorkflowStatus.VotingSessionStarted,\r\n            \"The voting session is not started yet.\"\r\n        );\r\n        require(!voters[msg.sender].hasVoted, \"You already voted.\");\r\n        require(\r\n            _proposalId < voterProposals.length,\r\n            \"This proposal does not exists.\"\r\n        );\r\n\r\n        voters[msg.sender].votedProposalId = _proposalId;\r\n        voters[msg.sender].hasVoted = true;\r\n        voterProposals[_proposalId].voteCount++;\r\n        votesCount++;\r\n\r\n        emit Voted(msg.sender, _proposalId);\r\n    }\r\n\r\n    /**\r\n     * @dev Allows everybody to check the winner if the vote count is over.\r\n     * @return The winning proposal\r\n     */\r\n    function getWinner() external view returns (Proposal memory) {\r\n        require(\r\n            currentVotingSession == WorkflowStatus.VotesTallied,\r\n            \"The vote count is not over yet.\"\r\n        );\r\n\r\n        return voterProposals[winningProposalId];\r\n    }\r\n\r\n    /**\r\n     * @dev Allows only a registered voter to check all the proposals of a registered voter.\r\n     * @return The winning proposal\r\n     */\r\n    function getVoterProposals(address _addr)\r\n        external\r\n        view\r\n        onlyRegistered\r\n        returns (Proposal[] memory)\r\n    {\r\n        require(voters[_addr].isRegistered, \"The voter is not registered.\");\r\n\r\n        uint256[] memory addrVoterProposalIds = voterProposalIds[_addr];\r\n        Proposal[] memory addrVoterProposals = new Proposal[](\r\n            addrVoterProposalIds.length\r\n        );\r\n        for (uint16 i = 0; i < addrVoterProposalIds.length; i++) {\r\n            addrVoterProposals[i] = voterProposals[addrVoterProposalIds[i]];\r\n        }\r\n\r\n        return (addrVoterProposals);\r\n    }\r\n\r\n    /**\r\n     * @dev Allows only a registered voter to check for which proposal a registered voter has voted.\r\n     * @return The proposal for which the voter voted\r\n     */\r\n    function getVoterVote(address _addr)\r\n        external\r\n        view\r\n        onlyRegistered\r\n        returns (Proposal memory)\r\n    {\r\n        require(voters[_addr].isRegistered, \"The voter is not registered.\");\r\n        require(voters[_addr].hasVoted, \"The voter has not voted yet.\");\r\n\r\n        return voterProposals[voters[_addr].votedProposalId];\r\n    }\r\n}\r\n",
  "sourcePath": "C:\\Users\\Alex\\Documents\\Travail\\Alyra\\Alyra-Solidity\\contracts\\voting-system\\voting.sol",
  "compiler": {
    "name": "solc",
    "version": "0.8.18+commit.87f61d96.Emscripten.clang"
  },
  "schemaVersion": "3.4.7",
  "updatedAt": "2023-02-18T20:52:10.836Z",
  "devdoc": {
    "kind": "dev",
    "methods": {
      "adminAddRegistered(address)": {
        "details": "Allows only the adminstrator to add a new voter if the voter registration is started."
      },
      "adminStartProposalsSession()": {
        "details": "Allows only the administrator to start the proposal session if the voter registration is started      and there is at least 2 registered voters."
      },
      "adminStartVotingSession()": {
        "details": "Allows only the administrator to start the voting session if the proposal registration is started."
      },
      "adminStopProposalsSession()": {
        "details": "Allows only the administrator to stop the proposal session if the proposal registration is started      and there is at least 2 proposals."
      },
      "adminStopVotingSession()": {
        "details": "Allows only the administrator to stop the voting session if the voting session is started      and there is at least one vote in a proposal."
      },
      "adminTallyVotes()": {
        "details": "Allows only the administrator to count the votes if the voting session is stopped.      In case of a tie, the winning proposal is the first found in the list"
      },
      "getVoterProposals(address)": {
        "details": "Allows only a registered voter to check all the proposals of a registered voter.",
        "returns": {
          "_0": "The winning proposal"
        }
      },
      "getVoterVote(address)": {
        "details": "Allows only a registered voter to check for which proposal a registered voter has voted.",
        "returns": {
          "_0": "The proposal for which the voter voted"
        }
      },
      "getWinner()": {
        "details": "Allows everybody to check the winner if the vote count is over.",
        "returns": {
          "_0": "The winning proposal"
        }
      },
      "owner()": {
        "details": "Returns the address of the current owner."
      },
      "renounceOwnership()": {
        "details": "Leaves the contract without owner. It will not be possible to call `onlyOwner` functions anymore. Can only be called by the current owner. NOTE: Renouncing ownership will leave the contract without an owner, thereby removing any functionality that is only available to the owner."
      },
      "transferOwnership(address)": {
        "details": "Transfers ownership of the contract to a new account (`newOwner`). Can only be called by the current owner."
      },
      "voterAddProposal(string)": {
        "details": "Allows only a registered voter to add a proposal if the proposal registration is started      and the description is not empty."
      },
      "voterAddVote(uint16)": {
        "details": "Allows only a registered voter to vote if the voting session is started      and the user has not voted yet and the proposal id exists."
      }
    },
    "version": 1
  },
  "userdoc": {
    "kind": "user",
    "methods": {},
    "version": 1
  }
}